{
  "address": "0x6B289385Eb0DBEa5B68DaC96Efb721804A04f6fc",
  "abi": [
    {
      "inputs": [
        {
          "internalType": "address",
          "name": "_endpoint",
          "type": "address"
        },
        {
          "internalType": "address",
          "name": "_owner",
          "type": "address"
        }
      ],
      "stateMutability": "nonpayable",
      "type": "constructor"
    },
    {
      "inputs": [
        {
          "internalType": "address",
          "name": "owner",
          "type": "address"
        }
      ],
      "name": "OwnableInvalidOwner",
      "type": "error"
    },
    {
      "inputs": [
        {
          "internalType": "address",
          "name": "account",
          "type": "address"
        }
      ],
      "name": "OwnableUnauthorizedAccount",
      "type": "error"
    },
    {
      "inputs": [],
      "name": "ReentrancyGuardReentrantCall",
      "type": "error"
    },
    {
      "anonymous": false,
      "inputs": [
        {
          "indexed": false,
          "internalType": "uint16",
          "name": "_srcChainId",
          "type": "uint16"
        },
        {
          "indexed": false,
          "internalType": "bytes",
          "name": "_srcAddress",
          "type": "bytes"
        },
        {
          "indexed": false,
          "internalType": "uint64",
          "name": "_nonce",
          "type": "uint64"
        },
        {
          "indexed": false,
          "internalType": "bytes",
          "name": "_payload",
          "type": "bytes"
        },
        {
          "indexed": false,
          "internalType": "bytes",
          "name": "_reason",
          "type": "bytes"
        }
      ],
      "name": "MessageFailed",
      "type": "event"
    },
    {
      "anonymous": false,
      "inputs": [
        {
          "indexed": true,
          "internalType": "address",
          "name": "previousOwner",
          "type": "address"
        },
        {
          "indexed": true,
          "internalType": "address",
          "name": "newOwner",
          "type": "address"
        }
      ],
      "name": "OwnershipTransferred",
      "type": "event"
    },
    {
      "anonymous": false,
      "inputs": [
        {
          "indexed": false,
          "internalType": "bytes",
          "name": "payload",
          "type": "bytes"
        }
      ],
      "name": "ProposalExecuted",
      "type": "event"
    },
    {
      "anonymous": false,
      "inputs": [
        {
          "indexed": false,
          "internalType": "uint16",
          "name": "_srcChainId",
          "type": "uint16"
        },
        {
          "indexed": false,
          "internalType": "bytes",
          "name": "_srcAddress",
          "type": "bytes"
        },
        {
          "indexed": false,
          "internalType": "uint64",
          "name": "_nonce",
          "type": "uint64"
        },
        {
          "indexed": false,
          "internalType": "bytes",
          "name": "_reason",
          "type": "bytes"
        }
      ],
      "name": "ProposalFailed",
      "type": "event"
    },
    {
      "anonymous": false,
      "inputs": [
        {
          "indexed": false,
          "internalType": "uint16",
          "name": "_srcChainId",
          "type": "uint16"
        },
        {
          "indexed": false,
          "internalType": "bytes",
          "name": "_srcAddress",
          "type": "bytes"
        },
        {
          "indexed": false,
          "internalType": "uint64",
          "name": "_nonce",
          "type": "uint64"
        },
        {
          "indexed": false,
          "internalType": "bytes32",
          "name": "_payloadHash",
          "type": "bytes32"
        }
      ],
      "name": "RetryMessageSuccess",
      "type": "event"
    },
    {
      "anonymous": false,
      "inputs": [
        {
          "indexed": false,
          "internalType": "uint16",
          "name": "_dstChainId",
          "type": "uint16"
        },
        {
          "indexed": false,
          "internalType": "uint16",
          "name": "_type",
          "type": "uint16"
        },
        {
          "indexed": false,
          "internalType": "uint256",
          "name": "_minDstGas",
          "type": "uint256"
        }
      ],
      "name": "SetMinDstGas",
      "type": "event"
    },
    {
      "anonymous": false,
      "inputs": [
        {
          "indexed": false,
          "internalType": "address",
          "name": "precrime",
          "type": "address"
        }
      ],
      "name": "SetPrecrime",
      "type": "event"
    },
    {
      "anonymous": false,
      "inputs": [
        {
          "indexed": false,
          "internalType": "uint16",
          "name": "_remoteChainId",
          "type": "uint16"
        },
        {
          "indexed": false,
          "internalType": "bytes",
          "name": "_path",
          "type": "bytes"
        }
      ],
      "name": "SetTrustedRemote",
      "type": "event"
    },
    {
      "anonymous": false,
      "inputs": [
        {
          "indexed": false,
          "internalType": "uint16",
          "name": "_remoteChainId",
          "type": "uint16"
        },
        {
          "indexed": false,
          "internalType": "bytes",
          "name": "_remoteAddress",
          "type": "bytes"
        }
      ],
      "name": "SetTrustedRemoteAddress",
      "type": "event"
    },
    {
      "inputs": [],
      "name": "DEFAULT_PAYLOAD_SIZE_LIMIT",
      "outputs": [
        {
          "internalType": "uint256",
          "name": "",
          "type": "uint256"
        }
      ],
      "stateMutability": "view",
      "type": "function"
    },
    {
      "inputs": [
        {
          "internalType": "uint16",
          "name": "",
          "type": "uint16"
        },
        {
          "internalType": "bytes",
          "name": "",
          "type": "bytes"
        },
        {
          "internalType": "uint64",
          "name": "",
          "type": "uint64"
        }
      ],
      "name": "failedMessages",
      "outputs": [
        {
          "internalType": "bytes32",
          "name": "",
          "type": "bytes32"
        }
      ],
      "stateMutability": "view",
      "type": "function"
    },
    {
      "inputs": [
        {
          "internalType": "uint16",
          "name": "_srcChainId",
          "type": "uint16"
        },
        {
          "internalType": "bytes",
          "name": "_srcAddress",
          "type": "bytes"
        }
      ],
      "name": "forceResumeReceive",
      "outputs": [],
      "stateMutability": "nonpayable",
      "type": "function"
    },
    {
      "inputs": [
        {
          "internalType": "uint16",
          "name": "_version",
          "type": "uint16"
        },
        {
          "internalType": "uint16",
          "name": "_chainId",
          "type": "uint16"
        },
        {
          "internalType": "address",
          "name": "",
          "type": "address"
        },
        {
          "internalType": "uint256",
          "name": "_configType",
          "type": "uint256"
        }
      ],
      "name": "getConfig",
      "outputs": [
        {
          "internalType": "bytes",
          "name": "",
          "type": "bytes"
        }
      ],
      "stateMutability": "view",
      "type": "function"
    },
    {
      "inputs": [
        {
          "internalType": "uint16",
          "name": "_remoteChainId",
          "type": "uint16"
        }
      ],
      "name": "getTrustedRemoteAddress",
      "outputs": [
        {
          "internalType": "bytes",
          "name": "",
          "type": "bytes"
        }
      ],
      "stateMutability": "view",
      "type": "function"
    },
    {
      "inputs": [
        {
          "internalType": "uint16",
          "name": "_srcChainId",
          "type": "uint16"
        },
        {
          "internalType": "bytes",
          "name": "_srcAddress",
          "type": "bytes"
        }
      ],
      "name": "isTrustedRemote",
      "outputs": [
        {
          "internalType": "bool",
          "name": "",
          "type": "bool"
        }
      ],
      "stateMutability": "view",
      "type": "function"
    },
    {
      "inputs": [],
      "name": "lzEndpoint",
      "outputs": [
        {
          "internalType": "contract ILayerZeroEndpoint",
          "name": "",
          "type": "address"
        }
      ],
      "stateMutability": "view",
      "type": "function"
    },
    {
      "inputs": [
        {
          "internalType": "uint16",
          "name": "_srcChainId",
          "type": "uint16"
        },
        {
          "internalType": "bytes",
          "name": "_srcAddress",
          "type": "bytes"
        },
        {
          "internalType": "uint64",
          "name": "_nonce",
          "type": "uint64"
        },
        {
          "internalType": "bytes",
          "name": "_payload",
          "type": "bytes"
        }
      ],
      "name": "lzReceive",
      "outputs": [],
      "stateMutability": "nonpayable",
      "type": "function"
    },
    {
      "inputs": [
        {
          "internalType": "uint16",
          "name": "",
          "type": "uint16"
        },
        {
          "internalType": "uint16",
          "name": "",
          "type": "uint16"
        }
      ],
      "name": "minDstGasLookup",
      "outputs": [
        {
          "internalType": "uint256",
          "name": "",
          "type": "uint256"
        }
      ],
      "stateMutability": "view",
      "type": "function"
    },
    {
      "inputs": [
        {
          "internalType": "uint16",
          "name": "_srcChainId",
          "type": "uint16"
        },
        {
          "internalType": "bytes",
          "name": "_srcAddress",
          "type": "bytes"
        },
        {
          "internalType": "uint64",
          "name": "_nonce",
          "type": "uint64"
        },
        {
          "internalType": "bytes",
          "name": "_payload",
          "type": "bytes"
        }
      ],
      "name": "nonblockingLzReceive",
      "outputs": [],
      "stateMutability": "nonpayable",
      "type": "function"
    },
    {
      "inputs": [],
      "name": "owner",
      "outputs": [
        {
          "internalType": "address",
          "name": "",
          "type": "address"
        }
      ],
      "stateMutability": "view",
      "type": "function"
    },
    {
      "inputs": [
        {
          "internalType": "uint16",
          "name": "",
          "type": "uint16"
        }
      ],
      "name": "payloadSizeLimitLookup",
      "outputs": [
        {
          "internalType": "uint256",
          "name": "",
          "type": "uint256"
        }
      ],
      "stateMutability": "view",
      "type": "function"
    },
    {
      "inputs": [],
      "name": "precrime",
      "outputs": [
        {
          "internalType": "address",
          "name": "",
          "type": "address"
        }
      ],
      "stateMutability": "view",
      "type": "function"
    },
    {
      "inputs": [],
      "name": "renounceOwnership",
      "outputs": [],
      "stateMutability": "nonpayable",
      "type": "function"
    },
    {
      "inputs": [
        {
          "internalType": "uint16",
          "name": "_srcChainId",
          "type": "uint16"
        },
        {
          "internalType": "bytes",
          "name": "_srcAddress",
          "type": "bytes"
        },
        {
          "internalType": "uint64",
          "name": "_nonce",
          "type": "uint64"
        },
        {
          "internalType": "bytes",
          "name": "_payload",
          "type": "bytes"
        }
      ],
      "name": "retryMessage",
      "outputs": [],
      "stateMutability": "payable",
      "type": "function"
    },
    {
      "inputs": [
        {
          "internalType": "uint16",
          "name": "_version",
          "type": "uint16"
        },
        {
          "internalType": "uint16",
          "name": "_chainId",
          "type": "uint16"
        },
        {
          "internalType": "uint256",
          "name": "_configType",
          "type": "uint256"
        },
        {
          "internalType": "bytes",
          "name": "_config",
          "type": "bytes"
        }
      ],
      "name": "setConfig",
      "outputs": [],
      "stateMutability": "nonpayable",
      "type": "function"
    },
    {
      "inputs": [
        {
          "internalType": "uint16",
          "name": "_dstChainId",
          "type": "uint16"
        },
        {
          "internalType": "uint16",
          "name": "_packetType",
          "type": "uint16"
        },
        {
          "internalType": "uint256",
          "name": "_minGas",
          "type": "uint256"
        }
      ],
      "name": "setMinDstGas",
      "outputs": [],
      "stateMutability": "nonpayable",
      "type": "function"
    },
    {
      "inputs": [
        {
          "internalType": "uint16",
          "name": "_dstChainId",
          "type": "uint16"
        },
        {
          "internalType": "uint256",
          "name": "_size",
          "type": "uint256"
        }
      ],
      "name": "setPayloadSizeLimit",
      "outputs": [],
      "stateMutability": "nonpayable",
      "type": "function"
    },
    {
      "inputs": [
        {
          "internalType": "address",
          "name": "_precrime",
          "type": "address"
        }
      ],
      "name": "setPrecrime",
      "outputs": [],
      "stateMutability": "nonpayable",
      "type": "function"
    },
    {
      "inputs": [
        {
          "internalType": "uint16",
          "name": "_version",
          "type": "uint16"
        }
      ],
      "name": "setReceiveVersion",
      "outputs": [],
      "stateMutability": "nonpayable",
      "type": "function"
    },
    {
      "inputs": [
        {
          "internalType": "uint16",
          "name": "_version",
          "type": "uint16"
        }
      ],
      "name": "setSendVersion",
      "outputs": [],
      "stateMutability": "nonpayable",
      "type": "function"
    },
    {
      "inputs": [
        {
          "internalType": "uint16",
          "name": "_remoteChainId",
          "type": "uint16"
        },
        {
          "internalType": "bytes",
          "name": "_path",
          "type": "bytes"
        }
      ],
      "name": "setTrustedRemote",
      "outputs": [],
      "stateMutability": "nonpayable",
      "type": "function"
    },
    {
      "inputs": [
        {
          "internalType": "uint16",
          "name": "_remoteChainId",
          "type": "uint16"
        },
        {
          "internalType": "bytes",
          "name": "_remoteAddress",
          "type": "bytes"
        }
      ],
      "name": "setTrustedRemoteAddress",
      "outputs": [],
      "stateMutability": "nonpayable",
      "type": "function"
    },
    {
      "inputs": [
        {
          "internalType": "address",
          "name": "newOwner",
          "type": "address"
        }
      ],
      "name": "transferOwnership",
      "outputs": [],
      "stateMutability": "nonpayable",
      "type": "function"
    },
    {
      "inputs": [
        {
          "internalType": "uint16",
          "name": "",
          "type": "uint16"
        }
      ],
      "name": "trustedRemoteLookup",
      "outputs": [
        {
          "internalType": "bytes",
          "name": "",
          "type": "bytes"
        }
      ],
      "stateMutability": "view",
      "type": "function"
    },
    {
      "stateMutability": "payable",
      "type": "receive"
    }
  ],
  "transactionHash": "0x4755e2b7a7b0e6d381cf767a2cb7f5c5915f050562b48d3d16d2ca7f5d7d10fa",
  "args": [
    "0x1a44076050125825900e736c501f859c50fE728c",
    "0x1F09Ec21d7fd0A21879b919bf0f9C46e6b85CA8b"
  ],
  "numDeployments": 1,
  "solcInputHash": "80217b7bf6bdf8910481d1edeff77bcd",
  "bytecode": "0x60a06040523480156200001157600080fd5b5060405162002604380380620026048339810160408190526200003491620000f9565b8180826001600160a01b0381166200006657604051631e4fbdf760e01b81526000600482015260240160405180910390fd5b62000071816200008c565b506001600160a01b0316608052505060016006555062000131565b600080546001600160a01b038381166001600160a01b0319831681178455604051919092169283917f8be0079c531659141344cd1fd0a4f28419497f9722a3daafe3b4186f6b6457e09190a35050565b80516001600160a01b0381168114620000f457600080fd5b919050565b600080604083850312156200010d57600080fd5b6200011883620000dc565b91506200012860208401620000dc565b90509250929050565b60805161248d620001776000396000818161044401528181610552015281816107d101528181610892015281816109ce01528181610e0f0152611238015261248d6000f3fe6080604052600436106101995760003560e01c80638da5cb5b116100e1578063c44618341161008a578063df2a5b3b11610064578063df2a5b3b146104cf578063eb8d72b7146104ef578063f2fde38b1461050f578063f5ecbdbc1461052f57600080fd5b8063c446183414610486578063cbed8b9c1461049c578063d1deba1f146104bc57600080fd5b8063a6c3d165116100bb578063a6c3d16514610412578063b353aaa714610432578063baf3292d1461046657600080fd5b80638da5cb5b146103a0578063950c8a74146103d25780639f38369a146103f257600080fd5b806342d65a8d11610143578063715018a61161011d578063715018a6146103265780637533d7881461033b5780638cfd8f5c1461036857600080fd5b806342d65a8d146102975780635b8c41e6146102b757806366ad5c8a1461030657600080fd5b806310ddb1371161017457806310ddb137146102075780633d8b38f6146102275780633f1f4fa41461025c57600080fd5b80621d3567146101a557806307e0db17146101c75780630df37483146101e757600080fd5b366101a057005b600080fd5b3480156101b157600080fd5b506101c56101c0366004611916565b61054f565b005b3480156101d357600080fd5b506101c56101e23660046119aa565b610797565b3480156101f357600080fd5b506101c56102023660046119c5565b610839565b34801561021357600080fd5b506101c56102223660046119aa565b610858565b34801561023357600080fd5b506102476102423660046119ef565b6108c9565b60405190151581526020015b60405180910390f35b34801561026857600080fd5b506102896102773660046119aa565b60036020526000908152604090205481565b604051908152602001610253565b3480156102a357600080fd5b506101c56102b23660046119ef565b610996565b3480156102c357600080fd5b506102896102d2366004611ab1565b6005602090815260009384526040808520845180860184018051928152908401958401959095209452929052825290205481565b34801561031257600080fd5b506101c5610321366004611916565b610a35565b34801561033257600080fd5b506101c5610b28565b34801561034757600080fd5b5061035b6103563660046119aa565b610b3c565b6040516102539190611ba2565b34801561037457600080fd5b50610289610383366004611bb5565b600260209081526000928352604080842090915290825290205481565b3480156103ac57600080fd5b506000546001600160a01b03165b6040516001600160a01b039091168152602001610253565b3480156103de57600080fd5b506004546103ba906001600160a01b031681565b3480156103fe57600080fd5b5061035b61040d3660046119aa565b610bd6565b34801561041e57600080fd5b506101c561042d3660046119ef565b610ce5565b34801561043e57600080fd5b506103ba7f000000000000000000000000000000000000000000000000000000000000000081565b34801561047257600080fd5b506101c5610481366004611bfd565b610d6e565b34801561049257600080fd5b5061028961271081565b3480156104a857600080fd5b506101c56104b7366004611c1a565b610dd7565b6101c56104ca366004611916565b610e85565b3480156104db57600080fd5b506101c56104ea366004611c89565b6110d3565b3480156104fb57600080fd5b506101c561050a3660046119ef565b61113d565b34801561051b57600080fd5b506101c561052a366004611bfd565b611197565b34801561053b57600080fd5b5061035b61054a366004611cc5565b6111ee565b337f00000000000000000000000000000000000000000000000000000000000000006001600160a01b0316146105cc5760405162461bcd60e51b815260206004820152601e60248201527f4c7a4170703a20696e76616c696420656e64706f696e742063616c6c6572000060448201526064015b60405180910390fd5b61ffff8616600090815260016020526040812080546105ea90611d12565b80601f016020809104026020016040519081016040528092919081815260200182805461061690611d12565b80156106635780601f1061063857610100808354040283529160200191610663565b820191906000526020600020905b81548152906001019060200180831161064657829003601f168201915b5050505050905080518686905014801561067e575060008151115b80156106a657508051602082012060405161069c9088908890611d4c565b6040518091039020145b6107185760405162461bcd60e51b815260206004820152602660248201527f4c7a4170703a20696e76616c696420736f757263652073656e64696e6720636f60448201527f6e7472616374000000000000000000000000000000000000000000000000000060648201526084016105c3565b61078e8787878080601f01602080910402602001604051908101604052809392919081815260200183838082843760009201919091525050604080516020601f8a018190048102820181019092528881528a9350915088908890819084018382808284376000920191909152506112b892505050565b50505050505050565b61079f6113fa565b6040517f07e0db1700000000000000000000000000000000000000000000000000000000815261ffff821660048201527f00000000000000000000000000000000000000000000000000000000000000006001600160a01b0316906307e0db17906024015b600060405180830381600087803b15801561081e57600080fd5b505af1158015610832573d6000803e3d6000fd5b5050505050565b6108416113fa565b61ffff909116600090815260036020526040902055565b6108606113fa565b6040517f10ddb13700000000000000000000000000000000000000000000000000000000815261ffff821660048201527f00000000000000000000000000000000000000000000000000000000000000006001600160a01b0316906310ddb13790602401610804565b61ffff8316600090815260016020526040812080548291906108ea90611d12565b80601f016020809104026020016040519081016040528092919081815260200182805461091690611d12565b80156109635780601f1061093857610100808354040283529160200191610963565b820191906000526020600020905b81548152906001019060200180831161094657829003601f168201915b50505050509050838360405161097a929190611d4c565b60405180910390208180519060200120149150505b9392505050565b61099e6113fa565b6040517f42d65a8d0000000000000000000000000000000000000000000000000000000081526001600160a01b037f000000000000000000000000000000000000000000000000000000000000000016906342d65a8d90610a0790869086908690600401611d85565b600060405180830381600087803b158015610a2157600080fd5b505af115801561078e573d6000803e3d6000fd5b333014610aaa5760405162461bcd60e51b815260206004820152602660248201527f4e6f6e626c6f636b696e674c7a4170703a2063616c6c6572206d75737420626560448201527f204c7a417070000000000000000000000000000000000000000000000000000060648201526084016105c3565b610b208686868080601f01602080910402602001604051908101604052809392919081815260200183838082843760009201919091525050604080516020601f89018190048102820181019092528781528993509150879087908190840183828082843760009201919091525061144092505050565b505050505050565b610b306113fa565b610b3a6000611520565b565b60016020526000908152604090208054610b5590611d12565b80601f0160208091040260200160405190810160405280929190818152602001828054610b8190611d12565b8015610bce5780601f10610ba357610100808354040283529160200191610bce565b820191906000526020600020905b815481529060010190602001808311610bb157829003601f168201915b505050505081565b61ffff8116600090815260016020526040812080546060929190610bf990611d12565b80601f0160208091040260200160405190810160405280929190818152602001828054610c2590611d12565b8015610c725780601f10610c4757610100808354040283529160200191610c72565b820191906000526020600020905b815481529060010190602001808311610c5557829003601f168201915b505050505090508051600003610cca5760405162461bcd60e51b815260206004820152601d60248201527f4c7a4170703a206e6f20747275737465642070617468207265636f726400000060448201526064016105c3565b61098f600060148351610cdd9190611db9565b83919061157d565b610ced6113fa565b818130604051602001610d0293929190611dd2565b60408051601f1981840301815291815261ffff8516600090815260016020522090610d2d9082611e43565b507f8c0400cfe2d1199b1a725c78960bcc2a344d869b80590d0f2bd005db15a572ce838383604051610d6193929190611d85565b60405180910390a1505050565b610d766113fa565b6004805473ffffffffffffffffffffffffffffffffffffffff19166001600160a01b0383169081179091556040519081527f5db758e995a17ec1ad84bdef7e8c3293a0bd6179bcce400dff5d4c3d87db726b9060200160405180910390a150565b610ddf6113fa565b6040517fcbed8b9c0000000000000000000000000000000000000000000000000000000081526001600160a01b037f0000000000000000000000000000000000000000000000000000000000000000169063cbed8b9c90610e4c9088908890889088908890600401611f03565b600060405180830381600087803b158015610e6657600080fd5b505af1158015610e7a573d6000803e3d6000fd5b505050505050505050565b61ffff86166000908152600560205260408082209051610ea89088908890611d4c565b908152604080516020928190038301902067ffffffffffffffff871660009081529252902054905080610f435760405162461bcd60e51b815260206004820152602360248201527f4e6f6e626c6f636b696e674c7a4170703a206e6f2073746f726564206d65737360448201527f616765000000000000000000000000000000000000000000000000000000000060648201526084016105c3565b808383604051610f54929190611d4c565b604051809103902014610fcf5760405162461bcd60e51b815260206004820152602160248201527f4e6f6e626c6f636b696e674c7a4170703a20696e76616c6964207061796c6f6160448201527f640000000000000000000000000000000000000000000000000000000000000060648201526084016105c3565b61ffff87166000908152600560205260408082209051610ff29089908990611d4c565b908152604080516020928190038301812067ffffffffffffffff8916600090815290845282902093909355601f8801829004820283018201905286825261108b918991899089908190840183828082843760009201919091525050604080516020601f8a018190048102820181019092528881528a93509150889088908190840183828082843760009201919091525061144092505050565b7fc264d91f3adc5588250e1551f547752ca0cfa8f6b530d243b9f9f4cab10ea8e587878787856040516110c2959493929190611f3c565b60405180910390a150505050505050565b6110db6113fa565b61ffff83811660008181526002602090815260408083209487168084529482529182902085905581519283528201929092529081018290527f9d5c7c0b934da8fefa9c7760c98383778a12dfbfc0c3b3106518f43fb9508ac090606001610d61565b6111456113fa565b61ffff83166000908152600160205260409020611163828483611f78565b507ffa41487ad5d6728f0b19276fa1eddc16558578f5109fc39d2dc33c3230470dab838383604051610d6193929190611d85565b61119f6113fa565b6001600160a01b0381166111e2576040517f1e4fbdf7000000000000000000000000000000000000000000000000000000008152600060048201526024016105c3565b6111eb81611520565b50565b6040517ff5ecbdbc00000000000000000000000000000000000000000000000000000000815261ffff808616600483015284166024820152306044820152606481018290526060907f00000000000000000000000000000000000000000000000000000000000000006001600160a01b03169063f5ecbdbc90608401600060405180830381865afa158015611287573d6000803e3d6000fd5b505050506040513d6000823e601f3d908101601f191682016040526112af9190810190612088565b95945050505050565b8051602082012061753060008061135d835a6112d49190611db9565b60966366ad5c8a60e01b8b8b8b8b6040516024016112f594939291906120c5565b60408051601f198184030181529190526020810180517bffffffffffffffffffffffffffffffffffffffffffffffffffffffff167fffffffff0000000000000000000000000000000000000000000000000000000090931692909217909152309291906116a5565b91509150816113f05761ffff881660009081526005602052604090819020905185919061138b908a90612104565b90815260408051918290036020908101832067ffffffffffffffff8b166000908152915220919091557f9c8956b55a8d2adbd435a058f8e11a447b2bf5c72abb98457e20050587ba9b96906113e7908a908a908a9086906120c5565b60405180910390a15b5050505050505050565b6000546001600160a01b03163314610b3a576040517f118cdaa70000000000000000000000000000000000000000000000000000000081523360048201526024016105c3565b6000806000808480602001905181019061145a91906122bf565b935093509350935060005b84518110156114f0576114de858281518110611483576114836123cd565b602002602001015185838151811061149d5761149d6123cd565b60200260200101518584815181106114b7576114b76123cd565b60200260200101518585815181106114d1576114d16123cd565b6020026020010151611730565b806114e8816123e3565b915050611465565b507f5f1c84a01d3bb49fae8cd2b12e5cbc6b36654a70f3ae95106da35a58753a7111856040516113e79190611ba2565b600080546001600160a01b0383811673ffffffffffffffffffffffffffffffffffffffff19831681178455604051919092169283917f8be0079c531659141344cd1fd0a4f28419497f9722a3daafe3b4186f6b6457e09190a35050565b60608161158b81601f6123fc565b10156115d95760405162461bcd60e51b815260206004820152600e60248201527f736c6963655f6f766572666c6f7700000000000000000000000000000000000060448201526064016105c3565b6115e382846123fc565b845110156116335760405162461bcd60e51b815260206004820152601160248201527f736c6963655f6f75744f66426f756e647300000000000000000000000000000060448201526064016105c3565b606082158015611652576040519150600082526020820160405261169c565b6040519150601f8416801560200281840101858101878315602002848b0101015b8183101561168b578051835260209283019201611673565b5050858452601f01601f1916604052505b50949350505050565b6000606060008060008661ffff1667ffffffffffffffff8111156116cb576116cb611a42565b6040519080825280601f01601f1916602001820160405280156116f5576020820181803683370190505b50905060008087516020890160008d8df191503d925086831115611717578692505b828152826000602083013e909890975095505050505050565b61173861185b565b600082516000146117715782805190602001208260405160200161175d92919061240f565b604051602081830303815290604052611773565b815b90506000856001600160a01b031685836040516117909190612104565b60006040518083038185875af1925050503d80600081146117cd576040519150601f19603f3d011682016040523d82523d6000602084013e6117d2565b606091505b50509050806118495760405162461bcd60e51b815260206004820152603b60248201527f4f6d6e69636861696e476f7665726e616e63654578656375746f723a2074726160448201527f6e73616374696f6e20657865637574696f6e207265766572746564000000000060648201526084016105c3565b50506118556001600655565b50505050565b600260065403611897576040517f3ee5aeb500000000000000000000000000000000000000000000000000000000815260040160405180910390fd5b6002600655565b803561ffff811681146118b057600080fd5b919050565b60008083601f8401126118c757600080fd5b50813567ffffffffffffffff8111156118df57600080fd5b6020830191508360208285010111156118f757600080fd5b9250929050565b803567ffffffffffffffff811681146118b057600080fd5b6000806000806000806080878903121561192f57600080fd5b6119388761189e565b9550602087013567ffffffffffffffff8082111561195557600080fd5b6119618a838b016118b5565b909750955085915061197560408a016118fe565b9450606089013591508082111561198b57600080fd5b5061199889828a016118b5565b979a9699509497509295939492505050565b6000602082840312156119bc57600080fd5b61098f8261189e565b600080604083850312156119d857600080fd5b6119e18361189e565b946020939093013593505050565b600080600060408486031215611a0457600080fd5b611a0d8461189e565b9250602084013567ffffffffffffffff811115611a2957600080fd5b611a35868287016118b5565b9497909650939450505050565b634e487b7160e01b600052604160045260246000fd5b604051601f8201601f1916810167ffffffffffffffff81118282101715611a8157611a81611a42565b604052919050565b600067ffffffffffffffff821115611aa357611aa3611a42565b50601f01601f191660200190565b600080600060608486031215611ac657600080fd5b611acf8461189e565b9250602084013567ffffffffffffffff811115611aeb57600080fd5b8401601f81018613611afc57600080fd5b8035611b0f611b0a82611a89565b611a58565b818152876020838501011115611b2457600080fd5b81602084016020830137600060208383010152809450505050611b49604085016118fe565b90509250925092565b60005b83811015611b6d578181015183820152602001611b55565b50506000910152565b60008151808452611b8e816020860160208601611b52565b601f01601f19169290920160200192915050565b60208152600061098f6020830184611b76565b60008060408385031215611bc857600080fd5b611bd18361189e565b9150611bdf6020840161189e565b90509250929050565b6001600160a01b03811681146111eb57600080fd5b600060208284031215611c0f57600080fd5b813561098f81611be8565b600080600080600060808688031215611c3257600080fd5b611c3b8661189e565b9450611c496020870161189e565b935060408601359250606086013567ffffffffffffffff811115611c6c57600080fd5b611c78888289016118b5565b969995985093965092949392505050565b600080600060608486031215611c9e57600080fd5b611ca78461189e565b9250611cb56020850161189e565b9150604084013590509250925092565b60008060008060808587031215611cdb57600080fd5b611ce48561189e565b9350611cf26020860161189e565b92506040850135611d0281611be8565b9396929550929360600135925050565b600181811c90821680611d2657607f821691505b602082108103611d4657634e487b7160e01b600052602260045260246000fd5b50919050565b8183823760009101908152919050565b81835281816020850137506000828201602090810191909152601f909101601f19169091010190565b61ffff841681526040602082015260006112af604083018486611d5c565b634e487b7160e01b600052601160045260246000fd5b81810381811115611dcc57611dcc611da3565b92915050565b8284823760609190911b6bffffffffffffffffffffffff19169101908152601401919050565b601f821115611e3e57600081815260208120601f850160051c81016020861015611e1f5750805b601f850160051c820191505b81811015610b2057828155600101611e2b565b505050565b815167ffffffffffffffff811115611e5d57611e5d611a42565b611e7181611e6b8454611d12565b84611df8565b602080601f831160018114611ea65760008415611e8e5750858301515b600019600386901b1c1916600185901b178555610b20565b600085815260208120601f198616915b82811015611ed557888601518255948401946001909101908401611eb6565b5085821015611ef35787850151600019600388901b60f8161c191681555b5050505050600190811b01905550565b600061ffff808816835280871660208401525084604083015260806060830152611f31608083018486611d5c565b979650505050505050565b61ffff86168152608060208201526000611f5a608083018688611d5c565b67ffffffffffffffff94909416604083015250606001529392505050565b67ffffffffffffffff831115611f9057611f90611a42565b611fa483611f9e8354611d12565b83611df8565b6000601f841160018114611fd85760008515611fc05750838201355b600019600387901b1c1916600186901b178355610832565b600083815260209020601f19861690835b828110156120095786850135825560209485019460019092019101611fe9565b50868210156120265760001960f88860031b161c19848701351681555b505060018560011b0183555050505050565b6000612046611b0a84611a89565b905082815283838301111561205a57600080fd5b61098f836020830184611b52565b600082601f83011261207957600080fd5b61098f83835160208501612038565b60006020828403121561209a57600080fd5b815167ffffffffffffffff8111156120b157600080fd5b6120bd84828501612068565b949350505050565b61ffff851681526080602082015260006120e26080830186611b76565b67ffffffffffffffff851660408401528281036060840152611f318185611b76565b60008251612116818460208701611b52565b9190910192915050565b600067ffffffffffffffff82111561213a5761213a611a42565b5060051b60200190565b600082601f83011261215557600080fd5b81516020612165611b0a83612120565b82815260059290921b8401810191818101908684111561218457600080fd5b8286015b8481101561219f5780518352918301918301612188565b509695505050505050565b600082601f8301126121bb57600080fd5b815160206121cb611b0a83612120565b82815260059290921b840181019181810190868411156121ea57600080fd5b8286015b8481101561219f57805167ffffffffffffffff81111561220e5760008081fd5b8701603f810189136122205760008081fd5b612231898683015160408401612038565b8452509183019183016121ee565b600082601f83011261225057600080fd5b81516020612260611b0a83612120565b82815260059290921b8401810191818101908684111561227f57600080fd5b8286015b8481101561219f57805167ffffffffffffffff8111156122a35760008081fd5b6122b18986838b0101612068565b845250918301918301612283565b600080600080608085870312156122d557600080fd5b845167ffffffffffffffff808211156122ed57600080fd5b818701915087601f83011261230157600080fd5b81516020612311611b0a83612120565b82815260059290921b8401810191818101908b84111561233057600080fd5b948201945b8386101561235757855161234881611be8565b82529482019490820190612335565b918a015191985090935050508082111561237057600080fd5b61237c88838901612144565b9450604087015191508082111561239257600080fd5b61239e888389016121aa565b935060608701519150808211156123b457600080fd5b506123c18782880161223f565b91505092959194509250565b634e487b7160e01b600052603260045260246000fd5b6000600182016123f5576123f5611da3565b5060010190565b80820180821115611dcc57611dcc611da3565b7fffffffff000000000000000000000000000000000000000000000000000000008316815260008251612449816004850160208701611b52565b91909101600401939250505056fea2646970667358221220f1c73bce6f0bb8eb7726834747aa2697e92bdd78c5a761f4c3998445b9752a9064736f6c63430008150033",
  "devdoc": {
    "details": "The owner of this contract controls LayerZero configuration. When used in production the owner should be set to a Timelock or this contract itself This implementation is non-blocking meaning the failed messages will not block the future messages from the source. For the blocking behavior derive the contract from LzApp",
    "errors": {
      "OwnableInvalidOwner(address)": [
        {
          "details": "The owner is not a valid owner account. (eg. `address(0)`)"
        }
      ],
      "OwnableUnauthorizedAccount(address)": [
        {
          "details": "The caller account is not authorized to perform an operation."
        }
      ],
      "ReentrancyGuardReentrantCall()": [
        {
          "details": "Unauthorized reentrant call."
        }
      ]
    },
    "kind": "dev",
    "methods": {
      "owner()": {
        "details": "Returns the address of the current owner."
      },
      "renounceOwnership()": {
        "details": "Leaves the contract without owner. It will not be possible to call `onlyOwner` functions. Can only be called by the current owner. NOTE: Renouncing ownership will leave the contract without an owner, thereby disabling any functionality that is only available to the owner."
      },
      "transferOwnership(address)": {
        "details": "Transfers ownership of the contract to a new account (`newOwner`). Can only be called by the current owner."
      }
    },
    "title": "Omnichain Governance Executor",
    "version": 1
  },
  "userdoc": {
    "kind": "user",
    "methods": {},
    "notice": "Executes the proposal transactions sent from the main chain",
    "version": 1
  },
  "storageLayout": {
    "storage": [
      {
        "astId": 1411,
        "contract": "contracts/governance/omnichain/OmnichainGovernanceExecutorL2.sol:OmnichainGovernanceExecutorL2",
        "label": "_owner",
        "offset": 0,
        "slot": "0",
        "type": "t_address"
      },
      {
        "astId": 455,
        "contract": "contracts/governance/omnichain/OmnichainGovernanceExecutorL2.sol:OmnichainGovernanceExecutorL2",
        "label": "trustedRemoteLookup",
        "offset": 0,
        "slot": "1",
        "type": "t_mapping(t_uint16,t_bytes_storage)"
      },
      {
        "astId": 461,
        "contract": "contracts/governance/omnichain/OmnichainGovernanceExecutorL2.sol:OmnichainGovernanceExecutorL2",
        "label": "minDstGasLookup",
        "offset": 0,
        "slot": "2",
        "type": "t_mapping(t_uint16,t_mapping(t_uint16,t_uint256))"
      },
      {
        "astId": 465,
        "contract": "contracts/governance/omnichain/OmnichainGovernanceExecutorL2.sol:OmnichainGovernanceExecutorL2",
        "label": "payloadSizeLimitLookup",
        "offset": 0,
        "slot": "3",
        "type": "t_mapping(t_uint16,t_uint256)"
      },
      {
        "astId": 467,
        "contract": "contracts/governance/omnichain/OmnichainGovernanceExecutorL2.sol:OmnichainGovernanceExecutorL2",
        "label": "precrime",
        "offset": 0,
        "slot": "4",
        "type": "t_address"
      },
      {
        "astId": 997,
        "contract": "contracts/governance/omnichain/OmnichainGovernanceExecutorL2.sol:OmnichainGovernanceExecutorL2",
        "label": "failedMessages",
        "offset": 0,
        "slot": "5",
        "type": "t_mapping(t_uint16,t_mapping(t_bytes_memory_ptr,t_mapping(t_uint64,t_bytes32)))"
      },
      {
        "astId": 1591,
        "contract": "contracts/governance/omnichain/OmnichainGovernanceExecutorL2.sol:OmnichainGovernanceExecutorL2",
        "label": "_status",
        "offset": 0,
        "slot": "6",
        "type": "t_uint256"
      }
    ],
    "types": {
      "t_address": {
        "encoding": "inplace",
        "label": "address",
        "numberOfBytes": "20"
      },
      "t_bytes32": {
        "encoding": "inplace",
        "label": "bytes32",
        "numberOfBytes": "32"
      },
      "t_bytes_memory_ptr": {
        "encoding": "bytes",
        "label": "bytes",
        "numberOfBytes": "32"
      },
      "t_bytes_storage": {
        "encoding": "bytes",
        "label": "bytes",
        "numberOfBytes": "32"
      },
      "t_mapping(t_bytes_memory_ptr,t_mapping(t_uint64,t_bytes32))": {
        "encoding": "mapping",
        "key": "t_bytes_memory_ptr",
        "label": "mapping(bytes => mapping(uint64 => bytes32))",
        "numberOfBytes": "32",
        "value": "t_mapping(t_uint64,t_bytes32)"
      },
      "t_mapping(t_uint16,t_bytes_storage)": {
        "encoding": "mapping",
        "key": "t_uint16",
        "label": "mapping(uint16 => bytes)",
        "numberOfBytes": "32",
        "value": "t_bytes_storage"
      },
      "t_mapping(t_uint16,t_mapping(t_bytes_memory_ptr,t_mapping(t_uint64,t_bytes32)))": {
        "encoding": "mapping",
        "key": "t_uint16",
        "label": "mapping(uint16 => mapping(bytes => mapping(uint64 => bytes32)))",
        "numberOfBytes": "32",
        "value": "t_mapping(t_bytes_memory_ptr,t_mapping(t_uint64,t_bytes32))"
      },
      "t_mapping(t_uint16,t_mapping(t_uint16,t_uint256))": {
        "encoding": "mapping",
        "key": "t_uint16",
        "label": "mapping(uint16 => mapping(uint16 => uint256))",
        "numberOfBytes": "32",
        "value": "t_mapping(t_uint16,t_uint256)"
      },
      "t_mapping(t_uint16,t_uint256)": {
        "encoding": "mapping",
        "key": "t_uint16",
        "label": "mapping(uint16 => uint256)",
        "numberOfBytes": "32",
        "value": "t_uint256"
      },
      "t_mapping(t_uint64,t_bytes32)": {
        "encoding": "mapping",
        "key": "t_uint64",
        "label": "mapping(uint64 => bytes32)",
        "numberOfBytes": "32",
        "value": "t_bytes32"
      },
      "t_uint16": {
        "encoding": "inplace",
        "label": "uint16",
        "numberOfBytes": "2"
      },
      "t_uint256": {
        "encoding": "inplace",
        "label": "uint256",
        "numberOfBytes": "32"
      },
      "t_uint64": {
        "encoding": "inplace",
        "label": "uint64",
        "numberOfBytes": "8"
      }
    }
  }
}