{
  "address": "0xD57e8bBc694F15317C54e3d6A9D98c931cD7A1B0",
  "abi": [
    {
      "inputs": [
        {
          "internalType": "address",
          "name": "target",
          "type": "address"
        }
      ],
      "name": "AddressEmptyCode",
      "type": "error"
    },
    {
      "inputs": [
        {
          "internalType": "address",
          "name": "account",
          "type": "address"
        }
      ],
      "name": "AddressInsufficientBalance",
      "type": "error"
    },
    {
      "inputs": [],
      "name": "CheckpointUnorderedInsertion",
      "type": "error"
    },
    {
      "inputs": [],
      "name": "ECDSAInvalidSignature",
      "type": "error"
    },
    {
      "inputs": [
        {
          "internalType": "uint256",
          "name": "length",
          "type": "uint256"
        }
      ],
      "name": "ECDSAInvalidSignatureLength",
      "type": "error"
    },
    {
      "inputs": [
        {
          "internalType": "bytes32",
          "name": "s",
          "type": "bytes32"
        }
      ],
      "name": "ECDSAInvalidSignatureS",
      "type": "error"
    },
    {
      "inputs": [
        {
          "internalType": "uint256",
          "name": "increasedSupply",
          "type": "uint256"
        },
        {
          "internalType": "uint256",
          "name": "cap",
          "type": "uint256"
        }
      ],
      "name": "ERC20ExceededSafeSupply",
      "type": "error"
    },
    {
      "inputs": [
        {
          "internalType": "address",
          "name": "spender",
          "type": "address"
        },
        {
          "internalType": "uint256",
          "name": "allowance",
          "type": "uint256"
        },
        {
          "internalType": "uint256",
          "name": "needed",
          "type": "uint256"
        }
      ],
      "name": "ERC20InsufficientAllowance",
      "type": "error"
    },
    {
      "inputs": [
        {
          "internalType": "address",
          "name": "sender",
          "type": "address"
        },
        {
          "internalType": "uint256",
          "name": "balance",
          "type": "uint256"
        },
        {
          "internalType": "uint256",
          "name": "needed",
          "type": "uint256"
        }
      ],
      "name": "ERC20InsufficientBalance",
      "type": "error"
    },
    {
      "inputs": [
        {
          "internalType": "address",
          "name": "approver",
          "type": "address"
        }
      ],
      "name": "ERC20InvalidApprover",
      "type": "error"
    },
    {
      "inputs": [
        {
          "internalType": "address",
          "name": "receiver",
          "type": "address"
        }
      ],
      "name": "ERC20InvalidReceiver",
      "type": "error"
    },
    {
      "inputs": [
        {
          "internalType": "address",
          "name": "sender",
          "type": "address"
        }
      ],
      "name": "ERC20InvalidSender",
      "type": "error"
    },
    {
      "inputs": [
        {
          "internalType": "address",
          "name": "spender",
          "type": "address"
        }
      ],
      "name": "ERC20InvalidSpender",
      "type": "error"
    },
    {
      "inputs": [
        {
          "internalType": "uint256",
          "name": "timepoint",
          "type": "uint256"
        },
        {
          "internalType": "uint48",
          "name": "clock",
          "type": "uint48"
        }
      ],
      "name": "ERC5805FutureLookup",
      "type": "error"
    },
    {
      "inputs": [],
      "name": "ERC6372InconsistentClock",
      "type": "error"
    },
    {
      "inputs": [],
      "name": "FailedInnerCall",
      "type": "error"
    },
    {
      "inputs": [
        {
          "internalType": "address",
          "name": "account",
          "type": "address"
        },
        {
          "internalType": "uint256",
          "name": "currentNonce",
          "type": "uint256"
        }
      ],
      "name": "InvalidAccountNonce",
      "type": "error"
    },
    {
      "inputs": [],
      "name": "InvalidInitialization",
      "type": "error"
    },
    {
      "inputs": [
        {
          "internalType": "address",
          "name": "",
          "type": "address"
        },
        {
          "internalType": "address",
          "name": "",
          "type": "address"
        }
      ],
      "name": "InvalidUnstaker",
      "type": "error"
    },
    {
      "inputs": [],
      "name": "NotInitializing",
      "type": "error"
    },
    {
      "inputs": [
        {
          "internalType": "address",
          "name": "owner",
          "type": "address"
        }
      ],
      "name": "OwnableInvalidOwner",
      "type": "error"
    },
    {
      "inputs": [
        {
          "internalType": "address",
          "name": "account",
          "type": "address"
        }
      ],
      "name": "OwnableUnauthorizedAccount",
      "type": "error"
    },
    {
      "inputs": [],
      "name": "ReentrancyGuardReentrantCall",
      "type": "error"
    },
    {
      "inputs": [
        {
          "internalType": "uint8",
          "name": "bits",
          "type": "uint8"
        },
        {
          "internalType": "uint256",
          "name": "value",
          "type": "uint256"
        }
      ],
      "name": "SafeCastOverflowedUintDowncast",
      "type": "error"
    },
    {
      "inputs": [
        {
          "internalType": "address",
          "name": "token",
          "type": "address"
        }
      ],
      "name": "SafeERC20FailedOperation",
      "type": "error"
    },
    {
      "inputs": [
        {
          "internalType": "uint256",
          "name": "expiry",
          "type": "uint256"
        }
      ],
      "name": "VotesExpiredSignature",
      "type": "error"
    },
    {
      "anonymous": false,
      "inputs": [
        {
          "indexed": true,
          "internalType": "address",
          "name": "owner",
          "type": "address"
        },
        {
          "indexed": true,
          "internalType": "address",
          "name": "spender",
          "type": "address"
        },
        {
          "indexed": false,
          "internalType": "uint256",
          "name": "value",
          "type": "uint256"
        }
      ],
      "name": "Approval",
      "type": "event"
    },
    {
      "anonymous": false,
      "inputs": [
        {
          "indexed": true,
          "internalType": "address",
          "name": "delegator",
          "type": "address"
        },
        {
          "indexed": true,
          "internalType": "address",
          "name": "fromDelegate",
          "type": "address"
        },
        {
          "indexed": true,
          "internalType": "address",
          "name": "toDelegate",
          "type": "address"
        }
      ],
      "name": "DelegateChanged",
      "type": "event"
    },
    {
      "anonymous": false,
      "inputs": [
        {
          "indexed": true,
          "internalType": "address",
          "name": "delegate",
          "type": "address"
        },
        {
          "indexed": false,
          "internalType": "uint256",
          "name": "previousVotes",
          "type": "uint256"
        },
        {
          "indexed": false,
          "internalType": "uint256",
          "name": "newVotes",
          "type": "uint256"
        }
      ],
      "name": "DelegateVotesChanged",
      "type": "event"
    },
    {
      "anonymous": false,
      "inputs": [],
      "name": "EIP712DomainChanged",
      "type": "event"
    },
    {
      "anonymous": false,
      "inputs": [
        {
          "indexed": false,
          "internalType": "uint64",
          "name": "version",
          "type": "uint64"
        }
      ],
      "name": "Initialized",
      "type": "event"
    },
    {
      "anonymous": false,
      "inputs": [
        {
          "indexed": true,
          "internalType": "uint256",
          "name": "id",
          "type": "uint256"
        },
        {
          "indexed": true,
          "internalType": "address",
          "name": "from",
          "type": "address"
        },
        {
          "indexed": true,
          "internalType": "address",
          "name": "to",
          "type": "address"
        }
      ],
      "name": "LockOwnershipTransferred",
      "type": "event"
    },
    {
      "anonymous": false,
      "inputs": [
        {
          "indexed": true,
          "internalType": "address",
          "name": "oldLpOracle",
          "type": "address"
        },
        {
          "indexed": true,
          "internalType": "address",
          "name": "newLpOracle",
          "type": "address"
        }
      ],
      "name": "LpOracleSet",
      "type": "event"
    },
    {
      "anonymous": false,
      "inputs": [
        {
          "indexed": true,
          "internalType": "address",
          "name": "previousOwner",
          "type": "address"
        },
        {
          "indexed": true,
          "internalType": "address",
          "name": "newOwner",
          "type": "address"
        }
      ],
      "name": "OwnershipTransferred",
      "type": "event"
    },
    {
      "anonymous": false,
      "inputs": [
        {
          "indexed": false,
          "internalType": "address",
          "name": "previousVoter",
          "type": "address"
        },
        {
          "indexed": false,
          "internalType": "address",
          "name": "_poolVoter",
          "type": "address"
        }
      ],
      "name": "PoolVoterUpdated",
      "type": "event"
    },
    {
      "anonymous": false,
      "inputs": [
        {
          "indexed": false,
          "internalType": "address",
          "name": "token",
          "type": "address"
        },
        {
          "indexed": false,
          "internalType": "uint256",
          "name": "amount",
          "type": "uint256"
        }
      ],
      "name": "Recovered",
      "type": "event"
    },
    {
      "anonymous": false,
      "inputs": [
        {
          "indexed": true,
          "internalType": "contract IERC20",
          "name": "reward",
          "type": "address"
        },
        {
          "indexed": true,
          "internalType": "uint256",
          "name": "amount",
          "type": "uint256"
        },
        {
          "indexed": false,
          "internalType": "address",
          "name": "caller",
          "type": "address"
        }
      ],
      "name": "RewardAdded",
      "type": "event"
    },
    {
      "anonymous": false,
      "inputs": [
        {
          "indexed": true,
          "internalType": "contract IERC20",
          "name": "reward",
          "type": "address"
        },
        {
          "indexed": true,
          "internalType": "uint256",
          "name": "amount",
          "type": "uint256"
        },
        {
          "indexed": true,
          "internalType": "address",
          "name": "who",
          "type": "address"
        },
        {
          "indexed": false,
          "internalType": "address",
          "name": "caller",
          "type": "address"
        }
      ],
      "name": "RewardClaimed",
      "type": "event"
    },
    {
      "anonymous": false,
      "inputs": [
        {
          "indexed": false,
          "internalType": "uint256",
          "name": "newDuration",
          "type": "uint256"
        }
      ],
      "name": "RewardsDurationUpdated",
      "type": "event"
    },
    {
      "anonymous": false,
      "inputs": [
        {
          "indexed": false,
          "internalType": "address",
          "name": "previousToken",
          "type": "address"
        },
        {
          "indexed": false,
          "internalType": "address",
          "name": "_zeroToken",
          "type": "address"
        }
      ],
      "name": "RewardsTokenUpdated",
      "type": "event"
    },
    {
      "anonymous": false,
      "inputs": [
        {
          "indexed": false,
          "internalType": "address",
          "name": "previousLocker",
          "type": "address"
        },
        {
          "indexed": false,
          "internalType": "address",
          "name": "_tokenLocker",
          "type": "address"
        }
      ],
      "name": "TokenLockerUpdated",
      "type": "event"
    },
    {
      "anonymous": false,
      "inputs": [
        {
          "indexed": true,
          "internalType": "address",
          "name": "from",
          "type": "address"
        },
        {
          "indexed": true,
          "internalType": "address",
          "name": "to",
          "type": "address"
        },
        {
          "indexed": false,
          "internalType": "uint256",
          "name": "value",
          "type": "uint256"
        }
      ],
      "name": "Transfer",
      "type": "event"
    },
    {
      "anonymous": false,
      "inputs": [
        {
          "indexed": true,
          "internalType": "address",
          "name": "oldZeroAggregator",
          "type": "address"
        },
        {
          "indexed": true,
          "internalType": "address",
          "name": "newZeroAggregator",
          "type": "address"
        }
      ],
      "name": "ZeroAggregatorSet",
      "type": "event"
    },
    {
      "inputs": [],
      "name": "CLOCK_MODE",
      "outputs": [
        {
          "internalType": "string",
          "name": "",
          "type": "string"
        }
      ],
      "stateMutability": "view",
      "type": "function"
    },
    {
      "inputs": [
        {
          "internalType": "address",
          "name": "owner",
          "type": "address"
        },
        {
          "internalType": "address",
          "name": "spender",
          "type": "address"
        }
      ],
      "name": "allowance",
      "outputs": [
        {
          "internalType": "uint256",
          "name": "",
          "type": "uint256"
        }
      ],
      "stateMutability": "view",
      "type": "function"
    },
    {
      "inputs": [
        {
          "internalType": "address",
          "name": "spender",
          "type": "address"
        },
        {
          "internalType": "uint256",
          "name": "value",
          "type": "uint256"
        }
      ],
      "name": "approve",
      "outputs": [
        {
          "internalType": "bool",
          "name": "",
          "type": "bool"
        }
      ],
      "stateMutability": "nonpayable",
      "type": "function"
    },
    {
      "inputs": [
        {
          "internalType": "address",
          "name": "account",
          "type": "address"
        }
      ],
      "name": "balanceOf",
      "outputs": [
        {
          "internalType": "uint256",
          "name": "",
          "type": "uint256"
        }
      ],
      "stateMutability": "view",
      "type": "function"
    },
    {
      "inputs": [
        {
          "internalType": "address",
          "name": "account",
          "type": "address"
        },
        {
          "internalType": "uint32",
          "name": "pos",
          "type": "uint32"
        }
      ],
      "name": "checkpoints",
      "outputs": [
        {
          "components": [
            {
              "internalType": "uint48",
              "name": "_key",
              "type": "uint48"
            },
            {
              "internalType": "uint208",
              "name": "_value",
              "type": "uint208"
            }
          ],
          "internalType": "struct Checkpoints.Checkpoint208",
          "name": "",
          "type": "tuple"
        }
      ],
      "stateMutability": "view",
      "type": "function"
    },
    {
      "inputs": [],
      "name": "clock",
      "outputs": [
        {
          "internalType": "uint48",
          "name": "",
          "type": "uint48"
        }
      ],
      "stateMutability": "view",
      "type": "function"
    },
    {
      "inputs": [],
      "name": "decimals",
      "outputs": [
        {
          "internalType": "uint8",
          "name": "",
          "type": "uint8"
        }
      ],
      "stateMutability": "view",
      "type": "function"
    },
    {
      "inputs": [
        {
          "internalType": "address",
          "name": "delegatee",
          "type": "address"
        }
      ],
      "name": "delegate",
      "outputs": [],
      "stateMutability": "nonpayable",
      "type": "function"
    },
    {
      "inputs": [
        {
          "internalType": "address",
          "name": "delegatee",
          "type": "address"
        },
        {
          "internalType": "uint256",
          "name": "nonce",
          "type": "uint256"
        },
        {
          "internalType": "uint256",
          "name": "expiry",
          "type": "uint256"
        },
        {
          "internalType": "uint8",
          "name": "v",
          "type": "uint8"
        },
        {
          "internalType": "bytes32",
          "name": "r",
          "type": "bytes32"
        },
        {
          "internalType": "bytes32",
          "name": "s",
          "type": "bytes32"
        }
      ],
      "name": "delegateBySig",
      "outputs": [],
      "stateMutability": "nonpayable",
      "type": "function"
    },
    {
      "inputs": [
        {
          "internalType": "address",
          "name": "account",
          "type": "address"
        }
      ],
      "name": "delegates",
      "outputs": [
        {
          "internalType": "address",
          "name": "",
          "type": "address"
        }
      ],
      "stateMutability": "view",
      "type": "function"
    },
    {
      "inputs": [],
      "name": "distributor",
      "outputs": [
        {
          "internalType": "address",
          "name": "",
          "type": "address"
        }
      ],
      "stateMutability": "view",
      "type": "function"
    },
    {
      "inputs": [
        {
          "internalType": "contract IERC20",
          "name": "token",
          "type": "address"
        },
        {
          "internalType": "address",
          "name": "account",
          "type": "address"
        }
      ],
      "name": "earned",
      "outputs": [
        {
          "internalType": "uint256",
          "name": "",
          "type": "uint256"
        }
      ],
      "stateMutability": "view",
      "type": "function"
    },
    {
      "inputs": [],
      "name": "eip712Domain",
      "outputs": [
        {
          "internalType": "bytes1",
          "name": "fields",
          "type": "bytes1"
        },
        {
          "internalType": "string",
          "name": "name",
          "type": "string"
        },
        {
          "internalType": "string",
          "name": "version",
          "type": "string"
        },
        {
          "internalType": "uint256",
          "name": "chainId",
          "type": "uint256"
        },
        {
          "internalType": "address",
          "name": "verifyingContract",
          "type": "address"
        },
        {
          "internalType": "bytes32",
          "name": "salt",
          "type": "bytes32"
        },
        {
          "internalType": "uint256[]",
          "name": "extensions",
          "type": "uint256[]"
        }
      ],
      "stateMutability": "view",
      "type": "function"
    },
    {
      "inputs": [
        {
          "internalType": "address",
          "name": "_user",
          "type": "address"
        }
      ],
      "name": "getLockedNftDetails",
      "outputs": [
        {
          "internalType": "uint256[]",
          "name": "",
          "type": "uint256[]"
        },
        {
          "components": [
            {
              "internalType": "uint256",
              "name": "amount",
              "type": "uint256"
            },
            {
              "internalType": "uint256",
              "name": "end",
              "type": "uint256"
            },
            {
              "internalType": "uint256",
              "name": "start",
              "type": "uint256"
            },
            {
              "internalType": "uint256",
              "name": "power",
              "type": "uint256"
            }
          ],
          "internalType": "struct ILocker.LockedBalance[]",
          "name": "",
          "type": "tuple[]"
        }
      ],
      "stateMutability": "view",
      "type": "function"
    },
    {
      "inputs": [
        {
          "internalType": "uint256",
          "name": "timepoint",
          "type": "uint256"
        }
      ],
      "name": "getPastTotalSupply",
      "outputs": [
        {
          "internalType": "uint256",
          "name": "",
          "type": "uint256"
        }
      ],
      "stateMutability": "view",
      "type": "function"
    },
    {
      "inputs": [
        {
          "internalType": "address",
          "name": "account",
          "type": "address"
        },
        {
          "internalType": "uint256",
          "name": "timepoint",
          "type": "uint256"
        }
      ],
      "name": "getPastVotes",
      "outputs": [
        {
          "internalType": "uint256",
          "name": "",
          "type": "uint256"
        }
      ],
      "stateMutability": "view",
      "type": "function"
    },
    {
      "inputs": [
        {
          "internalType": "address",
          "name": "who",
          "type": "address"
        },
        {
          "internalType": "contract IERC20",
          "name": "token",
          "type": "address"
        }
      ],
      "name": "getReward",
      "outputs": [],
      "stateMutability": "nonpayable",
      "type": "function"
    },
    {
      "inputs": [
        {
          "internalType": "address",
          "name": "who",
          "type": "address"
        }
      ],
      "name": "getRewardAll",
      "outputs": [],
      "stateMutability": "nonpayable",
      "type": "function"
    },
    {
      "inputs": [
        {
          "internalType": "address",
          "name": "who",
          "type": "address"
        }
      ],
      "name": "getRewardDual",
      "outputs": [],
      "stateMutability": "nonpayable",
      "type": "function"
    },
    {
      "inputs": [
        {
          "internalType": "address",
          "name": "who",
          "type": "address"
        }
      ],
      "name": "getRewardETH",
      "outputs": [],
      "stateMutability": "nonpayable",
      "type": "function"
    },
    {
      "inputs": [
        {
          "internalType": "uint256",
          "name": "amount",
          "type": "uint256"
        }
      ],
      "name": "getTokenPower",
      "outputs": [
        {
          "internalType": "uint256",
          "name": "_power",
          "type": "uint256"
        }
      ],
      "stateMutability": "view",
      "type": "function"
    },
    {
      "inputs": [
        {
          "internalType": "address",
          "name": "account",
          "type": "address"
        }
      ],
      "name": "getVotes",
      "outputs": [
        {
          "internalType": "uint256",
          "name": "",
          "type": "uint256"
        }
      ],
      "stateMutability": "view",
      "type": "function"
    },
    {
      "inputs": [
        {
          "internalType": "uint256",
          "name": "tokenId",
          "type": "uint256"
        },
        {
          "internalType": "uint256",
          "name": "newLockAmount",
          "type": "uint256"
        }
      ],
      "name": "increaseLockAmount",
      "outputs": [],
      "stateMutability": "nonpayable",
      "type": "function"
    },
    {
      "inputs": [
        {
          "internalType": "uint256",
          "name": "tokenId",
          "type": "uint256"
        },
        {
          "internalType": "uint256",
          "name": "newLockDuration",
          "type": "uint256"
        }
      ],
      "name": "increaseLockDuration",
      "outputs": [],
      "stateMutability": "nonpayable",
      "type": "function"
    },
    {
      "inputs": [
        {
          "internalType": "address",
          "name": "_locker",
          "type": "address"
        },
        {
          "internalType": "address",
          "name": "_weth",
          "type": "address"
        },
        {
          "internalType": "address[]",
          "name": "_rewardTokens",
          "type": "address[]"
        },
        {
          "internalType": "uint256",
          "name": "_rewardsDuration",
          "type": "uint256"
        },
        {
          "internalType": "address",
          "name": "_owner",
          "type": "address"
        },
        {
          "internalType": "address",
          "name": "_distributor",
          "type": "address"
        }
      ],
      "name": "initialize",
      "outputs": [],
      "stateMutability": "nonpayable",
      "type": "function"
    },
    {
      "inputs": [
        {
          "internalType": "contract IERC20",
          "name": "token",
          "type": "address"
        }
      ],
      "name": "lastTimeRewardApplicable",
      "outputs": [
        {
          "internalType": "uint256",
          "name": "",
          "type": "uint256"
        }
      ],
      "stateMutability": "view",
      "type": "function"
    },
    {
      "inputs": [
        {
          "internalType": "contract IERC20",
          "name": "reward",
          "type": "address"
        }
      ],
      "name": "lastUpdateTime",
      "outputs": [
        {
          "internalType": "uint256",
          "name": "",
          "type": "uint256"
        }
      ],
      "stateMutability": "view",
      "type": "function"
    },
    {
      "inputs": [
        {
          "internalType": "uint256",
          "name": "",
          "type": "uint256"
        }
      ],
      "name": "lockedByToken",
      "outputs": [
        {
          "internalType": "address",
          "name": "",
          "type": "address"
        }
      ],
      "stateMutability": "view",
      "type": "function"
    },
    {
      "inputs": [
        {
          "internalType": "address",
          "name": "",
          "type": "address"
        },
        {
          "internalType": "uint256",
          "name": "",
          "type": "uint256"
        }
      ],
      "name": "lockedTokenIdNfts",
      "outputs": [
        {
          "internalType": "uint256",
          "name": "",
          "type": "uint256"
        }
      ],
      "stateMutability": "view",
      "type": "function"
    },
    {
      "inputs": [],
      "name": "locker",
      "outputs": [
        {
          "internalType": "contract ILocker",
          "name": "",
          "type": "address"
        }
      ],
      "stateMutability": "view",
      "type": "function"
    },
    {
      "inputs": [
        {
          "internalType": "uint256",
          "name": "",
          "type": "uint256"
        }
      ],
      "name": "migratedLockId",
      "outputs": [
        {
          "internalType": "bool",
          "name": "",
          "type": "bool"
        }
      ],
      "stateMutability": "view",
      "type": "function"
    },
    {
      "inputs": [],
      "name": "migrator",
      "outputs": [
        {
          "internalType": "address",
          "name": "",
          "type": "address"
        }
      ],
      "stateMutability": "view",
      "type": "function"
    },
    {
      "inputs": [
        {
          "internalType": "uint256",
          "name": "_id",
          "type": "uint256"
        },
        {
          "internalType": "address",
          "name": "_to",
          "type": "address"
        }
      ],
      "name": "moveLockOwnership",
      "outputs": [],
      "stateMutability": "nonpayable",
      "type": "function"
    },
    {
      "inputs": [
        {
          "internalType": "bytes[]",
          "name": "data",
          "type": "bytes[]"
        }
      ],
      "name": "multicall",
      "outputs": [
        {
          "internalType": "bytes[]",
          "name": "results",
          "type": "bytes[]"
        }
      ],
      "stateMutability": "nonpayable",
      "type": "function"
    },
    {
      "inputs": [],
      "name": "name",
      "outputs": [
        {
          "internalType": "string",
          "name": "",
          "type": "string"
        }
      ],
      "stateMutability": "view",
      "type": "function"
    },
    {
      "inputs": [
        {
          "internalType": "address",
          "name": "owner",
          "type": "address"
        }
      ],
      "name": "nonces",
      "outputs": [
        {
          "internalType": "uint256",
          "name": "",
          "type": "uint256"
        }
      ],
      "stateMutability": "view",
      "type": "function"
    },
    {
      "inputs": [
        {
          "internalType": "contract IERC20",
          "name": "token",
          "type": "address"
        },
        {
          "internalType": "uint256",
          "name": "reward",
          "type": "uint256"
        }
      ],
      "name": "notifyRewardAmount",
      "outputs": [],
      "stateMutability": "nonpayable",
      "type": "function"
    },
    {
      "inputs": [
        {
          "internalType": "address",
          "name": "account",
          "type": "address"
        }
      ],
      "name": "numCheckpoints",
      "outputs": [
        {
          "internalType": "uint32",
          "name": "",
          "type": "uint32"
        }
      ],
      "stateMutability": "view",
      "type": "function"
    },
    {
      "inputs": [
        {
          "internalType": "address",
          "name": "to",
          "type": "address"
        },
        {
          "internalType": "address",
          "name": "from",
          "type": "address"
        },
        {
          "internalType": "uint256",
          "name": "tokenId",
          "type": "uint256"
        },
        {
          "internalType": "bytes",
          "name": "data",
          "type": "bytes"
        }
      ],
      "name": "onERC721Received",
      "outputs": [
        {
          "internalType": "bytes4",
          "name": "",
          "type": "bytes4"
        }
      ],
      "stateMutability": "nonpayable",
      "type": "function"
    },
    {
      "inputs": [],
      "name": "owner",
      "outputs": [
        {
          "internalType": "address",
          "name": "",
          "type": "address"
        }
      ],
      "stateMutability": "view",
      "type": "function"
    },
    {
      "inputs": [
        {
          "internalType": "contract IERC20",
          "name": "reward",
          "type": "address"
        }
      ],
      "name": "periodFinish",
      "outputs": [
        {
          "internalType": "uint256",
          "name": "",
          "type": "uint256"
        }
      ],
      "stateMutability": "view",
      "type": "function"
    },
    {
      "inputs": [
        {
          "internalType": "uint256",
          "name": "",
          "type": "uint256"
        }
      ],
      "name": "power",
      "outputs": [
        {
          "internalType": "uint256",
          "name": "",
          "type": "uint256"
        }
      ],
      "stateMutability": "view",
      "type": "function"
    },
    {
      "inputs": [
        {
          "internalType": "address",
          "name": "tokenAddress",
          "type": "address"
        },
        {
          "internalType": "uint256",
          "name": "tokenAmount",
          "type": "uint256"
        }
      ],
      "name": "recoverERC20",
      "outputs": [],
      "stateMutability": "nonpayable",
      "type": "function"
    },
    {
      "inputs": [
        {
          "internalType": "contract IERC20",
          "name": "token",
          "type": "address"
        }
      ],
      "name": "registerNewRewardToken",
      "outputs": [],
      "stateMutability": "nonpayable",
      "type": "function"
    },
    {
      "inputs": [],
      "name": "renounceOwnership",
      "outputs": [],
      "stateMutability": "nonpayable",
      "type": "function"
    },
    {
      "inputs": [
        {
          "internalType": "contract IERC20",
          "name": "token",
          "type": "address"
        }
      ],
      "name": "rewardPerToken",
      "outputs": [
        {
          "internalType": "uint256",
          "name": "",
          "type": "uint256"
        }
      ],
      "stateMutability": "view",
      "type": "function"
    },
    {
      "inputs": [
        {
          "internalType": "contract IERC20",
          "name": "reward",
          "type": "address"
        }
      ],
      "name": "rewardPerTokenStored",
      "outputs": [
        {
          "internalType": "uint256",
          "name": "",
          "type": "uint256"
        }
      ],
      "stateMutability": "view",
      "type": "function"
    },
    {
      "inputs": [
        {
          "internalType": "contract IERC20",
          "name": "reward",
          "type": "address"
        }
      ],
      "name": "rewardRate",
      "outputs": [
        {
          "internalType": "uint256",
          "name": "",
          "type": "uint256"
        }
      ],
      "stateMutability": "view",
      "type": "function"
    },
    {
      "inputs": [],
      "name": "rewardToken1",
      "outputs": [
        {
          "internalType": "contract IERC20",
          "name": "",
          "type": "address"
        }
      ],
      "stateMutability": "view",
      "type": "function"
    },
    {
      "inputs": [],
      "name": "rewardToken2",
      "outputs": [
        {
          "internalType": "contract IERC20",
          "name": "",
          "type": "address"
        }
      ],
      "stateMutability": "view",
      "type": "function"
    },
    {
      "inputs": [
        {
          "internalType": "uint256",
          "name": "",
          "type": "uint256"
        }
      ],
      "name": "rewardTokens",
      "outputs": [
        {
          "internalType": "contract IERC20",
          "name": "",
          "type": "address"
        }
      ],
      "stateMutability": "view",
      "type": "function"
    },
    {
      "inputs": [
        {
          "internalType": "contract IERC20",
          "name": "reward",
          "type": "address"
        },
        {
          "internalType": "address",
          "name": "who",
          "type": "address"
        }
      ],
      "name": "rewards",
      "outputs": [
        {
          "internalType": "uint256",
          "name": "rewards",
          "type": "uint256"
        }
      ],
      "stateMutability": "view",
      "type": "function"
    },
    {
      "inputs": [],
      "name": "rewardsDuration",
      "outputs": [
        {
          "internalType": "uint256",
          "name": "",
          "type": "uint256"
        }
      ],
      "stateMutability": "view",
      "type": "function"
    },
    {
      "inputs": [
        {
          "internalType": "address",
          "name": "what",
          "type": "address"
        }
      ],
      "name": "setRewardDistributor",
      "outputs": [],
      "stateMutability": "nonpayable",
      "type": "function"
    },
    {
      "inputs": [],
      "name": "symbol",
      "outputs": [
        {
          "internalType": "string",
          "name": "",
          "type": "string"
        }
      ],
      "stateMutability": "view",
      "type": "function"
    },
    {
      "inputs": [
        {
          "internalType": "address",
          "name": "who",
          "type": "address"
        }
      ],
      "name": "totalNFTStaked",
      "outputs": [
        {
          "internalType": "uint256",
          "name": "",
          "type": "uint256"
        }
      ],
      "stateMutability": "view",
      "type": "function"
    },
    {
      "inputs": [],
      "name": "totalSupply",
      "outputs": [
        {
          "internalType": "uint256",
          "name": "",
          "type": "uint256"
        }
      ],
      "stateMutability": "view",
      "type": "function"
    },
    {
      "inputs": [],
      "name": "totalVotes",
      "outputs": [
        {
          "internalType": "uint256",
          "name": "",
          "type": "uint256"
        }
      ],
      "stateMutability": "view",
      "type": "function"
    },
    {
      "inputs": [
        {
          "internalType": "address",
          "name": "",
          "type": "address"
        },
        {
          "internalType": "uint256",
          "name": "",
          "type": "uint256"
        }
      ],
      "name": "transfer",
      "outputs": [
        {
          "internalType": "bool",
          "name": "",
          "type": "bool"
        }
      ],
      "stateMutability": "pure",
      "type": "function"
    },
    {
      "inputs": [
        {
          "internalType": "address",
          "name": "",
          "type": "address"
        },
        {
          "internalType": "address",
          "name": "",
          "type": "address"
        },
        {
          "internalType": "uint256",
          "name": "",
          "type": "uint256"
        }
      ],
      "name": "transferFrom",
      "outputs": [
        {
          "internalType": "bool",
          "name": "",
          "type": "bool"
        }
      ],
      "stateMutability": "pure",
      "type": "function"
    },
    {
      "inputs": [
        {
          "internalType": "address",
          "name": "newOwner",
          "type": "address"
        }
      ],
      "name": "transferOwnership",
      "outputs": [],
      "stateMutability": "nonpayable",
      "type": "function"
    },
    {
      "inputs": [
        {
          "internalType": "uint256",
          "name": "tokenId",
          "type": "uint256"
        }
      ],
      "name": "unstakeToken",
      "outputs": [],
      "stateMutability": "nonpayable",
      "type": "function"
    },
    {
      "inputs": [
        {
          "internalType": "contract IERC20",
          "name": "token",
          "type": "address"
        },
        {
          "internalType": "address",
          "name": "who",
          "type": "address"
        }
      ],
      "name": "updateRewards",
      "outputs": [],
      "stateMutability": "nonpayable",
      "type": "function"
    },
    {
      "inputs": [
        {
          "internalType": "contract IERC20",
          "name": "reward",
          "type": "address"
        },
        {
          "internalType": "address",
          "name": "who",
          "type": "address"
        }
      ],
      "name": "userRewardPerTokenPaid",
      "outputs": [
        {
          "internalType": "uint256",
          "name": "",
          "type": "uint256"
        }
      ],
      "stateMutability": "view",
      "type": "function"
    },
    {
      "inputs": [],
      "name": "weth",
      "outputs": [
        {
          "internalType": "contract IERC20",
          "name": "",
          "type": "address"
        }
      ],
      "stateMutability": "view",
      "type": "function"
    }
  ],
  "transactionHash": "0xdf55feaefa301aa3618a9fbdce3a3ffd009c291c22062e9c394787163aa24ad9",
  "args": [],
  "numDeployments": 1,
  "solcInputHash": "5d7660dcf02d3c709ec997b7c2f17cf2",
  "bytecode": "0x608060405234801561001057600080fd5b506150f9806100206000396000f3fe608060405234801561001057600080fd5b50600436106103ea5760003560e01c80637ecebe001161021a578063b66503cf11610135578063dd62ed3e116100c8578063f1127ed811610097578063f2fde38b1161007c578063f2fde38b14610a40578063f58eb0ce14610a53578063f892c9fc14610a7657600080fd5b8063f1127ed8146109ee578063f122977714610a2d57600080fd5b8063dd62ed3e14610945578063e40b8db51461099d578063e70b9e27146109b0578063f01edde0146109db57600080fd5b8063cd42184311610104578063cd421843146108f7578063d61a47f11461090a578063d7b96d4e14610912578063da09d19d1461092557600080fd5b8063b66503cf1461089e578063bfe10928146108b1578063c3cda520146108c4578063cc193fb0146108d757600080fd5b80639ab24eb0116101ad578063a9059cbb1161017c578063a9059cbb14610837578063aa8815161461084a578063ab0ed1061461086b578063ac9650d81461087e57600080fd5b80639ab24eb0146107de5780639ce43f90146107f15780639ee91fea14610811578063a1809b951461082457600080fd5b80638da5cb5b116101e95780638da5cb5b146107745780638e539e8c146107a457806391ddadf4146107b757806395d89b41146107d657600080fd5b80637ecebe001461072057806384b0196e1461073357806387c5d8321461074e5780638980f11f1461076157600080fd5b80633b6240321161030a5780636b0916951161029d57806370a082311161026c57806370a08231146106df578063715018a6146106f25780637bb7bed1146106fa5780637cd07e471461070d57600080fd5b80636b091695146106715780636f28d688146106845780636fcfff451461068c5780637035ab98146106b457600080fd5b806356981ac5116102d957806356981ac5146105e9578063587cde1e146106125780635c19a95c1461064b578063638634ee1461065e57600080fd5b80633b624032146105905780633fc8cef3146105a35780634bf5d7e9146105ce57806354ac1250146105d657600080fd5b8063211dc32d116103825780632cfb6688116103515780632cfb668814610552578063313ce56714610565578063386a9525146105745780633a46b1a81461057d57600080fd5b8063211dc32d146104ec578063221ca18c146104ff57806323b872dd1461051f5780632ce9aead1461053257600080fd5b80630e37d36f116103be5780630e37d36f1461045b578063150b7a021461046e57806318160ddd146104b25780631fd54bde146104d957600080fd5b8062443d89146103ef57806306fdde0314610404578063095ea7b3146104225780630d15fd7714610445575b600080fd5b6104026103fd3660046146c2565b610a9f565b005b61040c610ca5565b604051610419919061472f565b60405180910390f35b610435610430366004614742565b610d60565b6040519015158152602001610419565b61044d610d7a565b604051908152602001610419565b61040261046936600461476e565b610da9565b61048161047c3660046147a7565b610db7565b6040517fffffffff000000000000000000000000000000000000000000000000000000009091168152602001610419565b7f52c63247e1f47db19d5ce0460030c497f067ca4cebf71ba98eeadabe20bace025461044d565b61044d6104e7366004614742565b610dd0565b61044d6104fa36600461476e565b610e01565b61044d61050d3660046146c2565b60066020526000908152604090205481565b61043561052d366004614846565b610e14565b61044d6105403660046146c2565b60036020526000908152604090205481565b610402610560366004614887565b610e5f565b60405160128152602001610419565b61044d60075481565b61044d61058b366004614742565b611069565b61040261059e3660046148a0565b6110fc565b6009546105b6906001600160a01b031681565b6040516001600160a01b039091168152602001610419565b61040c611315565b6104026105e43660046146c2565b6113a6565b6105b66105f7366004614887565b600b602052600090815260409020546001600160a01b031681565b6105b66106203660046146c2565b6001600160a01b0390811660009081526000805160206150a483398151915260205260409020541690565b6104026106593660046146c2565b611400565b61044d61066c3660046146c2565b61140b565b61040261067f36600461476e565b61142f565b6105b6611512565b61069f61069a3660046146c2565b611542565b60405163ffffffff9091168152602001610419565b61044d6106c236600461476e565b600260209081526000928352604080842090915290825290205481565b61044d6106ed3660046146c2565b61154d565b610402611592565b6105b6610708366004614887565b6115a6565b600e546105b6906001600160a01b031681565b61044d61072e3660046146c2565b6115d0565b61073b6115f9565b60405161041997969594939291906148fd565b61044d61075c366004614887565b6116db565b61040261076f366004614742565b6116e3565b7f9016d09d72d40fdae2fd8ceac6b6234c7706214fd39c1cd1e609a0528c199300546001600160a01b03166105b6565b61044d6107b2366004614887565b6117fb565b6107bf611877565b60405165ffffffffffff9091168152602001610419565b61040c611881565b61044d6107ec3660046146c2565b6118d2565b61044d6107ff3660046146c2565b60056020526000908152604090205481565b61040261081f3660046148a0565b611932565b6104026108323660046146c2565b611a24565b610435610845366004614742565b611a4e565b61085d6108583660046146c2565b611a99565b604051610419929190614987565b6104026108793660046146c2565b611ccd565b61089161088c3660046149fd565b611d26565b6040516104199190614a72565b6104026108ac366004614742565b611e19565b600d546105b6906001600160a01b031681565b6104026108d2366004614ad4565b61213b565b61044d6108e5366004614887565b600a6020526000908152604090205481565b610402610905366004614b36565b612211565b6105b6612430565b6000546105b6906001600160a01b031681565b61044d6109333660046146c2565b60046020526000908152604090205481565b61044d61095336600461476e565b6001600160a01b0391821660009081527f52c63247e1f47db19d5ce0460030c497f067ca4cebf71ba98eeadabe20bace016020908152604080832093909416825291909152205490565b6104026109ab366004614ba2565b612446565b61044d6109be36600461476e565b600160209081526000928352604080842090915290825290205481565b6104026109e93660046146c2565b6125c9565b610a016109fc366004614ca4565b61262a565b60408051825165ffffffffffff1681526020928301516001600160d01b03169281019290925201610419565b61044d610a3b3660046146c2565b612648565b610402610a4e3660046146c2565b612653565b610435610a61366004614887565b600f6020526000908152604090205460ff1681565b61044d610a843660046146c2565b6001600160a01b03166000908152600c602052604090205490565b610aa76126a7565b600954610abd906001600160a01b03168261270a565b6009546001600160a01b039081166000908152600160209081526040808320938516835292905220548015610c7857600980546001600160a01b039081166000908152600160209081526040808320878516845290915280822091909155915491517f2e1a7d4d00000000000000000000000000000000000000000000000000000000815260048101849052911690632e1a7d4d90602401600060405180830381600087803b158015610b6f57600080fd5b505af1158015610b83573d6000803e3d6000fd5b505050506000826001600160a01b03168260405160006040518083038185875af1925050503d8060008114610bd4576040519150601f19603f3d011682016040523d82523d6000602084013e610bd9565b606091505b5050905080610c2f5760405162461bcd60e51b815260206004820152600f60248201527f6574682073656e64206661696c6564000000000000000000000000000000000060448201526064015b60405180910390fd5b6009546040513381526001600160a01b038581169285929116907fe6ac6a784fb43c9f6329d2f5c82f88a26a93bad4281f7780725af5f071f0aafa9060200160405180910390a4505b50610ca260017f9b779b17422d0df92223018b32b4d1fa46e071723d6817e2486d003becc55f0055565b50565b606060007f52c63247e1f47db19d5ce0460030c497f067ca4cebf71ba98eeadabe20bace005b9050806003018054610cdc90614cdb565b80601f0160208091040260200160405190810160405280929190818152602001828054610d0890614cdb565b8015610d555780601f10610d2a57610100808354040283529160200191610d55565b820191906000526020600020905b815481529060010190602001808311610d3857829003601f168201915b505050505091505090565b600033610d6e8185856127d6565b60019150505b92915050565b6000610da47f52c63247e1f47db19d5ce0460030c497f067ca4cebf71ba98eeadabe20bace025490565b905090565b610db3828261270a565b5050565b6000610dc686868686866127e8565b9695505050505050565b600c6020528160005260406000208181548110610dec57600080fd5b90600052602060002001600091509150505481565b6000610e0d838361298e565b9392505050565b60405162461bcd60e51b815260206004820152601560248201527f7472616e7366657246726f6d2064697361626c656400000000000000000000006044820152600090606401610c26565b610e6833612a0f565b6000818152600b60205260409020546001600160a01b0316610eb75760405162461bcd60e51b8152602060048201526008602482015267085d1bdad95b925960c21b6044820152606401610c26565b6000818152600b60205260409020546001600160a01b0316338114610f19576040517f8e6324b00000000000000000000000000000000000000000000000000000000081523360048201526001600160a01b0382166024820152604401610c26565b6000828152600b6020908152604080832080546001600160a01b0319169055338352600c8252918290208054835181840281018401909452808452610f939392830182828015610f8857602002820191906000526020600020905b815481526020019060010190808311610f74575b505050505083612aff565b336000908152600c602090815260409091208251610fb79391929190910190614646565b506000828152600a6020526040902054610fd2903390612c27565b6000828152600a6020526040808220829055905490517f42842e0e000000000000000000000000000000000000000000000000000000008152306004820152336024820152604481018490526001600160a01b03909116906342842e0e90606401600060405180830381600087803b15801561104d57600080fd5b505af1158015611061573d6000803e3d6000fd5b505050505050565b60006000805160206150a483398151915281611083611877565b90508065ffffffffffff1684106110be57604051637669fc0f60e11b81526004810185905265ffffffffffff82166024820152604401610c26565b6110ea6110ca85612c76565b6001600160a01b0387166000908152600185016020526040902090612cad565b6001600160d01b031695945050505050565b6000811161114c5760405162461bcd60e51b815260206004820152600e60248201527f216e65774c6f636b416d6f756e740000000000000000000000000000000000006044820152606401610c26565b6000828152600b60205260409020546001600160a01b0316331461119d5760405162461bcd60e51b8152602060048201526008602482015267085d1bdad95b925960c21b6044820152606401610c26565b60008054906101000a90046001600160a01b03166001600160a01b0316636f307dc36040518163ffffffff1660e01b8152600401602060405180830381865afa1580156111ee573d6000803e3d6000fd5b505050506040513d601f19601f820116820180604052508101906112129190614d15565b6040516323b872dd60e01b8152336004820152306024820152604481018390526001600160a01b0391909116906323b872dd906064016020604051808303816000875af1158015611267573d6000803e3d6000fd5b505050506040513d601f19601f8201168201806040525081019061128b9190614d40565b506000546040517fb2383e5500000000000000000000000000000000000000000000000000000000815260048101849052602481018390526001600160a01b039091169063b2383e55906044015b600060405180830381600087803b1580156112f357600080fd5b505af1158015611307573d6000803e3d6000fd5b50505050610db33383612d66565b606061131f612dcf565b65ffffffffffff1661132f611877565b65ffffffffffff161461136e576040517f6ff0714000000000000000000000000000000000000000000000000000000000815260040160405180910390fd5b5060408051808201909152601d81527f6d6f64653d626c6f636b6e756d6265722666726f6d3d64656661756c74000000602082015290565b6113ae612dda565b600880546001810182556000919091527ff3f7a9fe364faab93b216da50a3214154f22a0a2b415b23a84c8169e8b636ee30180546001600160a01b0319166001600160a01b0392909216919091179055565b33610db38183612e4e565b6001600160a01b038116600090815260046020526040812054610d74904290612f04565b6114376126a7565b611441818361270a565b6001600160a01b0380821660009081526001602090815260408083209386168352929052205480156114e8576001600160a01b0380831660008181526001602090815260408083209488168352939052918220919091556114a3908483612f1a565b6040513381526001600160a01b038085169183918516907fe6ac6a784fb43c9f6329d2f5c82f88a26a93bad4281f7780725af5f071f0aafa9060200160405180910390a45b50610db360017f9b779b17422d0df92223018b32b4d1fa46e071723d6817e2486d003becc55f0055565b6000600860008154811061152857611528614d5d565b6000918252602090912001546001600160a01b0316919050565b6000610d7482612f9a565b6000807f52c63247e1f47db19d5ce0460030c497f067ca4cebf71ba98eeadabe20bace005b6001600160a01b0390931660009081526020939093525050604090205490565b61159a612dda565b6115a46000612feb565b565b600881815481106115b657600080fd5b6000918252602090912001546001600160a01b0316905081565b6000807f5ab42ced628888259c08ac98db1eb0cf702fc1501344311d8b100cd1bfe4bb00611572565b600060608082808083817fa16a46d94261c7517cc8ff89f61c0ce93598e3c849801011dee649a6a557d100805490915015801561163857506001810154155b6116845760405162461bcd60e51b815260206004820152601560248201527f4549503731323a20556e696e697469616c697a656400000000000000000000006044820152606401610c26565b61168c61305c565b6116946130ad565b604080516000808252602082019092527f0f000000000000000000000000000000000000000000000000000000000000009c939b5091995046985030975095509350915050565b600081610d74565b6116eb612dda565b816001600160a01b031663a9059cbb61172b7f9016d09d72d40fdae2fd8ceac6b6234c7706214fd39c1cd1e609a0528c199300546001600160a01b031690565b6040517fffffffff0000000000000000000000000000000000000000000000000000000060e084901b1681526001600160a01b039091166004820152602481018490526044016020604051808303816000875af1158015611790573d6000803e3d6000fd5b505050506040513d601f19601f820116820180604052508101906117b49190614d40565b50604080516001600160a01b0384168152602081018390527f8c1256b8896378cd5044f80c202f9772b9d77dc85c8a6eb51967210b09bfaa28910160405180910390a15050565b60006000805160206150a483398151915281611815611877565b90508065ffffffffffff16841061185057604051637669fc0f60e11b81526004810185905265ffffffffffff82166024820152604401610c26565b61186661185c85612c76565b6002840190612cad565b6001600160d01b0316949350505050565b6000610da4612dcf565b7f52c63247e1f47db19d5ce0460030c497f067ca4cebf71ba98eeadabe20bace0480546060917f52c63247e1f47db19d5ce0460030c497f067ca4cebf71ba98eeadabe20bace0091610cdc90614cdb565b6001600160a01b03811660009081527fe8b26c30fad74198956032a3533d903385d56dd795af560196f9c78d4af40d01602052604081206000805160206150a483398151915290611922906130d7565b6001600160d01b03169392505050565b600081116119825760405162461bcd60e51b815260206004820152600e60248201527f216e65774c6f636b416d6f756e740000000000000000000000000000000000006044820152606401610c26565b6000828152600b60205260409020546001600160a01b031633146119d35760405162461bcd60e51b8152602060048201526008602482015267085d1bdad95b925960c21b6044820152606401610c26565b6000546040517f9d507b8b00000000000000000000000000000000000000000000000000000000815260048101849052602481018390526001600160a01b0390911690639d507b8b906044016112d9565b611a2c612dda565b600d80546001600160a01b0319166001600160a01b0392909216919091179055565b60405162461bcd60e51b815260206004820152601160248201527f7472616e736665722064697361626c65640000000000000000000000000000006044820152600090606401610c26565b6001600160a01b0381166000908152600c60209081526040808320805482518185028101850190935280835260609485949193909290918490830182828015611b0157602002820191906000526020600020905b815481526020019060010190808311611aed575b5050505050905060008267ffffffffffffffff811115611b2357611b23614b5b565b604051908082528060200260200182016040528015611b4c578160200160208202803683370190505b50905060008367ffffffffffffffff811115611b6a57611b6a614b5b565b604051908082528060200260200182016040528015611bc657816020015b611bb36040518060800160405280600081526020016000815260200160008152602001600081525090565b815260200190600190039081611b885790505b50905060005b84811015611cc05760005484516001600160a01b039091169063b45a3c0e90869084908110611bfd57611bfd614d5d565b60200260200101516040518263ffffffff1660e01b8152600401611c2391815260200190565b608060405180830381865afa158015611c40573d6000803e3d6000fd5b505050506040513d601f19601f82011682018060405250810190611c649190614d73565b828281518110611c7657611c76614d5d565b6020026020010181905250838181518110611c9357611c93614d5d565b6020026020010151838281518110611cad57611cad614d5d565b6020908102919091010152600101611bcc565b5090969095509350505050565b611cd56126a7565b60005b600854811015610c7857611d14826008600081548110611cfa57611cfa614d5d565b6000918252602090912001546001600160a01b031661142f565b80611d1e81614def565b915050611cd8565b6040805160008152602081019091526060908267ffffffffffffffff811115611d5157611d51614b5b565b604051908082528060200260200182016040528015611d8457816020015b6060815260200190600190039081611d6f5790505b50915060005b83811015611e1157611de130868684818110611da857611da8614d5d565b9050602002810190611dba9190614e1b565b85604051602001611dcd93929190614e69565b604051602081830303815290604052613113565b838281518110611df357611df3614d5d565b60200260200101819052508080611e0990614def565b915050611d8a565b505092915050565b600d546001600160a01b03163314611e735760405162461bcd60e51b815260206004820152600c60248201527f216469737472696275746f7200000000000000000000000000000000000000006044820152606401610c26565b611e7e82600061270a565b6040516323b872dd60e01b8152336004820152306024820152604481018290526001600160a01b038316906323b872dd906064016020604051808303816000875af1158015611ed1573d6000803e3d6000fd5b505050506040513d601f19601f82011682018060405250810190611ef59190614d40565b506001600160a01b0382166000908152600460205260409020544210611f4057600754611f229082614ea6565b6001600160a01b038316600090815260066020526040902055611fc1565b6001600160a01b038216600090815260046020526040812054611f64904290614e08565b6001600160a01b03841660009081526006602052604081205491925090611f8b9083614ec8565b600754909150611f9b8285614edf565b611fa59190614ea6565b6001600160a01b03851660009081526006602052604090205550505b6040517f70a082310000000000000000000000000000000000000000000000000000000081523060048201526000906001600160a01b038416906370a0823190602401602060405180830381865afa158015612021573d6000803e3d6000fd5b505050506040513d601f19601f820116820180604052508101906120459190614ef2565b9050600754816120559190614ea6565b6001600160a01b03841660009081526006602052604090205411156120bc5760405162461bcd60e51b815260206004820152601260248201527f6e6f7420656e6f7567682062616c616e636500000000000000000000000000006044820152606401610c26565b6001600160a01b038316600090815260036020526040902042908190556007546120e591614edf565b6001600160a01b038416600081815260046020908152604091829020939093555133815284927f54dba80f86e498df5a2fcdb5c089d051d97ce8ca9ddb708c70da66557a954de7910160405180910390a3505050565b83421115612178576040517f4683af0e00000000000000000000000000000000000000000000000000000000815260048101859052602401610c26565b604080517fe48329057bfd03d55e49b547132e39cffd9c1820ad7b9d4c5307691425d15adf60208201526001600160a01b0388169181019190915260608101869052608081018590526000906121f2906121ea9060a00160405160208183030381529060405280519060200120613189565b8585856131d1565b90506121fe81876131f3565b6122088188612e4e565b50505050505050565b612219612dda565b6001600160a01b03811661226f5760405162461bcd60e51b815260206004820152601160248201527f496e76616c696420726563697069656e740000000000000000000000000000006044820152606401610c26565b6000828152600b60205260409020546001600160a01b0316806122d45760405162461bcd60e51b815260206004820152601060248201527f546f6b656e206e6f74206c6f636b6564000000000000000000000000000000006044820152606401610c26565b6000838152600b6020908152604080832080546001600160a01b0319166001600160a01b038781169190911790915584168352600c825291829020805483518184028101840190945280845261235f939283018282801561235457602002820191906000526020600020905b815481526020019060010190808311612340575b505050505084612aff565b6001600160a01b0382166000908152600c60209081526040909120825161238c9391929190910190614646565b506001600160a01b0382166000908152600c60209081526040808320805460018101825590845282842001869055858352600a9091529020546123d0908290612c27565b6000838152600a60205260409020546123ea90839061327e565b816001600160a01b0316816001600160a01b0316847f94cb47eeeeb76a68c4d24f7c656bc9e63d5bc82211fc7784b33e438103b2f87360405160405180910390a4505050565b6000600860018154811061152857611528614d5d565b7ff0c57e16840df040f15088dc2f81fe391c3923bec73e23a9662efc9c229c6a0080546002919068010000000000000000900460ff16806124955750805467ffffffffffffffff808416911610155b156124cc576040517ff92ee8a900000000000000000000000000000000000000000000000000000000815260040160405180910390fd5b805468ffffffffffffffffff191667ffffffffffffffff83161768010000000000000000178155604080518082018252601181527f4d41484120566f74696e6720506f7765720000000000000000000000000000006020808301919091528251808401909352600683527f4d4148417670000000000000000000000000000000000000000000000000000090830152612569918a8a8a8a896132cd565b61257284612feb565b805468ff00000000000000001916815560405167ffffffffffffffff831681527fc7f505b2f371ae2175ee4913f4499e1f2633a7b5936321eed1cdaeb6115181d29060200160405180910390a15050505050505050565b6125d16126a7565b6125e9816008600081548110611cfa57611cfa614d5d565b612601816008600181548110611cfa57611cfa614d5d565b610ca260017f9b779b17422d0df92223018b32b4d1fa46e071723d6817e2486d003becc55f0055565b6040805180820190915260008082526020820152610e0d83836134a8565b6000610d7482613513565b61265b612dda565b6001600160a01b03811661269e576040517f1e4fbdf700000000000000000000000000000000000000000000000000000000815260006004820152602401610c26565b610ca281612feb565b7f9b779b17422d0df92223018b32b4d1fa46e071723d6817e2486d003becc55f00805460011901612704576040517f3ee5aeb500000000000000000000000000000000000000000000000000000000815260040160405180910390fd5b60029055565b61271382613513565b6001600160a01b0383166000908152600560205260409020556127358261140b565b6001600160a01b03808416600090815260036020526040902091909155811615610db357612763828261298e565b6001600160a01b0392831660008181526001602090815260408083209590961680835294815285822093909355908152600582528381205460028352848220938252929091529190912055565b60017f9b779b17422d0df92223018b32b4d1fa46e071723d6817e2486d003becc55f0055565b6127e38383836001613603565b505050565b600080546001600160a01b031633146128435760405162461bcd60e51b815260206004820152600b60248201527f6f6e6c79206c6f636b65720000000000000000000000000000000000000000006044820152606401610c26565b811561285a5761285582840184614f0b565b509550505b61286385612a0f565b6000848152600b6020908152604080832080546001600160a01b0319166001600160a01b038a8116918217909255808552600c845282852080546001810182559086528486200189905584526000805160206150a483398151915290925290912054166128d4576128d48586612e4e565b6000546040516339f890b560e21b815260048101869052612947916001600160a01b03169063e7e242d4906024015b602060405180830381865afa158015612920573d6000803e3d6000fd5b505050506040513d601f19601f820116820180604052508101906129449190614ef2565b90565b6000858152600a6020526040902081905561296390869061327e565b507f150b7a020000000000000000000000000000000000000000000000000000000095945050505050565b6001600160a01b038083166000818152600160209081526040808320948616808452948252808320549383526002825280832094835293905291822054670de0b6b3a7640000906129de86613513565b6129e89190614e08565b6129f18561154d565b6129fb9190614ec8565b612a059190614ea6565b610e0d9190614edf565b60005b600854811015610db357600060088281548110612a3157612a31614d5d565b6000918252602090912001546001600160a01b03169050612a5181613513565b6001600160a01b038216600090815260056020526040902055612a738161140b565b6001600160a01b03808316600090815260036020526040902091909155831615612aec57612aa1818461298e565b6001600160a01b038083166000818152600160209081526040808320948916808452948252808320959095559181526005825283812054600283528482209382529290915291909120555b5080612af781614def565b915050612a12565b81516060906000805b82811015612b505784868281518110612b2357612b23614d5d565b602002602001015114612b3e5781612b3a81614def565b9250505b80612b4881614def565b915050612b08565b5060008167ffffffffffffffff811115612b6c57612b6c614b5b565b604051908082528060200260200182016040528015612b95578160200160208202803683370190505b5090506000805b84811015612c1b5786888281518110612bb757612bb7614d5d565b602002602001015114612c0957878181518110612bd657612bd6614d5d565b6020026020010151838381518110612bf057612bf0614d5d565b602090810291909101015281612c0581614def565b9250505b80612c1381614def565b915050612b9c565b50909695505050505050565b6001600160a01b038216612c6a576040517f96c6fd1e00000000000000000000000000000000000000000000000000000000815260006004820152602401610c26565b610db38260008361372f565b600065ffffffffffff821115612ca9576040516306dfcc6560e41b81526030600482015260248101839052604401610c26565b5090565b815460009081816005811115612d0c576000612cc8846137ce565b612cd29085614e08565b60008881526020902090915081015465ffffffffffff9081169087161015612cfc57809150612d0a565b612d07816001614edf565b92505b505b6000612d1a878785856138b6565b90508015612d5857612d3f87612d31600184614e08565b600091825260209091200190565b54660100000000000090046001600160d01b0316612d5b565b60005b979650505050505050565b6000818152600a6020526040902054612d80908390612c27565b6000546040516339f890b560e21b815260048101839052612db3916001600160a01b03169063e7e242d490602401612903565b6000828152600a60205260409020819055610db390839061327e565b6000610da443612c76565b33612e0c7f9016d09d72d40fdae2fd8ceac6b6234c7706214fd39c1cd1e609a0528c199300546001600160a01b031690565b6001600160a01b0316146115a4576040517f118cdaa7000000000000000000000000000000000000000000000000000000008152336004820152602401610c26565b6000805160206150a48339815191526000612e8e846001600160a01b0390811660009081526000805160206150a483398151915260205260409020541690565b6001600160a01b0385811660008181526020869052604080822080546001600160a01b031916898616908117909155905194955093928516927f3134e8a2e6d97e929a7e54011ea5485d7d196dd5f0ba4d4ef95803e8e3fc257f9190a4612efe8184612ef987613918565b613923565b50505050565b6000818310612f135781610e0d565b5090919050565b604080516001600160a01b038416602482015260448082018490528251808303909101815260649091019091526020810180517bffffffffffffffffffffffffffffffffffffffffffffffffffffffff167fa9059cbb000000000000000000000000000000000000000000000000000000001790526127e3908490613a9d565b6001600160a01b03811660009081527fe8b26c30fad74198956032a3533d903385d56dd795af560196f9c78d4af40d0160205260408120546000805160206150a483398151915290610e0d90613b19565b7f9016d09d72d40fdae2fd8ceac6b6234c7706214fd39c1cd1e609a0528c19930080546001600160a01b031981166001600160a01b03848116918217845560405192169182907f8be0079c531659141344cd1fd0a4f28419497f9722a3daafe3b4186f6b6457e090600090a3505050565b7fa16a46d94261c7517cc8ff89f61c0ce93598e3c849801011dee649a6a557d10280546060917fa16a46d94261c7517cc8ff89f61c0ce93598e3c849801011dee649a6a557d10091610cdc90614cdb565b606060007fa16a46d94261c7517cc8ff89f61c0ce93598e3c849801011dee649a6a557d100610ccb565b8054600090801561310a576130f183612d31600184614e08565b54660100000000000090046001600160d01b0316610e0d565b60009392505050565b6060600080846001600160a01b0316846040516131309190614f2b565b600060405180830381855af49150503d806000811461316b576040519150601f19603f3d011682016040523d82523d6000602084013e613170565b606091505b5091509150613180858383613b4a565b95945050505050565b6000610d74613196613bbf565b836040517f19010000000000000000000000000000000000000000000000000000000000008152600281019290925260228201526042902090565b6000806000806131e388888888613bc9565b925092509250612c1b8282613c98565b6001600160a01b03821660009081527f5ab42ced628888259c08ac98db1eb0cf702fc1501344311d8b100cd1bfe4bb00602052604090208054600181019091558181146127e3576040517f752d88c00000000000000000000000000000000000000000000000000000000081526001600160a01b038416600482015260248101829052604401610c26565b6001600160a01b0382166132c1576040517fec442f0500000000000000000000000000000000000000000000000000000000815260006004820152602401610c26565b610db36000838361372f565b6132d5613d9c565b6132de33613da4565b6132e6613db5565b6132f08787613dc5565b600080546001600160a01b038088166001600160a01b0319928316178355600980548883169084161790556007859055600d8054918516919092161790555b835181101561339957600884828151811061334c5761334c614d5d565b60209081029190910181015182546001810184556000938452919092200180546001600160a01b0319166001600160a01b039092169190911790558061339181614def565b91505061332f565b5060008054906101000a90046001600160a01b03166001600160a01b0316636f307dc36040518163ffffffff1660e01b8152600401602060405180830381865afa1580156133eb573d6000803e3d6000fd5b505050506040513d601f19601f8201168201806040525081019061340f9190614d15565b6040517f095ea7b30000000000000000000000000000000000000000000000000000000081526001600160a01b0387811660048301526000196024830152919091169063095ea7b3906044016020604051808303816000875af115801561347a573d6000803e3d6000fd5b505050506040513d601f19601f8201168201806040525081019061349e9190614d40565b5050505050505050565b604080518082018252600080825260208083018290526001600160a01b03861682527fe8b26c30fad74198956032a3533d903385d56dd795af560196f9c78d4af40d019052919091206000805160206150a48339815191529061350b9084613dd7565b949350505050565b600061353d7f52c63247e1f47db19d5ce0460030c497f067ca4cebf71ba98eeadabe20bace025490565b60000361356057506001600160a01b031660009081526005602052604090205490565b7f52c63247e1f47db19d5ce0460030c497f067ca4cebf71ba98eeadabe20bace02546001600160a01b0383166000908152600660209081526040808320546003909252909120546135b08561140b565b6135ba9190614e08565b6135c49190614ec8565b6135d690670de0b6b3a7640000614ec8565b6135e09190614ea6565b6001600160a01b038316600090815260056020526040902054610d749190614edf565b7f52c63247e1f47db19d5ce0460030c497f067ca4cebf71ba98eeadabe20bace006001600160a01b038516613667576040517fe602df0500000000000000000000000000000000000000000000000000000000815260006004820152602401610c26565b6001600160a01b0384166136aa576040517f94280d6200000000000000000000000000000000000000000000000000000000815260006004820152602401610c26565b6001600160a01b0380861660009081526001830160209081526040808320938816835292905220839055811561372857836001600160a01b0316856001600160a01b03167f8c5be1e5ebec7d5bd14f71427d1e84f3dd0314c0f7b2291e5b200ac8c7c3b9258560405161371f91815260200190565b60405180910390a35b5050505050565b61373a838383613e4a565b6001600160a01b0383166137c35760006137727f52c63247e1f47db19d5ce0460030c497f067ca4cebf71ba98eeadabe20bace025490565b90506001600160d01b03808211156137c0576040517f1cb15d260000000000000000000000000000000000000000000000000000000081526004810183905260248101829052604401610c26565b50505b6127e3838383613fb3565b6000816000036137e057506000919050565b600060016137ed84614049565b901c6001901b9050600181848161380657613806614e90565b048201901c9050600181848161381e5761381e614e90565b048201901c9050600181848161383657613836614e90565b048201901c9050600181848161384e5761384e614e90565b048201901c9050600181848161386657613866614e90565b048201901c9050600181848161387e5761387e614e90565b048201901c9050600181848161389657613896614e90565b048201901c9050610e0d818285816138b0576138b0614e90565b04612f04565b60005b818310156139105760006138cd84846140dd565b60008781526020902090915065ffffffffffff86169082015465ffffffffffff1611156138fc5780925061390a565b613907816001614edf565b93505b506138b9565b509392505050565b6000610d748261154d565b6000805160206150a48339815191526001600160a01b038481169084161480159061394e5750600082115b15612efe576001600160a01b038416156139f8576001600160a01b038416600090815260018201602052604081208190613993906140f861398e87614104565b614138565b6001600160d01b031691506001600160d01b03169150856001600160a01b03167fdec2bacdd2f05b59de34da9b523dff8be42e5e38e818c82fdb0bae774387a72483836040516139ed929190918252602082015260400190565b60405180910390a250505b6001600160a01b03831615612efe576001600160a01b038316600090815260018201602052604081208190613a339061417161398e87614104565b6001600160d01b031691506001600160d01b03169150846001600160a01b03167fdec2bacdd2f05b59de34da9b523dff8be42e5e38e818c82fdb0bae774387a7248383604051613a8d929190918252602082015260400190565b60405180910390a2505050505050565b6000613ab26001600160a01b0384168361417d565b90508051600014158015613ad7575080806020019051810190613ad59190614d40565b155b156127e3576040517f5274afe70000000000000000000000000000000000000000000000000000000081526001600160a01b0384166004820152602401610c26565b600063ffffffff821115612ca9576040516306dfcc6560e41b81526020600482015260248101839052604401610c26565b606082613b5f57613b5a8261418b565b610e0d565b8151158015613b7657506001600160a01b0384163b155b15613bb8576040517f9996b3150000000000000000000000000000000000000000000000000000000081526001600160a01b0385166004820152602401610c26565b5092915050565b6000610da46141cd565b600080807f7fffffffffffffffffffffffffffffff5d576e7357a4501ddfe92f46681b20a0841115613c045750600091506003905082613c8e565b604080516000808252602082018084528a905260ff891692820192909252606081018790526080810186905260019060a0016020604051602081039080840390855afa158015613c58573d6000803e3d6000fd5b5050604051601f1901519150506001600160a01b038116613c8457506000925060019150829050613c8e565b9250600091508190505b9450945094915050565b6000826003811115613cac57613cac614f47565b03613cb5575050565b6001826003811115613cc957613cc9614f47565b03613d00576040517ff645eedf00000000000000000000000000000000000000000000000000000000815260040160405180910390fd5b6002826003811115613d1457613d14614f47565b03613d4e576040517ffce698f700000000000000000000000000000000000000000000000000000000815260048101829052602401610c26565b6003826003811115613d6257613d62614f47565b03610db3576040517fd78bce0c00000000000000000000000000000000000000000000000000000000815260048101829052602401610c26565b6115a4614241565b613dac614241565b610ca2816142a8565b613dbd614241565b6115a46142b0565b613dcd614241565b610db382826142b8565b6040805180820190915260008082526020820152826000018263ffffffff1681548110613e0657613e06614d5d565b60009182526020918290206040805180820190915291015465ffffffffffff81168252660100000000000090046001600160d01b0316918101919091529392505050565b7f52c63247e1f47db19d5ce0460030c497f067ca4cebf71ba98eeadabe20bace006001600160a01b038416613e985781816002016000828254613e8d9190614edf565b90915550613f239050565b6001600160a01b03841660009081526020829052604090205482811015613f04576040517fe450d38c0000000000000000000000000000000000000000000000000000000081526001600160a01b03861660048201526024810182905260448101849052606401610c26565b6001600160a01b03851660009081526020839052604090209083900390555b6001600160a01b038316613f41576002810180548390039055613f60565b6001600160a01b03831660009081526020829052604090208054830190555b826001600160a01b0316846001600160a01b03167fddf252ad1be2c89b69c2b068fc378daa952ba7f163c4a11628f55a4df523b3ef84604051613fa591815260200190565b60405180910390a350505050565b6000805160206150a48339815191526001600160a01b038416613fe657613fe38160020161417161398e85614104565b50505b6001600160a01b03831661400a57614007816002016140f861398e85614104565b50505b6001600160a01b0384811660009081526000805160206150a48339815191526020526040808220548684168352912054612efe92918216911684613923565b600080608083901c1561405e57608092831c92015b604083901c1561407057604092831c92015b602083901c1561408257602092831c92015b601083901c1561409457601092831c92015b600883901c156140a657600892831c92015b600483901c156140b857600492831c92015b600283901c156140ca57600292831c92015b600183901c15610d745760010192915050565b60006140ec6002848418614ea6565b610e0d90848416614edf565b6000610e0d8284614f5d565b60006001600160d01b03821115612ca9576040516306dfcc6560e41b815260d0600482015260248101839052604401610c26565b600080614164614146611877565b61415c614152886130d7565b868863ffffffff16565b87919061431b565b915091505b935093915050565b6000610e0d8284614f7d565b6060610e0d83836000614329565b80511561419b5780518082602001fd5b6040517f1425ea4200000000000000000000000000000000000000000000000000000000815260040160405180910390fd5b60007f8b73c3c69bb8fe3d512ecc4cf759cc79239f7b179b0ffacaa9a75d522b39400f6141f86143d5565b614200614451565b60408051602081019490945283019190915260608201524660808201523060a082015260c00160405160208183030381529060405280519060200120905090565b7ff0c57e16840df040f15088dc2f81fe391c3923bec73e23a9662efc9c229c6a005468010000000000000000900460ff166115a4576040517fd7e6bcf800000000000000000000000000000000000000000000000000000000815260040160405180910390fd5b61265b614241565b6127b0614241565b6142c0614241565b7f52c63247e1f47db19d5ce0460030c497f067ca4cebf71ba98eeadabe20bace007f52c63247e1f47db19d5ce0460030c497f067ca4cebf71ba98eeadabe20bace0361430c8482614fe3565b5060048101612efe8382614fe3565b6000806141648585856144a7565b606081471015614367576040517fcd786059000000000000000000000000000000000000000000000000000000008152306004820152602401610c26565b600080856001600160a01b031684866040516143839190614f2b565b60006040518083038185875af1925050503d80600081146143c0576040519150601f19603f3d011682016040523d82523d6000602084013e6143c5565b606091505b5091509150610dc6868383613b4a565b60007fa16a46d94261c7517cc8ff89f61c0ce93598e3c849801011dee649a6a557d1008161440161305c565b80519091501561441957805160209091012092915050565b81548015614428579392505050565b7fc5d2460186f7233c927e7db2dcc703c0e500b653ca82273b7bfad8045d85a470935050505090565b60007fa16a46d94261c7517cc8ff89f61c0ce93598e3c849801011dee649a6a557d1008161447d6130ad565b80519091501561449557805160209091012092915050565b60018201548015614428579392505050565b8254600090819080156145e85760006144c587612d31600185614e08565b60408051808201909152905465ffffffffffff80821680845266010000000000009092046001600160d01b031660208401529192509087161015614535576040517f2520601d00000000000000000000000000000000000000000000000000000000815260040160405180910390fd5b805165ffffffffffff808816911603614584578461455888612d31600186614e08565b80546001600160d01b039290921666010000000000000265ffffffffffff9092169190911790556145d8565b6040805180820190915265ffffffffffff80881682526001600160d01b0380881660208085019182528b54600181018d5560008d815291909120945191519092166601000000000000029216919091179101555b6020015192508391506141699050565b50506040805180820190915265ffffffffffff80851682526001600160d01b0380851660208085019182528854600181018a5560008a8152918220955192519093166601000000000000029190931617920191909155905081614169565b828054828255906000526020600020908101928215614681579160200282015b82811115614681578251825591602001919060010190614666565b50612ca99291505b80821115612ca95760008155600101614689565b6001600160a01b0381168114610ca257600080fd5b80356146bd8161469d565b919050565b6000602082840312156146d457600080fd5b8135610e0d8161469d565b60005b838110156146fa5781810151838201526020016146e2565b50506000910152565b6000815180845261471b8160208601602086016146df565b601f01601f19169290920160200192915050565b602081526000610e0d6020830184614703565b6000806040838503121561475557600080fd5b82356147608161469d565b946020939093013593505050565b6000806040838503121561478157600080fd5b823561478c8161469d565b9150602083013561479c8161469d565b809150509250929050565b6000806000806000608086880312156147bf57600080fd5b85356147ca8161469d565b945060208601356147da8161469d565b935060408601359250606086013567ffffffffffffffff808211156147fe57600080fd5b818801915088601f83011261481257600080fd5b81358181111561482157600080fd5b89602082850101111561483357600080fd5b9699959850939650602001949392505050565b60008060006060848603121561485b57600080fd5b83356148668161469d565b925060208401356148768161469d565b929592945050506040919091013590565b60006020828403121561489957600080fd5b5035919050565b600080604083850312156148b357600080fd5b50508035926020909101359150565b600081518084526020808501945080840160005b838110156148f2578151875295820195908201906001016148d6565b509495945050505050565b7fff000000000000000000000000000000000000000000000000000000000000008816815260e06020820152600061493860e0830189614703565b828103604084015261494a8189614703565b90508660608401526001600160a01b03861660808401528460a084015282810360c084015261497981856148c2565b9a9950505050505050505050565b6000604080835261499a818401866148c2565b83810360208581019190915285518083528682019282019060005b818110156149ef578451805184528481015185850152868101518785015260609081015190840152938301936080909201916001016149b5565b509098975050505050505050565b60008060208385031215614a1057600080fd5b823567ffffffffffffffff80821115614a2857600080fd5b818501915085601f830112614a3c57600080fd5b813581811115614a4b57600080fd5b8660208260051b8501011115614a6057600080fd5b60209290920196919550909350505050565b6000602080830181845280855180835260408601915060408160051b870101925083870160005b82811015614ac757603f19888603018452614ab5858351614703565b94509285019290850190600101614a99565b5092979650505050505050565b60008060008060008060c08789031215614aed57600080fd5b8635614af88161469d565b95506020870135945060408701359350606087013560ff81168114614b1c57600080fd5b9598949750929560808101359460a0909101359350915050565b60008060408385031215614b4957600080fd5b82359150602083013561479c8161469d565b634e487b7160e01b600052604160045260246000fd5b604051601f8201601f1916810167ffffffffffffffff81118282101715614b9a57614b9a614b5b565b604052919050565b60008060008060008060c08789031215614bbb57600080fd5b8635614bc68161469d565b9550602087810135614bd78161469d565b9550604088013567ffffffffffffffff80821115614bf457600080fd5b818a0191508a601f830112614c0857600080fd5b813581811115614c1a57614c1a614b5b565b8060051b9150614c2b848301614b71565b818152918301840191848101908d841115614c4557600080fd5b938501935b83851015614c6f5784359250614c5f8361469d565b8282529385019390850190614c4a565b985050505060608901359450614c8a915050608088016146b2565b9150614c9860a088016146b2565b90509295509295509295565b60008060408385031215614cb757600080fd5b8235614cc28161469d565b9150602083013563ffffffff8116811461479c57600080fd5b600181811c90821680614cef57607f821691505b602082108103614d0f57634e487b7160e01b600052602260045260246000fd5b50919050565b600060208284031215614d2757600080fd5b8151610e0d8161469d565b8015158114610ca257600080fd5b600060208284031215614d5257600080fd5b8151610e0d81614d32565b634e487b7160e01b600052603260045260246000fd5b600060808284031215614d8557600080fd5b6040516080810181811067ffffffffffffffff82111715614da857614da8614b5b565b8060405250825181526020830151602082015260408301516040820152606083015160608201528091505092915050565b634e487b7160e01b600052601160045260246000fd5b600060018201614e0157614e01614dd9565b5060010190565b81810381811115610d7457610d74614dd9565b6000808335601e19843603018112614e3257600080fd5b83018035915067ffffffffffffffff821115614e4d57600080fd5b602001915036819003821315614e6257600080fd5b9250929050565b828482376000838201600081528351614e868183602088016146df565b0195945050505050565b634e487b7160e01b600052601260045260246000fd5b600082614ec357634e487b7160e01b600052601260045260246000fd5b500490565b8082028115828204841417610d7457610d74614dd9565b80820180821115610d7457610d74614dd9565b600060208284031215614f0457600080fd5b5051919050565b600080600060608486031215614f2057600080fd5b833561486681614d32565b60008251614f3d8184602087016146df565b9190910192915050565b634e487b7160e01b600052602160045260246000fd5b6001600160d01b03828116828216039080821115613bb857613bb8614dd9565b6001600160d01b03818116838216019080821115613bb857613bb8614dd9565b601f8211156127e357600081815260208120601f850160051c81016020861015614fc45750805b601f850160051c820191505b8181101561106157828155600101614fd0565b815167ffffffffffffffff811115614ffd57614ffd614b5b565b6150118161500b8454614cdb565b84614f9d565b602080601f831160018114615046576000841561502e5750858301515b600019600386901b1c1916600185901b178555611061565b600085815260208120601f198616915b8281101561507557888601518255948401946001909101908401615056565b50858210156150935787850151600019600388901b60f8161c191681555b5050505050600190811b0190555056fee8b26c30fad74198956032a3533d903385d56dd795af560196f9c78d4af40d00a2646970667358221220636313a1d914d381919b7c873784998463d30afde3bd40ed6bf2c7102d28b88e64736f6c63430008150033",
  "devdoc": {
    "errors": {
      "AddressEmptyCode(address)": [
        {
          "details": "There's no code at `target` (it is not a contract)."
        }
      ],
      "AddressInsufficientBalance(address)": [
        {
          "details": "The ETH balance of the account is not enough to perform the operation."
        }
      ],
      "CheckpointUnorderedInsertion()": [
        {
          "details": "A value was attempted to be inserted on a past checkpoint."
        }
      ],
      "ECDSAInvalidSignature()": [
        {
          "details": "The signature derives the `address(0)`."
        }
      ],
      "ECDSAInvalidSignatureLength(uint256)": [
        {
          "details": "The signature has an invalid length."
        }
      ],
      "ECDSAInvalidSignatureS(bytes32)": [
        {
          "details": "The signature has an S value that is in the upper half order."
        }
      ],
      "ERC20ExceededSafeSupply(uint256,uint256)": [
        {
          "details": "Total supply cap has been exceeded, introducing a risk of votes overflowing."
        }
      ],
      "ERC20InsufficientAllowance(address,uint256,uint256)": [
        {
          "details": "Indicates a failure with the `spender`s `allowance`. Used in transfers.",
          "params": {
            "allowance": "Amount of tokens a `spender` is allowed to operate with.",
            "needed": "Minimum amount required to perform a transfer.",
            "spender": "Address that may be allowed to operate on tokens without being their owner."
          }
        }
      ],
      "ERC20InsufficientBalance(address,uint256,uint256)": [
        {
          "details": "Indicates an error related to the current `balance` of a `sender`. Used in transfers.",
          "params": {
            "balance": "Current balance for the interacting account.",
            "needed": "Minimum amount required to perform a transfer.",
            "sender": "Address whose tokens are being transferred."
          }
        }
      ],
      "ERC20InvalidApprover(address)": [
        {
          "details": "Indicates a failure with the `approver` of a token to be approved. Used in approvals.",
          "params": {
            "approver": "Address initiating an approval operation."
          }
        }
      ],
      "ERC20InvalidReceiver(address)": [
        {
          "details": "Indicates a failure with the token `receiver`. Used in transfers.",
          "params": {
            "receiver": "Address to which tokens are being transferred."
          }
        }
      ],
      "ERC20InvalidSender(address)": [
        {
          "details": "Indicates a failure with the token `sender`. Used in transfers.",
          "params": {
            "sender": "Address whose tokens are being transferred."
          }
        }
      ],
      "ERC20InvalidSpender(address)": [
        {
          "details": "Indicates a failure with the `spender` to be approved. Used in approvals.",
          "params": {
            "spender": "Address that may be allowed to operate on tokens without being their owner."
          }
        }
      ],
      "ERC5805FutureLookup(uint256,uint48)": [
        {
          "details": "Lookup to future votes is not available."
        }
      ],
      "ERC6372InconsistentClock()": [
        {
          "details": "The clock was incorrectly modified."
        }
      ],
      "FailedInnerCall()": [
        {
          "details": "A call to an address target failed. The target may have reverted."
        }
      ],
      "InvalidAccountNonce(address,uint256)": [
        {
          "details": "The nonce used for an `account` is not the expected current nonce."
        }
      ],
      "InvalidInitialization()": [
        {
          "details": "The contract is already initialized."
        }
      ],
      "NotInitializing()": [
        {
          "details": "The contract is not initializing."
        }
      ],
      "OwnableInvalidOwner(address)": [
        {
          "details": "The owner is not a valid owner account. (eg. `address(0)`)"
        }
      ],
      "OwnableUnauthorizedAccount(address)": [
        {
          "details": "The caller account is not authorized to perform an operation."
        }
      ],
      "ReentrancyGuardReentrantCall()": [
        {
          "details": "Unauthorized reentrant call."
        }
      ],
      "SafeCastOverflowedUintDowncast(uint8,uint256)": [
        {
          "details": "Value doesn't fit in an uint of `bits` size."
        }
      ],
      "SafeERC20FailedOperation(address)": [
        {
          "details": "An operation with an ERC20 token failed."
        }
      ],
      "VotesExpiredSignature(uint256)": [
        {
          "details": "The signature used has expired."
        }
      ]
    },
    "events": {
      "Approval(address,address,uint256)": {
        "details": "Emitted when the allowance of a `spender` for an `owner` is set by a call to {approve}. `value` is the new allowance."
      },
      "DelegateChanged(address,address,address)": {
        "details": "Emitted when an account changes their delegate."
      },
      "DelegateVotesChanged(address,uint256,uint256)": {
        "details": "Emitted when a token transfer or delegate change results in changes to a delegate's number of voting units."
      },
      "EIP712DomainChanged()": {
        "details": "MAY be emitted to signal that the domain could have changed."
      },
      "Initialized(uint64)": {
        "details": "Triggered when the contract has been initialized or reinitialized."
      },
      "Transfer(address,address,uint256)": {
        "details": "Emitted when `value` tokens are moved from one account (`from`) to another (`to`). Note that `value` may be zero."
      }
    },
    "kind": "dev",
    "methods": {
      "CLOCK_MODE()": {
        "details": "Machine-readable description of the clock as specified in EIP-6372."
      },
      "allowance(address,address)": {
        "details": "See {IERC20-allowance}."
      },
      "approve(address,uint256)": {
        "details": "See {IERC20-approve}. NOTE: If `value` is the maximum `uint256`, the allowance is not updated on `transferFrom`. This is semantically equivalent to an infinite approval. Requirements: - `spender` cannot be the zero address."
      },
      "balanceOf(address)": {
        "details": "See {IERC20-balanceOf}."
      },
      "checkpoints(address,uint32)": {
        "details": "Get the `pos`-th checkpoint for `account`."
      },
      "clock()": {
        "details": "Clock used for flagging checkpoints. Can be overridden to implement timestamp based checkpoints (and voting), in which case {CLOCK_MODE} should be overridden as well to match."
      },
      "decimals()": {
        "details": "Returns the number of decimals used to get its user representation. For example, if `decimals` equals `2`, a balance of `505` tokens should be displayed to a user as `5.05` (`505 / 10 ** 2`). Tokens usually opt for a value of 18, imitating the relationship between Ether and Wei. This is the default value returned by this function, unless it's overridden. NOTE: This information is only used for _display_ purposes: it in no way affects any of the arithmetic of the contract, including {IERC20-balanceOf} and {IERC20-transfer}."
      },
      "delegate(address)": {
        "details": "Delegates votes from the sender to `delegatee`."
      },
      "delegateBySig(address,uint256,uint256,uint8,bytes32,bytes32)": {
        "details": "Delegates votes from signer to `delegatee`."
      },
      "delegates(address)": {
        "details": "Returns the delegate that `account` has chosen."
      },
      "earned(address,address)": {
        "details": "It adds to the rewards the amount of reward earned since last time that is the difference in reward per token from now and last time multiplied by the number of tokens staked by the person",
        "params": {
          "account": "The account for which the rewards are earned",
          "token": "The token for which the rewards are earned"
        },
        "returns": {
          "_0": "How much a given account earned rewards"
        }
      },
      "eip712Domain()": {
        "details": "See {IERC-5267}."
      },
      "getLockedNftDetails(address)": {
        "params": {
          "_user": "The address of the user."
        },
        "returns": {
          "_0": "lockedTokenIds The array of locked NFT IDs.",
          "_1": "tokenDetails The array of locked NFT details."
        }
      },
      "getPastTotalSupply(uint256)": {
        "details": "Returns the total supply of votes available at a specific moment in the past. If the `clock()` is configured to use block numbers, this will return the value at the end of the corresponding block. NOTE: This value is the sum of all available votes, which is not necessarily the sum of all delegated votes. Votes that have not been delegated are still part of total supply, even though they would not participate in a vote. Requirements: - `timepoint` must be in the past. If operating using block numbers, the block must be already mined."
      },
      "getPastVotes(address,uint256)": {
        "details": "Returns the amount of votes that `account` had at a specific moment in the past. If the `clock()` is configured to use block numbers, this will return the value at the end of the corresponding block. Requirements: - `timepoint` must be in the past. If operating using block numbers, the block must be already mined."
      },
      "getReward(address,address)": {
        "params": {
          "token": "The token for which the rewards are paid",
          "who": "The account for which the rewards are paid"
        }
      },
      "getRewardDual(address)": {
        "params": {
          "who": "The account for which the rewards are paid"
        }
      },
      "getRewardETH(address)": {
        "details": "This is an ETH variant of the get rewards function. It unwraps the token and sends out raw ETH to the user."
      },
      "getTokenPower(uint256)": {
        "params": {
          "amount": "The amount of tokens to give voting power for."
        }
      },
      "getVotes(address)": {
        "details": "Returns the current amount of votes that `account` has."
      },
      "increaseLockAmount(uint256,uint256)": {
        "params": {
          "newLockAmount": "The new lock amount in tokens.",
          "tokenId": "The ID of the NFT for which to update the lock amount."
        }
      },
      "increaseLockDuration(uint256,uint256)": {
        "params": {
          "newLockDuration": "The new lock duration in seconds.",
          "tokenId": "The ID of the NFT for which to update the lock duration."
        }
      },
      "lastTimeRewardApplicable(address)": {
        "details": "Returns the current timestamp if a reward is being distributed and the end of the staking period if staking is done",
        "params": {
          "token": "The token for which the last time reward applicable is requested"
        }
      },
      "multicall(bytes[])": {
        "custom:oz-upgrades-unsafe-allow-reachable": "delegatecall",
        "details": "Receives and executes a batch of function calls on this contract."
      },
      "name()": {
        "details": "Returns the name of the token."
      },
      "nonces(address)": {
        "details": "Returns the next unused nonce for an address."
      },
      "notifyRewardAmount(address,uint256)": {
        "params": {
          "reward": "Amount of reward tokens to distribute",
          "token": "The token for which the rewards are added"
        }
      },
      "numCheckpoints(address)": {
        "details": "Get number of checkpoints for `account`."
      },
      "onERC721Received(address,address,uint256,bytes)": {
        "params": {
          "data": "Additional data.",
          "from": "The address sending the ERC721 token.",
          "tokenId": "The ID of the ERC721 token."
        },
        "returns": {
          "_0": "ERC721 onERC721Received selector."
        }
      },
      "owner()": {
        "details": "Returns the address of the current owner."
      },
      "recoverERC20(address,uint256)": {
        "details": "Admin function to recover ERC20 tokens sent to this contract.",
        "params": {
          "tokenAddress": "The address of the ERC20 token to recover.",
          "tokenAmount": "The amount of tokens to recover."
        }
      },
      "renounceOwnership()": {
        "details": "Leaves the contract without owner. It will not be possible to call `onlyOwner` functions. Can only be called by the current owner. NOTE: Renouncing ownership will leave the contract without an owner, thereby disabling any functionality that is only available to the owner."
      },
      "rewardPerToken(address)": {
        "details": "It adds to the reward per token: the time elapsed since the `rewardPerTokenStored` was last updated multiplied by the `rewardRate` divided by the number of tokens",
        "params": {
          "token": "The token for which the reward per token is updated"
        }
      },
      "setRewardDistributor(address)": {
        "params": {
          "what": "The new address for the rewards distributor"
        }
      },
      "symbol()": {
        "details": "Returns the symbol of the token, usually a shorter version of the name."
      },
      "totalNFTStaked(address)": {
        "params": {
          "who": "The address of the user."
        }
      },
      "totalSupply()": {
        "details": "See {IERC20-totalSupply}."
      },
      "transfer(address,uint256)": {
        "details": "Prevents transfers of voting power."
      },
      "transferFrom(address,address,uint256)": {
        "details": "Prevents transfers of voting power."
      },
      "transferOwnership(address)": {
        "details": "Transfers ownership of the contract to a new account (`newOwner`). Can only be called by the current owner."
      },
      "unstakeToken(uint256)": {
        "params": {
          "tokenId": "The ID of the regular token NFT to unstake."
        }
      },
      "updateRewards(address,address)": {
        "params": {
          "token": "The token for which the rewards are updated",
          "who": "The account for which the rewards are updated"
        }
      }
    },
    "version": 1
  },
  "userdoc": {
    "kind": "user",
    "methods": {
      "distributor()": {
        "notice": "The address of the rewards distributor."
      },
      "earned(address,address)": {
        "notice": "Returns how much a given account earned rewards"
      },
      "getLockedNftDetails(address)": {
        "notice": "Gets the details of locked NFTs for a given user."
      },
      "getReward(address,address)": {
        "notice": "Triggers a payment of the reward earned to the msg.sender"
      },
      "getRewardDual(address)": {
        "notice": "Triggers a payment of the rewards earned for both tokens"
      },
      "getTokenPower(uint256)": {
        "notice": "Returns how much max voting power this locker will give out for the given amount of tokens. This varies for the instance of locker."
      },
      "increaseLockAmount(uint256,uint256)": {
        "notice": "Updates the lock amount for a specific NFT."
      },
      "increaseLockDuration(uint256,uint256)": {
        "notice": "Updates the lock duration for a specific NFT."
      },
      "lastTimeRewardApplicable(address)": {
        "notice": "Queries the last timestamp at which a reward was distributed"
      },
      "lastUpdateTime(address)": {
        "notice": "Last time `rewardPerTokenStored` was updated"
      },
      "lockedByToken(uint256)": {
        "notice": "used to keep track of ownership of token lockers"
      },
      "locker()": {
        "notice": "The address of the locker contract."
      },
      "notifyRewardAmount(address,uint256)": {
        "notice": "Adds rewards to be distributed"
      },
      "onERC721Received(address,address,uint256,bytes)": {
        "notice": "Receives an ERC721 token from the lockers and grants voting power accordingly."
      },
      "periodFinish(address)": {
        "notice": "Gets the period finish for a reward token"
      },
      "power(uint256)": {
        "notice": "How much voting power a given NFT ID has."
      },
      "rewardPerToken(address)": {
        "notice": "Used to actualize the `rewardPerTokenStored`"
      },
      "rewardPerTokenStored(address)": {
        "notice": "Helps to compute the amount earned by someone. Cumulates rewards accumulated for one token since the beginning. Stored as a uint so it is actually a float times the base of the reward token"
      },
      "rewardRate(address)": {
        "notice": "Reward per second given to the staking contract, split among the staked tokens"
      },
      "rewardToken1()": {
        "notice": "Gets the first reward token for which the rewards are distributed"
      },
      "rewardToken2()": {
        "notice": "Gets the second reward token for which the rewards are distributed"
      },
      "rewardTokens(uint256)": {
        "notice": "The reward tokens for the staking contract"
      },
      "rewards(address,address)": {
        "notice": "Stores for each account the accumulated rewards"
      },
      "rewardsDuration()": {
        "notice": "Duration of the reward distribution"
      },
      "setRewardDistributor(address)": {
        "notice": "Admin only function to set the rewards distributor"
      },
      "totalNFTStaked(address)": {
        "notice": "The total number of NFTs staked in this contract for a user"
      },
      "totalVotes()": {
        "notice": "The total number of votes in this contract"
      },
      "unstakeToken(uint256)": {
        "notice": "Unstakes a regular token NFT and transfers it back to the user."
      },
      "updateRewards(address,address)": {
        "notice": "Updates the rewards for an account"
      },
      "userRewardPerTokenPaid(address,address)": {
        "notice": "Stores for each account the `rewardPerToken`: we do the difference between the current and the old value to compute what has been earned by an account"
      },
      "weth()": {
        "notice": "The address of the WETH token."
      }
    },
    "version": 1
  },
  "storageLayout": {
    "storage": [
      {
        "astId": 32189,
        "contract": "contracts/governance/locker/staking/OmnichainStakingToken.sol:OmnichainStakingToken",
        "label": "locker",
        "offset": 0,
        "slot": "0",
        "type": "t_contract(ILocker)36377"
      },
      {
        "astId": 32197,
        "contract": "contracts/governance/locker/staking/OmnichainStakingToken.sol:OmnichainStakingToken",
        "label": "rewards",
        "offset": 0,
        "slot": "1",
        "type": "t_mapping(t_contract(IERC20)15836,t_mapping(t_address,t_uint256))"
      },
      {
        "astId": 32205,
        "contract": "contracts/governance/locker/staking/OmnichainStakingToken.sol:OmnichainStakingToken",
        "label": "userRewardPerTokenPaid",
        "offset": 0,
        "slot": "2",
        "type": "t_mapping(t_contract(IERC20)15836,t_mapping(t_address,t_uint256))"
      },
      {
        "astId": 32211,
        "contract": "contracts/governance/locker/staking/OmnichainStakingToken.sol:OmnichainStakingToken",
        "label": "lastUpdateTime",
        "offset": 0,
        "slot": "3",
        "type": "t_mapping(t_contract(IERC20)15836,t_uint256)"
      },
      {
        "astId": 32217,
        "contract": "contracts/governance/locker/staking/OmnichainStakingToken.sol:OmnichainStakingToken",
        "label": "periodFinish",
        "offset": 0,
        "slot": "4",
        "type": "t_mapping(t_contract(IERC20)15836,t_uint256)"
      },
      {
        "astId": 32223,
        "contract": "contracts/governance/locker/staking/OmnichainStakingToken.sol:OmnichainStakingToken",
        "label": "rewardPerTokenStored",
        "offset": 0,
        "slot": "5",
        "type": "t_mapping(t_contract(IERC20)15836,t_uint256)"
      },
      {
        "astId": 32229,
        "contract": "contracts/governance/locker/staking/OmnichainStakingToken.sol:OmnichainStakingToken",
        "label": "rewardRate",
        "offset": 0,
        "slot": "6",
        "type": "t_mapping(t_contract(IERC20)15836,t_uint256)"
      },
      {
        "astId": 32232,
        "contract": "contracts/governance/locker/staking/OmnichainStakingToken.sol:OmnichainStakingToken",
        "label": "rewardsDuration",
        "offset": 0,
        "slot": "7",
        "type": "t_uint256"
      },
      {
        "astId": 32237,
        "contract": "contracts/governance/locker/staking/OmnichainStakingToken.sol:OmnichainStakingToken",
        "label": "rewardTokens",
        "offset": 0,
        "slot": "8",
        "type": "t_array(t_contract(IERC20)15836)dyn_storage"
      },
      {
        "astId": 32241,
        "contract": "contracts/governance/locker/staking/OmnichainStakingToken.sol:OmnichainStakingToken",
        "label": "weth",
        "offset": 0,
        "slot": "9",
        "type": "t_contract(IERC20)15836"
      },
      {
        "astId": 32246,
        "contract": "contracts/governance/locker/staking/OmnichainStakingToken.sol:OmnichainStakingToken",
        "label": "power",
        "offset": 0,
        "slot": "10",
        "type": "t_mapping(t_uint256,t_uint256)"
      },
      {
        "astId": 32251,
        "contract": "contracts/governance/locker/staking/OmnichainStakingToken.sol:OmnichainStakingToken",
        "label": "lockedByToken",
        "offset": 0,
        "slot": "11",
        "type": "t_mapping(t_uint256,t_address)"
      },
      {
        "astId": 32256,
        "contract": "contracts/governance/locker/staking/OmnichainStakingToken.sol:OmnichainStakingToken",
        "label": "lockedTokenIdNfts",
        "offset": 0,
        "slot": "12",
        "type": "t_mapping(t_address,t_array(t_uint256)dyn_storage)"
      },
      {
        "astId": 32259,
        "contract": "contracts/governance/locker/staking/OmnichainStakingToken.sol:OmnichainStakingToken",
        "label": "distributor",
        "offset": 0,
        "slot": "13",
        "type": "t_address"
      },
      {
        "astId": 33723,
        "contract": "contracts/governance/locker/staking/OmnichainStakingToken.sol:OmnichainStakingToken",
        "label": "migrator",
        "offset": 0,
        "slot": "14",
        "type": "t_address"
      },
      {
        "astId": 33727,
        "contract": "contracts/governance/locker/staking/OmnichainStakingToken.sol:OmnichainStakingToken",
        "label": "migratedLockId",
        "offset": 0,
        "slot": "15",
        "type": "t_mapping(t_uint256,t_bool)"
      }
    ],
    "types": {
      "t_address": {
        "encoding": "inplace",
        "label": "address",
        "numberOfBytes": "20"
      },
      "t_array(t_contract(IERC20)15836)dyn_storage": {
        "base": "t_contract(IERC20)15836",
        "encoding": "dynamic_array",
        "label": "contract IERC20[]",
        "numberOfBytes": "32"
      },
      "t_array(t_uint256)dyn_storage": {
        "base": "t_uint256",
        "encoding": "dynamic_array",
        "label": "uint256[]",
        "numberOfBytes": "32"
      },
      "t_bool": {
        "encoding": "inplace",
        "label": "bool",
        "numberOfBytes": "1"
      },
      "t_contract(IERC20)15836": {
        "encoding": "inplace",
        "label": "contract IERC20",
        "numberOfBytes": "20"
      },
      "t_contract(ILocker)36377": {
        "encoding": "inplace",
        "label": "contract ILocker",
        "numberOfBytes": "20"
      },
      "t_mapping(t_address,t_array(t_uint256)dyn_storage)": {
        "encoding": "mapping",
        "key": "t_address",
        "label": "mapping(address => uint256[])",
        "numberOfBytes": "32",
        "value": "t_array(t_uint256)dyn_storage"
      },
      "t_mapping(t_address,t_uint256)": {
        "encoding": "mapping",
        "key": "t_address",
        "label": "mapping(address => uint256)",
        "numberOfBytes": "32",
        "value": "t_uint256"
      },
      "t_mapping(t_contract(IERC20)15836,t_mapping(t_address,t_uint256))": {
        "encoding": "mapping",
        "key": "t_contract(IERC20)15836",
        "label": "mapping(contract IERC20 => mapping(address => uint256))",
        "numberOfBytes": "32",
        "value": "t_mapping(t_address,t_uint256)"
      },
      "t_mapping(t_contract(IERC20)15836,t_uint256)": {
        "encoding": "mapping",
        "key": "t_contract(IERC20)15836",
        "label": "mapping(contract IERC20 => uint256)",
        "numberOfBytes": "32",
        "value": "t_uint256"
      },
      "t_mapping(t_uint256,t_address)": {
        "encoding": "mapping",
        "key": "t_uint256",
        "label": "mapping(uint256 => address)",
        "numberOfBytes": "32",
        "value": "t_address"
      },
      "t_mapping(t_uint256,t_bool)": {
        "encoding": "mapping",
        "key": "t_uint256",
        "label": "mapping(uint256 => bool)",
        "numberOfBytes": "32",
        "value": "t_bool"
      },
      "t_mapping(t_uint256,t_uint256)": {
        "encoding": "mapping",
        "key": "t_uint256",
        "label": "mapping(uint256 => uint256)",
        "numberOfBytes": "32",
        "value": "t_uint256"
      },
      "t_uint256": {
        "encoding": "inplace",
        "label": "uint256",
        "numberOfBytes": "32"
      }
    }
  }
}