{
  "address": "0x21F0F750E2d576AD5d01cFDDcF2095e8DA5b0fb0",
  "abi": [
    {
      "anonymous": false,
      "inputs": [
        {
          "indexed": false,
          "internalType": "address",
          "name": "addr",
          "type": "address"
        }
      ],
      "name": "Deploy",
      "type": "event"
    },
    {
      "inputs": [
        {
          "internalType": "bytes",
          "name": "bytecode",
          "type": "bytes"
        },
        {
          "internalType": "uint256",
          "name": "_salt",
          "type": "uint256"
        }
      ],
      "name": "deploy",
      "outputs": [],
      "stateMutability": "nonpayable",
      "type": "function"
    },
    {
      "inputs": [
        {
          "internalType": "bytes",
          "name": "bytecode",
          "type": "bytes"
        },
        {
          "internalType": "uint256",
          "name": "_salt",
          "type": "uint256"
        },
        {
          "internalType": "address",
          "name": "target",
          "type": "address"
        }
      ],
      "name": "deployWithAssert",
      "outputs": [],
      "stateMutability": "nonpayable",
      "type": "function"
    }
  ],
  "transactionHash": "0xacc1bd2887602472fdb0a158ebb0a3c101ea8d0d6d3626335336a6a421a09087",
  "args": [],
  "numDeployments": 1,
  "solcInputHash": "634703a29e7eb78ccff87f420981758e",
  "bytecode": "0x608060405234801561001057600080fd5b50610335806100206000396000f3fe608060405234801561001057600080fd5b50600436106100365760003560e01c806337a43add1461003b5780639c4ae2d014610050575b600080fd5b61004e610049366004610253565b610063565b005b61004e61005e3660046102ba565b61013d565b6000828451602086016000f59050803b61007c57600080fd5b816001600160a01b0316816001600160a01b0316146100fb576040517f08c379a000000000000000000000000000000000000000000000000000000000815260206004820152601860248201527f4465706c6f7965723a20494e56414c49445f5441524745540000000000000000604482015260640160405180910390fd5b6040516001600160a01b03821681527f55ea6c6b31543d8e2ec6a72f71a79c0f4b72ed0d4757172b043d8f4f4cd848489060200160405180910390a150505050565b6000818351602085016000f59050803b61015657600080fd5b6040516001600160a01b03821681527f55ea6c6b31543d8e2ec6a72f71a79c0f4b72ed0d4757172b043d8f4f4cd848489060200160405180910390a1505050565b7f4e487b7100000000000000000000000000000000000000000000000000000000600052604160045260246000fd5b600082601f8301126101d757600080fd5b813567ffffffffffffffff808211156101f2576101f2610197565b604051601f8301601f19908116603f0116810190828211818310171561021a5761021a610197565b8160405283815286602085880101111561023357600080fd5b836020870160208301376000602085830101528094505050505092915050565b60008060006060848603121561026857600080fd5b833567ffffffffffffffff81111561027f57600080fd5b61028b868287016101c6565b9350506020840135915060408401356001600160a01b03811681146102af57600080fd5b809150509250925092565b600080604083850312156102cd57600080fd5b823567ffffffffffffffff8111156102e457600080fd5b6102f0858286016101c6565b9560209490940135945050505056fea26469706673582212203edc0efc31d2d606763ac446711150647a9ec9dc2a92598f5ec26f6ef4fe8a9364736f6c63430008150033",
  "devdoc": {
    "kind": "dev",
    "methods": {},
    "version": 1
  },
  "userdoc": {
    "kind": "user",
    "methods": {},
    "version": 1
  },
  "storageLayout": {
    "storage": [],
    "types": null
  }
}