{
  "address": "0x90cE347330bE1Bf1a77BEbCF8E123e5269CeAECC",
  "abi": [
    {
      "inputs": [
        {
          "internalType": "address",
          "name": "_tokenAPriceFeed",
          "type": "address"
        },
        {
          "internalType": "address",
          "name": "_tokenBPriceFeed",
          "type": "address"
        },
        {
          "internalType": "address",
          "name": "_pool",
          "type": "address"
        }
      ],
      "stateMutability": "nonpayable",
      "type": "constructor"
    },
    {
      "inputs": [],
      "name": "decimals",
      "outputs": [
        {
          "internalType": "uint8",
          "name": "",
          "type": "uint8"
        }
      ],
      "stateMutability": "view",
      "type": "function"
    },
    {
      "inputs": [],
      "name": "description",
      "outputs": [
        {
          "internalType": "string",
          "name": "",
          "type": "string"
        }
      ],
      "stateMutability": "pure",
      "type": "function"
    },
    {
      "inputs": [
        {
          "internalType": "uint256",
          "name": "",
          "type": "uint256"
        }
      ],
      "name": "getAnswer",
      "outputs": [
        {
          "internalType": "int256",
          "name": "",
          "type": "int256"
        }
      ],
      "stateMutability": "view",
      "type": "function"
    },
    {
      "inputs": [],
      "name": "getPrice",
      "outputs": [
        {
          "internalType": "uint256",
          "name": "price",
          "type": "uint256"
        }
      ],
      "stateMutability": "view",
      "type": "function"
    },
    {
      "inputs": [
        {
          "internalType": "uint256",
          "name": "amount",
          "type": "uint256"
        }
      ],
      "name": "getPriceFor",
      "outputs": [
        {
          "internalType": "int256",
          "name": "",
          "type": "int256"
        }
      ],
      "stateMutability": "view",
      "type": "function"
    },
    {
      "inputs": [
        {
          "internalType": "uint256",
          "name": "",
          "type": "uint256"
        }
      ],
      "name": "getTimestamp",
      "outputs": [
        {
          "internalType": "uint256",
          "name": "",
          "type": "uint256"
        }
      ],
      "stateMutability": "view",
      "type": "function"
    },
    {
      "inputs": [],
      "name": "latestAnswer",
      "outputs": [
        {
          "internalType": "int256",
          "name": "",
          "type": "int256"
        }
      ],
      "stateMutability": "view",
      "type": "function"
    },
    {
      "inputs": [],
      "name": "latestTimestamp",
      "outputs": [
        {
          "internalType": "uint256",
          "name": "",
          "type": "uint256"
        }
      ],
      "stateMutability": "view",
      "type": "function"
    },
    {
      "inputs": [],
      "name": "pool",
      "outputs": [
        {
          "internalType": "contract IUniswapV2Pair",
          "name": "",
          "type": "address"
        }
      ],
      "stateMutability": "view",
      "type": "function"
    },
    {
      "inputs": [],
      "name": "tokenAPriceFeed",
      "outputs": [
        {
          "internalType": "contract IAggregatorV3Interface",
          "name": "",
          "type": "address"
        }
      ],
      "stateMutability": "view",
      "type": "function"
    },
    {
      "inputs": [],
      "name": "tokenBPriceFeed",
      "outputs": [
        {
          "internalType": "contract IAggregatorV3Interface",
          "name": "",
          "type": "address"
        }
      ],
      "stateMutability": "view",
      "type": "function"
    },
    {
      "inputs": [],
      "name": "version",
      "outputs": [
        {
          "internalType": "uint256",
          "name": "",
          "type": "uint256"
        }
      ],
      "stateMutability": "pure",
      "type": "function"
    }
  ],
  "transactionHash": "0xbaea642e48a98b5e76ac2f4c5d9fbccc4e666d4f3d8aea60c6f143617591143c",
  "args": [
    "0xeAA79aaC2decf71F07c3208Df05B198d09c9F971",
    "0xeAA79aaC2decf71F07c3208Df05B198d09c9F971",
    "0x72d509aff75753aaad6a10d3eb98f2dbc58c480d"
  ],
  "numDeployments": 1,
  "solcInputHash": "ce8ba488bfd2114e35f7b6907d7df58c",
  "bytecode": "0x610100604052600860805234801561001657600080fd5b506040516108ec3803806108ec8339810160408190526100359161006e565b6001600160a01b0392831660c05290821660e0521660a0526100b1565b80516001600160a01b038116811461006957600080fd5b919050565b60008060006060848603121561008357600080fd5b61008c84610052565b925061009a60208501610052565b91506100a860408501610052565b90509250925092565b60805160a05160c05160e0516107e76101056000396000818160de01526103910152600081816101cc015261030b0152600081816101220152818161026201526104910152600061014901526107e76000f3fe608060405234801561001057600080fd5b50600436106100d45760003560e01c80637284e4161161008157806398d5fdca1161005b57806398d5fdca146101f4578063b5ab58dc146101fc578063b633620c1461020f57600080fd5b80637284e416146101ad5780637f996b66146101c75780638205bf6a146101ee57600080fd5b80634534cd9c116100b25780634534cd9c1461017d57806350d25bcd1461019e57806354fd4d50146101a657600080fd5b80630ee1232c146100d957806316f0115b1461011d578063313ce56714610144575b600080fd5b6101007f000000000000000000000000000000000000000000000000000000000000000081565b6040516001600160a01b0390911681526020015b60405180910390f35b6101007f000000000000000000000000000000000000000000000000000000000000000081565b61016b7f000000000000000000000000000000000000000000000000000000000000000081565b60405160ff9091168152602001610114565b61019061018b3660046105f6565b610222565b604051908152602001610114565b61019061024c565b6001610190565b60408051602081018252600081529051610114919061060f565b6101007f000000000000000000000000000000000000000000000000000000000000000081565b42610190565b61019061025b565b61019061020a3660046105f6565b610582565b61019061021d3660046105f6565b504290565b60006305f5e1008261023261024c565b61023c9190610673565b61024691906106b9565b92915050565b600061025661025b565b905090565b60008060007f00000000000000000000000000000000000000000000000000000000000000006001600160a01b0316630902f1ac6040518163ffffffff1660e01b8152600401606060405180830381865afa1580156102be573d6000803e3d6000fd5b505050506040513d601f19601f820116820180604052508101906102e2919061070a565b506dffffffffffffffffffffffffffff1691506dffffffffffffffffffffffffffff16915060007f00000000000000000000000000000000000000000000000000000000000000006001600160a01b03166350d25bcd6040518163ffffffff1660e01b8152600401602060405180830381865afa158015610367573d6000803e3d6000fd5b505050506040513d601f19601f8201168201806040525081019061038b919061075a565b905060007f00000000000000000000000000000000000000000000000000000000000000006001600160a01b03166350d25bcd6040518163ffffffff1660e01b8152600401602060405180830381865afa1580156103ed573d6000803e3d6000fd5b505050506040513d601f19601f82011682018060405250810190610411919061075a565b90506000821380156104235750600081135b61048d576040517f08c379a000000000000000000000000000000000000000000000000000000000815260206004820152600d60248201527f496e76616c696420507269636500000000000000000000000000000000000000604482015260640160405180910390fd5b60007f00000000000000000000000000000000000000000000000000000000000000006001600160a01b03166318160ddd6040518163ffffffff1660e01b8152600401602060405180830381865afa1580156104ed573d6000803e3d6000fd5b505050506040513d601f19601f82011682018060405250810190610511919061075a565b61052361051e8688610773565b61058c565b61053590670de0b6b3a7640000610773565b61053f919061078a565b905069021e19e0c9bab240000061055961051e8486610673565b610564836002610773565b61056e9190610773565b610578919061078a565b9550505050505090565b600061024661024c565b60008160000361059e57506000919050565b600060026105ad84600161079e565b6105b7919061078a565b90508291505b818110156105f0579050806002816105d5818661078a565b6105df919061079e565b6105e9919061078a565b90506105bd565b50919050565b60006020828403121561060857600080fd5b5035919050565b600060208083528351808285015260005b8181101561063c57858101830151858201604001528201610620565b506000604082860101526040601f19601f8301168501019250505092915050565b634e487b7160e01b600052601160045260246000fd5b80820260008212600160ff1b8414161561068f5761068f61065d565b81810583148215176102465761024661065d565b634e487b7160e01b600052601260045260246000fd5b6000826106c8576106c86106a3565b600160ff1b8214600019841416156106e2576106e261065d565b500590565b80516dffffffffffffffffffffffffffff8116811461070557600080fd5b919050565b60008060006060848603121561071f57600080fd5b610728846106e7565b9250610736602085016106e7565b9150604084015163ffffffff8116811461074f57600080fd5b809150509250925092565b60006020828403121561076c57600080fd5b5051919050565b80820281158282048414176102465761024661065d565b600082610799576107996106a3565b500490565b808201808211156102465761024661065d56fea2646970667358221220033a0e10da9ca9652f4b3ee80af01dba0c7081279dd340e7cc3ae85a13154a6464736f6c63430008150033",
  "devdoc": {
    "author": "maha.xyz",
    "details": "Reference from https://github.com/AlphaFinanceLab/alpha-homora-v2-contract/blob/master/contracts/oracle/UniswapV2Oracle.sol",
    "kind": "dev",
    "methods": {
      "getPrice()": {
        "details": "This function fetches reserves from the Nile AMM and uses a pre-defined price for tokens to calculate the LP token price.",
        "returns": {
          "price": "The price of the liquidity pool token."
        }
      }
    },
    "title": "AerodromeLPOracle",
    "version": 1
  },
  "userdoc": {
    "kind": "user",
    "methods": {
      "getPrice()": {
        "notice": "Gets the price of the liquidity pool token."
      }
    },
    "notice": "A contract that returns a price of an LP token on Aerdrome.",
    "version": 1
  },
  "storageLayout": {
    "storage": [],
    "types": null
  }
}