{
  "address": "0xf18B779F5b8Fe17A97df07F0c32915E68D1AE145",
  "abi": [
    {
      "inputs": [],
      "name": "AccessControlBadConfirmation",
      "type": "error"
    },
    {
      "inputs": [
        {
          "internalType": "address",
          "name": "account",
          "type": "address"
        },
        {
          "internalType": "bytes32",
          "name": "neededRole",
          "type": "bytes32"
        }
      ],
      "name": "AccessControlUnauthorizedAccount",
      "type": "error"
    },
    {
      "inputs": [
        {
          "internalType": "address",
          "name": "target",
          "type": "address"
        }
      ],
      "name": "AddressEmptyCode",
      "type": "error"
    },
    {
      "inputs": [
        {
          "internalType": "address",
          "name": "account",
          "type": "address"
        }
      ],
      "name": "AddressInsufficientBalance",
      "type": "error"
    },
    {
      "inputs": [],
      "name": "FailedInnerCall",
      "type": "error"
    },
    {
      "inputs": [],
      "name": "InvalidInitialization",
      "type": "error"
    },
    {
      "inputs": [],
      "name": "NotInitializing",
      "type": "error"
    },
    {
      "inputs": [
        {
          "internalType": "address",
          "name": "token",
          "type": "address"
        }
      ],
      "name": "SafeERC20FailedOperation",
      "type": "error"
    },
    {
      "anonymous": false,
      "inputs": [
        {
          "indexed": false,
          "internalType": "uint64",
          "name": "version",
          "type": "uint64"
        }
      ],
      "name": "Initialized",
      "type": "event"
    },
    {
      "anonymous": false,
      "inputs": [
        {
          "indexed": true,
          "internalType": "bytes32",
          "name": "role",
          "type": "bytes32"
        },
        {
          "indexed": true,
          "internalType": "bytes32",
          "name": "previousAdminRole",
          "type": "bytes32"
        },
        {
          "indexed": true,
          "internalType": "bytes32",
          "name": "newAdminRole",
          "type": "bytes32"
        }
      ],
      "name": "RoleAdminChanged",
      "type": "event"
    },
    {
      "anonymous": false,
      "inputs": [
        {
          "indexed": true,
          "internalType": "bytes32",
          "name": "role",
          "type": "bytes32"
        },
        {
          "indexed": true,
          "internalType": "address",
          "name": "account",
          "type": "address"
        },
        {
          "indexed": true,
          "internalType": "address",
          "name": "sender",
          "type": "address"
        }
      ],
      "name": "RoleGranted",
      "type": "event"
    },
    {
      "anonymous": false,
      "inputs": [
        {
          "indexed": true,
          "internalType": "bytes32",
          "name": "role",
          "type": "bytes32"
        },
        {
          "indexed": true,
          "internalType": "address",
          "name": "account",
          "type": "address"
        },
        {
          "indexed": true,
          "internalType": "address",
          "name": "sender",
          "type": "address"
        }
      ],
      "name": "RoleRevoked",
      "type": "event"
    },
    {
      "inputs": [],
      "name": "DEAD_ADDRESS",
      "outputs": [
        {
          "internalType": "address",
          "name": "",
          "type": "address"
        }
      ],
      "stateMutability": "view",
      "type": "function"
    },
    {
      "inputs": [],
      "name": "DEFAULT_ADMIN_ROLE",
      "outputs": [
        {
          "internalType": "bytes32",
          "name": "",
          "type": "bytes32"
        }
      ],
      "stateMutability": "view",
      "type": "function"
    },
    {
      "inputs": [],
      "name": "DISTRIBUTOR_ROLE",
      "outputs": [
        {
          "internalType": "bytes32",
          "name": "",
          "type": "bytes32"
        }
      ],
      "stateMutability": "view",
      "type": "function"
    },
    {
      "inputs": [
        {
          "internalType": "bytes",
          "name": "odosData",
          "type": "bytes"
        },
        {
          "internalType": "uint256",
          "name": "amount",
          "type": "uint256"
        }
      ],
      "name": "buyMahaBurn",
      "outputs": [],
      "stateMutability": "payable",
      "type": "function"
    },
    {
      "inputs": [
        {
          "internalType": "bytes32",
          "name": "role",
          "type": "bytes32"
        }
      ],
      "name": "getRoleAdmin",
      "outputs": [
        {
          "internalType": "bytes32",
          "name": "",
          "type": "bytes32"
        }
      ],
      "stateMutability": "view",
      "type": "function"
    },
    {
      "inputs": [
        {
          "internalType": "bytes32",
          "name": "role",
          "type": "bytes32"
        },
        {
          "internalType": "address",
          "name": "account",
          "type": "address"
        }
      ],
      "name": "grantRole",
      "outputs": [],
      "stateMutability": "nonpayable",
      "type": "function"
    },
    {
      "inputs": [
        {
          "internalType": "bytes32",
          "name": "role",
          "type": "bytes32"
        },
        {
          "internalType": "address",
          "name": "account",
          "type": "address"
        }
      ],
      "name": "hasRole",
      "outputs": [
        {
          "internalType": "bool",
          "name": "",
          "type": "bool"
        }
      ],
      "stateMutability": "view",
      "type": "function"
    },
    {
      "inputs": [
        {
          "internalType": "address",
          "name": "_maha",
          "type": "address"
        },
        {
          "internalType": "address",
          "name": "_usdc",
          "type": "address"
        },
        {
          "internalType": "address",
          "name": "_odos",
          "type": "address"
        },
        {
          "internalType": "address",
          "name": "_distributor",
          "type": "address"
        }
      ],
      "name": "initialize",
      "outputs": [],
      "stateMutability": "nonpayable",
      "type": "function"
    },
    {
      "inputs": [],
      "name": "maha",
      "outputs": [
        {
          "internalType": "contract IERC20",
          "name": "",
          "type": "address"
        }
      ],
      "stateMutability": "view",
      "type": "function"
    },
    {
      "inputs": [],
      "name": "odos",
      "outputs": [
        {
          "internalType": "address",
          "name": "",
          "type": "address"
        }
      ],
      "stateMutability": "view",
      "type": "function"
    },
    {
      "inputs": [
        {
          "internalType": "contract IERC20",
          "name": "token",
          "type": "address"
        }
      ],
      "name": "refund",
      "outputs": [],
      "stateMutability": "nonpayable",
      "type": "function"
    },
    {
      "inputs": [
        {
          "internalType": "bytes32",
          "name": "role",
          "type": "bytes32"
        },
        {
          "internalType": "address",
          "name": "callerConfirmation",
          "type": "address"
        }
      ],
      "name": "renounceRole",
      "outputs": [],
      "stateMutability": "nonpayable",
      "type": "function"
    },
    {
      "inputs": [
        {
          "internalType": "bytes32",
          "name": "role",
          "type": "bytes32"
        },
        {
          "internalType": "address",
          "name": "account",
          "type": "address"
        }
      ],
      "name": "revokeRole",
      "outputs": [],
      "stateMutability": "nonpayable",
      "type": "function"
    },
    {
      "inputs": [
        {
          "internalType": "address",
          "name": "_newOdos",
          "type": "address"
        }
      ],
      "name": "setOdos",
      "outputs": [],
      "stateMutability": "nonpayable",
      "type": "function"
    },
    {
      "inputs": [
        {
          "internalType": "bytes4",
          "name": "interfaceId",
          "type": "bytes4"
        }
      ],
      "name": "supportsInterface",
      "outputs": [
        {
          "internalType": "bool",
          "name": "",
          "type": "bool"
        }
      ],
      "stateMutability": "view",
      "type": "function"
    },
    {
      "inputs": [],
      "name": "usdc",
      "outputs": [
        {
          "internalType": "contract IERC20",
          "name": "",
          "type": "address"
        }
      ],
      "stateMutability": "view",
      "type": "function"
    }
  ],
  "transactionHash": "0x31c65c8d518950810dd0babf2ab8ef59ac85b6ea265453c32323852e9c14cf12",
  "args": [],
  "numDeployments": 1,
  "solcInputHash": "872ab92c9be5f3ce4c8080b4611e0262",
  "bytecode": "0x608060405234801561001057600080fd5b50610e4f806100206000396000f3fe6080604052600436106100d35760003560e01c80638ba7023b1161007a5780638ba7023b146101ff57806391d148541461021f5780639af524c11461023f578063a217fddf14610252578063d547741f14610267578063f0bd87cc14610287578063f8c8765e146102a9578063fa89401a146102c957600080fd5b806301ffc9a7146100d85780631eba02ec1461010d578063248a9ca31461013a5780632f2ff15d1461016857806336568abe1461018a5780633de00c36146101aa5780633e413bee146101ca5780634e6fd6c4146101ea575b600080fd5b3480156100e457600080fd5b506100f86100f3366004610bd9565b6102e9565b60405190151581526020015b60405180910390f35b34801561011957600080fd5b5060005461012d906001600160a01b031681565b6040516101049190610c03565b34801561014657600080fd5b5061015a610155366004610c17565b610320565b604051908152602001610104565b34801561017457600080fd5b50610188610183366004610c45565b610340565b005b34801561019657600080fd5b506101886101a5366004610c45565b610362565b3480156101b657600080fd5b5060015461012d906001600160a01b031681565b3480156101d657600080fd5b5060025461012d906001600160a01b031681565b3480156101f657600080fd5b5061012d600081565b34801561020b57600080fd5b5061018861021a366004610c75565b61039a565b34801561022b57600080fd5b506100f861023a366004610c45565b6103c8565b61018861024d366004610c92565b6103fe565b34801561025e57600080fd5b5061015a600081565b34801561027357600080fd5b50610188610282366004610c45565b610614565b34801561029357600080fd5b5061015a600080516020610dfa83398151915281565b3480156102b557600080fd5b506101886102c4366004610d0a565b610630565b3480156102d557600080fd5b506101886102e4366004610c75565b6107a0565b60006001600160e01b03198216637965db0b60e01b148061031a57506301ffc9a760e01b6001600160e01b03198316145b92915050565b60008061032b610831565b60009384526020525050604090206001015490565b61034982610320565b61035281610855565b61035c8383610862565b50505050565b6001600160a01b038116331461038b5760405163334bd91960e11b815260040160405180910390fd5b6103958282610903565b505050565b60006103a581610855565b50600080546001600160a01b0319166001600160a01b0392909216919091179055565b6000806103d3610831565b6000948552602090815260408086206001600160a01b03959095168652939052505090205460ff1690565b600080516020610dfa83398151915261041681610855565b60025460005460405163095ea7b360e01b81526001600160a01b039283169263095ea7b39261044c929116908690600401610d66565b6020604051808303816000875af115801561046b573d6000803e3d6000fd5b505050506040513d601f19601f8201168201806040525081019061048f9190610d7f565b50600080546040516001600160a01b039091169034906104b29088908890610da1565b60006040518083038185875af1925050503d80600081146104ef576040519150601f19603f3d011682016040523d82523d6000602084013e6104f4565b606091505b505090508061053d5760405162461bcd60e51b815260206004820152601060248201526f1bd91bdcc818d85b1b0819985a5b195960821b60448201526064015b60405180910390fd5b6001546040516370a0823160e01b81526000916001600160a01b0316906370a082319061056e903090600401610c03565b602060405180830381865afa15801561058b573d6000803e3d6000fd5b505050506040513d601f19601f820116820180604052508101906105af9190610db1565b9050600081116105f45760405162461bcd60e51b815260206004820152601060248201526f4e6f204d61686120746f206275726e2160801b6044820152606401610534565b60015461060c906001600160a01b031660008361097b565b505050505050565b61061d82610320565b61062681610855565b61035c8383610903565b7ff0c57e16840df040f15088dc2f81fe391c3923bec73e23a9662efc9c229c6a008054600160401b810460ff16159067ffffffffffffffff166000811580156106765750825b905060008267ffffffffffffffff1660011480156106935750303b155b9050811580156106a1575080155b156106bf5760405163f92ee8a960e01b815260040160405180910390fd5b845467ffffffffffffffff1916600117855583156106e957845460ff60401b1916600160401b1785555b6106f16109d3565b600180546001600160a01b03808c166001600160a01b03199283161790925560028054928b169290911691909117905561072c600033610862565b50610745600080516020610dfa83398151915287610862565b5061074f8761039a565b831561079557845460ff60401b19168555604051600181527fc7f505b2f371ae2175ee4913f4499e1f2633a7b5936321eed1cdaeb6115181d29060200160405180910390a15b505050505050505050565b60006107ab81610855565b61082d33836001600160a01b03166370a08231306040518263ffffffff1660e01b81526004016107db9190610c03565b602060405180830381865afa1580156107f8573d6000803e3d6000fd5b505050506040513d601f19601f8201168201806040525081019061081c9190610db1565b6001600160a01b038516919061097b565b5050565b7f02dd7bc7dec4dceedda775e58dd541e08a116c6c53815c0bd028192f7b62680090565b61085f81336109dd565b50565b60008061086d610831565b905061087984846103c8565b6108f9576000848152602082815260408083206001600160a01b03871684529091529020805460ff191660011790556108af3390565b6001600160a01b0316836001600160a01b0316857f2f8788117e7eff1d82e926ec794901d17c78024a50270940304540a733656f0d60405160405180910390a4600191505061031a565b600091505061031a565b60008061090e610831565b905061091a84846103c8565b156108f9576000848152602082815260408083206001600160a01b0387168085529252808320805460ff1916905551339287917ff6391f5c32d9c69d2a47ea670b442974b53935d1edc7fd64eb21e047a839171b9190a4600191505061031a565b61039583846001600160a01b031663a9059cbb85856040516024016109a1929190610d66565b604051602081830303815290604052915060e01b6020820180516001600160e01b038381831617835250505050610a08565b6109db610a62565b565b6109e782826103c8565b61082d57808260405163e2517d3f60e01b8152600401610534929190610d66565b6000610a1d6001600160a01b03841683610aab565b90508051600014158015610a42575080806020019051810190610a409190610d7f565b155b156103955782604051635274afe760e01b81526004016105349190610c03565b7ff0c57e16840df040f15088dc2f81fe391c3923bec73e23a9662efc9c229c6a0054600160401b900460ff166109db57604051631afcd79f60e31b815260040160405180910390fd5b6060610ab983836000610ac0565b9392505050565b606081471015610ae5573060405163cd78605960e01b81526004016105349190610c03565b600080856001600160a01b03168486604051610b019190610dca565b60006040518083038185875af1925050503d8060008114610b3e576040519150601f19603f3d011682016040523d82523d6000602084013e610b43565b606091505b5091509150610b53868383610b5d565b9695505050505050565b606082610b7257610b6d82610bb0565b610ab9565b8151158015610b8957506001600160a01b0384163b155b15610ba95783604051639996b31560e01b81526004016105349190610c03565b5080610ab9565b805115610bc05780518082602001fd5b604051630a12f52160e11b815260040160405180910390fd5b600060208284031215610beb57600080fd5b81356001600160e01b031981168114610ab957600080fd5b6001600160a01b0391909116815260200190565b600060208284031215610c2957600080fd5b5035919050565b6001600160a01b038116811461085f57600080fd5b60008060408385031215610c5857600080fd5b823591506020830135610c6a81610c30565b809150509250929050565b600060208284031215610c8757600080fd5b8135610ab981610c30565b600080600060408486031215610ca757600080fd5b833567ffffffffffffffff80821115610cbf57600080fd5b818601915086601f830112610cd357600080fd5b813581811115610ce257600080fd5b876020828501011115610cf457600080fd5b6020928301989097509590910135949350505050565b60008060008060808587031215610d2057600080fd5b8435610d2b81610c30565b93506020850135610d3b81610c30565b92506040850135610d4b81610c30565b91506060850135610d5b81610c30565b939692955090935050565b6001600160a01b03929092168252602082015260400190565b600060208284031215610d9157600080fd5b81518015158114610ab957600080fd5b8183823760009101908152919050565b600060208284031215610dc357600080fd5b5051919050565b6000825160005b81811015610deb5760208186018101518583015201610dd1565b50600092019182525091905056fefbd454f36a7e1a388bd6fc3ab10d434aa4578f811acbbcf33afb1c697486313ca2646970667358221220ad202a802e8bae8ab837113bbe109e935c1b5aecfe9848e5282fda76e12cd1b364736f6c63430008150033",
  "devdoc": {
    "details": "This contract facilitates the buy-back and burning of MAHA tokens using USDC.      It leverages a specified ODOS router for token swaps and allows only authorized      distributors to perform buy-back and burn operations.",
    "errors": {
      "AccessControlBadConfirmation()": [
        {
          "details": "The caller of a function is not the expected one. NOTE: Don't confuse with {AccessControlUnauthorizedAccount}."
        }
      ],
      "AccessControlUnauthorizedAccount(address,bytes32)": [
        {
          "details": "The `account` is missing a role."
        }
      ],
      "AddressEmptyCode(address)": [
        {
          "details": "There's no code at `target` (it is not a contract)."
        }
      ],
      "AddressInsufficientBalance(address)": [
        {
          "details": "The ETH balance of the account is not enough to perform the operation."
        }
      ],
      "FailedInnerCall()": [
        {
          "details": "A call to an address target failed. The target may have reverted."
        }
      ],
      "InvalidInitialization()": [
        {
          "details": "The contract is already initialized."
        }
      ],
      "NotInitializing()": [
        {
          "details": "The contract is not initializing."
        }
      ],
      "SafeERC20FailedOperation(address)": [
        {
          "details": "An operation with an ERC20 token failed."
        }
      ]
    },
    "events": {
      "Initialized(uint64)": {
        "details": "Triggered when the contract has been initialized or reinitialized."
      },
      "RoleAdminChanged(bytes32,bytes32,bytes32)": {
        "details": "Emitted when `newAdminRole` is set as ``role``'s admin role, replacing `previousAdminRole` `DEFAULT_ADMIN_ROLE` is the starting admin for all roles, despite {RoleAdminChanged} not being emitted signaling this."
      },
      "RoleGranted(bytes32,address,address)": {
        "details": "Emitted when `account` is granted `role`. `sender` is the account that originated the contract call, an admin role bearer except when using {AccessControl-_setupRole}."
      },
      "RoleRevoked(bytes32,address,address)": {
        "details": "Emitted when `account` is revoked `role`. `sender` is the account that originated the contract call:   - if using `revokeRole`, it is the admin role bearer   - if using `renounceRole`, it is the role bearer (i.e. `account`)"
      }
    },
    "kind": "dev",
    "methods": {
      "buyMahaBurn(bytes,uint256)": {
        "details": "Only callable by an account with the DISTRIBUTOR_ROLE.      Swaps USDC for MAHA through the ODOS router and sends the MAHA to the burn address.",
        "params": {
          "amount": "How much USDC you want ODOS router to swap",
          "odosData": "Encoded data for the ODOS router call to perform the swap."
        }
      },
      "getRoleAdmin(bytes32)": {
        "details": "Returns the admin role that controls `role`. See {grantRole} and {revokeRole}. To change a role's admin, use {_setRoleAdmin}."
      },
      "grantRole(bytes32,address)": {
        "details": "Grants `role` to `account`. If `account` had not been already granted `role`, emits a {RoleGranted} event. Requirements: - the caller must have ``role``'s admin role. May emit a {RoleGranted} event."
      },
      "hasRole(bytes32,address)": {
        "details": "Returns `true` if `account` has been granted `role`."
      },
      "initialize(address,address,address,address)": {
        "params": {
          "_distributor": "Address to be assigned the DISTRIBUTOR_ROLE.",
          "_maha": "Address of the MAHA token contract.",
          "_odos": "Address of the ODOS router used for swaps.",
          "_usdc": "Address of the USDC token contract."
        }
      },
      "refund(address)": {
        "details": "Only callable by an account with the DEFAULT_ADMIN_ROLE.",
        "params": {
          "token": "The ERC20 token to be refunded."
        }
      },
      "renounceRole(bytes32,address)": {
        "details": "Revokes `role` from the calling account. Roles are often managed via {grantRole} and {revokeRole}: this function's purpose is to provide a mechanism for accounts to lose their privileges if they are compromised (such as when a trusted device is misplaced). If the calling account had been revoked `role`, emits a {RoleRevoked} event. Requirements: - the caller must be `callerConfirmation`. May emit a {RoleRevoked} event."
      },
      "revokeRole(bytes32,address)": {
        "details": "Revokes `role` from `account`. If `account` had been granted `role`, emits a {RoleRevoked} event. Requirements: - the caller must have ``role``'s admin role. May emit a {RoleRevoked} event."
      },
      "setOdos(address)": {
        "details": "Only callable by an account with the DEFAULT_ADMIN_ROLE.",
        "params": {
          "_newOdos": "New address of the ODOS router."
        }
      },
      "supportsInterface(bytes4)": {
        "details": "See {IERC165-supportsInterface}."
      }
    },
    "title": "BuyBackBurnMaha",
    "version": 1
  },
  "userdoc": {
    "kind": "user",
    "methods": {
      "DEAD_ADDRESS()": {
        "notice": "Address representing the burn address (tokens sent here are considered burned)."
      },
      "DISTRIBUTOR_ROLE()": {
        "notice": "Role identifier for accounts authorized to initiate buy-back and burn operations."
      },
      "buyMahaBurn(bytes,uint256)": {
        "notice": "Executes the buy-back and burn operation."
      },
      "initialize(address,address,address,address)": {
        "notice": "Initializes the contract with MAHA and USDC token addresses, ODOS router address, and distributor role."
      },
      "maha()": {
        "notice": "The MAHA token contract."
      },
      "odos()": {
        "notice": "Address of the ODOS router used for swapping USDC to MAHA."
      },
      "refund(address)": {
        "notice": "Refunds the specified token balance held by the contract to the caller."
      },
      "setOdos(address)": {
        "notice": "Updates the address of the ODOS router."
      },
      "usdc()": {
        "notice": "The USDC token contract."
      }
    },
    "version": 1
  },
  "storageLayout": {
    "storage": [
      {
        "astId": 40255,
        "contract": "contracts/periphery/BuyBackBurnMaha.sol:BuyBackBurnMaha",
        "label": "odos",
        "offset": 0,
        "slot": "0",
        "type": "t_address"
      },
      {
        "astId": 40259,
        "contract": "contracts/periphery/BuyBackBurnMaha.sol:BuyBackBurnMaha",
        "label": "maha",
        "offset": 0,
        "slot": "1",
        "type": "t_contract(IERC20)15836"
      },
      {
        "astId": 40263,
        "contract": "contracts/periphery/BuyBackBurnMaha.sol:BuyBackBurnMaha",
        "label": "usdc",
        "offset": 0,
        "slot": "2",
        "type": "t_contract(IERC20)15836"
      }
    ],
    "types": {
      "t_address": {
        "encoding": "inplace",
        "label": "address",
        "numberOfBytes": "20"
      },
      "t_contract(IERC20)15836": {
        "encoding": "inplace",
        "label": "contract IERC20",
        "numberOfBytes": "20"
      }
    }
  }
}