{
  "address": "0xeAA79aaC2decf71F07c3208Df05B198d09c9F971",
  "abi": [
    {
      "inputs": [
        {
          "internalType": "int256",
          "name": "_price",
          "type": "int256"
        },
        {
          "internalType": "uint8",
          "name": "_decimals",
          "type": "uint8"
        }
      ],
      "stateMutability": "nonpayable",
      "type": "constructor"
    },
    {
      "inputs": [],
      "name": "decimals",
      "outputs": [
        {
          "internalType": "uint8",
          "name": "",
          "type": "uint8"
        }
      ],
      "stateMutability": "view",
      "type": "function"
    },
    {
      "inputs": [],
      "name": "description",
      "outputs": [
        {
          "internalType": "string",
          "name": "",
          "type": "string"
        }
      ],
      "stateMutability": "pure",
      "type": "function"
    },
    {
      "inputs": [
        {
          "internalType": "uint256",
          "name": "",
          "type": "uint256"
        }
      ],
      "name": "getAnswer",
      "outputs": [
        {
          "internalType": "int256",
          "name": "",
          "type": "int256"
        }
      ],
      "stateMutability": "view",
      "type": "function"
    },
    {
      "inputs": [
        {
          "internalType": "uint256",
          "name": "",
          "type": "uint256"
        }
      ],
      "name": "getTimestamp",
      "outputs": [
        {
          "internalType": "uint256",
          "name": "",
          "type": "uint256"
        }
      ],
      "stateMutability": "view",
      "type": "function"
    },
    {
      "inputs": [],
      "name": "latestAnswer",
      "outputs": [
        {
          "internalType": "int256",
          "name": "",
          "type": "int256"
        }
      ],
      "stateMutability": "view",
      "type": "function"
    },
    {
      "inputs": [],
      "name": "latestTimestamp",
      "outputs": [
        {
          "internalType": "uint256",
          "name": "",
          "type": "uint256"
        }
      ],
      "stateMutability": "view",
      "type": "function"
    },
    {
      "inputs": [],
      "name": "price",
      "outputs": [
        {
          "internalType": "int256",
          "name": "",
          "type": "int256"
        }
      ],
      "stateMutability": "view",
      "type": "function"
    },
    {
      "inputs": [],
      "name": "version",
      "outputs": [
        {
          "internalType": "uint256",
          "name": "",
          "type": "uint256"
        }
      ],
      "stateMutability": "pure",
      "type": "function"
    }
  ],
  "transactionHash": "0x3b185b28965e68db3e364d021c80bc0c41a7b02d539d5d2e6aa871dc6b8a5412",
  "args": [
    100000000,
    8
  ],
  "numDeployments": 1,
  "solcInputHash": "63cda86a717fc3d26c7a0bd7e61efef0",
  "bytecode": "0x60c060405234801561001057600080fd5b506040516102d03803806102d083398101604081905261002f9161003d565b60ff1660805260a052610073565b6000806040838503121561005057600080fd5b82519150602083015160ff8116811461006857600080fd5b809150509250929050565b60805160a05161022c6100a46000396000818160cd01528181610127015261015a015260006092015261022c6000f3fe608060405234801561001057600080fd5b50600436106100885760003560e01c80638205bf6a1161005b5780638205bf6a1461011c578063a035b1fe14610122578063b5ab58dc14610149578063b633620c1461017c57600080fd5b8063313ce5671461008d57806350d25bcd146100cb57806354fd4d50146100fb5780637284e41614610102575b600080fd5b6100b47f000000000000000000000000000000000000000000000000000000000000000081565b60405160ff90911681526020015b60405180910390f35b7f00000000000000000000000000000000000000000000000000000000000000005b6040519081526020016100c2565b60016100ed565b604080516020810182526000815290516100c2919061018f565b426100ed565b6100ed7f000000000000000000000000000000000000000000000000000000000000000081565b6100ed6101573660046101dd565b507f000000000000000000000000000000000000000000000000000000000000000090565b6100ed61018a3660046101dd565b504290565b600060208083528351808285015260005b818110156101bc578581018301518582016040015282016101a0565b506000604082860101526040601f19601f8301168501019250505092915050565b6000602082840312156101ef57600080fd5b503591905056fea2646970667358221220c34d5770f262394a41e040b097eb3cab932ad94fb8ddec6193209bf5ec307e4964736f6c63430008150033",
  "devdoc": {
    "author": "maha.xyz",
    "kind": "dev",
    "methods": {},
    "title": "FixedPriceOracle",
    "version": 1
  },
  "userdoc": {
    "kind": "user",
    "methods": {},
    "notice": "A contract that returns a fixed price",
    "version": 1
  },
  "storageLayout": {
    "storage": [],
    "types": null
  }
}