{
  "address": "0x5576e868CA293714B9514a95102aE56140bc0442",
  "abi": [
    {
      "inputs": [
        {
          "internalType": "address",
          "name": "_omnichainStakingToken",
          "type": "address"
        }
      ],
      "stateMutability": "nonpayable",
      "type": "constructor"
    },
    {
      "inputs": [
        {
          "internalType": "address",
          "name": "_userAddress",
          "type": "address"
        }
      ],
      "name": "getLockDetails",
      "outputs": [
        {
          "components": [
            {
              "internalType": "uint256",
              "name": "id",
              "type": "uint256"
            },
            {
              "internalType": "uint256",
              "name": "amount",
              "type": "uint256"
            },
            {
              "internalType": "uint256",
              "name": "end",
              "type": "uint256"
            },
            {
              "internalType": "uint256",
              "name": "start",
              "type": "uint256"
            },
            {
              "internalType": "uint256",
              "name": "power",
              "type": "uint256"
            },
            {
              "internalType": "uint256",
              "name": "apr",
              "type": "uint256"
            }
          ],
          "internalType": "struct GovernanceUiHelper.LockedBalanceWithApr[]",
          "name": "",
          "type": "tuple[]"
        }
      ],
      "stateMutability": "view",
      "type": "function"
    },
    {
      "inputs": [],
      "name": "omnichainStaking",
      "outputs": [
        {
          "internalType": "contract OmnichainStakingToken",
          "name": "",
          "type": "address"
        }
      ],
      "stateMutability": "view",
      "type": "function"
    }
  ],
  "transactionHash": "0x8ef37f527d63e2a85acdbf3945ea01900864cd946c2b1c3c91d7e97fd8334136",
  "args": [
    "0xfD487AC8de6520263D57bb41253682874Dc0276E"
  ],
  "numDeployments": 1,
  "solcInputHash": "83fbdce8f55273ba362bcb4f63d49439",
  "bytecode": "0x608060405234801561001057600080fd5b50604051610a03380380610a0383398101604081905261002f91610054565b600080546001600160a01b0319166001600160a01b0392909216919091179055610084565b60006020828403121561006657600080fd5b81516001600160a01b038116811461007d57600080fd5b9392505050565b610970806100936000396000f3fe608060405234801561001057600080fd5b50600436106100365760003560e01c806315056b541461003b5780636f374dc914610064575b600080fd5b61004e6100493660046105f7565b61008f565b60405161005b919061061b565b60405180910390f35b600054610077906001600160a01b031681565b6040516001600160a01b03909116815260200161005b565b600080546040517faa8815160000000000000000000000000000000000000000000000000000000081526001600160a01b03848116600483015260609392839291169063aa88151690602401600060405180830381865afa1580156100f8573d6000803e3d6000fd5b505050506040513d6000823e601f3d908101601f1916820160405261012091908101906107ca565b60008054604080517f6f28d688000000000000000000000000000000000000000000000000000000008152905194965092945090926001600160a01b039091169163221ca18c918391636f28d6889160048083019260209291908290030181865afa158015610193573d6000803e3d6000fd5b505050506040513d601f19601f820116820180604052508101906101b79190610886565b6040517fffffffff0000000000000000000000000000000000000000000000000000000060e084901b1681526001600160a01b039091166004820152602401602060405180830381865afa158015610213573d6000803e3d6000fd5b505050506040513d601f19601f8201168201806040525081019061023791906108a3565b60008054604080517fd61a47f1000000000000000000000000000000000000000000000000000000008152905193945091926001600160a01b039091169163221ca18c91839163d61a47f19160048083019260209291908290030181865afa1580156102a7573d6000803e3d6000fd5b505050506040513d601f19601f820116820180604052508101906102cb9190610886565b6040517fffffffff0000000000000000000000000000000000000000000000000000000060e084901b1681526001600160a01b039091166004820152602401602060405180830381865afa158015610327573d6000803e3d6000fd5b505050506040513d601f19601f8201168201806040525081019061034b91906108a3565b905060008060009054906101000a90046001600160a01b03166001600160a01b03166318160ddd6040518163ffffffff1660e01b8152600401602060405180830381865afa1580156103a1573d6000803e3d6000fd5b505050506040513d601f19601f820116820180604052508101906103c591906108a3565b855190915060008167ffffffffffffffff8111156103e5576103e5610693565b60405190808252806020026020018201604052801561044f57816020015b61043c6040518060c001604052806000815260200160008152602001600081526020016000815260200160008152602001600081525090565b8152602001906001900390816104035790505b50905060005b828110156105d2576104966040518060c001604052806000815260200160008152602001600081526020016000815260200160008152602001600081525090565b60008883815181106104aa576104aa6108bc565b60200260200101519050600081606001516000141580156104cb5750815115155b6104dd57670de0b6b3a7640000610500565b815160608301516104f690670de0b6b3a76400006108e8565b6105009190610905565b9050600061050e898b610927565b61051c906301e133806108e8565b905060008861052d836103e86108e8565b6105379190610905565b905060006103e861054885846108e8565b6105529190610905565b90508d8781518110610566576105666108bc565b60209081029190910181015187528551878201526040808701516060808a01919091529187015190880152850151608087015260a08601819052875186908990899081106105b6576105b66108bc565b6020026020010181905250866001019650505050505050610455565b5098975050505050505050565b6001600160a01b03811681146105f457600080fd5b50565b60006020828403121561060957600080fd5b8135610614816105df565b9392505050565b602080825282518282018190526000919060409081850190868401855b828110156106865781518051855286810151878601528581015186860152606080820151908601526080808201519086015260a0908101519085015260c09093019290850190600101610638565b5091979650505050505050565b634e487b7160e01b600052604160045260246000fd5b6040516080810167ffffffffffffffff811182821017156106cc576106cc610693565b60405290565b604051601f8201601f1916810167ffffffffffffffff811182821017156106fb576106fb610693565b604052919050565b600067ffffffffffffffff82111561071d5761071d610693565b5060051b60200190565b600082601f83011261073857600080fd5b8151602061074d61074883610703565b6106d2565b82815260079290921b8401810191818101908684111561076c57600080fd5b8286015b848110156107bf57608081890312156107895760008081fd5b6107916106a9565b8151815284820151858201526040808301519082015260608083015190820152835291830191608001610770565b509695505050505050565b600080604083850312156107dd57600080fd5b825167ffffffffffffffff808211156107f557600080fd5b818501915085601f83011261080957600080fd5b8151602061081961074883610703565b82815260059290921b8401810191818101908984111561083857600080fd5b948201945b838610156108565785518252948201949082019061083d565b9188015191965090935050508082111561086f57600080fd5b5061087c85828601610727565b9150509250929050565b60006020828403121561089857600080fd5b8151610614816105df565b6000602082840312156108b557600080fd5b5051919050565b634e487b7160e01b600052603260045260246000fd5b634e487b7160e01b600052601160045260246000fd5b80820281158282048414176108ff576108ff6108d2565b92915050565b60008261092257634e487b7160e01b600052601260045260246000fd5b500490565b808201808211156108ff576108ff6108d256fea264697066735822122039c3e368fc97931e1c1b75f0040875b25ab239806f565f3ae293398d2bed972b64736f6c63430008150033",
  "devdoc": {
    "details": "This contract fetches data from the `OmnichainStakingToken` contract, including reward rates,      total supply, and calculates APR based on locked balances and reward rates.",
    "kind": "dev",
    "methods": {
      "constructor": {
        "params": {
          "_omnichainStakingToken": "The address of the OmnichainStakingToken contract."
        }
      },
      "getLockDetails(address)": {
        "details": "Returns an array of `LockedBalanceWithApr` structs with details including lock amount,      APR calculation based on staking rewards, and lock duration.",
        "params": {
          "_userAddress": "The address of the user whose locked balances are retrieved."
        },
        "returns": {
          "_0": "lockDetails Array of `LockedBalanceWithApr` structs containing lock ID, amount, start and end dates,         vePower, and scaled APR."
        }
      }
    },
    "title": "GovernanceUiHelper",
    "version": 1
  },
  "userdoc": {
    "kind": "user",
    "methods": {
      "constructor": {
        "notice": "Constructor initializes the MahaUIHelper with the address of the OmnichainStakingToken contract."
      },
      "getLockDetails(address)": {
        "notice": "Retrieves the details of all locked balances for a specified user."
      },
      "omnichainStaking()": {
        "notice": "The staking contract associated with MAHA DAO governance for retrieving users locked balances"
      }
    },
    "notice": "Utility contract to retrieve and format users staking and locking information,         including APR, for front-end or off-chain access in the MAHA DAO ecosystem.",
    "version": 1
  },
  "storageLayout": {
    "storage": [
      {
        "astId": 14173,
        "contract": "contracts/periphery/ui-helpers/GovernanceUiHelper.sol:GovernanceUiHelper",
        "label": "omnichainStaking",
        "offset": 0,
        "slot": "0",
        "type": "t_contract(OmnichainStakingToken)13505"
      }
    ],
    "types": {
      "t_contract(OmnichainStakingToken)13505": {
        "encoding": "inplace",
        "label": "contract OmnichainStakingToken",
        "numberOfBytes": "20"
      }
    }
  }
}