{
  "address": "0x9127beaB13A3f8cbBAa4caC9F8E501e4872E6A2f",
  "abi": [
    {
      "inputs": [
        {
          "internalType": "address",
          "name": "target",
          "type": "address"
        }
      ],
      "name": "AddressEmptyCode",
      "type": "error"
    },
    {
      "inputs": [
        {
          "internalType": "address",
          "name": "account",
          "type": "address"
        }
      ],
      "name": "AddressInsufficientBalance",
      "type": "error"
    },
    {
      "inputs": [],
      "name": "FailedInnerCall",
      "type": "error"
    },
    {
      "inputs": [],
      "name": "InvalidInitialization",
      "type": "error"
    },
    {
      "inputs": [],
      "name": "NotInitializing",
      "type": "error"
    },
    {
      "inputs": [
        {
          "internalType": "address",
          "name": "owner",
          "type": "address"
        }
      ],
      "name": "OwnableInvalidOwner",
      "type": "error"
    },
    {
      "inputs": [
        {
          "internalType": "address",
          "name": "account",
          "type": "address"
        }
      ],
      "name": "OwnableUnauthorizedAccount",
      "type": "error"
    },
    {
      "inputs": [],
      "name": "ReentrancyGuardReentrantCall",
      "type": "error"
    },
    {
      "inputs": [
        {
          "internalType": "address",
          "name": "token",
          "type": "address"
        }
      ],
      "name": "SafeERC20FailedOperation",
      "type": "error"
    },
    {
      "anonymous": false,
      "inputs": [
        {
          "indexed": false,
          "internalType": "bytes32",
          "name": "bridgeTargetAddress",
          "type": "bytes32"
        },
        {
          "indexed": false,
          "internalType": "address",
          "name": "caller",
          "type": "address"
        },
        {
          "indexed": false,
          "internalType": "uint256",
          "name": "balance",
          "type": "uint256"
        }
      ],
      "name": "BridgeSwept",
      "type": "event"
    },
    {
      "anonymous": false,
      "inputs": [
        {
          "indexed": false,
          "internalType": "address",
          "name": "from",
          "type": "address"
        },
        {
          "indexed": false,
          "internalType": "uint256",
          "name": "amountIn",
          "type": "uint256"
        },
        {
          "indexed": false,
          "internalType": "uint256",
          "name": "amountOut",
          "type": "uint256"
        }
      ],
      "name": "Deposit",
      "type": "event"
    },
    {
      "anonymous": false,
      "inputs": [
        {
          "indexed": false,
          "internalType": "uint64",
          "name": "version",
          "type": "uint64"
        }
      ],
      "name": "Initialized",
      "type": "event"
    },
    {
      "anonymous": false,
      "inputs": [
        {
          "indexed": true,
          "internalType": "address",
          "name": "previousOwner",
          "type": "address"
        },
        {
          "indexed": true,
          "internalType": "address",
          "name": "newOwner",
          "type": "address"
        }
      ],
      "name": "OwnershipTransferred",
      "type": "event"
    },
    {
      "inputs": [],
      "name": "MAX_SLIPPAGE",
      "outputs": [
        {
          "internalType": "uint256",
          "name": "",
          "type": "uint256"
        }
      ],
      "stateMutability": "view",
      "type": "function"
    },
    {
      "inputs": [
        {
          "internalType": "address",
          "name": "",
          "type": "address"
        }
      ],
      "name": "allowedBridgeSweepers",
      "outputs": [
        {
          "internalType": "bool",
          "name": "",
          "type": "bool"
        }
      ],
      "stateMutability": "view",
      "type": "function"
    },
    {
      "inputs": [],
      "name": "bridgeTargetAddress",
      "outputs": [
        {
          "internalType": "bytes32",
          "name": "",
          "type": "bytes32"
        }
      ],
      "stateMutability": "view",
      "type": "function"
    },
    {
      "inputs": [
        {
          "internalType": "uint256",
          "name": "_amountIn",
          "type": "uint256"
        }
      ],
      "name": "deposit",
      "outputs": [
        {
          "internalType": "uint256",
          "name": "amountOut",
          "type": "uint256"
        }
      ],
      "stateMutability": "nonpayable",
      "type": "function"
    },
    {
      "inputs": [],
      "name": "depositToken",
      "outputs": [
        {
          "internalType": "contract IERC20",
          "name": "",
          "type": "address"
        }
      ],
      "stateMutability": "view",
      "type": "function"
    },
    {
      "inputs": [
        {
          "internalType": "contract IStablecoinOFT",
          "name": "_oft",
          "type": "address"
        },
        {
          "internalType": "contract IERC20",
          "name": "_depositToken",
          "type": "address"
        },
        {
          "internalType": "contract IStargate",
          "name": "_stargate",
          "type": "address"
        },
        {
          "internalType": "bytes32",
          "name": "_bridgeTargetAddress",
          "type": "bytes32"
        },
        {
          "internalType": "address",
          "name": "_governance",
          "type": "address"
        },
        {
          "internalType": "uint256",
          "name": "_rate",
          "type": "uint256"
        },
        {
          "internalType": "uint256",
          "name": "_slippage",
          "type": "uint256"
        }
      ],
      "name": "initialize",
      "outputs": [],
      "stateMutability": "nonpayable",
      "type": "function"
    },
    {
      "inputs": [],
      "name": "oft",
      "outputs": [
        {
          "internalType": "contract IStablecoinOFT",
          "name": "",
          "type": "address"
        }
      ],
      "stateMutability": "view",
      "type": "function"
    },
    {
      "inputs": [],
      "name": "owner",
      "outputs": [
        {
          "internalType": "address",
          "name": "",
          "type": "address"
        }
      ],
      "stateMutability": "view",
      "type": "function"
    },
    {
      "inputs": [],
      "name": "rate",
      "outputs": [
        {
          "internalType": "uint256",
          "name": "",
          "type": "uint256"
        }
      ],
      "stateMutability": "view",
      "type": "function"
    },
    {
      "inputs": [
        {
          "internalType": "address",
          "name": "_token",
          "type": "address"
        },
        {
          "internalType": "uint256",
          "name": "_amount",
          "type": "uint256"
        },
        {
          "internalType": "address",
          "name": "_to",
          "type": "address"
        }
      ],
      "name": "recoverERC20",
      "outputs": [],
      "stateMutability": "nonpayable",
      "type": "function"
    },
    {
      "inputs": [],
      "name": "renounceOwnership",
      "outputs": [],
      "stateMutability": "nonpayable",
      "type": "function"
    },
    {
      "inputs": [
        {
          "internalType": "address",
          "name": "_sweeper",
          "type": "address"
        },
        {
          "internalType": "bool",
          "name": "_allowed",
          "type": "bool"
        }
      ],
      "name": "setAllowedBridgeSweeper",
      "outputs": [],
      "stateMutability": "nonpayable",
      "type": "function"
    },
    {
      "inputs": [
        {
          "internalType": "uint256",
          "name": "_rate",
          "type": "uint256"
        }
      ],
      "name": "setRate",
      "outputs": [],
      "stateMutability": "nonpayable",
      "type": "function"
    },
    {
      "inputs": [],
      "name": "slippage",
      "outputs": [
        {
          "internalType": "uint256",
          "name": "",
          "type": "uint256"
        }
      ],
      "stateMutability": "view",
      "type": "function"
    },
    {
      "inputs": [],
      "name": "stargate",
      "outputs": [
        {
          "internalType": "contract IStargate",
          "name": "",
          "type": "address"
        }
      ],
      "stateMutability": "view",
      "type": "function"
    },
    {
      "inputs": [
        {
          "internalType": "uint256",
          "name": "amount",
          "type": "uint256"
        }
      ],
      "name": "sweep",
      "outputs": [],
      "stateMutability": "payable",
      "type": "function"
    },
    {
      "inputs": [
        {
          "internalType": "address",
          "name": "newOwner",
          "type": "address"
        }
      ],
      "name": "transferOwnership",
      "outputs": [],
      "stateMutability": "nonpayable",
      "type": "function"
    }
  ],
  "transactionHash": "0x588fc2f68f84a7fa432370a3cb57ec18878b86b0316bbe11a2b52159a47137f6",
  "args": [],
  "numDeployments": 1,
  "solcInputHash": "ce3c3c305aab601c8688ec8bc205b24d",
  "bytecode": "0x60a0604052670de0b6b3a764000060805234801561001c57600080fd5b5060805161173c610046600039600081816103590152818161073f0152610763015261173c6000f3fe60806040526004361061010e5760003560e01c80639b5215f6116100a5578063c89039c511610074578063ec66b4b811610059578063ec66b4b814610307578063f2fde38b14610327578063f97595181461034757600080fd5b8063c89039c5146102a7578063d327d914146102c757600080fd5b80639b5215f614610234578063aa60e73314610254578063b51609b414610267578063b6b55f251461028757600080fd5b80636c099dee116100e15780636c099dee1461018a578063715018a6146101c257806380545d92146101d75780638da5cb5b146101f757600080fd5b806319ddc3bb146101135780632c4e722e1461013c57806334fcf437146101525780633e032a3b14610174575b600080fd5b34801561011f57600080fd5b5061012960055481565b6040519081526020015b60405180910390f35b34801561014857600080fd5b5061012960005481565b34801561015e57600080fd5b5061017261016d3660046111cc565b61037b565b005b34801561018057600080fd5b5061012960015481565b34801561019657600080fd5b506004546101aa906001600160a01b031681565b6040516001600160a01b039091168152602001610133565b3480156101ce57600080fd5b50610172610388565b3480156101e357600080fd5b506101726101f23660046111fa565b61039c565b34801561020357600080fd5b507f9016d09d72d40fdae2fd8ceac6b6234c7706214fd39c1cd1e609a0528c199300546001600160a01b03166101aa565b34801561024057600080fd5b506002546101aa906001600160a01b031681565b6101726102623660046111cc565b6105a7565b34801561027357600080fd5b50610172610282366004611274565b61090d565b34801561029357600080fd5b506101296102a23660046111cc565b61092e565b3480156102b357600080fd5b506003546101aa906001600160a01b031681565b3480156102d357600080fd5b506102f76102e23660046112b6565b60066020526000908152604090205460ff1681565b6040519015158152602001610133565b34801561031357600080fd5b506101726103223660046112e1565b610aad565b34801561033357600080fd5b506101726103423660046112b6565b610ae0565b34801561035357600080fd5b506101297f000000000000000000000000000000000000000000000000000000000000000081565b610383610b34565b600055565b610390610b34565b61039a6000610ba8565b565b7ff0c57e16840df040f15088dc2f81fe391c3923bec73e23a9662efc9c229c6a00805468010000000000000000810460ff16159067ffffffffffffffff166000811580156103e75750825b905060008267ffffffffffffffff1660011480156104045750303b155b905081158015610412575080155b15610449576040517ff92ee8a900000000000000000000000000000000000000000000000000000000815260040160405180910390fd5b845467ffffffffffffffff19166001178555831561047d57845468ff00000000000000001916680100000000000000001785555b61048688610c31565b6001600660008a6001600160a01b03166001600160a01b0316815260200190815260200160002060006101000a81548160ff021916908315150217905550886005819055508a600360006101000a8154816001600160a01b0302191690836001600160a01b031602179055508b600260006101000a8154816001600160a01b0302191690836001600160a01b03160217905550866000819055508560018190555089600460006101000a8154816001600160a01b0302191690836001600160a01b03160217905550831561059957845468ff000000000000000019168555604051600181527fc7f505b2f371ae2175ee4913f4499e1f2633a7b5936321eed1cdaeb6115181d29060200160405180910390a15b505050505050505050505050565b6105af610c42565b3360009081526006602052604090205460ff166106135760405162461bcd60e51b815260206004820152600f60248201527f696e76616c69642073776565706572000000000000000000000000000000000060448201526064015b60405180910390fd5b6003546040517f70a082310000000000000000000000000000000000000000000000000000000081523060048201526000916001600160a01b0316906370a0823190602401602060405180830381865afa158015610675573d6000803e3d6000fd5b505050506040513d601f19601f82011682018060405250810190610699919061131a565b9050600081116106eb5760405162461bcd60e51b815260206004820152600a60248201527f6e6f2062616c616e636500000000000000000000000000000000000000000000604482015260640161060a565b816000036106f7578091505b600454600354610714916001600160a01b03918216911683610ca5565b60006040518060e0016040528061759563ffffffff16815260200160055481526020018481526020017f00000000000000000000000000000000000000000000000000000000000000006001547f000000000000000000000000000000000000000000000000000000000000000061078c9190611349565b610796908761135c565b6107a09190611373565b8152604080516020818101835260008083528185019290925282518082018452828152838501528251808201845282815260609094019390935281518083019092523480835292820152600454929350916001600160a01b03169063cbef2aa99084846108347f9016d09d72d40fdae2fd8ceac6b6234c7706214fd39c1cd1e609a0528c199300546001600160a01b031690565b6040518563ffffffff1660e01b8152600401610852939291906113e5565b60006040518083038185885af1158015610870573d6000803e3d6000fd5b50505050506040513d6000823e601f3d908101601f1916820160405261089991908101906115fe565b50506005546040805191825233602083015281018590527f2e04862e086f894a14bff207c8ef28b8c6f8b94055b80cb1e2fd27b950973591915060600160405180910390a150505061090a60017f9b779b17422d0df92223018b32b4d1fa46e071723d6817e2486d003becc55f0055565b50565b610915610b34565b6109296001600160a01b0384168284610d4e565b505050565b6000610938610c42565b600082116109885760405162461bcd60e51b815260206004820152600e60248201527f696e76616c696420616d6f756e74000000000000000000000000000000000000604482015260640161060a565b6003546109a0906001600160a01b0316333085610dc2565b6000546109b583670de0b6b3a764000061135c565b6109bf9190611373565b6002546040517f774bd409000000000000000000000000000000000000000000000000000000008152336004820152602481018390529192506001600160a01b03169063774bd40990604401600060405180830381600087803b158015610a2557600080fd5b505af1158015610a39573d6000803e3d6000fd5b505060408051338152602081018690529081018490527f90890809c654f11d6e72a28fa60149770a0d11ec6c92319d6ceb2bb0a4ea1a159250606001905060405180910390a1610aa860017f9b779b17422d0df92223018b32b4d1fa46e071723d6817e2486d003becc55f0055565b919050565b610ab5610b34565b6001600160a01b03919091166000908152600660205260409020805460ff1916911515919091179055565b610ae8610b34565b6001600160a01b038116610b2b576040517f1e4fbdf70000000000000000000000000000000000000000000000000000000081526000600482015260240161060a565b61090a81610ba8565b33610b667f9016d09d72d40fdae2fd8ceac6b6234c7706214fd39c1cd1e609a0528c199300546001600160a01b031690565b6001600160a01b03161461039a576040517f118cdaa700000000000000000000000000000000000000000000000000000000815233600482015260240161060a565b7f9016d09d72d40fdae2fd8ceac6b6234c7706214fd39c1cd1e609a0528c19930080547fffffffffffffffffffffffff000000000000000000000000000000000000000081166001600160a01b03848116918217845560405192169182907f8be0079c531659141344cd1fd0a4f28419497f9722a3daafe3b4186f6b6457e090600090a3505050565b610c39610dfb565b61090a81610e62565b7f9b779b17422d0df92223018b32b4d1fa46e071723d6817e2486d003becc55f00805460011901610c9f576040517f3ee5aeb500000000000000000000000000000000000000000000000000000000815260040160405180910390fd5b60029055565b6040517fdd62ed3e0000000000000000000000000000000000000000000000000000000081523060048201526001600160a01b0383811660248301526000919085169063dd62ed3e90604401602060405180830381865afa158015610d0e573d6000803e3d6000fd5b505050506040513d601f19601f82011682018060405250810190610d32919061131a565b9050610d488484610d4385856116ba565b610e6a565b50505050565b6040516001600160a01b0383811660248301526044820183905261092991859182169063a9059cbb906064015b604051602081830303815290604052915060e01b6020820180517bffffffffffffffffffffffffffffffffffffffffffffffffffffffff8381831617835250505050610f24565b6040516001600160a01b038481166024830152838116604483015260648201839052610d489186918216906323b872dd90608401610d7b565b7ff0c57e16840df040f15088dc2f81fe391c3923bec73e23a9662efc9c229c6a005468010000000000000000900460ff1661039a576040517fd7e6bcf800000000000000000000000000000000000000000000000000000000815260040160405180910390fd5b610ae8610dfb565b604080516001600160a01b038416602482015260448082018490528251808303909101815260649091019091526020810180517bffffffffffffffffffffffffffffffffffffffffffffffffffffffff167f095ea7b300000000000000000000000000000000000000000000000000000000179052610ee98482610fa0565b610d48576040516001600160a01b03848116602483015260006044830152610f1e91869182169063095ea7b390606401610d7b565b610d4884825b6000610f396001600160a01b0384168361104a565b90508051600014158015610f5e575080806020019051810190610f5c91906116cd565b155b15610929576040517f5274afe70000000000000000000000000000000000000000000000000000000081526001600160a01b038416600482015260240161060a565b6000806000846001600160a01b031684604051610fbd91906116ea565b6000604051808303816000865af19150503d8060008114610ffa576040519150601f19603f3d011682016040523d82523d6000602084013e610fff565b606091505b509150915081801561102957508051158061102957508080602001905181019061102991906116cd565b801561103f57506000856001600160a01b03163b115b925050505b92915050565b60606110588383600061105f565b9392505050565b60608147101561109d576040517fcd78605900000000000000000000000000000000000000000000000000000000815230600482015260240161060a565b600080856001600160a01b031684866040516110b991906116ea565b60006040518083038185875af1925050503d80600081146110f6576040519150601f19603f3d011682016040523d82523d6000602084013e6110fb565b606091505b509150915061110b868383611115565b9695505050505050565b60608261112a576111258261118a565b611058565b815115801561114157506001600160a01b0384163b155b15611183576040517f9996b3150000000000000000000000000000000000000000000000000000000081526001600160a01b038516600482015260240161060a565b5080611058565b80511561119a5780518082602001fd5b6040517f1425ea4200000000000000000000000000000000000000000000000000000000815260040160405180910390fd5b6000602082840312156111de57600080fd5b5035919050565b6001600160a01b038116811461090a57600080fd5b600080600080600080600060e0888a03121561121557600080fd5b8735611220816111e5565b96506020880135611230816111e5565b95506040880135611240816111e5565b9450606088013593506080880135611257816111e5565b9699959850939692959460a0840135945060c09093013592915050565b60008060006060848603121561128957600080fd5b8335611294816111e5565b92506020840135915060408401356112ab816111e5565b809150509250925092565b6000602082840312156112c857600080fd5b8135611058816111e5565b801515811461090a57600080fd5b600080604083850312156112f457600080fd5b82356112ff816111e5565b9150602083013561130f816112d3565b809150509250929050565b60006020828403121561132c57600080fd5b5051919050565b634e487b7160e01b600052601160045260246000fd5b8181038181111561104457611044611333565b808202811582820484141761104457611044611333565b60008261139057634e487b7160e01b600052601260045260246000fd5b500490565b60005b838110156113b0578181015183820152602001611398565b50506000910152565b600081518084526113d1816020860160208601611395565b601f01601f19169290920160200192915050565b6080815263ffffffff8451166080820152602084015160a0820152604084015160c0820152606084015160e08201526000608085015160e06101008401526114316101608401826113b9565b905060a0860151607f19808584030161012086015261145083836113b9565b925060c0880151915080858403016101408601525061146f82826113b9565b9250505061148a602083018580518252602090810151910152565b6001600160a01b0383166060830152949350505050565b634e487b7160e01b600052604160045260246000fd5b6040805190810167ffffffffffffffff811182821017156114da576114da6114a1565b60405290565b604051601f8201601f1916810167ffffffffffffffff81118282101715611509576115096114a1565b604052919050565b60006040828403121561152357600080fd5b61152b6114b7565b9050815181526020820151602082015292915050565b60006040828403121561155357600080fd5b61155b6114b7565b9050815166ffffffffffffff8116811461157457600080fd5b815260208281015167ffffffffffffffff8082111561159257600080fd5b818501915085601f8301126115a657600080fd5b8151818111156115b8576115b86114a1565b6115ca601f8201601f191685016114e0565b915080825286848285010111156115e057600080fd5b6115ef81858401868601611395565b50808385015250505092915050565b600080600083850360e081121561161457600080fd5b608081121561162257600080fd5b506040516060810167ffffffffffffffff8282108183111715611647576116476114a1565b816040528651835260208701519150808216821461166457600080fd5b8160208401526116778860408901611511565b604084015282955061168c8860808901611511565b945060c08701519250808311156116a257600080fd5b50506116b086828701611541565b9150509250925092565b8082018082111561104457611044611333565b6000602082840312156116df57600080fd5b8151611058816112d3565b600082516116fc818460208701611395565b919091019291505056fea26469706673582212209a599cb1ab8d240a6928ca83d5de0e940cd98233fb5bbd03f714fdd59884d10864736f6c63430008150033",
  "devdoc": {
    "author": "maha.xyz",
    "details": "Tokens are sent to this contract via deposit, zai is minted for the user,          and funds are batched and bridged down to the L1 for depositing into the maha protocol.",
    "errors": {
      "AddressEmptyCode(address)": [
        {
          "details": "There's no code at `target` (it is not a contract)."
        }
      ],
      "AddressInsufficientBalance(address)": [
        {
          "details": "The ETH balance of the account is not enough to perform the operation."
        }
      ],
      "FailedInnerCall()": [
        {
          "details": "A call to an address target failed. The target may have reverted."
        }
      ],
      "InvalidInitialization()": [
        {
          "details": "The contract is already initialized."
        }
      ],
      "NotInitializing()": [
        {
          "details": "The contract is not initializing."
        }
      ],
      "OwnableInvalidOwner(address)": [
        {
          "details": "The owner is not a valid owner account. (eg. `address(0)`)"
        }
      ],
      "OwnableUnauthorizedAccount(address)": [
        {
          "details": "The caller account is not authorized to perform an operation."
        }
      ],
      "ReentrancyGuardReentrantCall()": [
        {
          "details": "Unauthorized reentrant call."
        }
      ],
      "SafeERC20FailedOperation(address)": [
        {
          "details": "An operation with an ERC20 token failed."
        }
      ]
    },
    "events": {
      "Initialized(uint64)": {
        "details": "Triggered when the contract has been initialized or reinitialized."
      }
    },
    "kind": "dev",
    "methods": {
      "owner()": {
        "details": "Returns the address of the current owner."
      },
      "renounceOwnership()": {
        "details": "Leaves the contract without owner. It will not be possible to call `onlyOwner` functions. Can only be called by the current owner. NOTE: Renouncing ownership will leave the contract without an owner, thereby disabling any functionality that is only available to the owner."
      },
      "transferOwnership(address)": {
        "details": "Transfers ownership of the contract to a new account (`newOwner`). Can only be called by the current owner."
      }
    },
    "title": "L2DepositCollateralL0 Contract",
    "version": 1
  },
  "userdoc": {
    "kind": "user",
    "methods": {
      "MAX_SLIPPAGE()": {
        "notice": "The maximum slippage allowed for the bridge"
      },
      "allowedBridgeSweepers(address)": {
        "notice": "The mapping of allowed addresses that can trigger the bridge function"
      },
      "bridgeTargetAddress()": {
        "notice": "The contract address where the bridge call should be sent on mainnet ETH"
      },
      "depositToken()": {
        "notice": "The deposit token address - this is what users will deposit to mint the OFT"
      },
      "oft()": {
        "notice": "The OFT token address"
      },
      "rate()": {
        "notice": "The rate at which the deposit token is converted to OFT"
      },
      "slippage()": {
        "notice": "The slippage allowed for the bridge"
      },
      "stargate()": {
        "notice": "The address of the stargate bridge"
      }
    },
    "notice": "Allows L2 minting of zai tokens in exchange for deposited assets",
    "version": 1
  },
  "storageLayout": {
    "storage": [
      {
        "astId": 2766,
        "contract": "contracts/periphery/restaking/layerzero/L2DepositCollateralL0.sol:L2DepositCollateralL0",
        "label": "rate",
        "offset": 0,
        "slot": "0",
        "type": "t_uint256"
      },
      {
        "astId": 2769,
        "contract": "contracts/periphery/restaking/layerzero/L2DepositCollateralL0.sol:L2DepositCollateralL0",
        "label": "slippage",
        "offset": 0,
        "slot": "1",
        "type": "t_uint256"
      },
      {
        "astId": 2777,
        "contract": "contracts/periphery/restaking/layerzero/L2DepositCollateralL0.sol:L2DepositCollateralL0",
        "label": "oft",
        "offset": 0,
        "slot": "2",
        "type": "t_contract(IStablecoinOFT)2689"
      },
      {
        "astId": 2781,
        "contract": "contracts/periphery/restaking/layerzero/L2DepositCollateralL0.sol:L2DepositCollateralL0",
        "label": "depositToken",
        "offset": 0,
        "slot": "3",
        "type": "t_contract(IERC20)2061"
      },
      {
        "astId": 2785,
        "contract": "contracts/periphery/restaking/layerzero/L2DepositCollateralL0.sol:L2DepositCollateralL0",
        "label": "stargate",
        "offset": 0,
        "slot": "4",
        "type": "t_contract(IStargate)2737"
      },
      {
        "astId": 2788,
        "contract": "contracts/periphery/restaking/layerzero/L2DepositCollateralL0.sol:L2DepositCollateralL0",
        "label": "bridgeTargetAddress",
        "offset": 0,
        "slot": "5",
        "type": "t_bytes32"
      },
      {
        "astId": 2793,
        "contract": "contracts/periphery/restaking/layerzero/L2DepositCollateralL0.sol:L2DepositCollateralL0",
        "label": "allowedBridgeSweepers",
        "offset": 0,
        "slot": "6",
        "type": "t_mapping(t_address,t_bool)"
      }
    ],
    "types": {
      "t_address": {
        "encoding": "inplace",
        "label": "address",
        "numberOfBytes": "20"
      },
      "t_bool": {
        "encoding": "inplace",
        "label": "bool",
        "numberOfBytes": "1"
      },
      "t_bytes32": {
        "encoding": "inplace",
        "label": "bytes32",
        "numberOfBytes": "32"
      },
      "t_contract(IERC20)2061": {
        "encoding": "inplace",
        "label": "contract IERC20",
        "numberOfBytes": "20"
      },
      "t_contract(IStablecoinOFT)2689": {
        "encoding": "inplace",
        "label": "contract IStablecoinOFT",
        "numberOfBytes": "20"
      },
      "t_contract(IStargate)2737": {
        "encoding": "inplace",
        "label": "contract IStargate",
        "numberOfBytes": "20"
      },
      "t_mapping(t_address,t_bool)": {
        "encoding": "mapping",
        "key": "t_address",
        "label": "mapping(address => bool)",
        "numberOfBytes": "32",
        "value": "t_bool"
      },
      "t_uint256": {
        "encoding": "inplace",
        "label": "uint256",
        "numberOfBytes": "32"
      }
    }
  }
}