{
  "address": "0xbb0368C6F99AB2df7e90d6dBF7F66015D1FF8058",
  "abi": [
    {
      "inputs": [
        {
          "internalType": "address",
          "name": "target",
          "type": "address"
        }
      ],
      "name": "AddressEmptyCode",
      "type": "error"
    },
    {
      "inputs": [
        {
          "internalType": "address",
          "name": "account",
          "type": "address"
        }
      ],
      "name": "AddressInsufficientBalance",
      "type": "error"
    },
    {
      "inputs": [],
      "name": "FailedInnerCall",
      "type": "error"
    },
    {
      "inputs": [],
      "name": "InvalidInitialization",
      "type": "error"
    },
    {
      "inputs": [],
      "name": "NotInitializing",
      "type": "error"
    },
    {
      "inputs": [
        {
          "internalType": "address",
          "name": "owner",
          "type": "address"
        }
      ],
      "name": "OwnableInvalidOwner",
      "type": "error"
    },
    {
      "inputs": [
        {
          "internalType": "address",
          "name": "account",
          "type": "address"
        }
      ],
      "name": "OwnableUnauthorizedAccount",
      "type": "error"
    },
    {
      "inputs": [],
      "name": "ReentrancyGuardReentrantCall",
      "type": "error"
    },
    {
      "inputs": [
        {
          "internalType": "address",
          "name": "token",
          "type": "address"
        }
      ],
      "name": "SafeERC20FailedOperation",
      "type": "error"
    },
    {
      "anonymous": false,
      "inputs": [
        {
          "indexed": false,
          "internalType": "bytes32",
          "name": "bridgeTargetAddress",
          "type": "bytes32"
        },
        {
          "indexed": false,
          "internalType": "address",
          "name": "caller",
          "type": "address"
        },
        {
          "indexed": false,
          "internalType": "uint256",
          "name": "balance",
          "type": "uint256"
        }
      ],
      "name": "BridgeSwept",
      "type": "event"
    },
    {
      "anonymous": false,
      "inputs": [
        {
          "indexed": false,
          "internalType": "address",
          "name": "from",
          "type": "address"
        },
        {
          "indexed": false,
          "internalType": "uint256",
          "name": "amountIn",
          "type": "uint256"
        },
        {
          "indexed": false,
          "internalType": "uint256",
          "name": "amountOut",
          "type": "uint256"
        }
      ],
      "name": "Deposit",
      "type": "event"
    },
    {
      "anonymous": false,
      "inputs": [
        {
          "indexed": false,
          "internalType": "uint64",
          "name": "version",
          "type": "uint64"
        }
      ],
      "name": "Initialized",
      "type": "event"
    },
    {
      "anonymous": false,
      "inputs": [
        {
          "indexed": true,
          "internalType": "address",
          "name": "previousOwner",
          "type": "address"
        },
        {
          "indexed": true,
          "internalType": "address",
          "name": "newOwner",
          "type": "address"
        }
      ],
      "name": "OwnershipTransferred",
      "type": "event"
    },
    {
      "inputs": [],
      "name": "MAX_SLIPPAGE",
      "outputs": [
        {
          "internalType": "uint256",
          "name": "",
          "type": "uint256"
        }
      ],
      "stateMutability": "view",
      "type": "function"
    },
    {
      "inputs": [
        {
          "internalType": "address",
          "name": "",
          "type": "address"
        }
      ],
      "name": "allowedBridgeSweepers",
      "outputs": [
        {
          "internalType": "bool",
          "name": "",
          "type": "bool"
        }
      ],
      "stateMutability": "view",
      "type": "function"
    },
    {
      "inputs": [],
      "name": "bridgeTargetAddress",
      "outputs": [
        {
          "internalType": "bytes32",
          "name": "",
          "type": "bytes32"
        }
      ],
      "stateMutability": "view",
      "type": "function"
    },
    {
      "inputs": [
        {
          "internalType": "uint256",
          "name": "_amountIn",
          "type": "uint256"
        }
      ],
      "name": "deposit",
      "outputs": [
        {
          "internalType": "uint256",
          "name": "amountOut",
          "type": "uint256"
        }
      ],
      "stateMutability": "nonpayable",
      "type": "function"
    },
    {
      "inputs": [],
      "name": "depositToken",
      "outputs": [
        {
          "internalType": "contract IERC20",
          "name": "",
          "type": "address"
        }
      ],
      "stateMutability": "view",
      "type": "function"
    },
    {
      "inputs": [
        {
          "internalType": "contract IStablecoinOFT",
          "name": "_oft",
          "type": "address"
        },
        {
          "internalType": "contract IERC20",
          "name": "_depositToken",
          "type": "address"
        },
        {
          "internalType": "contract IStargate",
          "name": "_stargate",
          "type": "address"
        },
        {
          "internalType": "bytes32",
          "name": "_bridgeTargetAddress",
          "type": "bytes32"
        },
        {
          "internalType": "address",
          "name": "_governance",
          "type": "address"
        },
        {
          "internalType": "uint256",
          "name": "_rate",
          "type": "uint256"
        },
        {
          "internalType": "uint256",
          "name": "_slippage",
          "type": "uint256"
        }
      ],
      "name": "initialize",
      "outputs": [],
      "stateMutability": "nonpayable",
      "type": "function"
    },
    {
      "inputs": [],
      "name": "oft",
      "outputs": [
        {
          "internalType": "contract IStablecoinOFT",
          "name": "",
          "type": "address"
        }
      ],
      "stateMutability": "view",
      "type": "function"
    },
    {
      "inputs": [],
      "name": "owner",
      "outputs": [
        {
          "internalType": "address",
          "name": "",
          "type": "address"
        }
      ],
      "stateMutability": "view",
      "type": "function"
    },
    {
      "inputs": [],
      "name": "rate",
      "outputs": [
        {
          "internalType": "uint256",
          "name": "",
          "type": "uint256"
        }
      ],
      "stateMutability": "view",
      "type": "function"
    },
    {
      "inputs": [
        {
          "internalType": "address",
          "name": "_token",
          "type": "address"
        },
        {
          "internalType": "uint256",
          "name": "_amount",
          "type": "uint256"
        },
        {
          "internalType": "address",
          "name": "_to",
          "type": "address"
        }
      ],
      "name": "recoverERC20",
      "outputs": [],
      "stateMutability": "nonpayable",
      "type": "function"
    },
    {
      "inputs": [],
      "name": "renounceOwnership",
      "outputs": [],
      "stateMutability": "nonpayable",
      "type": "function"
    },
    {
      "inputs": [
        {
          "internalType": "address",
          "name": "_sweeper",
          "type": "address"
        },
        {
          "internalType": "bool",
          "name": "_allowed",
          "type": "bool"
        }
      ],
      "name": "setAllowedBridgeSweeper",
      "outputs": [],
      "stateMutability": "nonpayable",
      "type": "function"
    },
    {
      "inputs": [
        {
          "internalType": "uint256",
          "name": "_rate",
          "type": "uint256"
        }
      ],
      "name": "setRate",
      "outputs": [],
      "stateMutability": "nonpayable",
      "type": "function"
    },
    {
      "inputs": [
        {
          "internalType": "address",
          "name": "_stargate",
          "type": "address"
        }
      ],
      "name": "setStargatePool",
      "outputs": [],
      "stateMutability": "nonpayable",
      "type": "function"
    },
    {
      "inputs": [],
      "name": "slippage",
      "outputs": [
        {
          "internalType": "uint256",
          "name": "",
          "type": "uint256"
        }
      ],
      "stateMutability": "view",
      "type": "function"
    },
    {
      "inputs": [],
      "name": "stargate",
      "outputs": [
        {
          "internalType": "contract IStargate",
          "name": "",
          "type": "address"
        }
      ],
      "stateMutability": "view",
      "type": "function"
    },
    {
      "inputs": [
        {
          "internalType": "uint256",
          "name": "amount",
          "type": "uint256"
        }
      ],
      "name": "sweep",
      "outputs": [],
      "stateMutability": "payable",
      "type": "function"
    },
    {
      "inputs": [
        {
          "internalType": "address",
          "name": "newOwner",
          "type": "address"
        }
      ],
      "name": "transferOwnership",
      "outputs": [],
      "stateMutability": "nonpayable",
      "type": "function"
    }
  ],
  "transactionHash": "0x0c9a834ee08e6c276e39a3ce90c1bb9c3f3375152e409ed6aa01c3e759fc766c",
  "args": [],
  "numDeployments": 1,
  "solcInputHash": "5a64012523cae12694f5c41096d9561e",
  "bytecode": "0x60a0604052670de0b6b3a764000060805234801561001c57600080fd5b506080516117a361004660003960008181610394015281816107b101526107d501526117a36000f3fe6080604052600436106101295760003560e01c80639b5215f6116100a5578063c89039c511610074578063ec66b4b811610059578063ec66b4b814610342578063f2fde38b14610362578063f97595181461038257600080fd5b8063c89039c5146102e2578063d327d9141461030257600080fd5b80639b5215f61461026f578063aa60e7331461028f578063b51609b4146102a2578063b6b55f25146102c257600080fd5b80633e032a3b116100fc578063715018a6116100e1578063715018a6146101fd57806380545d92146102125780638da5cb5b1461023257600080fd5b80633e032a3b146101af5780636c099dee146101c557600080fd5b806319ddc3bb1461012e5780632c4e722e146101575780632fd9470f1461016d57806334fcf4371461018f575b600080fd5b34801561013a57600080fd5b5061014460055481565b6040519081526020015b60405180910390f35b34801561016357600080fd5b5061014460005481565b34801561017957600080fd5b5061018d610188366004611248565b6103b6565b005b34801561019b57600080fd5b5061018d6101aa366004611265565b6103ed565b3480156101bb57600080fd5b5061014460015481565b3480156101d157600080fd5b506004546101e5906001600160a01b031681565b6040516001600160a01b03909116815260200161014e565b34801561020957600080fd5b5061018d6103fa565b34801561021e57600080fd5b5061018d61022d36600461127e565b61040e565b34801561023e57600080fd5b507f9016d09d72d40fdae2fd8ceac6b6234c7706214fd39c1cd1e609a0528c199300546001600160a01b03166101e5565b34801561027b57600080fd5b506002546101e5906001600160a01b031681565b61018d61029d366004611265565b610619565b3480156102ae57600080fd5b5061018d6102bd3660046112f8565b61097f565b3480156102ce57600080fd5b506101446102dd366004611265565b6109a0565b3480156102ee57600080fd5b506003546101e5906001600160a01b031681565b34801561030e57600080fd5b5061033261031d366004611248565b60066020526000908152604090205460ff1681565b604051901515815260200161014e565b34801561034e57600080fd5b5061018d61035d366004611348565b610b1f565b34801561036e57600080fd5b5061018d61037d366004611248565b610b52565b34801561038e57600080fd5b506101447f000000000000000000000000000000000000000000000000000000000000000081565b6103be610ba6565b6004805473ffffffffffffffffffffffffffffffffffffffff19166001600160a01b0392909216919091179055565b6103f5610ba6565b600055565b610402610ba6565b61040c6000610c1a565b565b7ff0c57e16840df040f15088dc2f81fe391c3923bec73e23a9662efc9c229c6a00805468010000000000000000810460ff16159067ffffffffffffffff166000811580156104595750825b905060008267ffffffffffffffff1660011480156104765750303b155b905081158015610484575080155b156104bb576040517ff92ee8a900000000000000000000000000000000000000000000000000000000815260040160405180910390fd5b845467ffffffffffffffff1916600117855583156104ef57845468ff00000000000000001916680100000000000000001785555b6104f888610c98565b6001600660008a6001600160a01b03166001600160a01b0316815260200190815260200160002060006101000a81548160ff021916908315150217905550886005819055508a600360006101000a8154816001600160a01b0302191690836001600160a01b031602179055508b600260006101000a8154816001600160a01b0302191690836001600160a01b03160217905550866000819055508560018190555089600460006101000a8154816001600160a01b0302191690836001600160a01b03160217905550831561060b57845468ff000000000000000019168555604051600181527fc7f505b2f371ae2175ee4913f4499e1f2633a7b5936321eed1cdaeb6115181d29060200160405180910390a15b505050505050505050505050565b610621610ca9565b3360009081526006602052604090205460ff166106855760405162461bcd60e51b815260206004820152600f60248201527f696e76616c69642073776565706572000000000000000000000000000000000060448201526064015b60405180910390fd5b6003546040517f70a082310000000000000000000000000000000000000000000000000000000081523060048201526000916001600160a01b0316906370a0823190602401602060405180830381865afa1580156106e7573d6000803e3d6000fd5b505050506040513d601f19601f8201168201806040525081019061070b9190611381565b90506000811161075d5760405162461bcd60e51b815260206004820152600a60248201527f6e6f2062616c616e636500000000000000000000000000000000000000000000604482015260640161067c565b81600003610769578091505b600454600354610786916001600160a01b03918216911683610d0c565b60006040518060e0016040528061759563ffffffff16815260200160055481526020018481526020017f00000000000000000000000000000000000000000000000000000000000000006001547f00000000000000000000000000000000000000000000000000000000000000006107fe91906113b0565b61080890876113c3565b61081291906113da565b8152604080516020818101835260008083528185019290925282518082018452828152838501528251808201845282815260609094019390935281518083019092523480835292820152600454929350916001600160a01b03169063cbef2aa99084846108a67f9016d09d72d40fdae2fd8ceac6b6234c7706214fd39c1cd1e609a0528c199300546001600160a01b031690565b6040518563ffffffff1660e01b81526004016108c49392919061144c565b60006040518083038185885af11580156108e2573d6000803e3d6000fd5b50505050506040513d6000823e601f3d908101601f1916820160405261090b9190810190611665565b50506005546040805191825233602083015281018590527f2e04862e086f894a14bff207c8ef28b8c6f8b94055b80cb1e2fd27b950973591915060600160405180910390a150505061097c60017f9b779b17422d0df92223018b32b4d1fa46e071723d6817e2486d003becc55f0055565b50565b610987610ba6565b61099b6001600160a01b0384168284610db5565b505050565b60006109aa610ca9565b600082116109fa5760405162461bcd60e51b815260206004820152600e60248201527f696e76616c696420616d6f756e74000000000000000000000000000000000000604482015260640161067c565b600354610a12906001600160a01b0316333085610e29565b600054610a2783670de0b6b3a76400006113c3565b610a3191906113da565b6002546040517f774bd409000000000000000000000000000000000000000000000000000000008152336004820152602481018390529192506001600160a01b03169063774bd40990604401600060405180830381600087803b158015610a9757600080fd5b505af1158015610aab573d6000803e3d6000fd5b505060408051338152602081018690529081018490527f90890809c654f11d6e72a28fa60149770a0d11ec6c92319d6ceb2bb0a4ea1a159250606001905060405180910390a1610b1a60017f9b779b17422d0df92223018b32b4d1fa46e071723d6817e2486d003becc55f0055565b919050565b610b27610ba6565b6001600160a01b03919091166000908152600660205260409020805460ff1916911515919091179055565b610b5a610ba6565b6001600160a01b038116610b9d576040517f1e4fbdf70000000000000000000000000000000000000000000000000000000081526000600482015260240161067c565b61097c81610c1a565b33610bd87f9016d09d72d40fdae2fd8ceac6b6234c7706214fd39c1cd1e609a0528c199300546001600160a01b031690565b6001600160a01b03161461040c576040517f118cdaa700000000000000000000000000000000000000000000000000000000815233600482015260240161067c565b7f9016d09d72d40fdae2fd8ceac6b6234c7706214fd39c1cd1e609a0528c199300805473ffffffffffffffffffffffffffffffffffffffff1981166001600160a01b03848116918217845560405192169182907f8be0079c531659141344cd1fd0a4f28419497f9722a3daafe3b4186f6b6457e090600090a3505050565b610ca0610e62565b61097c81610ec9565b7f9b779b17422d0df92223018b32b4d1fa46e071723d6817e2486d003becc55f00805460011901610d06576040517f3ee5aeb500000000000000000000000000000000000000000000000000000000815260040160405180910390fd5b60029055565b6040517fdd62ed3e0000000000000000000000000000000000000000000000000000000081523060048201526001600160a01b0383811660248301526000919085169063dd62ed3e90604401602060405180830381865afa158015610d75573d6000803e3d6000fd5b505050506040513d601f19601f82011682018060405250810190610d999190611381565b9050610daf8484610daa8585611721565b610ed1565b50505050565b6040516001600160a01b0383811660248301526044820183905261099b91859182169063a9059cbb906064015b604051602081830303815290604052915060e01b6020820180517bffffffffffffffffffffffffffffffffffffffffffffffffffffffff8381831617835250505050610f8b565b6040516001600160a01b038481166024830152838116604483015260648201839052610daf9186918216906323b872dd90608401610de2565b7ff0c57e16840df040f15088dc2f81fe391c3923bec73e23a9662efc9c229c6a005468010000000000000000900460ff1661040c576040517fd7e6bcf800000000000000000000000000000000000000000000000000000000815260040160405180910390fd5b610b5a610e62565b604080516001600160a01b038416602482015260448082018490528251808303909101815260649091019091526020810180517bffffffffffffffffffffffffffffffffffffffffffffffffffffffff167f095ea7b300000000000000000000000000000000000000000000000000000000179052610f508482611007565b610daf576040516001600160a01b03848116602483015260006044830152610f8591869182169063095ea7b390606401610de2565b610daf84825b6000610fa06001600160a01b038416836110b1565b90508051600014158015610fc5575080806020019051810190610fc39190611734565b155b1561099b576040517f5274afe70000000000000000000000000000000000000000000000000000000081526001600160a01b038416600482015260240161067c565b6000806000846001600160a01b0316846040516110249190611751565b6000604051808303816000865af19150503d8060008114611061576040519150601f19603f3d011682016040523d82523d6000602084013e611066565b606091505b50915091508180156110905750805115806110905750808060200190518101906110909190611734565b80156110a657506000856001600160a01b03163b115b925050505b92915050565b60606110bf838360006110c6565b9392505050565b606081471015611104576040517fcd78605900000000000000000000000000000000000000000000000000000000815230600482015260240161067c565b600080856001600160a01b031684866040516111209190611751565b60006040518083038185875af1925050503d806000811461115d576040519150601f19603f3d011682016040523d82523d6000602084013e611162565b606091505b509150915061117286838361117c565b9695505050505050565b6060826111915761118c826111f1565b6110bf565b81511580156111a857506001600160a01b0384163b155b156111ea576040517f9996b3150000000000000000000000000000000000000000000000000000000081526001600160a01b038516600482015260240161067c565b50806110bf565b8051156112015780518082602001fd5b6040517f1425ea4200000000000000000000000000000000000000000000000000000000815260040160405180910390fd5b6001600160a01b038116811461097c57600080fd5b60006020828403121561125a57600080fd5b81356110bf81611233565b60006020828403121561127757600080fd5b5035919050565b600080600080600080600060e0888a03121561129957600080fd5b87356112a481611233565b965060208801356112b481611233565b955060408801356112c481611233565b94506060880135935060808801356112db81611233565b9699959850939692959460a0840135945060c09093013592915050565b60008060006060848603121561130d57600080fd5b833561131881611233565b925060208401359150604084013561132f81611233565b809150509250925092565b801515811461097c57600080fd5b6000806040838503121561135b57600080fd5b823561136681611233565b915060208301356113768161133a565b809150509250929050565b60006020828403121561139357600080fd5b5051919050565b634e487b7160e01b600052601160045260246000fd5b818103818111156110ab576110ab61139a565b80820281158282048414176110ab576110ab61139a565b6000826113f757634e487b7160e01b600052601260045260246000fd5b500490565b60005b838110156114175781810151838201526020016113ff565b50506000910152565b600081518084526114388160208601602086016113fc565b601f01601f19169290920160200192915050565b6080815263ffffffff8451166080820152602084015160a0820152604084015160c0820152606084015160e08201526000608085015160e0610100840152611498610160840182611420565b905060a0860151607f1980858403016101208601526114b78383611420565b925060c088015191508085840301610140860152506114d68282611420565b925050506114f1602083018580518252602090810151910152565b6001600160a01b0383166060830152949350505050565b634e487b7160e01b600052604160045260246000fd5b6040805190810167ffffffffffffffff8111828210171561154157611541611508565b60405290565b604051601f8201601f1916810167ffffffffffffffff8111828210171561157057611570611508565b604052919050565b60006040828403121561158a57600080fd5b61159261151e565b9050815181526020820151602082015292915050565b6000604082840312156115ba57600080fd5b6115c261151e565b9050815166ffffffffffffff811681146115db57600080fd5b815260208281015167ffffffffffffffff808211156115f957600080fd5b818501915085601f83011261160d57600080fd5b81518181111561161f5761161f611508565b611631601f8201601f19168501611547565b9150808252868482850101111561164757600080fd5b611656818584018686016113fc565b50808385015250505092915050565b600080600083850360e081121561167b57600080fd5b608081121561168957600080fd5b506040516060810167ffffffffffffffff82821081831117156116ae576116ae611508565b81604052865183526020870151915080821682146116cb57600080fd5b8160208401526116de8860408901611578565b60408401528295506116f38860808901611578565b945060c087015192508083111561170957600080fd5b5050611717868287016115a8565b9150509250925092565b808201808211156110ab576110ab61139a565b60006020828403121561174657600080fd5b81516110bf8161133a565b600082516117638184602087016113fc565b919091019291505056fea2646970667358221220616b6227276380e089bfaa8d02a70deae40cb461a8b2d9f04d198b246a5433eb64736f6c63430008150033",
  "devdoc": {
    "author": "maha.xyz",
    "details": "Tokens are sent to this contract via deposit, zai is minted for the user,          and funds are batched and bridged down to the L1 for depositing into the maha protocol.",
    "errors": {
      "AddressEmptyCode(address)": [
        {
          "details": "There's no code at `target` (it is not a contract)."
        }
      ],
      "AddressInsufficientBalance(address)": [
        {
          "details": "The ETH balance of the account is not enough to perform the operation."
        }
      ],
      "FailedInnerCall()": [
        {
          "details": "A call to an address target failed. The target may have reverted."
        }
      ],
      "InvalidInitialization()": [
        {
          "details": "The contract is already initialized."
        }
      ],
      "NotInitializing()": [
        {
          "details": "The contract is not initializing."
        }
      ],
      "OwnableInvalidOwner(address)": [
        {
          "details": "The owner is not a valid owner account. (eg. `address(0)`)"
        }
      ],
      "OwnableUnauthorizedAccount(address)": [
        {
          "details": "The caller account is not authorized to perform an operation."
        }
      ],
      "ReentrancyGuardReentrantCall()": [
        {
          "details": "Unauthorized reentrant call."
        }
      ],
      "SafeERC20FailedOperation(address)": [
        {
          "details": "An operation with an ERC20 token failed."
        }
      ]
    },
    "events": {
      "Initialized(uint64)": {
        "details": "Triggered when the contract has been initialized or reinitialized."
      }
    },
    "kind": "dev",
    "methods": {
      "owner()": {
        "details": "Returns the address of the current owner."
      },
      "renounceOwnership()": {
        "details": "Leaves the contract without owner. It will not be possible to call `onlyOwner` functions. Can only be called by the current owner. NOTE: Renouncing ownership will leave the contract without an owner, thereby disabling any functionality that is only available to the owner."
      },
      "transferOwnership(address)": {
        "details": "Transfers ownership of the contract to a new account (`newOwner`). Can only be called by the current owner."
      }
    },
    "title": "L2DepositCollateralL0 Contract",
    "version": 1
  },
  "userdoc": {
    "kind": "user",
    "methods": {
      "MAX_SLIPPAGE()": {
        "notice": "The maximum slippage allowed for the bridge"
      },
      "allowedBridgeSweepers(address)": {
        "notice": "The mapping of allowed addresses that can trigger the bridge function"
      },
      "bridgeTargetAddress()": {
        "notice": "The contract address where the bridge call should be sent on mainnet ETH"
      },
      "depositToken()": {
        "notice": "The deposit token address - this is what users will deposit to mint the OFT"
      },
      "oft()": {
        "notice": "The OFT token address"
      },
      "rate()": {
        "notice": "The rate at which the deposit token is converted to OFT"
      },
      "slippage()": {
        "notice": "The slippage allowed for the bridge"
      },
      "stargate()": {
        "notice": "The address of the stargate bridge"
      }
    },
    "notice": "Allows L2 minting of zai tokens in exchange for deposited assets",
    "version": 1
  },
  "storageLayout": {
    "storage": [
      {
        "astId": 2766,
        "contract": "contracts/periphery/restaking/layerzero/L2DepositCollateralL0.sol:L2DepositCollateralL0",
        "label": "rate",
        "offset": 0,
        "slot": "0",
        "type": "t_uint256"
      },
      {
        "astId": 2769,
        "contract": "contracts/periphery/restaking/layerzero/L2DepositCollateralL0.sol:L2DepositCollateralL0",
        "label": "slippage",
        "offset": 0,
        "slot": "1",
        "type": "t_uint256"
      },
      {
        "astId": 2777,
        "contract": "contracts/periphery/restaking/layerzero/L2DepositCollateralL0.sol:L2DepositCollateralL0",
        "label": "oft",
        "offset": 0,
        "slot": "2",
        "type": "t_contract(IStablecoinOFT)2689"
      },
      {
        "astId": 2781,
        "contract": "contracts/periphery/restaking/layerzero/L2DepositCollateralL0.sol:L2DepositCollateralL0",
        "label": "depositToken",
        "offset": 0,
        "slot": "3",
        "type": "t_contract(IERC20)2061"
      },
      {
        "astId": 2785,
        "contract": "contracts/periphery/restaking/layerzero/L2DepositCollateralL0.sol:L2DepositCollateralL0",
        "label": "stargate",
        "offset": 0,
        "slot": "4",
        "type": "t_contract(IStargate)2737"
      },
      {
        "astId": 2788,
        "contract": "contracts/periphery/restaking/layerzero/L2DepositCollateralL0.sol:L2DepositCollateralL0",
        "label": "bridgeTargetAddress",
        "offset": 0,
        "slot": "5",
        "type": "t_bytes32"
      },
      {
        "astId": 2793,
        "contract": "contracts/periphery/restaking/layerzero/L2DepositCollateralL0.sol:L2DepositCollateralL0",
        "label": "allowedBridgeSweepers",
        "offset": 0,
        "slot": "6",
        "type": "t_mapping(t_address,t_bool)"
      }
    ],
    "types": {
      "t_address": {
        "encoding": "inplace",
        "label": "address",
        "numberOfBytes": "20"
      },
      "t_bool": {
        "encoding": "inplace",
        "label": "bool",
        "numberOfBytes": "1"
      },
      "t_bytes32": {
        "encoding": "inplace",
        "label": "bytes32",
        "numberOfBytes": "32"
      },
      "t_contract(IERC20)2061": {
        "encoding": "inplace",
        "label": "contract IERC20",
        "numberOfBytes": "20"
      },
      "t_contract(IStablecoinOFT)2689": {
        "encoding": "inplace",
        "label": "contract IStablecoinOFT",
        "numberOfBytes": "20"
      },
      "t_contract(IStargate)2737": {
        "encoding": "inplace",
        "label": "contract IStargate",
        "numberOfBytes": "20"
      },
      "t_mapping(t_address,t_bool)": {
        "encoding": "mapping",
        "key": "t_address",
        "label": "mapping(address => bool)",
        "numberOfBytes": "32",
        "value": "t_bool"
      },
      "t_uint256": {
        "encoding": "inplace",
        "label": "uint256",
        "numberOfBytes": "32"
      }
    }
  }
}