{
  "address": "0x04831F84dE757444fB577245faC1D1D0d7AE12eb",
  "abi": [
    {
      "inputs": [
        {
          "internalType": "address",
          "name": "target",
          "type": "address"
        }
      ],
      "name": "AddressEmptyCode",
      "type": "error"
    },
    {
      "inputs": [
        {
          "internalType": "address",
          "name": "account",
          "type": "address"
        }
      ],
      "name": "AddressInsufficientBalance",
      "type": "error"
    },
    {
      "inputs": [],
      "name": "FailedInnerCall",
      "type": "error"
    },
    {
      "inputs": [],
      "name": "InsufficientOutputAmount",
      "type": "error"
    },
    {
      "inputs": [
        {
          "internalType": "uint256",
          "name": "bridgeFee",
          "type": "uint256"
        }
      ],
      "name": "InvalidBridgeFeeShare",
      "type": "error"
    },
    {
      "inputs": [],
      "name": "InvalidInitialization",
      "type": "error"
    },
    {
      "inputs": [
        {
          "internalType": "uint256",
          "name": "batchSize",
          "type": "uint256"
        }
      ],
      "name": "InvalidSweepBatchSize",
      "type": "error"
    },
    {
      "inputs": [],
      "name": "InvalidZeroInput",
      "type": "error"
    },
    {
      "inputs": [],
      "name": "InvalidZeroOutput",
      "type": "error"
    },
    {
      "inputs": [],
      "name": "NotInitializing",
      "type": "error"
    },
    {
      "inputs": [
        {
          "internalType": "address",
          "name": "owner",
          "type": "address"
        }
      ],
      "name": "OwnableInvalidOwner",
      "type": "error"
    },
    {
      "inputs": [
        {
          "internalType": "address",
          "name": "account",
          "type": "address"
        }
      ],
      "name": "OwnableUnauthorizedAccount",
      "type": "error"
    },
    {
      "inputs": [],
      "name": "ReentrancyGuardReentrantCall",
      "type": "error"
    },
    {
      "inputs": [
        {
          "internalType": "address",
          "name": "token",
          "type": "address"
        }
      ],
      "name": "SafeERC20FailedOperation",
      "type": "error"
    },
    {
      "inputs": [],
      "name": "UnauthorizedBridgeSweeper",
      "type": "error"
    },
    {
      "anonymous": false,
      "inputs": [
        {
          "indexed": false,
          "internalType": "uint256",
          "name": "oldBridgeFeeShare",
          "type": "uint256"
        },
        {
          "indexed": false,
          "internalType": "uint256",
          "name": "newBridgeFeeShare",
          "type": "uint256"
        }
      ],
      "name": "BridgeFeeShareUpdated",
      "type": "event"
    },
    {
      "anonymous": false,
      "inputs": [
        {
          "indexed": false,
          "internalType": "address",
          "name": "sweeper",
          "type": "address"
        },
        {
          "indexed": false,
          "internalType": "bool",
          "name": "allowed",
          "type": "bool"
        }
      ],
      "name": "BridgeSweeperAddressUpdated",
      "type": "event"
    },
    {
      "anonymous": false,
      "inputs": [
        {
          "indexed": false,
          "internalType": "uint32",
          "name": "destinationDomain",
          "type": "uint32"
        },
        {
          "indexed": false,
          "internalType": "address",
          "name": "destinationTarget",
          "type": "address"
        },
        {
          "indexed": false,
          "internalType": "address",
          "name": "delegate",
          "type": "address"
        },
        {
          "indexed": false,
          "internalType": "uint256",
          "name": "amount",
          "type": "uint256"
        }
      ],
      "name": "BridgeSwept",
      "type": "event"
    },
    {
      "anonymous": false,
      "inputs": [
        {
          "indexed": true,
          "internalType": "address",
          "name": "user",
          "type": "address"
        },
        {
          "indexed": false,
          "internalType": "uint256",
          "name": "amountIn",
          "type": "uint256"
        },
        {
          "indexed": false,
          "internalType": "uint256",
          "name": "amountOut",
          "type": "uint256"
        }
      ],
      "name": "Deposit",
      "type": "event"
    },
    {
      "anonymous": false,
      "inputs": [
        {
          "indexed": false,
          "internalType": "uint64",
          "name": "version",
          "type": "uint64"
        }
      ],
      "name": "Initialized",
      "type": "event"
    },
    {
      "anonymous": false,
      "inputs": [
        {
          "indexed": true,
          "internalType": "address",
          "name": "previousOwner",
          "type": "address"
        },
        {
          "indexed": true,
          "internalType": "address",
          "name": "newOwner",
          "type": "address"
        }
      ],
      "name": "OwnershipTransferred",
      "type": "event"
    },
    {
      "anonymous": false,
      "inputs": [
        {
          "indexed": false,
          "internalType": "uint256",
          "name": "newRate",
          "type": "uint256"
        },
        {
          "indexed": false,
          "internalType": "uint256",
          "name": "oldRate",
          "type": "uint256"
        }
      ],
      "name": "RateUpdated",
      "type": "event"
    },
    {
      "anonymous": false,
      "inputs": [
        {
          "indexed": false,
          "internalType": "uint256",
          "name": "oldSweepBatchSize",
          "type": "uint256"
        },
        {
          "indexed": false,
          "internalType": "uint256",
          "name": "newSweepBatchSize",
          "type": "uint256"
        }
      ],
      "name": "SweepBatchSizeUpdated",
      "type": "event"
    },
    {
      "anonymous": false,
      "inputs": [
        {
          "indexed": false,
          "internalType": "address",
          "name": "sweeper",
          "type": "address"
        },
        {
          "indexed": false,
          "internalType": "uint256",
          "name": "feeCollected",
          "type": "uint256"
        }
      ],
      "name": "SweeperBridgeFeeCollected",
      "type": "event"
    },
    {
      "inputs": [],
      "name": "EXPECTED_DECIMALS",
      "outputs": [
        {
          "internalType": "uint8",
          "name": "",
          "type": "uint8"
        }
      ],
      "stateMutability": "view",
      "type": "function"
    },
    {
      "inputs": [],
      "name": "FEE_BASIS",
      "outputs": [
        {
          "internalType": "uint32",
          "name": "",
          "type": "uint32"
        }
      ],
      "stateMutability": "view",
      "type": "function"
    },
    {
      "inputs": [
        {
          "internalType": "address",
          "name": "",
          "type": "address"
        }
      ],
      "name": "allowedBridgeSweepers",
      "outputs": [
        {
          "internalType": "bool",
          "name": "",
          "type": "bool"
        }
      ],
      "stateMutability": "view",
      "type": "function"
    },
    {
      "inputs": [],
      "name": "bridgeDestinationDomain",
      "outputs": [
        {
          "internalType": "uint32",
          "name": "",
          "type": "uint32"
        }
      ],
      "stateMutability": "view",
      "type": "function"
    },
    {
      "inputs": [],
      "name": "bridgeFeeCollected",
      "outputs": [
        {
          "internalType": "uint256",
          "name": "",
          "type": "uint256"
        }
      ],
      "stateMutability": "view",
      "type": "function"
    },
    {
      "inputs": [],
      "name": "bridgeFeeShare",
      "outputs": [
        {
          "internalType": "uint256",
          "name": "",
          "type": "uint256"
        }
      ],
      "stateMutability": "view",
      "type": "function"
    },
    {
      "inputs": [],
      "name": "bridgeRouterFeeBps",
      "outputs": [
        {
          "internalType": "uint256",
          "name": "",
          "type": "uint256"
        }
      ],
      "stateMutability": "view",
      "type": "function"
    },
    {
      "inputs": [],
      "name": "bridgeTargetAddress",
      "outputs": [
        {
          "internalType": "address",
          "name": "",
          "type": "address"
        }
      ],
      "stateMutability": "view",
      "type": "function"
    },
    {
      "inputs": [],
      "name": "collateralToken",
      "outputs": [
        {
          "internalType": "contract IERC20",
          "name": "",
          "type": "address"
        }
      ],
      "stateMutability": "view",
      "type": "function"
    },
    {
      "inputs": [],
      "name": "connext",
      "outputs": [
        {
          "internalType": "contract IConnext",
          "name": "",
          "type": "address"
        }
      ],
      "stateMutability": "view",
      "type": "function"
    },
    {
      "inputs": [
        {
          "internalType": "uint256",
          "name": "_amountIn",
          "type": "uint256"
        },
        {
          "internalType": "uint256",
          "name": "_minOut",
          "type": "uint256"
        },
        {
          "internalType": "uint256",
          "name": "_deadline",
          "type": "uint256"
        }
      ],
      "name": "deposit",
      "outputs": [
        {
          "internalType": "uint256",
          "name": "",
          "type": "uint256"
        }
      ],
      "stateMutability": "nonpayable",
      "type": "function"
    },
    {
      "inputs": [],
      "name": "depositToken",
      "outputs": [
        {
          "internalType": "contract IERC20",
          "name": "",
          "type": "address"
        }
      ],
      "stateMutability": "view",
      "type": "function"
    },
    {
      "inputs": [
        {
          "internalType": "uint256",
          "name": "_amountIn",
          "type": "uint256"
        }
      ],
      "name": "getBridgeFeeShare",
      "outputs": [
        {
          "internalType": "uint256",
          "name": "",
          "type": "uint256"
        }
      ],
      "stateMutability": "view",
      "type": "function"
    },
    {
      "inputs": [
        {
          "internalType": "contract IERC20",
          "name": "_xZAI",
          "type": "address"
        },
        {
          "internalType": "contract IERC20",
          "name": "_depositToken",
          "type": "address"
        },
        {
          "internalType": "contract IERC20",
          "name": "_collateralToken",
          "type": "address"
        },
        {
          "internalType": "contract IConnext",
          "name": "_connext",
          "type": "address"
        },
        {
          "internalType": "bytes32",
          "name": "_swapKey",
          "type": "bytes32"
        },
        {
          "internalType": "uint32",
          "name": "_bridgeDestinationDomain",
          "type": "uint32"
        },
        {
          "internalType": "address",
          "name": "_bridgeTargetAddress",
          "type": "address"
        },
        {
          "internalType": "address",
          "name": "_owner",
          "type": "address"
        },
        {
          "internalType": "uint256",
          "name": "_rate",
          "type": "uint256"
        },
        {
          "internalType": "uint256",
          "name": "_sweepBatchSize",
          "type": "uint256"
        }
      ],
      "name": "initialize",
      "outputs": [],
      "stateMutability": "nonpayable",
      "type": "function"
    },
    {
      "inputs": [],
      "name": "owner",
      "outputs": [
        {
          "internalType": "address",
          "name": "",
          "type": "address"
        }
      ],
      "stateMutability": "view",
      "type": "function"
    },
    {
      "inputs": [],
      "name": "rate",
      "outputs": [
        {
          "internalType": "uint256",
          "name": "",
          "type": "uint256"
        }
      ],
      "stateMutability": "view",
      "type": "function"
    },
    {
      "inputs": [
        {
          "internalType": "address",
          "name": "_token",
          "type": "address"
        },
        {
          "internalType": "uint256",
          "name": "_amount",
          "type": "uint256"
        },
        {
          "internalType": "address",
          "name": "_to",
          "type": "address"
        }
      ],
      "name": "recoverERC20",
      "outputs": [],
      "stateMutability": "nonpayable",
      "type": "function"
    },
    {
      "inputs": [
        {
          "internalType": "uint256",
          "name": "_amount",
          "type": "uint256"
        },
        {
          "internalType": "address",
          "name": "_to",
          "type": "address"
        }
      ],
      "name": "recoverNative",
      "outputs": [],
      "stateMutability": "nonpayable",
      "type": "function"
    },
    {
      "inputs": [],
      "name": "renounceOwnership",
      "outputs": [],
      "stateMutability": "nonpayable",
      "type": "function"
    },
    {
      "inputs": [
        {
          "internalType": "address",
          "name": "_sweeper",
          "type": "address"
        },
        {
          "internalType": "bool",
          "name": "_allowed",
          "type": "bool"
        }
      ],
      "name": "setAllowedBridgeSweeper",
      "outputs": [],
      "stateMutability": "nonpayable",
      "type": "function"
    },
    {
      "inputs": [
        {
          "internalType": "uint256",
          "name": "_rate",
          "type": "uint256"
        }
      ],
      "name": "setRate",
      "outputs": [],
      "stateMutability": "nonpayable",
      "type": "function"
    },
    {
      "inputs": [],
      "name": "swapKey",
      "outputs": [
        {
          "internalType": "bytes32",
          "name": "",
          "type": "bytes32"
        }
      ],
      "stateMutability": "view",
      "type": "function"
    },
    {
      "inputs": [],
      "name": "sweep",
      "outputs": [],
      "stateMutability": "payable",
      "type": "function"
    },
    {
      "inputs": [],
      "name": "sweepBatchSize",
      "outputs": [
        {
          "internalType": "uint256",
          "name": "",
          "type": "uint256"
        }
      ],
      "stateMutability": "view",
      "type": "function"
    },
    {
      "inputs": [
        {
          "internalType": "address",
          "name": "newOwner",
          "type": "address"
        }
      ],
      "name": "transferOwnership",
      "outputs": [],
      "stateMutability": "nonpayable",
      "type": "function"
    },
    {
      "inputs": [
        {
          "internalType": "uint256",
          "name": "_newShare",
          "type": "uint256"
        }
      ],
      "name": "updateBridgeFeeShare",
      "outputs": [],
      "stateMutability": "nonpayable",
      "type": "function"
    },
    {
      "inputs": [
        {
          "internalType": "uint256",
          "name": "_newBatchSize",
          "type": "uint256"
        }
      ],
      "name": "updateSweepBatchSize",
      "outputs": [],
      "stateMutability": "nonpayable",
      "type": "function"
    },
    {
      "inputs": [],
      "name": "xZAI",
      "outputs": [
        {
          "internalType": "contract IERC20",
          "name": "",
          "type": "address"
        }
      ],
      "stateMutability": "view",
      "type": "function"
    }
  ],
  "transactionHash": "0xe23fa872655def7439b52ee6370a686d7cadc9e721434d7c46afda3f7a32479e",
  "args": [],
  "numDeployments": 1,
  "solcInputHash": "c4fb4aaec74c18f2bebce380202e5f46",
  "bytecode": "0x608060405234801561001057600080fd5b50611b77806100206000396000f3fe6080604052600436106101b65760003560e01c80638da5cb5b116100ec578063cd3a6c1b1161008a578063de4b054811610064578063de4b0548146104dd578063e2d50bdb146104fd578063ec66b4b81461051d578063f2fde38b1461053d57600080fd5b8063cd3a6c1b14610467578063d327d91414610487578063da5feae8146104c757600080fd5b8063b4521453116100c6578063b4521453146103f4578063b51609b414610411578063c24de53414610431578063c89039c51461044757600080fd5b80638da5cb5b146103815780639c3fef2e146103be578063b2016bd4146103d457600080fd5b806334fcf437116101595780636976d357116101335780636976d3571461030b578063715018a6146103215780637f5a3b59146103365780638686ebcc1461035657600080fd5b806334fcf437146102c357806335faa416146102e357806346025067146102eb57600080fd5b806319ddc3bb1161019557806319ddc3bb146102375780631d97693914610277578063227dc0a6146102975780632c4e722e146102ad57600080fd5b8062aeef8a146101bb5780630fb5b166146101ee5780631404969814610210575b600080fd5b3480156101c757600080fd5b506101db6101d63660046117f1565b61055d565b6040519081526020015b60405180910390f35b3480156101fa57600080fd5b5061020e610209366004611842565b6105dd565b005b34801561021c57600080fd5b50610225601281565b60405160ff90911681526020016101e5565b34801561024357600080fd5b5060075461025f9064010000000090046001600160a01b031681565b6040516001600160a01b0390911681526020016101e5565b34801561028357600080fd5b5060015461025f906001600160a01b031681565b3480156102a357600080fd5b506101db60065481565b3480156102b957600080fd5b506101db60005481565b3480156102cf57600080fd5b5061020e6102de366004611872565b610620565b61020e610669565b3480156102f757600080fd5b506101db610306366004611872565b6108ec565b34801561031757600080fd5b506101db600a5481565b34801561032d57600080fd5b5061020e61092c565b34801561034257600080fd5b5061020e61035136600461188b565b61093e565b34801561036257600080fd5b5061036c61271081565b60405163ffffffff90911681526020016101e5565b34801561038d57600080fd5b507f9016d09d72d40fdae2fd8ceac6b6234c7706214fd39c1cd1e609a0528c199300546001600160a01b031661025f565b3480156103ca57600080fd5b506101db60055481565b3480156103e057600080fd5b5060035461025f906001600160a01b031681565b34801561040057600080fd5b5060075461036c9063ffffffff1681565b34801561041d57600080fd5b5061020e61042c366004611945565b610c0d565b34801561043d57600080fd5b506101db60095481565b34801561045357600080fd5b5060025461025f906001600160a01b031681565b34801561047357600080fd5b5061020e610482366004611872565b610c29565b34801561049357600080fd5b506104b76104a2366004611987565b60086020526000908152604090205460ff1681565b60405190151581526020016101e5565b3480156104d357600080fd5b506101db600b5481565b3480156104e957600080fd5b5060045461025f906001600160a01b031681565b34801561050957600080fd5b5061020e610518366004611872565b610cb7565b34801561052957600080fd5b5061020e6105383660046119b2565b610d3e565b34801561054957600080fd5b5061020e610558366004611987565b610daa565b6000610567610e01565b836000036105885760405163862a606760e01b815260040160405180910390fd5b6002546105a0906001600160a01b0316333087610e64565b6105ab848484610ee6565b90506105d660017f9b779b17422d0df92223018b32b4d1fa46e071723d6817e2486d003becc55f0055565b9392505050565b6105e5611065565b6040516001600160a01b0382169083156108fc029084906000818181858888f1935050505015801561061b573d6000803e3d6000fd5b505050565b610628611065565b60005460408051918252602082018390527fb38780ddde1f073d91c150de2696f3f7085883648ba21cc5ef01029cb21d1916910160405180910390a1600055565b610671610e01565b3360009081526008602052604090205460ff166106ba576040517f3071e39800000000000000000000000000000000000000000000000000000000815260040160405180910390fd5b6003546040517f70a082310000000000000000000000000000000000000000000000000000000081523060048201526000916001600160a01b0316906370a0823190602401602060405180830381865afa15801561071c573d6000803e3d6000fd5b505050506040513d601f19601f8201168201806040525081019061074091906119e0565b90508060000361076357604051637c68a38760e11b815260040160405180910390fd5b600454600354610780916001600160a01b039182169116836110d9565b60008160405160200161079591815260200190565b60408051601f1981840301815290829052600480546007546003547f8aac16ba0000000000000000000000000000000000000000000000000000000086529395506001600160a01b0391821694638aac16ba9434946108139463ffffffff851694640100000000900481169392169133918b916000918c9101611a1d565b60206040518083038185885af1158015610831573d6000803e3d6000fd5b50505050506040513d601f19601f8201168201806040525081019061085691906119e0565b5061085f61117c565b6007546040805163ffffffff831681526401000000009092046001600160a01b031660208301523390820152606081018390527fd59481003d0f413b61453e5385db7c29ec60c845da5143bccd88741ef8fc80bb9060800160405180910390a150506108ea60017f9b779b17422d0df92223018b32b4d1fa46e071723d6817e2486d003becc55f0055565b565b6000600a5482101561091957600954612710906109099084611aa9565b6109139190611ac0565b92915050565b600954600a546127109161090991611aa9565b610934611065565b6108ea600061123d565b7ff0c57e16840df040f15088dc2f81fe391c3923bec73e23a9662efc9c229c6a00805468010000000000000000810460ff16159067ffffffffffffffff166000811580156109895750825b905060008267ffffffffffffffff1660011480156109a65750303b155b9050811580156109b4575080155b156109eb576040517ff92ee8a900000000000000000000000000000000000000000000000000000000815260040160405180910390fd5b845467ffffffffffffffff191660011785558315610a1f57845468ff00000000000000001916680100000000000000001785555b610a28886112c6565b6001600160a01b038f161580610a4557506001600160a01b038e16155b80610a5757506001600160a01b038d16155b80610a6957506001600160a01b038c16155b80610a78575063ffffffff8a16155b80610a8a57506001600160a01b038916155b15610aa85760405163862a606760e01b815260040160405180910390fd5b8e600160006101000a8154816001600160a01b0302191690836001600160a01b031602179055508d600260006101000a8154816001600160a01b0302191690836001600160a01b031602179055508c600360006101000a8154816001600160a01b0302191690836001600160a01b031602179055508b600460006101000a8154816001600160a01b0302191690836001600160a01b031602179055508a600581905550600560068190555089600760006101000a81548163ffffffff021916908363ffffffff16021790555088600760046101000a8154816001600160a01b0302191690836001600160a01b0316021790555086600081905550600560098190555085600a819055508315610bfc57845468ff000000000000000019168555604051600181527fc7f505b2f371ae2175ee4913f4499e1f2633a7b5936321eed1cdaeb6115181d29060200160405180910390a15b505050505050505050505050505050565b610c15611065565b61061b6001600160a01b03841682846112d7565b610c31611065565b620f4240811015610c76576040517fe1612813000000000000000000000000000000000000000000000000000000008152600481018290526024015b60405180910390fd5b600a5460408051918252602082018390527f637c5126c97274794a6fea58b3806e566782fd7cce9ea7fcfce67e0ac9df5d28910160405180910390a1600a55565b610cbf611065565b6064811115610cfd576040517f587a70c800000000000000000000000000000000000000000000000000000000815260048101829052602401610c6d565b60095460408051918252602082018390527f079f42df2569d6e6cd52e9b9dbd84ad9b974146635b4ca662d5dcd8578e0e9eb910160405180910390a1600955565b610d46611065565b6001600160a01b038216600081815260086020908152604091829020805460ff19168515159081179091558251938452908301527f1b405df331b4fc1e3490c26e4d05ddb58025026dade18cbd64908bc508b9e0c891015b60405180910390a15050565b610db2611065565b6001600160a01b038116610df5576040517f1e4fbdf700000000000000000000000000000000000000000000000000000000815260006004820152602401610c6d565b610dfe8161123d565b50565b7f9b779b17422d0df92223018b32b4d1fa46e071723d6817e2486d003becc55f00805460011901610e5e576040517f3ee5aeb500000000000000000000000000000000000000000000000000000000815260040160405180910390fd5b60029055565b6040516001600160a01b038481166024830152838116604483015260648201839052610ee09186918216906323b872dd906084015b604051602081830303815290604052915060e01b6020820180517bffffffffffffffffffffffffffffffffffffffffffffffffffffffff8381831617835250505050611308565b50505050565b600080610ef2856108ec565b9050610efe8186611ae2565b945080600b6000828254610f129190611af5565b9091555060009050610f248685611384565b905080600003610f4757604051637c68a38760e11b815260040160405180910390fd5b60008054610f5d83670de0b6b3a7640000611aa9565b610f679190611ac0565b905085811015610fa3576040517f42301c2300000000000000000000000000000000000000000000000000000000815260040160405180910390fd5b6001546040517f40c10f19000000000000000000000000000000000000000000000000000000008152336004820152602481018390526001600160a01b03909116906340c10f1990604401600060405180830381600087803b15801561100857600080fd5b505af115801561101c573d6000803e3d6000fd5b5050604080518a8152602081018590523393507f90890809c654f11d6e72a28fa60149770a0d11ec6c92319d6ceb2bb0a4ea1a1592500160405180910390a29695505050505050565b336110977f9016d09d72d40fdae2fd8ceac6b6234c7706214fd39c1cd1e609a0528c199300546001600160a01b031690565b6001600160a01b0316146108ea576040517f118cdaa7000000000000000000000000000000000000000000000000000000008152336004820152602401610c6d565b6040517fdd62ed3e0000000000000000000000000000000000000000000000000000000081523060048201526001600160a01b0383811660248301526000919085169063dd62ed3e90604401602060405180830381865afa158015611142573d6000803e3d6000fd5b505050506040513d601f19601f8201168201806040525081019061116691906119e0565b9050610ee084846111778585611af5565b6114a1565b600b80546000909155466111cd6111ba7f9016d09d72d40fdae2fd8ceac6b6234c7706214fd39c1cd1e609a0528c199300546001600160a01b031690565b6002546001600160a01b031690846112d7565b7fca03b891f4bea499accf537052ad4ff8b6106e2208bfb51bd3b1222d51f9c59b61121f7f9016d09d72d40fdae2fd8ceac6b6234c7706214fd39c1cd1e609a0528c199300546001600160a01b031690565b604080516001600160a01b0390921682526020820185905201610d9e565b7f9016d09d72d40fdae2fd8ceac6b6234c7706214fd39c1cd1e609a0528c19930080547fffffffffffffffffffffffff000000000000000000000000000000000000000081166001600160a01b03848116918217845560405192169182907f8be0079c531659141344cd1fd0a4f28419497f9722a3daafe3b4186f6b6457e090600090a3505050565b6112ce61155f565b610dfe816115c6565b6040516001600160a01b0383811660248301526044820183905261061b91859182169063a9059cbb90606401610e99565b600061131d6001600160a01b038416836115ce565b905080516000141580156113425750808060200190518101906113409190611b08565b155b1561061b576040517f5274afe70000000000000000000000000000000000000000000000000000000081526001600160a01b0384166004820152602401610c6d565b6004546002546000916113a4916001600160a01b039081169116856110d9565b600480546005546002546003546040517f80b297e800000000000000000000000000000000000000000000000000000000815294850192909252602484018790526001600160a01b039081166044850152908116606484015260006084840181905260a4840186905292839291909116906380b297e89060c4016020604051808303816000875af115801561143d573d6000803e3d6000fd5b505050506040513d601f19601f8201168201806040525081019061146191906119e0565b600654909150156114995760006127106006548361147f9190611aa9565b6114899190611ac0565b90506114958183611ae2565b9150505b949350505050565b604080516001600160a01b038416602482015260448082018490528251808303909101815260649091019091526020810180517bffffffffffffffffffffffffffffffffffffffffffffffffffffffff167f095ea7b30000000000000000000000000000000000000000000000000000000017905261152084826115dc565b610ee0576040516001600160a01b0384811660248301526000604483015261155591869182169063095ea7b390606401610e99565b610ee08482611308565b7ff0c57e16840df040f15088dc2f81fe391c3923bec73e23a9662efc9c229c6a005468010000000000000000900460ff166108ea576040517fd7e6bcf800000000000000000000000000000000000000000000000000000000815260040160405180910390fd5b610db261155f565b60606105d683836000611684565b6000806000846001600160a01b0316846040516115f99190611b25565b6000604051808303816000865af19150503d8060008114611636576040519150601f19603f3d011682016040523d82523d6000602084013e61163b565b606091505b50915091508180156116655750805115806116655750808060200190518101906116659190611b08565b801561167b57506000856001600160a01b03163b115b95945050505050565b6060814710156116c2576040517fcd786059000000000000000000000000000000000000000000000000000000008152306004820152602401610c6d565b600080856001600160a01b031684866040516116de9190611b25565b60006040518083038185875af1925050503d806000811461171b576040519150601f19603f3d011682016040523d82523d6000602084013e611720565b606091505b509150915061173086838361173a565b9695505050505050565b60608261174f5761174a826117af565b6105d6565b815115801561176657506001600160a01b0384163b155b156117a8576040517f9996b3150000000000000000000000000000000000000000000000000000000081526001600160a01b0385166004820152602401610c6d565b50806105d6565b8051156117bf5780518082602001fd5b6040517f1425ea4200000000000000000000000000000000000000000000000000000000815260040160405180910390fd5b60008060006060848603121561180657600080fd5b505081359360208301359350604090920135919050565b6001600160a01b0381168114610dfe57600080fd5b803561183d8161181d565b919050565b6000806040838503121561185557600080fd5b8235915060208301356118678161181d565b809150509250929050565b60006020828403121561188457600080fd5b5035919050565b6000806000806000806000806000806101408b8d0312156118ab57600080fd5b8a356118b68161181d565b995060208b01356118c68161181d565b985060408b01356118d68161181d565b975060608b01356118e68161181d565b965060808b0135955060a08b013563ffffffff8116811461190657600080fd5b945060c08b01356119168161181d565b935061192460e08c01611832565b92506101008b013591506101208b013590509295989b9194979a5092959850565b60008060006060848603121561195a57600080fd5b83356119658161181d565b925060208401359150604084013561197c8161181d565b809150509250925092565b60006020828403121561199957600080fd5b81356105d68161181d565b8015158114610dfe57600080fd5b600080604083850312156119c557600080fd5b82356119d08161181d565b91506020830135611867816119a4565b6000602082840312156119f257600080fd5b5051919050565b60005b83811015611a145781810151838201526020016119fc565b50506000910152565b63ffffffff8816815260006001600160a01b03808916602084015280881660408401528087166060840152508460808301528360a083015260e060c083015282518060e0840152610100611a7782828601602088016119f9565b80601f19601f8401168501019250505098975050505050505050565b634e487b7160e01b600052601160045260246000fd5b808202811582820484141761091357610913611a93565b600082611add57634e487b7160e01b600052601260045260246000fd5b500490565b8181038181111561091357610913611a93565b8082018082111561091357610913611a93565b600060208284031215611b1a57600080fd5b81516105d6816119a4565b60008251611b378184602087016119f9565b919091019291505056fea2646970667358221220178e15d976387da821c3ef8338e5f5d2c97daceb515d16ea6393408fd38fd08364736f6c63430008150033",
  "devdoc": {
    "author": "maha.xyz",
    "details": "Tokens are sent to this contract via deposit, xZAI is minted for the user,          and funds are batched and bridged down to the L1 for depositing into the maha protocol.          Any ZAI minted on the L1 will be locked in the lockbox for unwrapping at a later time with xZAI.",
    "errors": {
      "AddressEmptyCode(address)": [
        {
          "details": "There's no code at `target` (it is not a contract)."
        }
      ],
      "AddressInsufficientBalance(address)": [
        {
          "details": "The ETH balance of the account is not enough to perform the operation."
        }
      ],
      "FailedInnerCall()": [
        {
          "details": "A call to an address target failed. The target may have reverted."
        }
      ],
      "InsufficientOutputAmount()": [
        {
          "details": "Error when trade does not meet minimum output amount"
        }
      ],
      "InvalidBridgeFeeShare(uint256)": [
        {
          "details": "Error for invalid bridge fee share configuration"
        }
      ],
      "InvalidInitialization()": [
        {
          "details": "The contract is already initialized."
        }
      ],
      "InvalidSweepBatchSize(uint256)": [
        {
          "details": "Error for invalid sweep batch size"
        }
      ],
      "InvalidZeroInput()": [
        {
          "details": "Error for 0x0 address inputs"
        }
      ],
      "InvalidZeroOutput()": [
        {
          "details": "error when function returns 0 amount"
        }
      ],
      "NotInitializing()": [
        {
          "details": "The contract is not initializing."
        }
      ],
      "OwnableInvalidOwner(address)": [
        {
          "details": "The owner is not a valid owner account. (eg. `address(0)`)"
        }
      ],
      "OwnableUnauthorizedAccount(address)": [
        {
          "details": "The caller account is not authorized to perform an operation."
        }
      ],
      "ReentrancyGuardReentrantCall()": [
        {
          "details": "Unauthorized reentrant call."
        }
      ],
      "SafeERC20FailedOperation(address)": [
        {
          "details": "An operation with an ERC20 token failed."
        }
      ],
      "UnauthorizedBridgeSweeper()": [
        {
          "details": "Error when an unauthorized address tries to call the bridge function on the L2"
        }
      ]
    },
    "events": {
      "Initialized(uint64)": {
        "details": "Triggered when the contract has been initialized or reinitialized."
      }
    },
    "kind": "dev",
    "methods": {
      "deposit(uint256,uint256,uint256)": {
        "details": "This funcion allows anyone to call and deposit collateral for xZAI          ZAI will be immediately minted based on the current price          Funds will be held until sweep() is called.          User calling this function should first approve the tokens to be pulled via transferFrom",
        "params": {
          "_amountIn": "Amount of tokens to deposit",
          "_deadline": "latest timestamp to accept this transaction",
          "_minOut": "Minimum number of xZAI to accept to ensure slippage minimums"
        },
        "returns": {
          "_0": "uint256  Amount of xZAI minted to calling account"
        }
      },
      "getBridgeFeeShare(uint256)": {
        "params": {
          "_amountIn": "deposit amount in terms of ETH"
        }
      },
      "initialize(address,address,address,address,bytes32,uint32,address,address,uint256,uint256)": {
        "details": "All tokens are expected to have 18 decimals",
        "params": {
          "_collateralToken": "nextUSDC on L2",
          "_connext": "Connext contract",
          "_depositToken": "WETH on L2",
          "_swapKey": "Swap key for the connext contract swap from WETH to nextUSDC",
          "_xZAI": "L2 ZAI token"
        }
      },
      "owner()": {
        "details": "Returns the address of the current owner."
      },
      "recoverERC20(address,uint256,address)": {
        "details": "Restricted to be called by the Owner only.",
        "params": {
          "_amount": "amount of ERC20 token",
          "_to": "destination address",
          "_token": "address of the ERC20 token"
        }
      },
      "recoverNative(uint256,address)": {
        "details": "Restricted to be called by the Owner only.",
        "params": {
          "_amount": "amount of native asset",
          "_to": "destination address"
        }
      },
      "renounceOwnership()": {
        "details": "Leaves the contract without owner. It will not be possible to call `onlyOwner` functions. Can only be called by the current owner. NOTE: Renouncing ownership will leave the contract without an owner, thereby disabling any functionality that is only available to the owner."
      },
      "setAllowedBridgeSweeper(address,bool)": {
        "params": {
          "_allowed": "bool to allow or disallow the address",
          "_sweeper": "Address of the proposed sweeping account"
        }
      },
      "setRate(uint256)": {
        "params": {
          "_rate": "The new rate for the deposit"
        }
      },
      "sweep()": {
        "details": "The L1 contract will unwrap, deposit in maha, and lock up the ZAI in the lockbox on L1          This function should only be callable by permissioned accounts          The caller will estimate and pay the gas for the bridge call"
      },
      "transferOwnership(address)": {
        "details": "Transfers ownership of the contract to a new account (`newOwner`). Can only be called by the current owner."
      },
      "updateBridgeFeeShare(uint256)": {
        "details": "This should be a permissioned call (onlyOnwer)",
        "params": {
          "_newShare": "new Bridge fee share in basis points where 100 basis points = 1%"
        }
      },
      "updateSweepBatchSize(uint256)": {
        "details": "This should be a permissioned call (onlyOwner)",
        "params": {
          "_newBatchSize": "new batch size for sweeping"
        }
      }
    },
    "stateVariables": {
      "EXPECTED_DECIMALS": {
        "details": "- This contract expects all tokens to have 18 decimals for pricing"
      },
      "FEE_BASIS": {
        "details": "- Fee basis point, 100 basis point = 1 %"
      }
    },
    "title": "L2DepositCollateral Contract",
    "version": 1
  },
  "userdoc": {
    "kind": "user",
    "methods": {
      "allowedBridgeSweepers(address)": {
        "notice": "The mapping of allowed addresses that can trigger the bridge function"
      },
      "bridgeDestinationDomain()": {
        "notice": "The bridge destination domain - mainnet ETH connext domain"
      },
      "bridgeRouterFeeBps()": {
        "notice": "The bridge router fee basis points - 100 basis points = 1%"
      },
      "bridgeTargetAddress()": {
        "notice": "The contract address where the bridge call should be sent on mainnet ETH"
      },
      "collateralToken()": {
        "notice": "The collateral token address - this is what the deposit token will be swapped into and bridged to L1"
      },
      "connext()": {
        "notice": "The address of the main Connext contract"
      },
      "deposit(uint256,uint256,uint256)": {
        "notice": "Accepts deposit for the user in depositToken and mints xZAI"
      },
      "depositToken()": {
        "notice": "The deposit token address - this is what users will deposit to mint xZAI"
      },
      "getBridgeFeeShare(uint256)": {
        "notice": "Function returns bridge fee share for deposit"
      },
      "initialize(address,address,address,address,bytes32,uint32,address,address,uint256,uint256)": {
        "notice": "Initializes the contract with initial vars"
      },
      "recoverERC20(address,uint256,address)": {
        "notice": "Sweeps accidental ERC20 value sent to the contract"
      },
      "recoverNative(uint256,address)": {
        "notice": "Sweeps accidental ETH value sent to the contract"
      },
      "setAllowedBridgeSweeper(address,bool)": {
        "notice": "Allows the owner to set addresses that are allowed to call the bridge() function"
      },
      "setRate(uint256)": {
        "notice": "This function updates the rate for the deposit"
      },
      "swapKey()": {
        "notice": "The swap ID for the connext token swap"
      },
      "sweep()": {
        "notice": "This function will take the balance of nextUSDC in the contract and bridge it down to the L1"
      },
      "updateBridgeFeeShare(uint256)": {
        "notice": "This function updates the BridgeFeeShare for depositors (must be <= 1% i.e. 100 bps)"
      },
      "updateSweepBatchSize(uint256)": {
        "notice": "This function updates the Sweep Batch Size"
      },
      "xZAI()": {
        "notice": "The xZAI token address"
      }
    },
    "notice": "Allows L2 minting of xZAI tokens in exchange for deposited assets",
    "version": 1
  },
  "storageLayout": {
    "storage": [
      {
        "astId": 31223,
        "contract": "contracts/periphery/restaking/connext/L2DepositCollateral.sol:L2DepositCollateral",
        "label": "rate",
        "offset": 0,
        "slot": "0",
        "type": "t_uint256"
      },
      {
        "astId": 31227,
        "contract": "contracts/periphery/restaking/connext/L2DepositCollateral.sol:L2DepositCollateral",
        "label": "xZAI",
        "offset": 0,
        "slot": "1",
        "type": "t_contract(IERC20)10535"
      },
      {
        "astId": 31231,
        "contract": "contracts/periphery/restaking/connext/L2DepositCollateral.sol:L2DepositCollateral",
        "label": "depositToken",
        "offset": 0,
        "slot": "2",
        "type": "t_contract(IERC20)10535"
      },
      {
        "astId": 31235,
        "contract": "contracts/periphery/restaking/connext/L2DepositCollateral.sol:L2DepositCollateral",
        "label": "collateralToken",
        "offset": 0,
        "slot": "3",
        "type": "t_contract(IERC20)10535"
      },
      {
        "astId": 31239,
        "contract": "contracts/periphery/restaking/connext/L2DepositCollateral.sol:L2DepositCollateral",
        "label": "connext",
        "offset": 0,
        "slot": "4",
        "type": "t_contract(IConnext)28483"
      },
      {
        "astId": 31242,
        "contract": "contracts/periphery/restaking/connext/L2DepositCollateral.sol:L2DepositCollateral",
        "label": "swapKey",
        "offset": 0,
        "slot": "5",
        "type": "t_bytes32"
      },
      {
        "astId": 31245,
        "contract": "contracts/periphery/restaking/connext/L2DepositCollateral.sol:L2DepositCollateral",
        "label": "bridgeRouterFeeBps",
        "offset": 0,
        "slot": "6",
        "type": "t_uint256"
      },
      {
        "astId": 31248,
        "contract": "contracts/periphery/restaking/connext/L2DepositCollateral.sol:L2DepositCollateral",
        "label": "bridgeDestinationDomain",
        "offset": 0,
        "slot": "7",
        "type": "t_uint32"
      },
      {
        "astId": 31251,
        "contract": "contracts/periphery/restaking/connext/L2DepositCollateral.sol:L2DepositCollateral",
        "label": "bridgeTargetAddress",
        "offset": 4,
        "slot": "7",
        "type": "t_address"
      },
      {
        "astId": 31256,
        "contract": "contracts/periphery/restaking/connext/L2DepositCollateral.sol:L2DepositCollateral",
        "label": "allowedBridgeSweepers",
        "offset": 0,
        "slot": "8",
        "type": "t_mapping(t_address,t_bool)"
      },
      {
        "astId": 31266,
        "contract": "contracts/periphery/restaking/connext/L2DepositCollateral.sol:L2DepositCollateral",
        "label": "bridgeFeeShare",
        "offset": 0,
        "slot": "9",
        "type": "t_uint256"
      },
      {
        "astId": 31268,
        "contract": "contracts/periphery/restaking/connext/L2DepositCollateral.sol:L2DepositCollateral",
        "label": "sweepBatchSize",
        "offset": 0,
        "slot": "10",
        "type": "t_uint256"
      },
      {
        "astId": 31270,
        "contract": "contracts/periphery/restaking/connext/L2DepositCollateral.sol:L2DepositCollateral",
        "label": "bridgeFeeCollected",
        "offset": 0,
        "slot": "11",
        "type": "t_uint256"
      }
    ],
    "types": {
      "t_address": {
        "encoding": "inplace",
        "label": "address",
        "numberOfBytes": "20"
      },
      "t_bool": {
        "encoding": "inplace",
        "label": "bool",
        "numberOfBytes": "1"
      },
      "t_bytes32": {
        "encoding": "inplace",
        "label": "bytes32",
        "numberOfBytes": "32"
      },
      "t_contract(IConnext)28483": {
        "encoding": "inplace",
        "label": "contract IConnext",
        "numberOfBytes": "20"
      },
      "t_contract(IERC20)10535": {
        "encoding": "inplace",
        "label": "contract IERC20",
        "numberOfBytes": "20"
      },
      "t_mapping(t_address,t_bool)": {
        "encoding": "mapping",
        "key": "t_address",
        "label": "mapping(address => bool)",
        "numberOfBytes": "32",
        "value": "t_bool"
      },
      "t_uint256": {
        "encoding": "inplace",
        "label": "uint256",
        "numberOfBytes": "32"
      },
      "t_uint32": {
        "encoding": "inplace",
        "label": "uint32",
        "numberOfBytes": "4"
      }
    }
  }
}