{
  "address": "0xd7a497f9Fc19d0075c1C773e9D0E9A842566027D",
  "abi": [
    {
      "inputs": [
        {
          "internalType": "address",
          "name": "target",
          "type": "address"
        }
      ],
      "name": "AddressEmptyCode",
      "type": "error"
    },
    {
      "inputs": [
        {
          "internalType": "address",
          "name": "account",
          "type": "address"
        }
      ],
      "name": "AddressInsufficientBalance",
      "type": "error"
    },
    {
      "inputs": [],
      "name": "FailedInnerCall",
      "type": "error"
    },
    {
      "inputs": [],
      "name": "InvalidInitialization",
      "type": "error"
    },
    {
      "inputs": [],
      "name": "NotInitializing",
      "type": "error"
    },
    {
      "inputs": [
        {
          "internalType": "address",
          "name": "owner",
          "type": "address"
        }
      ],
      "name": "OwnableInvalidOwner",
      "type": "error"
    },
    {
      "inputs": [
        {
          "internalType": "address",
          "name": "account",
          "type": "address"
        }
      ],
      "name": "OwnableUnauthorizedAccount",
      "type": "error"
    },
    {
      "inputs": [],
      "name": "ReentrancyGuardReentrantCall",
      "type": "error"
    },
    {
      "inputs": [
        {
          "internalType": "address",
          "name": "token",
          "type": "address"
        }
      ],
      "name": "SafeERC20FailedOperation",
      "type": "error"
    },
    {
      "anonymous": false,
      "inputs": [
        {
          "indexed": false,
          "internalType": "bytes32",
          "name": "bridgeTargetAddress",
          "type": "bytes32"
        },
        {
          "indexed": false,
          "internalType": "address",
          "name": "caller",
          "type": "address"
        },
        {
          "indexed": false,
          "internalType": "uint256",
          "name": "balance",
          "type": "uint256"
        }
      ],
      "name": "BridgeSwept",
      "type": "event"
    },
    {
      "anonymous": false,
      "inputs": [
        {
          "indexed": false,
          "internalType": "address",
          "name": "from",
          "type": "address"
        },
        {
          "indexed": false,
          "internalType": "uint256",
          "name": "amountIn",
          "type": "uint256"
        },
        {
          "indexed": false,
          "internalType": "uint256",
          "name": "amountOut",
          "type": "uint256"
        }
      ],
      "name": "Deposit",
      "type": "event"
    },
    {
      "anonymous": false,
      "inputs": [
        {
          "indexed": false,
          "internalType": "uint64",
          "name": "version",
          "type": "uint64"
        }
      ],
      "name": "Initialized",
      "type": "event"
    },
    {
      "anonymous": false,
      "inputs": [
        {
          "indexed": true,
          "internalType": "address",
          "name": "previousOwner",
          "type": "address"
        },
        {
          "indexed": true,
          "internalType": "address",
          "name": "newOwner",
          "type": "address"
        }
      ],
      "name": "OwnershipTransferred",
      "type": "event"
    },
    {
      "inputs": [],
      "name": "MAX_SLIPPAGE",
      "outputs": [
        {
          "internalType": "uint256",
          "name": "",
          "type": "uint256"
        }
      ],
      "stateMutability": "view",
      "type": "function"
    },
    {
      "inputs": [
        {
          "internalType": "address",
          "name": "",
          "type": "address"
        }
      ],
      "name": "allowedBridgeSweepers",
      "outputs": [
        {
          "internalType": "bool",
          "name": "",
          "type": "bool"
        }
      ],
      "stateMutability": "view",
      "type": "function"
    },
    {
      "inputs": [],
      "name": "bridgeTargetAddress",
      "outputs": [
        {
          "internalType": "bytes32",
          "name": "",
          "type": "bytes32"
        }
      ],
      "stateMutability": "view",
      "type": "function"
    },
    {
      "inputs": [
        {
          "internalType": "uint256",
          "name": "_amountIn",
          "type": "uint256"
        }
      ],
      "name": "deposit",
      "outputs": [
        {
          "internalType": "uint256",
          "name": "amountOut",
          "type": "uint256"
        }
      ],
      "stateMutability": "nonpayable",
      "type": "function"
    },
    {
      "inputs": [],
      "name": "depositToken",
      "outputs": [
        {
          "internalType": "contract IERC20",
          "name": "",
          "type": "address"
        }
      ],
      "stateMutability": "view",
      "type": "function"
    },
    {
      "inputs": [
        {
          "internalType": "contract IStablecoinOFT",
          "name": "_oft",
          "type": "address"
        },
        {
          "internalType": "contract IERC20",
          "name": "_depositToken",
          "type": "address"
        },
        {
          "internalType": "contract IStargate",
          "name": "_stargate",
          "type": "address"
        },
        {
          "internalType": "bytes32",
          "name": "_bridgeTargetAddress",
          "type": "bytes32"
        },
        {
          "internalType": "address",
          "name": "_governance",
          "type": "address"
        },
        {
          "internalType": "uint256",
          "name": "_rate",
          "type": "uint256"
        },
        {
          "internalType": "uint256",
          "name": "_slippage",
          "type": "uint256"
        }
      ],
      "name": "initialize",
      "outputs": [],
      "stateMutability": "nonpayable",
      "type": "function"
    },
    {
      "inputs": [],
      "name": "oft",
      "outputs": [
        {
          "internalType": "contract IStablecoinOFT",
          "name": "",
          "type": "address"
        }
      ],
      "stateMutability": "view",
      "type": "function"
    },
    {
      "inputs": [],
      "name": "owner",
      "outputs": [
        {
          "internalType": "address",
          "name": "",
          "type": "address"
        }
      ],
      "stateMutability": "view",
      "type": "function"
    },
    {
      "inputs": [],
      "name": "rate",
      "outputs": [
        {
          "internalType": "uint256",
          "name": "",
          "type": "uint256"
        }
      ],
      "stateMutability": "view",
      "type": "function"
    },
    {
      "inputs": [
        {
          "internalType": "address",
          "name": "_token",
          "type": "address"
        },
        {
          "internalType": "uint256",
          "name": "_amount",
          "type": "uint256"
        },
        {
          "internalType": "address",
          "name": "_to",
          "type": "address"
        }
      ],
      "name": "recoverERC20",
      "outputs": [],
      "stateMutability": "nonpayable",
      "type": "function"
    },
    {
      "inputs": [],
      "name": "renounceOwnership",
      "outputs": [],
      "stateMutability": "nonpayable",
      "type": "function"
    },
    {
      "inputs": [
        {
          "internalType": "address",
          "name": "_sweeper",
          "type": "address"
        },
        {
          "internalType": "bool",
          "name": "_allowed",
          "type": "bool"
        }
      ],
      "name": "setAllowedBridgeSweeper",
      "outputs": [],
      "stateMutability": "nonpayable",
      "type": "function"
    },
    {
      "inputs": [
        {
          "internalType": "uint256",
          "name": "_rate",
          "type": "uint256"
        }
      ],
      "name": "setRate",
      "outputs": [],
      "stateMutability": "nonpayable",
      "type": "function"
    },
    {
      "inputs": [
        {
          "internalType": "uint256",
          "name": "_slippage",
          "type": "uint256"
        }
      ],
      "name": "setSlippage",
      "outputs": [],
      "stateMutability": "nonpayable",
      "type": "function"
    },
    {
      "inputs": [
        {
          "internalType": "address",
          "name": "_stargate",
          "type": "address"
        }
      ],
      "name": "setStargatePool",
      "outputs": [],
      "stateMutability": "nonpayable",
      "type": "function"
    },
    {
      "inputs": [],
      "name": "slippage",
      "outputs": [
        {
          "internalType": "uint256",
          "name": "",
          "type": "uint256"
        }
      ],
      "stateMutability": "view",
      "type": "function"
    },
    {
      "inputs": [],
      "name": "stargate",
      "outputs": [
        {
          "internalType": "contract IStargate",
          "name": "",
          "type": "address"
        }
      ],
      "stateMutability": "view",
      "type": "function"
    },
    {
      "inputs": [
        {
          "internalType": "uint256",
          "name": "amount",
          "type": "uint256"
        }
      ],
      "name": "sweep",
      "outputs": [],
      "stateMutability": "payable",
      "type": "function"
    },
    {
      "inputs": [
        {
          "internalType": "address",
          "name": "newOwner",
          "type": "address"
        }
      ],
      "name": "transferOwnership",
      "outputs": [],
      "stateMutability": "nonpayable",
      "type": "function"
    }
  ],
  "transactionHash": "0xfac5ec2a370e50e265f95028623f01bfe33c13070f9436d8a543790ad9930c1c",
  "args": [],
  "numDeployments": 1,
  "solcInputHash": "ec4a27fa97e6d9916d1332968874d8e2",
  "bytecode": "0x60a0604052670de0b6b3a764000060805234801561001c57600080fd5b506080516115ea61004d6000396000818161035c015281816107380152818161075c0152610a6e01526115ea6000f3fe6080604052600436106101045760003560e01c80639b5215f6116100a0578063d327d91411610064578063d327d914146102aa578063ec66b4b8146102ea578063f0fa55a91461030a578063f2fde38b1461032a578063f97595181461034a57600080fd5b80639b5215f614610217578063aa60e73314610237578063b51609b41461024a578063b6b55f251461026a578063c89039c51461028a57600080fd5b806319ddc3bb146101095780632c4e722e146101325780632fd9470f1461014857806334fcf4371461016a5780633e032a3b1461018a5780636c099dee146101a0578063715018a6146101cd57806380545d92146101e25780638da5cb5b14610202575b600080fd5b34801561011557600080fd5b5061011f60055481565b6040519081526020015b60405180910390f35b34801561013e57600080fd5b5061011f60005481565b34801561015457600080fd5b50610168610163366004611042565b61037e565b005b34801561017657600080fd5b5061016861018536600461105f565b6103a8565b34801561019657600080fd5b5061011f60015481565b3480156101ac57600080fd5b506004546101c0906001600160a01b031681565b6040516101299190611078565b3480156101d957600080fd5b506101686103b5565b3480156101ee57600080fd5b506101686101fd36600461108c565b6103c9565b34801561020e57600080fd5b506101c06105a7565b34801561022357600080fd5b506002546101c0906001600160a01b031681565b61016861024536600461105f565b6105d5565b34801561025657600080fd5b50610168610265366004611106565b6108cb565b34801561027657600080fd5b5061011f61028536600461105f565b6108ec565b34801561029657600080fd5b506003546101c0906001600160a01b031681565b3480156102b657600080fd5b506102da6102c5366004611042565b60066020526000908152604090205460ff1681565b6040519015158152602001610129565b3480156102f657600080fd5b50610168610305366004611156565b610a31565b34801561031657600080fd5b5061016861032536600461105f565b610a64565b34801561033657600080fd5b50610168610345366004611042565b610ad4565b34801561035657600080fd5b5061011f7f000000000000000000000000000000000000000000000000000000000000000081565b610386610b0f565b600480546001600160a01b0319166001600160a01b0392909216919091179055565b6103b0610b0f565b600055565b6103bd610b0f565b6103c76000610b41565b565b7ff0c57e16840df040f15088dc2f81fe391c3923bec73e23a9662efc9c229c6a008054600160401b810460ff16159067ffffffffffffffff1660008115801561040f5750825b905060008267ffffffffffffffff16600114801561042c5750303b155b90508115801561043a575080155b156104585760405163f92ee8a960e01b815260040160405180910390fd5b845467ffffffffffffffff19166001178555831561048257845460ff60401b1916600160401b1785555b61048b88610bb2565b6001600660008a6001600160a01b03166001600160a01b0316815260200190815260200160002060006101000a81548160ff021916908315150217905550886005819055508a600360006101000a8154816001600160a01b0302191690836001600160a01b031602179055508b600260006101000a8154816001600160a01b0302191690836001600160a01b03160217905550866000819055508560018190555089600460006101000a8154816001600160a01b0302191690836001600160a01b03160217905550831561059957845460ff60401b19168555604051600181527fc7f505b2f371ae2175ee4913f4499e1f2633a7b5936321eed1cdaeb6115181d29060200160405180910390a15b505050505050505050505050565b7f9016d09d72d40fdae2fd8ceac6b6234c7706214fd39c1cd1e609a0528c199300546001600160a01b031690565b6105dd610bc3565b3360009081526006602052604090205460ff166106335760405162461bcd60e51b815260206004820152600f60248201526e34b73b30b634b21039bbb2b2b832b960891b60448201526064015b60405180910390fd5b6003546040516370a0823160e01b81526000916001600160a01b0316906370a0823190610664903090600401611078565b602060405180830381865afa158015610681573d6000803e3d6000fd5b505050506040513d601f19601f820116820180604052508101906106a5919061118f565b9050600081116106e45760405162461bcd60e51b815260206004820152600a6024820152696e6f2062616c616e636560b01b604482015260640161062a565b816000036106f0578091505b60045460035461070d916001600160a01b03918216911683610bfb565b60006040518060e0016040528061759563ffffffff16815260200160055481526020018481526020017f00000000000000000000000000000000000000000000000000000000000000006001547f000000000000000000000000000000000000000000000000000000000000000061078591906111be565b61078f90876111d1565b61079991906111e8565b8152604080516020818101835260008083528185019290925282518082018452828152838501528251808201845282815260609094019390935281518083019092523480835292820152600454929350916001600160a01b03169063cbef2aa99084846108046105a7565b6040518563ffffffff1660e01b81526004016108229392919061125a565b60006040518083038185885af1158015610840573d6000803e3d6000fd5b50505050506040513d6000823e601f3d908101601f191682016040526108699190810190611473565b50506005546040805191825233602083015281018590527f2e04862e086f894a14bff207c8ef28b8c6f8b94055b80cb1e2fd27b950973591915060600160405180910390a15050506108c8600160008051602061159583398151915255565b50565b6108d3610b0f565b6108e76001600160a01b0384168284610c8b565b505050565b60006108f6610bc3565b600082116109375760405162461bcd60e51b815260206004820152600e60248201526d1a5b9d985b1a5908185b5bdd5b9d60921b604482015260640161062a565b60035461094f906001600160a01b0316333085610ce3565b60005461096483670de0b6b3a76400006111d1565b61096e91906111e8565b60025460405163774bd40960e01b81529192506001600160a01b03169063774bd409906109a1903390859060040161152f565b600060405180830381600087803b1580156109bb57600080fd5b505af11580156109cf573d6000803e3d6000fd5b505060408051338152602081018690529081018490527f90890809c654f11d6e72a28fa60149770a0d11ec6c92319d6ceb2bb0a4ea1a159250606001905060405180910390a1610a2c600160008051602061159583398151915255565b919050565b610a39610b0f565b6001600160a01b03919091166000908152600660205260409020805460ff1916911515919091179055565b610a6c610b0f565b7f0000000000000000000000000000000000000000000000000000000000000000811115610acf5760405162461bcd60e51b815260206004820152601060248201526f696e76616c696420736c69707061676560801b604482015260640161062a565b600155565b610adc610b0f565b6001600160a01b038116610b06576000604051631e4fbdf760e01b815260040161062a9190611078565b6108c881610b41565b33610b186105a7565b6001600160a01b0316146103c7573360405163118cdaa760e01b815260040161062a9190611078565b7f9016d09d72d40fdae2fd8ceac6b6234c7706214fd39c1cd1e609a0528c19930080546001600160a01b031981166001600160a01b03848116918217845560405192169182907f8be0079c531659141344cd1fd0a4f28419497f9722a3daafe3b4186f6b6457e090600090a3505050565b610bba610d1c565b6108c881610d65565b600080516020611595833981519152805460011901610bf557604051633ee5aeb560e01b815260040160405180910390fd5b60029055565b604051636eb1769f60e11b81523060048201526001600160a01b0383811660248301526000919085169063dd62ed3e90604401602060405180830381865afa158015610c4b573d6000803e3d6000fd5b505050506040513d601f19601f82011682018060405250810190610c6f919061118f565b9050610c858484610c808585611548565b610d6d565b50505050565b6108e783846001600160a01b031663a9059cbb8585604051602401610cb192919061152f565b604051602081830303815290604052915060e01b6020820180516001600160e01b038381831617835250505050610dfb565b6040516001600160a01b038481166024830152838116604483015260648201839052610c859186918216906323b872dd90608401610cb1565b7ff0c57e16840df040f15088dc2f81fe391c3923bec73e23a9662efc9c229c6a0054600160401b900460ff166103c757604051631afcd79f60e31b815260040160405180910390fd5b610adc610d1c565b6000836001600160a01b031663095ea7b38484604051602401610d9192919061152f565b604051602081830303815290604052915060e01b6020820180516001600160e01b0383818316178352505050509050610dca8482610e55565b610c8557610df584856001600160a01b031663095ea7b3866000604051602401610cb192919061152f565b610c8584825b6000610e106001600160a01b03841683610eff565b90508051600014158015610e35575080806020019051810190610e33919061155b565b155b156108e75782604051635274afe760e01b815260040161062a9190611078565b6000806000846001600160a01b031684604051610e729190611578565b6000604051808303816000865af19150503d8060008114610eaf576040519150601f19603f3d011682016040523d82523d6000602084013e610eb4565b606091505b5091509150818015610ede575080511580610ede575080806020019051810190610ede919061155b565b8015610ef457506000856001600160a01b03163b115b925050505b92915050565b6060610f0d83836000610f14565b9392505050565b606081471015610f39573060405163cd78605960e01b815260040161062a9190611078565b600080856001600160a01b03168486604051610f559190611578565b60006040518083038185875af1925050503d8060008114610f92576040519150601f19603f3d011682016040523d82523d6000602084013e610f97565b606091505b5091509150610fa7868383610fb1565b9695505050505050565b606082610fc657610fc182611004565b610f0d565b8151158015610fdd57506001600160a01b0384163b155b15610ffd5783604051639996b31560e01b815260040161062a9190611078565b5080610f0d565b8051156110145780518082602001fd5b604051630a12f52160e11b815260040160405180910390fd5b6001600160a01b03811681146108c857600080fd5b60006020828403121561105457600080fd5b8135610f0d8161102d565b60006020828403121561107157600080fd5b5035919050565b6001600160a01b0391909116815260200190565b600080600080600080600060e0888a0312156110a757600080fd5b87356110b28161102d565b965060208801356110c28161102d565b955060408801356110d28161102d565b94506060880135935060808801356110e98161102d565b9699959850939692959460a0840135945060c09093013592915050565b60008060006060848603121561111b57600080fd5b83356111268161102d565b925060208401359150604084013561113d8161102d565b809150509250925092565b80151581146108c857600080fd5b6000806040838503121561116957600080fd5b82356111748161102d565b9150602083013561118481611148565b809150509250929050565b6000602082840312156111a157600080fd5b5051919050565b634e487b7160e01b600052601160045260246000fd5b81810381811115610ef957610ef96111a8565b8082028115828204841417610ef957610ef96111a8565b60008261120557634e487b7160e01b600052601260045260246000fd5b500490565b60005b8381101561122557818101518382015260200161120d565b50506000910152565b6000815180845261124681602086016020860161120a565b601f01601f19169290920160200192915050565b6080815263ffffffff8451166080820152602084015160a0820152604084015160c0820152606084015160e08201526000608085015160e06101008401526112a661016084018261122e565b905060a0860151607f1980858403016101208601526112c5838361122e565b925060c088015191508085840301610140860152506112e4828261122e565b925050506112ff602083018580518252602090810151910152565b6001600160a01b0383166060830152949350505050565b634e487b7160e01b600052604160045260246000fd5b6040805190810167ffffffffffffffff8111828210171561134f5761134f611316565b60405290565b604051601f8201601f1916810167ffffffffffffffff8111828210171561137e5761137e611316565b604052919050565b60006040828403121561139857600080fd5b6113a061132c565b9050815181526020820151602082015292915050565b6000604082840312156113c857600080fd5b6113d061132c565b9050815166ffffffffffffff811681146113e957600080fd5b815260208281015167ffffffffffffffff8082111561140757600080fd5b818501915085601f83011261141b57600080fd5b81518181111561142d5761142d611316565b61143f601f8201601f19168501611355565b9150808252868482850101111561145557600080fd5b6114648185840186860161120a565b50808385015250505092915050565b600080600083850360e081121561148957600080fd5b608081121561149757600080fd5b506040516060810167ffffffffffffffff82821081831117156114bc576114bc611316565b81604052865183526020870151915080821682146114d957600080fd5b8160208401526114ec8860408901611386565b60408401528295506115018860808901611386565b945060c087015192508083111561151757600080fd5b5050611525868287016113b6565b9150509250925092565b6001600160a01b03929092168252602082015260400190565b80820180821115610ef957610ef96111a8565b60006020828403121561156d57600080fd5b8151610f0d81611148565b6000825161158a81846020870161120a565b919091019291505056fe9b779b17422d0df92223018b32b4d1fa46e071723d6817e2486d003becc55f00a26469706673582212202ffd7bd22e548a5505eadf471405205a4e0c46b4d2ed9f50e3a6f24d6d1a3c6b64736f6c63430008150033",
  "devdoc": {
    "author": "maha.xyz",
    "details": "Tokens are sent to this contract via deposit, zai is minted for the user,          and funds are batched and bridged down to the L1 for depositing into the maha protocol.",
    "errors": {
      "AddressEmptyCode(address)": [
        {
          "details": "There's no code at `target` (it is not a contract)."
        }
      ],
      "AddressInsufficientBalance(address)": [
        {
          "details": "The ETH balance of the account is not enough to perform the operation."
        }
      ],
      "FailedInnerCall()": [
        {
          "details": "A call to an address target failed. The target may have reverted."
        }
      ],
      "InvalidInitialization()": [
        {
          "details": "The contract is already initialized."
        }
      ],
      "NotInitializing()": [
        {
          "details": "The contract is not initializing."
        }
      ],
      "OwnableInvalidOwner(address)": [
        {
          "details": "The owner is not a valid owner account. (eg. `address(0)`)"
        }
      ],
      "OwnableUnauthorizedAccount(address)": [
        {
          "details": "The caller account is not authorized to perform an operation."
        }
      ],
      "ReentrancyGuardReentrantCall()": [
        {
          "details": "Unauthorized reentrant call."
        }
      ],
      "SafeERC20FailedOperation(address)": [
        {
          "details": "An operation with an ERC20 token failed."
        }
      ]
    },
    "events": {
      "Initialized(uint64)": {
        "details": "Triggered when the contract has been initialized or reinitialized."
      }
    },
    "kind": "dev",
    "methods": {
      "owner()": {
        "details": "Returns the address of the current owner."
      },
      "renounceOwnership()": {
        "details": "Leaves the contract without owner. It will not be possible to call `onlyOwner` functions. Can only be called by the current owner. NOTE: Renouncing ownership will leave the contract without an owner, thereby disabling any functionality that is only available to the owner."
      },
      "transferOwnership(address)": {
        "details": "Transfers ownership of the contract to a new account (`newOwner`). Can only be called by the current owner."
      }
    },
    "title": "L2DepositCollateralL0 Contract",
    "version": 1
  },
  "userdoc": {
    "kind": "user",
    "methods": {
      "MAX_SLIPPAGE()": {
        "notice": "The maximum slippage allowed for the bridge"
      },
      "allowedBridgeSweepers(address)": {
        "notice": "The mapping of allowed addresses that can trigger the bridge function"
      },
      "bridgeTargetAddress()": {
        "notice": "The contract address where the bridge call should be sent on mainnet ETH"
      },
      "depositToken()": {
        "notice": "The deposit token address - this is what users will deposit to mint the OFT"
      },
      "oft()": {
        "notice": "The OFT token address"
      },
      "rate()": {
        "notice": "The rate at which the deposit token is converted to OFT"
      },
      "slippage()": {
        "notice": "The slippage allowed for the bridge"
      },
      "stargate()": {
        "notice": "The address of the stargate bridge"
      }
    },
    "notice": "Allows L2 minting of zai tokens in exchange for deposited assets",
    "version": 1
  },
  "storageLayout": {
    "storage": [
      {
        "astId": 43300,
        "contract": "contracts/periphery/restaking/layerzero/L2DepositCollateralL0.sol:L2DepositCollateralL0",
        "label": "rate",
        "offset": 0,
        "slot": "0",
        "type": "t_uint256"
      },
      {
        "astId": 43303,
        "contract": "contracts/periphery/restaking/layerzero/L2DepositCollateralL0.sol:L2DepositCollateralL0",
        "label": "slippage",
        "offset": 0,
        "slot": "1",
        "type": "t_uint256"
      },
      {
        "astId": 43311,
        "contract": "contracts/periphery/restaking/layerzero/L2DepositCollateralL0.sol:L2DepositCollateralL0",
        "label": "oft",
        "offset": 0,
        "slot": "2",
        "type": "t_contract(IStablecoinOFT)36483"
      },
      {
        "astId": 43315,
        "contract": "contracts/periphery/restaking/layerzero/L2DepositCollateralL0.sol:L2DepositCollateralL0",
        "label": "depositToken",
        "offset": 0,
        "slot": "3",
        "type": "t_contract(IERC20)15836"
      },
      {
        "astId": 43319,
        "contract": "contracts/periphery/restaking/layerzero/L2DepositCollateralL0.sol:L2DepositCollateralL0",
        "label": "stargate",
        "offset": 0,
        "slot": "4",
        "type": "t_contract(IStargate)38365"
      },
      {
        "astId": 43322,
        "contract": "contracts/periphery/restaking/layerzero/L2DepositCollateralL0.sol:L2DepositCollateralL0",
        "label": "bridgeTargetAddress",
        "offset": 0,
        "slot": "5",
        "type": "t_bytes32"
      },
      {
        "astId": 43327,
        "contract": "contracts/periphery/restaking/layerzero/L2DepositCollateralL0.sol:L2DepositCollateralL0",
        "label": "allowedBridgeSweepers",
        "offset": 0,
        "slot": "6",
        "type": "t_mapping(t_address,t_bool)"
      }
    ],
    "types": {
      "t_address": {
        "encoding": "inplace",
        "label": "address",
        "numberOfBytes": "20"
      },
      "t_bool": {
        "encoding": "inplace",
        "label": "bool",
        "numberOfBytes": "1"
      },
      "t_bytes32": {
        "encoding": "inplace",
        "label": "bytes32",
        "numberOfBytes": "32"
      },
      "t_contract(IERC20)15836": {
        "encoding": "inplace",
        "label": "contract IERC20",
        "numberOfBytes": "20"
      },
      "t_contract(IStablecoinOFT)36483": {
        "encoding": "inplace",
        "label": "contract IStablecoinOFT",
        "numberOfBytes": "20"
      },
      "t_contract(IStargate)38365": {
        "encoding": "inplace",
        "label": "contract IStargate",
        "numberOfBytes": "20"
      },
      "t_mapping(t_address,t_bool)": {
        "encoding": "mapping",
        "key": "t_address",
        "label": "mapping(address => bool)",
        "numberOfBytes": "32",
        "value": "t_bool"
      },
      "t_uint256": {
        "encoding": "inplace",
        "label": "uint256",
        "numberOfBytes": "32"
      }
    }
  }
}