{
  "address": "0x6df56385796d46b163b322Dd62a02e10Ec976D09",
  "abi": [
    {
      "inputs": [],
      "name": "InvalidInitialization",
      "type": "error"
    },
    {
      "inputs": [],
      "name": "NotInitializing",
      "type": "error"
    },
    {
      "inputs": [
        {
          "internalType": "address",
          "name": "owner",
          "type": "address"
        }
      ],
      "name": "OwnableInvalidOwner",
      "type": "error"
    },
    {
      "inputs": [
        {
          "internalType": "address",
          "name": "account",
          "type": "address"
        }
      ],
      "name": "OwnableUnauthorizedAccount",
      "type": "error"
    },
    {
      "anonymous": false,
      "inputs": [
        {
          "indexed": false,
          "internalType": "uint64",
          "name": "version",
          "type": "uint64"
        }
      ],
      "name": "Initialized",
      "type": "event"
    },
    {
      "anonymous": false,
      "inputs": [
        {
          "indexed": true,
          "internalType": "address",
          "name": "previousOwner",
          "type": "address"
        },
        {
          "indexed": true,
          "internalType": "address",
          "name": "newOwner",
          "type": "address"
        }
      ],
      "name": "OwnershipTransferred",
      "type": "event"
    },
    {
      "inputs": [],
      "name": "depositCollateralL0",
      "outputs": [
        {
          "internalType": "contract IL2DepositCollateralL0",
          "name": "",
          "type": "address"
        }
      ],
      "stateMutability": "view",
      "type": "function"
    },
    {
      "inputs": [],
      "name": "execute",
      "outputs": [],
      "stateMutability": "payable",
      "type": "function"
    },
    {
      "inputs": [],
      "name": "feeEthToTransfer",
      "outputs": [
        {
          "internalType": "uint256",
          "name": "",
          "type": "uint256"
        }
      ],
      "stateMutability": "view",
      "type": "function"
    },
    {
      "inputs": [],
      "name": "gelatoooooo",
      "outputs": [
        {
          "internalType": "address",
          "name": "",
          "type": "address"
        }
      ],
      "stateMutability": "view",
      "type": "function"
    },
    {
      "inputs": [
        {
          "internalType": "address",
          "name": "_gelatoooooo",
          "type": "address"
        },
        {
          "internalType": "address",
          "name": "_usdc",
          "type": "address"
        },
        {
          "internalType": "uint256",
          "name": "_limit",
          "type": "uint256"
        },
        {
          "internalType": "address",
          "name": "_depositCollateralL0",
          "type": "address"
        },
        {
          "internalType": "address",
          "name": "_governance",
          "type": "address"
        }
      ],
      "name": "initialize",
      "outputs": [],
      "stateMutability": "nonpayable",
      "type": "function"
    },
    {
      "inputs": [],
      "name": "limit",
      "outputs": [
        {
          "internalType": "uint256",
          "name": "",
          "type": "uint256"
        }
      ],
      "stateMutability": "view",
      "type": "function"
    },
    {
      "inputs": [],
      "name": "owner",
      "outputs": [
        {
          "internalType": "address",
          "name": "",
          "type": "address"
        }
      ],
      "stateMutability": "view",
      "type": "function"
    },
    {
      "inputs": [],
      "name": "refundETH",
      "outputs": [],
      "stateMutability": "nonpayable",
      "type": "function"
    },
    {
      "inputs": [],
      "name": "renounceOwnership",
      "outputs": [],
      "stateMutability": "nonpayable",
      "type": "function"
    },
    {
      "inputs": [
        {
          "internalType": "address",
          "name": "_gelatoooooo",
          "type": "address"
        }
      ],
      "name": "setGelatoooooo",
      "outputs": [],
      "stateMutability": "nonpayable",
      "type": "function"
    },
    {
      "inputs": [
        {
          "internalType": "uint256",
          "name": "_limit",
          "type": "uint256"
        }
      ],
      "name": "setSweepLimit",
      "outputs": [],
      "stateMutability": "nonpayable",
      "type": "function"
    },
    {
      "inputs": [],
      "name": "shouldExecute",
      "outputs": [
        {
          "internalType": "bool",
          "name": "",
          "type": "bool"
        }
      ],
      "stateMutability": "view",
      "type": "function"
    },
    {
      "inputs": [
        {
          "internalType": "address",
          "name": "newOwner",
          "type": "address"
        }
      ],
      "name": "transferOwnership",
      "outputs": [],
      "stateMutability": "nonpayable",
      "type": "function"
    },
    {
      "inputs": [],
      "name": "usdc",
      "outputs": [
        {
          "internalType": "address",
          "name": "",
          "type": "address"
        }
      ],
      "stateMutability": "view",
      "type": "function"
    },
    {
      "inputs": [],
      "name": "usdcToSweep",
      "outputs": [
        {
          "internalType": "uint256",
          "name": "",
          "type": "uint256"
        }
      ],
      "stateMutability": "view",
      "type": "function"
    },
    {
      "stateMutability": "payable",
      "type": "receive"
    }
  ],
  "transactionHash": "0x6826afa1d39cd81e635414ab4263cda720bc5219f008d718c76ecedb9c9d6ce3",
  "args": [],
  "numDeployments": 1,
  "solcInputHash": "39d4d71c81a6d6ca93f056a79a353f13",
  "bytecode": "0x608060405234801561001057600080fd5b50610e9c806100206000396000f3fe6080604052600436106100ec5760003560e01c80636ba1644b1161008a578063a4d66daf11610059578063a4d66daf1461025e578063b5a7841214610274578063e4ad328814610299578063f2fde38b146102b957600080fd5b80636ba1644b146101cc578063715018a6146101ec5780638da5cb5b14610201578063969920661461023e57600080fd5b806333e1a223116100c657806333e1a223146101575780633e413bee1461017757806358a0ec54146101af57806361461954146101c457600080fd5b80630765939e146100f857806312210e8a1461011a5780631aa258731461012f57600080fd5b366100f357005b600080fd5b34801561010457600080fd5b50610118610113366004610bd1565b6102d9565b005b34801561012657600080fd5b506101186102e6565b34801561013b57600080fd5b50610144610349565b6040519081526020015b60405180910390f35b34801561016357600080fd5b50610118610172366004610bff565b6103c3565b34801561018357600080fd5b50600154610197906001600160a01b031681565b6040516001600160a01b03909116815260200161014e565b3480156101bb57600080fd5b50610144610527565b61011861081a565b3480156101d857600080fd5b506101186101e7366004610c67565b6109ac565b3480156101f857600080fd5b506101186109e3565b34801561020d57600080fd5b507f9016d09d72d40fdae2fd8ceac6b6234c7706214fd39c1cd1e609a0528c199300546001600160a01b0316610197565b34801561024a57600080fd5b50600054610197906001600160a01b031681565b34801561026a57600080fd5b5061014460025481565b34801561028057600080fd5b506102896109f7565b604051901515815260200161014e565b3480156102a557600080fd5b50600354610197906001600160a01b031681565b3480156102c557600080fd5b506101186102d4366004610c67565b610a0b565b6102e1610a5f565b600255565b6102ee610a5f565b7f9016d09d72d40fdae2fd8ceac6b6234c7706214fd39c1cd1e609a0528c199300546040516001600160a01b03909116904780156108fc02916000818181858888f19350505050158015610346573d6000803e3d6000fd5b50565b6001546003546040516370a0823160e01b81526001600160a01b03918216600482015260009291909116906370a0823190602401602060405180830381865afa15801561039a573d6000803e3d6000fd5b505050506040513d601f19601f820116820180604052508101906103be9190610c8b565b905090565b7ff0c57e16840df040f15088dc2f81fe391c3923bec73e23a9662efc9c229c6a0080546001919068010000000000000000900460ff16806104125750805467ffffffffffffffff808416911610155b15610449576040517ff92ee8a900000000000000000000000000000000000000000000000000000000815260040160405180910390fd5b805468ffffffffffffffffff191667ffffffffffffffff8316176801000000000000000017815561047933610ad3565b600080546001600160a01b03808a1673ffffffffffffffffffffffffffffffffffffffff199283161790925560018054898416908316179055600287905560038054928716929091169190911790556104d183610ae4565b805468ff00000000000000001916815560405167ffffffffffffffff831681527fc7f505b2f371ae2175ee4913f4499e1f2633a7b5936321eed1cdaeb6115181d29060200160405180910390a150505050505050565b6001546003546040516370a0823160e01b81526001600160a01b039182166004820152600092839216906370a0823190602401602060405180830381865afa158015610577573d6000803e3d6000fd5b505050506040513d601f19601f8201168201806040525081019061059b9190610c8b565b905060006040518060e0016040528061759563ffffffff168152602001600360009054906101000a90046001600160a01b03166001600160a01b03166319ddc3bb6040518163ffffffff1660e01b8152600401602060405180830381865afa15801561060b573d6000803e3d6000fd5b505050506040513d601f19601f8201168201806040525081019061062f9190610c8b565b8152602001838152602001670de0b6b3a7640000600360009054906101000a90046001600160a01b03166001600160a01b0316633e032a3b6040518163ffffffff1660e01b8152600401602060405180830381865afa158015610696573d6000803e3d6000fd5b505050506040513d601f19601f820116820180604052508101906106ba9190610c8b565b6106cc90670de0b6b3a7640000610cba565b6106d69086610cd3565b6106e09190610cea565b81526020016040518060200160405280600081525081526020016040518060200160405280600081525081526020016040518060200160405280600081525081525090506000600360009054906101000a90046001600160a01b03166001600160a01b0316636c099dee6040518163ffffffff1660e01b8152600401602060405180830381865afa158015610779573d6000803e3d6000fd5b505050506040513d601f19601f8201168201806040525081019061079d9190610d0c565b90506000816001600160a01b0316633b6f743b8460006040518363ffffffff1660e01b81526004016107d0929190610d6f565b6040805180830381865afa1580156107ec573d6000803e3d6000fd5b505050506040513d601f19601f820116820180604052508101906108109190610e09565b5195945050505050565b7f9016d09d72d40fdae2fd8ceac6b6234c7706214fd39c1cd1e609a0528c199300546001600160a01b031633148061085c57506000546001600160a01b031633145b6108c7576040517f08c379a000000000000000000000000000000000000000000000000000000000815260206004820152600860248201527f77686f206469733f00000000000000000000000000000000000000000000000060448201526064015b60405180910390fd5b6001546003546040516370a0823160e01b81526001600160a01b03918216600482015260009291909116906370a0823190602401602060405180830381865afa158015610918573d6000803e3d6000fd5b505050506040513d601f19601f8201168201806040525081019061093c9190610c8b565b6003549091506001600160a01b031663aa60e733610958610527565b836040518363ffffffff1660e01b815260040161097791815260200190565b6000604051808303818588803b15801561099057600080fd5b505af11580156109a4573d6000803e3d6000fd5b505050505050565b6109b4610a5f565b6000805473ffffffffffffffffffffffffffffffffffffffff19166001600160a01b0392909216919091179055565b6109eb610a5f565b6109f56000610ae4565b565b6000600254610a04610349565b1015905090565b610a13610a5f565b6001600160a01b038116610a56576040517f1e4fbdf7000000000000000000000000000000000000000000000000000000008152600060048201526024016108be565b61034681610ae4565b33610a917f9016d09d72d40fdae2fd8ceac6b6234c7706214fd39c1cd1e609a0528c199300546001600160a01b031690565b6001600160a01b0316146109f5576040517f118cdaa70000000000000000000000000000000000000000000000000000000081523360048201526024016108be565b610adb610b62565b61034681610bc9565b7f9016d09d72d40fdae2fd8ceac6b6234c7706214fd39c1cd1e609a0528c199300805473ffffffffffffffffffffffffffffffffffffffff1981166001600160a01b03848116918217845560405192169182907f8be0079c531659141344cd1fd0a4f28419497f9722a3daafe3b4186f6b6457e090600090a3505050565b7ff0c57e16840df040f15088dc2f81fe391c3923bec73e23a9662efc9c229c6a005468010000000000000000900460ff166109f5576040517fd7e6bcf800000000000000000000000000000000000000000000000000000000815260040160405180910390fd5b610a13610b62565b600060208284031215610be357600080fd5b5035919050565b6001600160a01b038116811461034657600080fd5b600080600080600060a08688031215610c1757600080fd5b8535610c2281610bea565b94506020860135610c3281610bea565b9350604086013592506060860135610c4981610bea565b91506080860135610c5981610bea565b809150509295509295909350565b600060208284031215610c7957600080fd5b8135610c8481610bea565b9392505050565b600060208284031215610c9d57600080fd5b5051919050565b634e487b7160e01b600052601160045260246000fd5b81810381811115610ccd57610ccd610ca4565b92915050565b8082028115828204841417610ccd57610ccd610ca4565b600082610d0757634e487b7160e01b600052601260045260246000fd5b500490565b600060208284031215610d1e57600080fd5b8151610c8481610bea565b6000815180845260005b81811015610d4f57602081850181015186830182015201610d33565b506000602082860101526020601f19601f83011685010191505092915050565b6040815263ffffffff83511660408201526020830151606082015260408301516080820152606083015160a08201526000608084015160e060c0840152610dba610120840182610d29565b905060a0850151603f19808584030160e0860152610dd88383610d29565b925060c08701519150808584030161010086015250610df78282610d29565b92505050610c84602083018415159052565b600060408284031215610e1b57600080fd5b6040516040810181811067ffffffffffffffff82111715610e4c57634e487b7160e01b600052604160045260246000fd5b60405282518152602092830151928101929092525091905056fea2646970667358221220df2bf091b173331cfae493955a510f7efd18cac1d36649dc5b0cd6c878003a4864736f6c63430008150033",
  "devdoc": {
    "errors": {
      "InvalidInitialization()": [
        {
          "details": "The contract is already initialized."
        }
      ],
      "NotInitializing()": [
        {
          "details": "The contract is not initializing."
        }
      ],
      "OwnableInvalidOwner(address)": [
        {
          "details": "The owner is not a valid owner account. (eg. `address(0)`)"
        }
      ],
      "OwnableUnauthorizedAccount(address)": [
        {
          "details": "The caller account is not authorized to perform an operation."
        }
      ]
    },
    "events": {
      "Initialized(uint64)": {
        "details": "Triggered when the contract has been initialized or reinitialized."
      }
    },
    "kind": "dev",
    "methods": {
      "owner()": {
        "details": "Returns the address of the current owner."
      },
      "renounceOwnership()": {
        "details": "Leaves the contract without owner. It will not be possible to call `onlyOwner` functions. Can only be called by the current owner. NOTE: Renouncing ownership will leave the contract without an owner, thereby disabling any functionality that is only available to the owner."
      },
      "transferOwnership(address)": {
        "details": "Transfers ownership of the contract to a new account (`newOwner`). Can only be called by the current owner."
      }
    },
    "version": 1
  },
  "userdoc": {
    "kind": "user",
    "methods": {},
    "version": 1
  },
  "storageLayout": {
    "storage": [
      {
        "astId": 2729,
        "contract": "contracts/periphery/crons/L2RestakingSweeperCron.sol:L2RestakingSweeperCron",
        "label": "gelatoooooo",
        "offset": 0,
        "slot": "0",
        "type": "t_address"
      },
      {
        "astId": 2731,
        "contract": "contracts/periphery/crons/L2RestakingSweeperCron.sol:L2RestakingSweeperCron",
        "label": "usdc",
        "offset": 0,
        "slot": "1",
        "type": "t_address"
      },
      {
        "astId": 2733,
        "contract": "contracts/periphery/crons/L2RestakingSweeperCron.sol:L2RestakingSweeperCron",
        "label": "limit",
        "offset": 0,
        "slot": "2",
        "type": "t_uint256"
      },
      {
        "astId": 2736,
        "contract": "contracts/periphery/crons/L2RestakingSweeperCron.sol:L2RestakingSweeperCron",
        "label": "depositCollateralL0",
        "offset": 0,
        "slot": "3",
        "type": "t_contract(IL2DepositCollateralL0)2663"
      }
    ],
    "types": {
      "t_address": {
        "encoding": "inplace",
        "label": "address",
        "numberOfBytes": "20"
      },
      "t_contract(IL2DepositCollateralL0)2663": {
        "encoding": "inplace",
        "label": "contract IL2DepositCollateralL0",
        "numberOfBytes": "20"
      },
      "t_uint256": {
        "encoding": "inplace",
        "label": "uint256",
        "numberOfBytes": "32"
      }
    }
  }
}