{
  "address": "0x72A8eaEA8625b9169801fde791D6e1cdF6fD6802",
  "abi": [
    {
      "inputs": [],
      "name": "ERC721EnumerableForbiddenBatchMint",
      "type": "error"
    },
    {
      "inputs": [
        {
          "internalType": "address",
          "name": "sender",
          "type": "address"
        },
        {
          "internalType": "uint256",
          "name": "tokenId",
          "type": "uint256"
        },
        {
          "internalType": "address",
          "name": "owner",
          "type": "address"
        }
      ],
      "name": "ERC721IncorrectOwner",
      "type": "error"
    },
    {
      "inputs": [
        {
          "internalType": "address",
          "name": "operator",
          "type": "address"
        },
        {
          "internalType": "uint256",
          "name": "tokenId",
          "type": "uint256"
        }
      ],
      "name": "ERC721InsufficientApproval",
      "type": "error"
    },
    {
      "inputs": [
        {
          "internalType": "address",
          "name": "approver",
          "type": "address"
        }
      ],
      "name": "ERC721InvalidApprover",
      "type": "error"
    },
    {
      "inputs": [
        {
          "internalType": "address",
          "name": "operator",
          "type": "address"
        }
      ],
      "name": "ERC721InvalidOperator",
      "type": "error"
    },
    {
      "inputs": [
        {
          "internalType": "address",
          "name": "owner",
          "type": "address"
        }
      ],
      "name": "ERC721InvalidOwner",
      "type": "error"
    },
    {
      "inputs": [
        {
          "internalType": "address",
          "name": "receiver",
          "type": "address"
        }
      ],
      "name": "ERC721InvalidReceiver",
      "type": "error"
    },
    {
      "inputs": [
        {
          "internalType": "address",
          "name": "sender",
          "type": "address"
        }
      ],
      "name": "ERC721InvalidSender",
      "type": "error"
    },
    {
      "inputs": [
        {
          "internalType": "uint256",
          "name": "tokenId",
          "type": "uint256"
        }
      ],
      "name": "ERC721NonexistentToken",
      "type": "error"
    },
    {
      "inputs": [
        {
          "internalType": "address",
          "name": "owner",
          "type": "address"
        },
        {
          "internalType": "uint256",
          "name": "index",
          "type": "uint256"
        }
      ],
      "name": "ERC721OutOfBoundsIndex",
      "type": "error"
    },
    {
      "inputs": [],
      "name": "InvalidInitialization",
      "type": "error"
    },
    {
      "inputs": [],
      "name": "NotInitializing",
      "type": "error"
    },
    {
      "inputs": [],
      "name": "ReentrancyGuardReentrantCall",
      "type": "error"
    },
    {
      "anonymous": false,
      "inputs": [
        {
          "indexed": true,
          "internalType": "address",
          "name": "owner",
          "type": "address"
        },
        {
          "indexed": true,
          "internalType": "address",
          "name": "approved",
          "type": "address"
        },
        {
          "indexed": true,
          "internalType": "uint256",
          "name": "tokenId",
          "type": "uint256"
        }
      ],
      "name": "Approval",
      "type": "event"
    },
    {
      "anonymous": false,
      "inputs": [
        {
          "indexed": true,
          "internalType": "address",
          "name": "owner",
          "type": "address"
        },
        {
          "indexed": true,
          "internalType": "address",
          "name": "operator",
          "type": "address"
        },
        {
          "indexed": false,
          "internalType": "bool",
          "name": "approved",
          "type": "bool"
        }
      ],
      "name": "ApprovalForAll",
      "type": "event"
    },
    {
      "anonymous": false,
      "inputs": [
        {
          "indexed": true,
          "internalType": "address",
          "name": "provider",
          "type": "address"
        },
        {
          "indexed": false,
          "internalType": "uint256",
          "name": "tokenId",
          "type": "uint256"
        },
        {
          "indexed": false,
          "internalType": "uint256",
          "name": "value",
          "type": "uint256"
        },
        {
          "indexed": true,
          "internalType": "uint256",
          "name": "locktime",
          "type": "uint256"
        },
        {
          "indexed": false,
          "internalType": "enum ILocker.DepositType",
          "name": "deposit_type",
          "type": "uint8"
        },
        {
          "indexed": false,
          "internalType": "uint256",
          "name": "ts",
          "type": "uint256"
        }
      ],
      "name": "Deposit",
      "type": "event"
    },
    {
      "anonymous": false,
      "inputs": [
        {
          "indexed": false,
          "internalType": "uint64",
          "name": "version",
          "type": "uint64"
        }
      ],
      "name": "Initialized",
      "type": "event"
    },
    {
      "anonymous": false,
      "inputs": [
        {
          "components": [
            {
              "internalType": "uint256",
              "name": "amount",
              "type": "uint256"
            },
            {
              "internalType": "uint256",
              "name": "end",
              "type": "uint256"
            },
            {
              "internalType": "uint256",
              "name": "start",
              "type": "uint256"
            },
            {
              "internalType": "uint256",
              "name": "power",
              "type": "uint256"
            }
          ],
          "indexed": true,
          "internalType": "struct ILocker.LockedBalance",
          "name": "lock",
          "type": "tuple"
        },
        {
          "indexed": true,
          "internalType": "uint256",
          "name": "tokenId",
          "type": "uint256"
        },
        {
          "indexed": false,
          "internalType": "address",
          "name": "caller",
          "type": "address"
        }
      ],
      "name": "LockUpdated",
      "type": "event"
    },
    {
      "anonymous": false,
      "inputs": [
        {
          "indexed": true,
          "internalType": "address",
          "name": "oldStaking",
          "type": "address"
        },
        {
          "indexed": true,
          "internalType": "address",
          "name": "newStaking",
          "type": "address"
        }
      ],
      "name": "StakingAddressSet",
      "type": "event"
    },
    {
      "anonymous": false,
      "inputs": [
        {
          "indexed": true,
          "internalType": "address",
          "name": "oldStakingBonus",
          "type": "address"
        },
        {
          "indexed": true,
          "internalType": "address",
          "name": "newStakingBonus",
          "type": "address"
        }
      ],
      "name": "StakingBonusAddressSet",
      "type": "event"
    },
    {
      "anonymous": false,
      "inputs": [
        {
          "indexed": false,
          "internalType": "uint256",
          "name": "prevSupply",
          "type": "uint256"
        },
        {
          "indexed": false,
          "internalType": "uint256",
          "name": "supply",
          "type": "uint256"
        }
      ],
      "name": "Supply",
      "type": "event"
    },
    {
      "anonymous": false,
      "inputs": [
        {
          "indexed": true,
          "internalType": "address",
          "name": "oldToken",
          "type": "address"
        },
        {
          "indexed": true,
          "internalType": "address",
          "name": "newToken",
          "type": "address"
        }
      ],
      "name": "TokenAddressSet",
      "type": "event"
    },
    {
      "anonymous": false,
      "inputs": [
        {
          "indexed": true,
          "internalType": "address",
          "name": "from",
          "type": "address"
        },
        {
          "indexed": true,
          "internalType": "address",
          "name": "to",
          "type": "address"
        },
        {
          "indexed": true,
          "internalType": "uint256",
          "name": "tokenId",
          "type": "uint256"
        }
      ],
      "name": "Transfer",
      "type": "event"
    },
    {
      "anonymous": false,
      "inputs": [
        {
          "indexed": true,
          "internalType": "address",
          "name": "provider",
          "type": "address"
        },
        {
          "indexed": false,
          "internalType": "uint256",
          "name": "tokenId",
          "type": "uint256"
        },
        {
          "indexed": false,
          "internalType": "uint256",
          "name": "value",
          "type": "uint256"
        },
        {
          "indexed": false,
          "internalType": "uint256",
          "name": "ts",
          "type": "uint256"
        }
      ],
      "name": "Withdraw",
      "type": "event"
    },
    {
      "inputs": [
        {
          "internalType": "address",
          "name": "to",
          "type": "address"
        },
        {
          "internalType": "uint256",
          "name": "tokenId",
          "type": "uint256"
        }
      ],
      "name": "approve",
      "outputs": [],
      "stateMutability": "nonpayable",
      "type": "function"
    },
    {
      "inputs": [
        {
          "internalType": "address",
          "name": "owner",
          "type": "address"
        }
      ],
      "name": "balanceOf",
      "outputs": [
        {
          "internalType": "uint256",
          "name": "",
          "type": "uint256"
        }
      ],
      "stateMutability": "view",
      "type": "function"
    },
    {
      "inputs": [
        {
          "internalType": "uint256",
          "name": "_tokenId",
          "type": "uint256"
        }
      ],
      "name": "balanceOfNFT",
      "outputs": [
        {
          "internalType": "uint256",
          "name": "",
          "type": "uint256"
        }
      ],
      "stateMutability": "view",
      "type": "function"
    },
    {
      "inputs": [
        {
          "internalType": "uint256",
          "name": "_value",
          "type": "uint256"
        },
        {
          "internalType": "uint256",
          "name": "_lockDuration",
          "type": "uint256"
        },
        {
          "internalType": "bool",
          "name": "_stakeNFT",
          "type": "bool"
        }
      ],
      "name": "createLock",
      "outputs": [
        {
          "internalType": "uint256",
          "name": "",
          "type": "uint256"
        }
      ],
      "stateMutability": "nonpayable",
      "type": "function"
    },
    {
      "inputs": [
        {
          "internalType": "uint256",
          "name": "_value",
          "type": "uint256"
        },
        {
          "internalType": "uint256",
          "name": "_lockDuration",
          "type": "uint256"
        },
        {
          "internalType": "address",
          "name": "_to",
          "type": "address"
        },
        {
          "internalType": "bool",
          "name": "_stakeNFT",
          "type": "bool"
        }
      ],
      "name": "createLockFor",
      "outputs": [
        {
          "internalType": "uint256",
          "name": "",
          "type": "uint256"
        }
      ],
      "stateMutability": "nonpayable",
      "type": "function"
    },
    {
      "inputs": [],
      "name": "decimals",
      "outputs": [
        {
          "internalType": "uint8",
          "name": "",
          "type": "uint8"
        }
      ],
      "stateMutability": "view",
      "type": "function"
    },
    {
      "inputs": [
        {
          "internalType": "uint256",
          "name": "_tokenId",
          "type": "uint256"
        },
        {
          "internalType": "uint256",
          "name": "_value",
          "type": "uint256"
        }
      ],
      "name": "depositFor",
      "outputs": [],
      "stateMutability": "nonpayable",
      "type": "function"
    },
    {
      "inputs": [
        {
          "internalType": "uint256",
          "name": "tokenId",
          "type": "uint256"
        }
      ],
      "name": "getApproved",
      "outputs": [
        {
          "internalType": "address",
          "name": "",
          "type": "address"
        }
      ],
      "stateMutability": "view",
      "type": "function"
    },
    {
      "inputs": [
        {
          "internalType": "uint256",
          "name": "_tokenId",
          "type": "uint256"
        },
        {
          "internalType": "uint256",
          "name": "_value",
          "type": "uint256"
        }
      ],
      "name": "increaseAmount",
      "outputs": [],
      "stateMutability": "nonpayable",
      "type": "function"
    },
    {
      "inputs": [
        {
          "internalType": "uint256",
          "name": "_tokenId",
          "type": "uint256"
        },
        {
          "internalType": "uint256",
          "name": "_lockDuration",
          "type": "uint256"
        }
      ],
      "name": "increaseUnlockTime",
      "outputs": [],
      "stateMutability": "nonpayable",
      "type": "function"
    },
    {
      "inputs": [
        {
          "internalType": "address",
          "name": "_token",
          "type": "address"
        },
        {
          "internalType": "address",
          "name": "_staking",
          "type": "address"
        }
      ],
      "name": "initialize",
      "outputs": [],
      "stateMutability": "nonpayable",
      "type": "function"
    },
    {
      "inputs": [
        {
          "internalType": "address",
          "name": "owner",
          "type": "address"
        },
        {
          "internalType": "address",
          "name": "operator",
          "type": "address"
        }
      ],
      "name": "isApprovedForAll",
      "outputs": [
        {
          "internalType": "bool",
          "name": "",
          "type": "bool"
        }
      ],
      "stateMutability": "view",
      "type": "function"
    },
    {
      "inputs": [
        {
          "internalType": "uint256",
          "name": "_tokenId",
          "type": "uint256"
        }
      ],
      "name": "locked",
      "outputs": [
        {
          "components": [
            {
              "internalType": "uint256",
              "name": "amount",
              "type": "uint256"
            },
            {
              "internalType": "uint256",
              "name": "end",
              "type": "uint256"
            },
            {
              "internalType": "uint256",
              "name": "start",
              "type": "uint256"
            },
            {
              "internalType": "uint256",
              "name": "power",
              "type": "uint256"
            }
          ],
          "internalType": "struct ILocker.LockedBalance",
          "name": "",
          "type": "tuple"
        }
      ],
      "stateMutability": "view",
      "type": "function"
    },
    {
      "inputs": [
        {
          "internalType": "uint256",
          "name": "_tokenId",
          "type": "uint256"
        }
      ],
      "name": "lockedEnd",
      "outputs": [
        {
          "internalType": "uint256",
          "name": "",
          "type": "uint256"
        }
      ],
      "stateMutability": "view",
      "type": "function"
    },
    {
      "inputs": [
        {
          "internalType": "uint256",
          "name": "_from",
          "type": "uint256"
        },
        {
          "internalType": "uint256",
          "name": "_to",
          "type": "uint256"
        }
      ],
      "name": "merge",
      "outputs": [],
      "stateMutability": "nonpayable",
      "type": "function"
    },
    {
      "inputs": [],
      "name": "name",
      "outputs": [
        {
          "internalType": "string",
          "name": "",
          "type": "string"
        }
      ],
      "stateMutability": "view",
      "type": "function"
    },
    {
      "inputs": [
        {
          "internalType": "uint256",
          "name": "tokenId",
          "type": "uint256"
        }
      ],
      "name": "ownerOf",
      "outputs": [
        {
          "internalType": "address",
          "name": "",
          "type": "address"
        }
      ],
      "stateMutability": "view",
      "type": "function"
    },
    {
      "inputs": [
        {
          "internalType": "address",
          "name": "from",
          "type": "address"
        },
        {
          "internalType": "address",
          "name": "to",
          "type": "address"
        },
        {
          "internalType": "uint256",
          "name": "tokenId",
          "type": "uint256"
        }
      ],
      "name": "safeTransferFrom",
      "outputs": [],
      "stateMutability": "nonpayable",
      "type": "function"
    },
    {
      "inputs": [
        {
          "internalType": "address",
          "name": "from",
          "type": "address"
        },
        {
          "internalType": "address",
          "name": "to",
          "type": "address"
        },
        {
          "internalType": "uint256",
          "name": "tokenId",
          "type": "uint256"
        },
        {
          "internalType": "bytes",
          "name": "data",
          "type": "bytes"
        }
      ],
      "name": "safeTransferFrom",
      "outputs": [],
      "stateMutability": "nonpayable",
      "type": "function"
    },
    {
      "inputs": [
        {
          "internalType": "address",
          "name": "operator",
          "type": "address"
        },
        {
          "internalType": "bool",
          "name": "approved",
          "type": "bool"
        }
      ],
      "name": "setApprovalForAll",
      "outputs": [],
      "stateMutability": "nonpayable",
      "type": "function"
    },
    {
      "inputs": [],
      "name": "staking",
      "outputs": [
        {
          "internalType": "contract IOmnichainStaking",
          "name": "",
          "type": "address"
        }
      ],
      "stateMutability": "view",
      "type": "function"
    },
    {
      "inputs": [],
      "name": "supply",
      "outputs": [
        {
          "internalType": "uint256",
          "name": "",
          "type": "uint256"
        }
      ],
      "stateMutability": "view",
      "type": "function"
    },
    {
      "inputs": [
        {
          "internalType": "bytes4",
          "name": "_interfaceID",
          "type": "bytes4"
        }
      ],
      "name": "supportsInterface",
      "outputs": [
        {
          "internalType": "bool",
          "name": "",
          "type": "bool"
        }
      ],
      "stateMutability": "view",
      "type": "function"
    },
    {
      "inputs": [],
      "name": "symbol",
      "outputs": [
        {
          "internalType": "string",
          "name": "",
          "type": "string"
        }
      ],
      "stateMutability": "view",
      "type": "function"
    },
    {
      "inputs": [
        {
          "internalType": "uint256",
          "name": "index",
          "type": "uint256"
        }
      ],
      "name": "tokenByIndex",
      "outputs": [
        {
          "internalType": "uint256",
          "name": "",
          "type": "uint256"
        }
      ],
      "stateMutability": "view",
      "type": "function"
    },
    {
      "inputs": [
        {
          "internalType": "address",
          "name": "owner",
          "type": "address"
        },
        {
          "internalType": "uint256",
          "name": "index",
          "type": "uint256"
        }
      ],
      "name": "tokenOfOwnerByIndex",
      "outputs": [
        {
          "internalType": "uint256",
          "name": "",
          "type": "uint256"
        }
      ],
      "stateMutability": "view",
      "type": "function"
    },
    {
      "inputs": [
        {
          "internalType": "uint256",
          "name": "",
          "type": "uint256"
        }
      ],
      "name": "tokenURI",
      "outputs": [
        {
          "internalType": "string",
          "name": "",
          "type": "string"
        }
      ],
      "stateMutability": "view",
      "type": "function"
    },
    {
      "inputs": [],
      "name": "totalSupply",
      "outputs": [
        {
          "internalType": "uint256",
          "name": "",
          "type": "uint256"
        }
      ],
      "stateMutability": "view",
      "type": "function"
    },
    {
      "inputs": [
        {
          "internalType": "address",
          "name": "from",
          "type": "address"
        },
        {
          "internalType": "address",
          "name": "to",
          "type": "address"
        },
        {
          "internalType": "uint256",
          "name": "tokenId",
          "type": "uint256"
        }
      ],
      "name": "transferFrom",
      "outputs": [],
      "stateMutability": "nonpayable",
      "type": "function"
    },
    {
      "inputs": [],
      "name": "underlying",
      "outputs": [
        {
          "internalType": "contract IERC20",
          "name": "",
          "type": "address"
        }
      ],
      "stateMutability": "view",
      "type": "function"
    },
    {
      "inputs": [
        {
          "internalType": "uint256",
          "name": "_id",
          "type": "uint256"
        },
        {
          "internalType": "uint256",
          "name": "_startDate",
          "type": "uint256"
        },
        {
          "internalType": "uint256",
          "name": "_endDate",
          "type": "uint256"
        }
      ],
      "name": "updateLockDates",
      "outputs": [],
      "stateMutability": "nonpayable",
      "type": "function"
    },
    {
      "inputs": [],
      "name": "version",
      "outputs": [
        {
          "internalType": "string",
          "name": "",
          "type": "string"
        }
      ],
      "stateMutability": "view",
      "type": "function"
    },
    {
      "inputs": [
        {
          "internalType": "address",
          "name": "_owner",
          "type": "address"
        }
      ],
      "name": "votingPowerOf",
      "outputs": [
        {
          "internalType": "uint256",
          "name": "_power",
          "type": "uint256"
        }
      ],
      "stateMutability": "view",
      "type": "function"
    },
    {
      "inputs": [
        {
          "internalType": "uint256",
          "name": "_tokenId",
          "type": "uint256"
        }
      ],
      "name": "withdraw",
      "outputs": [],
      "stateMutability": "nonpayable",
      "type": "function"
    },
    {
      "inputs": [
        {
          "internalType": "address",
          "name": "_user",
          "type": "address"
        }
      ],
      "name": "withdraw",
      "outputs": [],
      "stateMutability": "nonpayable",
      "type": "function"
    },
    {
      "inputs": [
        {
          "internalType": "uint256[]",
          "name": "_tokenIds",
          "type": "uint256[]"
        }
      ],
      "name": "withdraw",
      "outputs": [],
      "stateMutability": "nonpayable",
      "type": "function"
    }
  ],
  "transactionHash": "0xd5c13a1138f45c1be8a2d3769dd40ef0a5e089c61fb776a8927b2fe77336c615",
  "args": [],
  "numDeployments": 1,
  "solcInputHash": "415d3af1c56a6890cc49dd61027fd5fa",
  "bytecode": "0x608060405234801561001057600080fd5b506132ab806100206000396000f3fe608060405234801561001057600080fd5b506004361061025c5760003560e01c8063626944df11610145578063b2383e55116100bd578063c87b56dd1161008c578063d60371a711610071578063d60371a714610562578063e7e242d414610575578063e985e9c51461059857600080fd5b8063c87b56dd1461052e578063d1c2babb1461054f57600080fd5b8063b2383e55146104af578063b45a3c0e146104c2578063b88d4fde14610508578063bcc3f3bd1461051b57600080fd5b806395d89b41116101145780639d507b8b116100f95780639d507b8b14610476578063a0b87f3e14610489578063a22cb4651461049c57600080fd5b806395d89b411461045b578063983d95ce1461046357600080fd5b8063626944df146104015780636352211e146104245780636f307dc31461043757806370a082311461044857600080fd5b80632e1a7d4d116101d8578063485cc955116101a75780634f6ccce71161018c5780634f6ccce7146103d357806351cff8d9146103e657806354fd4d50146103f957600080fd5b8063485cc955146103ad5780634cf088d9146103c057600080fd5b80632e1a7d4d146103555780632f745c5914610368578063313ce5671461037b57806342842e0e1461039a57600080fd5b8063095ea7b31161022f5780630ec84dda116102145780630ec84dda1461030857806318160ddd1461031b57806323b872dd1461034257600080fd5b8063095ea7b3146102e05780630a2abdb3146102f557600080fd5b806301ffc9a714610261578063047fc9aa1461028957806306fdde03146102a0578063081812fc146102b5575b600080fd5b61027461026f366004612bd1565b6105f3565b60405190151581526020015b60405180910390f35b61029260025481565b604051908152602001610280565b6102a8610604565b6040516102809190612c34565b6102c86102c3366004612c47565b6106ba565b6040516001600160a01b039091168152602001610280565b6102f36102ee366004612c7c565b610702565b005b610292610303366004612cb4565b610711565b6102f3610316366004612cfc565b61075a565b7f645e039705490088daad89bae25049a34f4a9072d398537b1ab2425f24cbed0254610292565b6102f3610350366004612d1e565b6108bb565b6102f3610363366004612c47565b61095f565b610292610376366004612c7c565b610c09565b6004546103889060ff1681565b60405160ff9091168152602001610280565b6102f36103a8366004612d1e565b610c8f565b6102f36103bb366004612d5a565b610caf565b6006546102c8906001600160a01b031681565b6102926103e1366004612c47565b610e5f565b6102f36103f4366004612d8d565b610efb565b6102a8610f66565b61029261040f366004612c47565b60009081526008602052604090206001015490565b6102c8610432366004612c47565b610ff4565b6007546001600160a01b03166102c8565b610292610456366004612d8d565b610fff565b6102a8611086565b6102f3610471366004612da8565b6110d7565b6102f3610484366004612cfc565b61113f565b6102f3610497366004612e1d565b6113ca565b6102f36104aa366004612e49565b61148a565b6102f36104bd366004612cfc565b611495565b6104d56104d0366004612c47565b611627565b60405161028091908151815260208083015190820152604080830151908201526060918201519181019190915260800190565b6102f3610516366004612e96565b611697565b610292610529366004612d8d565b6116ae565b6102a861053c366004612c47565b5060408051602081019091526000815290565b6102f361055d366004612cfc565b611709565b610292610570366004612f72565b61190b565b610292610583366004612c47565b60009081526008602052604090206003015490565b6102746105a6366004612d5a565b6001600160a01b0391821660009081527f80bb2b638cc20bc4d0a60d66940f3ab4a00c1d7b313497ca82fb0b4ab00793056020908152604080832093909416825291909152205460ff1690565b60006105fe82611953565b92915050565b7f80bb2b638cc20bc4d0a60d66940f3ab4a00c1d7b313497ca82fb0b4ab0079300805460609190819061063690612fab565b80601f016020809104026020016040519081016040528092919081815260200182805461066290612fab565b80156106af5780601f10610684576101008083540402835291602001916106af565b820191906000526020600020905b81548152906001019060200180831161069257829003601f168201915b505050505091505090565b60006106c582611991565b5060008281527f80bb2b638cc20bc4d0a60d66940f3ab4a00c1d7b313497ca82fb0b4ab007930460205260409020546001600160a01b03166105fe565b61070d8282336119e9565b5050565b600061071b6119f6565b61072785858585611a59565b905061075260017f9b779b17422d0df92223018b32b4d1fa46e071723d6817e2486d003becc55f0055565b949350505050565b6107626119f6565b6000828152600860209081526040918290208251608081018452815481526001820154928101929092526002810154928201929092526003909101546060820152816107e15760405162461bcd60e51b8152602060048201526009602482015268076616c7565203d20360bc1b60448201526064015b60405180910390fd5b805161082f5760405162461bcd60e51b815260206004820152601660248201527f4e6f206578697374696e67206c6f636b20666f756e640000000000000000000060448201526064016107d8565b428160200151116108825760405162461bcd60e51b815260206004820152601b60248201527f43616e6e6f742061646420746f2065787069726564206c6f636b2e000000000060448201526064016107d8565b61089183836000846000611cc8565b5061070d60017f9b779b17422d0df92223018b32b4d1fa46e071723d6817e2486d003becc55f0055565b6001600160a01b0382166108e557604051633250574960e11b8152600060048201526024016107d8565b60006108f2838333611f62565b9050836001600160a01b0316816001600160a01b031614610959576040517f64283d7b0000000000000000000000000000000000000000000000000000000081526001600160a01b03808616600483015260248201849052821660448201526064016107d8565b50505050565b6109676119f6565b61097a61097382610ff4565b338361206d565b6109c65760405162461bcd60e51b815260206004820181905260248201527f63616c6c6572206973206e6f74206f776e6572206e6f7220617070726f76656460448201526064016107d8565b6000818152600860209081526040918290208251608081018452815481526001820154928101839052600282015493810193909352600301546060830152421015610a535760405162461bcd60e51b815260206004820152601660248201527f546865206c6f636b206469646e2774206578706972650000000000000000000060448201526064016107d8565b805160408051608081018252600080825260208083018281528385018381526060850184815289855260089093529490922092518355905160018301559151600280830191909155915160039091015554610aae8282612ff5565b6002556007546040517fa9059cbb000000000000000000000000000000000000000000000000000000008152336004820152602481018490526001600160a01b039091169063a9059cbb906044016020604051808303816000875af1158015610b1b573d6000803e3d6000fd5b505050506040513d601f19601f82011682018060405250810190610b3f9190613008565b610b4b57610b4b613025565b610b548461212e565b60408051858152602081018490524281830152905133917f02f25270a4d87bea75db541cdfe559334a275b4a233520ed6c0a2429667cca94919081900360600190a27f5e2aa66efd74cce82b21852e317e5490d9ecc9e6bb953ae24d90851258cc2f5c81610bc28482612ff5565b6040805192835260208301919091520160405180910390a1505050610c0660017f9b779b17422d0df92223018b32b4d1fa46e071723d6817e2486d003becc55f0055565b50565b60007f645e039705490088daad89bae25049a34f4a9072d398537b1ab2425f24cbed00610c3584610fff565b8310610c665760405163295f44f760e21b81526001600160a01b0385166004820152602481018490526044016107d8565b6001600160a01b0384166000908152602091825260408082208583529092522054905092915050565b610caa83838360405180602001604052806000815250611697565b505050565b7ff0c57e16840df040f15088dc2f81fe391c3923bec73e23a9662efc9c229c6a00805468010000000000000000810460ff16159067ffffffffffffffff16600081158015610cfa5750825b905060008267ffffffffffffffff166001148015610d175750303b155b905081158015610d25575080155b15610d5c576040517ff92ee8a900000000000000000000000000000000000000000000000000000000815260040160405180910390fd5b845467ffffffffffffffff191660011785558315610d9057845468ff00000000000000001916680100000000000000001785555b610e0b6040518060400160405280601281526020017f4c6f636b6564204d41484120546f6b656e7300000000000000000000000000008152506040518060400160405280600581526020017f4d414841580000000000000000000000000000000000000000000000000000008152508989630784ce00612169565b8315610e5657845468ff000000000000000019168555604051600181527fc7f505b2f371ae2175ee4913f4499e1f2633a7b5936321eed1cdaeb6115181d29060200160405180910390a15b50505050505050565b60007f645e039705490088daad89bae25049a34f4a9072d398537b1ab2425f24cbed00610eaa7f645e039705490088daad89bae25049a34f4a9072d398537b1ab2425f24cbed025490565b8310610ed35760405163295f44f760e21b815260006004820152602481018490526044016107d8565b806002018381548110610ee857610ee861303b565b9060005260206000200154915050919050565b610f036119f6565b6000610f0e82610fff565b905060005b81811015610f3b576000610f278483610c09565b9050610f328161095f565b50600101610f13565b5050610c0660017f9b779b17422d0df92223018b32b4d1fa46e071723d6817e2486d003becc55f0055565b60038054610f7390612fab565b80601f0160208091040260200160405190810160405280929190818152602001828054610f9f90612fab565b8015610fec5780601f10610fc157610100808354040283529160200191610fec565b820191906000526020600020905b815481529060010190602001808311610fcf57829003601f168201915b505050505081565b60006105fe82611991565b60007f80bb2b638cc20bc4d0a60d66940f3ab4a00c1d7b313497ca82fb0b4ab00793006001600160a01b038316611065576040517f89c62b64000000000000000000000000000000000000000000000000000000008152600060048201526024016107d8565b6001600160a01b039092166000908152600390920160205250604090205490565b7f80bb2b638cc20bc4d0a60d66940f3ab4a00c1d7b313497ca82fb0b4ab007930180546060917f80bb2b638cc20bc4d0a60d66940f3ab4a00c1d7b313497ca82fb0b4ab00793009161063690612fab565b6110df6119f6565b8060005b818110156111145761110c8484838181106111005761110061303b565b9050602002013561095f565b6001016110e3565b505061070d60017f9b779b17422d0df92223018b32b4d1fa46e071723d6817e2486d003becc55f0055565b6111476119f6565b61115a61115383610ff4565b338461206d565b6111a65760405162461bcd60e51b815260206004820181905260248201527f63616c6c6572206973206e6f74206f776e6572206e6f7220617070726f76656460448201526064016107d8565b60008281526008602090815260408083208151608081018352815481526001820154938101939093526002810154918301919091526003015460608201528154909190806111f48542613051565b6111fe9190613064565b6112089190613086565b90504282602001511161125d5760405162461bcd60e51b815260206004820152600c60248201527f4c6f636b2065787069726564000000000000000000000000000000000000000060448201526064016107d8565b81516112ab5760405162461bcd60e51b815260206004820152601160248201527f4e6f7468696e67206973206c6f636b656400000000000000000000000000000060448201526064016107d8565b816020015181116112fe5760405162461bcd60e51b815260206004820152601f60248201527f43616e206f6e6c7920696e637265617365206c6f636b206475726174696f6e0060448201526064016107d8565b60015461130b9042613051565b81111561135a5760405162461bcd60e51b815260206004820152601e60248201527f566f74696e67206c6f636b2063616e2062652034207965617273206d6178000060448201526064016107d8565b600154826040015161136c9190613051565b8111156113bb5760405162461bcd60e51b815260206004820152601e60248201527f566f74696e67206c6f636b2063616e2062652034207965617273206d6178000060448201526064016107d8565b61111484600083856003611cc8565b6006546001600160a01b031633146114245760405162461bcd60e51b815260206004820152600960248201527f215f7374616b696e67000000000000000000000000000000000000000000000060448201526064016107d8565b6000838152600860209081526040918290206002810185905560018101849055825160808101845281548152918201849052918101849052600390910154606082015261147090612227565b600093845260086020526040909320600301929092555050565b61070d338383612259565b61149d6119f6565b60008281527f80bb2b638cc20bc4d0a60d66940f3ab4a00c1d7b313497ca82fb0b4ab007930260205260409020546114dd906001600160a01b0316611153565b6115295760405162461bcd60e51b815260206004820181905260248201527f63616c6c6572206973206e6f74206f776e6572206e6f7220617070726f76656460448201526064016107d8565b60008281526008602090815260409182902082516080810184528154815260018201549281019290925260028101549282019290925260039091015460608201528161157757611577613025565b80516115c55760405162461bcd60e51b815260206004820152601660248201527f4e6f206578697374696e67206c6f636b20666f756e640000000000000000000060448201526064016107d8565b428160200151116116185760405162461bcd60e51b815260206004820152601b60248201527f43616e6e6f742061646420746f2065787069726564206c6f636b2e000000000060448201526064016107d8565b61089183836000846002611cc8565b6116526040518060800160405280600081526020016000815260200160008152602001600081525090565b50600090815260086020908152604091829020825160808101845281548152600182015492810192909252600281015492820192909252600390910154606082015290565b6116a28484846108bb565b61095984848484612335565b6000805b6116bb83610fff565b8110156117035760006116ce8483610c09565b6000818152600860205260409020600301549091506116ed9084613051565b92505080806116fb9061309d565b9150506116b2565b50919050565b8082036117585760405162461bcd60e51b815260206004820152600860248201527f73616d65206e667400000000000000000000000000000000000000000000000060448201526064016107d8565b61176461115383610ff4565b6117b05760405162461bcd60e51b815260206004820152601160248201527f66726f6d206e6f7420617070726f76656400000000000000000000000000000060448201526064016107d8565b6117bc61097382610ff4565b6118085760405162461bcd60e51b815260206004820152600f60248201527f746f206e6f7420617070726f766564000000000000000000000000000000000060448201526064016107d8565b600082815260086020818152604080842081516080808201845282548252600180840154838701908152600280860154858801526003958601546060808701919091528b8b52988852868a20875194850188528054855292830154978401889052820154958301959095529092015494820194909452835191519394909391929091101561189a5782602001516118a0565b83602001515b6040805160808101825260008082526020808301828152838501838152606085018481528d8552600890935294909220925183559051600183015591516002820155905160039091015590506118f58661212e565b611903858383866004611cc8565b505050505050565b60006119156119f6565b61192184843385611a59565b905061194c60017f9b779b17422d0df92223018b32b4d1fa46e071723d6817e2486d003becc55f0055565b9392505050565b60006001600160e01b031982167f780e9d630000000000000000000000000000000000000000000000000000000014806105fe57506105fe82612457565b60008181527f80bb2b638cc20bc4d0a60d66940f3ab4a00c1d7b313497ca82fb0b4ab007930260205260408120546001600160a01b0316806105fe57604051637e27328960e01b8152600481018490526024016107d8565b610caa83838360016124f2565b7f9b779b17422d0df92223018b32b4d1fa46e071723d6817e2486d003becc55f00805460011901611a53576040517f3ee5aeb500000000000000000000000000000000000000000000000000000000815260040160405180910390fd5b60029055565b60008054819080611a6a8742613051565b611a749190613064565b611a7e9190613086565b905060008611611abc5760405162461bcd60e51b8152602060048201526009602482015268076616c7565203d20360bc1b60448201526064016107d8565b428111611b0b5760405162461bcd60e51b815260206004820152601b60248201527f43616e206f6e6c79206c6f636b20696e2074686520667574757265000000000060448201526064016107d8565b600154611b189042613051565b811115611b675760405162461bcd60e51b815260206004820152601e60248201527f566f74696e67206c6f636b2063616e2062652034207965617273206d6178000060448201526064016107d8565b600560008154611b769061309d565b9091555060055460008181526008602090815260409182902082516080810184528154815260018083015493820193909352600282015493810193909352600301546060830152611bcc9183918a918691611cc8565b8315611c8e57611bdc308261267e565b6040805185151560208201526001600160a01b038781168284015260608083018a90528351808403909101815260808301938490526006547fb88d4fde0000000000000000000000000000000000000000000000000000000090945292309263b88d4fde92611c56928592911690879087906084016130b6565b600060405180830381600087803b158015611c7057600080fd5b505af1158015611c84573d6000803e3d6000fd5b5050505050611c98565b611c98858261267e565b9695505050505050565b60017f9b779b17422d0df92223018b32b4d1fa46e071723d6817e2486d003becc55f0055565b6002548290611cd78682613051565b600281905550611d086040518060800160405280600081526020016000815260200160008152602001600081525090565b825160208085015160608087015190850152908301528152825187908490611d31908390613051565b9052508515611d4257602083018690525b6001846004811115611d5657611d566130e8565b03611d62574260408401525b611d6b83612227565b606084019081526000898152600860209081526040918290208651815590860151600182015590850151600282015590516003909101558615801590611dc357506004846004811115611dc057611dc06130e8565b14155b15611e68576007546040517f23b872dd000000000000000000000000000000000000000000000000000000008152336004820152306024820152604481018990526001600160a01b03909116906323b872dd906064016020604051808303816000875af1158015611e38573d6000803e3d6000fd5b505050506040513d601f19601f82011682018060405250810190611e5c9190613008565b611e6857611e68613025565b8260200151336001600160a01b03167fff04ccafc360e16b67d682d17bd9503c4c6b9a131f6be6325762dc9ffc7de6248a8a8842604051611eac94939291906130fe565b60405180910390a37f5e2aa66efd74cce82b21852e317e5490d9ecc9e6bb953ae24d90851258cc2f5c82611ee08982613051565b6040805192835260208301919091520160405180910390a1604080518451815260208086015181830152858301518284015260608087015190830152825191829003608001822033835292518b93927f07066a4aac0f827032b0f1dae68893bb9ab8d4c9a98a39d2a173e0ae47421c8892908290030190a35050505050505050565b600080611f708585856126fc565b90506001600160a01b03811661200b57612006847f645e039705490088daad89bae25049a34f4a9072d398537b1ab2425f24cbed02805460008381527f645e039705490088daad89bae25049a34f4a9072d398537b1ab2425f24cbed0360205260408120829055600182018355919091527fa42f15e5d656f8155fd7419d740a6073999f19cd6e061449ce4a257150545bf20155565b61202e565b846001600160a01b0316816001600160a01b03161461202e5761202e818561284a565b6001600160a01b03851661204a5761204584612900565b610752565b846001600160a01b0316816001600160a01b0316146107525761075285856129fb565b60006001600160a01b038316158015906107525750826001600160a01b0316846001600160a01b031614806120e657506001600160a01b0380851660009081527f80bb2b638cc20bc4d0a60d66940f3ab4a00c1d7b313497ca82fb0b4ab0079305602090815260408083209387168352929052205460ff165b8061075257505060009081527f80bb2b638cc20bc4d0a60d66940f3ab4a00c1d7b313497ca82fb0b4ab007930460205260409020546001600160a01b03908116911614919050565b600061213d6000836000611f62565b90506001600160a01b03811661070d57604051637e27328960e01b8152600481018390526024016107d8565b6121738585612a68565b61217b612a7a565b60408051808201909152600581527f312e302e3000000000000000000000000000000000000000000000000000000060208201526003906121bc9082613182565b506004805460ff1916601217905562093a806000556001818155600680546001600160a01b0380861673ffffffffffffffffffffffffffffffffffffffff199283161790925560078054928716929091169190911790556122209030908490612259565b5050505050565b60006001548260000151836040015184602001516122459190612ff5565b61224f9190613086565b6105fe9190613064565b7f80bb2b638cc20bc4d0a60d66940f3ab4a00c1d7b313497ca82fb0b4ab00793006001600160a01b0383166122c5576040517f5b08ba180000000000000000000000000000000000000000000000000000000081526001600160a01b03841660048201526024016107d8565b6001600160a01b038481166000818152600584016020908152604080832094881680845294825291829020805460ff191687151590811790915591519182527f17307eab39ab6107e8899845ad3d59bd9653f200f220920489ca2b5937696c31910160405180910390a350505050565b6001600160a01b0383163b1561095957604051630a85bd0160e11b81526001600160a01b0384169063150b7a02906123779033908890879087906004016130b6565b6020604051808303816000875af19250505080156123b2575060408051601f3d908101601f191682019092526123af91810190613242565b60015b61241b573d8080156123e0576040519150601f19603f3d011682016040523d82523d6000602084013e6123e5565b606091505b50805160000361241357604051633250574960e11b81526001600160a01b03851660048201526024016107d8565b805181602001fd5b6001600160e01b03198116630a85bd0160e11b1461222057604051633250574960e11b81526001600160a01b03851660048201526024016107d8565b60006001600160e01b031982167f80ac58cd0000000000000000000000000000000000000000000000000000000014806124ba57506001600160e01b031982167f5b5e139f00000000000000000000000000000000000000000000000000000000145b806105fe57507f01ffc9a7000000000000000000000000000000000000000000000000000000006001600160e01b03198316146105fe565b7f80bb2b638cc20bc4d0a60d66940f3ab4a00c1d7b313497ca82fb0b4ab0079300818061252757506001600160a01b03831615155b1561264057600061253785611991565b90506001600160a01b038416158015906125635750836001600160a01b0316816001600160a01b031614155b80156125b457506001600160a01b0380821660009081527f80bb2b638cc20bc4d0a60d66940f3ab4a00c1d7b313497ca82fb0b4ab0079305602090815260408083209388168352929052205460ff16155b156125f6576040517fa9fbf51f0000000000000000000000000000000000000000000000000000000081526001600160a01b03851660048201526024016107d8565b821561263e5784866001600160a01b0316826001600160a01b03167f8c5be1e5ebec7d5bd14f71427d1e84f3dd0314c0f7b2291e5b200ac8c7c3b92560405160405180910390a45b505b6000938452600401602052505060409020805473ffffffffffffffffffffffffffffffffffffffff19166001600160a01b0392909216919091179055565b6001600160a01b0382166126a857604051633250574960e11b8152600060048201526024016107d8565b60006126b683836000611f62565b90506001600160a01b03811615610caa576040517f73c6ac6e000000000000000000000000000000000000000000000000000000008152600060048201526024016107d8565b60008281527f80bb2b638cc20bc4d0a60d66940f3ab4a00c1d7b313497ca82fb0b4ab007930260205260408120547f80bb2b638cc20bc4d0a60d66940f3ab4a00c1d7b313497ca82fb0b4ab0079300906001600160a01b039081169084161561276a5761276a818587612a8c565b6001600160a01b038116156127aa576127876000866000806124f2565b6001600160a01b0381166000908152600383016020526040902080546000190190555b6001600160a01b038616156127db576001600160a01b03861660009081526003830160205260409020805460010190555b6000858152600283016020526040808220805473ffffffffffffffffffffffffffffffffffffffff19166001600160a01b038a811691821790925591518893918516917fddf252ad1be2c89b69c2b068fc378daa952ba7f163c4a11628f55a4df523b3ef91a495945050505050565b7f645e039705490088daad89bae25049a34f4a9072d398537b1ab2425f24cbed00600061287684610fff565b60008481526001840160205260409020549091508082146128cb576001600160a01b03851660009081526020848152604080832085845282528083205484845281842081905583526001860190915290208190555b50600092835260018201602090815260408085208590556001600160a01b039095168452918252838320908352905290812055565b7f645e039705490088daad89bae25049a34f4a9072d398537b1ab2425f24cbed02547f645e039705490088daad89bae25049a34f4a9072d398537b1ab2425f24cbed009060009061295390600190612ff5565b600084815260038401602052604081205460028501805493945090928490811061297f5761297f61303b565b90600052602060002001549050808460020183815481106129a2576129a261303b565b6000918252602080832090910192909255828152600386019091526040808220849055868252812055600284018054806129de576129de61325f565b600190038181906000526020600020016000905590555050505050565b7f645e039705490088daad89bae25049a34f4a9072d398537b1ab2425f24cbed0060006001612a2985610fff565b612a339190612ff5565b6001600160a01b0390941660009081526020838152604080832087845282528083208690559482526001909301909252502055565b612a70612b09565b61070d8282612b70565b612a82612b09565b612a8a612bb3565b565b612a9783838361206d565b610caa576001600160a01b038316612ac557604051637e27328960e01b8152600481018290526024016107d8565b6040517f177e802f0000000000000000000000000000000000000000000000000000000081526001600160a01b0383166004820152602481018290526044016107d8565b7ff0c57e16840df040f15088dc2f81fe391c3923bec73e23a9662efc9c229c6a005468010000000000000000900460ff16612a8a576040517fd7e6bcf800000000000000000000000000000000000000000000000000000000815260040160405180910390fd5b612b78612b09565b7f80bb2b638cc20bc4d0a60d66940f3ab4a00c1d7b313497ca82fb0b4ab007930080612ba48482613182565b50600181016109598382613182565b611ca2612b09565b6001600160e01b031981168114610c0657600080fd5b600060208284031215612be357600080fd5b813561194c81612bbb565b6000815180845260005b81811015612c1457602081850181015186830182015201612bf8565b506000602082860101526020601f19601f83011685010191505092915050565b60208152600061194c6020830184612bee565b600060208284031215612c5957600080fd5b5035919050565b80356001600160a01b0381168114612c7757600080fd5b919050565b60008060408385031215612c8f57600080fd5b612c9883612c60565b946020939093013593505050565b8015158114610c0657600080fd5b60008060008060808587031215612cca57600080fd5b8435935060208501359250612ce160408601612c60565b91506060850135612cf181612ca6565b939692955090935050565b60008060408385031215612d0f57600080fd5b50508035926020909101359150565b600080600060608486031215612d3357600080fd5b612d3c84612c60565b9250612d4a60208501612c60565b9150604084013590509250925092565b60008060408385031215612d6d57600080fd5b612d7683612c60565b9150612d8460208401612c60565b90509250929050565b600060208284031215612d9f57600080fd5b61194c82612c60565b60008060208385031215612dbb57600080fd5b823567ffffffffffffffff80821115612dd357600080fd5b818501915085601f830112612de757600080fd5b813581811115612df657600080fd5b8660208260051b8501011115612e0b57600080fd5b60209290920196919550909350505050565b600080600060608486031215612e3257600080fd5b505081359360208301359350604090920135919050565b60008060408385031215612e5c57600080fd5b612e6583612c60565b91506020830135612e7581612ca6565b809150509250929050565b634e487b7160e01b600052604160045260246000fd5b60008060008060808587031215612eac57600080fd5b612eb585612c60565b9350612ec360208601612c60565b925060408501359150606085013567ffffffffffffffff80821115612ee757600080fd5b818701915087601f830112612efb57600080fd5b813581811115612f0d57612f0d612e80565b604051601f8201601f19908116603f01168101908382118183101715612f3557612f35612e80565b816040528281528a6020848701011115612f4e57600080fd5b82602086016020830137600060208483010152809550505050505092959194509250565b600080600060608486031215612f8757600080fd5b83359250602084013591506040840135612fa081612ca6565b809150509250925092565b600181811c90821680612fbf57607f821691505b60208210810361170357634e487b7160e01b600052602260045260246000fd5b634e487b7160e01b600052601160045260246000fd5b818103818111156105fe576105fe612fdf565b60006020828403121561301a57600080fd5b815161194c81612ca6565b634e487b7160e01b600052600160045260246000fd5b634e487b7160e01b600052603260045260246000fd5b808201808211156105fe576105fe612fdf565b60008261308157634e487b7160e01b600052601260045260246000fd5b500490565b80820281158282048414176105fe576105fe612fdf565b6000600182016130af576130af612fdf565b5060010190565b60006001600160a01b03808716835280861660208401525083604083015260806060830152611c986080830184612bee565b634e487b7160e01b600052602160045260246000fd5b84815260208101849052608081016005841061312a57634e487b7160e01b600052602160045260246000fd5b60408201939093526060015292915050565b601f821115610caa57600081815260208120601f850160051c810160208610156131635750805b601f850160051c820191505b818110156119035782815560010161316f565b815167ffffffffffffffff81111561319c5761319c612e80565b6131b0816131aa8454612fab565b8461313c565b602080601f8311600181146131e557600084156131cd5750858301515b600019600386901b1c1916600185901b178555611903565b600085815260208120601f198616915b82811015613214578886015182559484019460019091019084016131f5565b50858210156132325787850151600019600388901b60f8161c191681555b5050505050600190811b01905550565b60006020828403121561325457600080fd5b815161194c81612bbb565b634e487b7160e01b600052603160045260246000fdfea26469706673582212204a1d71331775686d4177533f32f2add62682900cfc419f76e7ce40fd2c63010164736f6c63430008150033",
  "devdoc": {
    "errors": {
      "ERC721EnumerableForbiddenBatchMint()": [
        {
          "details": "Batch mint is not allowed."
        }
      ],
      "ERC721IncorrectOwner(address,uint256,address)": [
        {
          "details": "Indicates an error related to the ownership over a particular token. Used in transfers.",
          "params": {
            "owner": "Address of the current owner of a token.",
            "sender": "Address whose tokens are being transferred.",
            "tokenId": "Identifier number of a token."
          }
        }
      ],
      "ERC721InsufficientApproval(address,uint256)": [
        {
          "details": "Indicates a failure with the `operator`s approval. Used in transfers.",
          "params": {
            "operator": "Address that may be allowed to operate on tokens without being their owner.",
            "tokenId": "Identifier number of a token."
          }
        }
      ],
      "ERC721InvalidApprover(address)": [
        {
          "details": "Indicates a failure with the `approver` of a token to be approved. Used in approvals.",
          "params": {
            "approver": "Address initiating an approval operation."
          }
        }
      ],
      "ERC721InvalidOperator(address)": [
        {
          "details": "Indicates a failure with the `operator` to be approved. Used in approvals.",
          "params": {
            "operator": "Address that may be allowed to operate on tokens without being their owner."
          }
        }
      ],
      "ERC721InvalidOwner(address)": [
        {
          "details": "Indicates that an address can't be an owner. For example, `address(0)` is a forbidden owner in EIP-20. Used in balance queries.",
          "params": {
            "owner": "Address of the current owner of a token."
          }
        }
      ],
      "ERC721InvalidReceiver(address)": [
        {
          "details": "Indicates a failure with the token `receiver`. Used in transfers.",
          "params": {
            "receiver": "Address to which tokens are being transferred."
          }
        }
      ],
      "ERC721InvalidSender(address)": [
        {
          "details": "Indicates a failure with the token `sender`. Used in transfers.",
          "params": {
            "sender": "Address whose tokens are being transferred."
          }
        }
      ],
      "ERC721NonexistentToken(uint256)": [
        {
          "details": "Indicates a `tokenId` whose `owner` is the zero address.",
          "params": {
            "tokenId": "Identifier number of a token."
          }
        }
      ],
      "ERC721OutOfBoundsIndex(address,uint256)": [
        {
          "details": "An `owner`'s token query was out of bounds for `index`. NOTE: The owner being `address(0)` indicates a global out of bounds index."
        }
      ],
      "InvalidInitialization()": [
        {
          "details": "The contract is already initialized."
        }
      ],
      "NotInitializing()": [
        {
          "details": "The contract is not initializing."
        }
      ],
      "ReentrancyGuardReentrantCall()": [
        {
          "details": "Unauthorized reentrant call."
        }
      ]
    },
    "events": {
      "Approval(address,address,uint256)": {
        "details": "Emitted when `owner` enables `approved` to manage the `tokenId` token."
      },
      "ApprovalForAll(address,address,bool)": {
        "details": "Emitted when `owner` enables or disables (`approved`) `operator` to manage all of its assets."
      },
      "Initialized(uint64)": {
        "details": "Triggered when the contract has been initialized or reinitialized."
      },
      "Transfer(address,address,uint256)": {
        "details": "Emitted when `tokenId` token is transferred from `from` to `to`."
      }
    },
    "kind": "dev",
    "methods": {
      "approve(address,uint256)": {
        "details": "See {IERC721-approve}."
      },
      "balanceOf(address)": {
        "details": "See {IERC721-balanceOf}."
      },
      "balanceOfNFT(uint256)": {
        "params": {
          "_tokenId": "The NFT ID"
        },
        "returns": {
          "_0": "The balance of the NFT"
        }
      },
      "createLock(uint256,uint256,bool)": {
        "params": {
          "_lockDuration": "Number of seconds to lock tokens for (rounded down to nearest week)",
          "_stakeNFT": "Should we also stake the NFT as well?",
          "_value": "Amount to deposit"
        }
      },
      "createLockFor(uint256,uint256,address,bool)": {
        "params": {
          "_lockDuration": "Number of seconds to lock tokens for (rounded down to nearest week)",
          "_to": "Address to deposit",
          "_value": "Amount to deposit"
        }
      },
      "depositFor(uint256,uint256)": {
        "details": "Anyone (even a smart contract) can deposit for someone else, but      cannot extend their locktime and deposit for a brand new user",
        "params": {
          "_tokenId": "lock NFT",
          "_value": "Amount to add to user's lock"
        }
      },
      "getApproved(uint256)": {
        "details": "See {IERC721-getApproved}."
      },
      "increaseAmount(uint256,uint256)": {
        "params": {
          "_value": "Amount of tokens to deposit and add to the lock"
        }
      },
      "increaseUnlockTime(uint256,uint256)": {
        "params": {
          "_lockDuration": "New number of seconds until tokens unlock"
        }
      },
      "isApprovedForAll(address,address)": {
        "details": "See {IERC721-isApprovedForAll}."
      },
      "locked(uint256)": {
        "params": {
          "_tokenId": "The NFT ID"
        },
        "returns": {
          "_0": "The LockedBalance struct containing lock details"
        }
      },
      "lockedEnd(uint256)": {
        "params": {
          "_tokenId": "User NFT"
        },
        "returns": {
          "_0": "Epoch time of the lock end"
        }
      },
      "merge(uint256,uint256)": {
        "params": {
          "_from": "The ID of the NFT to merge from",
          "_to": "The ID of the NFT to merge into"
        }
      },
      "name()": {
        "details": "See {IERC721Metadata-name}."
      },
      "ownerOf(uint256)": {
        "details": "See {IERC721-ownerOf}."
      },
      "safeTransferFrom(address,address,uint256)": {
        "details": "See {IERC721-safeTransferFrom}."
      },
      "safeTransferFrom(address,address,uint256,bytes)": {
        "details": "See {IERC721-safeTransferFrom}."
      },
      "setApprovalForAll(address,bool)": {
        "details": "See {IERC721-setApprovalForAll}."
      },
      "supportsInterface(bytes4)": {
        "details": "Interface identification is specified in ERC-165.",
        "params": {
          "_interfaceID": "Id of the interface"
        }
      },
      "symbol()": {
        "details": "See {IERC721Metadata-symbol}."
      },
      "tokenByIndex(uint256)": {
        "details": "See {IERC721Enumerable-tokenByIndex}."
      },
      "tokenOfOwnerByIndex(address,uint256)": {
        "details": "See {IERC721Enumerable-tokenOfOwnerByIndex}."
      },
      "totalSupply()": {
        "details": "See {IERC721Enumerable-totalSupply}."
      },
      "transferFrom(address,address,uint256)": {
        "details": "See {IERC721-transferFrom}."
      },
      "underlying()": {
        "returns": {
          "_0": "The ERC20 token contract"
        }
      },
      "updateLockDates(uint256,uint256,uint256)": {
        "details": "This function can only be called by the staking contract",
        "params": {
          "_id": "The lock id",
          "_startDate": "The new start date"
        }
      },
      "votingPowerOf(address)": {
        "details": "Returns the voting power of the `_owner`.      Throws if `_owner` is the zero address. NFTs assigned to the zero address are considered invalid.",
        "params": {
          "_owner": "Address for whom to query the voting power of."
        }
      },
      "withdraw(address)": {
        "params": {
          "_user": "The address of the user"
        }
      },
      "withdraw(uint256)": {
        "details": "Only possible if the lock has expired"
      },
      "withdraw(uint256[])": {
        "params": {
          "_tokenIds": "An array of NFT IDs"
        }
      }
    },
    "version": 1
  },
  "userdoc": {
    "kind": "user",
    "methods": {
      "balanceOfNFT(uint256)": {
        "notice": "Get the balance associated with an NFT"
      },
      "createLock(uint256,uint256,bool)": {
        "notice": "Deposit `_value` tokens for `msg.sender` and lock for `_lockDuration`"
      },
      "createLockFor(uint256,uint256,address,bool)": {
        "notice": "Deposit `_value` tokens for `_to` and lock for `_lockDuration`"
      },
      "depositFor(uint256,uint256)": {
        "notice": "Deposit `_value` tokens for `_tokenId` and add to the lock"
      },
      "increaseAmount(uint256,uint256)": {
        "notice": "Deposit `_value` additional tokens for `_tokenId` without modifying the unlock time"
      },
      "increaseUnlockTime(uint256,uint256)": {
        "notice": "Extend the unlock time for `_tokenId`"
      },
      "locked(uint256)": {
        "notice": "Get the locked balance details of an NFT"
      },
      "lockedEnd(uint256)": {
        "notice": "Get timestamp when `_tokenId`'s lock finishes"
      },
      "merge(uint256,uint256)": {
        "notice": "Merge two NFTs into one"
      },
      "underlying()": {
        "notice": "Get the underlying ERC20 token"
      },
      "updateLockDates(uint256,uint256,uint256)": {
        "notice": "Update the start date of a lock"
      },
      "withdraw(address)": {
        "notice": "Withdraw tokens for a specific user"
      },
      "withdraw(uint256)": {
        "notice": "Withdraw all tokens for `_tokenId`"
      },
      "withdraw(uint256[])": {
        "notice": "Withdraw tokens from multiple NFTs"
      }
    },
    "version": 1
  },
  "storageLayout": {
    "storage": [
      {
        "astId": 30518,
        "contract": "contracts/governance/locker/LockerToken.sol:LockerToken",
        "label": "WEEK",
        "offset": 0,
        "slot": "0",
        "type": "t_uint256"
      },
      {
        "astId": 30520,
        "contract": "contracts/governance/locker/LockerToken.sol:LockerToken",
        "label": "MAXTIME",
        "offset": 0,
        "slot": "1",
        "type": "t_uint256"
      },
      {
        "astId": 30522,
        "contract": "contracts/governance/locker/LockerToken.sol:LockerToken",
        "label": "supply",
        "offset": 0,
        "slot": "2",
        "type": "t_uint256"
      },
      {
        "astId": 30524,
        "contract": "contracts/governance/locker/LockerToken.sol:LockerToken",
        "label": "version",
        "offset": 0,
        "slot": "3",
        "type": "t_string_storage"
      },
      {
        "astId": 30526,
        "contract": "contracts/governance/locker/LockerToken.sol:LockerToken",
        "label": "decimals",
        "offset": 0,
        "slot": "4",
        "type": "t_uint8"
      },
      {
        "astId": 30529,
        "contract": "contracts/governance/locker/LockerToken.sol:LockerToken",
        "label": "tokenId",
        "offset": 0,
        "slot": "5",
        "type": "t_uint256"
      },
      {
        "astId": 30532,
        "contract": "contracts/governance/locker/LockerToken.sol:LockerToken",
        "label": "staking",
        "offset": 0,
        "slot": "6",
        "type": "t_contract(IOmnichainStaking)36566"
      },
      {
        "astId": 30535,
        "contract": "contracts/governance/locker/LockerToken.sol:LockerToken",
        "label": "_underlying",
        "offset": 0,
        "slot": "7",
        "type": "t_contract(IERC20)15836"
      },
      {
        "astId": 30540,
        "contract": "contracts/governance/locker/LockerToken.sol:LockerToken",
        "label": "_locked",
        "offset": 0,
        "slot": "8",
        "type": "t_mapping(t_uint256,t_struct(LockedBalance)36196_storage)"
      }
    ],
    "types": {
      "t_contract(IERC20)15836": {
        "encoding": "inplace",
        "label": "contract IERC20",
        "numberOfBytes": "20"
      },
      "t_contract(IOmnichainStaking)36566": {
        "encoding": "inplace",
        "label": "contract IOmnichainStaking",
        "numberOfBytes": "20"
      },
      "t_mapping(t_uint256,t_struct(LockedBalance)36196_storage)": {
        "encoding": "mapping",
        "key": "t_uint256",
        "label": "mapping(uint256 => struct ILocker.LockedBalance)",
        "numberOfBytes": "32",
        "value": "t_struct(LockedBalance)36196_storage"
      },
      "t_string_storage": {
        "encoding": "bytes",
        "label": "string",
        "numberOfBytes": "32"
      },
      "t_struct(LockedBalance)36196_storage": {
        "encoding": "inplace",
        "label": "struct ILocker.LockedBalance",
        "members": [
          {
            "astId": 36189,
            "contract": "contracts/governance/locker/LockerToken.sol:LockerToken",
            "label": "amount",
            "offset": 0,
            "slot": "0",
            "type": "t_uint256"
          },
          {
            "astId": 36191,
            "contract": "contracts/governance/locker/LockerToken.sol:LockerToken",
            "label": "end",
            "offset": 0,
            "slot": "1",
            "type": "t_uint256"
          },
          {
            "astId": 36193,
            "contract": "contracts/governance/locker/LockerToken.sol:LockerToken",
            "label": "start",
            "offset": 0,
            "slot": "2",
            "type": "t_uint256"
          },
          {
            "astId": 36195,
            "contract": "contracts/governance/locker/LockerToken.sol:LockerToken",
            "label": "power",
            "offset": 0,
            "slot": "3",
            "type": "t_uint256"
          }
        ],
        "numberOfBytes": "128"
      },
      "t_uint256": {
        "encoding": "inplace",
        "label": "uint256",
        "numberOfBytes": "32"
      },
      "t_uint8": {
        "encoding": "inplace",
        "label": "uint8",
        "numberOfBytes": "1"
      }
    }
  }
}