{
  "address": "0x27E28cdaF5847d6928f29e145Bc5C76181f469Bf",
  "abi": [
    {
      "inputs": [],
      "name": "ERC721EnumerableForbiddenBatchMint",
      "type": "error"
    },
    {
      "inputs": [
        {
          "internalType": "address",
          "name": "sender",
          "type": "address"
        },
        {
          "internalType": "uint256",
          "name": "tokenId",
          "type": "uint256"
        },
        {
          "internalType": "address",
          "name": "owner",
          "type": "address"
        }
      ],
      "name": "ERC721IncorrectOwner",
      "type": "error"
    },
    {
      "inputs": [
        {
          "internalType": "address",
          "name": "operator",
          "type": "address"
        },
        {
          "internalType": "uint256",
          "name": "tokenId",
          "type": "uint256"
        }
      ],
      "name": "ERC721InsufficientApproval",
      "type": "error"
    },
    {
      "inputs": [
        {
          "internalType": "address",
          "name": "approver",
          "type": "address"
        }
      ],
      "name": "ERC721InvalidApprover",
      "type": "error"
    },
    {
      "inputs": [
        {
          "internalType": "address",
          "name": "operator",
          "type": "address"
        }
      ],
      "name": "ERC721InvalidOperator",
      "type": "error"
    },
    {
      "inputs": [
        {
          "internalType": "address",
          "name": "owner",
          "type": "address"
        }
      ],
      "name": "ERC721InvalidOwner",
      "type": "error"
    },
    {
      "inputs": [
        {
          "internalType": "address",
          "name": "receiver",
          "type": "address"
        }
      ],
      "name": "ERC721InvalidReceiver",
      "type": "error"
    },
    {
      "inputs": [
        {
          "internalType": "address",
          "name": "sender",
          "type": "address"
        }
      ],
      "name": "ERC721InvalidSender",
      "type": "error"
    },
    {
      "inputs": [
        {
          "internalType": "uint256",
          "name": "tokenId",
          "type": "uint256"
        }
      ],
      "name": "ERC721NonexistentToken",
      "type": "error"
    },
    {
      "inputs": [
        {
          "internalType": "address",
          "name": "owner",
          "type": "address"
        },
        {
          "internalType": "uint256",
          "name": "index",
          "type": "uint256"
        }
      ],
      "name": "ERC721OutOfBoundsIndex",
      "type": "error"
    },
    {
      "inputs": [],
      "name": "InvalidInitialization",
      "type": "error"
    },
    {
      "inputs": [],
      "name": "NotInitializing",
      "type": "error"
    },
    {
      "inputs": [],
      "name": "ReentrancyGuardReentrantCall",
      "type": "error"
    },
    {
      "anonymous": false,
      "inputs": [
        {
          "indexed": true,
          "internalType": "address",
          "name": "owner",
          "type": "address"
        },
        {
          "indexed": true,
          "internalType": "address",
          "name": "approved",
          "type": "address"
        },
        {
          "indexed": true,
          "internalType": "uint256",
          "name": "tokenId",
          "type": "uint256"
        }
      ],
      "name": "Approval",
      "type": "event"
    },
    {
      "anonymous": false,
      "inputs": [
        {
          "indexed": true,
          "internalType": "address",
          "name": "owner",
          "type": "address"
        },
        {
          "indexed": true,
          "internalType": "address",
          "name": "operator",
          "type": "address"
        },
        {
          "indexed": false,
          "internalType": "bool",
          "name": "approved",
          "type": "bool"
        }
      ],
      "name": "ApprovalForAll",
      "type": "event"
    },
    {
      "anonymous": false,
      "inputs": [
        {
          "indexed": true,
          "internalType": "address",
          "name": "provider",
          "type": "address"
        },
        {
          "indexed": false,
          "internalType": "uint256",
          "name": "tokenId",
          "type": "uint256"
        },
        {
          "indexed": false,
          "internalType": "uint256",
          "name": "value",
          "type": "uint256"
        },
        {
          "indexed": true,
          "internalType": "uint256",
          "name": "locktime",
          "type": "uint256"
        },
        {
          "indexed": false,
          "internalType": "enum ILocker.DepositType",
          "name": "deposit_type",
          "type": "uint8"
        },
        {
          "indexed": false,
          "internalType": "uint256",
          "name": "ts",
          "type": "uint256"
        }
      ],
      "name": "Deposit",
      "type": "event"
    },
    {
      "anonymous": false,
      "inputs": [
        {
          "indexed": false,
          "internalType": "uint64",
          "name": "version",
          "type": "uint64"
        }
      ],
      "name": "Initialized",
      "type": "event"
    },
    {
      "anonymous": false,
      "inputs": [
        {
          "components": [
            {
              "internalType": "uint256",
              "name": "amount",
              "type": "uint256"
            },
            {
              "internalType": "uint256",
              "name": "end",
              "type": "uint256"
            },
            {
              "internalType": "uint256",
              "name": "start",
              "type": "uint256"
            },
            {
              "internalType": "uint256",
              "name": "power",
              "type": "uint256"
            }
          ],
          "indexed": true,
          "internalType": "struct ILocker.LockedBalance",
          "name": "lock",
          "type": "tuple"
        },
        {
          "indexed": true,
          "internalType": "uint256",
          "name": "tokenId",
          "type": "uint256"
        },
        {
          "indexed": false,
          "internalType": "address",
          "name": "caller",
          "type": "address"
        }
      ],
      "name": "LockUpdated",
      "type": "event"
    },
    {
      "anonymous": false,
      "inputs": [
        {
          "indexed": true,
          "internalType": "address",
          "name": "oldStaking",
          "type": "address"
        },
        {
          "indexed": true,
          "internalType": "address",
          "name": "newStaking",
          "type": "address"
        }
      ],
      "name": "StakingAddressSet",
      "type": "event"
    },
    {
      "anonymous": false,
      "inputs": [
        {
          "indexed": true,
          "internalType": "address",
          "name": "oldStakingBonus",
          "type": "address"
        },
        {
          "indexed": true,
          "internalType": "address",
          "name": "newStakingBonus",
          "type": "address"
        }
      ],
      "name": "StakingBonusAddressSet",
      "type": "event"
    },
    {
      "anonymous": false,
      "inputs": [
        {
          "indexed": false,
          "internalType": "uint256",
          "name": "prevSupply",
          "type": "uint256"
        },
        {
          "indexed": false,
          "internalType": "uint256",
          "name": "supply",
          "type": "uint256"
        }
      ],
      "name": "Supply",
      "type": "event"
    },
    {
      "anonymous": false,
      "inputs": [
        {
          "indexed": true,
          "internalType": "address",
          "name": "oldToken",
          "type": "address"
        },
        {
          "indexed": true,
          "internalType": "address",
          "name": "newToken",
          "type": "address"
        }
      ],
      "name": "TokenAddressSet",
      "type": "event"
    },
    {
      "anonymous": false,
      "inputs": [
        {
          "indexed": true,
          "internalType": "address",
          "name": "from",
          "type": "address"
        },
        {
          "indexed": true,
          "internalType": "address",
          "name": "to",
          "type": "address"
        },
        {
          "indexed": true,
          "internalType": "uint256",
          "name": "tokenId",
          "type": "uint256"
        }
      ],
      "name": "Transfer",
      "type": "event"
    },
    {
      "anonymous": false,
      "inputs": [
        {
          "indexed": true,
          "internalType": "address",
          "name": "provider",
          "type": "address"
        },
        {
          "indexed": false,
          "internalType": "uint256",
          "name": "tokenId",
          "type": "uint256"
        },
        {
          "indexed": false,
          "internalType": "uint256",
          "name": "value",
          "type": "uint256"
        },
        {
          "indexed": false,
          "internalType": "uint256",
          "name": "ts",
          "type": "uint256"
        }
      ],
      "name": "Withdraw",
      "type": "event"
    },
    {
      "inputs": [
        {
          "internalType": "address",
          "name": "to",
          "type": "address"
        },
        {
          "internalType": "uint256",
          "name": "tokenId",
          "type": "uint256"
        }
      ],
      "name": "approve",
      "outputs": [],
      "stateMutability": "nonpayable",
      "type": "function"
    },
    {
      "inputs": [
        {
          "internalType": "address",
          "name": "owner",
          "type": "address"
        }
      ],
      "name": "balanceOf",
      "outputs": [
        {
          "internalType": "uint256",
          "name": "",
          "type": "uint256"
        }
      ],
      "stateMutability": "view",
      "type": "function"
    },
    {
      "inputs": [
        {
          "internalType": "uint256",
          "name": "_tokenId",
          "type": "uint256"
        }
      ],
      "name": "balanceOfNFT",
      "outputs": [
        {
          "internalType": "uint256",
          "name": "",
          "type": "uint256"
        }
      ],
      "stateMutability": "view",
      "type": "function"
    },
    {
      "inputs": [
        {
          "internalType": "uint256",
          "name": "_value",
          "type": "uint256"
        },
        {
          "internalType": "uint256",
          "name": "_lockDuration",
          "type": "uint256"
        },
        {
          "internalType": "bool",
          "name": "_stakeNFT",
          "type": "bool"
        }
      ],
      "name": "createLock",
      "outputs": [
        {
          "internalType": "uint256",
          "name": "",
          "type": "uint256"
        }
      ],
      "stateMutability": "nonpayable",
      "type": "function"
    },
    {
      "inputs": [
        {
          "internalType": "uint256",
          "name": "_value",
          "type": "uint256"
        },
        {
          "internalType": "uint256",
          "name": "_lockDuration",
          "type": "uint256"
        },
        {
          "internalType": "address",
          "name": "_to",
          "type": "address"
        },
        {
          "internalType": "bool",
          "name": "_stakeNFT",
          "type": "bool"
        }
      ],
      "name": "createLockFor",
      "outputs": [
        {
          "internalType": "uint256",
          "name": "",
          "type": "uint256"
        }
      ],
      "stateMutability": "nonpayable",
      "type": "function"
    },
    {
      "inputs": [],
      "name": "decimals",
      "outputs": [
        {
          "internalType": "uint8",
          "name": "",
          "type": "uint8"
        }
      ],
      "stateMutability": "view",
      "type": "function"
    },
    {
      "inputs": [
        {
          "internalType": "uint256",
          "name": "_tokenId",
          "type": "uint256"
        },
        {
          "internalType": "uint256",
          "name": "_value",
          "type": "uint256"
        }
      ],
      "name": "depositFor",
      "outputs": [],
      "stateMutability": "nonpayable",
      "type": "function"
    },
    {
      "inputs": [
        {
          "internalType": "uint256",
          "name": "tokenId",
          "type": "uint256"
        }
      ],
      "name": "getApproved",
      "outputs": [
        {
          "internalType": "address",
          "name": "",
          "type": "address"
        }
      ],
      "stateMutability": "view",
      "type": "function"
    },
    {
      "inputs": [
        {
          "internalType": "uint256",
          "name": "_tokenId",
          "type": "uint256"
        },
        {
          "internalType": "uint256",
          "name": "_value",
          "type": "uint256"
        }
      ],
      "name": "increaseAmount",
      "outputs": [],
      "stateMutability": "nonpayable",
      "type": "function"
    },
    {
      "inputs": [
        {
          "internalType": "uint256",
          "name": "_tokenId",
          "type": "uint256"
        },
        {
          "internalType": "uint256",
          "name": "_lockDuration",
          "type": "uint256"
        }
      ],
      "name": "increaseUnlockTime",
      "outputs": [],
      "stateMutability": "nonpayable",
      "type": "function"
    },
    {
      "inputs": [
        {
          "internalType": "address",
          "name": "_token",
          "type": "address"
        },
        {
          "internalType": "address",
          "name": "_staking",
          "type": "address"
        }
      ],
      "name": "initialize",
      "outputs": [],
      "stateMutability": "nonpayable",
      "type": "function"
    },
    {
      "inputs": [
        {
          "internalType": "address",
          "name": "owner",
          "type": "address"
        },
        {
          "internalType": "address",
          "name": "operator",
          "type": "address"
        }
      ],
      "name": "isApprovedForAll",
      "outputs": [
        {
          "internalType": "bool",
          "name": "",
          "type": "bool"
        }
      ],
      "stateMutability": "view",
      "type": "function"
    },
    {
      "inputs": [
        {
          "internalType": "uint256",
          "name": "_tokenId",
          "type": "uint256"
        }
      ],
      "name": "locked",
      "outputs": [
        {
          "components": [
            {
              "internalType": "uint256",
              "name": "amount",
              "type": "uint256"
            },
            {
              "internalType": "uint256",
              "name": "end",
              "type": "uint256"
            },
            {
              "internalType": "uint256",
              "name": "start",
              "type": "uint256"
            },
            {
              "internalType": "uint256",
              "name": "power",
              "type": "uint256"
            }
          ],
          "internalType": "struct ILocker.LockedBalance",
          "name": "",
          "type": "tuple"
        }
      ],
      "stateMutability": "view",
      "type": "function"
    },
    {
      "inputs": [
        {
          "internalType": "uint256",
          "name": "_tokenId",
          "type": "uint256"
        }
      ],
      "name": "lockedEnd",
      "outputs": [
        {
          "internalType": "uint256",
          "name": "",
          "type": "uint256"
        }
      ],
      "stateMutability": "view",
      "type": "function"
    },
    {
      "inputs": [
        {
          "internalType": "uint256",
          "name": "_from",
          "type": "uint256"
        },
        {
          "internalType": "uint256",
          "name": "_to",
          "type": "uint256"
        }
      ],
      "name": "merge",
      "outputs": [],
      "stateMutability": "nonpayable",
      "type": "function"
    },
    {
      "inputs": [],
      "name": "name",
      "outputs": [
        {
          "internalType": "string",
          "name": "",
          "type": "string"
        }
      ],
      "stateMutability": "view",
      "type": "function"
    },
    {
      "inputs": [
        {
          "internalType": "uint256",
          "name": "tokenId",
          "type": "uint256"
        }
      ],
      "name": "ownerOf",
      "outputs": [
        {
          "internalType": "address",
          "name": "",
          "type": "address"
        }
      ],
      "stateMutability": "view",
      "type": "function"
    },
    {
      "inputs": [
        {
          "internalType": "address",
          "name": "from",
          "type": "address"
        },
        {
          "internalType": "address",
          "name": "to",
          "type": "address"
        },
        {
          "internalType": "uint256",
          "name": "tokenId",
          "type": "uint256"
        }
      ],
      "name": "safeTransferFrom",
      "outputs": [],
      "stateMutability": "nonpayable",
      "type": "function"
    },
    {
      "inputs": [
        {
          "internalType": "address",
          "name": "from",
          "type": "address"
        },
        {
          "internalType": "address",
          "name": "to",
          "type": "address"
        },
        {
          "internalType": "uint256",
          "name": "tokenId",
          "type": "uint256"
        },
        {
          "internalType": "bytes",
          "name": "data",
          "type": "bytes"
        }
      ],
      "name": "safeTransferFrom",
      "outputs": [],
      "stateMutability": "nonpayable",
      "type": "function"
    },
    {
      "inputs": [
        {
          "internalType": "address",
          "name": "operator",
          "type": "address"
        },
        {
          "internalType": "bool",
          "name": "approved",
          "type": "bool"
        }
      ],
      "name": "setApprovalForAll",
      "outputs": [],
      "stateMutability": "nonpayable",
      "type": "function"
    },
    {
      "inputs": [],
      "name": "staking",
      "outputs": [
        {
          "internalType": "contract IOmnichainStaking",
          "name": "",
          "type": "address"
        }
      ],
      "stateMutability": "view",
      "type": "function"
    },
    {
      "inputs": [],
      "name": "supply",
      "outputs": [
        {
          "internalType": "uint256",
          "name": "",
          "type": "uint256"
        }
      ],
      "stateMutability": "view",
      "type": "function"
    },
    {
      "inputs": [
        {
          "internalType": "bytes4",
          "name": "_interfaceID",
          "type": "bytes4"
        }
      ],
      "name": "supportsInterface",
      "outputs": [
        {
          "internalType": "bool",
          "name": "",
          "type": "bool"
        }
      ],
      "stateMutability": "view",
      "type": "function"
    },
    {
      "inputs": [],
      "name": "symbol",
      "outputs": [
        {
          "internalType": "string",
          "name": "",
          "type": "string"
        }
      ],
      "stateMutability": "view",
      "type": "function"
    },
    {
      "inputs": [
        {
          "internalType": "uint256",
          "name": "index",
          "type": "uint256"
        }
      ],
      "name": "tokenByIndex",
      "outputs": [
        {
          "internalType": "uint256",
          "name": "",
          "type": "uint256"
        }
      ],
      "stateMutability": "view",
      "type": "function"
    },
    {
      "inputs": [
        {
          "internalType": "address",
          "name": "owner",
          "type": "address"
        },
        {
          "internalType": "uint256",
          "name": "index",
          "type": "uint256"
        }
      ],
      "name": "tokenOfOwnerByIndex",
      "outputs": [
        {
          "internalType": "uint256",
          "name": "",
          "type": "uint256"
        }
      ],
      "stateMutability": "view",
      "type": "function"
    },
    {
      "inputs": [
        {
          "internalType": "uint256",
          "name": "",
          "type": "uint256"
        }
      ],
      "name": "tokenURI",
      "outputs": [
        {
          "internalType": "string",
          "name": "",
          "type": "string"
        }
      ],
      "stateMutability": "view",
      "type": "function"
    },
    {
      "inputs": [],
      "name": "totalSupply",
      "outputs": [
        {
          "internalType": "uint256",
          "name": "",
          "type": "uint256"
        }
      ],
      "stateMutability": "view",
      "type": "function"
    },
    {
      "inputs": [
        {
          "internalType": "address",
          "name": "from",
          "type": "address"
        },
        {
          "internalType": "address",
          "name": "to",
          "type": "address"
        },
        {
          "internalType": "uint256",
          "name": "tokenId",
          "type": "uint256"
        }
      ],
      "name": "transferFrom",
      "outputs": [],
      "stateMutability": "nonpayable",
      "type": "function"
    },
    {
      "inputs": [],
      "name": "underlying",
      "outputs": [
        {
          "internalType": "contract IERC20",
          "name": "",
          "type": "address"
        }
      ],
      "stateMutability": "view",
      "type": "function"
    },
    {
      "inputs": [
        {
          "internalType": "uint256",
          "name": "_id",
          "type": "uint256"
        },
        {
          "internalType": "uint256",
          "name": "_startDate",
          "type": "uint256"
        }
      ],
      "name": "updateLockStartDate",
      "outputs": [],
      "stateMutability": "nonpayable",
      "type": "function"
    },
    {
      "inputs": [],
      "name": "version",
      "outputs": [
        {
          "internalType": "string",
          "name": "",
          "type": "string"
        }
      ],
      "stateMutability": "view",
      "type": "function"
    },
    {
      "inputs": [
        {
          "internalType": "address",
          "name": "_owner",
          "type": "address"
        }
      ],
      "name": "votingPowerOf",
      "outputs": [
        {
          "internalType": "uint256",
          "name": "_power",
          "type": "uint256"
        }
      ],
      "stateMutability": "view",
      "type": "function"
    },
    {
      "inputs": [
        {
          "internalType": "uint256",
          "name": "_tokenId",
          "type": "uint256"
        }
      ],
      "name": "withdraw",
      "outputs": [],
      "stateMutability": "nonpayable",
      "type": "function"
    },
    {
      "inputs": [
        {
          "internalType": "address",
          "name": "_user",
          "type": "address"
        }
      ],
      "name": "withdraw",
      "outputs": [],
      "stateMutability": "nonpayable",
      "type": "function"
    },
    {
      "inputs": [
        {
          "internalType": "uint256[]",
          "name": "_tokenIds",
          "type": "uint256[]"
        }
      ],
      "name": "withdraw",
      "outputs": [],
      "stateMutability": "nonpayable",
      "type": "function"
    }
  ],
  "transactionHash": "0x514f3b71ed9a1bd6da0864f9fa3eb469fe99fd65a6c28818fed303b27be252e1",
  "args": [],
  "numDeployments": 1,
  "solcInputHash": "a0df28a328fa6a13654dd5d0d8a1cc3e",
  "bytecode": "0x608060405234801561001057600080fd5b50612b2d806100206000396000f3fe608060405234801561001057600080fd5b50600436106101dc5760003560e01c8063626944df11610105578063b45a3c0e1161009d578063b45a3c0e14610405578063b6cce6091461044b578063b88d4fde1461045e578063bcc3f3bd14610471578063c87b56dd14610484578063d1c2babb146104a5578063d60371a7146104b8578063e7e242d4146104cb578063e985e9c5146104ee57600080fd5b8063626944df146103575780636352211e1461037a5780636f307dc31461038d57806370a082311461039e57806395d89b41146103b1578063983d95ce146103b95780639d507b8b146103cc578063a22cb465146103df578063b2383e55146103f257600080fd5b80632e1a7d4d116101785780632e1a7d4d146102ab5780632f745c59146102be578063313ce567146102d157806342842e0e146102f0578063485cc955146103035780634cf088d9146103165780634f6ccce71461032957806351cff8d91461033c57806354fd4d501461034f57600080fd5b806301ffc9a7146101e1578063047fc9aa1461020957806306fdde0314610220578063081812fc14610235578063095ea7b3146102555780630a2abdb31461026a5780630ec84dda1461027d57806318160ddd1461029057806323b872dd14610298575b600080fd5b6101f46101ef36600461235b565b610501565b60405190151581526020015b60405180910390f35b61021260025481565b604051908152602001610200565b610228610512565b60405161020091906123be565b6102486102433660046123d1565b6105b3565b60405161020091906123ea565b61026861026336600461241a565b6105c8565b005b610212610278366004612452565b6105d7565b61026861028b36600461249a565b6105ff565b6102126106c7565b6102686102a63660046124bc565b6106dc565b6102686102b93660046123d1565b610767565b6102126102cc36600461241a565b6109a0565b6004546102de9060ff1681565b60405160ff9091168152602001610200565b6102686102fe3660046124bc565b610a02565b6102686103113660046124f8565b610a22565b600654610248906001600160a01b031681565b6102126103373660046123d1565b610b82565b61026861034a36600461252b565b610be3565b610228610c2d565b6102126103653660046123d1565b60009081526008602052604090206001015490565b6102486103883660046123d1565b610cbb565b6007546001600160a01b0316610248565b6102126103ac36600461252b565b610cc6565b610228610d1e565b6102686103c7366004612546565b610d3b565b6102686103da36600461249a565b610d82565b6102686103ed3660046125bb565b610f60565b61026861040036600461249a565b610f6b565b6104186104133660046123d1565b611039565b60405161020091908151815260208083015190820152604080830151908201526060918201519181019190915260800190565b61026861045936600461249a565b6110a9565b61026861046c366004612608565b611153565b61021261047f36600461252b565b61116a565b6102286104923660046123d1565b5060408051602081019091526000815290565b6102686104b336600461249a565b6111c5565b6102126104c63660046126e4565b611398565b6102126104d93660046123d1565b60009081526008602052604090206003015490565b6101f46104fc3660046124f8565b6113bf565b600061050c826113fe565b92915050565b6060600061051e611423565b905080600001805461052f9061271d565b80601f016020809104026020016040519081016040528092919081815260200182805461055b9061271d565b80156105a85780601f1061057d576101008083540402835291602001916105a8565b820191906000526020600020905b81548152906001019060200180831161058b57829003601f168201915b505050505091505090565b60006105be82611447565b5061050c8261147f565b6105d38282336114a8565b5050565b60006105e16114b5565b6105ed858585856114ff565b90506105f76116e3565b949350505050565b6106076114b5565b60008281526008602090815260409182902082516080810184528154815260018201549281019290925260028101549282019290925260039091015460608201528161066e5760405162461bcd60e51b815260040161066590612751565b60405180910390fd5b805161068c5760405162461bcd60e51b815260040161066590612774565b428160200151116106af5760405162461bcd60e51b8152600401610665906127a4565b6106be83836000846000611709565b506105d36116e3565b6000806106d2611990565b6002015492915050565b6001600160a01b038216610706576000604051633250574960e11b815260040161066591906123ea565b60006107138383336119b4565b9050836001600160a01b0316816001600160a01b031614610761576040516364283d7b60e01b81526001600160a01b0380861660048301526024820184905282166044820152606401610665565b50505050565b61076f6114b5565b61078261077b82610cbb565b3383611a42565b61079e5760405162461bcd60e51b8152600401610665906127db565b60008181526008602090815260409182902082516080810184528154815260018201549281018390526002820154938101939093526003015460608301524210156108245760405162461bcd60e51b8152602060048201526016602482015275546865206c6f636b206469646e27742065787069726560501b6044820152606401610665565b80516040805160808101825260008082526020808301828152838501838152606085018481528985526008909352949092209251835590516001830155915160028083019190915591516003909101555461087f8282612826565b60025560075460405163a9059cbb60e01b81526001600160a01b039091169063a9059cbb906108b49033908690600401612839565b6020604051808303816000875af11580156108d3573d6000803e3d6000fd5b505050506040513d601f19601f820116820180604052508101906108f79190612852565b6109035761090361286f565b61090c84611aa7565b60408051858152602081018490524281830152905133917f02f25270a4d87bea75db541cdfe559334a275b4a233520ed6c0a2429667cca94919081900360600190a27f5e2aa66efd74cce82b21852e317e5490d9ecc9e6bb953ae24d90851258cc2f5c8161097a8482612826565b6040805192835260208301919091520160405180910390a150505061099d6116e3565b50565b6000806109ab611990565b90506109b684610cc6565b83106109d957838360405163295f44f760e21b8152600401610665929190612839565b6001600160a01b0384166000908152602091825260408082208583529092522054905092915050565b610a1d83838360405180602001604052806000815250611153565b505050565b7ff0c57e16840df040f15088dc2f81fe391c3923bec73e23a9662efc9c229c6a008054600160401b810460ff16159067ffffffffffffffff16600081158015610a685750825b905060008267ffffffffffffffff166001148015610a855750303b155b905081158015610a93575080155b15610ab15760405163f92ee8a960e01b815260040160405180910390fd5b845467ffffffffffffffff191660011785558315610adb57845460ff60401b1916600160401b1785555b610b33604051806040016040528060128152602001714c6f636b6564204d41484120546f6b656e7360701b8152506040518060400160405280600581526020016409a829082b60db1b8152508989630784ce00611ae2565b8315610b7957845460ff60401b19168555604051600181527fc7f505b2f371ae2175ee4913f4499e1f2633a7b5936321eed1cdaeb6115181d29060200160405180910390a15b50505050505050565b600080610b8d611990565b9050610b976106c7565b8310610bbb5760008360405163295f44f760e21b8152600401610665929190612839565b806002018381548110610bd057610bd0612885565b9060005260206000200154915050919050565b610beb6114b5565b6000610bf682610cc6565b905060005b81811015610c23576000610c0f84836109a0565b9050610c1a81610767565b50600101610bfb565b505061099d6116e3565b60038054610c3a9061271d565b80601f0160208091040260200160405190810160405280929190818152602001828054610c669061271d565b8015610cb35780601f10610c8857610100808354040283529160200191610cb3565b820191906000526020600020905b815481529060010190602001808311610c9657829003601f168201915b505050505081565b600061050c82611447565b600080610cd1611423565b90506001600160a01b038316610cfd5760006040516322718ad960e21b815260040161066591906123ea565b6001600160a01b039092166000908152600390920160205250604090205490565b60606000610d2a611423565b905080600101805461052f9061271d565b610d436114b5565b8060005b81811015610d7857610d70848483818110610d6457610d64612885565b90506020020135610767565b600101610d47565b50506105d36116e3565b610d8a6114b5565b610d9d610d9683610cbb565b3384611a42565b610db95760405162461bcd60e51b8152600401610665906127db565b6000828152600860209081526040808320815160808101835281548152600182015493810193909352600281015491830191909152600301546060820152815490919080610e07854261289b565b610e1191906128ae565b610e1b91906128d0565b905042826020015111610e5f5760405162461bcd60e51b815260206004820152600c60248201526b131bd8dac8195e1c1a5c995960a21b6044820152606401610665565b8151610ea15760405162461bcd60e51b8152602060048201526011602482015270139bdd1a1a5b99c81a5cc81b1bd8dad959607a1b6044820152606401610665565b81602001518111610ef45760405162461bcd60e51b815260206004820152601f60248201527f43616e206f6e6c7920696e637265617365206c6f636b206475726174696f6e006044820152606401610665565b600154610f01904261289b565b811115610f205760405162461bcd60e51b8152600401610665906128e7565b6001548260400151610f32919061289b565b811115610f515760405162461bcd60e51b8152600401610665906128e7565b610d7884600083856003611709565b6105d3338383611b7b565b610f736114b5565b610f7f610d9683611c20565b610f9b5760405162461bcd60e51b8152600401610665906127db565b600082815260086020908152604091829020825160808101845281548152600182015492810192909252600281015492820192909252600390910154606082015281610fe957610fe961286f565b80516110075760405162461bcd60e51b815260040161066590612774565b4281602001511161102a5760405162461bcd60e51b8152600401610665906127a4565b6106be83836000846002611709565b6110646040518060800160405280600081526020016000815260200160008152602001600081525090565b50600090815260086020908152604091829020825160808101845281548152600182015492810192909252600281015492820192909252600390910154606082015290565b6006546001600160a01b031633146110ef5760405162461bcd60e51b8152602060048201526009602482015268215f7374616b696e6760b81b6044820152606401610665565b60008281526008602090815260409182902060028101849055825160808101845281548152600182015492810192909252918101839052600390910154606082015261113a90611c49565b6000928352600860205260409092206003019190915550565b61115e8484846106dc565b61076184848484611c7b565b6000805b61117783610cc6565b8110156111bf57600061118a84836109a0565b6000818152600860205260409020600301549091506111a9908461289b565b92505080806111b79061291e565b91505061116e565b50919050565b8082036111ff5760405162461bcd60e51b81526020600482015260086024820152671cd85b59481b999d60c21b6044820152606401610665565b61120b610d9683610cbb565b61124b5760405162461bcd60e51b8152602060048201526011602482015270199c9bdb481b9bdd08185c1c1c9bdd9959607a1b6044820152606401610665565b61125761077b82610cbb565b6112955760405162461bcd60e51b815260206004820152600f60248201526e1d1bc81b9bdd08185c1c1c9bdd9959608a1b6044820152606401610665565b600082815260086020818152604080842081516080808201845282548252600180840154838701908152600280860154858801526003958601546060808701919091528b8b52988852868a20875194850188528054855292830154978401889052820154958301959095529092015494820194909452835191519394909391929091101561132757826020015161132d565b83602001515b6040805160808101825260008082526020808301828152838501838152606085018481528d85526008909352949092209251835590516001830155915160028201559051600390910155905061138286611aa7565b611390858383866004611709565b505050505050565b60006113a26114b5565b6113ae848433856114ff565b90506113b86116e3565b9392505050565b6000806113ca611423565b6001600160a01b03948516600090815260059190910160209081526040808320959096168252939093525050205460ff1690565b60006001600160e01b0319821663780e9d6360e01b148061050c575061050c82611d8b565b7f80bb2b638cc20bc4d0a60d66940f3ab4a00c1d7b313497ca82fb0b4ab007930090565b60008061145383611c20565b90506001600160a01b03811661050c57604051637e27328960e01b815260048101849052602401610665565b60008061148a611423565b6000938452600401602052505060409020546001600160a01b031690565b610a1d8383836001611ddb565b7f9b779b17422d0df92223018b32b4d1fa46e071723d6817e2486d003becc55f008054600119016114f957604051633ee5aeb560e01b815260040160405180910390fd5b60029055565b60008054819080611510874261289b565b61151a91906128ae565b61152491906128d0565b9050600086116115465760405162461bcd60e51b815260040161066590612751565b4281116115955760405162461bcd60e51b815260206004820152601b60248201527f43616e206f6e6c79206c6f636b20696e207468652066757475726500000000006044820152606401610665565b6001546115a2904261289b565b8111156115c15760405162461bcd60e51b8152600401610665906128e7565b6005600081546115d09061291e565b90915550600554600081815260086020908152604091829020825160808101845281548152600180830154938201939093526002820154938101939093526003015460608301526116269183918a918691611709565b83156116cf576116363082611ee5565b6040805185151560208201526001600160a01b038781168284015260608083018a9052835180840390910181526080830193849052600654635c46a7ef60e11b90945292309263b88d4fde9261169792859291169087908790608401612937565b600060405180830381600087803b1580156116b157600080fd5b505af11580156116c5573d6000803e3d6000fd5b50505050506116d9565b6116d98582611ee5565b9695505050505050565b60017f9b779b17422d0df92223018b32b4d1fa46e071723d6817e2486d003becc55f0055565b6002548290611718868261289b565b6002819055506117496040518060800160405280600081526020016000815260200160008152602001600081525090565b82516020808501516060808701519085015290830152815282518790849061177290839061289b565b905250851561178357602083018690525b60018460048111156117975761179761296a565b036117a3574260408401525b6117ac83611c49565b606084019081526000898152600860209081526040918290208651815590860151600182015590850151600282015590516003909101558615801590611804575060048460048111156118015761180161296a565b14155b15611890576007546040516323b872dd60e01b8152336004820152306024820152604481018990526001600160a01b03909116906323b872dd906064016020604051808303816000875af1158015611860573d6000803e3d6000fd5b505050506040513d601f19601f820116820180604052508101906118849190612852565b6118905761189061286f565b8260200151336001600160a01b03167fff04ccafc360e16b67d682d17bd9503c4c6b9a131f6be6325762dc9ffc7de6248a8a88426040516118d49493929190612980565b60405180910390a37f5e2aa66efd74cce82b21852e317e5490d9ecc9e6bb953ae24d90851258cc2f5c82611908898261289b565b6040805192835260208301919091520160405180910390a1604080518451815260208086015190820152848201518183015260608086015190820152905190819003608001812089917f07066a4aac0f827032b0f1dae68893bb9ab8d4c9a98a39d2a173e0ae47421c889061197e9033906123ea565b60405180910390a35050505050505050565b7f645e039705490088daad89bae25049a34f4a9072d398537b1ab2425f24cbed0090565b6000806119c2858585611f4a565b90506001600160a01b0381166119e0576119db84612051565b611a03565b846001600160a01b0316816001600160a01b031614611a0357611a03818561208a565b6001600160a01b038516611a1f57611a1a8461212b565b6105f7565b846001600160a01b0316816001600160a01b0316146105f7576105f785856121f4565b60006001600160a01b038316158015906105f75750826001600160a01b0316846001600160a01b03161480611a7c5750611a7c84846113bf565b806105f75750826001600160a01b0316611a958361147f565b6001600160a01b031614949350505050565b6000611ab660008360006119b4565b90506001600160a01b0381166105d357604051637e27328960e01b815260048101839052602401610665565b611aec858561224c565b611af461225e565b6040805180820190915260058152640312e302e360dc1b6020820152600390611b1d9082612a04565b506004805460ff1916601217905562093a806000556001818155600680546001600160a01b038086166001600160a01b0319928316179092556007805492871692909116919091179055611b749030908490611b7b565b5050505050565b6000611b85611423565b90506001600160a01b038316611bb05782604051630b61174360e31b815260040161066591906123ea565b6001600160a01b038481166000818152600584016020908152604080832094881680845294825291829020805460ff191687151590811790915591519182527f17307eab39ab6107e8899845ad3d59bd9653f200f220920489ca2b5937696c31910160405180910390a350505050565b600080611c2b611423565b6000938452600201602052505060409020546001600160a01b031690565b6000600154826000015183604001518460200151611c679190612826565b611c7191906128d0565b61050c91906128ae565b6001600160a01b0383163b1561076157604051630a85bd0160e11b81526001600160a01b0384169063150b7a0290611cbd903390889087908790600401612937565b6020604051808303816000875af1925050508015611cf8575060408051601f3d908101601f19168201909252611cf591810190612ac4565b60015b611d58573d808015611d26576040519150601f19603f3d011682016040523d82523d6000602084013e611d2b565b606091505b508051600003611d505783604051633250574960e11b815260040161066591906123ea565b805181602001fd5b6001600160e01b03198116630a85bd0160e11b14611b745783604051633250574960e11b815260040161066591906123ea565b60006001600160e01b031982166380ac58cd60e01b1480611dbc57506001600160e01b03198216635b5e139f60e01b145b8061050c57506301ffc9a760e01b6001600160e01b031983161461050c565b6000611de5611423565b90508180611dfb57506001600160a01b03831615155b15611eb4576000611e0b85611447565b90506001600160a01b03841615801590611e375750836001600160a01b0316816001600160a01b031614155b8015611e4a5750611e4881856113bf565b155b15611e6a578360405163a9fbf51f60e01b815260040161066591906123ea565b8215611eb25784866001600160a01b0316826001600160a01b03167f8c5be1e5ebec7d5bd14f71427d1e84f3dd0314c0f7b2291e5b200ac8c7c3b92560405160405180910390a45b505b600093845260040160205250506040902080546001600160a01b0319166001600160a01b0392909216919091179055565b6001600160a01b038216611f0f576000604051633250574960e11b815260040161066591906123ea565b6000611f1d838360006119b4565b90506001600160a01b03811615610a1d5760006040516339e3563760e11b815260040161066591906123ea565b600080611f55611423565b90506000611f6285611c20565b90506001600160a01b03841615611f7e57611f7e818587612270565b6001600160a01b03811615611fbe57611f9b600086600080611ddb565b6001600160a01b0381166000908152600383016020526040902080546000190190555b6001600160a01b03861615611fef576001600160a01b03861660009081526003830160205260409020805460010190555b600085815260028301602052604080822080546001600160a01b0319166001600160a01b038a811691821790925591518893918516917fddf252ad1be2c89b69c2b068fc378daa952ba7f163c4a11628f55a4df523b3ef91a495945050505050565b600061205b611990565b600281018054600085815260039093016020908152604084208290556001820183559183529120019190915550565b6000612094611990565b905060006120a184610cc6565b60008481526001840160205260409020549091508082146120f6576001600160a01b03851660009081526020848152604080832085845282528083205484845281842081905583526001860190915290208190555b50600092835260018201602090815260408085208590556001600160a01b039095168452918252838320908352905290812055565b6000612135611990565b600281015490915060009061214c90600190612826565b600084815260038401602052604081205460028501805493945090928490811061217857612178612885565b906000526020600020015490508084600201838154811061219b5761219b612885565b6000918252602080832090910192909255828152600386019091526040808220849055868252812055600284018054806121d7576121d7612ae1565b600190038181906000526020600020016000905590555050505050565b60006121fe611990565b90506000600161220d85610cc6565b6122179190612826565b6001600160a01b0390941660009081526020838152604080832087845282528083208690559482526001909301909252502055565b6122546122c6565b6105d3828261230f565b6122666122c6565b61226e61233d565b565b61227b838383611a42565b610a1d576001600160a01b0383166122a957604051637e27328960e01b815260048101829052602401610665565b818160405163177e802f60e01b8152600401610665929190612839565b7ff0c57e16840df040f15088dc2f81fe391c3923bec73e23a9662efc9c229c6a0054600160401b900460ff1661226e57604051631afcd79f60e31b815260040160405180910390fd5b6123176122c6565b6000612321611423565b90508061232e8482612a04565b50600181016107618382612a04565b6116e36122c6565b6001600160e01b03198116811461099d57600080fd5b60006020828403121561236d57600080fd5b81356113b881612345565b6000815180845260005b8181101561239e57602081850181015186830182015201612382565b506000602082860101526020601f19601f83011685010191505092915050565b6020815260006113b86020830184612378565b6000602082840312156123e357600080fd5b5035919050565b6001600160a01b0391909116815260200190565b80356001600160a01b038116811461241557600080fd5b919050565b6000806040838503121561242d57600080fd5b612436836123fe565b946020939093013593505050565b801515811461099d57600080fd5b6000806000806080858703121561246857600080fd5b843593506020850135925061247f604086016123fe565b9150606085013561248f81612444565b939692955090935050565b600080604083850312156124ad57600080fd5b50508035926020909101359150565b6000806000606084860312156124d157600080fd5b6124da846123fe565b92506124e8602085016123fe565b9150604084013590509250925092565b6000806040838503121561250b57600080fd5b612514836123fe565b9150612522602084016123fe565b90509250929050565b60006020828403121561253d57600080fd5b6113b8826123fe565b6000806020838503121561255957600080fd5b823567ffffffffffffffff8082111561257157600080fd5b818501915085601f83011261258557600080fd5b81358181111561259457600080fd5b8660208260051b85010111156125a957600080fd5b60209290920196919550909350505050565b600080604083850312156125ce57600080fd5b6125d7836123fe565b915060208301356125e781612444565b809150509250929050565b634e487b7160e01b600052604160045260246000fd5b6000806000806080858703121561261e57600080fd5b612627856123fe565b9350612635602086016123fe565b925060408501359150606085013567ffffffffffffffff8082111561265957600080fd5b818701915087601f83011261266d57600080fd5b81358181111561267f5761267f6125f2565b604051601f8201601f19908116603f011681019083821181831017156126a7576126a76125f2565b816040528281528a60208487010111156126c057600080fd5b82602086016020830137600060208483010152809550505050505092959194509250565b6000806000606084860312156126f957600080fd5b8335925060208401359150604084013561271281612444565b809150509250925092565b600181811c9082168061273157607f821691505b6020821081036111bf57634e487b7160e01b600052602260045260246000fd5b602080825260099082015268076616c7565203d20360bc1b604082015260600190565b602080825260169082015275139bc8195e1a5cdd1a5b99c81b1bd8dac8199bdd5b9960521b604082015260600190565b6020808252601b908201527f43616e6e6f742061646420746f2065787069726564206c6f636b2e0000000000604082015260600190565b6020808252818101527f63616c6c6572206973206e6f74206f776e6572206e6f7220617070726f766564604082015260600190565b634e487b7160e01b600052601160045260246000fd5b8181038181111561050c5761050c612810565b6001600160a01b03929092168252602082015260400190565b60006020828403121561286457600080fd5b81516113b881612444565b634e487b7160e01b600052600160045260246000fd5b634e487b7160e01b600052603260045260246000fd5b8082018082111561050c5761050c612810565b6000826128cb57634e487b7160e01b600052601260045260246000fd5b500490565b808202811582820484141761050c5761050c612810565b6020808252601e908201527f566f74696e67206c6f636b2063616e2062652034207965617273206d61780000604082015260600190565b60006001820161293057612930612810565b5060010190565b6001600160a01b03858116825284166020820152604081018390526080606082018190526000906116d990830184612378565b634e487b7160e01b600052602160045260246000fd5b8481526020810184905260808101600584106129ac57634e487b7160e01b600052602160045260246000fd5b60408201939093526060015292915050565b601f821115610a1d57600081815260208120601f850160051c810160208610156129e55750805b601f850160051c820191505b81811015611390578281556001016129f1565b815167ffffffffffffffff811115612a1e57612a1e6125f2565b612a3281612a2c845461271d565b846129be565b602080601f831160018114612a675760008415612a4f5750858301515b600019600386901b1c1916600185901b178555611390565b600085815260208120601f198616915b82811015612a9657888601518255948401946001909101908401612a77565b5085821015612ab45787850151600019600388901b60f8161c191681555b5050505050600190811b01905550565b600060208284031215612ad657600080fd5b81516113b881612345565b634e487b7160e01b600052603160045260246000fdfea26469706673582212202b7651cabfb3cb0bbda30820acf18f2857a5b95848cb872b2dff0935ee72ad6564736f6c63430008150033",
  "devdoc": {
    "errors": {
      "ERC721EnumerableForbiddenBatchMint()": [
        {
          "details": "Batch mint is not allowed."
        }
      ],
      "ERC721IncorrectOwner(address,uint256,address)": [
        {
          "details": "Indicates an error related to the ownership over a particular token. Used in transfers.",
          "params": {
            "owner": "Address of the current owner of a token.",
            "sender": "Address whose tokens are being transferred.",
            "tokenId": "Identifier number of a token."
          }
        }
      ],
      "ERC721InsufficientApproval(address,uint256)": [
        {
          "details": "Indicates a failure with the `operator`s approval. Used in transfers.",
          "params": {
            "operator": "Address that may be allowed to operate on tokens without being their owner.",
            "tokenId": "Identifier number of a token."
          }
        }
      ],
      "ERC721InvalidApprover(address)": [
        {
          "details": "Indicates a failure with the `approver` of a token to be approved. Used in approvals.",
          "params": {
            "approver": "Address initiating an approval operation."
          }
        }
      ],
      "ERC721InvalidOperator(address)": [
        {
          "details": "Indicates a failure with the `operator` to be approved. Used in approvals.",
          "params": {
            "operator": "Address that may be allowed to operate on tokens without being their owner."
          }
        }
      ],
      "ERC721InvalidOwner(address)": [
        {
          "details": "Indicates that an address can't be an owner. For example, `address(0)` is a forbidden owner in EIP-20. Used in balance queries.",
          "params": {
            "owner": "Address of the current owner of a token."
          }
        }
      ],
      "ERC721InvalidReceiver(address)": [
        {
          "details": "Indicates a failure with the token `receiver`. Used in transfers.",
          "params": {
            "receiver": "Address to which tokens are being transferred."
          }
        }
      ],
      "ERC721InvalidSender(address)": [
        {
          "details": "Indicates a failure with the token `sender`. Used in transfers.",
          "params": {
            "sender": "Address whose tokens are being transferred."
          }
        }
      ],
      "ERC721NonexistentToken(uint256)": [
        {
          "details": "Indicates a `tokenId` whose `owner` is the zero address.",
          "params": {
            "tokenId": "Identifier number of a token."
          }
        }
      ],
      "ERC721OutOfBoundsIndex(address,uint256)": [
        {
          "details": "An `owner`'s token query was out of bounds for `index`. NOTE: The owner being `address(0)` indicates a global out of bounds index."
        }
      ],
      "InvalidInitialization()": [
        {
          "details": "The contract is already initialized."
        }
      ],
      "NotInitializing()": [
        {
          "details": "The contract is not initializing."
        }
      ],
      "ReentrancyGuardReentrantCall()": [
        {
          "details": "Unauthorized reentrant call."
        }
      ]
    },
    "events": {
      "Approval(address,address,uint256)": {
        "details": "Emitted when `owner` enables `approved` to manage the `tokenId` token."
      },
      "ApprovalForAll(address,address,bool)": {
        "details": "Emitted when `owner` enables or disables (`approved`) `operator` to manage all of its assets."
      },
      "Initialized(uint64)": {
        "details": "Triggered when the contract has been initialized or reinitialized."
      },
      "Transfer(address,address,uint256)": {
        "details": "Emitted when `tokenId` token is transferred from `from` to `to`."
      }
    },
    "kind": "dev",
    "methods": {
      "approve(address,uint256)": {
        "details": "See {IERC721-approve}."
      },
      "balanceOf(address)": {
        "details": "See {IERC721-balanceOf}."
      },
      "balanceOfNFT(uint256)": {
        "params": {
          "_tokenId": "The NFT ID"
        },
        "returns": {
          "_0": "The balance of the NFT"
        }
      },
      "createLock(uint256,uint256,bool)": {
        "params": {
          "_lockDuration": "Number of seconds to lock tokens for (rounded down to nearest week)",
          "_stakeNFT": "Should we also stake the NFT as well?",
          "_value": "Amount to deposit"
        }
      },
      "createLockFor(uint256,uint256,address,bool)": {
        "params": {
          "_lockDuration": "Number of seconds to lock tokens for (rounded down to nearest week)",
          "_to": "Address to deposit",
          "_value": "Amount to deposit"
        }
      },
      "depositFor(uint256,uint256)": {
        "details": "Anyone (even a smart contract) can deposit for someone else, but      cannot extend their locktime and deposit for a brand new user",
        "params": {
          "_tokenId": "lock NFT",
          "_value": "Amount to add to user's lock"
        }
      },
      "getApproved(uint256)": {
        "details": "See {IERC721-getApproved}."
      },
      "increaseAmount(uint256,uint256)": {
        "params": {
          "_value": "Amount of tokens to deposit and add to the lock"
        }
      },
      "increaseUnlockTime(uint256,uint256)": {
        "params": {
          "_lockDuration": "New number of seconds until tokens unlock"
        }
      },
      "isApprovedForAll(address,address)": {
        "details": "See {IERC721-isApprovedForAll}."
      },
      "locked(uint256)": {
        "params": {
          "_tokenId": "The NFT ID"
        },
        "returns": {
          "_0": "The LockedBalance struct containing lock details"
        }
      },
      "lockedEnd(uint256)": {
        "params": {
          "_tokenId": "User NFT"
        },
        "returns": {
          "_0": "Epoch time of the lock end"
        }
      },
      "merge(uint256,uint256)": {
        "params": {
          "_from": "The ID of the NFT to merge from",
          "_to": "The ID of the NFT to merge into"
        }
      },
      "name()": {
        "details": "See {IERC721Metadata-name}."
      },
      "ownerOf(uint256)": {
        "details": "See {IERC721-ownerOf}."
      },
      "safeTransferFrom(address,address,uint256)": {
        "details": "See {IERC721-safeTransferFrom}."
      },
      "safeTransferFrom(address,address,uint256,bytes)": {
        "details": "See {IERC721-safeTransferFrom}."
      },
      "setApprovalForAll(address,bool)": {
        "details": "See {IERC721-setApprovalForAll}."
      },
      "supportsInterface(bytes4)": {
        "details": "Interface identification is specified in ERC-165.",
        "params": {
          "_interfaceID": "Id of the interface"
        }
      },
      "symbol()": {
        "details": "See {IERC721Metadata-symbol}."
      },
      "tokenByIndex(uint256)": {
        "details": "See {IERC721Enumerable-tokenByIndex}."
      },
      "tokenOfOwnerByIndex(address,uint256)": {
        "details": "See {IERC721Enumerable-tokenOfOwnerByIndex}."
      },
      "totalSupply()": {
        "details": "See {IERC721Enumerable-totalSupply}."
      },
      "transferFrom(address,address,uint256)": {
        "details": "See {IERC721-transferFrom}."
      },
      "underlying()": {
        "returns": {
          "_0": "The ERC20 token contract"
        }
      },
      "updateLockStartDate(uint256,uint256)": {
        "details": "This function can only be called by the staking contract",
        "params": {
          "_id": "The lock id",
          "_startDate": "The new start date"
        }
      },
      "votingPowerOf(address)": {
        "details": "Returns the voting power of the `_owner`.      Throws if `_owner` is the zero address. NFTs assigned to the zero address are considered invalid.",
        "params": {
          "_owner": "Address for whom to query the voting power of."
        }
      },
      "withdraw(address)": {
        "params": {
          "_user": "The address of the user"
        }
      },
      "withdraw(uint256)": {
        "details": "Only possible if the lock has expired"
      },
      "withdraw(uint256[])": {
        "params": {
          "_tokenIds": "An array of NFT IDs"
        }
      }
    },
    "version": 1
  },
  "userdoc": {
    "kind": "user",
    "methods": {
      "balanceOfNFT(uint256)": {
        "notice": "Get the balance associated with an NFT"
      },
      "createLock(uint256,uint256,bool)": {
        "notice": "Deposit `_value` tokens for `msg.sender` and lock for `_lockDuration`"
      },
      "createLockFor(uint256,uint256,address,bool)": {
        "notice": "Deposit `_value` tokens for `_to` and lock for `_lockDuration`"
      },
      "depositFor(uint256,uint256)": {
        "notice": "Deposit `_value` tokens for `_tokenId` and add to the lock"
      },
      "increaseAmount(uint256,uint256)": {
        "notice": "Deposit `_value` additional tokens for `_tokenId` without modifying the unlock time"
      },
      "increaseUnlockTime(uint256,uint256)": {
        "notice": "Extend the unlock time for `_tokenId`"
      },
      "locked(uint256)": {
        "notice": "Get the locked balance details of an NFT"
      },
      "lockedEnd(uint256)": {
        "notice": "Get timestamp when `_tokenId`'s lock finishes"
      },
      "merge(uint256,uint256)": {
        "notice": "Merge two NFTs into one"
      },
      "underlying()": {
        "notice": "Get the underlying ERC20 token"
      },
      "updateLockStartDate(uint256,uint256)": {
        "notice": "Update the start date of a lock"
      },
      "withdraw(address)": {
        "notice": "Withdraw tokens for a specific user"
      },
      "withdraw(uint256)": {
        "notice": "Withdraw all tokens for `_tokenId`"
      },
      "withdraw(uint256[])": {
        "notice": "Withdraw tokens from multiple NFTs"
      }
    },
    "version": 1
  },
  "storageLayout": {
    "storage": [
      {
        "astId": 30519,
        "contract": "contracts/governance/locker/LockerToken.sol:LockerToken",
        "label": "WEEK",
        "offset": 0,
        "slot": "0",
        "type": "t_uint256"
      },
      {
        "astId": 30521,
        "contract": "contracts/governance/locker/LockerToken.sol:LockerToken",
        "label": "MAXTIME",
        "offset": 0,
        "slot": "1",
        "type": "t_uint256"
      },
      {
        "astId": 30523,
        "contract": "contracts/governance/locker/LockerToken.sol:LockerToken",
        "label": "supply",
        "offset": 0,
        "slot": "2",
        "type": "t_uint256"
      },
      {
        "astId": 30525,
        "contract": "contracts/governance/locker/LockerToken.sol:LockerToken",
        "label": "version",
        "offset": 0,
        "slot": "3",
        "type": "t_string_storage"
      },
      {
        "astId": 30527,
        "contract": "contracts/governance/locker/LockerToken.sol:LockerToken",
        "label": "decimals",
        "offset": 0,
        "slot": "4",
        "type": "t_uint8"
      },
      {
        "astId": 30530,
        "contract": "contracts/governance/locker/LockerToken.sol:LockerToken",
        "label": "tokenId",
        "offset": 0,
        "slot": "5",
        "type": "t_uint256"
      },
      {
        "astId": 30533,
        "contract": "contracts/governance/locker/LockerToken.sol:LockerToken",
        "label": "staking",
        "offset": 0,
        "slot": "6",
        "type": "t_contract(IOmnichainStaking)36515"
      },
      {
        "astId": 30536,
        "contract": "contracts/governance/locker/LockerToken.sol:LockerToken",
        "label": "_underlying",
        "offset": 0,
        "slot": "7",
        "type": "t_contract(IERC20)15836"
      },
      {
        "astId": 30541,
        "contract": "contracts/governance/locker/LockerToken.sol:LockerToken",
        "label": "_locked",
        "offset": 0,
        "slot": "8",
        "type": "t_mapping(t_uint256,t_struct(LockedBalance)36145_storage)"
      }
    ],
    "types": {
      "t_contract(IERC20)15836": {
        "encoding": "inplace",
        "label": "contract IERC20",
        "numberOfBytes": "20"
      },
      "t_contract(IOmnichainStaking)36515": {
        "encoding": "inplace",
        "label": "contract IOmnichainStaking",
        "numberOfBytes": "20"
      },
      "t_mapping(t_uint256,t_struct(LockedBalance)36145_storage)": {
        "encoding": "mapping",
        "key": "t_uint256",
        "label": "mapping(uint256 => struct ILocker.LockedBalance)",
        "numberOfBytes": "32",
        "value": "t_struct(LockedBalance)36145_storage"
      },
      "t_string_storage": {
        "encoding": "bytes",
        "label": "string",
        "numberOfBytes": "32"
      },
      "t_struct(LockedBalance)36145_storage": {
        "encoding": "inplace",
        "label": "struct ILocker.LockedBalance",
        "members": [
          {
            "astId": 36138,
            "contract": "contracts/governance/locker/LockerToken.sol:LockerToken",
            "label": "amount",
            "offset": 0,
            "slot": "0",
            "type": "t_uint256"
          },
          {
            "astId": 36140,
            "contract": "contracts/governance/locker/LockerToken.sol:LockerToken",
            "label": "end",
            "offset": 0,
            "slot": "1",
            "type": "t_uint256"
          },
          {
            "astId": 36142,
            "contract": "contracts/governance/locker/LockerToken.sol:LockerToken",
            "label": "start",
            "offset": 0,
            "slot": "2",
            "type": "t_uint256"
          },
          {
            "astId": 36144,
            "contract": "contracts/governance/locker/LockerToken.sol:LockerToken",
            "label": "power",
            "offset": 0,
            "slot": "3",
            "type": "t_uint256"
          }
        ],
        "numberOfBytes": "128"
      },
      "t_uint256": {
        "encoding": "inplace",
        "label": "uint256",
        "numberOfBytes": "32"
      },
      "t_uint8": {
        "encoding": "inplace",
        "label": "uint8",
        "numberOfBytes": "1"
      }
    }
  }
}