{
  "address": "0x05eC7112cbe8b18b7a3526935860194056A82979",
  "abi": [
    {
      "inputs": [
        {
          "internalType": "address",
          "name": "target",
          "type": "address"
        }
      ],
      "name": "AddressEmptyCode",
      "type": "error"
    },
    {
      "inputs": [
        {
          "internalType": "address",
          "name": "account",
          "type": "address"
        }
      ],
      "name": "AddressInsufficientBalance",
      "type": "error"
    },
    {
      "inputs": [
        {
          "internalType": "uint256",
          "name": "nftId",
          "type": "uint256"
        }
      ],
      "name": "AlreadyMigrated",
      "type": "error"
    },
    {
      "inputs": [
        {
          "internalType": "uint256",
          "name": "endTime",
          "type": "uint256"
        }
      ],
      "name": "EndTimeExpired",
      "type": "error"
    },
    {
      "inputs": [],
      "name": "EnforcedPause",
      "type": "error"
    },
    {
      "inputs": [],
      "name": "ExpectedPause",
      "type": "error"
    },
    {
      "inputs": [],
      "name": "FailedInnerCall",
      "type": "error"
    },
    {
      "inputs": [],
      "name": "InvalidInitialization",
      "type": "error"
    },
    {
      "inputs": [
        {
          "internalType": "bytes32[]",
          "name": "proof",
          "type": "bytes32[]"
        }
      ],
      "name": "InvalidMerkleProof",
      "type": "error"
    },
    {
      "inputs": [
        {
          "internalType": "uint256",
          "name": "nftId",
          "type": "uint256"
        }
      ],
      "name": "InvalidTokenId",
      "type": "error"
    },
    {
      "inputs": [],
      "name": "InvalidZeroAddress",
      "type": "error"
    },
    {
      "inputs": [
        {
          "internalType": "uint256",
          "name": "nftId",
          "type": "uint256"
        }
      ],
      "name": "MigrationFailed",
      "type": "error"
    },
    {
      "inputs": [],
      "name": "NotInitializing",
      "type": "error"
    },
    {
      "inputs": [
        {
          "internalType": "address",
          "name": "owner",
          "type": "address"
        }
      ],
      "name": "OwnableInvalidOwner",
      "type": "error"
    },
    {
      "inputs": [
        {
          "internalType": "address",
          "name": "account",
          "type": "address"
        }
      ],
      "name": "OwnableUnauthorizedAccount",
      "type": "error"
    },
    {
      "inputs": [],
      "name": "ReentrancyGuardReentrantCall",
      "type": "error"
    },
    {
      "inputs": [
        {
          "internalType": "address",
          "name": "token",
          "type": "address"
        }
      ],
      "name": "SafeERC20FailedOperation",
      "type": "error"
    },
    {
      "anonymous": false,
      "inputs": [
        {
          "indexed": false,
          "internalType": "uint64",
          "name": "version",
          "type": "uint64"
        }
      ],
      "name": "Initialized",
      "type": "event"
    },
    {
      "anonymous": false,
      "inputs": [
        {
          "indexed": false,
          "internalType": "bytes32",
          "name": "oldMerkleRoot",
          "type": "bytes32"
        },
        {
          "indexed": false,
          "internalType": "bytes32",
          "name": "newMerkleRoot",
          "type": "bytes32"
        }
      ],
      "name": "MerkleRootUpdated",
      "type": "event"
    },
    {
      "anonymous": false,
      "inputs": [
        {
          "indexed": true,
          "internalType": "address",
          "name": "user",
          "type": "address"
        },
        {
          "indexed": true,
          "internalType": "uint256",
          "name": "nftId",
          "type": "uint256"
        },
        {
          "indexed": false,
          "internalType": "uint256",
          "name": "bonus",
          "type": "uint256"
        }
      ],
      "name": "Migrated",
      "type": "event"
    },
    {
      "anonymous": false,
      "inputs": [
        {
          "indexed": true,
          "internalType": "address",
          "name": "previousOwner",
          "type": "address"
        },
        {
          "indexed": true,
          "internalType": "address",
          "name": "newOwner",
          "type": "address"
        }
      ],
      "name": "OwnershipTransferStarted",
      "type": "event"
    },
    {
      "anonymous": false,
      "inputs": [
        {
          "indexed": true,
          "internalType": "address",
          "name": "previousOwner",
          "type": "address"
        },
        {
          "indexed": true,
          "internalType": "address",
          "name": "newOwner",
          "type": "address"
        }
      ],
      "name": "OwnershipTransferred",
      "type": "event"
    },
    {
      "anonymous": false,
      "inputs": [
        {
          "indexed": false,
          "internalType": "address",
          "name": "account",
          "type": "address"
        }
      ],
      "name": "Paused",
      "type": "event"
    },
    {
      "anonymous": false,
      "inputs": [
        {
          "indexed": false,
          "internalType": "address",
          "name": "account",
          "type": "address"
        }
      ],
      "name": "Unpaused",
      "type": "event"
    },
    {
      "inputs": [],
      "name": "acceptOwnership",
      "outputs": [],
      "stateMutability": "nonpayable",
      "type": "function"
    },
    {
      "inputs": [
        {
          "internalType": "bytes32",
          "name": "_merkleRoot",
          "type": "bytes32"
        },
        {
          "internalType": "contract IERC20",
          "name": "_maha",
          "type": "address"
        },
        {
          "internalType": "contract ILocker",
          "name": "_locker",
          "type": "address"
        }
      ],
      "name": "initialize",
      "outputs": [],
      "stateMutability": "nonpayable",
      "type": "function"
    },
    {
      "inputs": [
        {
          "internalType": "uint256",
          "name": "",
          "type": "uint256"
        }
      ],
      "name": "isTokenIdMigrated",
      "outputs": [
        {
          "internalType": "bool",
          "name": "",
          "type": "bool"
        }
      ],
      "stateMutability": "view",
      "type": "function"
    },
    {
      "inputs": [
        {
          "internalType": "address",
          "name": "_user",
          "type": "address"
        },
        {
          "internalType": "uint256",
          "name": "_nftId",
          "type": "uint256"
        },
        {
          "internalType": "uint256",
          "name": "_mahaLocked",
          "type": "uint256"
        },
        {
          "internalType": "uint256",
          "name": "_startTime",
          "type": "uint256"
        },
        {
          "internalType": "uint256",
          "name": "_endTime",
          "type": "uint256"
        },
        {
          "internalType": "uint256",
          "name": "_mahaBonus",
          "type": "uint256"
        },
        {
          "internalType": "bytes32[]",
          "name": "_proof",
          "type": "bytes32[]"
        }
      ],
      "name": "isValidLock",
      "outputs": [
        {
          "internalType": "bool",
          "name": "",
          "type": "bool"
        }
      ],
      "stateMutability": "view",
      "type": "function"
    },
    {
      "inputs": [],
      "name": "locker",
      "outputs": [
        {
          "internalType": "contract ILocker",
          "name": "",
          "type": "address"
        }
      ],
      "stateMutability": "view",
      "type": "function"
    },
    {
      "inputs": [],
      "name": "maha",
      "outputs": [
        {
          "internalType": "contract IERC20",
          "name": "",
          "type": "address"
        }
      ],
      "stateMutability": "view",
      "type": "function"
    },
    {
      "inputs": [],
      "name": "merkleRoot",
      "outputs": [
        {
          "internalType": "bytes32",
          "name": "",
          "type": "bytes32"
        }
      ],
      "stateMutability": "view",
      "type": "function"
    },
    {
      "inputs": [
        {
          "internalType": "address",
          "name": "_user",
          "type": "address"
        },
        {
          "internalType": "uint256",
          "name": "_nftId",
          "type": "uint256"
        },
        {
          "internalType": "uint256",
          "name": "_mahaLocked",
          "type": "uint256"
        },
        {
          "internalType": "uint256",
          "name": "_startTime",
          "type": "uint256"
        },
        {
          "internalType": "uint256",
          "name": "_endTime",
          "type": "uint256"
        },
        {
          "internalType": "uint256",
          "name": "_mahaBonus",
          "type": "uint256"
        },
        {
          "internalType": "bool",
          "name": "_stakeNFT",
          "type": "bool"
        },
        {
          "internalType": "bytes32[]",
          "name": "proof",
          "type": "bytes32[]"
        }
      ],
      "name": "migrateLock",
      "outputs": [],
      "stateMutability": "nonpayable",
      "type": "function"
    },
    {
      "inputs": [],
      "name": "owner",
      "outputs": [
        {
          "internalType": "address",
          "name": "",
          "type": "address"
        }
      ],
      "stateMutability": "view",
      "type": "function"
    },
    {
      "inputs": [],
      "name": "paused",
      "outputs": [
        {
          "internalType": "bool",
          "name": "",
          "type": "bool"
        }
      ],
      "stateMutability": "view",
      "type": "function"
    },
    {
      "inputs": [],
      "name": "pendingOwner",
      "outputs": [
        {
          "internalType": "address",
          "name": "",
          "type": "address"
        }
      ],
      "stateMutability": "view",
      "type": "function"
    },
    {
      "inputs": [
        {
          "internalType": "contract IERC20",
          "name": "token",
          "type": "address"
        }
      ],
      "name": "refund",
      "outputs": [],
      "stateMutability": "nonpayable",
      "type": "function"
    },
    {
      "inputs": [],
      "name": "renounceOwnership",
      "outputs": [],
      "stateMutability": "nonpayable",
      "type": "function"
    },
    {
      "inputs": [],
      "name": "togglePause",
      "outputs": [],
      "stateMutability": "nonpayable",
      "type": "function"
    },
    {
      "inputs": [
        {
          "internalType": "address",
          "name": "newOwner",
          "type": "address"
        }
      ],
      "name": "transferOwnership",
      "outputs": [],
      "stateMutability": "nonpayable",
      "type": "function"
    },
    {
      "inputs": [
        {
          "internalType": "bytes32",
          "name": "_newMerkleRoot",
          "type": "bytes32"
        }
      ],
      "name": "updateMerkleRoot",
      "outputs": [],
      "stateMutability": "nonpayable",
      "type": "function"
    }
  ],
  "transactionHash": "0x180c3119bad2f1571190e107be25041d0f3aa9b337e003d029d98ae36e28b1c7",
  "args": [],
  "numDeployments": 1,
  "solcInputHash": "b2440f966c000d8f758b0b3cd628bd37",
  "bytecode": "0x608060405234801561001057600080fd5b5061144c806100206000396000f3fe608060405234801561001057600080fd5b50600436106101005760003560e01c806388b117b311610097578063d7b96d4e11610066578063d7b96d4e14610217578063e30c39781461022a578063f2fde38b14610232578063fa89401a1461024557600080fd5b806388b117b3146101e15780638da5cb5b146101f4578063c1ac8bae146101fc578063c4ae31681461020f57600080fd5b80635c975abb116100d35780635c975abb14610194578063715018a6146101be5780637468db4d146101c657806379ba5097146101d957600080fd5b80632eb4a7ab146101055780633a50433d146101215780633de00c36146101545780634783f0ef1461017f575b600080fd5b61010e60005481565b6040519081526020015b60405180910390f35b61014461012f3660046110eb565b60036020526000908152604090205460ff1681565b6040519015158152602001610118565b600154610167906001600160a01b031681565b6040516001600160a01b039091168152602001610118565b61019261018d3660046110eb565b610258565b005b7fcd5ed15c6e187e77e9aee88184c21f4f2182ab5827cb3b7e07fbedcd63f033005460ff16610144565b6101926102a5565b6101926101d4366004611173565b6102b9565b61019261030e565b6101926101ef36600461120f565b61035b565b6101676104e4565b61014461020a366004611251565b610519565b610192610601565b600254610167906001600160a01b031681565b610167610643565b6101926102403660046112d7565b61066c565b6101926102533660046112d7565b6106fe565b61026061079e565b600080549082905560408051828152602081018490527ffd69edeceaf1d6832d935be1fba54ca93bf17e71520c6c9ffc08d6e9529f8757910160405180910390a15050565b6102ad61079e565b6102b760006107d0565b565b6102c1610819565b6102c961087c565b6102da8989898989898989896108d8565b61030360017f9b779b17422d0df92223018b32b4d1fa46e071723d6817e2486d003becc55f0055565b505050505050505050565b3380610318610643565b6001600160a01b03161461034f5760405163118cdaa760e01b81526001600160a01b03821660048201526024015b60405180910390fd5b610358816107d0565b50565b7ff0c57e16840df040f15088dc2f81fe391c3923bec73e23a9662efc9c229c6a00805468010000000000000000810460ff16159067ffffffffffffffff166000811580156103a65750825b905060008267ffffffffffffffff1660011480156103c35750303b155b9050811580156103d1575080155b15610408576040517ff92ee8a900000000000000000000000000000000000000000000000000000000815260040160405180910390fd5b845467ffffffffffffffff19166001178555831561043c57845468ff00000000000000001916680100000000000000001785555b61044533610b72565b61044d610b83565b6000889055600180546001600160a01b03808a1673ffffffffffffffffffffffffffffffffffffffff1992831617909255600280549289169290911691909117905583156104da57845468ff000000000000000019168555604051600181527fc7f505b2f371ae2175ee4913f4499e1f2633a7b5936321eed1cdaeb6115181d29060200160405180910390a15b5050505050505050565b6000807f9016d09d72d40fdae2fd8ceac6b6234c7706214fd39c1cd1e609a0528c1993005b546001600160a01b031692915050565b6040516bffffffffffffffffffffffff1960608a901b1660208201526034810188905260548101879052607481018690526094810185905260b48101849052600090819060d4016040516020818303038152906040528051906020012090506105b78484808060200260200160405190810160405280939291908181526020018383602002808284376000920182905250549250859150610b939050565b6105f15783836040517f3269cd150000000000000000000000000000000000000000000000000000000081526004016103469291906112f4565b5060019998505050505050505050565b61060961079e565b7fcd5ed15c6e187e77e9aee88184c21f4f2182ab5827cb3b7e07fbedcd63f033005460ff161561063b576102b7610bab565b6102b7610c1d565b6000807f237e158222e3e6968b72b9db0d8043aacf074ad9f650f0d1606b4d82ee432c00610509565b61067461079e565b7f237e158222e3e6968b72b9db0d8043aacf074ad9f650f0d1606b4d82ee432c00805473ffffffffffffffffffffffffffffffffffffffff19166001600160a01b03831690811782556106c56104e4565b6001600160a01b03167f38d16b8cac22d99fc7c124b9cd0de2d3fa1faef420bfe791d8c362d765e2270060405160405180910390a35050565b61070661079e565b6040517f70a082310000000000000000000000000000000000000000000000000000000081523060048201526103589033906001600160a01b038416906370a0823190602401602060405180830381865afa158015610769573d6000803e3d6000fd5b505050506040513d601f19601f8201168201806040525081019061078d9190611346565b6001600160a01b0384169190610c78565b336107a76104e4565b6001600160a01b0316146102b75760405163118cdaa760e01b8152336004820152602401610346565b7f237e158222e3e6968b72b9db0d8043aacf074ad9f650f0d1606b4d82ee432c00805473ffffffffffffffffffffffffffffffffffffffff1916815561081582610cfd565b5050565b7f9b779b17422d0df92223018b32b4d1fa46e071723d6817e2486d003becc55f00805460011901610876576040517f3ee5aeb500000000000000000000000000000000000000000000000000000000815260040160405180910390fd5b60029055565b7fcd5ed15c6e187e77e9aee88184c21f4f2182ab5827cb3b7e07fbedcd63f033005460ff16156102b7576040517fd93c066500000000000000000000000000000000000000000000000000000000815260040160405180910390fd5b6001600160a01b038916610918576040517ff6b2911f00000000000000000000000000000000000000000000000000000000815260040160405180910390fd5b60008881526003602052604090205460ff1615610964576040517ff3103e1500000000000000000000000000000000000000000000000000000000815260048101899052602401610346565b876000036109a1576040517fed15e6cf00000000000000000000000000000000000000000000000000000000815260048101899052602401610346565b6109ae4262127500611375565b8510156109ea576040517f0ae51a3600000000000000000000000000000000000000000000000000000000815260048101869052602401610346565b6109fa8989898989898888610519565b506000610a074287611388565b6002546040517f0a2abdb3000000000000000000000000000000000000000000000000000000008152600481018b9052602481018390526001600160a01b038d81166044830152871515606483015292935060009290911690630a2abdb3906084016020604051808303816000875af1158015610a88573d6000803e3d6000fd5b505050506040513d601f19601f82011682018060405250810190610aac9190611346565b905080600003610aeb576040517f11d7d62800000000000000000000000000000000000000000000000000000000815260048101829052602401610346565b60008a8152600360205260409020805460ff191660011790558515610b2157600154610b21906001600160a01b03163388610c78565b898b6001600160a01b03167fd083678824038160bef3975359ab29f19c3f0e9bcf9d7ead540a492d4d678b6388604051610b5d91815260200190565b60405180910390a35050505050505050505050565b610b7a610d7b565b61035881610de2565b610b8b610d7b565b6102b7610e2d565b600082610ba08584610e60565b1490505b9392505050565b610bb3610eaf565b7fcd5ed15c6e187e77e9aee88184c21f4f2182ab5827cb3b7e07fbedcd63f03300805460ff191681557f5db9ee0a495bf2e6ff9c91a7834c1ba4fdd244a5e8aa4e537bd38aeae4b073aa335b6040516001600160a01b03909116815260200160405180910390a150565b610c2561087c565b7fcd5ed15c6e187e77e9aee88184c21f4f2182ab5827cb3b7e07fbedcd63f03300805460ff191660011781557f62e78cea01bee320cd4e420270b5ea74000d11b0c9f74754ebdbfc544b05a25833610bff565b604080516001600160a01b038416602482015260448082018490528251808303909101815260649091019091526020810180517bffffffffffffffffffffffffffffffffffffffffffffffffffffffff167fa9059cbb00000000000000000000000000000000000000000000000000000000179052610cf8908490610f0a565b505050565b7f9016d09d72d40fdae2fd8ceac6b6234c7706214fd39c1cd1e609a0528c199300805473ffffffffffffffffffffffffffffffffffffffff1981166001600160a01b03848116918217845560405192169182907f8be0079c531659141344cd1fd0a4f28419497f9722a3daafe3b4186f6b6457e090600090a3505050565b7ff0c57e16840df040f15088dc2f81fe391c3923bec73e23a9662efc9c229c6a005468010000000000000000900460ff166102b7576040517fd7e6bcf800000000000000000000000000000000000000000000000000000000815260040160405180910390fd5b610dea610d7b565b6001600160a01b03811661034f576040517f1e4fbdf700000000000000000000000000000000000000000000000000000000815260006004820152602401610346565b610e35610d7b565b7fcd5ed15c6e187e77e9aee88184c21f4f2182ab5827cb3b7e07fbedcd63f03300805460ff19169055565b600081815b8451811015610ea557610e9182868381518110610e8457610e8461139b565b6020026020010151610f86565b915080610e9d816113b1565b915050610e65565b5090505b92915050565b7fcd5ed15c6e187e77e9aee88184c21f4f2182ab5827cb3b7e07fbedcd63f033005460ff166102b7576040517f8dfc202b00000000000000000000000000000000000000000000000000000000815260040160405180910390fd5b6000610f1f6001600160a01b03841683610fb2565b90508051600014158015610f44575080806020019051810190610f4291906113ca565b155b15610cf8576040517f5274afe70000000000000000000000000000000000000000000000000000000081526001600160a01b0384166004820152602401610346565b6000818310610fa2576000828152602084905260409020610ba4565b5060009182526020526040902090565b6060610ba48383600084600080856001600160a01b03168486604051610fd891906113e7565b60006040518083038185875af1925050503d8060008114611015576040519150601f19603f3d011682016040523d82523d6000602084013e61101a565b606091505b509150915061102a868383611034565b9695505050505050565b60608261104957611044826110a9565b610ba4565b815115801561106057506001600160a01b0384163b155b156110a2576040517f9996b3150000000000000000000000000000000000000000000000000000000081526001600160a01b0385166004820152602401610346565b5080610ba4565b8051156110b95780518082602001fd5b6040517f1425ea4200000000000000000000000000000000000000000000000000000000815260040160405180910390fd5b6000602082840312156110fd57600080fd5b5035919050565b6001600160a01b038116811461035857600080fd5b801515811461035857600080fd5b60008083601f84011261113957600080fd5b50813567ffffffffffffffff81111561115157600080fd5b6020830191508360208260051b850101111561116c57600080fd5b9250929050565b60008060008060008060008060006101008a8c03121561119257600080fd5b893561119d81611104565b985060208a0135975060408a0135965060608a0135955060808a0135945060a08a0135935060c08a01356111d081611119565b925060e08a013567ffffffffffffffff8111156111ec57600080fd5b6111f88c828d01611127565b915080935050809150509295985092959850929598565b60008060006060848603121561122457600080fd5b83359250602084013561123681611104565b9150604084013561124681611104565b809150509250925092565b60008060008060008060008060e0898b03121561126d57600080fd5b883561127881611104565b97506020890135965060408901359550606089013594506080890135935060a0890135925060c089013567ffffffffffffffff8111156112b757600080fd5b6112c38b828c01611127565b999c989b5096995094979396929594505050565b6000602082840312156112e957600080fd5b8135610ba481611104565b6020815281602082015260007f07ffffffffffffffffffffffffffffffffffffffffffffffffffffffffffffff83111561132d57600080fd5b8260051b80856040850137919091016040019392505050565b60006020828403121561135857600080fd5b5051919050565b634e487b7160e01b600052601160045260246000fd5b80820180821115610ea957610ea961135f565b81810381811115610ea957610ea961135f565b634e487b7160e01b600052603260045260246000fd5b6000600182016113c3576113c361135f565b5060010190565b6000602082840312156113dc57600080fd5b8151610ba481611119565b6000825160005b8181101561140857602081860181015185830152016113ee565b50600092019182525091905056fea2646970667358221220bb85762f90397fc211ea403fb61814c3a70b37105c32fc32f1df7eeddd35d8db64736f6c63430008150033",
  "devdoc": {
    "details": "Implements migration functionality using a Merkle tree for verification and interacts with an ILocker contract.      Includes features such as pausing, owner control, and token refunds.",
    "errors": {
      "AddressEmptyCode(address)": [
        {
          "details": "There's no code at `target` (it is not a contract)."
        }
      ],
      "AddressInsufficientBalance(address)": [
        {
          "details": "The ETH balance of the account is not enough to perform the operation."
        }
      ],
      "AlreadyMigrated(uint256)": [
        {
          "params": {
            "nftId": "The ID of the NFT that was already migrated."
          }
        }
      ],
      "EndTimeExpired(uint256)": [
        {
          "params": {
            "endTime": "The invalid end time provided."
          }
        }
      ],
      "EnforcedPause()": [
        {
          "details": "The operation failed because the contract is paused."
        }
      ],
      "ExpectedPause()": [
        {
          "details": "The operation failed because the contract is not paused."
        }
      ],
      "FailedInnerCall()": [
        {
          "details": "A call to an address target failed. The target may have reverted."
        }
      ],
      "InvalidInitialization()": [
        {
          "details": "The contract is already initialized."
        }
      ],
      "InvalidMerkleProof(bytes32[])": [
        {
          "params": {
            "proof": "The invalid Merkle proof."
          }
        }
      ],
      "InvalidTokenId(uint256)": [
        {
          "params": {
            "nftId": "The invalid NFT ID."
          }
        }
      ],
      "MigrationFailed(uint256)": [
        {
          "params": {
            "nftId": "The ID of the NFT for which migration failed."
          }
        }
      ],
      "NotInitializing()": [
        {
          "details": "The contract is not initializing."
        }
      ],
      "OwnableInvalidOwner(address)": [
        {
          "details": "The owner is not a valid owner account. (eg. `address(0)`)"
        }
      ],
      "OwnableUnauthorizedAccount(address)": [
        {
          "details": "The caller account is not authorized to perform an operation."
        }
      ],
      "ReentrancyGuardReentrantCall()": [
        {
          "details": "Unauthorized reentrant call."
        }
      ],
      "SafeERC20FailedOperation(address)": [
        {
          "details": "An operation with an ERC20 token failed."
        }
      ]
    },
    "events": {
      "Initialized(uint64)": {
        "details": "Triggered when the contract has been initialized or reinitialized."
      },
      "MerkleRootUpdated(bytes32,bytes32)": {
        "params": {
          "newMerkleRoot": "The new Merkle root.",
          "oldMerkleRoot": "The previous Merkle root."
        }
      },
      "Migrated(address,uint256,uint256)": {
        "params": {
          "bonus": "The amount of bonus MAHA tokens distributed.",
          "nftId": "The ID of the NFT issued to the user.",
          "user": "The address of the user who migrated."
        }
      },
      "Paused(address)": {
        "details": "Emitted when the pause is triggered by `account`."
      },
      "Unpaused(address)": {
        "details": "Emitted when the pause is lifted by `account`."
      }
    },
    "kind": "dev",
    "methods": {
      "acceptOwnership()": {
        "details": "The new owner accepts the ownership transfer."
      },
      "initialize(bytes32,address,address)": {
        "params": {
          "_locker": "The ILocker contract address.",
          "_maha": "The MAHA token contract address.",
          "_merkleRoot": "The Merkle root for verifying eligibility."
        }
      },
      "isValidLock(address,uint256,uint256,uint256,uint256,uint256,bytes32[])": {
        "params": {
          "_endTime": "The lock's end time.",
          "_mahaBonus": "The bonus MAHA tokens.",
          "_mahaLocked": "The amount of locked MAHA tokens.",
          "_nftId": "The NFT ID.",
          "_proof": "The Merkle proof.",
          "_startTime": "The lock's start time.",
          "_user": "The user's address."
        },
        "returns": {
          "_0": "bool Returns `true` if the lock is valid, otherwise reverts."
        }
      },
      "migrateLock(address,uint256,uint256,uint256,uint256,uint256,bool,bytes32[])": {
        "details": "Emits a `Migrated` event upon success.      Reverts with appropriate errors for invalid data or migration conditions.",
        "params": {
          "_endTime": "The end time of the lock.",
          "_mahaBonus": "The amount of bonus MAHA tokens to be distributed.",
          "_mahaLocked": "The amount of MAHA tokens to be locked.",
          "_nftId": "The ID of the NFT to be migrated.",
          "_stakeNFT": "Whether to stake the NFT or not.",
          "_startTime": "The start time of the lock.",
          "_user": "The address of the user initiating the migration.",
          "proof": "The Merkle proof verifying the user's eligibility."
        }
      },
      "owner()": {
        "details": "Returns the address of the current owner."
      },
      "paused()": {
        "details": "Returns true if the contract is paused, and false otherwise."
      },
      "pendingOwner()": {
        "details": "Returns the address of the pending owner."
      },
      "refund(address)": {
        "details": "Transfers the entire token balance of the contract to the owner.",
        "params": {
          "token": "The ERC20 token to refund."
        }
      },
      "renounceOwnership()": {
        "details": "Leaves the contract without owner. It will not be possible to call `onlyOwner` functions. Can only be called by the current owner. NOTE: Renouncing ownership will leave the contract without an owner, thereby disabling any functionality that is only available to the owner."
      },
      "togglePause()": {
        "details": "Only callable by the owner. Pauses or unpauses the contract."
      },
      "transferOwnership(address)": {
        "details": "Starts the ownership transfer of the contract to a new account. Replaces the pending transfer if there is one. Can only be called by the current owner."
      },
      "updateMerkleRoot(bytes32)": {
        "details": "Only callable by the owner. Emits a `MerkleRootUpdated` event.",
        "params": {
          "_newMerkleRoot": "The new Merkle root."
        }
      }
    },
    "title": "MigratorMaha",
    "version": 1
  },
  "userdoc": {
    "errors": {
      "AlreadyMigrated(uint256)": [
        {
          "notice": "Thrown when attempting to migrate an already migrated NFT ID."
        }
      ],
      "EndTimeExpired(uint256)": [
        {
          "notice": "Thrown when the lock's end time is already expired or invalid."
        }
      ],
      "InvalidMerkleProof(bytes32[])": [
        {
          "notice": "Thrown when an invalid Merkle proof is submitted."
        }
      ],
      "InvalidTokenId(uint256)": [
        {
          "notice": "Thrown when an invalid or zero NFT ID is provided."
        }
      ],
      "InvalidZeroAddress()": [
        {
          "notice": "Thrown when a zero address is provided where an address is required."
        }
      ],
      "MigrationFailed(uint256)": [
        {
          "notice": "Thrown when the migration process fails."
        }
      ]
    },
    "events": {
      "MerkleRootUpdated(bytes32,bytes32)": {
        "notice": "Event emitted when the Merkle root is updated."
      },
      "Migrated(address,uint256,uint256)": {
        "notice": "Event emitted when a migration is successfully completed."
      }
    },
    "kind": "user",
    "methods": {
      "initialize(bytes32,address,address)": {
        "notice": "Initializes the contract with initial values."
      },
      "isTokenIdMigrated(uint256)": {
        "notice": "Tracks whether an NFT ID has already been migrated."
      },
      "isValidLock(address,uint256,uint256,uint256,uint256,uint256,bytes32[])": {
        "notice": "Verifies the validity of a migration lock using the Merkle tree."
      },
      "locker()": {
        "notice": "Address of the ILocker contract for lock creation."
      },
      "maha()": {
        "notice": "Address of the MAHA token contract used for bonus distribution."
      },
      "merkleRoot()": {
        "notice": "Merkle root used to verify the migration eligibility of users."
      },
      "migrateLock(address,uint256,uint256,uint256,uint256,uint256,bool,bytes32[])": {
        "notice": "Facilitates the migration of locked assets."
      },
      "refund(address)": {
        "notice": "Refunds the contract's token balance to the owner."
      },
      "togglePause()": {
        "notice": "Toggles the paused state of the contract."
      },
      "updateMerkleRoot(bytes32)": {
        "notice": "Updates the Merkle root used for migration verification."
      }
    },
    "notice": "This contract facilitates the migration of locked assets and distributes bonus MAHA tokens to eligible users.",
    "version": 1
  },
  "storageLayout": {
    "storage": [
      {
        "astId": 25383,
        "contract": "contracts/MigrateMaha.sol:MigratorMaha",
        "label": "merkleRoot",
        "offset": 0,
        "slot": "0",
        "type": "t_bytes32"
      },
      {
        "astId": 25387,
        "contract": "contracts/MigrateMaha.sol:MigratorMaha",
        "label": "maha",
        "offset": 0,
        "slot": "1",
        "type": "t_contract(IERC20)16005"
      },
      {
        "astId": 25391,
        "contract": "contracts/MigrateMaha.sol:MigratorMaha",
        "label": "locker",
        "offset": 0,
        "slot": "2",
        "type": "t_contract(ILocker)37583"
      },
      {
        "astId": 25396,
        "contract": "contracts/MigrateMaha.sol:MigratorMaha",
        "label": "isTokenIdMigrated",
        "offset": 0,
        "slot": "3",
        "type": "t_mapping(t_uint256,t_bool)"
      }
    ],
    "types": {
      "t_bool": {
        "encoding": "inplace",
        "label": "bool",
        "numberOfBytes": "1"
      },
      "t_bytes32": {
        "encoding": "inplace",
        "label": "bytes32",
        "numberOfBytes": "32"
      },
      "t_contract(IERC20)16005": {
        "encoding": "inplace",
        "label": "contract IERC20",
        "numberOfBytes": "20"
      },
      "t_contract(ILocker)37583": {
        "encoding": "inplace",
        "label": "contract ILocker",
        "numberOfBytes": "20"
      },
      "t_mapping(t_uint256,t_bool)": {
        "encoding": "mapping",
        "key": "t_uint256",
        "label": "mapping(uint256 => bool)",
        "numberOfBytes": "32",
        "value": "t_bool"
      },
      "t_uint256": {
        "encoding": "inplace",
        "label": "uint256",
        "numberOfBytes": "32"
      }
    }
  }
}