{
  "address": "0xA0498367440F6156e453bc96bF42B089eDC5926e",
  "abi": [
    {
      "inputs": [
        {
          "internalType": "address",
          "name": "target",
          "type": "address"
        }
      ],
      "name": "AddressEmptyCode",
      "type": "error"
    },
    {
      "inputs": [
        {
          "internalType": "address",
          "name": "account",
          "type": "address"
        }
      ],
      "name": "AddressInsufficientBalance",
      "type": "error"
    },
    {
      "inputs": [],
      "name": "CheckpointUnorderedInsertion",
      "type": "error"
    },
    {
      "inputs": [],
      "name": "ECDSAInvalidSignature",
      "type": "error"
    },
    {
      "inputs": [
        {
          "internalType": "uint256",
          "name": "length",
          "type": "uint256"
        }
      ],
      "name": "ECDSAInvalidSignatureLength",
      "type": "error"
    },
    {
      "inputs": [
        {
          "internalType": "bytes32",
          "name": "s",
          "type": "bytes32"
        }
      ],
      "name": "ECDSAInvalidSignatureS",
      "type": "error"
    },
    {
      "inputs": [
        {
          "internalType": "uint256",
          "name": "increasedSupply",
          "type": "uint256"
        },
        {
          "internalType": "uint256",
          "name": "cap",
          "type": "uint256"
        }
      ],
      "name": "ERC20ExceededSafeSupply",
      "type": "error"
    },
    {
      "inputs": [
        {
          "internalType": "address",
          "name": "spender",
          "type": "address"
        },
        {
          "internalType": "uint256",
          "name": "allowance",
          "type": "uint256"
        },
        {
          "internalType": "uint256",
          "name": "needed",
          "type": "uint256"
        }
      ],
      "name": "ERC20InsufficientAllowance",
      "type": "error"
    },
    {
      "inputs": [
        {
          "internalType": "address",
          "name": "sender",
          "type": "address"
        },
        {
          "internalType": "uint256",
          "name": "balance",
          "type": "uint256"
        },
        {
          "internalType": "uint256",
          "name": "needed",
          "type": "uint256"
        }
      ],
      "name": "ERC20InsufficientBalance",
      "type": "error"
    },
    {
      "inputs": [
        {
          "internalType": "address",
          "name": "approver",
          "type": "address"
        }
      ],
      "name": "ERC20InvalidApprover",
      "type": "error"
    },
    {
      "inputs": [
        {
          "internalType": "address",
          "name": "receiver",
          "type": "address"
        }
      ],
      "name": "ERC20InvalidReceiver",
      "type": "error"
    },
    {
      "inputs": [
        {
          "internalType": "address",
          "name": "sender",
          "type": "address"
        }
      ],
      "name": "ERC20InvalidSender",
      "type": "error"
    },
    {
      "inputs": [
        {
          "internalType": "address",
          "name": "spender",
          "type": "address"
        }
      ],
      "name": "ERC20InvalidSpender",
      "type": "error"
    },
    {
      "inputs": [
        {
          "internalType": "uint256",
          "name": "timepoint",
          "type": "uint256"
        },
        {
          "internalType": "uint48",
          "name": "clock",
          "type": "uint48"
        }
      ],
      "name": "ERC5805FutureLookup",
      "type": "error"
    },
    {
      "inputs": [],
      "name": "ERC6372InconsistentClock",
      "type": "error"
    },
    {
      "inputs": [],
      "name": "FailedInnerCall",
      "type": "error"
    },
    {
      "inputs": [
        {
          "internalType": "address",
          "name": "account",
          "type": "address"
        },
        {
          "internalType": "uint256",
          "name": "currentNonce",
          "type": "uint256"
        }
      ],
      "name": "InvalidAccountNonce",
      "type": "error"
    },
    {
      "inputs": [],
      "name": "InvalidInitialization",
      "type": "error"
    },
    {
      "inputs": [
        {
          "internalType": "address",
          "name": "",
          "type": "address"
        },
        {
          "internalType": "address",
          "name": "",
          "type": "address"
        }
      ],
      "name": "InvalidUnstaker",
      "type": "error"
    },
    {
      "inputs": [],
      "name": "NotInitializing",
      "type": "error"
    },
    {
      "inputs": [
        {
          "internalType": "address",
          "name": "owner",
          "type": "address"
        }
      ],
      "name": "OwnableInvalidOwner",
      "type": "error"
    },
    {
      "inputs": [
        {
          "internalType": "address",
          "name": "account",
          "type": "address"
        }
      ],
      "name": "OwnableUnauthorizedAccount",
      "type": "error"
    },
    {
      "inputs": [],
      "name": "ReentrancyGuardReentrantCall",
      "type": "error"
    },
    {
      "inputs": [
        {
          "internalType": "uint8",
          "name": "bits",
          "type": "uint8"
        },
        {
          "internalType": "uint256",
          "name": "value",
          "type": "uint256"
        }
      ],
      "name": "SafeCastOverflowedUintDowncast",
      "type": "error"
    },
    {
      "inputs": [
        {
          "internalType": "address",
          "name": "token",
          "type": "address"
        }
      ],
      "name": "SafeERC20FailedOperation",
      "type": "error"
    },
    {
      "inputs": [
        {
          "internalType": "uint256",
          "name": "expiry",
          "type": "uint256"
        }
      ],
      "name": "VotesExpiredSignature",
      "type": "error"
    },
    {
      "anonymous": false,
      "inputs": [
        {
          "indexed": true,
          "internalType": "address",
          "name": "owner",
          "type": "address"
        },
        {
          "indexed": true,
          "internalType": "address",
          "name": "spender",
          "type": "address"
        },
        {
          "indexed": false,
          "internalType": "uint256",
          "name": "value",
          "type": "uint256"
        }
      ],
      "name": "Approval",
      "type": "event"
    },
    {
      "anonymous": false,
      "inputs": [
        {
          "indexed": true,
          "internalType": "address",
          "name": "delegator",
          "type": "address"
        },
        {
          "indexed": true,
          "internalType": "address",
          "name": "fromDelegate",
          "type": "address"
        },
        {
          "indexed": true,
          "internalType": "address",
          "name": "toDelegate",
          "type": "address"
        }
      ],
      "name": "DelegateChanged",
      "type": "event"
    },
    {
      "anonymous": false,
      "inputs": [
        {
          "indexed": true,
          "internalType": "address",
          "name": "delegate",
          "type": "address"
        },
        {
          "indexed": false,
          "internalType": "uint256",
          "name": "previousVotes",
          "type": "uint256"
        },
        {
          "indexed": false,
          "internalType": "uint256",
          "name": "newVotes",
          "type": "uint256"
        }
      ],
      "name": "DelegateVotesChanged",
      "type": "event"
    },
    {
      "anonymous": false,
      "inputs": [],
      "name": "EIP712DomainChanged",
      "type": "event"
    },
    {
      "anonymous": false,
      "inputs": [
        {
          "indexed": false,
          "internalType": "uint64",
          "name": "version",
          "type": "uint64"
        }
      ],
      "name": "Initialized",
      "type": "event"
    },
    {
      "anonymous": false,
      "inputs": [
        {
          "indexed": true,
          "internalType": "address",
          "name": "oldLpOracle",
          "type": "address"
        },
        {
          "indexed": true,
          "internalType": "address",
          "name": "newLpOracle",
          "type": "address"
        }
      ],
      "name": "LpOracleSet",
      "type": "event"
    },
    {
      "anonymous": false,
      "inputs": [
        {
          "indexed": true,
          "internalType": "address",
          "name": "previousOwner",
          "type": "address"
        },
        {
          "indexed": true,
          "internalType": "address",
          "name": "newOwner",
          "type": "address"
        }
      ],
      "name": "OwnershipTransferred",
      "type": "event"
    },
    {
      "anonymous": false,
      "inputs": [
        {
          "indexed": false,
          "internalType": "address",
          "name": "previousVoter",
          "type": "address"
        },
        {
          "indexed": false,
          "internalType": "address",
          "name": "_poolVoter",
          "type": "address"
        }
      ],
      "name": "PoolVoterUpdated",
      "type": "event"
    },
    {
      "anonymous": false,
      "inputs": [
        {
          "indexed": false,
          "internalType": "address",
          "name": "token",
          "type": "address"
        },
        {
          "indexed": false,
          "internalType": "uint256",
          "name": "amount",
          "type": "uint256"
        }
      ],
      "name": "Recovered",
      "type": "event"
    },
    {
      "anonymous": false,
      "inputs": [
        {
          "indexed": true,
          "internalType": "contract IERC20",
          "name": "reward",
          "type": "address"
        },
        {
          "indexed": true,
          "internalType": "uint256",
          "name": "amount",
          "type": "uint256"
        },
        {
          "indexed": false,
          "internalType": "address",
          "name": "caller",
          "type": "address"
        }
      ],
      "name": "RewardAdded",
      "type": "event"
    },
    {
      "anonymous": false,
      "inputs": [
        {
          "indexed": true,
          "internalType": "contract IERC20",
          "name": "reward",
          "type": "address"
        },
        {
          "indexed": true,
          "internalType": "uint256",
          "name": "amount",
          "type": "uint256"
        },
        {
          "indexed": true,
          "internalType": "address",
          "name": "who",
          "type": "address"
        },
        {
          "indexed": false,
          "internalType": "address",
          "name": "caller",
          "type": "address"
        }
      ],
      "name": "RewardClaimed",
      "type": "event"
    },
    {
      "anonymous": false,
      "inputs": [
        {
          "indexed": false,
          "internalType": "uint256",
          "name": "newDuration",
          "type": "uint256"
        }
      ],
      "name": "RewardsDurationUpdated",
      "type": "event"
    },
    {
      "anonymous": false,
      "inputs": [
        {
          "indexed": false,
          "internalType": "address",
          "name": "previousToken",
          "type": "address"
        },
        {
          "indexed": false,
          "internalType": "address",
          "name": "_zeroToken",
          "type": "address"
        }
      ],
      "name": "RewardsTokenUpdated",
      "type": "event"
    },
    {
      "anonymous": false,
      "inputs": [
        {
          "indexed": false,
          "internalType": "address",
          "name": "previousLocker",
          "type": "address"
        },
        {
          "indexed": false,
          "internalType": "address",
          "name": "_tokenLocker",
          "type": "address"
        }
      ],
      "name": "TokenLockerUpdated",
      "type": "event"
    },
    {
      "anonymous": false,
      "inputs": [
        {
          "indexed": true,
          "internalType": "address",
          "name": "from",
          "type": "address"
        },
        {
          "indexed": true,
          "internalType": "address",
          "name": "to",
          "type": "address"
        },
        {
          "indexed": false,
          "internalType": "uint256",
          "name": "value",
          "type": "uint256"
        }
      ],
      "name": "Transfer",
      "type": "event"
    },
    {
      "anonymous": false,
      "inputs": [
        {
          "indexed": true,
          "internalType": "address",
          "name": "oldZeroAggregator",
          "type": "address"
        },
        {
          "indexed": true,
          "internalType": "address",
          "name": "newZeroAggregator",
          "type": "address"
        }
      ],
      "name": "ZeroAggregatorSet",
      "type": "event"
    },
    {
      "inputs": [],
      "name": "CLOCK_MODE",
      "outputs": [
        {
          "internalType": "string",
          "name": "",
          "type": "string"
        }
      ],
      "stateMutability": "view",
      "type": "function"
    },
    {
      "inputs": [
        {
          "internalType": "address",
          "name": "owner",
          "type": "address"
        },
        {
          "internalType": "address",
          "name": "spender",
          "type": "address"
        }
      ],
      "name": "allowance",
      "outputs": [
        {
          "internalType": "uint256",
          "name": "",
          "type": "uint256"
        }
      ],
      "stateMutability": "view",
      "type": "function"
    },
    {
      "inputs": [
        {
          "internalType": "address",
          "name": "spender",
          "type": "address"
        },
        {
          "internalType": "uint256",
          "name": "value",
          "type": "uint256"
        }
      ],
      "name": "approve",
      "outputs": [
        {
          "internalType": "bool",
          "name": "",
          "type": "bool"
        }
      ],
      "stateMutability": "nonpayable",
      "type": "function"
    },
    {
      "inputs": [
        {
          "internalType": "address",
          "name": "account",
          "type": "address"
        }
      ],
      "name": "balanceOf",
      "outputs": [
        {
          "internalType": "uint256",
          "name": "",
          "type": "uint256"
        }
      ],
      "stateMutability": "view",
      "type": "function"
    },
    {
      "inputs": [
        {
          "internalType": "address",
          "name": "account",
          "type": "address"
        },
        {
          "internalType": "uint32",
          "name": "pos",
          "type": "uint32"
        }
      ],
      "name": "checkpoints",
      "outputs": [
        {
          "components": [
            {
              "internalType": "uint48",
              "name": "_key",
              "type": "uint48"
            },
            {
              "internalType": "uint208",
              "name": "_value",
              "type": "uint208"
            }
          ],
          "internalType": "struct Checkpoints.Checkpoint208",
          "name": "",
          "type": "tuple"
        }
      ],
      "stateMutability": "view",
      "type": "function"
    },
    {
      "inputs": [],
      "name": "clock",
      "outputs": [
        {
          "internalType": "uint48",
          "name": "",
          "type": "uint48"
        }
      ],
      "stateMutability": "view",
      "type": "function"
    },
    {
      "inputs": [],
      "name": "decimals",
      "outputs": [
        {
          "internalType": "uint8",
          "name": "",
          "type": "uint8"
        }
      ],
      "stateMutability": "view",
      "type": "function"
    },
    {
      "inputs": [
        {
          "internalType": "address",
          "name": "delegatee",
          "type": "address"
        }
      ],
      "name": "delegate",
      "outputs": [],
      "stateMutability": "nonpayable",
      "type": "function"
    },
    {
      "inputs": [
        {
          "internalType": "address",
          "name": "delegatee",
          "type": "address"
        },
        {
          "internalType": "uint256",
          "name": "nonce",
          "type": "uint256"
        },
        {
          "internalType": "uint256",
          "name": "expiry",
          "type": "uint256"
        },
        {
          "internalType": "uint8",
          "name": "v",
          "type": "uint8"
        },
        {
          "internalType": "bytes32",
          "name": "r",
          "type": "bytes32"
        },
        {
          "internalType": "bytes32",
          "name": "s",
          "type": "bytes32"
        }
      ],
      "name": "delegateBySig",
      "outputs": [],
      "stateMutability": "nonpayable",
      "type": "function"
    },
    {
      "inputs": [
        {
          "internalType": "address",
          "name": "account",
          "type": "address"
        }
      ],
      "name": "delegates",
      "outputs": [
        {
          "internalType": "address",
          "name": "",
          "type": "address"
        }
      ],
      "stateMutability": "view",
      "type": "function"
    },
    {
      "inputs": [],
      "name": "distributor",
      "outputs": [
        {
          "internalType": "address",
          "name": "",
          "type": "address"
        }
      ],
      "stateMutability": "view",
      "type": "function"
    },
    {
      "inputs": [
        {
          "internalType": "contract IERC20",
          "name": "token",
          "type": "address"
        },
        {
          "internalType": "address",
          "name": "account",
          "type": "address"
        }
      ],
      "name": "earned",
      "outputs": [
        {
          "internalType": "uint256",
          "name": "",
          "type": "uint256"
        }
      ],
      "stateMutability": "view",
      "type": "function"
    },
    {
      "inputs": [],
      "name": "eip712Domain",
      "outputs": [
        {
          "internalType": "bytes1",
          "name": "fields",
          "type": "bytes1"
        },
        {
          "internalType": "string",
          "name": "name",
          "type": "string"
        },
        {
          "internalType": "string",
          "name": "version",
          "type": "string"
        },
        {
          "internalType": "uint256",
          "name": "chainId",
          "type": "uint256"
        },
        {
          "internalType": "address",
          "name": "verifyingContract",
          "type": "address"
        },
        {
          "internalType": "bytes32",
          "name": "salt",
          "type": "bytes32"
        },
        {
          "internalType": "uint256[]",
          "name": "extensions",
          "type": "uint256[]"
        }
      ],
      "stateMutability": "view",
      "type": "function"
    },
    {
      "inputs": [
        {
          "internalType": "address",
          "name": "_user",
          "type": "address"
        }
      ],
      "name": "getLockedNftDetails",
      "outputs": [
        {
          "internalType": "uint256[]",
          "name": "",
          "type": "uint256[]"
        },
        {
          "components": [
            {
              "internalType": "uint256",
              "name": "amount",
              "type": "uint256"
            },
            {
              "internalType": "uint256",
              "name": "end",
              "type": "uint256"
            },
            {
              "internalType": "uint256",
              "name": "start",
              "type": "uint256"
            },
            {
              "internalType": "uint256",
              "name": "power",
              "type": "uint256"
            }
          ],
          "internalType": "struct ILocker.LockedBalance[]",
          "name": "",
          "type": "tuple[]"
        }
      ],
      "stateMutability": "view",
      "type": "function"
    },
    {
      "inputs": [
        {
          "internalType": "uint256",
          "name": "timepoint",
          "type": "uint256"
        }
      ],
      "name": "getPastTotalSupply",
      "outputs": [
        {
          "internalType": "uint256",
          "name": "",
          "type": "uint256"
        }
      ],
      "stateMutability": "view",
      "type": "function"
    },
    {
      "inputs": [
        {
          "internalType": "address",
          "name": "account",
          "type": "address"
        },
        {
          "internalType": "uint256",
          "name": "timepoint",
          "type": "uint256"
        }
      ],
      "name": "getPastVotes",
      "outputs": [
        {
          "internalType": "uint256",
          "name": "",
          "type": "uint256"
        }
      ],
      "stateMutability": "view",
      "type": "function"
    },
    {
      "inputs": [
        {
          "internalType": "address",
          "name": "who",
          "type": "address"
        },
        {
          "internalType": "contract IERC20",
          "name": "token",
          "type": "address"
        }
      ],
      "name": "getReward",
      "outputs": [],
      "stateMutability": "nonpayable",
      "type": "function"
    },
    {
      "inputs": [
        {
          "internalType": "address",
          "name": "who",
          "type": "address"
        }
      ],
      "name": "getRewardDual",
      "outputs": [],
      "stateMutability": "nonpayable",
      "type": "function"
    },
    {
      "inputs": [
        {
          "internalType": "address",
          "name": "who",
          "type": "address"
        }
      ],
      "name": "getRewardETH",
      "outputs": [],
      "stateMutability": "nonpayable",
      "type": "function"
    },
    {
      "inputs": [
        {
          "internalType": "uint256",
          "name": "amount",
          "type": "uint256"
        }
      ],
      "name": "getTokenPower",
      "outputs": [
        {
          "internalType": "uint256",
          "name": "_power",
          "type": "uint256"
        }
      ],
      "stateMutability": "view",
      "type": "function"
    },
    {
      "inputs": [
        {
          "internalType": "address",
          "name": "account",
          "type": "address"
        }
      ],
      "name": "getVotes",
      "outputs": [
        {
          "internalType": "uint256",
          "name": "",
          "type": "uint256"
        }
      ],
      "stateMutability": "view",
      "type": "function"
    },
    {
      "inputs": [
        {
          "internalType": "uint256",
          "name": "tokenId",
          "type": "uint256"
        },
        {
          "internalType": "uint256",
          "name": "newLockAmount",
          "type": "uint256"
        }
      ],
      "name": "increaseLockAmount",
      "outputs": [],
      "stateMutability": "nonpayable",
      "type": "function"
    },
    {
      "inputs": [
        {
          "internalType": "uint256",
          "name": "tokenId",
          "type": "uint256"
        },
        {
          "internalType": "uint256",
          "name": "newLockDuration",
          "type": "uint256"
        }
      ],
      "name": "increaseLockDuration",
      "outputs": [],
      "stateMutability": "nonpayable",
      "type": "function"
    },
    {
      "inputs": [
        {
          "internalType": "address",
          "name": "_locker",
          "type": "address"
        },
        {
          "internalType": "address",
          "name": "_weth",
          "type": "address"
        },
        {
          "internalType": "address",
          "name": "_maha",
          "type": "address"
        },
        {
          "internalType": "uint256",
          "name": "_rewardsDuration",
          "type": "uint256"
        },
        {
          "internalType": "address",
          "name": "_owner",
          "type": "address"
        },
        {
          "internalType": "address",
          "name": "_distributor",
          "type": "address"
        }
      ],
      "name": "initialize",
      "outputs": [],
      "stateMutability": "nonpayable",
      "type": "function"
    },
    {
      "inputs": [
        {
          "internalType": "contract IERC20",
          "name": "token",
          "type": "address"
        }
      ],
      "name": "lastTimeRewardApplicable",
      "outputs": [
        {
          "internalType": "uint256",
          "name": "",
          "type": "uint256"
        }
      ],
      "stateMutability": "view",
      "type": "function"
    },
    {
      "inputs": [
        {
          "internalType": "contract IERC20",
          "name": "reward",
          "type": "address"
        }
      ],
      "name": "lastUpdateTime",
      "outputs": [
        {
          "internalType": "uint256",
          "name": "",
          "type": "uint256"
        }
      ],
      "stateMutability": "view",
      "type": "function"
    },
    {
      "inputs": [
        {
          "internalType": "uint256",
          "name": "",
          "type": "uint256"
        }
      ],
      "name": "lockedByToken",
      "outputs": [
        {
          "internalType": "address",
          "name": "",
          "type": "address"
        }
      ],
      "stateMutability": "view",
      "type": "function"
    },
    {
      "inputs": [
        {
          "internalType": "address",
          "name": "",
          "type": "address"
        },
        {
          "internalType": "uint256",
          "name": "",
          "type": "uint256"
        }
      ],
      "name": "lockedTokenIdNfts",
      "outputs": [
        {
          "internalType": "uint256",
          "name": "",
          "type": "uint256"
        }
      ],
      "stateMutability": "view",
      "type": "function"
    },
    {
      "inputs": [],
      "name": "locker",
      "outputs": [
        {
          "internalType": "contract ILocker",
          "name": "",
          "type": "address"
        }
      ],
      "stateMutability": "view",
      "type": "function"
    },
    {
      "inputs": [
        {
          "internalType": "bytes[]",
          "name": "data",
          "type": "bytes[]"
        }
      ],
      "name": "multicall",
      "outputs": [
        {
          "internalType": "bytes[]",
          "name": "results",
          "type": "bytes[]"
        }
      ],
      "stateMutability": "nonpayable",
      "type": "function"
    },
    {
      "inputs": [],
      "name": "name",
      "outputs": [
        {
          "internalType": "string",
          "name": "",
          "type": "string"
        }
      ],
      "stateMutability": "view",
      "type": "function"
    },
    {
      "inputs": [
        {
          "internalType": "address",
          "name": "owner",
          "type": "address"
        }
      ],
      "name": "nonces",
      "outputs": [
        {
          "internalType": "uint256",
          "name": "",
          "type": "uint256"
        }
      ],
      "stateMutability": "view",
      "type": "function"
    },
    {
      "inputs": [
        {
          "internalType": "contract IERC20",
          "name": "token",
          "type": "address"
        },
        {
          "internalType": "uint256",
          "name": "reward",
          "type": "uint256"
        }
      ],
      "name": "notifyRewardAmount",
      "outputs": [],
      "stateMutability": "nonpayable",
      "type": "function"
    },
    {
      "inputs": [
        {
          "internalType": "address",
          "name": "account",
          "type": "address"
        }
      ],
      "name": "numCheckpoints",
      "outputs": [
        {
          "internalType": "uint32",
          "name": "",
          "type": "uint32"
        }
      ],
      "stateMutability": "view",
      "type": "function"
    },
    {
      "inputs": [
        {
          "internalType": "address",
          "name": "to",
          "type": "address"
        },
        {
          "internalType": "address",
          "name": "from",
          "type": "address"
        },
        {
          "internalType": "uint256",
          "name": "tokenId",
          "type": "uint256"
        },
        {
          "internalType": "bytes",
          "name": "data",
          "type": "bytes"
        }
      ],
      "name": "onERC721Received",
      "outputs": [
        {
          "internalType": "bytes4",
          "name": "",
          "type": "bytes4"
        }
      ],
      "stateMutability": "nonpayable",
      "type": "function"
    },
    {
      "inputs": [],
      "name": "owner",
      "outputs": [
        {
          "internalType": "address",
          "name": "",
          "type": "address"
        }
      ],
      "stateMutability": "view",
      "type": "function"
    },
    {
      "inputs": [
        {
          "internalType": "contract IERC20",
          "name": "reward",
          "type": "address"
        }
      ],
      "name": "periodFinish",
      "outputs": [
        {
          "internalType": "uint256",
          "name": "",
          "type": "uint256"
        }
      ],
      "stateMutability": "view",
      "type": "function"
    },
    {
      "inputs": [
        {
          "internalType": "uint256",
          "name": "",
          "type": "uint256"
        }
      ],
      "name": "power",
      "outputs": [
        {
          "internalType": "uint256",
          "name": "",
          "type": "uint256"
        }
      ],
      "stateMutability": "view",
      "type": "function"
    },
    {
      "inputs": [
        {
          "internalType": "address",
          "name": "tokenAddress",
          "type": "address"
        },
        {
          "internalType": "uint256",
          "name": "tokenAmount",
          "type": "uint256"
        }
      ],
      "name": "recoverERC20",
      "outputs": [],
      "stateMutability": "nonpayable",
      "type": "function"
    },
    {
      "inputs": [],
      "name": "renounceOwnership",
      "outputs": [],
      "stateMutability": "nonpayable",
      "type": "function"
    },
    {
      "inputs": [
        {
          "internalType": "contract IERC20",
          "name": "token",
          "type": "address"
        }
      ],
      "name": "rewardPerToken",
      "outputs": [
        {
          "internalType": "uint256",
          "name": "",
          "type": "uint256"
        }
      ],
      "stateMutability": "view",
      "type": "function"
    },
    {
      "inputs": [
        {
          "internalType": "contract IERC20",
          "name": "reward",
          "type": "address"
        }
      ],
      "name": "rewardPerTokenStored",
      "outputs": [
        {
          "internalType": "uint256",
          "name": "",
          "type": "uint256"
        }
      ],
      "stateMutability": "view",
      "type": "function"
    },
    {
      "inputs": [
        {
          "internalType": "contract IERC20",
          "name": "reward",
          "type": "address"
        }
      ],
      "name": "rewardRate",
      "outputs": [
        {
          "internalType": "uint256",
          "name": "",
          "type": "uint256"
        }
      ],
      "stateMutability": "view",
      "type": "function"
    },
    {
      "inputs": [],
      "name": "rewardToken1",
      "outputs": [
        {
          "internalType": "contract IERC20",
          "name": "",
          "type": "address"
        }
      ],
      "stateMutability": "view",
      "type": "function"
    },
    {
      "inputs": [],
      "name": "rewardToken2",
      "outputs": [
        {
          "internalType": "contract IERC20",
          "name": "",
          "type": "address"
        }
      ],
      "stateMutability": "view",
      "type": "function"
    },
    {
      "inputs": [
        {
          "internalType": "contract IERC20",
          "name": "reward",
          "type": "address"
        },
        {
          "internalType": "address",
          "name": "who",
          "type": "address"
        }
      ],
      "name": "rewards",
      "outputs": [
        {
          "internalType": "uint256",
          "name": "rewards",
          "type": "uint256"
        }
      ],
      "stateMutability": "view",
      "type": "function"
    },
    {
      "inputs": [],
      "name": "rewardsDuration",
      "outputs": [
        {
          "internalType": "uint256",
          "name": "",
          "type": "uint256"
        }
      ],
      "stateMutability": "view",
      "type": "function"
    },
    {
      "inputs": [
        {
          "internalType": "address",
          "name": "what",
          "type": "address"
        }
      ],
      "name": "setRewardDistributor",
      "outputs": [],
      "stateMutability": "nonpayable",
      "type": "function"
    },
    {
      "inputs": [],
      "name": "symbol",
      "outputs": [
        {
          "internalType": "string",
          "name": "",
          "type": "string"
        }
      ],
      "stateMutability": "view",
      "type": "function"
    },
    {
      "inputs": [
        {
          "internalType": "address",
          "name": "who",
          "type": "address"
        }
      ],
      "name": "totalNFTStaked",
      "outputs": [
        {
          "internalType": "uint256",
          "name": "",
          "type": "uint256"
        }
      ],
      "stateMutability": "view",
      "type": "function"
    },
    {
      "inputs": [],
      "name": "totalSupply",
      "outputs": [
        {
          "internalType": "uint256",
          "name": "",
          "type": "uint256"
        }
      ],
      "stateMutability": "view",
      "type": "function"
    },
    {
      "inputs": [],
      "name": "totalVotes",
      "outputs": [
        {
          "internalType": "uint256",
          "name": "",
          "type": "uint256"
        }
      ],
      "stateMutability": "view",
      "type": "function"
    },
    {
      "inputs": [
        {
          "internalType": "address",
          "name": "",
          "type": "address"
        },
        {
          "internalType": "uint256",
          "name": "",
          "type": "uint256"
        }
      ],
      "name": "transfer",
      "outputs": [
        {
          "internalType": "bool",
          "name": "",
          "type": "bool"
        }
      ],
      "stateMutability": "pure",
      "type": "function"
    },
    {
      "inputs": [
        {
          "internalType": "address",
          "name": "",
          "type": "address"
        },
        {
          "internalType": "address",
          "name": "",
          "type": "address"
        },
        {
          "internalType": "uint256",
          "name": "",
          "type": "uint256"
        }
      ],
      "name": "transferFrom",
      "outputs": [
        {
          "internalType": "bool",
          "name": "",
          "type": "bool"
        }
      ],
      "stateMutability": "pure",
      "type": "function"
    },
    {
      "inputs": [
        {
          "internalType": "address",
          "name": "newOwner",
          "type": "address"
        }
      ],
      "name": "transferOwnership",
      "outputs": [],
      "stateMutability": "nonpayable",
      "type": "function"
    },
    {
      "inputs": [
        {
          "internalType": "uint256",
          "name": "tokenId",
          "type": "uint256"
        }
      ],
      "name": "unstakeToken",
      "outputs": [],
      "stateMutability": "nonpayable",
      "type": "function"
    },
    {
      "inputs": [
        {
          "internalType": "contract IERC20",
          "name": "token",
          "type": "address"
        },
        {
          "internalType": "address",
          "name": "who",
          "type": "address"
        }
      ],
      "name": "updateRewards",
      "outputs": [],
      "stateMutability": "nonpayable",
      "type": "function"
    },
    {
      "inputs": [
        {
          "internalType": "contract IERC20",
          "name": "reward",
          "type": "address"
        },
        {
          "internalType": "address",
          "name": "who",
          "type": "address"
        }
      ],
      "name": "userRewardPerTokenPaid",
      "outputs": [
        {
          "internalType": "uint256",
          "name": "",
          "type": "uint256"
        }
      ],
      "stateMutability": "view",
      "type": "function"
    },
    {
      "inputs": [],
      "name": "weth",
      "outputs": [
        {
          "internalType": "contract IERC20",
          "name": "",
          "type": "address"
        }
      ],
      "stateMutability": "view",
      "type": "function"
    }
  ],
  "transactionHash": "0xe82dca534a5da65d4505f25cfb37c89cfa7fc5a29d024bd3aa13d4743755f1d8",
  "args": [],
  "numDeployments": 1,
  "solcInputHash": "bd9aafbda915b37eea50990b027661a1",
  "bytecode": "0x608060405234801561001057600080fd5b5061452d806100206000396000f3fe608060405234801561001057600080fd5b50600436106103185760003560e01c8063715018a6116101a9578063ac9650d8116100ef578063da09d19d1161009d578063da09d19d1461078d578063dd62ed3e146107ad578063e70b9e27146107c0578063f01edde0146107eb578063f1127ed8146107fe578063f12297771461083d578063f2fde38b14610850578063f892c9fc1461086357600080fd5b8063ac9650d8146106ee578063b66503cf1461070e578063bfe1092814610721578063c3cda52014610734578063cc193fb014610747578063d61a47f114610767578063d7b96d4e1461077a57600080fd5b806391ddadf41161015757806391ddadf41461063a57806395d89b41146106595780639ab24eb0146106615780639ce43f90146106745780639ee91fea14610694578063a1809b95146106a7578063a9059cbb146106ba578063aa881516146106cd57600080fd5b8063715018a6146105c35780637ecebe00146105cb57806384b0196e146105de57806387c5d832146105f95780638980f11f1461060c5780638da5cb5b1461061f5780638e539e8c1461062757600080fd5b806332b5a1b31161026e578063587cde1e1161021c578063587cde1e146104fe5780635c19a95c14610511578063638634ee146105245780636b091695146105375780636f28d6881461054a5780636fcfff451461055d5780637035ab981461058557806370a08231146105b057600080fd5b806332b5a1b31461046b578063386a95251461047e5780633a46b1a8146104875780633b6240321461049a5780633fc8cef3146104ad5780634bf5d7e9146104cd57806356981ac5146104d557600080fd5b80631fd54bde116102cb5780631fd54bde146103d0578063211dc32d146103e3578063221ca18c146103f657806323b872dd146104165780632ce9aead146104295780632cfb668814610449578063313ce5671461045c57600080fd5b8062443d891461031d57806306fdde0314610332578063095ea7b3146103505780630d15fd77146103735780630e37d36f14610389578063150b7a021461039c57806318160ddd146103c8575b600080fd5b61033061032b366004613b59565b61088c565b005b61033a610a3d565b6040516103479190613bc6565b60405180910390f35b61036361035e366004613bd9565b610ade565b6040519015158152602001610347565b61037b610af8565b604051908152602001610347565b610330610397366004613c05565b610b07565b6103af6103aa366004613c3e565b610b15565b6040516001600160e01b03199091168152602001610347565b61037b610b2e565b61037b6103de366004613bd9565b610b43565b61037b6103f1366004613c05565b610b74565b61037b610404366004613b59565b60066020526000908152604090205481565b610363610424366004613cdc565b610b87565b61037b610437366004613b59565b60036020526000908152604090205481565b610330610457366004613d1d565b610bca565b60405160128152602001610347565b610330610479366004613d36565b610d97565b61037b60075481565b61037b610495366004613bd9565b610ecd565b6103306104a8366004613daf565b610f5d565b600a546104c0906001600160a01b031681565b6040516103479190613dd1565b61033a6111aa565b6104c06104e3366004613d1d565b600c602052600090815260409020546001600160a01b031681565b6104c061050c366004613b59565b611222565b61033061051f366004613b59565b611251565b61037b610532366004613b59565b61125c565b610330610545366004613c05565b611280565b6008546104c0906001600160a01b031681565b61057061056b366004613b59565b611338565b60405163ffffffff9091168152602001610347565b61037b610593366004613c05565b600260209081526000928352604080842090915290825290205481565b61037b6105be366004613b59565b611343565b61033061136e565b61037b6105d9366004613b59565b611382565b6105e66113ab565b6040516103479796959493929190613e20565b61037b610607366004613d1d565b611454565b61033061061a366004613bd9565b61145c565b6104c061151a565b61037b610635366004613d1d565b611548565b6106426115c1565b60405165ffffffffffff9091168152602001610347565b61033a6115cb565b61037b61066f366004613b59565b6115e8565b61037b610682366004613b59565b60056020526000908152604090205481565b6103306106a2366004613daf565b611629565b6103306106b5366004613b59565b6116b7565b6103636106c8366004613bd9565b6116e1565b6106e06106db366004613b59565b611720565b604051610347929190613e90565b6107016106fc366004613f06565b611952565b6040516103479190613f7a565b61033061071c366004613bd9565b611a44565b600e546104c0906001600160a01b031681565b610330610742366004613fdc565b611d39565b61037b610755366004613d1d565b600b6020526000908152604090205481565b6009546104c0906001600160a01b031681565b6000546104c0906001600160a01b031681565b61037b61079b366004613b59565b60046020526000908152604090205481565b61037b6107bb366004613c05565b611df6565b61037b6107ce366004613c05565b600160209081526000928352604080842090915290825290205481565b6103306107f9366004613b59565b611e32565b61081161080c36600461403e565b611f9e565b60408051825165ffffffffffff1681526020928301516001600160d01b03169281019290925201610347565b61037b61084b366004613b59565b611fbc565b61033061085e366004613b59565b611fc7565b61037b610871366004613b59565b6001600160a01b03166000908152600d602052604090205490565b610894612002565b600a546108aa906001600160a01b03168261204c565b600a546001600160a01b039081166000908152600160209081526040808320938516835292905220548015610a3157600a80546001600160a01b03908116600090815260016020908152604080832087851684529091528082209190915591549151632e1a7d4d60e01b815260048101849052911690632e1a7d4d90602401600060405180830381600087803b15801561094357600080fd5b505af1158015610957573d6000803e3d6000fd5b505050506000826001600160a01b03168260405160006040518083038185875af1925050503d80600081146109a8576040519150601f19603f3d011682016040523d82523d6000602084013e6109ad565b606091505b50509050806109f55760405162461bcd60e51b815260206004820152600f60248201526e195d1a081cd95b990819985a5b1959608a1b60448201526064015b60405180910390fd5b600a546040516001600160a01b038086169285929116906000805160206144d883398151915290610a27903390613dd1565b60405180910390a4505b50610a3a6120f2565b50565b60606000610a49612118565b9050806003018054610a5a90614075565b80601f0160208091040260200160405190810160405280929190818152602001828054610a8690614075565b8015610ad35780601f10610aa857610100808354040283529160200191610ad3565b820191906000526020600020905b815481529060010190602001808311610ab657829003601f168201915b505050505091505090565b600033610aec81858561213c565b60019150505b92915050565b6000610b02610b2e565b905090565b610b11828261204c565b5050565b6000610b24868686868661214e565b9695505050505050565b600080610b39612118565b6002015492915050565b600d6020528160005260406000208181548110610b5f57600080fd5b90600052602060002001600091509150505481565b6000610b808383612294565b9392505050565b60405162461bcd60e51b81526020600482015260156024820152741d1c985b9cd9995c919c9bdb48191a5cd8589b1959605a1b60448201526000906064016109ec565b600854600954610be7916001600160a01b03908116911633612315565b6000818152600c60205260409020546001600160a01b0316610c1b5760405162461bcd60e51b81526004016109ec906140af565b6000818152600c60205260409020546001600160a01b0316338114610c64576040516308e6324b60e41b81523360048201526001600160a01b03821660248201526044016109ec565b6000828152600c6020908152604080832080546001600160a01b0319169055338352600d8252918290208054835181840281018401909452808452610cde9392830182828015610cd357602002820191906000526020600020905b815481526020019060010190808311610cbf575b50505050508361244d565b336000908152600d602090815260409091208251610d029391929190910190613aed565b506000828152600b6020526040902054610d1d903390612574565b6000828152600b602052604080822082905590549051632142170760e11b81526001600160a01b03909116906342842e0e90610d61903090339087906004016140d1565b600060405180830381600087803b158015610d7b57600080fd5b505af1158015610d8f573d6000803e3d6000fd5b505050505050565b7ff0c57e16840df040f15088dc2f81fe391c3923bec73e23a9662efc9c229c6a00805460019190600160401b900460ff1680610de0575080546001600160401b03808416911610155b15610dfe5760405163f92ee8a960e01b815260040160405180910390fd5b805468ffffffffffffffffff19166001600160401b03831617600160401b178155604080518082018252601181527026a0a420902b37ba34b733902837bbb2b960791b6020808301919091528251808401909352600683526504d41484176760d41b90830152610e73918a8a8a818b8a6125aa565b610e7c84612715565b805460ff60401b191681556040516001600160401b03831681527fc7f505b2f371ae2175ee4913f4499e1f2633a7b5936321eed1cdaeb6115181d29060200160405180910390a15050505050505050565b600080610ed8612786565b90506000610ee46115c1565b90508065ffffffffffff168410610f1f57604051637669fc0f60e11b81526004810185905265ffffffffffff821660248201526044016109ec565b610f4b610f2b856127aa565b6001600160a01b03871660009081526001850160205260409020906127e1565b6001600160d01b031695945050505050565b60008111610f7d5760405162461bcd60e51b81526004016109ec906140f5565b6000828152600c60205260409020546001600160a01b03163314610fb35760405162461bcd60e51b81526004016109ec906140af565b60008054906101000a90046001600160a01b03166001600160a01b0316636f307dc36040518163ffffffff1660e01b8152600401602060405180830381865afa158015611004573d6000803e3d6000fd5b505050506040513d601f19601f82011682018060405250810190611028919061411d565b6001600160a01b03166323b872dd3330846040518463ffffffff1660e01b8152600401611057939291906140d1565b6020604051808303816000875af1158015611076573d6000803e3d6000fd5b505050506040513d601f19601f8201168201806040525081019061109a9190614148565b5060005460405163b2383e5560e01b815260048101849052602481018390526001600160a01b039091169063b2383e55906044015b600060405180830381600087803b1580156110e957600080fd5b505af11580156110fd573d6000803e3d6000fd5b5050506000838152600b602052604090205461111b91503390612574565b6000546040516339f890b560e21b81526004810184905261118e916001600160a01b03169063e7e242d4906024015b602060405180830381865afa158015611167573d6000803e3d6000fd5b505050506040513d601f19601f8201168201806040525081019061118b9190614165565b90565b6000838152600b60205260409020819055610b11903390612897565b60606111b46128cd565b65ffffffffffff166111c46115c1565b65ffffffffffff16146111ea576040516301bfc1c560e61b815260040160405180910390fd5b5060408051808201909152601d81527f6d6f64653d626c6f636b6e756d6265722666726f6d3d64656661756c74000000602082015290565b60008061122d612786565b6001600160a01b039384166000908152602091909152604090205490921692915050565b33610b1181836128d8565b6001600160a01b038116600090815260046020526040812054610af2904290612965565b611288612002565b611292818361204c565b6001600160a01b03808216600090815260016020908152604080832093861683529290522054801561132f576001600160a01b0380831660008181526001602090815260408083209488168352939052918220919091556112f490848361297b565b826001600160a01b031681836001600160a01b03166000805160206144d8833981519152336040516113269190613dd1565b60405180910390a45b50610b116120f2565b6000610af2826129d3565b60008061134e612118565b6001600160a01b0390931660009081526020939093525050604090205490565b611376612a05565b6113806000612715565b565b6000807f5ab42ced628888259c08ac98db1eb0cf702fc1501344311d8b100cd1bfe4bb0061134e565b60006060806000806000606060006113c1612a37565b80549091501580156113d557506001810154155b6114195760405162461bcd60e51b81526020600482015260156024820152741152540dcc4c8e88155b9a5b9a5d1a585b1a5e9959605a1b60448201526064016109ec565b611421612a5b565b611429612a78565b60408051600080825260208201909252600f60f81b9c939b5091995046985030975095509350915050565b600081610af2565b611464612a05565b816001600160a01b031663a9059cbb61147b61151a565b836040518363ffffffff1660e01b8152600401611499929190614194565b6020604051808303816000875af11580156114b8573d6000803e3d6000fd5b505050506040513d601f19601f820116820180604052508101906114dc9190614148565b507f8c1256b8896378cd5044f80c202f9772b9d77dc85c8a6eb51967210b09bfaa28828260405161150e929190614194565b60405180910390a15050565b7f9016d09d72d40fdae2fd8ceac6b6234c7706214fd39c1cd1e609a0528c199300546001600160a01b031690565b600080611553612786565b9050600061155f6115c1565b90508065ffffffffffff16841061159a57604051637669fc0f60e11b81526004810185905265ffffffffffff821660248201526044016109ec565b6115b06115a6856127aa565b60028401906127e1565b6001600160d01b0316949350505050565b6000610b026128cd565b606060006115d7612118565b9050806004018054610a5a90614075565b6000806115f3612786565b6001600160a01b0384166000908152600182016020526040902090915061161990612a84565b6001600160d01b03169392505050565b600081116116495760405162461bcd60e51b81526004016109ec906140f5565b6000828152600c60205260409020546001600160a01b0316331461167f5760405162461bcd60e51b81526004016109ec906140af565b600054604051639d507b8b60e01b815260048101849052602481018390526001600160a01b0390911690639d507b8b906044016110cf565b6116bf612a05565b600e80546001600160a01b0319166001600160a01b0392909216919091179055565b60405162461bcd60e51b81526020600482015260116024820152701d1c985b9cd9995c88191a5cd8589b1959607a1b60448201526000906064016109ec565b6001600160a01b0381166000908152600d6020908152604080832080548251818502810185019093528083526060948594919390929091849083018282801561178857602002820191906000526020600020905b815481526020019060010190808311611774575b505050505090506000826001600160401b038111156117a9576117a961417e565b6040519080825280602002602001820160405280156117d2578160200160208202803683370190505b5090506000836001600160401b038111156117ef576117ef61417e565b60405190808252806020026020018201604052801561184b57816020015b6118386040518060800160405280600081526020016000815260200160008152602001600081525090565b81526020019060019003908161180d5790505b50905060005b848110156119455760005484516001600160a01b039091169063b45a3c0e90869084908110611882576118826141ad565b60200260200101516040518263ffffffff1660e01b81526004016118a891815260200190565b608060405180830381865afa1580156118c5573d6000803e3d6000fd5b505050506040513d601f19601f820116820180604052508101906118e991906141c3565b8282815181106118fb576118fb6141ad565b6020026020010181905250838181518110611918576119186141ad565b6020026020010151838281518110611932576119326141ad565b6020908102919091010152600101611851565b5090969095509350505050565b604080516000815260208101909152606090826001600160401b0381111561197c5761197c61417e565b6040519080825280602002602001820160405280156119af57816020015b606081526020019060019003908161199a5790505b50915060005b83811015611a3c57611a0c308686848181106119d3576119d36141ad565b90506020028101906119e59190614251565b856040516020016119f89392919061429e565b604051602081830303815290604052612abd565b838281518110611a1e57611a1e6141ad565b60200260200101819052508080611a34906142c5565b9150506119b5565b505092915050565b600e546001600160a01b03163314611a8d5760405162461bcd60e51b815260206004820152600c60248201526b10b234b9ba3934b13aba37b960a11b60448201526064016109ec565b611a9882600061204c565b6040516323b872dd60e01b81526001600160a01b038316906323b872dd90611ac8903390309086906004016140d1565b6020604051808303816000875af1158015611ae7573d6000803e3d6000fd5b505050506040513d601f19601f82011682018060405250810190611b0b9190614148565b506001600160a01b0382166000908152600460205260409020544210611b5657600754611b3890826142f4565b6001600160a01b038316600090815260066020526040902055611bd7565b6001600160a01b038216600090815260046020526040812054611b7a90429061423e565b6001600160a01b03841660009081526006602052604081205491925090611ba19083614316565b600754909150611bb1828561432d565b611bbb91906142f4565b6001600160a01b03851660009081526006602052604090205550505b6040516370a0823160e01b81526000906001600160a01b038416906370a0823190611c06903090600401613dd1565b602060405180830381865afa158015611c23573d6000803e3d6000fd5b505050506040513d601f19601f82011682018060405250810190611c479190614165565b905060075481611c5791906142f4565b6001600160a01b0384166000908152600660205260409020541115611cb35760405162461bcd60e51b81526020600482015260126024820152716e6f7420656e6f7567682062616c616e636560701b60448201526064016109ec565b6001600160a01b03831660009081526003602052604090204290819055600754611cdc9161432d565b6001600160a01b038416600081815260046020526040908190209290925590518391907f54dba80f86e498df5a2fcdb5c089d051d97ce8ca9ddb708c70da66557a954de790611d2c903390613dd1565b60405180910390a3505050565b83421115611d5d57604051632341d78760e11b8152600481018590526024016109ec565b604080517fe48329057bfd03d55e49b547132e39cffd9c1820ad7b9d4c5307691425d15adf60208201526001600160a01b038816918101919091526060810186905260808101859052600090611dd790611dcf9060a00160405160208183030381529060405280519060200120612b33565b858585612b60565b9050611de38187612b82565b611ded81886128d8565b50505050505050565b600080611e01612118565b6001600160a01b03948516600090815260019190910160209081526040808320959096168252939093525050205490565b611e3a612002565b600854600954611e57916001600160a01b03908116911683612315565b6008546001600160a01b039081166000908152600160209081526040808320938516835292905220548015611efa57600880546001600160a01b03908116600090815260016020908152604080832087851684529091528120559054611ebf9116838361297b565b6008546040516001600160a01b038085169284929116906000805160206144d883398151915290611ef1903390613dd1565b60405180910390a45b6009546001600160a01b039081166000908152600160209081526040808320938616835292905220548015611f9457600980546001600160a01b03908116600090815260016020908152604080832088851684529091528120559054611f629116848361297b565b6009546040516001600160a01b038086169284929116906000805160206144d883398151915290610a27903390613dd1565b5050610a3a6120f2565b6040805180820190915260008082526020820152610b808383612be6565b6000610af282612c33565b611fcf612a05565b6001600160a01b038116611ff9576000604051631e4fbdf760e01b81526004016109ec9190613dd1565b610a3a81612715565b7f9b779b17422d0df92223018b32b4d1fa46e071723d6817e2486d003becc55f0080546001190161204657604051633ee5aeb560e01b815260040160405180910390fd5b60029055565b61205582612c33565b6001600160a01b0383166000908152600560205260409020556120778261125c565b6001600160a01b03808416600090815260036020526040902091909155811615610b11576120a58282612294565b6001600160a01b0392831660008181526001602090815260408083209590961680835294815285822093909355908152600582528381205460028352848220938252929091529190912055565b60017f9b779b17422d0df92223018b32b4d1fa46e071723d6817e2486d003becc55f0055565b7f52c63247e1f47db19d5ce0460030c497f067ca4cebf71ba98eeadabe20bace0090565b6121498383836001612ce9565b505050565b600080546001600160a01b031633146121975760405162461bcd60e51b815260206004820152600b60248201526a37b7363c903637b1b5b2b960a91b60448201526064016109ec565b81156121ae576121a982840184614340565b509550505b6008546009546121cb916001600160a01b03908116911687612315565b6000848152600c6020908152604080832080546001600160a01b0319166001600160a01b038a169081179091558352600d8252822080546001810182559083529082200185905561221b86611222565b6001600160a01b0316036122335761223385866128d8565b6000546040516339f890b560e21b815260048101869052612266916001600160a01b03169063e7e242d49060240161114a565b6000858152600b60205260409020819055612282908690612897565b50630a85bd0160e11b95945050505050565b6001600160a01b038083166000818152600160209081526040808320948616808452948252808320549383526002825280832094835293905291822054670de0b6b3a7640000906122e486612c33565b6122ee919061423e565b6122f785611343565b6123019190614316565b61230b91906142f4565b610b80919061432d565b61231e83612c33565b6001600160a01b0384166000908152600560205260409020556123408361125c565b6001600160a01b03841660009081526003602052604090205561236282612c33565b6001600160a01b0383166000908152600560205260409020556123848261125c565b6001600160a01b03808416600090815260036020526040902091909155811615612149576123b28382612294565b6001600160a01b038085166000908152600160209081526040808320938616835292905220556123e28282612294565b6001600160a01b0392831660008181526001602090815260408083209587168084529582528083209490945595909416845260058086528285205460028088528487208688528852848720919091559185528552818420549085528184209284529190935291902055565b81516060906000805b8281101561249e5784868281518110612471576124716141ad565b60200260200101511461248c5781612488816142c5565b9250505b80612496816142c5565b915050612456565b506000816001600160401b038111156124b9576124b961417e565b6040519080825280602002602001820160405280156124e2578160200160208202803683370190505b5090506000805b848110156125685786888281518110612504576125046141ad565b60200260200101511461255657878181518110612523576125236141ad565b602002602001015183838151811061253d5761253d6141ad565b602090810291909101015281612552816142c5565b9250505b80612560816142c5565b9150506124e9565b50909695505050505050565b6001600160a01b03821661259e576000604051634b637e8f60e11b81526004016109ec9190613dd1565b610b1182600083612dce565b6125b2612e34565b6125bb33612e3c565b6125c3612e4d565b6125cd8888612e5d565b600080546001600160a01b038089166001600160a01b03199283168117909355600a8054898316908416179055600880548883169084161790556009805491871691909216179055600783905560408051636f307dc360e01b81529051636f307dc3916004808201926020929091908290030181865afa158015612655573d6000803e3d6000fd5b505050506040513d601f19601f82011682018060405250810190612679919061411d565b6001600160a01b031663095ea7b3876000196040518363ffffffff1660e01b81526004016126a8929190614194565b6020604051808303816000875af11580156126c7573d6000803e3d6000fd5b505050506040513d601f19601f820116820180604052508101906126eb9190614148565b50600e80546001600160a01b0319166001600160a01b039290921691909117905550505050505050565b7f9016d09d72d40fdae2fd8ceac6b6234c7706214fd39c1cd1e609a0528c19930080546001600160a01b031981166001600160a01b03848116918217845560405192169182907f8be0079c531659141344cd1fd0a4f28419497f9722a3daafe3b4186f6b6457e090600090a3505050565b7fe8b26c30fad74198956032a3533d903385d56dd795af560196f9c78d4af40d0090565b600065ffffffffffff8211156127dd576040516306dfcc6560e41b815260306004820152602481018390526044016109ec565b5090565b8154600090818160058111156128405760006127fc84612e6f565b612806908561423e565b60008881526020902090915081015465ffffffffffff90811690871610156128305780915061283e565b61283b81600161432d565b92505b505b600061284e87878585612f57565b90508015612889576128738761286560018461423e565b600091825260209091200190565b54600160301b90046001600160d01b031661288c565b60005b979650505050505050565b6001600160a01b0382166128c157600060405163ec442f0560e01b81526004016109ec9190613dd1565b610b1160008383612dce565b6000610b02436127aa565b60006128e2612786565b905060006128ef84611222565b6001600160a01b0385811660008181526020869052604080822080546001600160a01b031916898616908117909155905194955093928516927f3134e8a2e6d97e929a7e54011ea5485d7d196dd5f0ba4d4ef95803e8e3fc257f9190a461295f818461295a87612fb9565b612fc4565b50505050565b60008183106129745781610b80565b5090919050565b61214983846001600160a01b031663a9059cbb85856040516024016129a1929190614194565b604051602081830303815290604052915060e01b6020820180516001600160e01b038381831617835250505050613141565b6000806129de612786565b6001600160a01b0384166000908152600182016020526040902054909150610b809061319b565b33612a0e61151a565b6001600160a01b031614611380573360405163118cdaa760e01b81526004016109ec9190613dd1565b7fa16a46d94261c7517cc8ff89f61c0ce93598e3c849801011dee649a6a557d10090565b60606000612a67612a37565b9050806002018054610a5a90614075565b60606000610a49612a37565b80546000908015612ab457612a9e8361286560018461423e565b54600160301b90046001600160d01b0316610b80565b60009392505050565b6060600080846001600160a01b031684604051612ada9190614360565b600060405180830381855af49150503d8060008114612b15576040519150601f19603f3d011682016040523d82523d6000602084013e612b1a565b606091505b5091509150612b2a8583836131cc565b95945050505050565b6000610af2612b4061321f565b8360405161190160f01b8152600281019290925260228201526042902090565b600080600080612b7288888888613229565b92509250925061256882826132ee565b6001600160a01b03821660009081527f5ab42ced628888259c08ac98db1eb0cf702fc1501344311d8b100cd1bfe4bb00602052604090208054600181019091558181146121495782816040516301d4b62360e61b81526004016109ec929190614194565b60408051808201909152600080825260208201526000612c04612786565b6001600160a01b03851660009081526001820160205260409020909150612c2b90846133a7565b949350505050565b6000612c3d610b2e565b600003612c6057506001600160a01b031660009081526005602052604090205490565b612c68610b2e565b6001600160a01b038316600090815260066020908152604080832054600390925290912054612c968561125c565b612ca0919061423e565b612caa9190614316565b612cbc90670de0b6b3a7640000614316565b612cc691906142f4565b6001600160a01b038316600090815260056020526040902054610af2919061432d565b6000612cf3612118565b90506001600160a01b038516612d1f57600060405163e602df0560e01b81526004016109ec9190613dd1565b6001600160a01b038416612d49576000604051634a1406b160e11b81526004016109ec9190613dd1565b6001600160a01b03808616600090815260018301602090815260408083209388168352929052208390558115612dc757836001600160a01b0316856001600160a01b03167f8c5be1e5ebec7d5bd14f71427d1e84f3dd0314c0f7b2291e5b200ac8c7c3b92585604051612dbe91815260200190565b60405180910390a35b5050505050565b612dd9838383613417565b6001600160a01b038316612e29576000612df1610b2e565b90506001600160d01b0380821115612e2657604051630e58ae9360e11b815260048101839052602481018290526044016109ec565b50505b612149838383613552565b6113806135c1565b612e446135c1565b610a3a8161360a565b612e556135c1565b611380613612565b612e656135c1565b610b11828261361a565b600081600003612e8157506000919050565b60006001612e8e8461364b565b901c6001901b90506001818481612ea757612ea76142de565b048201901c90506001818481612ebf57612ebf6142de565b048201901c90506001818481612ed757612ed76142de565b048201901c90506001818481612eef57612eef6142de565b048201901c90506001818481612f0757612f076142de565b048201901c90506001818481612f1f57612f1f6142de565b048201901c90506001818481612f3757612f376142de565b048201901c9050610b8081828581612f5157612f516142de565b04612965565b60005b81831015612fb1576000612f6e84846136df565b60008781526020902090915065ffffffffffff86169082015465ffffffffffff161115612f9d57809250612fab565b612fa881600161432d565b93505b50612f5a565b509392505050565b6000610af282611343565b6000612fce612786565b9050826001600160a01b0316846001600160a01b031614158015612ff25750600082115b1561295f576001600160a01b0384161561309c576001600160a01b038416600090815260018201602052604081208190613037906136fa61303287613706565b61373a565b6001600160d01b031691506001600160d01b03169150856001600160a01b03167fdec2bacdd2f05b59de34da9b523dff8be42e5e38e818c82fdb0bae774387a7248383604051613091929190918252602082015260400190565b60405180910390a250505b6001600160a01b0383161561295f576001600160a01b0383166000908152600182016020526040812081906130d79061377361303287613706565b6001600160d01b031691506001600160d01b03169150846001600160a01b03167fdec2bacdd2f05b59de34da9b523dff8be42e5e38e818c82fdb0bae774387a7248383604051613131929190918252602082015260400190565b60405180910390a2505050505050565b60006131566001600160a01b0384168361377f565b9050805160001415801561317b5750808060200190518101906131799190614148565b155b156121495782604051635274afe760e01b81526004016109ec9190613dd1565b600063ffffffff8211156127dd576040516306dfcc6560e41b815260206004820152602481018390526044016109ec565b6060826131e1576131dc8261378d565b610b80565b81511580156131f857506001600160a01b0384163b155b156132185783604051639996b31560e01b81526004016109ec9190613dd1565b5092915050565b6000610b026137b6565b600080806fa2a8918ca85bafe22016d0b997e4df60600160ff1b0384111561325a57506000915060039050826132e4565b604080516000808252602082018084528a905260ff891692820192909252606081018790526080810186905260019060a0016020604051602081039080840390855afa1580156132ae573d6000803e3d6000fd5b5050604051601f1901519150506001600160a01b0381166132da575060009250600191508290506132e4565b9250600091508190505b9450945094915050565b60008260038111156133025761330261437c565b0361330b575050565b600182600381111561331f5761331f61437c565b0361333d5760405163f645eedf60e01b815260040160405180910390fd5b60028260038111156133515761335161437c565b036133725760405163fce698f760e01b8152600481018290526024016109ec565b60038260038111156133865761338661437c565b03610b11576040516335e2f38360e21b8152600481018290526024016109ec565b6040805180820190915260008082526020820152826000018263ffffffff16815481106133d6576133d66141ad565b60009182526020918290206040805180820190915291015465ffffffffffff81168252600160301b90046001600160d01b0316918101919091529392505050565b6000613421612118565b90506001600160a01b0384166134505781816002016000828254613445919061432d565b909155506134c29050565b6001600160a01b038416600090815260208290526040902054828110156134a35760405163391434e360e21b81526001600160a01b038616600482015260248101829052604481018490526064016109ec565b6001600160a01b03851660009081526020839052604090209083900390555b6001600160a01b0383166134e05760028101805483900390556134ff565b6001600160a01b03831660009081526020829052604090208054830190555b826001600160a01b0316846001600160a01b03167fddf252ad1be2c89b69c2b068fc378daa952ba7f163c4a11628f55a4df523b3ef8460405161354491815260200190565b60405180910390a350505050565b600061355c612786565b90506001600160a01b0384166135825761357f8160020161377361303285613706565b50505b6001600160a01b0383166135a6576135a3816002016136fa61303285613706565b50505b61295f6135b285611222565b6135bb85611222565b84612fc4565b7ff0c57e16840df040f15088dc2f81fe391c3923bec73e23a9662efc9c229c6a0054600160401b900460ff1661138057604051631afcd79f60e31b815260040160405180910390fd5b611fcf6135c1565b6120f26135c1565b6136226135c1565b600061362c612118565b90506003810161363c84826143d8565b506004810161295f83826143d8565b600080608083901c1561366057608092831c92015b604083901c1561367257604092831c92015b602083901c1561368457602092831c92015b601083901c1561369657601092831c92015b600883901c156136a857600892831c92015b600483901c156136ba57600492831c92015b600283901c156136cc57600292831c92015b600183901c15610af25760010192915050565b60006136ee60028484186142f4565b610b809084841661432d565b6000610b808284614497565b60006001600160d01b038211156127dd576040516306dfcc6560e41b815260d06004820152602481018390526044016109ec565b6000806137666137486115c1565b61375e61375488612a84565b868863ffffffff16565b87919061382a565b915091505b935093915050565b6000610b8082846144b7565b6060610b8083836000613838565b80511561379d5780518082602001fd5b604051630a12f52160e11b815260040160405180910390fd5b60007f8b73c3c69bb8fe3d512ecc4cf759cc79239f7b179b0ffacaa9a75d522b39400f6137e16138cb565b6137e9613932565b60408051602081019490945283019190915260608201524660808201523060a082015260c00160405160208183030381529060405280519060200120905090565b600080613766858585613973565b60608147101561385d573060405163cd78605960e01b81526004016109ec9190613dd1565b600080856001600160a01b031684866040516138799190614360565b60006040518083038185875af1925050503d80600081146138b6576040519150601f19603f3d011682016040523d82523d6000602084013e6138bb565b606091505b5091509150610b248683836131cc565b6000806138d6612a37565b905060006138e2612a5b565b8051909150156138fa57805160209091012092915050565b81548015613909579392505050565b7fc5d2460186f7233c927e7db2dcc703c0e500b653ca82273b7bfad8045d85a470935050505090565b60008061393d612a37565b90506000613949612a78565b80519091501561396157805160209091012092915050565b60018201548015613909579392505050565b825460009081908015613a925760006139918761286560018561423e565b60408051808201909152905465ffffffffffff808216808452600160301b9092046001600160d01b0316602084015291925090871610156139e557604051632520601d60e01b815260040160405180910390fd5b805165ffffffffffff808816911603613a315784613a088861286560018661423e565b80546001600160d01b0392909216600160301b0265ffffffffffff909216919091179055613a82565b6040805180820190915265ffffffffffff80881682526001600160d01b0380881660208085019182528b54600181018d5560008d81529190912094519151909216600160301b029216919091179101555b60200151925083915061376b9050565b50506040805180820190915265ffffffffffff80851682526001600160d01b0380851660208085019182528854600181018a5560008a815291822095519251909316600160301b02919093161792019190915590508161376b565b828054828255906000526020600020908101928215613b28579160200282015b82811115613b28578251825591602001919060010190613b0d565b506127dd9291505b808211156127dd5760008155600101613b30565b6001600160a01b0381168114610a3a57600080fd5b600060208284031215613b6b57600080fd5b8135610b8081613b44565b60005b83811015613b91578181015183820152602001613b79565b50506000910152565b60008151808452613bb2816020860160208601613b76565b601f01601f19169290920160200192915050565b602081526000610b806020830184613b9a565b60008060408385031215613bec57600080fd5b8235613bf781613b44565b946020939093013593505050565b60008060408385031215613c1857600080fd5b8235613c2381613b44565b91506020830135613c3381613b44565b809150509250929050565b600080600080600060808688031215613c5657600080fd5b8535613c6181613b44565b94506020860135613c7181613b44565b93506040860135925060608601356001600160401b0380821115613c9457600080fd5b818801915088601f830112613ca857600080fd5b813581811115613cb757600080fd5b896020828501011115613cc957600080fd5b9699959850939650602001949392505050565b600080600060608486031215613cf157600080fd5b8335613cfc81613b44565b92506020840135613d0c81613b44565b929592945050506040919091013590565b600060208284031215613d2f57600080fd5b5035919050565b60008060008060008060c08789031215613d4f57600080fd5b8635613d5a81613b44565b95506020870135613d6a81613b44565b94506040870135613d7a81613b44565b9350606087013592506080870135613d9181613b44565b915060a0870135613da181613b44565b809150509295509295509295565b60008060408385031215613dc257600080fd5b50508035926020909101359150565b6001600160a01b0391909116815260200190565b600081518084526020808501945080840160005b83811015613e1557815187529582019590820190600101613df9565b509495945050505050565b60ff60f81b8816815260e060208201526000613e3f60e0830189613b9a565b8281036040840152613e518189613b9a565b606084018890526001600160a01b038716608085015260a0840186905283810360c08501529050613e828185613de5565b9a9950505050505050505050565b60006040808352613ea381840186613de5565b83810360208581019190915285518083528682019282019060005b81811015613ef857845180518452848101518585015286810151878501526060908101519084015293830193608090920191600101613ebe565b509098975050505050505050565b60008060208385031215613f1957600080fd5b82356001600160401b0380821115613f3057600080fd5b818501915085601f830112613f4457600080fd5b813581811115613f5357600080fd5b8660208260051b8501011115613f6857600080fd5b60209290920196919550909350505050565b6000602080830181845280855180835260408601915060408160051b870101925083870160005b82811015613fcf57603f19888603018452613fbd858351613b9a565b94509285019290850190600101613fa1565b5092979650505050505050565b60008060008060008060c08789031215613ff557600080fd5b863561400081613b44565b95506020870135945060408701359350606087013560ff8116811461402457600080fd5b9598949750929560808101359460a0909101359350915050565b6000806040838503121561405157600080fd5b823561405c81613b44565b9150602083013563ffffffff81168114613c3357600080fd5b600181811c9082168061408957607f821691505b6020821081036140a957634e487b7160e01b600052602260045260246000fd5b50919050565b602080825260089082015267085d1bdad95b925960c21b604082015260600190565b6001600160a01b039384168152919092166020820152604081019190915260600190565b6020808252600e908201526d085b995dd31bd8dad05b5bdd5b9d60921b604082015260600190565b60006020828403121561412f57600080fd5b8151610b8081613b44565b8015158114610a3a57600080fd5b60006020828403121561415a57600080fd5b8151610b808161413a565b60006020828403121561417757600080fd5b5051919050565b634e487b7160e01b600052604160045260246000fd5b6001600160a01b03929092168252602082015260400190565b634e487b7160e01b600052603260045260246000fd5b6000608082840312156141d557600080fd5b604051608081018181106001600160401b03821117156141f7576141f761417e565b8060405250825181526020830151602082015260408301516040820152606083015160608201528091505092915050565b634e487b7160e01b600052601160045260246000fd5b81810381811115610af257610af2614228565b6000808335601e1984360301811261426857600080fd5b8301803591506001600160401b0382111561428257600080fd5b60200191503681900382131561429757600080fd5b9250929050565b8284823760008382016000815283516142bb818360208801613b76565b0195945050505050565b6000600182016142d7576142d7614228565b5060010190565b634e487b7160e01b600052601260045260246000fd5b60008261431157634e487b7160e01b600052601260045260246000fd5b500490565b8082028115828204841417610af257610af2614228565b80820180821115610af257610af2614228565b60008060006060848603121561435557600080fd5b8335613cfc8161413a565b60008251614372818460208701613b76565b9190910192915050565b634e487b7160e01b600052602160045260246000fd5b601f82111561214957600081815260208120601f850160051c810160208610156143b95750805b601f850160051c820191505b81811015610d8f578281556001016143c5565b81516001600160401b038111156143f1576143f161417e565b614405816143ff8454614075565b84614392565b602080601f83116001811461443a57600084156144225750858301515b600019600386901b1c1916600185901b178555610d8f565b600085815260208120601f198616915b828110156144695788860151825594840194600190910190840161444a565b50858210156144875787850151600019600388901b60f8161c191681555b5050505050600190811b01905550565b6001600160d01b0382811682821603908082111561321857613218614228565b6001600160d01b038181168382160190808211156132185761321861422856fee6ac6a784fb43c9f6329d2f5c82f88a26a93bad4281f7780725af5f071f0aafaa26469706673582212209ef7dde8956ff3cb62fa116e4846593eb3167884879837419004dbbeee78b7d464736f6c63430008150033",
  "devdoc": {
    "errors": {
      "AddressEmptyCode(address)": [
        {
          "details": "There's no code at `target` (it is not a contract)."
        }
      ],
      "AddressInsufficientBalance(address)": [
        {
          "details": "The ETH balance of the account is not enough to perform the operation."
        }
      ],
      "CheckpointUnorderedInsertion()": [
        {
          "details": "A value was attempted to be inserted on a past checkpoint."
        }
      ],
      "ECDSAInvalidSignature()": [
        {
          "details": "The signature derives the `address(0)`."
        }
      ],
      "ECDSAInvalidSignatureLength(uint256)": [
        {
          "details": "The signature has an invalid length."
        }
      ],
      "ECDSAInvalidSignatureS(bytes32)": [
        {
          "details": "The signature has an S value that is in the upper half order."
        }
      ],
      "ERC20ExceededSafeSupply(uint256,uint256)": [
        {
          "details": "Total supply cap has been exceeded, introducing a risk of votes overflowing."
        }
      ],
      "ERC20InsufficientAllowance(address,uint256,uint256)": [
        {
          "details": "Indicates a failure with the `spender`s `allowance`. Used in transfers.",
          "params": {
            "allowance": "Amount of tokens a `spender` is allowed to operate with.",
            "needed": "Minimum amount required to perform a transfer.",
            "spender": "Address that may be allowed to operate on tokens without being their owner."
          }
        }
      ],
      "ERC20InsufficientBalance(address,uint256,uint256)": [
        {
          "details": "Indicates an error related to the current `balance` of a `sender`. Used in transfers.",
          "params": {
            "balance": "Current balance for the interacting account.",
            "needed": "Minimum amount required to perform a transfer.",
            "sender": "Address whose tokens are being transferred."
          }
        }
      ],
      "ERC20InvalidApprover(address)": [
        {
          "details": "Indicates a failure with the `approver` of a token to be approved. Used in approvals.",
          "params": {
            "approver": "Address initiating an approval operation."
          }
        }
      ],
      "ERC20InvalidReceiver(address)": [
        {
          "details": "Indicates a failure with the token `receiver`. Used in transfers.",
          "params": {
            "receiver": "Address to which tokens are being transferred."
          }
        }
      ],
      "ERC20InvalidSender(address)": [
        {
          "details": "Indicates a failure with the token `sender`. Used in transfers.",
          "params": {
            "sender": "Address whose tokens are being transferred."
          }
        }
      ],
      "ERC20InvalidSpender(address)": [
        {
          "details": "Indicates a failure with the `spender` to be approved. Used in approvals.",
          "params": {
            "spender": "Address that may be allowed to operate on tokens without being their owner."
          }
        }
      ],
      "ERC5805FutureLookup(uint256,uint48)": [
        {
          "details": "Lookup to future votes is not available."
        }
      ],
      "ERC6372InconsistentClock()": [
        {
          "details": "The clock was incorrectly modified."
        }
      ],
      "FailedInnerCall()": [
        {
          "details": "A call to an address target failed. The target may have reverted."
        }
      ],
      "InvalidAccountNonce(address,uint256)": [
        {
          "details": "The nonce used for an `account` is not the expected current nonce."
        }
      ],
      "InvalidInitialization()": [
        {
          "details": "The contract is already initialized."
        }
      ],
      "NotInitializing()": [
        {
          "details": "The contract is not initializing."
        }
      ],
      "OwnableInvalidOwner(address)": [
        {
          "details": "The owner is not a valid owner account. (eg. `address(0)`)"
        }
      ],
      "OwnableUnauthorizedAccount(address)": [
        {
          "details": "The caller account is not authorized to perform an operation."
        }
      ],
      "ReentrancyGuardReentrantCall()": [
        {
          "details": "Unauthorized reentrant call."
        }
      ],
      "SafeCastOverflowedUintDowncast(uint8,uint256)": [
        {
          "details": "Value doesn't fit in an uint of `bits` size."
        }
      ],
      "SafeERC20FailedOperation(address)": [
        {
          "details": "An operation with an ERC20 token failed."
        }
      ],
      "VotesExpiredSignature(uint256)": [
        {
          "details": "The signature used has expired."
        }
      ]
    },
    "events": {
      "Approval(address,address,uint256)": {
        "details": "Emitted when the allowance of a `spender` for an `owner` is set by a call to {approve}. `value` is the new allowance."
      },
      "DelegateChanged(address,address,address)": {
        "details": "Emitted when an account changes their delegate."
      },
      "DelegateVotesChanged(address,uint256,uint256)": {
        "details": "Emitted when a token transfer or delegate change results in changes to a delegate's number of voting units."
      },
      "EIP712DomainChanged()": {
        "details": "MAY be emitted to signal that the domain could have changed."
      },
      "Initialized(uint64)": {
        "details": "Triggered when the contract has been initialized or reinitialized."
      },
      "Transfer(address,address,uint256)": {
        "details": "Emitted when `value` tokens are moved from one account (`from`) to another (`to`). Note that `value` may be zero."
      }
    },
    "kind": "dev",
    "methods": {
      "CLOCK_MODE()": {
        "details": "Machine-readable description of the clock as specified in EIP-6372."
      },
      "allowance(address,address)": {
        "details": "See {IERC20-allowance}."
      },
      "approve(address,uint256)": {
        "details": "See {IERC20-approve}. NOTE: If `value` is the maximum `uint256`, the allowance is not updated on `transferFrom`. This is semantically equivalent to an infinite approval. Requirements: - `spender` cannot be the zero address."
      },
      "balanceOf(address)": {
        "details": "See {IERC20-balanceOf}."
      },
      "checkpoints(address,uint32)": {
        "details": "Get the `pos`-th checkpoint for `account`."
      },
      "clock()": {
        "details": "Clock used for flagging checkpoints. Can be overridden to implement timestamp based checkpoints (and voting), in which case {CLOCK_MODE} should be overridden as well to match."
      },
      "decimals()": {
        "details": "Returns the number of decimals used to get its user representation. For example, if `decimals` equals `2`, a balance of `505` tokens should be displayed to a user as `5.05` (`505 / 10 ** 2`). Tokens usually opt for a value of 18, imitating the relationship between Ether and Wei. This is the default value returned by this function, unless it's overridden. NOTE: This information is only used for _display_ purposes: it in no way affects any of the arithmetic of the contract, including {IERC20-balanceOf} and {IERC20-transfer}."
      },
      "delegate(address)": {
        "details": "Delegates votes from the sender to `delegatee`."
      },
      "delegateBySig(address,uint256,uint256,uint8,bytes32,bytes32)": {
        "details": "Delegates votes from signer to `delegatee`."
      },
      "delegates(address)": {
        "details": "Returns the delegate that `account` has chosen."
      },
      "earned(address,address)": {
        "details": "It adds to the rewards the amount of reward earned since last time that is the difference in reward per token from now and last time multiplied by the number of tokens staked by the person",
        "params": {
          "account": "The account for which the rewards are earned",
          "token": "The token for which the rewards are earned"
        },
        "returns": {
          "_0": "How much a given account earned rewards"
        }
      },
      "eip712Domain()": {
        "details": "See {IERC-5267}."
      },
      "getLockedNftDetails(address)": {
        "params": {
          "_user": "The address of the user."
        },
        "returns": {
          "_0": "lockedTokenIds The array of locked NFT IDs.",
          "_1": "tokenDetails The array of locked NFT details."
        }
      },
      "getPastTotalSupply(uint256)": {
        "details": "Returns the total supply of votes available at a specific moment in the past. If the `clock()` is configured to use block numbers, this will return the value at the end of the corresponding block. NOTE: This value is the sum of all available votes, which is not necessarily the sum of all delegated votes. Votes that have not been delegated are still part of total supply, even though they would not participate in a vote. Requirements: - `timepoint` must be in the past. If operating using block numbers, the block must be already mined."
      },
      "getPastVotes(address,uint256)": {
        "details": "Returns the amount of votes that `account` had at a specific moment in the past. If the `clock()` is configured to use block numbers, this will return the value at the end of the corresponding block. Requirements: - `timepoint` must be in the past. If operating using block numbers, the block must be already mined."
      },
      "getReward(address,address)": {
        "params": {
          "token": "The token for which the rewards are paid",
          "who": "The account for which the rewards are paid"
        }
      },
      "getRewardDual(address)": {
        "params": {
          "who": "The account for which the rewards are paid"
        }
      },
      "getRewardETH(address)": {
        "details": "This is an ETH variant of the get rewards function. It unwraps the token and sends out raw ETH to the user."
      },
      "getTokenPower(uint256)": {
        "params": {
          "amount": "The amount of tokens to give voting power for."
        }
      },
      "getVotes(address)": {
        "details": "Returns the current amount of votes that `account` has."
      },
      "increaseLockAmount(uint256,uint256)": {
        "params": {
          "newLockAmount": "The new lock amount in tokens.",
          "tokenId": "The ID of the NFT for which to update the lock amount."
        }
      },
      "increaseLockDuration(uint256,uint256)": {
        "params": {
          "newLockDuration": "The new lock duration in seconds.",
          "tokenId": "The ID of the NFT for which to update the lock duration."
        }
      },
      "lastTimeRewardApplicable(address)": {
        "details": "Returns the current timestamp if a reward is being distributed and the end of the staking period if staking is done",
        "params": {
          "token": "The token for which the last time reward applicable is requested"
        }
      },
      "multicall(bytes[])": {
        "custom:oz-upgrades-unsafe-allow-reachable": "delegatecall",
        "details": "Receives and executes a batch of function calls on this contract."
      },
      "name()": {
        "details": "Returns the name of the token."
      },
      "nonces(address)": {
        "details": "Returns the next unused nonce for an address."
      },
      "notifyRewardAmount(address,uint256)": {
        "params": {
          "reward": "Amount of reward tokens to distribute",
          "token": "The token for which the rewards are added"
        }
      },
      "numCheckpoints(address)": {
        "details": "Get number of checkpoints for `account`."
      },
      "onERC721Received(address,address,uint256,bytes)": {
        "params": {
          "data": "Additional data.",
          "from": "The address sending the ERC721 token.",
          "tokenId": "The ID of the ERC721 token."
        },
        "returns": {
          "_0": "ERC721 onERC721Received selector."
        }
      },
      "owner()": {
        "details": "Returns the address of the current owner."
      },
      "recoverERC20(address,uint256)": {
        "details": "Admin function to recover ERC20 tokens sent to this contract.",
        "params": {
          "tokenAddress": "The address of the ERC20 token to recover.",
          "tokenAmount": "The amount of tokens to recover."
        }
      },
      "renounceOwnership()": {
        "details": "Leaves the contract without owner. It will not be possible to call `onlyOwner` functions. Can only be called by the current owner. NOTE: Renouncing ownership will leave the contract without an owner, thereby disabling any functionality that is only available to the owner."
      },
      "rewardPerToken(address)": {
        "details": "It adds to the reward per token: the time elapsed since the `rewardPerTokenStored` was last updated multiplied by the `rewardRate` divided by the number of tokens",
        "params": {
          "token": "The token for which the reward per token is updated"
        }
      },
      "setRewardDistributor(address)": {
        "params": {
          "what": "The new address for the rewards distributor"
        }
      },
      "symbol()": {
        "details": "Returns the symbol of the token, usually a shorter version of the name."
      },
      "totalNFTStaked(address)": {
        "params": {
          "who": "The address of the user."
        }
      },
      "totalSupply()": {
        "details": "See {IERC20-totalSupply}."
      },
      "transfer(address,uint256)": {
        "details": "Prevents transfers of voting power."
      },
      "transferFrom(address,address,uint256)": {
        "details": "Prevents transfers of voting power."
      },
      "transferOwnership(address)": {
        "details": "Transfers ownership of the contract to a new account (`newOwner`). Can only be called by the current owner."
      },
      "unstakeToken(uint256)": {
        "params": {
          "tokenId": "The ID of the regular token NFT to unstake."
        }
      },
      "updateRewards(address,address)": {
        "params": {
          "token": "The token for which the rewards are updated",
          "who": "The account for which the rewards are updated"
        }
      }
    },
    "version": 1
  },
  "userdoc": {
    "kind": "user",
    "methods": {
      "distributor()": {
        "notice": "The address of the rewards distributor."
      },
      "earned(address,address)": {
        "notice": "Returns how much a given account earned rewards"
      },
      "getLockedNftDetails(address)": {
        "notice": "Gets the details of locked NFTs for a given user."
      },
      "getReward(address,address)": {
        "notice": "Triggers a payment of the reward earned to the msg.sender"
      },
      "getRewardDual(address)": {
        "notice": "Triggers a payment of the rewards earned for both tokens"
      },
      "getTokenPower(uint256)": {
        "notice": "Returns how much max voting power this locker will give out for the given amount of tokens. This varies for the instance of locker."
      },
      "increaseLockAmount(uint256,uint256)": {
        "notice": "Updates the lock amount for a specific NFT."
      },
      "increaseLockDuration(uint256,uint256)": {
        "notice": "Updates the lock duration for a specific NFT."
      },
      "lastTimeRewardApplicable(address)": {
        "notice": "Queries the last timestamp at which a reward was distributed"
      },
      "lastUpdateTime(address)": {
        "notice": "Last time `rewardPerTokenStored` was updated"
      },
      "lockedByToken(uint256)": {
        "notice": "used to keep track of ownership of token lockers"
      },
      "locker()": {
        "notice": "The address of the locker contract."
      },
      "notifyRewardAmount(address,uint256)": {
        "notice": "Adds rewards to be distributed"
      },
      "onERC721Received(address,address,uint256,bytes)": {
        "notice": "Receives an ERC721 token from the lockers and grants voting power accordingly."
      },
      "periodFinish(address)": {
        "notice": "Gets the period finish for a reward token"
      },
      "power(uint256)": {
        "notice": "How much voting power a given NFT ID has."
      },
      "rewardPerToken(address)": {
        "notice": "Used to actualize the `rewardPerTokenStored`"
      },
      "rewardPerTokenStored(address)": {
        "notice": "Helps to compute the amount earned by someone. Cumulates rewards accumulated for one token since the beginning. Stored as a uint so it is actually a float times the base of the reward token"
      },
      "rewardRate(address)": {
        "notice": "Reward per second given to the staking contract, split among the staked tokens"
      },
      "rewardToken1()": {
        "notice": "Gets the first reward token for which the rewards are distributed"
      },
      "rewardToken2()": {
        "notice": "Gets the second reward token for which the rewards are distributed"
      },
      "rewards(address,address)": {
        "notice": "Stores for each account the accumulated rewards"
      },
      "rewardsDuration()": {
        "notice": "Duration of the reward distribution"
      },
      "setRewardDistributor(address)": {
        "notice": "Admin only function to set the rewards distributor"
      },
      "totalNFTStaked(address)": {
        "notice": "The total number of NFTs staked in this contract for a user"
      },
      "totalVotes()": {
        "notice": "The total number of votes in this contract"
      },
      "unstakeToken(uint256)": {
        "notice": "Unstakes a regular token NFT and transfers it back to the user."
      },
      "updateRewards(address,address)": {
        "notice": "Updates the rewards for an account"
      },
      "userRewardPerTokenPaid(address,address)": {
        "notice": "Stores for each account the `rewardPerToken`: we do the difference between the current and the old value to compute what has been earned by an account"
      },
      "weth()": {
        "notice": "The address of the WETH token."
      }
    },
    "version": 1
  },
  "storageLayout": {
    "storage": [
      {
        "astId": 32080,
        "contract": "contracts/governance/locker/staking/OmnichainStakingToken.sol:OmnichainStakingToken",
        "label": "locker",
        "offset": 0,
        "slot": "0",
        "type": "t_contract(ILocker)36213"
      },
      {
        "astId": 32088,
        "contract": "contracts/governance/locker/staking/OmnichainStakingToken.sol:OmnichainStakingToken",
        "label": "rewards",
        "offset": 0,
        "slot": "1",
        "type": "t_mapping(t_contract(IERC20)15836,t_mapping(t_address,t_uint256))"
      },
      {
        "astId": 32096,
        "contract": "contracts/governance/locker/staking/OmnichainStakingToken.sol:OmnichainStakingToken",
        "label": "userRewardPerTokenPaid",
        "offset": 0,
        "slot": "2",
        "type": "t_mapping(t_contract(IERC20)15836,t_mapping(t_address,t_uint256))"
      },
      {
        "astId": 32102,
        "contract": "contracts/governance/locker/staking/OmnichainStakingToken.sol:OmnichainStakingToken",
        "label": "lastUpdateTime",
        "offset": 0,
        "slot": "3",
        "type": "t_mapping(t_contract(IERC20)15836,t_uint256)"
      },
      {
        "astId": 32108,
        "contract": "contracts/governance/locker/staking/OmnichainStakingToken.sol:OmnichainStakingToken",
        "label": "periodFinish",
        "offset": 0,
        "slot": "4",
        "type": "t_mapping(t_contract(IERC20)15836,t_uint256)"
      },
      {
        "astId": 32114,
        "contract": "contracts/governance/locker/staking/OmnichainStakingToken.sol:OmnichainStakingToken",
        "label": "rewardPerTokenStored",
        "offset": 0,
        "slot": "5",
        "type": "t_mapping(t_contract(IERC20)15836,t_uint256)"
      },
      {
        "astId": 32120,
        "contract": "contracts/governance/locker/staking/OmnichainStakingToken.sol:OmnichainStakingToken",
        "label": "rewardRate",
        "offset": 0,
        "slot": "6",
        "type": "t_mapping(t_contract(IERC20)15836,t_uint256)"
      },
      {
        "astId": 32123,
        "contract": "contracts/governance/locker/staking/OmnichainStakingToken.sol:OmnichainStakingToken",
        "label": "rewardsDuration",
        "offset": 0,
        "slot": "7",
        "type": "t_uint256"
      },
      {
        "astId": 32127,
        "contract": "contracts/governance/locker/staking/OmnichainStakingToken.sol:OmnichainStakingToken",
        "label": "rewardToken1",
        "offset": 0,
        "slot": "8",
        "type": "t_contract(IERC20)15836"
      },
      {
        "astId": 32131,
        "contract": "contracts/governance/locker/staking/OmnichainStakingToken.sol:OmnichainStakingToken",
        "label": "rewardToken2",
        "offset": 0,
        "slot": "9",
        "type": "t_contract(IERC20)15836"
      },
      {
        "astId": 32135,
        "contract": "contracts/governance/locker/staking/OmnichainStakingToken.sol:OmnichainStakingToken",
        "label": "weth",
        "offset": 0,
        "slot": "10",
        "type": "t_contract(IERC20)15836"
      },
      {
        "astId": 32140,
        "contract": "contracts/governance/locker/staking/OmnichainStakingToken.sol:OmnichainStakingToken",
        "label": "power",
        "offset": 0,
        "slot": "11",
        "type": "t_mapping(t_uint256,t_uint256)"
      },
      {
        "astId": 32145,
        "contract": "contracts/governance/locker/staking/OmnichainStakingToken.sol:OmnichainStakingToken",
        "label": "lockedByToken",
        "offset": 0,
        "slot": "12",
        "type": "t_mapping(t_uint256,t_address)"
      },
      {
        "astId": 32150,
        "contract": "contracts/governance/locker/staking/OmnichainStakingToken.sol:OmnichainStakingToken",
        "label": "lockedTokenIdNfts",
        "offset": 0,
        "slot": "13",
        "type": "t_mapping(t_address,t_array(t_uint256)dyn_storage)"
      },
      {
        "astId": 32153,
        "contract": "contracts/governance/locker/staking/OmnichainStakingToken.sol:OmnichainStakingToken",
        "label": "distributor",
        "offset": 0,
        "slot": "14",
        "type": "t_address"
      }
    ],
    "types": {
      "t_address": {
        "encoding": "inplace",
        "label": "address",
        "numberOfBytes": "20"
      },
      "t_array(t_uint256)dyn_storage": {
        "base": "t_uint256",
        "encoding": "dynamic_array",
        "label": "uint256[]",
        "numberOfBytes": "32"
      },
      "t_contract(IERC20)15836": {
        "encoding": "inplace",
        "label": "contract IERC20",
        "numberOfBytes": "20"
      },
      "t_contract(ILocker)36213": {
        "encoding": "inplace",
        "label": "contract ILocker",
        "numberOfBytes": "20"
      },
      "t_mapping(t_address,t_array(t_uint256)dyn_storage)": {
        "encoding": "mapping",
        "key": "t_address",
        "label": "mapping(address => uint256[])",
        "numberOfBytes": "32",
        "value": "t_array(t_uint256)dyn_storage"
      },
      "t_mapping(t_address,t_uint256)": {
        "encoding": "mapping",
        "key": "t_address",
        "label": "mapping(address => uint256)",
        "numberOfBytes": "32",
        "value": "t_uint256"
      },
      "t_mapping(t_contract(IERC20)15836,t_mapping(t_address,t_uint256))": {
        "encoding": "mapping",
        "key": "t_contract(IERC20)15836",
        "label": "mapping(contract IERC20 => mapping(address => uint256))",
        "numberOfBytes": "32",
        "value": "t_mapping(t_address,t_uint256)"
      },
      "t_mapping(t_contract(IERC20)15836,t_uint256)": {
        "encoding": "mapping",
        "key": "t_contract(IERC20)15836",
        "label": "mapping(contract IERC20 => uint256)",
        "numberOfBytes": "32",
        "value": "t_uint256"
      },
      "t_mapping(t_uint256,t_address)": {
        "encoding": "mapping",
        "key": "t_uint256",
        "label": "mapping(uint256 => address)",
        "numberOfBytes": "32",
        "value": "t_address"
      },
      "t_mapping(t_uint256,t_uint256)": {
        "encoding": "mapping",
        "key": "t_uint256",
        "label": "mapping(uint256 => uint256)",
        "numberOfBytes": "32",
        "value": "t_uint256"
      },
      "t_uint256": {
        "encoding": "inplace",
        "label": "uint256",
        "numberOfBytes": "32"
      }
    }
  }
}