{
  "address": "0xD5b0Ef891200b883fafD300Ce560A69C8d919B34",
  "abi": [
    {
      "inputs": [
        {
          "internalType": "address",
          "name": "target",
          "type": "address"
        }
      ],
      "name": "AddressEmptyCode",
      "type": "error"
    },
    {
      "inputs": [
        {
          "internalType": "address",
          "name": "account",
          "type": "address"
        }
      ],
      "name": "AddressInsufficientBalance",
      "type": "error"
    },
    {
      "inputs": [],
      "name": "CheckpointUnorderedInsertion",
      "type": "error"
    },
    {
      "inputs": [],
      "name": "ECDSAInvalidSignature",
      "type": "error"
    },
    {
      "inputs": [
        {
          "internalType": "uint256",
          "name": "length",
          "type": "uint256"
        }
      ],
      "name": "ECDSAInvalidSignatureLength",
      "type": "error"
    },
    {
      "inputs": [
        {
          "internalType": "bytes32",
          "name": "s",
          "type": "bytes32"
        }
      ],
      "name": "ECDSAInvalidSignatureS",
      "type": "error"
    },
    {
      "inputs": [
        {
          "internalType": "uint256",
          "name": "increasedSupply",
          "type": "uint256"
        },
        {
          "internalType": "uint256",
          "name": "cap",
          "type": "uint256"
        }
      ],
      "name": "ERC20ExceededSafeSupply",
      "type": "error"
    },
    {
      "inputs": [
        {
          "internalType": "address",
          "name": "spender",
          "type": "address"
        },
        {
          "internalType": "uint256",
          "name": "allowance",
          "type": "uint256"
        },
        {
          "internalType": "uint256",
          "name": "needed",
          "type": "uint256"
        }
      ],
      "name": "ERC20InsufficientAllowance",
      "type": "error"
    },
    {
      "inputs": [
        {
          "internalType": "address",
          "name": "sender",
          "type": "address"
        },
        {
          "internalType": "uint256",
          "name": "balance",
          "type": "uint256"
        },
        {
          "internalType": "uint256",
          "name": "needed",
          "type": "uint256"
        }
      ],
      "name": "ERC20InsufficientBalance",
      "type": "error"
    },
    {
      "inputs": [
        {
          "internalType": "address",
          "name": "approver",
          "type": "address"
        }
      ],
      "name": "ERC20InvalidApprover",
      "type": "error"
    },
    {
      "inputs": [
        {
          "internalType": "address",
          "name": "receiver",
          "type": "address"
        }
      ],
      "name": "ERC20InvalidReceiver",
      "type": "error"
    },
    {
      "inputs": [
        {
          "internalType": "address",
          "name": "sender",
          "type": "address"
        }
      ],
      "name": "ERC20InvalidSender",
      "type": "error"
    },
    {
      "inputs": [
        {
          "internalType": "address",
          "name": "spender",
          "type": "address"
        }
      ],
      "name": "ERC20InvalidSpender",
      "type": "error"
    },
    {
      "inputs": [
        {
          "internalType": "uint256",
          "name": "timepoint",
          "type": "uint256"
        },
        {
          "internalType": "uint48",
          "name": "clock",
          "type": "uint48"
        }
      ],
      "name": "ERC5805FutureLookup",
      "type": "error"
    },
    {
      "inputs": [],
      "name": "ERC6372InconsistentClock",
      "type": "error"
    },
    {
      "inputs": [],
      "name": "FailedInnerCall",
      "type": "error"
    },
    {
      "inputs": [
        {
          "internalType": "address",
          "name": "account",
          "type": "address"
        },
        {
          "internalType": "uint256",
          "name": "currentNonce",
          "type": "uint256"
        }
      ],
      "name": "InvalidAccountNonce",
      "type": "error"
    },
    {
      "inputs": [],
      "name": "InvalidInitialization",
      "type": "error"
    },
    {
      "inputs": [
        {
          "internalType": "address",
          "name": "",
          "type": "address"
        },
        {
          "internalType": "address",
          "name": "",
          "type": "address"
        }
      ],
      "name": "InvalidUnstaker",
      "type": "error"
    },
    {
      "inputs": [],
      "name": "NotInitializing",
      "type": "error"
    },
    {
      "inputs": [
        {
          "internalType": "address",
          "name": "owner",
          "type": "address"
        }
      ],
      "name": "OwnableInvalidOwner",
      "type": "error"
    },
    {
      "inputs": [
        {
          "internalType": "address",
          "name": "account",
          "type": "address"
        }
      ],
      "name": "OwnableUnauthorizedAccount",
      "type": "error"
    },
    {
      "inputs": [],
      "name": "ReentrancyGuardReentrantCall",
      "type": "error"
    },
    {
      "inputs": [
        {
          "internalType": "uint8",
          "name": "bits",
          "type": "uint8"
        },
        {
          "internalType": "uint256",
          "name": "value",
          "type": "uint256"
        }
      ],
      "name": "SafeCastOverflowedUintDowncast",
      "type": "error"
    },
    {
      "inputs": [
        {
          "internalType": "address",
          "name": "token",
          "type": "address"
        }
      ],
      "name": "SafeERC20FailedOperation",
      "type": "error"
    },
    {
      "inputs": [
        {
          "internalType": "uint256",
          "name": "expiry",
          "type": "uint256"
        }
      ],
      "name": "VotesExpiredSignature",
      "type": "error"
    },
    {
      "anonymous": false,
      "inputs": [
        {
          "indexed": true,
          "internalType": "address",
          "name": "owner",
          "type": "address"
        },
        {
          "indexed": true,
          "internalType": "address",
          "name": "spender",
          "type": "address"
        },
        {
          "indexed": false,
          "internalType": "uint256",
          "name": "value",
          "type": "uint256"
        }
      ],
      "name": "Approval",
      "type": "event"
    },
    {
      "anonymous": false,
      "inputs": [
        {
          "indexed": true,
          "internalType": "address",
          "name": "delegator",
          "type": "address"
        },
        {
          "indexed": true,
          "internalType": "address",
          "name": "fromDelegate",
          "type": "address"
        },
        {
          "indexed": true,
          "internalType": "address",
          "name": "toDelegate",
          "type": "address"
        }
      ],
      "name": "DelegateChanged",
      "type": "event"
    },
    {
      "anonymous": false,
      "inputs": [
        {
          "indexed": true,
          "internalType": "address",
          "name": "delegate",
          "type": "address"
        },
        {
          "indexed": false,
          "internalType": "uint256",
          "name": "previousVotes",
          "type": "uint256"
        },
        {
          "indexed": false,
          "internalType": "uint256",
          "name": "newVotes",
          "type": "uint256"
        }
      ],
      "name": "DelegateVotesChanged",
      "type": "event"
    },
    {
      "anonymous": false,
      "inputs": [],
      "name": "EIP712DomainChanged",
      "type": "event"
    },
    {
      "anonymous": false,
      "inputs": [
        {
          "indexed": false,
          "internalType": "uint64",
          "name": "version",
          "type": "uint64"
        }
      ],
      "name": "Initialized",
      "type": "event"
    },
    {
      "anonymous": false,
      "inputs": [
        {
          "indexed": true,
          "internalType": "address",
          "name": "oldLpOracle",
          "type": "address"
        },
        {
          "indexed": true,
          "internalType": "address",
          "name": "newLpOracle",
          "type": "address"
        }
      ],
      "name": "LpOracleSet",
      "type": "event"
    },
    {
      "anonymous": false,
      "inputs": [
        {
          "indexed": true,
          "internalType": "address",
          "name": "previousOwner",
          "type": "address"
        },
        {
          "indexed": true,
          "internalType": "address",
          "name": "newOwner",
          "type": "address"
        }
      ],
      "name": "OwnershipTransferred",
      "type": "event"
    },
    {
      "anonymous": false,
      "inputs": [
        {
          "indexed": false,
          "internalType": "address",
          "name": "previousVoter",
          "type": "address"
        },
        {
          "indexed": false,
          "internalType": "address",
          "name": "_poolVoter",
          "type": "address"
        }
      ],
      "name": "PoolVoterUpdated",
      "type": "event"
    },
    {
      "anonymous": false,
      "inputs": [
        {
          "indexed": false,
          "internalType": "address",
          "name": "token",
          "type": "address"
        },
        {
          "indexed": false,
          "internalType": "uint256",
          "name": "amount",
          "type": "uint256"
        }
      ],
      "name": "Recovered",
      "type": "event"
    },
    {
      "anonymous": false,
      "inputs": [
        {
          "indexed": true,
          "internalType": "contract IERC20",
          "name": "reward",
          "type": "address"
        },
        {
          "indexed": true,
          "internalType": "uint256",
          "name": "amount",
          "type": "uint256"
        },
        {
          "indexed": false,
          "internalType": "address",
          "name": "caller",
          "type": "address"
        }
      ],
      "name": "RewardAdded",
      "type": "event"
    },
    {
      "anonymous": false,
      "inputs": [
        {
          "indexed": true,
          "internalType": "contract IERC20",
          "name": "reward",
          "type": "address"
        },
        {
          "indexed": true,
          "internalType": "uint256",
          "name": "amount",
          "type": "uint256"
        },
        {
          "indexed": true,
          "internalType": "address",
          "name": "who",
          "type": "address"
        },
        {
          "indexed": false,
          "internalType": "address",
          "name": "caller",
          "type": "address"
        }
      ],
      "name": "RewardClaimed",
      "type": "event"
    },
    {
      "anonymous": false,
      "inputs": [
        {
          "indexed": false,
          "internalType": "uint256",
          "name": "newDuration",
          "type": "uint256"
        }
      ],
      "name": "RewardsDurationUpdated",
      "type": "event"
    },
    {
      "anonymous": false,
      "inputs": [
        {
          "indexed": false,
          "internalType": "address",
          "name": "previousToken",
          "type": "address"
        },
        {
          "indexed": false,
          "internalType": "address",
          "name": "_zeroToken",
          "type": "address"
        }
      ],
      "name": "RewardsTokenUpdated",
      "type": "event"
    },
    {
      "anonymous": false,
      "inputs": [
        {
          "indexed": false,
          "internalType": "address",
          "name": "previousLocker",
          "type": "address"
        },
        {
          "indexed": false,
          "internalType": "address",
          "name": "_tokenLocker",
          "type": "address"
        }
      ],
      "name": "TokenLockerUpdated",
      "type": "event"
    },
    {
      "anonymous": false,
      "inputs": [
        {
          "indexed": true,
          "internalType": "address",
          "name": "from",
          "type": "address"
        },
        {
          "indexed": true,
          "internalType": "address",
          "name": "to",
          "type": "address"
        },
        {
          "indexed": false,
          "internalType": "uint256",
          "name": "value",
          "type": "uint256"
        }
      ],
      "name": "Transfer",
      "type": "event"
    },
    {
      "anonymous": false,
      "inputs": [
        {
          "indexed": true,
          "internalType": "address",
          "name": "oldZeroAggregator",
          "type": "address"
        },
        {
          "indexed": true,
          "internalType": "address",
          "name": "newZeroAggregator",
          "type": "address"
        }
      ],
      "name": "ZeroAggregatorSet",
      "type": "event"
    },
    {
      "inputs": [],
      "name": "CLOCK_MODE",
      "outputs": [
        {
          "internalType": "string",
          "name": "",
          "type": "string"
        }
      ],
      "stateMutability": "view",
      "type": "function"
    },
    {
      "inputs": [
        {
          "internalType": "address",
          "name": "owner",
          "type": "address"
        },
        {
          "internalType": "address",
          "name": "spender",
          "type": "address"
        }
      ],
      "name": "allowance",
      "outputs": [
        {
          "internalType": "uint256",
          "name": "",
          "type": "uint256"
        }
      ],
      "stateMutability": "view",
      "type": "function"
    },
    {
      "inputs": [
        {
          "internalType": "address",
          "name": "spender",
          "type": "address"
        },
        {
          "internalType": "uint256",
          "name": "value",
          "type": "uint256"
        }
      ],
      "name": "approve",
      "outputs": [
        {
          "internalType": "bool",
          "name": "",
          "type": "bool"
        }
      ],
      "stateMutability": "nonpayable",
      "type": "function"
    },
    {
      "inputs": [
        {
          "internalType": "address",
          "name": "account",
          "type": "address"
        }
      ],
      "name": "balanceOf",
      "outputs": [
        {
          "internalType": "uint256",
          "name": "",
          "type": "uint256"
        }
      ],
      "stateMutability": "view",
      "type": "function"
    },
    {
      "inputs": [
        {
          "internalType": "address",
          "name": "account",
          "type": "address"
        },
        {
          "internalType": "uint32",
          "name": "pos",
          "type": "uint32"
        }
      ],
      "name": "checkpoints",
      "outputs": [
        {
          "components": [
            {
              "internalType": "uint48",
              "name": "_key",
              "type": "uint48"
            },
            {
              "internalType": "uint208",
              "name": "_value",
              "type": "uint208"
            }
          ],
          "internalType": "struct Checkpoints.Checkpoint208",
          "name": "",
          "type": "tuple"
        }
      ],
      "stateMutability": "view",
      "type": "function"
    },
    {
      "inputs": [],
      "name": "clock",
      "outputs": [
        {
          "internalType": "uint48",
          "name": "",
          "type": "uint48"
        }
      ],
      "stateMutability": "view",
      "type": "function"
    },
    {
      "inputs": [],
      "name": "decimals",
      "outputs": [
        {
          "internalType": "uint8",
          "name": "",
          "type": "uint8"
        }
      ],
      "stateMutability": "view",
      "type": "function"
    },
    {
      "inputs": [
        {
          "internalType": "address",
          "name": "delegatee",
          "type": "address"
        }
      ],
      "name": "delegate",
      "outputs": [],
      "stateMutability": "nonpayable",
      "type": "function"
    },
    {
      "inputs": [
        {
          "internalType": "address",
          "name": "delegatee",
          "type": "address"
        },
        {
          "internalType": "uint256",
          "name": "nonce",
          "type": "uint256"
        },
        {
          "internalType": "uint256",
          "name": "expiry",
          "type": "uint256"
        },
        {
          "internalType": "uint8",
          "name": "v",
          "type": "uint8"
        },
        {
          "internalType": "bytes32",
          "name": "r",
          "type": "bytes32"
        },
        {
          "internalType": "bytes32",
          "name": "s",
          "type": "bytes32"
        }
      ],
      "name": "delegateBySig",
      "outputs": [],
      "stateMutability": "nonpayable",
      "type": "function"
    },
    {
      "inputs": [
        {
          "internalType": "address",
          "name": "account",
          "type": "address"
        }
      ],
      "name": "delegates",
      "outputs": [
        {
          "internalType": "address",
          "name": "",
          "type": "address"
        }
      ],
      "stateMutability": "view",
      "type": "function"
    },
    {
      "inputs": [],
      "name": "distributor",
      "outputs": [
        {
          "internalType": "address",
          "name": "",
          "type": "address"
        }
      ],
      "stateMutability": "view",
      "type": "function"
    },
    {
      "inputs": [
        {
          "internalType": "contract IERC20",
          "name": "token",
          "type": "address"
        },
        {
          "internalType": "address",
          "name": "account",
          "type": "address"
        }
      ],
      "name": "earned",
      "outputs": [
        {
          "internalType": "uint256",
          "name": "",
          "type": "uint256"
        }
      ],
      "stateMutability": "view",
      "type": "function"
    },
    {
      "inputs": [],
      "name": "eip712Domain",
      "outputs": [
        {
          "internalType": "bytes1",
          "name": "fields",
          "type": "bytes1"
        },
        {
          "internalType": "string",
          "name": "name",
          "type": "string"
        },
        {
          "internalType": "string",
          "name": "version",
          "type": "string"
        },
        {
          "internalType": "uint256",
          "name": "chainId",
          "type": "uint256"
        },
        {
          "internalType": "address",
          "name": "verifyingContract",
          "type": "address"
        },
        {
          "internalType": "bytes32",
          "name": "salt",
          "type": "bytes32"
        },
        {
          "internalType": "uint256[]",
          "name": "extensions",
          "type": "uint256[]"
        }
      ],
      "stateMutability": "view",
      "type": "function"
    },
    {
      "inputs": [
        {
          "internalType": "address",
          "name": "_user",
          "type": "address"
        }
      ],
      "name": "getLockedNftDetails",
      "outputs": [
        {
          "internalType": "uint256[]",
          "name": "",
          "type": "uint256[]"
        },
        {
          "components": [
            {
              "internalType": "uint256",
              "name": "amount",
              "type": "uint256"
            },
            {
              "internalType": "uint256",
              "name": "end",
              "type": "uint256"
            },
            {
              "internalType": "uint256",
              "name": "start",
              "type": "uint256"
            },
            {
              "internalType": "uint256",
              "name": "power",
              "type": "uint256"
            }
          ],
          "internalType": "struct ILocker.LockedBalance[]",
          "name": "",
          "type": "tuple[]"
        }
      ],
      "stateMutability": "view",
      "type": "function"
    },
    {
      "inputs": [
        {
          "internalType": "uint256",
          "name": "timepoint",
          "type": "uint256"
        }
      ],
      "name": "getPastTotalSupply",
      "outputs": [
        {
          "internalType": "uint256",
          "name": "",
          "type": "uint256"
        }
      ],
      "stateMutability": "view",
      "type": "function"
    },
    {
      "inputs": [
        {
          "internalType": "address",
          "name": "account",
          "type": "address"
        },
        {
          "internalType": "uint256",
          "name": "timepoint",
          "type": "uint256"
        }
      ],
      "name": "getPastVotes",
      "outputs": [
        {
          "internalType": "uint256",
          "name": "",
          "type": "uint256"
        }
      ],
      "stateMutability": "view",
      "type": "function"
    },
    {
      "inputs": [
        {
          "internalType": "address",
          "name": "who",
          "type": "address"
        },
        {
          "internalType": "contract IERC20",
          "name": "token",
          "type": "address"
        }
      ],
      "name": "getReward",
      "outputs": [],
      "stateMutability": "nonpayable",
      "type": "function"
    },
    {
      "inputs": [
        {
          "internalType": "address",
          "name": "who",
          "type": "address"
        }
      ],
      "name": "getRewardAll",
      "outputs": [],
      "stateMutability": "nonpayable",
      "type": "function"
    },
    {
      "inputs": [
        {
          "internalType": "address",
          "name": "who",
          "type": "address"
        }
      ],
      "name": "getRewardDual",
      "outputs": [],
      "stateMutability": "nonpayable",
      "type": "function"
    },
    {
      "inputs": [
        {
          "internalType": "address",
          "name": "who",
          "type": "address"
        }
      ],
      "name": "getRewardETH",
      "outputs": [],
      "stateMutability": "nonpayable",
      "type": "function"
    },
    {
      "inputs": [
        {
          "internalType": "uint256",
          "name": "amount",
          "type": "uint256"
        }
      ],
      "name": "getTokenPower",
      "outputs": [
        {
          "internalType": "uint256",
          "name": "_power",
          "type": "uint256"
        }
      ],
      "stateMutability": "view",
      "type": "function"
    },
    {
      "inputs": [
        {
          "internalType": "address",
          "name": "account",
          "type": "address"
        }
      ],
      "name": "getVotes",
      "outputs": [
        {
          "internalType": "uint256",
          "name": "",
          "type": "uint256"
        }
      ],
      "stateMutability": "view",
      "type": "function"
    },
    {
      "inputs": [
        {
          "internalType": "uint256",
          "name": "tokenId",
          "type": "uint256"
        },
        {
          "internalType": "uint256",
          "name": "newLockAmount",
          "type": "uint256"
        }
      ],
      "name": "increaseLockAmount",
      "outputs": [],
      "stateMutability": "nonpayable",
      "type": "function"
    },
    {
      "inputs": [
        {
          "internalType": "uint256",
          "name": "tokenId",
          "type": "uint256"
        },
        {
          "internalType": "uint256",
          "name": "newLockDuration",
          "type": "uint256"
        }
      ],
      "name": "increaseLockDuration",
      "outputs": [],
      "stateMutability": "nonpayable",
      "type": "function"
    },
    {
      "inputs": [
        {
          "internalType": "address",
          "name": "_locker",
          "type": "address"
        },
        {
          "internalType": "address",
          "name": "_weth",
          "type": "address"
        },
        {
          "internalType": "address[]",
          "name": "_rewardTokens",
          "type": "address[]"
        },
        {
          "internalType": "uint256",
          "name": "_rewardsDuration",
          "type": "uint256"
        },
        {
          "internalType": "address",
          "name": "_owner",
          "type": "address"
        },
        {
          "internalType": "address",
          "name": "_distributor",
          "type": "address"
        }
      ],
      "name": "initialize",
      "outputs": [],
      "stateMutability": "nonpayable",
      "type": "function"
    },
    {
      "inputs": [
        {
          "internalType": "contract IERC20",
          "name": "token",
          "type": "address"
        }
      ],
      "name": "lastTimeRewardApplicable",
      "outputs": [
        {
          "internalType": "uint256",
          "name": "",
          "type": "uint256"
        }
      ],
      "stateMutability": "view",
      "type": "function"
    },
    {
      "inputs": [
        {
          "internalType": "contract IERC20",
          "name": "reward",
          "type": "address"
        }
      ],
      "name": "lastUpdateTime",
      "outputs": [
        {
          "internalType": "uint256",
          "name": "",
          "type": "uint256"
        }
      ],
      "stateMutability": "view",
      "type": "function"
    },
    {
      "inputs": [
        {
          "internalType": "uint256",
          "name": "",
          "type": "uint256"
        }
      ],
      "name": "lockedByToken",
      "outputs": [
        {
          "internalType": "address",
          "name": "",
          "type": "address"
        }
      ],
      "stateMutability": "view",
      "type": "function"
    },
    {
      "inputs": [
        {
          "internalType": "address",
          "name": "",
          "type": "address"
        },
        {
          "internalType": "uint256",
          "name": "",
          "type": "uint256"
        }
      ],
      "name": "lockedTokenIdNfts",
      "outputs": [
        {
          "internalType": "uint256",
          "name": "",
          "type": "uint256"
        }
      ],
      "stateMutability": "view",
      "type": "function"
    },
    {
      "inputs": [],
      "name": "locker",
      "outputs": [
        {
          "internalType": "contract ILocker",
          "name": "",
          "type": "address"
        }
      ],
      "stateMutability": "view",
      "type": "function"
    },
    {
      "inputs": [
        {
          "internalType": "uint256",
          "name": "_value",
          "type": "uint256"
        },
        {
          "internalType": "uint256",
          "name": "_startDate",
          "type": "uint256"
        },
        {
          "internalType": "uint256",
          "name": "_endDate",
          "type": "uint256"
        },
        {
          "internalType": "address",
          "name": "_who",
          "type": "address"
        }
      ],
      "name": "migrate",
      "outputs": [],
      "stateMutability": "nonpayable",
      "type": "function"
    },
    {
      "inputs": [],
      "name": "migrator",
      "outputs": [
        {
          "internalType": "address",
          "name": "",
          "type": "address"
        }
      ],
      "stateMutability": "view",
      "type": "function"
    },
    {
      "inputs": [
        {
          "internalType": "bytes[]",
          "name": "data",
          "type": "bytes[]"
        }
      ],
      "name": "multicall",
      "outputs": [
        {
          "internalType": "bytes[]",
          "name": "results",
          "type": "bytes[]"
        }
      ],
      "stateMutability": "nonpayable",
      "type": "function"
    },
    {
      "inputs": [],
      "name": "name",
      "outputs": [
        {
          "internalType": "string",
          "name": "",
          "type": "string"
        }
      ],
      "stateMutability": "view",
      "type": "function"
    },
    {
      "inputs": [
        {
          "internalType": "address",
          "name": "owner",
          "type": "address"
        }
      ],
      "name": "nonces",
      "outputs": [
        {
          "internalType": "uint256",
          "name": "",
          "type": "uint256"
        }
      ],
      "stateMutability": "view",
      "type": "function"
    },
    {
      "inputs": [
        {
          "internalType": "contract IERC20",
          "name": "token",
          "type": "address"
        },
        {
          "internalType": "uint256",
          "name": "reward",
          "type": "uint256"
        }
      ],
      "name": "notifyRewardAmount",
      "outputs": [],
      "stateMutability": "nonpayable",
      "type": "function"
    },
    {
      "inputs": [
        {
          "internalType": "address",
          "name": "account",
          "type": "address"
        }
      ],
      "name": "numCheckpoints",
      "outputs": [
        {
          "internalType": "uint32",
          "name": "",
          "type": "uint32"
        }
      ],
      "stateMutability": "view",
      "type": "function"
    },
    {
      "inputs": [
        {
          "internalType": "address",
          "name": "to",
          "type": "address"
        },
        {
          "internalType": "address",
          "name": "from",
          "type": "address"
        },
        {
          "internalType": "uint256",
          "name": "tokenId",
          "type": "uint256"
        },
        {
          "internalType": "bytes",
          "name": "data",
          "type": "bytes"
        }
      ],
      "name": "onERC721Received",
      "outputs": [
        {
          "internalType": "bytes4",
          "name": "",
          "type": "bytes4"
        }
      ],
      "stateMutability": "nonpayable",
      "type": "function"
    },
    {
      "inputs": [],
      "name": "owner",
      "outputs": [
        {
          "internalType": "address",
          "name": "",
          "type": "address"
        }
      ],
      "stateMutability": "view",
      "type": "function"
    },
    {
      "inputs": [
        {
          "internalType": "contract IERC20",
          "name": "reward",
          "type": "address"
        }
      ],
      "name": "periodFinish",
      "outputs": [
        {
          "internalType": "uint256",
          "name": "",
          "type": "uint256"
        }
      ],
      "stateMutability": "view",
      "type": "function"
    },
    {
      "inputs": [
        {
          "internalType": "uint256",
          "name": "",
          "type": "uint256"
        }
      ],
      "name": "power",
      "outputs": [
        {
          "internalType": "uint256",
          "name": "",
          "type": "uint256"
        }
      ],
      "stateMutability": "view",
      "type": "function"
    },
    {
      "inputs": [
        {
          "internalType": "address",
          "name": "tokenAddress",
          "type": "address"
        },
        {
          "internalType": "uint256",
          "name": "tokenAmount",
          "type": "uint256"
        }
      ],
      "name": "recoverERC20",
      "outputs": [],
      "stateMutability": "nonpayable",
      "type": "function"
    },
    {
      "inputs": [
        {
          "internalType": "contract IERC20",
          "name": "token",
          "type": "address"
        }
      ],
      "name": "registerNewRewardToken",
      "outputs": [],
      "stateMutability": "nonpayable",
      "type": "function"
    },
    {
      "inputs": [],
      "name": "renounceOwnership",
      "outputs": [],
      "stateMutability": "nonpayable",
      "type": "function"
    },
    {
      "inputs": [
        {
          "internalType": "contract IERC20",
          "name": "token",
          "type": "address"
        }
      ],
      "name": "rewardPerToken",
      "outputs": [
        {
          "internalType": "uint256",
          "name": "",
          "type": "uint256"
        }
      ],
      "stateMutability": "view",
      "type": "function"
    },
    {
      "inputs": [
        {
          "internalType": "contract IERC20",
          "name": "reward",
          "type": "address"
        }
      ],
      "name": "rewardPerTokenStored",
      "outputs": [
        {
          "internalType": "uint256",
          "name": "",
          "type": "uint256"
        }
      ],
      "stateMutability": "view",
      "type": "function"
    },
    {
      "inputs": [
        {
          "internalType": "contract IERC20",
          "name": "reward",
          "type": "address"
        }
      ],
      "name": "rewardRate",
      "outputs": [
        {
          "internalType": "uint256",
          "name": "",
          "type": "uint256"
        }
      ],
      "stateMutability": "view",
      "type": "function"
    },
    {
      "inputs": [],
      "name": "rewardToken1",
      "outputs": [
        {
          "internalType": "contract IERC20",
          "name": "",
          "type": "address"
        }
      ],
      "stateMutability": "view",
      "type": "function"
    },
    {
      "inputs": [],
      "name": "rewardToken2",
      "outputs": [
        {
          "internalType": "contract IERC20",
          "name": "",
          "type": "address"
        }
      ],
      "stateMutability": "view",
      "type": "function"
    },
    {
      "inputs": [
        {
          "internalType": "uint256",
          "name": "",
          "type": "uint256"
        }
      ],
      "name": "rewardTokens",
      "outputs": [
        {
          "internalType": "contract IERC20",
          "name": "",
          "type": "address"
        }
      ],
      "stateMutability": "view",
      "type": "function"
    },
    {
      "inputs": [
        {
          "internalType": "contract IERC20",
          "name": "reward",
          "type": "address"
        },
        {
          "internalType": "address",
          "name": "who",
          "type": "address"
        }
      ],
      "name": "rewards",
      "outputs": [
        {
          "internalType": "uint256",
          "name": "rewards",
          "type": "uint256"
        }
      ],
      "stateMutability": "view",
      "type": "function"
    },
    {
      "inputs": [],
      "name": "rewardsDuration",
      "outputs": [
        {
          "internalType": "uint256",
          "name": "",
          "type": "uint256"
        }
      ],
      "stateMutability": "view",
      "type": "function"
    },
    {
      "inputs": [
        {
          "internalType": "address",
          "name": "_migrator",
          "type": "address"
        }
      ],
      "name": "setMigrator",
      "outputs": [],
      "stateMutability": "nonpayable",
      "type": "function"
    },
    {
      "inputs": [
        {
          "internalType": "address",
          "name": "what",
          "type": "address"
        }
      ],
      "name": "setRewardDistributor",
      "outputs": [],
      "stateMutability": "nonpayable",
      "type": "function"
    },
    {
      "inputs": [],
      "name": "symbol",
      "outputs": [
        {
          "internalType": "string",
          "name": "",
          "type": "string"
        }
      ],
      "stateMutability": "view",
      "type": "function"
    },
    {
      "inputs": [
        {
          "internalType": "address",
          "name": "who",
          "type": "address"
        }
      ],
      "name": "totalNFTStaked",
      "outputs": [
        {
          "internalType": "uint256",
          "name": "",
          "type": "uint256"
        }
      ],
      "stateMutability": "view",
      "type": "function"
    },
    {
      "inputs": [],
      "name": "totalSupply",
      "outputs": [
        {
          "internalType": "uint256",
          "name": "",
          "type": "uint256"
        }
      ],
      "stateMutability": "view",
      "type": "function"
    },
    {
      "inputs": [],
      "name": "totalVotes",
      "outputs": [
        {
          "internalType": "uint256",
          "name": "",
          "type": "uint256"
        }
      ],
      "stateMutability": "view",
      "type": "function"
    },
    {
      "inputs": [
        {
          "internalType": "address",
          "name": "",
          "type": "address"
        },
        {
          "internalType": "uint256",
          "name": "",
          "type": "uint256"
        }
      ],
      "name": "transfer",
      "outputs": [
        {
          "internalType": "bool",
          "name": "",
          "type": "bool"
        }
      ],
      "stateMutability": "pure",
      "type": "function"
    },
    {
      "inputs": [
        {
          "internalType": "address",
          "name": "",
          "type": "address"
        },
        {
          "internalType": "address",
          "name": "",
          "type": "address"
        },
        {
          "internalType": "uint256",
          "name": "",
          "type": "uint256"
        }
      ],
      "name": "transferFrom",
      "outputs": [
        {
          "internalType": "bool",
          "name": "",
          "type": "bool"
        }
      ],
      "stateMutability": "pure",
      "type": "function"
    },
    {
      "inputs": [
        {
          "internalType": "address",
          "name": "newOwner",
          "type": "address"
        }
      ],
      "name": "transferOwnership",
      "outputs": [],
      "stateMutability": "nonpayable",
      "type": "function"
    },
    {
      "inputs": [
        {
          "internalType": "uint256",
          "name": "tokenId",
          "type": "uint256"
        }
      ],
      "name": "unstakeToken",
      "outputs": [],
      "stateMutability": "nonpayable",
      "type": "function"
    },
    {
      "inputs": [
        {
          "internalType": "contract IERC20",
          "name": "token",
          "type": "address"
        },
        {
          "internalType": "address",
          "name": "who",
          "type": "address"
        }
      ],
      "name": "updateRewards",
      "outputs": [],
      "stateMutability": "nonpayable",
      "type": "function"
    },
    {
      "inputs": [
        {
          "internalType": "contract IERC20",
          "name": "reward",
          "type": "address"
        },
        {
          "internalType": "address",
          "name": "who",
          "type": "address"
        }
      ],
      "name": "userRewardPerTokenPaid",
      "outputs": [
        {
          "internalType": "uint256",
          "name": "",
          "type": "uint256"
        }
      ],
      "stateMutability": "view",
      "type": "function"
    },
    {
      "inputs": [],
      "name": "weth",
      "outputs": [
        {
          "internalType": "contract IERC20",
          "name": "",
          "type": "address"
        }
      ],
      "stateMutability": "view",
      "type": "function"
    }
  ],
  "transactionHash": "0x57ffe8c1509804a6482a9f8ee73e134fec0fb2ae572397c6784358667e90df9e",
  "args": [],
  "numDeployments": 1,
  "solcInputHash": "a0df28a328fa6a13654dd5d0d8a1cc3e",
  "bytecode": "0x608060405234801561001057600080fd5b5061483d806100206000396000f3fe608060405234801561001057600080fd5b506004361061035a5760003560e01c80637cd07e47116101ca578063ab0ed10611610105578063da09d19d116100a8578063da09d19d14610818578063dd62ed3e14610838578063e40b8db51461084b578063e70b9e271461085e578063f01edde014610889578063f1127ed81461089c578063f1229777146108db578063f2fde38b146108ee578063f892c9fc1461090157600080fd5b8063ab0ed10614610771578063ac9650d814610784578063b66503cf146107a4578063bfe10928146107b7578063c3cda520146107ca578063cc193fb0146107dd578063d61a47f1146107fd578063d7b96d4e1461080557600080fd5b806391ddadf41161016d57806391ddadf4146106bd57806395d89b41146106dc5780639ab24eb0146106e45780639ce43f90146106f75780639ee91fea14610717578063a1809b951461072a578063a9059cbb1461073d578063aa8815161461075057600080fd5b80637cd07e47146106285780637ecebe001461063b57806380da63411461064e57806384b0196e1461066157806387c5d8321461067c5780638980f11f1461068f5780638da5cb5b146106a25780638e539e8c146106aa57600080fd5b80633a46b1a81161029a578063638634ee1161023d578063638634ee146105795780636b0916951461058c5780636f28d6881461059f5780636fcfff45146105a75780637035ab98146105cf57806370a08231146105fa578063715018a61461060d5780637bb7bed11461061557600080fd5b80633a46b1a8146104c95780633b624032146104dc5780633fc8cef3146104ef5780634bf5d7e91461050f57806354ac12501461051757806356981ac51461052a578063587cde1e146105535780635c19a95c1461056657600080fd5b8063211dc32d11610302578063211dc32d14610425578063221ca18c1461043857806323b872dd1461045857806323cf31181461046b5780632ce9aead1461047e5780632cfb66881461049e578063313ce567146104b1578063386a9525146104c057600080fd5b8062443d891461035f57806306fdde0314610374578063095ea7b3146103925780630d15fd77146103b55780630e37d36f146103cb578063150b7a02146103de57806318160ddd1461040a5780631fd54bde14610412575b600080fd5b61037261036d366004613d90565b61092a565b005b61037c610aed565b6040516103899190613dfd565b60405180910390f35b6103a56103a0366004613e10565b610b8e565b6040519015158152602001610389565b6103bd610ba8565b604051908152602001610389565b6103726103d9366004613e3c565b610bb7565b6103f16103ec366004613e75565b610bc5565b6040516001600160e01b03199091168152602001610389565b6103bd610bde565b6103bd610420366004613e10565b610bf3565b6103bd610433366004613e3c565b610c24565b6103bd610446366004613d90565b60066020526000908152604090205481565b6103a5610466366004613f13565b610c37565b610372610479366004613d90565b610c7a565b6103bd61048c366004613d90565b60036020526000908152604090205481565b6103726104ac366004613f54565b610ca4565b60405160128152602001610389565b6103bd60075481565b6103bd6104d7366004613e10565b610e5d565b6103726104ea366004613f6d565b610eed565b600954610502906001600160a01b031681565b6040516103899190613f8f565b61037c61109b565b610372610525366004613d90565b611113565b610502610538366004613f54565b600b602052600090815260409020546001600160a01b031681565b610502610561366004613d90565b61116d565b610372610574366004613d90565b61119c565b6103bd610587366004613d90565b6111a7565b61037261059a366004613e3c565b6111cb565b610502611295565b6105ba6105b5366004613d90565b6112c5565b60405163ffffffff9091168152602001610389565b6103bd6105dd366004613e3c565b600260209081526000928352604080842090915290825290205481565b6103bd610608366004613d90565b6112d0565b6103726112fb565b610502610623366004613f54565b61130f565b600e54610502906001600160a01b031681565b6103bd610649366004613d90565b611339565b61037261065c366004613fa3565b611362565b6106696114be565b604051610389979695949392919061401f565b6103bd61068a366004613f54565b611567565b61037261069d366004613e10565b61156f565b61050261162d565b6103bd6106b8366004613f54565b61165b565b6106c56116d4565b60405165ffffffffffff9091168152602001610389565b61037c6116de565b6103bd6106f2366004613d90565b6116fb565b6103bd610705366004613d90565b60056020526000908152604090205481565b610372610725366004613f6d565b61173c565b610372610738366004613d90565b6117ca565b6103a561074b366004613e10565b6117f4565b61076361075e366004613d90565b611833565b60405161038992919061408f565b61037261077f366004613d90565b611a65565b610797610792366004614105565b611abe565b6040516103899190614179565b6103726107b2366004613e10565b611bb0565b600d54610502906001600160a01b031681565b6103726107d83660046141db565b611ea5565b6103bd6107eb366004613f54565b600a6020526000908152604090205481565b610502611f62565b600054610502906001600160a01b031681565b6103bd610826366004613d90565b60046020526000908152604090205481565b6103bd610846366004613e3c565b611f78565b610372610859366004614283565b611fb4565b6103bd61086c366004613e3c565b600160209081526000928352604080842090915290825290205481565b610372610897366004613d90565b6120e9565b6108af6108aa366004614384565b612129565b60408051825165ffffffffffff1681526020928301516001600160d01b03169281019290925201610389565b6103bd6108e9366004613d90565b612147565b6103726108fc366004613d90565b612152565b6103bd61090f366004613d90565b6001600160a01b03166000908152600c602052604090205490565b61093261218d565b600954610948906001600160a01b0316826121d7565b6009546001600160a01b039081166000908152600160209081526040808320938516835292905220548015610ae157600980546001600160a01b03908116600090815260016020908152604080832087851684529091528082209190915591549151632e1a7d4d60e01b815260048101849052911690632e1a7d4d90602401600060405180830381600087803b1580156109e157600080fd5b505af11580156109f5573d6000803e3d6000fd5b505050506000826001600160a01b03168260405160006040518083038185875af1925050503d8060008114610a46576040519150601f19603f3d011682016040523d82523d6000602084013e610a4b565b606091505b5050905080610a935760405162461bcd60e51b815260206004820152600f60248201526e195d1a081cd95b990819985a5b1959608a1b60448201526064015b60405180910390fd5b6009546040516001600160a01b038086169285929116907fe6ac6a784fb43c9f6329d2f5c82f88a26a93bad4281f7780725af5f071f0aafa90610ad7903390613f8f565b60405180910390a4505b50610aea61227d565b50565b60606000610af96122a3565b9050806003018054610b0a906143bb565b80601f0160208091040260200160405190810160405280929190818152602001828054610b36906143bb565b8015610b835780601f10610b5857610100808354040283529160200191610b83565b820191906000526020600020905b815481529060010190602001808311610b6657829003601f168201915b505050505091505090565b600033610b9c8185856122c7565b60019150505b92915050565b6000610bb2610bde565b905090565b610bc182826121d7565b5050565b6000610bd486868686866122d9565b9695505050505050565b600080610be96122a3565b6002015492915050565b600c6020528160005260406000208181548110610c0f57600080fd5b90600052602060002001600091509150505481565b6000610c30838361244b565b9392505050565b60405162461bcd60e51b81526020600482015260156024820152741d1c985b9cd9995c919c9bdb48191a5cd8589b1959605a1b6044820152600090606401610a8a565b610c826124cc565b600e80546001600160a01b0319166001600160a01b0392909216919091179055565b610cad336124fe565b6000818152600b60205260409020546001600160a01b0316610ce15760405162461bcd60e51b8152600401610a8a906143f5565b6000818152600b60205260409020546001600160a01b0316338114610d2a576040516308e6324b60e41b81523360048201526001600160a01b0382166024820152604401610a8a565b6000828152600b6020908152604080832080546001600160a01b0319169055338352600c8252918290208054835181840281018401909452808452610da49392830182828015610d9957602002820191906000526020600020905b815481526020019060010190808311610d85575b5050505050836125ee565b336000908152600c602090815260409091208251610dc89391929190910190613d14565b506000828152600a6020526040902054610de3903390612715565b6000828152600a602052604080822082905590549051632142170760e11b81526001600160a01b03909116906342842e0e90610e2790309033908790600401614417565b600060405180830381600087803b158015610e4157600080fd5b505af1158015610e55573d6000803e3d6000fd5b505050505050565b600080610e6861274b565b90506000610e746116d4565b90508065ffffffffffff168410610eaf57604051637669fc0f60e11b81526004810185905265ffffffffffff82166024820152604401610a8a565b610edb610ebb8561276f565b6001600160a01b03871660009081526001850160205260409020906127a6565b6001600160d01b031695945050505050565b60008111610f0d5760405162461bcd60e51b8152600401610a8a9061443b565b6000828152600b60205260409020546001600160a01b03163314610f435760405162461bcd60e51b8152600401610a8a906143f5565b60008054906101000a90046001600160a01b03166001600160a01b0316636f307dc36040518163ffffffff1660e01b8152600401602060405180830381865afa158015610f94573d6000803e3d6000fd5b505050506040513d601f19601f82011682018060405250810190610fb89190614463565b6001600160a01b03166323b872dd3330846040518463ffffffff1660e01b8152600401610fe793929190614417565b6020604051808303816000875af1158015611006573d6000803e3d6000fd5b505050506040513d601f19601f8201168201806040525081019061102a919061448e565b5060005460405163b2383e5560e01b815260048101849052602481018390526001600160a01b039091169063b2383e55906044015b600060405180830381600087803b15801561107957600080fd5b505af115801561108d573d6000803e3d6000fd5b50505050610bc1338361285c565b60606110a56128c5565b65ffffffffffff166110b56116d4565b65ffffffffffff16146110db576040516301bfc1c560e61b815260040160405180910390fd5b5060408051808201909152601d81527f6d6f64653d626c6f636b6e756d6265722666726f6d3d64656661756c74000000602082015290565b61111b6124cc565b600880546001810182556000919091527ff3f7a9fe364faab93b216da50a3214154f22a0a2b415b23a84c8169e8b636ee30180546001600160a01b0319166001600160a01b0392909216919091179055565b60008061117861274b565b6001600160a01b039384166000908152602091909152604090205490921692915050565b33610bc181836128d0565b6001600160a01b038116600090815260046020526040812054610ba290429061295d565b6111d361218d565b6111dd81836121d7565b6001600160a01b03808216600090815260016020908152604080832093861683529290522054801561128c576001600160a01b03808316600081815260016020908152604080832094881683529390529182209190915561123f908483612973565b826001600160a01b031681836001600160a01b03167fe6ac6a784fb43c9f6329d2f5c82f88a26a93bad4281f7780725af5f071f0aafa336040516112839190613f8f565b60405180910390a45b50610bc161227d565b600060086000815481106112ab576112ab6144ab565b6000918252602090912001546001600160a01b0316919050565b6000610ba2826129cb565b6000806112db6122a3565b6001600160a01b0390931660009081526020939093525050604090205490565b6113036124cc565b61130d60006129fd565b565b6008818154811061131f57600080fd5b6000918252602090912001546001600160a01b0316905081565b6000807f5ab42ced628888259c08ac98db1eb0cf702fc1501344311d8b100cd1bfe4bb006112db565b600e546001600160a01b031633146113a85760405162461bcd60e51b815260206004820152600960248201526810b6b4b3b930ba37b960b91b6044820152606401610a8a565b60004283106113c0576113bb42846144d7565b6113c5565b621275005b60008054604051630a2abdb360e01b815260048101899052602481018490526001600160a01b0386811660448301526001606483015293945091921690630a2abdb3906084016020604051808303816000875af115801561142a573d6000803e3d6000fd5b505050506040513d601f19601f8201168201806040525081019061144e91906144ea565b60005460405163b6cce60960e01b815260048101839052602481018890529192506001600160a01b03169063b6cce60990604401600060405180830381600087803b15801561149c57600080fd5b505af11580156114b0573d6000803e3d6000fd5b50505050610e55338261285c565b60006060806000806000606060006114d4612a6e565b80549091501580156114e857506001810154155b61152c5760405162461bcd60e51b81526020600482015260156024820152741152540dcc4c8e88155b9a5b9a5d1a585b1a5e9959605a1b6044820152606401610a8a565b611534612a92565b61153c612aaf565b60408051600080825260208201909252600f60f81b9c939b5091995046985030975095509350915050565b600081610ba2565b6115776124cc565b816001600160a01b031663a9059cbb61158e61162d565b836040518363ffffffff1660e01b81526004016115ac929190614503565b6020604051808303816000875af11580156115cb573d6000803e3d6000fd5b505050506040513d601f19601f820116820180604052508101906115ef919061448e565b507f8c1256b8896378cd5044f80c202f9772b9d77dc85c8a6eb51967210b09bfaa288282604051611621929190614503565b60405180910390a15050565b7f9016d09d72d40fdae2fd8ceac6b6234c7706214fd39c1cd1e609a0528c199300546001600160a01b031690565b60008061166661274b565b905060006116726116d4565b90508065ffffffffffff1684106116ad57604051637669fc0f60e11b81526004810185905265ffffffffffff82166024820152604401610a8a565b6116c36116b98561276f565b60028401906127a6565b6001600160d01b0316949350505050565b6000610bb26128c5565b606060006116ea6122a3565b9050806004018054610b0a906143bb565b60008061170661274b565b6001600160a01b0384166000908152600182016020526040902090915061172c90612abb565b6001600160d01b03169392505050565b6000811161175c5760405162461bcd60e51b8152600401610a8a9061443b565b6000828152600b60205260409020546001600160a01b031633146117925760405162461bcd60e51b8152600401610a8a906143f5565b600054604051639d507b8b60e01b815260048101849052602481018390526001600160a01b0390911690639d507b8b9060440161105f565b6117d26124cc565b600d80546001600160a01b0319166001600160a01b0392909216919091179055565b60405162461bcd60e51b81526020600482015260116024820152701d1c985b9cd9995c88191a5cd8589b1959607a1b6044820152600090606401610a8a565b6001600160a01b0381166000908152600c6020908152604080832080548251818502810185019093528083526060948594919390929091849083018282801561189b57602002820191906000526020600020905b815481526020019060010190808311611887575b505050505090506000826001600160401b038111156118bc576118bc61423d565b6040519080825280602002602001820160405280156118e5578160200160208202803683370190505b5090506000836001600160401b038111156119025761190261423d565b60405190808252806020026020018201604052801561195e57816020015b61194b6040518060800160405280600081526020016000815260200160008152602001600081525090565b8152602001906001900390816119205790505b50905060005b84811015611a585760005484516001600160a01b039091169063b45a3c0e90869084908110611995576119956144ab565b60200260200101516040518263ffffffff1660e01b81526004016119bb91815260200190565b608060405180830381865afa1580156119d8573d6000803e3d6000fd5b505050506040513d601f19601f820116820180604052508101906119fc919061451c565b828281518110611a0e57611a0e6144ab565b6020026020010181905250838181518110611a2b57611a2b6144ab565b6020026020010151838281518110611a4557611a456144ab565b6020908102919091010152600101611964565b5090969095509350505050565b611a6d61218d565b60005b600854811015610ae157611aac826008600081548110611a9257611a926144ab565b6000918252602090912001546001600160a01b03166111cb565b80611ab681614581565b915050611a70565b604080516000815260208101909152606090826001600160401b03811115611ae857611ae861423d565b604051908082528060200260200182016040528015611b1b57816020015b6060815260200190600190039081611b065790505b50915060005b83811015611ba857611b7830868684818110611b3f57611b3f6144ab565b9050602002810190611b51919061459a565b85604051602001611b64939291906145e7565b604051602081830303815290604052612af4565b838281518110611b8a57611b8a6144ab565b60200260200101819052508080611ba090614581565b915050611b21565b505092915050565b600d546001600160a01b03163314611bf95760405162461bcd60e51b815260206004820152600c60248201526b10b234b9ba3934b13aba37b960a11b6044820152606401610a8a565b611c048260006121d7565b6040516323b872dd60e01b81526001600160a01b038316906323b872dd90611c3490339030908690600401614417565b6020604051808303816000875af1158015611c53573d6000803e3d6000fd5b505050506040513d601f19601f82011682018060405250810190611c77919061448e565b506001600160a01b0382166000908152600460205260409020544210611cc257600754611ca49082614624565b6001600160a01b038316600090815260066020526040902055611d43565b6001600160a01b038216600090815260046020526040812054611ce69042906144d7565b6001600160a01b03841660009081526006602052604081205491925090611d0d9083614646565b600754909150611d1d828561465d565b611d279190614624565b6001600160a01b03851660009081526006602052604090205550505b6040516370a0823160e01b81526000906001600160a01b038416906370a0823190611d72903090600401613f8f565b602060405180830381865afa158015611d8f573d6000803e3d6000fd5b505050506040513d601f19601f82011682018060405250810190611db391906144ea565b905060075481611dc39190614624565b6001600160a01b0384166000908152600660205260409020541115611e1f5760405162461bcd60e51b81526020600482015260126024820152716e6f7420656e6f7567682062616c616e636560701b6044820152606401610a8a565b6001600160a01b03831660009081526003602052604090204290819055600754611e489161465d565b6001600160a01b038416600081815260046020526040908190209290925590518391907f54dba80f86e498df5a2fcdb5c089d051d97ce8ca9ddb708c70da66557a954de790611e98903390613f8f565b60405180910390a3505050565b83421115611ec957604051632341d78760e11b815260048101859052602401610a8a565b604080517fe48329057bfd03d55e49b547132e39cffd9c1820ad7b9d4c5307691425d15adf60208201526001600160a01b038816918101919091526060810186905260808101859052600090611f4390611f3b9060a00160405160208183030381529060405280519060200120612b6a565b858585612b97565b9050611f4f8187612bb9565b611f5981886128d0565b50505050505050565b600060086001815481106112ab576112ab6144ab565b600080611f836122a3565b6001600160a01b03948516600090815260019190910160209081526040808320959096168252939093525050205490565b7ff0c57e16840df040f15088dc2f81fe391c3923bec73e23a9662efc9c229c6a00805460019190600160401b900460ff1680611ffd575080546001600160401b03808416911610155b1561201b5760405163f92ee8a960e01b815260040160405180910390fd5b805468ffffffffffffffffff19166001600160401b03831617600160401b178155604080518082018252601181527026a0a420902b37ba34b733902837bbb2b960791b6020808301919091528251808401909352600683526504d41484176760d41b9083015261208f918a8a8a8a89612c1d565b612098846129fd565b805460ff60401b191681556040516001600160401b03831681527fc7f505b2f371ae2175ee4913f4499e1f2633a7b5936321eed1cdaeb6115181d29060200160405180910390a15050505050505050565b6120f161218d565b612109816008600081548110611a9257611a926144ab565b612121816008600181548110611a9257611a926144ab565b610aea61227d565b6040805180820190915260008082526020820152610c308383612ddb565b6000610ba282612e28565b61215a6124cc565b6001600160a01b038116612184576000604051631e4fbdf760e01b8152600401610a8a9190613f8f565b610aea816129fd565b7f9b779b17422d0df92223018b32b4d1fa46e071723d6817e2486d003becc55f008054600119016121d157604051633ee5aeb560e01b815260040160405180910390fd5b60029055565b6121e082612e28565b6001600160a01b038316600090815260056020526040902055612202826111a7565b6001600160a01b03808416600090815260036020526040902091909155811615610bc157612230828261244b565b6001600160a01b0392831660008181526001602090815260408083209590961680835294815285822093909355908152600582528381205460028352848220938252929091529190912055565b60017f9b779b17422d0df92223018b32b4d1fa46e071723d6817e2486d003becc55f0055565b7f52c63247e1f47db19d5ce0460030c497f067ca4cebf71ba98eeadabe20bace0090565b6122d48383836001612ede565b505050565b600080546001600160a01b031633146123225760405162461bcd60e51b815260206004820152600b60248201526a37b7363c903637b1b5b2b960a91b6044820152606401610a8a565b81156123395761233482840184614670565b509550505b612342856124fe565b6000848152600b6020908152604080832080546001600160a01b0319166001600160a01b038a169081179091558352600c825282208054600181018255908352908220018590556123928661116d565b6001600160a01b0316036123aa576123aa85866128d0565b6000546040516339f890b560e21b81526004810186905261241d916001600160a01b03169063e7e242d4906024015b602060405180830381865afa1580156123f6573d6000803e3d6000fd5b505050506040513d601f19601f8201168201806040525081019061241a91906144ea565b90565b6000858152600a60205260409020819055612439908690612fc3565b50630a85bd0160e11b95945050505050565b6001600160a01b038083166000818152600160209081526040808320948616808452948252808320549383526002825280832094835293905291822054670de0b6b3a76400009061249b86612e28565b6124a591906144d7565b6124ae856112d0565b6124b89190614646565b6124c29190614624565b610c30919061465d565b336124d561162d565b6001600160a01b03161461130d573360405163118cdaa760e01b8152600401610a8a9190613f8f565b60005b600854811015610bc157600060088281548110612520576125206144ab565b6000918252602090912001546001600160a01b0316905061254081612e28565b6001600160a01b038216600090815260056020526040902055612562816111a7565b6001600160a01b038083166000908152600360205260409020919091558316156125db57612590818461244b565b6001600160a01b038083166000818152600160209081526040808320948916808452948252808320959095559181526005825283812054600283528482209382529290915291909120555b50806125e681614581565b915050612501565b81516060906000805b8281101561263f5784868281518110612612576126126144ab565b60200260200101511461262d578161262981614581565b9250505b8061263781614581565b9150506125f7565b506000816001600160401b0381111561265a5761265a61423d565b604051908082528060200260200182016040528015612683578160200160208202803683370190505b5090506000805b8481101561270957868882815181106126a5576126a56144ab565b6020026020010151146126f7578781815181106126c4576126c46144ab565b60200260200101518383815181106126de576126de6144ab565b6020908102919091010152816126f381614581565b9250505b8061270181614581565b91505061268a565b50909695505050505050565b6001600160a01b03821661273f576000604051634b637e8f60e11b8152600401610a8a9190613f8f565b610bc182600083612ff5565b7fe8b26c30fad74198956032a3533d903385d56dd795af560196f9c78d4af40d0090565b600065ffffffffffff8211156127a2576040516306dfcc6560e41b81526030600482015260248101839052604401610a8a565b5090565b8154600090818160058111156128055760006127c18461305b565b6127cb90856144d7565b60008881526020902090915081015465ffffffffffff90811690871610156127f557809150612803565b61280081600161465d565b92505b505b600061281387878585613143565b9050801561284e576128388761282a6001846144d7565b600091825260209091200190565b54600160301b90046001600160d01b0316612851565b60005b979650505050505050565b6000818152600a6020526040902054612876908390612715565b6000546040516339f890b560e21b8152600481018390526128a9916001600160a01b03169063e7e242d4906024016123d9565b6000828152600a60205260409020819055610bc1908390612fc3565b6000610bb24361276f565b60006128da61274b565b905060006128e78461116d565b6001600160a01b0385811660008181526020869052604080822080546001600160a01b031916898616908117909155905194955093928516927f3134e8a2e6d97e929a7e54011ea5485d7d196dd5f0ba4d4ef95803e8e3fc257f9190a46129578184612952876131a5565b6131b0565b50505050565b600081831061296c5781610c30565b5090919050565b6122d483846001600160a01b031663a9059cbb8585604051602401612999929190614503565b604051602081830303815290604052915060e01b6020820180516001600160e01b03838183161783525050505061332d565b6000806129d661274b565b6001600160a01b0384166000908152600182016020526040902054909150610c3090613387565b7f9016d09d72d40fdae2fd8ceac6b6234c7706214fd39c1cd1e609a0528c19930080546001600160a01b031981166001600160a01b03848116918217845560405192169182907f8be0079c531659141344cd1fd0a4f28419497f9722a3daafe3b4186f6b6457e090600090a3505050565b7fa16a46d94261c7517cc8ff89f61c0ce93598e3c849801011dee649a6a557d10090565b60606000612a9e612a6e565b9050806002018054610b0a906143bb565b60606000610af9612a6e565b80546000908015612aeb57612ad58361282a6001846144d7565b54600160301b90046001600160d01b0316610c30565b60009392505050565b6060600080846001600160a01b031684604051612b119190614690565b600060405180830381855af49150503d8060008114612b4c576040519150601f19603f3d011682016040523d82523d6000602084013e612b51565b606091505b5091509150612b618583836133b8565b95945050505050565b6000610ba2612b7761340b565b8360405161190160f01b8152600281019290925260228201526042902090565b600080600080612ba988888888613415565b92509250925061270982826134da565b6001600160a01b03821660009081527f5ab42ced628888259c08ac98db1eb0cf702fc1501344311d8b100cd1bfe4bb00602052604090208054600181019091558181146122d45782816040516301d4b62360e61b8152600401610a8a929190614503565b612c25613593565b612c2e3361359b565b612c366135ac565b612c4087876135bc565b600080546001600160a01b038088166001600160a01b0319928316178355600980548883169084161790556007859055600d8054918516919092161790555b8351811015612ce9576008848281518110612c9c57612c9c6144ab565b60209081029190910181015182546001810184556000938452919092200180546001600160a01b0319166001600160a01b0390921691909117905580612ce181614581565b915050612c7f565b5060008054906101000a90046001600160a01b03166001600160a01b0316636f307dc36040518163ffffffff1660e01b8152600401602060405180830381865afa158015612d3b573d6000803e3d6000fd5b505050506040513d601f19601f82011682018060405250810190612d5f9190614463565b6001600160a01b031663095ea7b3866000196040518363ffffffff1660e01b8152600401612d8e929190614503565b6020604051808303816000875af1158015612dad573d6000803e3d6000fd5b505050506040513d601f19601f82011682018060405250810190612dd1919061448e565b5050505050505050565b60408051808201909152600080825260208201526000612df961274b565b6001600160a01b03851660009081526001820160205260409020909150612e2090846135ce565b949350505050565b6000612e32610bde565b600003612e5557506001600160a01b031660009081526005602052604090205490565b612e5d610bde565b6001600160a01b038316600090815260066020908152604080832054600390925290912054612e8b856111a7565b612e9591906144d7565b612e9f9190614646565b612eb190670de0b6b3a7640000614646565b612ebb9190614624565b6001600160a01b038316600090815260056020526040902054610ba2919061465d565b6000612ee86122a3565b90506001600160a01b038516612f1457600060405163e602df0560e01b8152600401610a8a9190613f8f565b6001600160a01b038416612f3e576000604051634a1406b160e11b8152600401610a8a9190613f8f565b6001600160a01b03808616600090815260018301602090815260408083209388168352929052208390558115612fbc57836001600160a01b0316856001600160a01b03167f8c5be1e5ebec7d5bd14f71427d1e84f3dd0314c0f7b2291e5b200ac8c7c3b92585604051612fb391815260200190565b60405180910390a35b5050505050565b6001600160a01b038216612fed57600060405163ec442f0560e01b8152600401610a8a9190613f8f565b610bc1600083835b61300083838361363e565b6001600160a01b038316613050576000613018610bde565b90506001600160d01b038082111561304d57604051630e58ae9360e11b81526004810183905260248101829052604401610a8a565b50505b6122d4838383613779565b60008160000361306d57506000919050565b6000600161307a846137e8565b901c6001901b905060018184816130935761309361460e565b048201901c905060018184816130ab576130ab61460e565b048201901c905060018184816130c3576130c361460e565b048201901c905060018184816130db576130db61460e565b048201901c905060018184816130f3576130f361460e565b048201901c9050600181848161310b5761310b61460e565b048201901c905060018184816131235761312361460e565b048201901c9050610c308182858161313d5761313d61460e565b0461295d565b60005b8183101561319d57600061315a848461387c565b60008781526020902090915065ffffffffffff86169082015465ffffffffffff16111561318957809250613197565b61319481600161465d565b93505b50613146565b509392505050565b6000610ba2826112d0565b60006131ba61274b565b9050826001600160a01b0316846001600160a01b0316141580156131de5750600082115b15612957576001600160a01b03841615613288576001600160a01b0384166000908152600182016020526040812081906132239061389761321e876138a3565b6138d7565b6001600160d01b031691506001600160d01b03169150856001600160a01b03167fdec2bacdd2f05b59de34da9b523dff8be42e5e38e818c82fdb0bae774387a724838360405161327d929190918252602082015260400190565b60405180910390a250505b6001600160a01b03831615612957576001600160a01b0383166000908152600182016020526040812081906132c39061391061321e876138a3565b6001600160d01b031691506001600160d01b03169150846001600160a01b03167fdec2bacdd2f05b59de34da9b523dff8be42e5e38e818c82fdb0bae774387a724838360405161331d929190918252602082015260400190565b60405180910390a2505050505050565b60006133426001600160a01b0384168361391c565b90508051600014158015613367575080806020019051810190613365919061448e565b155b156122d45782604051635274afe760e01b8152600401610a8a9190613f8f565b600063ffffffff8211156127a2576040516306dfcc6560e41b81526020600482015260248101839052604401610a8a565b6060826133cd576133c88261392a565b610c30565b81511580156133e457506001600160a01b0384163b155b156134045783604051639996b31560e01b8152600401610a8a9190613f8f565b5092915050565b6000610bb2613953565b600080806fa2a8918ca85bafe22016d0b997e4df60600160ff1b0384111561344657506000915060039050826134d0565b604080516000808252602082018084528a905260ff891692820192909252606081018790526080810186905260019060a0016020604051602081039080840390855afa15801561349a573d6000803e3d6000fd5b5050604051601f1901519150506001600160a01b0381166134c6575060009250600191508290506134d0565b9250600091508190505b9450945094915050565b60008260038111156134ee576134ee6146ac565b036134f7575050565b600182600381111561350b5761350b6146ac565b036135295760405163f645eedf60e01b815260040160405180910390fd5b600282600381111561353d5761353d6146ac565b0361355e5760405163fce698f760e01b815260048101829052602401610a8a565b6003826003811115613572576135726146ac565b03610bc1576040516335e2f38360e21b815260048101829052602401610a8a565b61130d6139c7565b6135a36139c7565b610aea81613a10565b6135b46139c7565b61130d613a18565b6135c46139c7565b610bc18282613a20565b6040805180820190915260008082526020820152826000018263ffffffff16815481106135fd576135fd6144ab565b60009182526020918290206040805180820190915291015465ffffffffffff81168252600160301b90046001600160d01b0316918101919091529392505050565b60006136486122a3565b90506001600160a01b038416613677578181600201600082825461366c919061465d565b909155506136e99050565b6001600160a01b038416600090815260208290526040902054828110156136ca5760405163391434e360e21b81526001600160a01b03861660048201526024810182905260448101849052606401610a8a565b6001600160a01b03851660009081526020839052604090209083900390555b6001600160a01b038316613707576002810180548390039055613726565b6001600160a01b03831660009081526020829052604090208054830190555b826001600160a01b0316846001600160a01b03167fddf252ad1be2c89b69c2b068fc378daa952ba7f163c4a11628f55a4df523b3ef8460405161376b91815260200190565b60405180910390a350505050565b600061378361274b565b90506001600160a01b0384166137a9576137a68160020161391061321e856138a3565b50505b6001600160a01b0383166137cd576137ca8160020161389761321e856138a3565b50505b6129576137d98561116d565b6137e28561116d565b846131b0565b600080608083901c156137fd57608092831c92015b604083901c1561380f57604092831c92015b602083901c1561382157602092831c92015b601083901c1561383357601092831c92015b600883901c1561384557600892831c92015b600483901c1561385757600492831c92015b600283901c1561386957600292831c92015b600183901c15610ba25760010192915050565b600061388b6002848418614624565b610c309084841661465d565b6000610c3082846146c2565b60006001600160d01b038211156127a2576040516306dfcc6560e41b815260d0600482015260248101839052604401610a8a565b6000806139036138e56116d4565b6138fb6138f188612abb565b868863ffffffff16565b879190613a51565b915091505b935093915050565b6000610c3082846146e2565b6060610c3083836000613a5f565b80511561393a5780518082602001fd5b604051630a12f52160e11b815260040160405180910390fd5b60007f8b73c3c69bb8fe3d512ecc4cf759cc79239f7b179b0ffacaa9a75d522b39400f61397e613af2565b613986613b59565b60408051602081019490945283019190915260608201524660808201523060a082015260c00160405160208183030381529060405280519060200120905090565b7ff0c57e16840df040f15088dc2f81fe391c3923bec73e23a9662efc9c229c6a0054600160401b900460ff1661130d57604051631afcd79f60e31b815260040160405180910390fd5b61215a6139c7565b61227d6139c7565b613a286139c7565b6000613a326122a3565b905060038101613a428482614748565b50600481016129578382614748565b600080613903858585613b9a565b606081471015613a84573060405163cd78605960e01b8152600401610a8a9190613f8f565b600080856001600160a01b03168486604051613aa09190614690565b60006040518083038185875af1925050503d8060008114613add576040519150601f19603f3d011682016040523d82523d6000602084013e613ae2565b606091505b5091509150610bd48683836133b8565b600080613afd612a6e565b90506000613b09612a92565b805190915015613b2157805160209091012092915050565b81548015613b30579392505050565b7fc5d2460186f7233c927e7db2dcc703c0e500b653ca82273b7bfad8045d85a470935050505090565b600080613b64612a6e565b90506000613b70612aaf565b805190915015613b8857805160209091012092915050565b60018201548015613b30579392505050565b825460009081908015613cb9576000613bb88761282a6001856144d7565b60408051808201909152905465ffffffffffff808216808452600160301b9092046001600160d01b031660208401529192509087161015613c0c57604051632520601d60e01b815260040160405180910390fd5b805165ffffffffffff808816911603613c585784613c2f8861282a6001866144d7565b80546001600160d01b0392909216600160301b0265ffffffffffff909216919091179055613ca9565b6040805180820190915265ffffffffffff80881682526001600160d01b0380881660208085019182528b54600181018d5560008d81529190912094519151909216600160301b029216919091179101555b6020015192508391506139089050565b50506040805180820190915265ffffffffffff80851682526001600160d01b0380851660208085019182528854600181018a5560008a815291822095519251909316600160301b029190931617920191909155905081613908565b828054828255906000526020600020908101928215613d4f579160200282015b82811115613d4f578251825591602001919060010190613d34565b506127a29291505b808211156127a25760008155600101613d57565b6001600160a01b0381168114610aea57600080fd5b8035613d8b81613d6b565b919050565b600060208284031215613da257600080fd5b8135610c3081613d6b565b60005b83811015613dc8578181015183820152602001613db0565b50506000910152565b60008151808452613de9816020860160208601613dad565b601f01601f19169290920160200192915050565b602081526000610c306020830184613dd1565b60008060408385031215613e2357600080fd5b8235613e2e81613d6b565b946020939093013593505050565b60008060408385031215613e4f57600080fd5b8235613e5a81613d6b565b91506020830135613e6a81613d6b565b809150509250929050565b600080600080600060808688031215613e8d57600080fd5b8535613e9881613d6b565b94506020860135613ea881613d6b565b93506040860135925060608601356001600160401b0380821115613ecb57600080fd5b818801915088601f830112613edf57600080fd5b813581811115613eee57600080fd5b896020828501011115613f0057600080fd5b9699959850939650602001949392505050565b600080600060608486031215613f2857600080fd5b8335613f3381613d6b565b92506020840135613f4381613d6b565b929592945050506040919091013590565b600060208284031215613f6657600080fd5b5035919050565b60008060408385031215613f8057600080fd5b50508035926020909101359150565b6001600160a01b0391909116815260200190565b60008060008060808587031215613fb957600080fd5b8435935060208501359250604085013591506060850135613fd981613d6b565b939692955090935050565b600081518084526020808501945080840160005b8381101561401457815187529582019590820190600101613ff8565b509495945050505050565b60ff60f81b8816815260e06020820152600061403e60e0830189613dd1565b82810360408401526140508189613dd1565b606084018890526001600160a01b038716608085015260a0840186905283810360c085015290506140818185613fe4565b9a9950505050505050505050565b600060408083526140a281840186613fe4565b83810360208581019190915285518083528682019282019060005b818110156140f7578451805184528481015185850152868101518785015260609081015190840152938301936080909201916001016140bd565b509098975050505050505050565b6000806020838503121561411857600080fd5b82356001600160401b038082111561412f57600080fd5b818501915085601f83011261414357600080fd5b81358181111561415257600080fd5b8660208260051b850101111561416757600080fd5b60209290920196919550909350505050565b6000602080830181845280855180835260408601915060408160051b870101925083870160005b828110156141ce57603f198886030184526141bc858351613dd1565b945092850192908501906001016141a0565b5092979650505050505050565b60008060008060008060c087890312156141f457600080fd5b86356141ff81613d6b565b95506020870135945060408701359350606087013560ff8116811461422357600080fd5b9598949750929560808101359460a0909101359350915050565b634e487b7160e01b600052604160045260246000fd5b604051601f8201601f191681016001600160401b038111828210171561427b5761427b61423d565b604052919050565b60008060008060008060c0878903121561429c57600080fd5b86356142a781613d6b565b95506020878101356142b881613d6b565b955060408801356001600160401b03808211156142d457600080fd5b818a0191508a601f8301126142e857600080fd5b8135818111156142fa576142fa61423d565b8060051b915061430b848301614253565b818152918301840191848101908d84111561432557600080fd5b938501935b8385101561434f578435925061433f83613d6b565b828252938501939085019061432a565b98505050506060890135945061436a91505060808801613d80565b915061437860a08801613d80565b90509295509295509295565b6000806040838503121561439757600080fd5b82356143a281613d6b565b9150602083013563ffffffff81168114613e6a57600080fd5b600181811c908216806143cf57607f821691505b6020821081036143ef57634e487b7160e01b600052602260045260246000fd5b50919050565b602080825260089082015267085d1bdad95b925960c21b604082015260600190565b6001600160a01b039384168152919092166020820152604081019190915260600190565b6020808252600e908201526d085b995dd31bd8dad05b5bdd5b9d60921b604082015260600190565b60006020828403121561447557600080fd5b8151610c3081613d6b565b8015158114610aea57600080fd5b6000602082840312156144a057600080fd5b8151610c3081614480565b634e487b7160e01b600052603260045260246000fd5b634e487b7160e01b600052601160045260246000fd5b81810381811115610ba257610ba26144c1565b6000602082840312156144fc57600080fd5b5051919050565b6001600160a01b03929092168252602082015260400190565b60006080828403121561452e57600080fd5b604051608081018181106001600160401b03821117156145505761455061423d565b8060405250825181526020830151602082015260408301516040820152606083015160608201528091505092915050565b600060018201614593576145936144c1565b5060010190565b6000808335601e198436030181126145b157600080fd5b8301803591506001600160401b038211156145cb57600080fd5b6020019150368190038213156145e057600080fd5b9250929050565b828482376000838201600081528351614604818360208801613dad565b0195945050505050565b634e487b7160e01b600052601260045260246000fd5b60008261464157634e487b7160e01b600052601260045260246000fd5b500490565b8082028115828204841417610ba257610ba26144c1565b80820180821115610ba257610ba26144c1565b60008060006060848603121561468557600080fd5b8335613f3381614480565b600082516146a2818460208701613dad565b9190910192915050565b634e487b7160e01b600052602160045260246000fd5b6001600160d01b03828116828216039080821115613404576134046144c1565b6001600160d01b03818116838216019080821115613404576134046144c1565b601f8211156122d457600081815260208120601f850160051c810160208610156147295750805b601f850160051c820191505b81811015610e5557828155600101614735565b81516001600160401b038111156147615761476161423d565b6147758161476f84546143bb565b84614702565b602080601f8311600181146147aa57600084156147925750858301515b600019600386901b1c1916600185901b178555610e55565b600085815260208120601f198616915b828110156147d9578886015182559484019460019091019084016147ba565b50858210156147f75787850151600019600388901b60f8161c191681555b5050505050600190811b0190555056fea2646970667358221220248598b18702b48658c0ff485ead56c819c8c4bd4a706cfde189f5fc4d27074664736f6c63430008150033",
  "devdoc": {
    "errors": {
      "AddressEmptyCode(address)": [
        {
          "details": "There's no code at `target` (it is not a contract)."
        }
      ],
      "AddressInsufficientBalance(address)": [
        {
          "details": "The ETH balance of the account is not enough to perform the operation."
        }
      ],
      "CheckpointUnorderedInsertion()": [
        {
          "details": "A value was attempted to be inserted on a past checkpoint."
        }
      ],
      "ECDSAInvalidSignature()": [
        {
          "details": "The signature derives the `address(0)`."
        }
      ],
      "ECDSAInvalidSignatureLength(uint256)": [
        {
          "details": "The signature has an invalid length."
        }
      ],
      "ECDSAInvalidSignatureS(bytes32)": [
        {
          "details": "The signature has an S value that is in the upper half order."
        }
      ],
      "ERC20ExceededSafeSupply(uint256,uint256)": [
        {
          "details": "Total supply cap has been exceeded, introducing a risk of votes overflowing."
        }
      ],
      "ERC20InsufficientAllowance(address,uint256,uint256)": [
        {
          "details": "Indicates a failure with the `spender`s `allowance`. Used in transfers.",
          "params": {
            "allowance": "Amount of tokens a `spender` is allowed to operate with.",
            "needed": "Minimum amount required to perform a transfer.",
            "spender": "Address that may be allowed to operate on tokens without being their owner."
          }
        }
      ],
      "ERC20InsufficientBalance(address,uint256,uint256)": [
        {
          "details": "Indicates an error related to the current `balance` of a `sender`. Used in transfers.",
          "params": {
            "balance": "Current balance for the interacting account.",
            "needed": "Minimum amount required to perform a transfer.",
            "sender": "Address whose tokens are being transferred."
          }
        }
      ],
      "ERC20InvalidApprover(address)": [
        {
          "details": "Indicates a failure with the `approver` of a token to be approved. Used in approvals.",
          "params": {
            "approver": "Address initiating an approval operation."
          }
        }
      ],
      "ERC20InvalidReceiver(address)": [
        {
          "details": "Indicates a failure with the token `receiver`. Used in transfers.",
          "params": {
            "receiver": "Address to which tokens are being transferred."
          }
        }
      ],
      "ERC20InvalidSender(address)": [
        {
          "details": "Indicates a failure with the token `sender`. Used in transfers.",
          "params": {
            "sender": "Address whose tokens are being transferred."
          }
        }
      ],
      "ERC20InvalidSpender(address)": [
        {
          "details": "Indicates a failure with the `spender` to be approved. Used in approvals.",
          "params": {
            "spender": "Address that may be allowed to operate on tokens without being their owner."
          }
        }
      ],
      "ERC5805FutureLookup(uint256,uint48)": [
        {
          "details": "Lookup to future votes is not available."
        }
      ],
      "ERC6372InconsistentClock()": [
        {
          "details": "The clock was incorrectly modified."
        }
      ],
      "FailedInnerCall()": [
        {
          "details": "A call to an address target failed. The target may have reverted."
        }
      ],
      "InvalidAccountNonce(address,uint256)": [
        {
          "details": "The nonce used for an `account` is not the expected current nonce."
        }
      ],
      "InvalidInitialization()": [
        {
          "details": "The contract is already initialized."
        }
      ],
      "NotInitializing()": [
        {
          "details": "The contract is not initializing."
        }
      ],
      "OwnableInvalidOwner(address)": [
        {
          "details": "The owner is not a valid owner account. (eg. `address(0)`)"
        }
      ],
      "OwnableUnauthorizedAccount(address)": [
        {
          "details": "The caller account is not authorized to perform an operation."
        }
      ],
      "ReentrancyGuardReentrantCall()": [
        {
          "details": "Unauthorized reentrant call."
        }
      ],
      "SafeCastOverflowedUintDowncast(uint8,uint256)": [
        {
          "details": "Value doesn't fit in an uint of `bits` size."
        }
      ],
      "SafeERC20FailedOperation(address)": [
        {
          "details": "An operation with an ERC20 token failed."
        }
      ],
      "VotesExpiredSignature(uint256)": [
        {
          "details": "The signature used has expired."
        }
      ]
    },
    "events": {
      "Approval(address,address,uint256)": {
        "details": "Emitted when the allowance of a `spender` for an `owner` is set by a call to {approve}. `value` is the new allowance."
      },
      "DelegateChanged(address,address,address)": {
        "details": "Emitted when an account changes their delegate."
      },
      "DelegateVotesChanged(address,uint256,uint256)": {
        "details": "Emitted when a token transfer or delegate change results in changes to a delegate's number of voting units."
      },
      "EIP712DomainChanged()": {
        "details": "MAY be emitted to signal that the domain could have changed."
      },
      "Initialized(uint64)": {
        "details": "Triggered when the contract has been initialized or reinitialized."
      },
      "Transfer(address,address,uint256)": {
        "details": "Emitted when `value` tokens are moved from one account (`from`) to another (`to`). Note that `value` may be zero."
      }
    },
    "kind": "dev",
    "methods": {
      "CLOCK_MODE()": {
        "details": "Machine-readable description of the clock as specified in EIP-6372."
      },
      "allowance(address,address)": {
        "details": "See {IERC20-allowance}."
      },
      "approve(address,uint256)": {
        "details": "See {IERC20-approve}. NOTE: If `value` is the maximum `uint256`, the allowance is not updated on `transferFrom`. This is semantically equivalent to an infinite approval. Requirements: - `spender` cannot be the zero address."
      },
      "balanceOf(address)": {
        "details": "See {IERC20-balanceOf}."
      },
      "checkpoints(address,uint32)": {
        "details": "Get the `pos`-th checkpoint for `account`."
      },
      "clock()": {
        "details": "Clock used for flagging checkpoints. Can be overridden to implement timestamp based checkpoints (and voting), in which case {CLOCK_MODE} should be overridden as well to match."
      },
      "decimals()": {
        "details": "Returns the number of decimals used to get its user representation. For example, if `decimals` equals `2`, a balance of `505` tokens should be displayed to a user as `5.05` (`505 / 10 ** 2`). Tokens usually opt for a value of 18, imitating the relationship between Ether and Wei. This is the default value returned by this function, unless it's overridden. NOTE: This information is only used for _display_ purposes: it in no way affects any of the arithmetic of the contract, including {IERC20-balanceOf} and {IERC20-transfer}."
      },
      "delegate(address)": {
        "details": "Delegates votes from the sender to `delegatee`."
      },
      "delegateBySig(address,uint256,uint256,uint8,bytes32,bytes32)": {
        "details": "Delegates votes from signer to `delegatee`."
      },
      "delegates(address)": {
        "details": "Returns the delegate that `account` has chosen."
      },
      "earned(address,address)": {
        "details": "It adds to the rewards the amount of reward earned since last time that is the difference in reward per token from now and last time multiplied by the number of tokens staked by the person",
        "params": {
          "account": "The account for which the rewards are earned",
          "token": "The token for which the rewards are earned"
        },
        "returns": {
          "_0": "How much a given account earned rewards"
        }
      },
      "eip712Domain()": {
        "details": "See {IERC-5267}."
      },
      "getLockedNftDetails(address)": {
        "params": {
          "_user": "The address of the user."
        },
        "returns": {
          "_0": "lockedTokenIds The array of locked NFT IDs.",
          "_1": "tokenDetails The array of locked NFT details."
        }
      },
      "getPastTotalSupply(uint256)": {
        "details": "Returns the total supply of votes available at a specific moment in the past. If the `clock()` is configured to use block numbers, this will return the value at the end of the corresponding block. NOTE: This value is the sum of all available votes, which is not necessarily the sum of all delegated votes. Votes that have not been delegated are still part of total supply, even though they would not participate in a vote. Requirements: - `timepoint` must be in the past. If operating using block numbers, the block must be already mined."
      },
      "getPastVotes(address,uint256)": {
        "details": "Returns the amount of votes that `account` had at a specific moment in the past. If the `clock()` is configured to use block numbers, this will return the value at the end of the corresponding block. Requirements: - `timepoint` must be in the past. If operating using block numbers, the block must be already mined."
      },
      "getReward(address,address)": {
        "params": {
          "token": "The token for which the rewards are paid",
          "who": "The account for which the rewards are paid"
        }
      },
      "getRewardDual(address)": {
        "params": {
          "who": "The account for which the rewards are paid"
        }
      },
      "getRewardETH(address)": {
        "details": "This is an ETH variant of the get rewards function. It unwraps the token and sends out raw ETH to the user."
      },
      "getTokenPower(uint256)": {
        "params": {
          "amount": "The amount of tokens to give voting power for."
        }
      },
      "getVotes(address)": {
        "details": "Returns the current amount of votes that `account` has."
      },
      "increaseLockAmount(uint256,uint256)": {
        "params": {
          "newLockAmount": "The new lock amount in tokens.",
          "tokenId": "The ID of the NFT for which to update the lock amount."
        }
      },
      "increaseLockDuration(uint256,uint256)": {
        "params": {
          "newLockDuration": "The new lock duration in seconds.",
          "tokenId": "The ID of the NFT for which to update the lock duration."
        }
      },
      "lastTimeRewardApplicable(address)": {
        "details": "Returns the current timestamp if a reward is being distributed and the end of the staking period if staking is done",
        "params": {
          "token": "The token for which the last time reward applicable is requested"
        }
      },
      "multicall(bytes[])": {
        "custom:oz-upgrades-unsafe-allow-reachable": "delegatecall",
        "details": "Receives and executes a batch of function calls on this contract."
      },
      "name()": {
        "details": "Returns the name of the token."
      },
      "nonces(address)": {
        "details": "Returns the next unused nonce for an address."
      },
      "notifyRewardAmount(address,uint256)": {
        "params": {
          "reward": "Amount of reward tokens to distribute",
          "token": "The token for which the rewards are added"
        }
      },
      "numCheckpoints(address)": {
        "details": "Get number of checkpoints for `account`."
      },
      "onERC721Received(address,address,uint256,bytes)": {
        "params": {
          "data": "Additional data.",
          "from": "The address sending the ERC721 token.",
          "tokenId": "The ID of the ERC721 token."
        },
        "returns": {
          "_0": "ERC721 onERC721Received selector."
        }
      },
      "owner()": {
        "details": "Returns the address of the current owner."
      },
      "recoverERC20(address,uint256)": {
        "details": "Admin function to recover ERC20 tokens sent to this contract.",
        "params": {
          "tokenAddress": "The address of the ERC20 token to recover.",
          "tokenAmount": "The amount of tokens to recover."
        }
      },
      "renounceOwnership()": {
        "details": "Leaves the contract without owner. It will not be possible to call `onlyOwner` functions. Can only be called by the current owner. NOTE: Renouncing ownership will leave the contract without an owner, thereby disabling any functionality that is only available to the owner."
      },
      "rewardPerToken(address)": {
        "details": "It adds to the reward per token: the time elapsed since the `rewardPerTokenStored` was last updated multiplied by the `rewardRate` divided by the number of tokens",
        "params": {
          "token": "The token for which the reward per token is updated"
        }
      },
      "setRewardDistributor(address)": {
        "params": {
          "what": "The new address for the rewards distributor"
        }
      },
      "symbol()": {
        "details": "Returns the symbol of the token, usually a shorter version of the name."
      },
      "totalNFTStaked(address)": {
        "params": {
          "who": "The address of the user."
        }
      },
      "totalSupply()": {
        "details": "See {IERC20-totalSupply}."
      },
      "transfer(address,uint256)": {
        "details": "Prevents transfers of voting power."
      },
      "transferFrom(address,address,uint256)": {
        "details": "Prevents transfers of voting power."
      },
      "transferOwnership(address)": {
        "details": "Transfers ownership of the contract to a new account (`newOwner`). Can only be called by the current owner."
      },
      "unstakeToken(uint256)": {
        "params": {
          "tokenId": "The ID of the regular token NFT to unstake."
        }
      },
      "updateRewards(address,address)": {
        "params": {
          "token": "The token for which the rewards are updated",
          "who": "The account for which the rewards are updated"
        }
      }
    },
    "version": 1
  },
  "userdoc": {
    "kind": "user",
    "methods": {
      "distributor()": {
        "notice": "The address of the rewards distributor."
      },
      "earned(address,address)": {
        "notice": "Returns how much a given account earned rewards"
      },
      "getLockedNftDetails(address)": {
        "notice": "Gets the details of locked NFTs for a given user."
      },
      "getReward(address,address)": {
        "notice": "Triggers a payment of the reward earned to the msg.sender"
      },
      "getRewardDual(address)": {
        "notice": "Triggers a payment of the rewards earned for both tokens"
      },
      "getTokenPower(uint256)": {
        "notice": "Returns how much max voting power this locker will give out for the given amount of tokens. This varies for the instance of locker."
      },
      "increaseLockAmount(uint256,uint256)": {
        "notice": "Updates the lock amount for a specific NFT."
      },
      "increaseLockDuration(uint256,uint256)": {
        "notice": "Updates the lock duration for a specific NFT."
      },
      "lastTimeRewardApplicable(address)": {
        "notice": "Queries the last timestamp at which a reward was distributed"
      },
      "lastUpdateTime(address)": {
        "notice": "Last time `rewardPerTokenStored` was updated"
      },
      "lockedByToken(uint256)": {
        "notice": "used to keep track of ownership of token lockers"
      },
      "locker()": {
        "notice": "The address of the locker contract."
      },
      "notifyRewardAmount(address,uint256)": {
        "notice": "Adds rewards to be distributed"
      },
      "onERC721Received(address,address,uint256,bytes)": {
        "notice": "Receives an ERC721 token from the lockers and grants voting power accordingly."
      },
      "periodFinish(address)": {
        "notice": "Gets the period finish for a reward token"
      },
      "power(uint256)": {
        "notice": "How much voting power a given NFT ID has."
      },
      "rewardPerToken(address)": {
        "notice": "Used to actualize the `rewardPerTokenStored`"
      },
      "rewardPerTokenStored(address)": {
        "notice": "Helps to compute the amount earned by someone. Cumulates rewards accumulated for one token since the beginning. Stored as a uint so it is actually a float times the base of the reward token"
      },
      "rewardRate(address)": {
        "notice": "Reward per second given to the staking contract, split among the staked tokens"
      },
      "rewardToken1()": {
        "notice": "Gets the first reward token for which the rewards are distributed"
      },
      "rewardToken2()": {
        "notice": "Gets the second reward token for which the rewards are distributed"
      },
      "rewardTokens(uint256)": {
        "notice": "The reward tokens for the staking contract"
      },
      "rewards(address,address)": {
        "notice": "Stores for each account the accumulated rewards"
      },
      "rewardsDuration()": {
        "notice": "Duration of the reward distribution"
      },
      "setRewardDistributor(address)": {
        "notice": "Admin only function to set the rewards distributor"
      },
      "totalNFTStaked(address)": {
        "notice": "The total number of NFTs staked in this contract for a user"
      },
      "totalVotes()": {
        "notice": "The total number of votes in this contract"
      },
      "unstakeToken(uint256)": {
        "notice": "Unstakes a regular token NFT and transfers it back to the user."
      },
      "updateRewards(address,address)": {
        "notice": "Updates the rewards for an account"
      },
      "userRewardPerTokenPaid(address,address)": {
        "notice": "Stores for each account the `rewardPerToken`: we do the difference between the current and the old value to compute what has been earned by an account"
      },
      "weth()": {
        "notice": "The address of the WETH token."
      }
    },
    "version": 1
  },
  "storageLayout": {
    "storage": [
      {
        "astId": 32156,
        "contract": "contracts/governance/locker/staking/OmnichainStakingToken.sol:OmnichainStakingToken",
        "label": "locker",
        "offset": 0,
        "slot": "0",
        "type": "t_contract(ILocker)36327"
      },
      {
        "astId": 32164,
        "contract": "contracts/governance/locker/staking/OmnichainStakingToken.sol:OmnichainStakingToken",
        "label": "rewards",
        "offset": 0,
        "slot": "1",
        "type": "t_mapping(t_contract(IERC20)15836,t_mapping(t_address,t_uint256))"
      },
      {
        "astId": 32172,
        "contract": "contracts/governance/locker/staking/OmnichainStakingToken.sol:OmnichainStakingToken",
        "label": "userRewardPerTokenPaid",
        "offset": 0,
        "slot": "2",
        "type": "t_mapping(t_contract(IERC20)15836,t_mapping(t_address,t_uint256))"
      },
      {
        "astId": 32178,
        "contract": "contracts/governance/locker/staking/OmnichainStakingToken.sol:OmnichainStakingToken",
        "label": "lastUpdateTime",
        "offset": 0,
        "slot": "3",
        "type": "t_mapping(t_contract(IERC20)15836,t_uint256)"
      },
      {
        "astId": 32184,
        "contract": "contracts/governance/locker/staking/OmnichainStakingToken.sol:OmnichainStakingToken",
        "label": "periodFinish",
        "offset": 0,
        "slot": "4",
        "type": "t_mapping(t_contract(IERC20)15836,t_uint256)"
      },
      {
        "astId": 32190,
        "contract": "contracts/governance/locker/staking/OmnichainStakingToken.sol:OmnichainStakingToken",
        "label": "rewardPerTokenStored",
        "offset": 0,
        "slot": "5",
        "type": "t_mapping(t_contract(IERC20)15836,t_uint256)"
      },
      {
        "astId": 32196,
        "contract": "contracts/governance/locker/staking/OmnichainStakingToken.sol:OmnichainStakingToken",
        "label": "rewardRate",
        "offset": 0,
        "slot": "6",
        "type": "t_mapping(t_contract(IERC20)15836,t_uint256)"
      },
      {
        "astId": 32199,
        "contract": "contracts/governance/locker/staking/OmnichainStakingToken.sol:OmnichainStakingToken",
        "label": "rewardsDuration",
        "offset": 0,
        "slot": "7",
        "type": "t_uint256"
      },
      {
        "astId": 32204,
        "contract": "contracts/governance/locker/staking/OmnichainStakingToken.sol:OmnichainStakingToken",
        "label": "rewardTokens",
        "offset": 0,
        "slot": "8",
        "type": "t_array(t_contract(IERC20)15836)dyn_storage"
      },
      {
        "astId": 32208,
        "contract": "contracts/governance/locker/staking/OmnichainStakingToken.sol:OmnichainStakingToken",
        "label": "weth",
        "offset": 0,
        "slot": "9",
        "type": "t_contract(IERC20)15836"
      },
      {
        "astId": 32213,
        "contract": "contracts/governance/locker/staking/OmnichainStakingToken.sol:OmnichainStakingToken",
        "label": "power",
        "offset": 0,
        "slot": "10",
        "type": "t_mapping(t_uint256,t_uint256)"
      },
      {
        "astId": 32218,
        "contract": "contracts/governance/locker/staking/OmnichainStakingToken.sol:OmnichainStakingToken",
        "label": "lockedByToken",
        "offset": 0,
        "slot": "11",
        "type": "t_mapping(t_uint256,t_address)"
      },
      {
        "astId": 32223,
        "contract": "contracts/governance/locker/staking/OmnichainStakingToken.sol:OmnichainStakingToken",
        "label": "lockedTokenIdNfts",
        "offset": 0,
        "slot": "12",
        "type": "t_mapping(t_address,t_array(t_uint256)dyn_storage)"
      },
      {
        "astId": 32226,
        "contract": "contracts/governance/locker/staking/OmnichainStakingToken.sol:OmnichainStakingToken",
        "label": "distributor",
        "offset": 0,
        "slot": "13",
        "type": "t_address"
      },
      {
        "astId": 33697,
        "contract": "contracts/governance/locker/staking/OmnichainStakingToken.sol:OmnichainStakingToken",
        "label": "migrator",
        "offset": 0,
        "slot": "14",
        "type": "t_address"
      }
    ],
    "types": {
      "t_address": {
        "encoding": "inplace",
        "label": "address",
        "numberOfBytes": "20"
      },
      "t_array(t_contract(IERC20)15836)dyn_storage": {
        "base": "t_contract(IERC20)15836",
        "encoding": "dynamic_array",
        "label": "contract IERC20[]",
        "numberOfBytes": "32"
      },
      "t_array(t_uint256)dyn_storage": {
        "base": "t_uint256",
        "encoding": "dynamic_array",
        "label": "uint256[]",
        "numberOfBytes": "32"
      },
      "t_contract(IERC20)15836": {
        "encoding": "inplace",
        "label": "contract IERC20",
        "numberOfBytes": "20"
      },
      "t_contract(ILocker)36327": {
        "encoding": "inplace",
        "label": "contract ILocker",
        "numberOfBytes": "20"
      },
      "t_mapping(t_address,t_array(t_uint256)dyn_storage)": {
        "encoding": "mapping",
        "key": "t_address",
        "label": "mapping(address => uint256[])",
        "numberOfBytes": "32",
        "value": "t_array(t_uint256)dyn_storage"
      },
      "t_mapping(t_address,t_uint256)": {
        "encoding": "mapping",
        "key": "t_address",
        "label": "mapping(address => uint256)",
        "numberOfBytes": "32",
        "value": "t_uint256"
      },
      "t_mapping(t_contract(IERC20)15836,t_mapping(t_address,t_uint256))": {
        "encoding": "mapping",
        "key": "t_contract(IERC20)15836",
        "label": "mapping(contract IERC20 => mapping(address => uint256))",
        "numberOfBytes": "32",
        "value": "t_mapping(t_address,t_uint256)"
      },
      "t_mapping(t_contract(IERC20)15836,t_uint256)": {
        "encoding": "mapping",
        "key": "t_contract(IERC20)15836",
        "label": "mapping(contract IERC20 => uint256)",
        "numberOfBytes": "32",
        "value": "t_uint256"
      },
      "t_mapping(t_uint256,t_address)": {
        "encoding": "mapping",
        "key": "t_uint256",
        "label": "mapping(uint256 => address)",
        "numberOfBytes": "32",
        "value": "t_address"
      },
      "t_mapping(t_uint256,t_uint256)": {
        "encoding": "mapping",
        "key": "t_uint256",
        "label": "mapping(uint256 => uint256)",
        "numberOfBytes": "32",
        "value": "t_uint256"
      },
      "t_uint256": {
        "encoding": "inplace",
        "label": "uint256",
        "numberOfBytes": "32"
      }
    }
  }
}