{
  "address": "0x1bC8d0b4CaAC1Fc95C8564897A0DE2bAeE40dCda",
  "abi": [
    {
      "inputs": [
        {
          "internalType": "address",
          "name": "_maha",
          "type": "address"
        },
        {
          "internalType": "address",
          "name": "_zai",
          "type": "address"
        },
        {
          "internalType": "address",
          "name": "_usdc",
          "type": "address"
        }
      ],
      "stateMutability": "nonpayable",
      "type": "constructor"
    },
    {
      "inputs": [
        {
          "internalType": "address",
          "name": "_stakingPool",
          "type": "address"
        },
        {
          "internalType": "uint256",
          "name": "_mahaPriceE8",
          "type": "uint256"
        },
        {
          "internalType": "address",
          "name": "_who",
          "type": "address"
        }
      ],
      "name": "getPoolInfo",
      "outputs": [
        {
          "components": [
            {
              "internalType": "uint256",
              "name": "mahaAprE8",
              "type": "uint256"
            },
            {
              "internalType": "uint256",
              "name": "mahaRewardsPerYearE18",
              "type": "uint256"
            },
            {
              "internalType": "uint256",
              "name": "mahaTotalSupply",
              "type": "uint256"
            },
            {
              "internalType": "uint256",
              "name": "mahaUserBalance",
              "type": "uint256"
            },
            {
              "internalType": "uint256",
              "name": "poolUsdTVLE8",
              "type": "uint256"
            },
            {
              "internalType": "uint256",
              "name": "usdcAprE8",
              "type": "uint256"
            },
            {
              "internalType": "uint256",
              "name": "usdcRewardsPerYearE6",
              "type": "uint256"
            },
            {
              "internalType": "uint256",
              "name": "usdcTotalSupply",
              "type": "uint256"
            },
            {
              "internalType": "uint256",
              "name": "usdcUserBalance",
              "type": "uint256"
            },
            {
              "internalType": "uint256",
              "name": "userShareE18",
              "type": "uint256"
            },
            {
              "internalType": "uint256",
              "name": "zaiTotalSupply",
              "type": "uint256"
            },
            {
              "internalType": "uint256",
              "name": "zaiUserBalance",
              "type": "uint256"
            }
          ],
          "internalType": "struct PoolUIHelper.PoolInfoResponse",
          "name": "res",
          "type": "tuple"
        }
      ],
      "stateMutability": "view",
      "type": "function"
    }
  ],
  "transactionHash": "0xaf79970c300499eb5cd6a55092d49af20267099b701933fd7994ab2d2583acd3",
  "args": [
    "0x554bba833518793056CF105E66aBEA330672c0dE",
    "0x0A27E060C0406f8Ab7B64e3BEE036a37e5a62853",
    "0x833589fcd6edb6e08f4c7c32d4f71b54bda02913"
  ],
  "numDeployments": 1,
  "solcInputHash": "76824f13995f88204cdc4c9579fb25ab",
  "bytecode": "0x608060405234801561001057600080fd5b5060405161086c38038061086c83398101604081905261002f9161008d565b600080546001600160a01b039485166001600160a01b0319918216179091556001805493851693821693909317909255600280549190931691161790556100d0565b80516001600160a01b038116811461008857600080fd5b919050565b6000806000606084860312156100a257600080fd5b6100ab84610071565b92506100b960208501610071565b91506100c760408501610071565b90509250925092565b61078d806100df6000396000f3fe608060405234801561001057600080fd5b506004361061002b5760003560e01c8063871b3a8114610030575b600080fd5b61004361003e366004610670565b6100d4565b6040516100cb9190815181526020808301519082015260408083015190820152606080830151908201526080808301519082015260a0808301519082015260c0808301519082015260e0808301519082015261010080830151908201526101208083015190820152610140808301519082015261016091820151918101919091526101800190565b60405180910390f35b6101386040518061018001604052806000815260200160008152602001600081526020016000815260200160008152602001600081526020016000815260200160008152602001600081526020016000815260200160008152602001600081525090565b600084905060008590506000866001600160a01b03166338d52e0f6040518163ffffffff1660e01b8152600401602060405180830381865afa158015610182573d6000803e3d6000fd5b505050506040513d601f19601f820116820180604052508101906101a691906106b2565b6000546040516370a0823160e01b81526001600160a01b0380841660048301529293509116906370a0823190602401602060405180830381865afa1580156101f2573d6000803e3d6000fd5b505050506040513d601f19601f8201168201806040525081019061021691906106d6565b60408581019190915260015490516370a0823160e01b81526001600160a01b038381166004830152909116906370a0823190602401602060405180830381865afa158015610268573d6000803e3d6000fd5b505050506040513d601f19601f8201168201806040525081019061028c91906106d6565b6101408501526002546040516370a0823160e01b81526001600160a01b038381166004830152909116906370a0823190602401602060405180830381865afa1580156102dc573d6000803e3d6000fd5b505050506040513d601f19601f8201168201806040525081019061030091906106d6565b60e085018190526101408501516402540be400916103239064e8d4a51000610705565b6305f5e1008988604001516103389190610705565b6103429190610722565b61034c9190610744565b6103569190610744565b6103609190610722565b8460800181815250506000826001600160a01b03166318160ddd6040518163ffffffff1660e01b8152600401602060405180830381865afa1580156103a9573d6000803e3d6000fd5b505050506040513d601f19601f820116820180604052508101906103cd91906106d6565b90508015610463576040516370a0823160e01b81526001600160a01b0387811660048301528291908516906370a0823190602401602060405180830381865afa15801561041e573d6000803e3d6000fd5b505050506040513d601f19601f8201168201806040525081019061044291906106d6565b61045490670de0b6b3a7640000610705565b61045e9190610722565b610466565b60005b61012086018190526040860151670de0b6b3a76400009161048691610705565b6104909190610722565b606086015261012085015160e0860151670de0b6b3a7640000916104b391610705565b6104bd9190610722565b610100860152610120850151610140860151670de0b6b3a7640000916104e291610705565b6104ec9190610722565b610160860152600054604051630887286360e21b81526001600160a01b0391821660048201529085169063221ca18c90602401602060405180830381865afa15801561053c573d6000803e3d6000fd5b505050506040513d601f19601f8201168201806040525081019061056091906106d6565b61056e906301e13380610705565b6020860152600254604051630887286360e21b81526001600160a01b0391821660048201529085169063221ca18c90602401602060405180830381865afa1580156105bd573d6000803e3d6000fd5b505050506040513d601f19601f820116820180604052508101906105e191906106d6565b6105ef906301e13380610705565b60c08601526080850151610608906402540be400610705565b8786602001516106189190610705565b6106229190610722565b8552608085015160c086015161063d906402540be400610705565b6106479190610722565b60a086015250929695505050505050565b6001600160a01b038116811461066d57600080fd5b50565b60008060006060848603121561068557600080fd5b833561069081610658565b92506020840135915060408401356106a781610658565b809150509250925092565b6000602082840312156106c457600080fd5b81516106cf81610658565b9392505050565b6000602082840312156106e857600080fd5b5051919050565b634e487b7160e01b600052601160045260246000fd5b808202811582820484141761071c5761071c6106ef565b92915050565b60008261073f57634e487b7160e01b600052601260045260246000fd5b500490565b8082018082111561071c5761071c6106ef56fea2646970667358221220b16b85d854b7c6dd555df491e5ee608de406136971d8386eeb56f1d5230c2d2364736f6c63430008150033",
  "devdoc": {
    "kind": "dev",
    "methods": {},
    "version": 1
  },
  "userdoc": {
    "kind": "user",
    "methods": {},
    "version": 1
  },
  "storageLayout": {
    "storage": [
      {
        "astId": 37874,
        "contract": "contracts/periphery/ui-helpers/PoolUIHelper.sol:PoolUIHelper",
        "label": "maha",
        "offset": 0,
        "slot": "0",
        "type": "t_contract(IERC20)14465"
      },
      {
        "astId": 37877,
        "contract": "contracts/periphery/ui-helpers/PoolUIHelper.sol:PoolUIHelper",
        "label": "zai",
        "offset": 0,
        "slot": "1",
        "type": "t_contract(IERC20)14465"
      },
      {
        "astId": 37880,
        "contract": "contracts/periphery/ui-helpers/PoolUIHelper.sol:PoolUIHelper",
        "label": "usdc",
        "offset": 0,
        "slot": "2",
        "type": "t_contract(IERC20)14465"
      }
    ],
    "types": {
      "t_contract(IERC20)14465": {
        "encoding": "inplace",
        "label": "contract IERC20",
        "numberOfBytes": "20"
      }
    }
  }
}