{
  "address": "0x483F7A0b2d6A2E2644DE80D119Cc642947fD7C4C",
  "abi": [
    {
      "inputs": [
        {
          "internalType": "address",
          "name": "target",
          "type": "address"
        }
      ],
      "name": "AddressEmptyCode",
      "type": "error"
    },
    {
      "inputs": [
        {
          "internalType": "address",
          "name": "account",
          "type": "address"
        }
      ],
      "name": "AddressInsufficientBalance",
      "type": "error"
    },
    {
      "inputs": [
        {
          "internalType": "address",
          "name": "spender",
          "type": "address"
        },
        {
          "internalType": "uint256",
          "name": "allowance",
          "type": "uint256"
        },
        {
          "internalType": "uint256",
          "name": "needed",
          "type": "uint256"
        }
      ],
      "name": "ERC20InsufficientAllowance",
      "type": "error"
    },
    {
      "inputs": [
        {
          "internalType": "address",
          "name": "sender",
          "type": "address"
        },
        {
          "internalType": "uint256",
          "name": "balance",
          "type": "uint256"
        },
        {
          "internalType": "uint256",
          "name": "needed",
          "type": "uint256"
        }
      ],
      "name": "ERC20InsufficientBalance",
      "type": "error"
    },
    {
      "inputs": [
        {
          "internalType": "address",
          "name": "approver",
          "type": "address"
        }
      ],
      "name": "ERC20InvalidApprover",
      "type": "error"
    },
    {
      "inputs": [
        {
          "internalType": "address",
          "name": "receiver",
          "type": "address"
        }
      ],
      "name": "ERC20InvalidReceiver",
      "type": "error"
    },
    {
      "inputs": [
        {
          "internalType": "address",
          "name": "sender",
          "type": "address"
        }
      ],
      "name": "ERC20InvalidSender",
      "type": "error"
    },
    {
      "inputs": [
        {
          "internalType": "address",
          "name": "spender",
          "type": "address"
        }
      ],
      "name": "ERC20InvalidSpender",
      "type": "error"
    },
    {
      "inputs": [],
      "name": "FailedInnerCall",
      "type": "error"
    },
    {
      "inputs": [],
      "name": "InvalidInitialization",
      "type": "error"
    },
    {
      "inputs": [],
      "name": "NotInitializing",
      "type": "error"
    },
    {
      "inputs": [
        {
          "internalType": "address",
          "name": "token",
          "type": "address"
        }
      ],
      "name": "SafeERC20FailedOperation",
      "type": "error"
    },
    {
      "anonymous": false,
      "inputs": [
        {
          "indexed": true,
          "internalType": "address",
          "name": "owner",
          "type": "address"
        },
        {
          "indexed": true,
          "internalType": "address",
          "name": "spender",
          "type": "address"
        },
        {
          "indexed": false,
          "internalType": "uint256",
          "name": "value",
          "type": "uint256"
        }
      ],
      "name": "Approval",
      "type": "event"
    },
    {
      "anonymous": false,
      "inputs": [
        {
          "indexed": false,
          "internalType": "uint64",
          "name": "version",
          "type": "uint64"
        }
      ],
      "name": "Initialized",
      "type": "event"
    },
    {
      "anonymous": false,
      "inputs": [
        {
          "indexed": true,
          "internalType": "address",
          "name": "from",
          "type": "address"
        },
        {
          "indexed": true,
          "internalType": "address",
          "name": "to",
          "type": "address"
        },
        {
          "indexed": false,
          "internalType": "uint256",
          "name": "value",
          "type": "uint256"
        }
      ],
      "name": "Transfer",
      "type": "event"
    },
    {
      "inputs": [
        {
          "internalType": "address",
          "name": "owner",
          "type": "address"
        },
        {
          "internalType": "address",
          "name": "spender",
          "type": "address"
        }
      ],
      "name": "allowance",
      "outputs": [
        {
          "internalType": "uint256",
          "name": "",
          "type": "uint256"
        }
      ],
      "stateMutability": "view",
      "type": "function"
    },
    {
      "inputs": [
        {
          "internalType": "address",
          "name": "spender",
          "type": "address"
        },
        {
          "internalType": "uint256",
          "name": "value",
          "type": "uint256"
        }
      ],
      "name": "approve",
      "outputs": [
        {
          "internalType": "bool",
          "name": "",
          "type": "bool"
        }
      ],
      "stateMutability": "nonpayable",
      "type": "function"
    },
    {
      "inputs": [
        {
          "internalType": "address",
          "name": "account",
          "type": "address"
        }
      ],
      "name": "balanceOf",
      "outputs": [
        {
          "internalType": "uint256",
          "name": "",
          "type": "uint256"
        }
      ],
      "stateMutability": "view",
      "type": "function"
    },
    {
      "inputs": [],
      "name": "decimals",
      "outputs": [
        {
          "internalType": "uint8",
          "name": "",
          "type": "uint8"
        }
      ],
      "stateMutability": "view",
      "type": "function"
    },
    {
      "inputs": [
        {
          "internalType": "uint256",
          "name": "_amount",
          "type": "uint256"
        },
        {
          "internalType": "address",
          "name": "_to",
          "type": "address"
        }
      ],
      "name": "deposit",
      "outputs": [],
      "stateMutability": "nonpayable",
      "type": "function"
    },
    {
      "inputs": [
        {
          "internalType": "string",
          "name": "_name",
          "type": "string"
        },
        {
          "internalType": "string",
          "name": "_symbol",
          "type": "string"
        },
        {
          "internalType": "address",
          "name": "_vault",
          "type": "address"
        },
        {
          "internalType": "address[]",
          "name": "_rewardTokens",
          "type": "address[]"
        }
      ],
      "name": "initialize",
      "outputs": [],
      "stateMutability": "nonpayable",
      "type": "function"
    },
    {
      "inputs": [],
      "name": "name",
      "outputs": [
        {
          "internalType": "string",
          "name": "",
          "type": "string"
        }
      ],
      "stateMutability": "view",
      "type": "function"
    },
    {
      "inputs": [
        {
          "internalType": "uint256",
          "name": "",
          "type": "uint256"
        }
      ],
      "name": "rewardTokens",
      "outputs": [
        {
          "internalType": "contract IERC20",
          "name": "",
          "type": "address"
        }
      ],
      "stateMutability": "view",
      "type": "function"
    },
    {
      "inputs": [],
      "name": "symbol",
      "outputs": [
        {
          "internalType": "string",
          "name": "",
          "type": "string"
        }
      ],
      "stateMutability": "view",
      "type": "function"
    },
    {
      "inputs": [],
      "name": "totalSupply",
      "outputs": [
        {
          "internalType": "uint256",
          "name": "",
          "type": "uint256"
        }
      ],
      "stateMutability": "view",
      "type": "function"
    },
    {
      "inputs": [
        {
          "internalType": "address",
          "name": "to",
          "type": "address"
        },
        {
          "internalType": "uint256",
          "name": "value",
          "type": "uint256"
        }
      ],
      "name": "transfer",
      "outputs": [
        {
          "internalType": "bool",
          "name": "",
          "type": "bool"
        }
      ],
      "stateMutability": "nonpayable",
      "type": "function"
    },
    {
      "inputs": [
        {
          "internalType": "address",
          "name": "from",
          "type": "address"
        },
        {
          "internalType": "address",
          "name": "to",
          "type": "address"
        },
        {
          "internalType": "uint256",
          "name": "value",
          "type": "uint256"
        }
      ],
      "name": "transferFrom",
      "outputs": [
        {
          "internalType": "bool",
          "name": "",
          "type": "bool"
        }
      ],
      "stateMutability": "nonpayable",
      "type": "function"
    },
    {
      "inputs": [],
      "name": "underlying",
      "outputs": [
        {
          "internalType": "contract IERC20",
          "name": "",
          "type": "address"
        }
      ],
      "stateMutability": "view",
      "type": "function"
    },
    {
      "inputs": [],
      "name": "vault",
      "outputs": [
        {
          "internalType": "address",
          "name": "",
          "type": "address"
        }
      ],
      "stateMutability": "view",
      "type": "function"
    },
    {
      "inputs": [
        {
          "internalType": "uint256",
          "name": "_amount",
          "type": "uint256"
        },
        {
          "internalType": "address",
          "name": "_to",
          "type": "address"
        }
      ],
      "name": "withdraw",
      "outputs": [],
      "stateMutability": "nonpayable",
      "type": "function"
    }
  ],
  "transactionHash": "0x4d29aa5e1cc87fcb6567bd4b404c3d4d58540037782c7848fababec5eea43f97",
  "args": [],
  "numDeployments": 1,
  "solcInputHash": "64e6e13b23e304f3f038c40b4a374458",
  "bytecode": "0x608060405234801561001057600080fd5b50611a2c806100206000396000f3fe608060405234801561001057600080fd5b50600436106100f45760003560e01c80636f307dc311610097578063a9059cbb11610066578063a9059cbb14610243578063dd62ed3e14610256578063fbc46ada146102ae578063fbfa77cf146102c157600080fd5b80636f307dc3146101b557806370a08231146101e05780637bb7bed11461022857806395d89b411461023b57600080fd5b806318160ddd116100d357806318160ddd1461014f57806323b872dd14610180578063313ce567146101935780636e553f65146101a257600080fd5b8062f714ce146100f957806306fdde031461010e578063095ea7b31461012c575b600080fd5b61010c610107366004611490565b6102d4565b005b610116610619565b60405161012391906114e4565b60405180910390f35b61013f61013a366004611517565b6106ee565b6040519015158152602001610123565b7f52c63247e1f47db19d5ce0460030c497f067ca4cebf71ba98eeadabe20bace02545b604051908152602001610123565b61013f61018e366004611543565b610708565b60405160128152602001610123565b61010c6101b0366004611490565b61072e565b6001546101c8906001600160a01b031681565b6040516001600160a01b039091168152602001610123565b6101726101ee366004611584565b6001600160a01b031660009081527f52c63247e1f47db19d5ce0460030c497f067ca4cebf71ba98eeadabe20bace00602052604090205490565b6101c86102363660046115a1565b6108be565b6101166108e8565b61013f610251366004611517565b610939565b6101726102643660046115ba565b6001600160a01b0391821660009081527f52c63247e1f47db19d5ce0460030c497f067ca4cebf71ba98eeadabe20bace016020908152604080832093909416825291909152205490565b61010c6102bc36600461169f565b610947565b6000546101c8906001600160a01b031681565b600080546040517f0a28a477000000000000000000000000000000000000000000000000000000008152600481018590526001600160a01b0390911690630a28a47790602401602060405180830381865afa158015610337573d6000803e3d6000fd5b505050506040513d601f19601f8201168201806040525081019061035b91906117a9565b905060006103877f52c63247e1f47db19d5ce0460030c497f067ca4cebf71ba98eeadabe20bace025490565b61039983670de0b6b3a76400006117d8565b6103a391906117ef565b90506103af3383610c93565b6000546003546040517fb460af94000000000000000000000000000000000000000000000000000000008152600481018790526001600160a01b038681166024830152918216604482015291169063b460af94906064016020604051808303816000875af1158015610425573d6000803e3d6000fd5b505050506040513d601f19601f8201168201806040525081019061044991906117a9565b5060005b60025481101561061257600054600354600280546001600160a01b0393841693636b091695931691908590811061048657610486611811565b60009182526020909120015460405160e084901b7fffffffff000000000000000000000000000000000000000000000000000000001681526001600160a01b03928316600482015291166024820152604401600060405180830381600087803b1580156104f257600080fd5b505af1158015610506573d6000803e3d6000fd5b5050505061060084670de0b6b3a7640000846002858154811061052b5761052b611811565b6000918252602090912001546003546040517f70a082310000000000000000000000000000000000000000000000000000000081526001600160a01b0391821660048201529116906370a0823190602401602060405180830381865afa158015610599573d6000803e3d6000fd5b505050506040513d601f19601f820116820180604052508101906105bd91906117a9565b6105c791906117d8565b6105d191906117ef565b600284815481106105e4576105e4611811565b6000918252602090912001546001600160a01b03169190610cd2565b8061060a81611827565b91505061044d565b5050505050565b7f52c63247e1f47db19d5ce0460030c497f067ca4cebf71ba98eeadabe20bace0380546060917f52c63247e1f47db19d5ce0460030c497f067ca4cebf71ba98eeadabe20bace009161066a90611840565b80601f016020809104026020016040519081016040528092919081815260200182805461069690611840565b80156106e35780601f106106b8576101008083540402835291602001916106e3565b820191906000526020600020905b8154815290600101906020018083116106c657829003601f168201915b505050505091505090565b6000336106fc818585610d46565b60019150505b92915050565b600033610716858285610d53565b610721858585610e09565b60019150505b9392505050565b60005b60025481101561080157600054600354600280546001600160a01b0393841693636b091695931691908590811061076a5761076a611811565b60009182526020909120015460405160e084901b7fffffffff000000000000000000000000000000000000000000000000000000001681526001600160a01b03928316600482015291166024820152604401600060405180830381600087803b1580156107d657600080fd5b505af11580156107ea573d6000803e3d6000fd5b5050505080806107f990611827565b915050610731565b5060015461081a906001600160a01b0316333085610e68565b600080546003546040517f6e553f65000000000000000000000000000000000000000000000000000000008152600481018690526001600160a01b039182166024820152911690636e553f65906044016020604051808303816000875af1158015610889573d6000803e3d6000fd5b505050506040513d601f19601f820116820180604052508101906108ad91906117a9565b90506108b98282610ea1565b505050565b600281815481106108ce57600080fd5b6000918252602090912001546001600160a01b0316905081565b7f52c63247e1f47db19d5ce0460030c497f067ca4cebf71ba98eeadabe20bace0480546060917f52c63247e1f47db19d5ce0460030c497f067ca4cebf71ba98eeadabe20bace009161066a90611840565b6000336106fc818585610e09565b7ff0c57e16840df040f15088dc2f81fe391c3923bec73e23a9662efc9c229c6a0080546001919068010000000000000000900460ff16806109965750805467ffffffffffffffff808416911610155b156109cd576040517ff92ee8a900000000000000000000000000000000000000000000000000000000815260040160405180910390fd5b805468ffffffffffffffffff191667ffffffffffffffff831617680100000000000000001781556109fe8686610ed7565b600080546001600160a01b0319166001600160a01b038616908117909155604080517f38d52e0f00000000000000000000000000000000000000000000000000000000815290516338d52e0f916004808201926020929091908290030181865afa158015610a70573d6000803e3d6000fd5b505050506040513d601f19601f82011682018060405250810190610a94919061187a565b600180546001600160a01b0319166001600160a01b039283169081179091556000546040517f095ea7b30000000000000000000000000000000000000000000000000000000081529216600483015260001960248301529063095ea7b3906044016020604051808303816000875af1158015610b14573d6000803e3d6000fd5b505050506040513d601f19601f82011682018060405250810190610b389190611897565b50825167ffffffffffffffff811115610b5357610b536115e8565b604051908082528060200260200182016040528015610b7c578160200160208202803683370190505b508051610b9191600291602090910190611401565b5060005b8351811015610c0657838181518110610bb057610bb0611811565b602002602001015160028281548110610bcb57610bcb611811565b600091825260209091200180546001600160a01b0319166001600160a01b039290921691909117905580610bfe81611827565b915050610b95565b50600380546001600160a01b03191630908117909155610c27906001610ea1565b600354610c3e906001600160a01b03166001610c93565b805468ff00000000000000001916815560405167ffffffffffffffff831681527fc7f505b2f371ae2175ee4913f4499e1f2633a7b5936321eed1cdaeb6115181d29060200160405180910390a1505050505050565b6001600160a01b038216610cc257604051634b637e8f60e11b8152600060048201526024015b60405180910390fd5b610cce82600083610ee9565b5050565b6040516001600160a01b038381166024830152604482018390526108b991859182169063a9059cbb906064015b604051602081830303815290604052915060e01b6020820180517bffffffffffffffffffffffffffffffffffffffffffffffffffffffff8381831617835250505050611052565b6108b983838360016110ce565b6001600160a01b0383811660009081527f52c63247e1f47db19d5ce0460030c497f067ca4cebf71ba98eeadabe20bace0160209081526040808320938616835292905220546000198114610e035781811015610df4576040517ffb8f41b20000000000000000000000000000000000000000000000000000000081526001600160a01b03841660048201526024810182905260448101839052606401610cb9565b610e03848484840360006110ce565b50505050565b6001600160a01b038316610e3357604051634b637e8f60e11b815260006004820152602401610cb9565b6001600160a01b038216610e5d5760405163ec442f0560e01b815260006004820152602401610cb9565b6108b9838383610ee9565b6040516001600160a01b038481166024830152838116604483015260648201839052610e039186918216906323b872dd90608401610cff565b6001600160a01b038216610ecb5760405163ec442f0560e01b815260006004820152602401610cb9565b610cce60008383610ee9565b610edf6111f9565b610cce8282611262565b7f52c63247e1f47db19d5ce0460030c497f067ca4cebf71ba98eeadabe20bace006001600160a01b038416610f375781816002016000828254610f2c91906118b9565b90915550610fc29050565b6001600160a01b03841660009081526020829052604090205482811015610fa3576040517fe450d38c0000000000000000000000000000000000000000000000000000000081526001600160a01b03861660048201526024810182905260448101849052606401610cb9565b6001600160a01b03851660009081526020839052604090209083900390555b6001600160a01b038316610fe0576002810180548390039055610fff565b6001600160a01b03831660009081526020829052604090208054830190555b826001600160a01b0316846001600160a01b03167fddf252ad1be2c89b69c2b068fc378daa952ba7f163c4a11628f55a4df523b3ef8460405161104491815260200190565b60405180910390a350505050565b60006110676001600160a01b038416836112c5565b9050805160001415801561108c57508080602001905181019061108a9190611897565b155b156108b9576040517f5274afe70000000000000000000000000000000000000000000000000000000081526001600160a01b0384166004820152602401610cb9565b7f52c63247e1f47db19d5ce0460030c497f067ca4cebf71ba98eeadabe20bace006001600160a01b038516611132576040517fe602df0500000000000000000000000000000000000000000000000000000000815260006004820152602401610cb9565b6001600160a01b038416611175576040517f94280d6200000000000000000000000000000000000000000000000000000000815260006004820152602401610cb9565b6001600160a01b0380861660009081526001830160209081526040808320938816835292905220839055811561061257836001600160a01b0316856001600160a01b03167f8c5be1e5ebec7d5bd14f71427d1e84f3dd0314c0f7b2291e5b200ac8c7c3b925856040516111ea91815260200190565b60405180910390a35050505050565b7ff0c57e16840df040f15088dc2f81fe391c3923bec73e23a9662efc9c229c6a005468010000000000000000900460ff16611260576040517fd7e6bcf800000000000000000000000000000000000000000000000000000000815260040160405180910390fd5b565b61126a6111f9565b7f52c63247e1f47db19d5ce0460030c497f067ca4cebf71ba98eeadabe20bace007f52c63247e1f47db19d5ce0460030c497f067ca4cebf71ba98eeadabe20bace036112b6848261191a565b5060048101610e03838261191a565b60606107278383600084600080856001600160a01b031684866040516112eb91906119da565b60006040518083038185875af1925050503d8060008114611328576040519150601f19603f3d011682016040523d82523d6000602084013e61132d565b606091505b509150915061133d868383611347565b9695505050505050565b60608261135c57611357826113bc565b610727565b815115801561137357506001600160a01b0384163b155b156113b5576040517f9996b3150000000000000000000000000000000000000000000000000000000081526001600160a01b0385166004820152602401610cb9565b5080610727565b8051156113cc5780518082602001fd5b6040517f1425ea4200000000000000000000000000000000000000000000000000000000815260040160405180910390fd5b50565b828054828255906000526020600020908101928215611456579160200282015b8281111561145657825182546001600160a01b0319166001600160a01b03909116178255602090920191600190910190611421565b50611462929150611466565b5090565b5b808211156114625760008155600101611467565b6001600160a01b03811681146113fe57600080fd5b600080604083850312156114a357600080fd5b8235915060208301356114b58161147b565b809150509250929050565b60005b838110156114db5781810151838201526020016114c3565b50506000910152565b60208152600082518060208401526115038160408501602087016114c0565b601f01601f19169190910160400192915050565b6000806040838503121561152a57600080fd5b82356115358161147b565b946020939093013593505050565b60008060006060848603121561155857600080fd5b83356115638161147b565b925060208401356115738161147b565b929592945050506040919091013590565b60006020828403121561159657600080fd5b81356107278161147b565b6000602082840312156115b357600080fd5b5035919050565b600080604083850312156115cd57600080fd5b82356115d88161147b565b915060208301356114b58161147b565b634e487b7160e01b600052604160045260246000fd5b604051601f8201601f1916810167ffffffffffffffff81118282101715611627576116276115e8565b604052919050565b600082601f83011261164057600080fd5b813567ffffffffffffffff81111561165a5761165a6115e8565b61166d601f8201601f19166020016115fe565b81815284602083860101111561168257600080fd5b816020850160208301376000918101602001919091529392505050565b600080600080608085870312156116b557600080fd5b843567ffffffffffffffff808211156116cd57600080fd5b6116d98883890161162f565b95506020915081870135818111156116f057600080fd5b6116fc89828a0161162f565b955050604087013561170d8161147b565b935060608701358181111561172157600080fd5b8701601f8101891361173257600080fd5b803582811115611744576117446115e8565b8060051b92506117558484016115fe565b818152928201840192848101908b85111561176f57600080fd5b928501925b8484101561179957833592506117898361147b565b8282529285019290850190611774565b989b979a50959850505050505050565b6000602082840312156117bb57600080fd5b5051919050565b634e487b7160e01b600052601160045260246000fd5b8082028115828204841417610702576107026117c2565b60008261180c57634e487b7160e01b600052601260045260246000fd5b500490565b634e487b7160e01b600052603260045260246000fd5b600060018201611839576118396117c2565b5060010190565b600181811c9082168061185457607f821691505b60208210810361187457634e487b7160e01b600052602260045260246000fd5b50919050565b60006020828403121561188c57600080fd5b81516107278161147b565b6000602082840312156118a957600080fd5b8151801515811461072757600080fd5b80820180821115610702576107026117c2565b601f8211156108b957600081815260208120601f850160051c810160208610156118f35750805b601f850160051c820191505b81811015611912578281556001016118ff565b505050505050565b815167ffffffffffffffff811115611934576119346115e8565b611948816119428454611840565b846118cc565b602080601f83116001811461197d57600084156119655750858301515b600019600386901b1c1916600185901b178555611912565b600085815260208120601f198616915b828110156119ac5788860151825594840194600190910190840161198d565b50858210156119ca5787850151600019600388901b60f8161c191681555b5050505050600190811b01905550565b600082516119ec8184602087016114c0565b919091019291505056fea26469706673582212202407ffa65b91bfc75e7c83d83921857dbbca00572c659cfbae76f4e15e9a95aa64736f6c63430008150033",
  "devdoc": {
    "errors": {
      "AddressEmptyCode(address)": [
        {
          "details": "There's no code at `target` (it is not a contract)."
        }
      ],
      "AddressInsufficientBalance(address)": [
        {
          "details": "The ETH balance of the account is not enough to perform the operation."
        }
      ],
      "ERC20InsufficientAllowance(address,uint256,uint256)": [
        {
          "details": "Indicates a failure with the `spender`s `allowance`. Used in transfers.",
          "params": {
            "allowance": "Amount of tokens a `spender` is allowed to operate with.",
            "needed": "Minimum amount required to perform a transfer.",
            "spender": "Address that may be allowed to operate on tokens without being their owner."
          }
        }
      ],
      "ERC20InsufficientBalance(address,uint256,uint256)": [
        {
          "details": "Indicates an error related to the current `balance` of a `sender`. Used in transfers.",
          "params": {
            "balance": "Current balance for the interacting account.",
            "needed": "Minimum amount required to perform a transfer.",
            "sender": "Address whose tokens are being transferred."
          }
        }
      ],
      "ERC20InvalidApprover(address)": [
        {
          "details": "Indicates a failure with the `approver` of a token to be approved. Used in approvals.",
          "params": {
            "approver": "Address initiating an approval operation."
          }
        }
      ],
      "ERC20InvalidReceiver(address)": [
        {
          "details": "Indicates a failure with the token `receiver`. Used in transfers.",
          "params": {
            "receiver": "Address to which tokens are being transferred."
          }
        }
      ],
      "ERC20InvalidSender(address)": [
        {
          "details": "Indicates a failure with the token `sender`. Used in transfers.",
          "params": {
            "sender": "Address whose tokens are being transferred."
          }
        }
      ],
      "ERC20InvalidSpender(address)": [
        {
          "details": "Indicates a failure with the `spender` to be approved. Used in approvals.",
          "params": {
            "spender": "Address that may be allowed to operate on tokens without being their owner."
          }
        }
      ],
      "FailedInnerCall()": [
        {
          "details": "A call to an address target failed. The target may have reverted."
        }
      ],
      "InvalidInitialization()": [
        {
          "details": "The contract is already initialized."
        }
      ],
      "NotInitializing()": [
        {
          "details": "The contract is not initializing."
        }
      ],
      "SafeERC20FailedOperation(address)": [
        {
          "details": "An operation with an ERC20 token failed."
        }
      ]
    },
    "events": {
      "Approval(address,address,uint256)": {
        "details": "Emitted when the allowance of a `spender` for an `owner` is set by a call to {approve}. `value` is the new allowance."
      },
      "Initialized(uint64)": {
        "details": "Triggered when the contract has been initialized or reinitialized."
      },
      "Transfer(address,address,uint256)": {
        "details": "Emitted when `value` tokens are moved from one account (`from`) to another (`to`). Note that `value` may be zero."
      }
    },
    "kind": "dev",
    "methods": {
      "allowance(address,address)": {
        "details": "See {IERC20-allowance}."
      },
      "approve(address,uint256)": {
        "details": "See {IERC20-approve}. NOTE: If `value` is the maximum `uint256`, the allowance is not updated on `transferFrom`. This is semantically equivalent to an infinite approval. Requirements: - `spender` cannot be the zero address."
      },
      "balanceOf(address)": {
        "details": "See {IERC20-balanceOf}."
      },
      "decimals()": {
        "details": "Returns the number of decimals used to get its user representation. For example, if `decimals` equals `2`, a balance of `505` tokens should be displayed to a user as `5.05` (`505 / 10 ** 2`). Tokens usually opt for a value of 18, imitating the relationship between Ether and Wei. This is the default value returned by this function, unless it's overridden. NOTE: This information is only used for _display_ purposes: it in no way affects any of the arithmetic of the contract, including {IERC20-balanceOf} and {IERC20-transfer}."
      },
      "name()": {
        "details": "Returns the name of the token."
      },
      "symbol()": {
        "details": "Returns the symbol of the token, usually a shorter version of the name."
      },
      "totalSupply()": {
        "details": "See {IERC20-totalSupply}."
      },
      "transfer(address,uint256)": {
        "details": "See {IERC20-transfer}. Requirements: - `to` cannot be the zero address. - the caller must have a balance of at least `value`."
      },
      "transferFrom(address,address,uint256)": {
        "details": "See {IERC20-transferFrom}. Emits an {Approval} event indicating the updated allowance. This is not required by the EIP. See the note at the beginning of {ERC20}. NOTE: Does not update the allowance if the current allowance is the maximum `uint256`. Requirements: - `from` and `to` cannot be the zero address. - `from` must have a balance of at least `value`. - the caller must have allowance for ``from``'s tokens of at least `value`."
      }
    },
    "version": 1
  },
  "userdoc": {
    "kind": "user",
    "methods": {},
    "version": 1
  },
  "storageLayout": {
    "storage": [
      {
        "astId": 2803,
        "contract": "contracts/periphery/wrappers/WrappedStakingLPRewards.sol:WrappedStakingLPRewards",
        "label": "vault",
        "offset": 0,
        "slot": "0",
        "type": "t_address"
      },
      {
        "astId": 2806,
        "contract": "contracts/periphery/wrappers/WrappedStakingLPRewards.sol:WrappedStakingLPRewards",
        "label": "underlying",
        "offset": 0,
        "slot": "1",
        "type": "t_contract(IERC20)1388"
      },
      {
        "astId": 2810,
        "contract": "contracts/periphery/wrappers/WrappedStakingLPRewards.sol:WrappedStakingLPRewards",
        "label": "rewardTokens",
        "offset": 0,
        "slot": "2",
        "type": "t_array(t_contract(IERC20)1388)dyn_storage"
      },
      {
        "astId": 2812,
        "contract": "contracts/periphery/wrappers/WrappedStakingLPRewards.sol:WrappedStakingLPRewards",
        "label": "_me",
        "offset": 0,
        "slot": "3",
        "type": "t_address"
      }
    ],
    "types": {
      "t_address": {
        "encoding": "inplace",
        "label": "address",
        "numberOfBytes": "20"
      },
      "t_array(t_contract(IERC20)1388)dyn_storage": {
        "base": "t_contract(IERC20)1388",
        "encoding": "dynamic_array",
        "label": "contract IERC20[]",
        "numberOfBytes": "32"
      },
      "t_contract(IERC20)1388": {
        "encoding": "inplace",
        "label": "contract IERC20",
        "numberOfBytes": "20"
      }
    }
  }
}