{
  "address": "0x71FBD1d511b66ef151993929f342238Bf552223c",
  "abi": [
    {
      "inputs": [
        {
          "internalType": "address",
          "name": "_staking",
          "type": "address"
        },
        {
          "internalType": "address",
          "name": "_bridge",
          "type": "address"
        },
        {
          "internalType": "address",
          "name": "_router",
          "type": "address"
        }
      ],
      "stateMutability": "nonpayable",
      "type": "constructor"
    },
    {
      "inputs": [],
      "name": "CollateralTransferFailed",
      "type": "error"
    },
    {
      "inputs": [],
      "name": "OdosSwapFailed",
      "type": "error"
    },
    {
      "inputs": [],
      "name": "TokenTransferFailed",
      "type": "error"
    },
    {
      "anonymous": false,
      "inputs": [
        {
          "indexed": true,
          "internalType": "address",
          "name": "user",
          "type": "address"
        },
        {
          "indexed": true,
          "internalType": "uint256",
          "name": "collateralAmount",
          "type": "uint256"
        },
        {
          "indexed": true,
          "internalType": "uint256",
          "name": "zaiAmount",
          "type": "uint256"
        },
        {
          "indexed": false,
          "internalType": "uint256",
          "name": "newStakedAmount",
          "type": "uint256"
        }
      ],
      "name": "Zapped",
      "type": "event"
    },
    {
      "inputs": [],
      "name": "bridge",
      "outputs": [
        {
          "internalType": "contract IL2DepositCollateralL0",
          "name": "",
          "type": "address"
        }
      ],
      "stateMutability": "view",
      "type": "function"
    },
    {
      "inputs": [],
      "name": "collateral",
      "outputs": [
        {
          "internalType": "contract IERC20Metadata",
          "name": "",
          "type": "address"
        }
      ],
      "stateMutability": "view",
      "type": "function"
    },
    {
      "inputs": [],
      "name": "decimalOffset",
      "outputs": [
        {
          "internalType": "uint256",
          "name": "",
          "type": "uint256"
        }
      ],
      "stateMutability": "view",
      "type": "function"
    },
    {
      "inputs": [],
      "name": "me",
      "outputs": [
        {
          "internalType": "address",
          "name": "",
          "type": "address"
        }
      ],
      "stateMutability": "view",
      "type": "function"
    },
    {
      "inputs": [],
      "name": "pool",
      "outputs": [
        {
          "internalType": "contract IERC20Metadata",
          "name": "",
          "type": "address"
        }
      ],
      "stateMutability": "view",
      "type": "function"
    },
    {
      "inputs": [],
      "name": "router",
      "outputs": [
        {
          "internalType": "contract IAerodromeRouter",
          "name": "",
          "type": "address"
        }
      ],
      "stateMutability": "view",
      "type": "function"
    },
    {
      "inputs": [],
      "name": "staking",
      "outputs": [
        {
          "internalType": "contract IERC4626",
          "name": "",
          "type": "address"
        }
      ],
      "stateMutability": "view",
      "type": "function"
    },
    {
      "inputs": [],
      "name": "zai",
      "outputs": [
        {
          "internalType": "contract IERC20Metadata",
          "name": "",
          "type": "address"
        }
      ],
      "stateMutability": "view",
      "type": "function"
    },
    {
      "inputs": [
        {
          "internalType": "uint256",
          "name": "collateralAmount",
          "type": "uint256"
        },
        {
          "internalType": "uint256",
          "name": "minLpAmount",
          "type": "uint256"
        }
      ],
      "name": "zapIntoLP",
      "outputs": [],
      "stateMutability": "nonpayable",
      "type": "function"
    },
    {
      "inputs": [
        {
          "internalType": "uint256",
          "name": "amount",
          "type": "uint256"
        },
        {
          "internalType": "uint256",
          "name": "minCollateralAmount",
          "type": "uint256"
        }
      ],
      "name": "zapOutOfLP",
      "outputs": [],
      "stateMutability": "nonpayable",
      "type": "function"
    }
  ],
  "transactionHash": "0x4956d70835bd95eb00ea56d6d5aa1ca4e4ce548814d5d839ef85ce98e2195994",
  "args": [
    "0x1097dFe9539350cb466dF9CA89A5e61195A520B0",
    "0xA07cf1c081F46524A133c1B6E8eE0B5f96A51255",
    "0xcf77a3ba9a5ca399b7c97c74d54e5b1beb874e43"
  ],
  "numDeployments": 1,
  "solcInputHash": "99416816a6e7f461e6778e2db76a3ae4",
  "bytecode": "0x60806040523480156200001157600080fd5b506040516200163538038062001635833981016040819052620000349162000539565b600080546001600160a01b0319166001600160a01b038516908117909155604080516338d52e0f60e01b815290518592859285928592916338d52e0f9160048083019260209291908290030181865afa15801562000096573d6000803e3d6000fd5b505050506040513d601f19601f82011682018060405250810190620000bc91906200058d565b600180546001600160a01b0319166001600160a01b0392831690811790915560405163095ea7b360e01b8152918316600483015260001960248301529063095ea7b3906044016020604051808303816000875af115801562000122573d6000803e3d6000fd5b505050506040513d601f19601f82011682018060405250810190620001489190620005b4565b505060058054306001600160a01b0319918216179091556006805482166001600160a01b03858116918217909255600780549093169184169190911790915560408051634da90afb60e11b81529051639b5215f6916004808201926020929091908290030181865afa158015620001c3573d6000803e3d6000fd5b505050506040513d601f19601f82011682018060405250810190620001e991906200058d565b600280546001600160a01b0319166001600160a01b039283161790556006546040805163c89039c560e01b81529051919092169163c89039c59160048083019260209291908290030181865afa15801562000248573d6000803e3d6000fd5b505050506040513d601f19601f820116820180604052508101906200026e91906200058d565b600380546001600160a01b0319166001600160a01b0392831617905560025460015460405163095ea7b360e01b81529083166004820152600019602482015291169063095ea7b3906044016020604051808303816000875af1158015620002d9573d6000803e3d6000fd5b505050506040513d601f19601f82011682018060405250810190620002ff9190620005b4565b50600360009054906101000a90046001600160a01b03166001600160a01b031663313ce5676040518163ffffffff1660e01b8152600401602060405180830381865afa15801562000354573d6000803e3d6000fd5b505050506040513d601f19601f820116820180604052508101906200037a9190620005d8565b6200038790601262000613565b6200039490600a62000732565b600490815560025460075460405163095ea7b360e01b81526001600160a01b03918216938101939093526000196024840152169063095ea7b3906044016020604051808303816000875af1158015620003f1573d6000803e3d6000fd5b505050506040513d601f19601f82011682018060405250810190620004179190620005b4565b5060035460075460405163095ea7b360e01b81526001600160a01b039182166004820152600019602482015291169063095ea7b3906044016020604051808303816000875af11580156200046f573d6000803e3d6000fd5b505050506040513d601f19601f82011682018060405250810190620004959190620005b4565b5060035460065460405163095ea7b360e01b81526001600160a01b039182166004820152600019602482015291169063095ea7b3906044016020604051808303816000875af1158015620004ed573d6000803e3d6000fd5b505050506040513d601f19601f82011682018060405250810190620005139190620005b4565b5050505050505062000743565b6001600160a01b03811681146200053657600080fd5b50565b6000806000606084860312156200054f57600080fd5b83516200055c8162000520565b60208501519093506200056f8162000520565b6040850151909250620005828162000520565b809150509250925092565b600060208284031215620005a057600080fd5b8151620005ad8162000520565b9392505050565b600060208284031215620005c757600080fd5b81518015158114620005ad57600080fd5b600060208284031215620005eb57600080fd5b815160ff81168114620005ad57600080fd5b634e487b7160e01b600052601160045260246000fd5b60ff82811682821603908111156200062f576200062f620005fd565b92915050565b600181815b80851115620006765781600019048211156200065a576200065a620005fd565b808516156200066857918102915b93841c93908002906200063a565b509250929050565b6000826200068f575060016200062f565b816200069e575060006200062f565b8160018114620006b75760028114620006c257620006e2565b60019150506200062f565b60ff841115620006d657620006d6620005fd565b50506001821b6200062f565b5060208310610133831016604e8410600b841016171562000707575081810a6200062f565b62000713838362000635565b80600019048211156200072a576200072a620005fd565b029392505050565b6000620005ad60ff8416836200067e565b610ee280620007536000396000f3fe608060405234801561001057600080fd5b50600436106100be5760003560e01c8063d1b39ae511610076578063e78cea921161005b578063e78cea921461016b578063f887ea401461017e578063fbbe5a331461019157600080fd5b8063d1b39ae514610141578063d8dfeb451461015857600080fd5b806316f0115b116100a757806316f0115b146101085780634cf088d91461011b578063cb12b48f1461012e57600080fd5b8063050ad121146100c357806307140b34146100d8575b600080fd5b6100d66100d1366004610c1f565b6101a4565b005b6002546100eb906001600160a01b031681565b6040516001600160a01b0390911681526020015b60405180910390f35b6001546100eb906001600160a01b031681565b6000546100eb906001600160a01b031681565b6005546100eb906001600160a01b031681565b61014a60045481565b6040519081526020016100ff565b6003546100eb906001600160a01b031681565b6006546100eb906001600160a01b031681565b6007546100eb906001600160a01b031681565b6100d661019f366004610c1f565b610675565b6000546005546040517fb460af94000000000000000000000000000000000000000000000000000000008152600481018590523360248201526001600160a01b03918216604482015291169063b460af94906064016020604051808303816000875af1158015610218573d6000803e3d6000fd5b505050506040513d601f19601f8201168201806040525081019061023c9190610c41565b50600180546003546002546005546040516370a0823160e01b81526001600160a01b03918216600482015293811694630dede6c4949382169391909216919085906370a0823190602401602060405180830381865afa1580156102a3573d6000803e3d6000fd5b505050506040513d601f19601f820116820180604052508101906102c79190610c41565b60055460405160e087901b6001600160e01b03191681526001600160a01b03958616600482015293851660248501529115156044840152606483015260006084830181905260a48301529190911660c48201524260e48201526101040160408051808303816000875af1158015610342573d6000803e3d6000fd5b505050506040513d601f19601f820116820180604052508101906103669190610c5a565b5050604080516080810182526002546001600160a01b039081168252600354811660208084019190915260018385018190525484517fd4b6846d00000000000000000000000000000000000000000000000000000000815294516000956060860194929092169263d4b6846d92600480820193918290030181865afa1580156103f3573d6000803e3d6000fd5b505050506040513d601f19601f820116820180604052508101906104179190610c7e565b6001600160a01b0316905260408051600180825281830190925291925060009190816020015b60408051608081018252600080825260208083018290529282018190526060820152825260001990920191018161043d579050509050818160008151811061048757610487610cc4565b60209081029190910101526007546002546005546040516370a0823160e01b81526001600160a01b0391821660048201529281169263cac88ea99291909116906370a0823190602401602060405180830381865afa1580156104ed573d6000803e3d6000fd5b505050506040513d601f19601f820116820180604052508101906105119190610c41565b6005546040516001600160e01b031960e085901b168152610546929160009187916001600160a01b0316904290600401610cda565b6000604051808303816000875af1158015610565573d6000803e3d6000fd5b505050506040513d6000823e601f3d908101601f1916820160405261058d9190810190610d7c565b506003546005546040516370a0823160e01b81526001600160a01b039182166004820152859291909116906370a0823190602401602060405180830381865afa1580156105de573d6000803e3d6000fd5b505050506040513d601f19601f820116820180604052508101906106029190610c41565b10156106455760405162461bcd60e51b815260206004820152600d60248201526c085a5b9cdd59999a58da595b9d609a1b60448201526064015b60405180910390fd5b60025461065a906001600160a01b0316610ae0565b60035461066f906001600160a01b0316610ae0565b50505050565b6003546005546040517f23b872dd0000000000000000000000000000000000000000000000000000000081523360048201526001600160a01b039182166024820152604481018590529116906323b872dd906064016020604051808303816000875af11580156106e9573d6000803e3d6000fd5b505050506040513d601f19601f8201168201806040525081019061070d9190610e3a565b506006546000906001600160a01b031663b6b55f2561072d600286610e5c565b6040518263ffffffff1660e01b815260040161074b91815260200190565b6020604051808303816000875af115801561076a573d6000803e3d6000fd5b505050506040513d601f19601f8201168201806040525081019061078e9190610c41565b600754600354600280549394506001600160a01b0392831693635a47ddc3939283169216906001906107c09089610e5c565b60055460405160e087901b6001600160e01b03191681526001600160a01b03958616600482015293851660248501529115156044840152606483015260848201869052600060a4830181905260c48301529190911660e482015242610104820152610124016060604051808303816000875af1158015610844573d6000803e3d6000fd5b505050506040513d601f19601f820116820180604052508101906108689190610e7e565b50506001546005546040516370a0823160e01b81526001600160a01b0391821660048201528593509116906370a0823190602401602060405180830381865afa1580156108b9573d6000803e3d6000fd5b505050506040513d601f19601f820116820180604052508101906108dd9190610c41565b101561091b5760405162461bcd60e51b815260206004820152600d60248201526c085a5b9cdd59999a58da595b9d609a1b604482015260640161063c565b6000546001546005546040516370a0823160e01b81526001600160a01b03918216600482015292811692636e553f659291909116906370a0823190602401602060405180830381865afa158015610976573d6000803e3d6000fd5b505050506040513d601f19601f8201168201806040525081019061099a9190610c41565b6040516001600160e01b031960e084901b16815260048101919091523360248201526044016020604051808303816000875af11580156109de573d6000803e3d6000fd5b505050506040513d601f19601f82011682018060405250810190610a029190610c41565b50600254610a18906001600160a01b0316610ae0565b600354610a2d906001600160a01b0316610ae0565b80610a39600285610e5c565b6001546040516370a0823160e01b81523360048201819052917f8254cb1554a3a4f342e4d6bc29ea29f483d72ec4183e94e4a83410c93af84341916001600160a01b03909116906370a0823190602401602060405180830381865afa158015610aa6573d6000803e3d6000fd5b505050506040513d601f19601f82011682018060405250810190610aca9190610c41565b60405190815260200160405180910390a4505050565b6040516370a0823160e01b81523060048201526000906001600160a01b038316906370a0823190602401602060405180830381865afa158015610b27573d6000803e3d6000fd5b505050506040513d601f19601f82011682018060405250810190610b4b9190610c41565b9050600081118015610be457506040517fa9059cbb000000000000000000000000000000000000000000000000000000008152336004820152602481018290526001600160a01b0383169063a9059cbb906044016020604051808303816000875af1158015610bbe573d6000803e3d6000fd5b505050506040513d601f19601f82011682018060405250810190610be29190610e3a565b155b15610c1b576040517f045c4b0200000000000000000000000000000000000000000000000000000000815260040160405180910390fd5b5050565b60008060408385031215610c3257600080fd5b50508035926020909101359150565b600060208284031215610c5357600080fd5b5051919050565b60008060408385031215610c6d57600080fd5b505080516020909101519092909150565b600060208284031215610c9057600080fd5b81516001600160a01b0381168114610ca757600080fd5b9392505050565b634e487b7160e01b600052604160045260246000fd5b634e487b7160e01b600052603260045260246000fd5b600060a0820187835260208781850152604060a08186015282885180855260c087019150838a01945060005b81811015610d5057855180516001600160a01b0390811685528682015181168786015285820151151586860152606091820151169084015294840194608090920191600101610d06565b50506001600160a01b03881660608701529350610d6c92505050565b8260808301529695505050505050565b60006020808385031215610d8f57600080fd5b825167ffffffffffffffff80821115610da757600080fd5b818501915085601f830112610dbb57600080fd5b815181811115610dcd57610dcd610cae565b8060051b604051601f19603f83011681018181108582111715610df257610df2610cae565b604052918252848201925083810185019188831115610e1057600080fd5b938501935b82851015610e2e57845184529385019392850192610e15565b98975050505050505050565b600060208284031215610e4c57600080fd5b81518015158114610ca757600080fd5b600082610e7957634e487b7160e01b600052601260045260246000fd5b500490565b600080600060608486031215610e9357600080fd5b835192506020840151915060408401519050925092509256fea264697066735822122098cc2829824dc48d5c4018086d9fa9d7279ce3172477704a6a5366767083829e64736f6c63430008150033",
  "devdoc": {
    "kind": "dev",
    "methods": {
      "zapIntoLP(uint256,uint256)": {
        "details": "This function is used when the user only has collateral tokens.",
        "params": {
          "collateralAmount": "The amount of collateral to zap",
          "minLpAmount": "The minimum amount of LP tokens to stake"
        }
      }
    },
    "version": 1
  },
  "userdoc": {
    "kind": "user",
    "methods": {
      "zapIntoLP(uint256,uint256)": {
        "notice": "Zaps collateral into ZAI LP tokens"
      }
    },
    "version": 1
  },
  "storageLayout": {
    "storage": [
      {
        "astId": 41346,
        "contract": "contracts/periphery/zaps/implementations/base/ZapAerodromePoolUSDC.sol:ZapAerodromePoolUSDC",
        "label": "staking",
        "offset": 0,
        "slot": "0",
        "type": "t_contract(IERC4626)12727"
      },
      {
        "astId": 41349,
        "contract": "contracts/periphery/zaps/implementations/base/ZapAerodromePoolUSDC.sol:ZapAerodromePoolUSDC",
        "label": "pool",
        "offset": 0,
        "slot": "1",
        "type": "t_contract(IERC20Metadata)14935"
      },
      {
        "astId": 41352,
        "contract": "contracts/periphery/zaps/implementations/base/ZapAerodromePoolUSDC.sol:ZapAerodromePoolUSDC",
        "label": "zai",
        "offset": 0,
        "slot": "2",
        "type": "t_contract(IERC20Metadata)14935"
      },
      {
        "astId": 41355,
        "contract": "contracts/periphery/zaps/implementations/base/ZapAerodromePoolUSDC.sol:ZapAerodromePoolUSDC",
        "label": "collateral",
        "offset": 0,
        "slot": "3",
        "type": "t_contract(IERC20Metadata)14935"
      },
      {
        "astId": 41357,
        "contract": "contracts/periphery/zaps/implementations/base/ZapAerodromePoolUSDC.sol:ZapAerodromePoolUSDC",
        "label": "decimalOffset",
        "offset": 0,
        "slot": "4",
        "type": "t_uint256"
      },
      {
        "astId": 41359,
        "contract": "contracts/periphery/zaps/implementations/base/ZapAerodromePoolUSDC.sol:ZapAerodromePoolUSDC",
        "label": "me",
        "offset": 0,
        "slot": "5",
        "type": "t_address"
      },
      {
        "astId": 41462,
        "contract": "contracts/periphery/zaps/implementations/base/ZapAerodromePoolUSDC.sol:ZapAerodromePoolUSDC",
        "label": "bridge",
        "offset": 0,
        "slot": "6",
        "type": "t_contract(IL2DepositCollateralL0)35192"
      },
      {
        "astId": 41465,
        "contract": "contracts/periphery/zaps/implementations/base/ZapAerodromePoolUSDC.sol:ZapAerodromePoolUSDC",
        "label": "router",
        "offset": 0,
        "slot": "7",
        "type": "t_contract(IAerodromeRouter)34724"
      }
    ],
    "types": {
      "t_address": {
        "encoding": "inplace",
        "label": "address",
        "numberOfBytes": "20"
      },
      "t_contract(IAerodromeRouter)34724": {
        "encoding": "inplace",
        "label": "contract IAerodromeRouter",
        "numberOfBytes": "20"
      },
      "t_contract(IERC20Metadata)14935": {
        "encoding": "inplace",
        "label": "contract IERC20Metadata",
        "numberOfBytes": "20"
      },
      "t_contract(IERC4626)12727": {
        "encoding": "inplace",
        "label": "contract IERC4626",
        "numberOfBytes": "20"
      },
      "t_contract(IL2DepositCollateralL0)35192": {
        "encoding": "inplace",
        "label": "contract IL2DepositCollateralL0",
        "numberOfBytes": "20"
      },
      "t_uint256": {
        "encoding": "inplace",
        "label": "uint256",
        "numberOfBytes": "32"
      }
    }
  }
}