{
  "address": "0x9a1D5787F5B3596A590976BFC98563EFFb3d7ee8",
  "abi": [
    {
      "inputs": [
        {
          "internalType": "address",
          "name": "_restaker",
          "type": "address"
        },
        {
          "internalType": "address",
          "name": "_odos",
          "type": "address"
        }
      ],
      "stateMutability": "nonpayable",
      "type": "constructor"
    },
    {
      "inputs": [
        {
          "internalType": "address",
          "name": "target",
          "type": "address"
        }
      ],
      "name": "AddressEmptyCode",
      "type": "error"
    },
    {
      "inputs": [
        {
          "internalType": "address",
          "name": "account",
          "type": "address"
        }
      ],
      "name": "AddressInsufficientBalance",
      "type": "error"
    },
    {
      "inputs": [],
      "name": "CollateralTransferFailed",
      "type": "error"
    },
    {
      "inputs": [],
      "name": "FailedInnerCall",
      "type": "error"
    },
    {
      "inputs": [],
      "name": "OdosSwapFailed",
      "type": "error"
    },
    {
      "inputs": [
        {
          "internalType": "address",
          "name": "token",
          "type": "address"
        }
      ],
      "name": "SafeERC20FailedOperation",
      "type": "error"
    },
    {
      "inputs": [],
      "name": "TokenTransferFailed",
      "type": "error"
    },
    {
      "anonymous": false,
      "inputs": [
        {
          "indexed": true,
          "internalType": "address",
          "name": "user",
          "type": "address"
        },
        {
          "indexed": true,
          "internalType": "address",
          "name": "token",
          "type": "address"
        },
        {
          "indexed": true,
          "internalType": "uint256",
          "name": "collateralAmount",
          "type": "uint256"
        },
        {
          "indexed": false,
          "internalType": "uint256",
          "name": "zaiAmount",
          "type": "uint256"
        }
      ],
      "name": "Zapped",
      "type": "event"
    },
    {
      "inputs": [],
      "name": "collateral",
      "outputs": [
        {
          "internalType": "contract IERC20Metadata",
          "name": "",
          "type": "address"
        }
      ],
      "stateMutability": "view",
      "type": "function"
    },
    {
      "inputs": [],
      "name": "decimalOffset",
      "outputs": [
        {
          "internalType": "uint256",
          "name": "",
          "type": "uint256"
        }
      ],
      "stateMutability": "view",
      "type": "function"
    },
    {
      "inputs": [],
      "name": "me",
      "outputs": [
        {
          "internalType": "address",
          "name": "",
          "type": "address"
        }
      ],
      "stateMutability": "view",
      "type": "function"
    },
    {
      "inputs": [],
      "name": "odos",
      "outputs": [
        {
          "internalType": "address",
          "name": "",
          "type": "address"
        }
      ],
      "stateMutability": "view",
      "type": "function"
    },
    {
      "inputs": [],
      "name": "restaker",
      "outputs": [
        {
          "internalType": "contract IL2DepositCollateralL0",
          "name": "",
          "type": "address"
        }
      ],
      "stateMutability": "view",
      "type": "function"
    },
    {
      "inputs": [],
      "name": "zai",
      "outputs": [
        {
          "internalType": "contract IERC20",
          "name": "",
          "type": "address"
        }
      ],
      "stateMutability": "view",
      "type": "function"
    },
    {
      "inputs": [
        {
          "internalType": "contract IERC20",
          "name": "swapAsset",
          "type": "address"
        },
        {
          "internalType": "uint256",
          "name": "swapAmount",
          "type": "uint256"
        },
        {
          "internalType": "uint256",
          "name": "minAmount",
          "type": "uint256"
        },
        {
          "internalType": "bytes",
          "name": "odosCallData",
          "type": "bytes"
        }
      ],
      "name": "zapWithOdos",
      "outputs": [],
      "stateMutability": "payable",
      "type": "function"
    }
  ],
  "transactionHash": "0xdd9b0d88ef1551b2854313973797586e6025c2c9f28bf8fd1ec5c86b23c7c04b",
  "args": [
    "0xC5f00d6bfD874C55284594826779e9BBdE48F46E",
    "0x19cEeAd7105607Cd444F5ad10dd51356436095a1"
  ],
  "numDeployments": 1,
  "solcInputHash": "2f64c77a4e516aa6bc119c79c7191950",
  "bytecode": "0x60806040523480156200001157600080fd5b5060405162000e2338038062000e2383398101604081905262000034916200029b565b600080546001600160a01b038085166001600160a01b03199283168117909355600180549185169190921617905560408051634da90afb60e11b81529051639b5215f6916004808201926020929091908290030181865afa1580156200009e573d6000803e3d6000fd5b505050506040513d601f19601f82011682018060405250810190620000c49190620002da565b600280546001600160a01b0319166001600160a01b039283161790556000546040805163c89039c560e01b81529051919092169163c89039c59160048083019260209291908290030181865afa15801562000123573d6000803e3d6000fd5b505050506040513d601f19601f82011682018060405250810190620001499190620002da565b600380546001600160a01b0319166001600160a01b039290921691821790556040805163313ce56760e01b8152905163313ce567916004808201926020929091908290030181865afa158015620001a4573d6000803e3d6000fd5b505050506040513d601f19601f82011682018060405250810190620001ca919062000301565b620001d79060126200033c565b620001e490600a6200045b565b6004908155600580546001600160a01b0319163017905560035460005460405163095ea7b360e01b81526001600160a01b03918216938101939093526000196024840152169063095ea7b3906044016020604051808303816000875af115801562000253573d6000803e3d6000fd5b505050506040513d601f19601f820116820180604052508101906200027991906200046c565b50505062000490565b6001600160a01b03811681146200029857600080fd5b50565b60008060408385031215620002af57600080fd5b8251620002bc8162000282565b6020840151909250620002cf8162000282565b809150509250929050565b600060208284031215620002ed57600080fd5b8151620002fa8162000282565b9392505050565b6000602082840312156200031457600080fd5b815160ff81168114620002fa57600080fd5b634e487b7160e01b600052601160045260246000fd5b60ff828116828216039081111562000358576200035862000326565b92915050565b600181815b808511156200039f57816000190482111562000383576200038362000326565b808516156200039157918102915b93841c939080029062000363565b509250929050565b600082620003b85750600162000358565b81620003c75750600062000358565b8160018114620003e05760028114620003eb576200040b565b600191505062000358565b60ff841115620003ff57620003ff62000326565b50506001821b62000358565b5060208310610133831016604e8410600b841016171562000430575081810a62000358565b6200043c83836200035e565b806000190482111562000453576200045362000326565b029392505050565b6000620002fa60ff841683620003a7565b6000602082840312156200047f57600080fd5b81518015158114620002fa57600080fd5b61098380620004a06000396000f3fe6080604052600436106100605760003560e01c806307140b341461006557806318bf73231461009b5780631eba02ec146100bb57806350805a71146100db578063cb12b48f146100f0578063d1b39ae514610110578063d8dfeb4514610134575b600080fd5b34801561007157600080fd5b50600254610085906001600160a01b031681565b60405161009291906107bd565b60405180910390f35b3480156100a757600080fd5b50600054610085906001600160a01b031681565b3480156100c757600080fd5b50600154610085906001600160a01b031681565b6100ee6100e93660046107e7565b610154565b005b3480156100fc57600080fd5b50600554610085906001600160a01b031681565b34801561011c57600080fd5b5061012660045481565b604051908152602001610092565b34801561014057600080fd5b50600354610085906001600160a01b031681565b6001600160a01b038416156101f85760055461017f906001600160a01b03868116913391168661047a565b60015460405163095ea7b360e01b81526001600160a01b038681169263095ea7b3926101b3929091169087906004016108ca565b6020604051808303816000875af11580156101d2573d6000803e3d6000fd5b505050506040513d601f19601f820116820180604052508101906101f691906108e3565b505b6003546001600160a01b038581169116146102ba576001546040516000916001600160a01b031690349061022d908590610905565b60006040518083038185875af1925050503d806000811461026a576040519150601f19603f3d011682016040523d82523d6000602084013e61026f565b606091505b50509050806102b85760405162461bcd60e51b815260206004820152601060248201526f1bd91bdcc818d85b1b0819985a5b195960821b60448201526064015b60405180910390fd5b505b600080546003546005546040516370a0823160e01b81526001600160a01b039384169363b6b55f25938116926370a08231926102fc92909116906004016107bd565b602060405180830381865afa158015610319573d6000803e3d6000fd5b505050506040513d601f19601f8201168201806040525081019061033d9190610934565b6040518263ffffffff1660e01b815260040161035b91815260200190565b6020604051808303816000875af115801561037a573d6000803e3d6000fd5b505050506040513d601f19601f8201168201806040525081019061039e9190610934565b9050828110156103f05760405162461bcd60e51b815260206004820152601a60248201527f696e73756666696369656e7420746f6b656e73206d696e74656400000000000060448201526064016102af565b600254610407906001600160a01b031633836104e7565b60035461041c906001600160a01b0316610512565b61042585610512565b83856001600160a01b0316336001600160a01b03167f067a737f9d78c1396c0a860aea6899320c10e7d8622869c89acdd2a8eaa8b99a8460405161046b91815260200190565b60405180910390a45050505050565b6040516001600160a01b0384811660248301528381166044830152606482018390526104e19186918216906323b872dd906084015b604051602081830303815290604052915060e01b6020820180516001600160e01b038381831617835250505050610635565b50505050565b61050d83846001600160a01b031663a9059cbb85856040516024016104af9291906108ca565b505050565b6001600160a01b0381166105235750565b6040516370a0823160e01b81526000906001600160a01b038316906370a08231906105529030906004016107bd565b602060405180830381865afa15801561056f573d6000803e3d6000fd5b505050506040513d601f19601f820116820180604052508101906105939190610934565b9050600081118015610613575060405163a9059cbb60e01b81526001600160a01b0383169063a9059cbb906105ce90339085906004016108ca565b6020604051808303816000875af11580156105ed573d6000803e3d6000fd5b505050506040513d601f19601f8201168201806040525081019061061191906108e3565b155b156106315760405163022e258160e11b815260040160405180910390fd5b5050565b600061064a6001600160a01b0384168361068f565b9050805160001415801561066f57508080602001905181019061066d91906108e3565b155b1561050d5782604051635274afe760e01b81526004016102af91906107bd565b606061069d838360006106a4565b9392505050565b6060814710156106c9573060405163cd78605960e01b81526004016102af91906107bd565b600080856001600160a01b031684866040516106e59190610905565b60006040518083038185875af1925050503d8060008114610722576040519150601f19603f3d011682016040523d82523d6000602084013e610727565b606091505b5091509150610737868383610741565b9695505050505050565b6060826107565761075182610794565b61069d565b815115801561076d57506001600160a01b0384163b155b1561078d5783604051639996b31560e01b81526004016102af91906107bd565b508061069d565b8051156107a45780518082602001fd5b604051630a12f52160e11b815260040160405180910390fd5b6001600160a01b0391909116815260200190565b634e487b7160e01b600052604160045260246000fd5b600080600080608085870312156107fd57600080fd5b84356001600160a01b038116811461081457600080fd5b93506020850135925060408501359150606085013567ffffffffffffffff8082111561083f57600080fd5b818701915087601f83011261085357600080fd5b813581811115610865576108656107d1565b604051601f8201601f19908116603f0116810190838211818310171561088d5761088d6107d1565b816040528281528a60208487010111156108a657600080fd5b82602086016020830137600060208483010152809550505050505092959194509250565b6001600160a01b03929092168252602082015260400190565b6000602082840312156108f557600080fd5b8151801515811461069d57600080fd5b6000825160005b81811015610926576020818601810151858301520161090c565b506000920191825250919050565b60006020828403121561094657600080fd5b505191905056fea264697066735822122012a9ae87e0f3ca6e5e0f2f220060075748050ea96d79c7beab14f18f62d7549464736f6c63430008150033",
  "devdoc": {
    "errors": {
      "AddressEmptyCode(address)": [
        {
          "details": "There's no code at `target` (it is not a contract)."
        }
      ],
      "AddressInsufficientBalance(address)": [
        {
          "details": "The ETH balance of the account is not enough to perform the operation."
        }
      ],
      "FailedInnerCall()": [
        {
          "details": "A call to an address target failed. The target may have reverted."
        }
      ],
      "SafeERC20FailedOperation(address)": [
        {
          "details": "An operation with an ERC20 token failed."
        }
      ]
    },
    "kind": "dev",
    "methods": {},
    "version": 1
  },
  "userdoc": {
    "kind": "user",
    "methods": {},
    "version": 1
  },
  "storageLayout": {
    "storage": [
      {
        "astId": 2438,
        "contract": "contracts/periphery/zaps/implementations/base/ZapMintBase.sol:ZapMintBase",
        "label": "restaker",
        "offset": 0,
        "slot": "0",
        "type": "t_contract(IL2DepositCollateralL0)2368"
      },
      {
        "astId": 2440,
        "contract": "contracts/periphery/zaps/implementations/base/ZapMintBase.sol:ZapMintBase",
        "label": "odos",
        "offset": 0,
        "slot": "1",
        "type": "t_address"
      },
      {
        "astId": 2443,
        "contract": "contracts/periphery/zaps/implementations/base/ZapMintBase.sol:ZapMintBase",
        "label": "zai",
        "offset": 0,
        "slot": "2",
        "type": "t_contract(IERC20)1611"
      },
      {
        "astId": 2446,
        "contract": "contracts/periphery/zaps/implementations/base/ZapMintBase.sol:ZapMintBase",
        "label": "collateral",
        "offset": 0,
        "slot": "3",
        "type": "t_contract(IERC20Metadata)1637"
      },
      {
        "astId": 2448,
        "contract": "contracts/periphery/zaps/implementations/base/ZapMintBase.sol:ZapMintBase",
        "label": "decimalOffset",
        "offset": 0,
        "slot": "4",
        "type": "t_uint256"
      },
      {
        "astId": 2450,
        "contract": "contracts/periphery/zaps/implementations/base/ZapMintBase.sol:ZapMintBase",
        "label": "me",
        "offset": 0,
        "slot": "5",
        "type": "t_address"
      }
    ],
    "types": {
      "t_address": {
        "encoding": "inplace",
        "label": "address",
        "numberOfBytes": "20"
      },
      "t_contract(IERC20)1611": {
        "encoding": "inplace",
        "label": "contract IERC20",
        "numberOfBytes": "20"
      },
      "t_contract(IERC20Metadata)1637": {
        "encoding": "inplace",
        "label": "contract IERC20Metadata",
        "numberOfBytes": "20"
      },
      "t_contract(IL2DepositCollateralL0)2368": {
        "encoding": "inplace",
        "label": "contract IL2DepositCollateralL0",
        "numberOfBytes": "20"
      },
      "t_uint256": {
        "encoding": "inplace",
        "label": "uint256",
        "numberOfBytes": "32"
      }
    }
  }
}