{
  "address": "0x5153c753BFaf3dFFaB76004Ed004c79714f5aA78",
  "abi": [
    {
      "inputs": [
        {
          "internalType": "string",
          "name": "_name",
          "type": "string"
        },
        {
          "internalType": "string",
          "name": "_symbol",
          "type": "string"
        },
        {
          "internalType": "contract IERC20[]",
          "name": "_tokens",
          "type": "address[]"
        }
      ],
      "stateMutability": "nonpayable",
      "type": "constructor"
    },
    {
      "inputs": [
        {
          "internalType": "address",
          "name": "spender",
          "type": "address"
        },
        {
          "internalType": "uint256",
          "name": "allowance",
          "type": "uint256"
        },
        {
          "internalType": "uint256",
          "name": "needed",
          "type": "uint256"
        }
      ],
      "name": "ERC20InsufficientAllowance",
      "type": "error"
    },
    {
      "inputs": [
        {
          "internalType": "address",
          "name": "sender",
          "type": "address"
        },
        {
          "internalType": "uint256",
          "name": "balance",
          "type": "uint256"
        },
        {
          "internalType": "uint256",
          "name": "needed",
          "type": "uint256"
        }
      ],
      "name": "ERC20InsufficientBalance",
      "type": "error"
    },
    {
      "inputs": [
        {
          "internalType": "address",
          "name": "approver",
          "type": "address"
        }
      ],
      "name": "ERC20InvalidApprover",
      "type": "error"
    },
    {
      "inputs": [
        {
          "internalType": "address",
          "name": "receiver",
          "type": "address"
        }
      ],
      "name": "ERC20InvalidReceiver",
      "type": "error"
    },
    {
      "inputs": [
        {
          "internalType": "address",
          "name": "sender",
          "type": "address"
        }
      ],
      "name": "ERC20InvalidSender",
      "type": "error"
    },
    {
      "inputs": [
        {
          "internalType": "address",
          "name": "spender",
          "type": "address"
        }
      ],
      "name": "ERC20InvalidSpender",
      "type": "error"
    },
    {
      "anonymous": false,
      "inputs": [
        {
          "indexed": true,
          "internalType": "address",
          "name": "owner",
          "type": "address"
        },
        {
          "indexed": true,
          "internalType": "address",
          "name": "spender",
          "type": "address"
        },
        {
          "indexed": false,
          "internalType": "uint256",
          "name": "value",
          "type": "uint256"
        }
      ],
      "name": "Approval",
      "type": "event"
    },
    {
      "anonymous": false,
      "inputs": [
        {
          "indexed": true,
          "internalType": "address",
          "name": "from",
          "type": "address"
        },
        {
          "indexed": true,
          "internalType": "address",
          "name": "to",
          "type": "address"
        },
        {
          "indexed": false,
          "internalType": "uint256",
          "name": "value",
          "type": "uint256"
        }
      ],
      "name": "Transfer",
      "type": "event"
    },
    {
      "inputs": [
        {
          "internalType": "address",
          "name": "",
          "type": "address"
        },
        {
          "internalType": "uint256[3]",
          "name": "_amounts",
          "type": "uint256[3]"
        },
        {
          "internalType": "uint256",
          "name": "_min_mint_amount",
          "type": "uint256"
        }
      ],
      "name": "add_liquidity",
      "outputs": [
        {
          "internalType": "uint256",
          "name": "sum",
          "type": "uint256"
        }
      ],
      "stateMutability": "nonpayable",
      "type": "function"
    },
    {
      "inputs": [
        {
          "internalType": "uint256[]",
          "name": "_amounts",
          "type": "uint256[]"
        },
        {
          "internalType": "uint256",
          "name": "_min_mint_amount",
          "type": "uint256"
        },
        {
          "internalType": "address",
          "name": "_receiver",
          "type": "address"
        }
      ],
      "name": "add_liquidity",
      "outputs": [
        {
          "internalType": "uint256",
          "name": "sum",
          "type": "uint256"
        }
      ],
      "stateMutability": "nonpayable",
      "type": "function"
    },
    {
      "inputs": [
        {
          "internalType": "address",
          "name": "owner",
          "type": "address"
        },
        {
          "internalType": "address",
          "name": "spender",
          "type": "address"
        }
      ],
      "name": "allowance",
      "outputs": [
        {
          "internalType": "uint256",
          "name": "",
          "type": "uint256"
        }
      ],
      "stateMutability": "view",
      "type": "function"
    },
    {
      "inputs": [
        {
          "internalType": "address",
          "name": "spender",
          "type": "address"
        },
        {
          "internalType": "uint256",
          "name": "value",
          "type": "uint256"
        }
      ],
      "name": "approve",
      "outputs": [
        {
          "internalType": "bool",
          "name": "",
          "type": "bool"
        }
      ],
      "stateMutability": "nonpayable",
      "type": "function"
    },
    {
      "inputs": [
        {
          "internalType": "address",
          "name": "account",
          "type": "address"
        }
      ],
      "name": "balanceOf",
      "outputs": [
        {
          "internalType": "uint256",
          "name": "",
          "type": "uint256"
        }
      ],
      "stateMutability": "view",
      "type": "function"
    },
    {
      "inputs": [
        {
          "internalType": "address",
          "name": "_to",
          "type": "address"
        },
        {
          "internalType": "uint256",
          "name": "_amount",
          "type": "uint256"
        }
      ],
      "name": "burn",
      "outputs": [],
      "stateMutability": "nonpayable",
      "type": "function"
    },
    {
      "inputs": [
        {
          "internalType": "uint256[]",
          "name": "_amounts",
          "type": "uint256[]"
        },
        {
          "internalType": "bool",
          "name": "",
          "type": "bool"
        }
      ],
      "name": "calc_token_amount",
      "outputs": [
        {
          "internalType": "uint256",
          "name": "sum",
          "type": "uint256"
        }
      ],
      "stateMutability": "view",
      "type": "function"
    },
    {
      "inputs": [],
      "name": "decimals",
      "outputs": [
        {
          "internalType": "uint8",
          "name": "",
          "type": "uint8"
        }
      ],
      "stateMutability": "view",
      "type": "function"
    },
    {
      "inputs": [
        {
          "internalType": "address",
          "name": "_to",
          "type": "address"
        },
        {
          "internalType": "uint256",
          "name": "_amount",
          "type": "uint256"
        }
      ],
      "name": "mint",
      "outputs": [],
      "stateMutability": "nonpayable",
      "type": "function"
    },
    {
      "inputs": [],
      "name": "name",
      "outputs": [
        {
          "internalType": "string",
          "name": "",
          "type": "string"
        }
      ],
      "stateMutability": "view",
      "type": "function"
    },
    {
      "inputs": [],
      "name": "symbol",
      "outputs": [
        {
          "internalType": "string",
          "name": "",
          "type": "string"
        }
      ],
      "stateMutability": "view",
      "type": "function"
    },
    {
      "inputs": [],
      "name": "totalSupply",
      "outputs": [
        {
          "internalType": "uint256",
          "name": "",
          "type": "uint256"
        }
      ],
      "stateMutability": "view",
      "type": "function"
    },
    {
      "inputs": [
        {
          "internalType": "address",
          "name": "to",
          "type": "address"
        },
        {
          "internalType": "uint256",
          "name": "value",
          "type": "uint256"
        }
      ],
      "name": "transfer",
      "outputs": [
        {
          "internalType": "bool",
          "name": "",
          "type": "bool"
        }
      ],
      "stateMutability": "nonpayable",
      "type": "function"
    },
    {
      "inputs": [
        {
          "internalType": "address",
          "name": "from",
          "type": "address"
        },
        {
          "internalType": "address",
          "name": "to",
          "type": "address"
        },
        {
          "internalType": "uint256",
          "name": "value",
          "type": "uint256"
        }
      ],
      "name": "transferFrom",
      "outputs": [
        {
          "internalType": "bool",
          "name": "",
          "type": "bool"
        }
      ],
      "stateMutability": "nonpayable",
      "type": "function"
    }
  ],
  "transactionHash": "0xef276906555a9fb9b4b1f5fc9f68fee03dfc782575aa8edca02346639e53ec62",
  "args": [
    "curve",
    "curve",
    [
      "0x21F0F750E2d576AD5d01cFDDcF2095e8DA5b0fb0",
      "0x14F35dd7Fc90EB577b79d3dE945a949c06D09DD2"
    ]
  ],
  "numDeployments": 1,
  "solcInputHash": "bf587503504f04f1a1890cac65205583",
  "bytecode": "0x60806040523480156200001157600080fd5b50604051620012cc380380620012cc8339810160408190526200003491620001cc565b8282600362000044838262000372565b50600462000053828262000372565b505081516200006b9150600590602084019062000075565b505050506200043e565b828054828255906000526020600020908101928215620000cd579160200282015b82811115620000cd57825182546001600160a01b0319166001600160a01b0390911617825560209092019160019091019062000096565b50620000db929150620000df565b5090565b5b80821115620000db5760008155600101620000e0565b634e487b7160e01b600052604160045260246000fd5b604051601f8201601f191681016001600160401b0381118282101715620001375762000137620000f6565b604052919050565b600082601f8301126200015157600080fd5b81516001600160401b038111156200016d576200016d620000f6565b602062000183601f8301601f191682016200010c565b82815285828487010111156200019857600080fd5b60005b83811015620001b85785810183015182820184015282016200019b565b506000928101909101919091529392505050565b600080600060608486031215620001e257600080fd5b83516001600160401b0380821115620001fa57600080fd5b62000208878388016200013f565b94506020915081860151818111156200022057600080fd5b6200022e888289016200013f565b9450506040860151818111156200024457600080fd5b8601601f810188136200025657600080fd5b8051828111156200026b576200026b620000f6565b8060051b92506200027e8484016200010c565b818152928201840192848101908a8511156200029957600080fd5b928501925b84841015620002d357835192506001600160a01b0383168314620002c25760008081fd5b82825292850192908501906200029e565b8096505050505050509250925092565b600181811c90821680620002f857607f821691505b6020821081036200031957634e487b7160e01b600052602260045260246000fd5b50919050565b601f8211156200036d57600081815260208120601f850160051c81016020861015620003485750805b601f850160051c820191505b81811015620003695782815560010162000354565b5050505b505050565b81516001600160401b038111156200038e576200038e620000f6565b620003a6816200039f8454620002e3565b846200031f565b602080601f831160018114620003de5760008415620003c55750858301515b600019600386901b1c1916600185901b17855562000369565b600085815260208120601f198616915b828110156200040f57888601518255948401946001909101908401620003ee565b50858210156200042e5787850151600019600388901b60f8161c191681555b5050505050600190811b01905550565b610e7e806200044e6000396000f3fe608060405234801561001057600080fd5b50600436106100ea5760003560e01c806370a082311161008c578063a318517911610066578063a3185179146101d0578063a7256d09146101e3578063a9059cbb146101f6578063dd62ed3e1461020957600080fd5b806370a082311461018c57806395d89b41146101b55780639dc29fac146101bd57600080fd5b806323b872dd116100c857806323b872dd14610142578063313ce567146101555780633db06dd81461016457806340c10f191461017757600080fd5b806306fdde03146100ef578063095ea7b31461010d57806318160ddd14610130575b600080fd5b6100f7610242565b6040516101049190610a7c565b60405180910390f35b61012061011b366004610ae6565b6102d4565b6040519015158152602001610104565b6002545b604051908152602001610104565b610120610150366004610b10565b6102ee565b60405160128152602001610104565b610134610172366004610c0e565b610314565b61018a610185366004610ae6565b610362565b005b61013461019a366004610c60565b6001600160a01b031660009081526020819052604090205490565b6100f7610370565b61018a6101cb366004610ae6565b61037f565b6101346101de366004610c7b565b610389565b6101346101f1366004610d0f565b610511565b610120610204366004610ae6565b6106b0565b610134610217366004610d66565b6001600160a01b03918216600090815260016020908152604080832093909416825291909152205490565b60606003805461025190610d99565b80601f016020809104026020016040519081016040528092919081815260200182805461027d90610d99565b80156102ca5780601f1061029f576101008083540402835291602001916102ca565b820191906000526020600020905b8154815290600101906020018083116102ad57829003601f168201915b5050505050905090565b6000336102e28185856106be565b60019150505b92915050565b6000336102fc8582856106d0565b610307858585610767565b60019150505b9392505050565b6000805b60055481101561035b5783818151811061033457610334610dd3565b6020026020010151826103479190610dff565b91508061035381610e12565b915050610318565b5092915050565b61036c82826107c6565b5050565b60606004805461025190610d99565b61036c82826107fc565b6000805b6005548110156104a357600581815481106103aa576103aa610dd3565b6000918252602090912001546001600160a01b03166323b872dd33308785600381106103d8576103d8610dd3565b60200201516040517fffffffff0000000000000000000000000000000000000000000000000000000060e086901b1681526001600160a01b03938416600482015292909116602483015260448201526064016020604051808303816000875af1158015610449573d6000803e3d6000fd5b505050506040513d601f19601f8201168201806040525081019061046d9190610e2b565b5083816003811061048057610480610dd3565b602002015161048f9083610dff565b91508061049b81610e12565b91505061038d565b50818110156105075760405162461bcd60e51b815260206004820152602560248201527f4d6f636b4375727665506f6f6c3a20494e53554646494349454e545f4c495155604482015264494449545960d81b60648201526084015b60405180910390fd5b61030d33826107c6565b6000805b600554811015610647576005818154811061053257610532610dd3565b9060005260206000200160009054906101000a90046001600160a01b03166001600160a01b03166323b872dd333088858151811061057257610572610dd3565b60209081029190910101516040517fffffffff0000000000000000000000000000000000000000000000000000000060e086901b1681526001600160a01b03938416600482015292909116602483015260448201526064016020604051808303816000875af11580156105e9573d6000803e3d6000fd5b505050506040513d601f19601f8201168201806040525081019061060d9190610e2b565b5084818151811061062057610620610dd3565b6020026020010151826106339190610dff565b91508061063f81610e12565b915050610515565b50828110156106a65760405162461bcd60e51b815260206004820152602560248201527f4d6f636b4375727665506f6f6c3a20494e53554646494349454e545f4c495155604482015264494449545960d81b60648201526084016104fe565b61030d82826107c6565b6000336102e2818585610767565b6106cb8383836001610832565b505050565b6001600160a01b0383811660009081526001602090815260408083209386168352929052205460001981146107615781811015610752576040517ffb8f41b20000000000000000000000000000000000000000000000000000000081526001600160a01b038416600482015260248101829052604481018390526064016104fe565b61076184848484036000610832565b50505050565b6001600160a01b03831661079157604051634b637e8f60e11b8152600060048201526024016104fe565b6001600160a01b0382166107bb5760405163ec442f0560e01b8152600060048201526024016104fe565b6106cb838383610939565b6001600160a01b0382166107f05760405163ec442f0560e01b8152600060048201526024016104fe565b61036c60008383610939565b6001600160a01b03821661082657604051634b637e8f60e11b8152600060048201526024016104fe565b61036c82600083610939565b6001600160a01b038416610875576040517fe602df05000000000000000000000000000000000000000000000000000000008152600060048201526024016104fe565b6001600160a01b0383166108b8576040517f94280d62000000000000000000000000000000000000000000000000000000008152600060048201526024016104fe565b6001600160a01b038085166000908152600160209081526040808320938716835292905220829055801561076157826001600160a01b0316846001600160a01b03167f8c5be1e5ebec7d5bd14f71427d1e84f3dd0314c0f7b2291e5b200ac8c7c3b9258460405161092b91815260200190565b60405180910390a350505050565b6001600160a01b0383166109645780600260008282546109599190610dff565b909155506109ef9050565b6001600160a01b038316600090815260208190526040902054818110156109d0576040517fe450d38c0000000000000000000000000000000000000000000000000000000081526001600160a01b038516600482015260248101829052604481018390526064016104fe565b6001600160a01b03841660009081526020819052604090209082900390555b6001600160a01b038216610a0b57600280548290039055610a2a565b6001600160a01b03821660009081526020819052604090208054820190555b816001600160a01b0316836001600160a01b03167fddf252ad1be2c89b69c2b068fc378daa952ba7f163c4a11628f55a4df523b3ef83604051610a6f91815260200190565b60405180910390a3505050565b600060208083528351808285015260005b81811015610aa957858101830151858201604001528201610a8d565b506000604082860101526040601f19601f8301168501019250505092915050565b80356001600160a01b0381168114610ae157600080fd5b919050565b60008060408385031215610af957600080fd5b610b0283610aca565b946020939093013593505050565b600080600060608486031215610b2557600080fd5b610b2e84610aca565b9250610b3c60208501610aca565b9150604084013590509250925092565b634e487b7160e01b600052604160045260246000fd5b600082601f830112610b7357600080fd5b8135602067ffffffffffffffff80831115610b9057610b90610b4c565b8260051b604051601f19603f83011681018181108482111715610bb557610bb5610b4c565b604052938452858101830193838101925087851115610bd357600080fd5b83870191505b84821015610bf257813583529183019190830190610bd9565b979650505050505050565b8015158114610c0b57600080fd5b50565b60008060408385031215610c2157600080fd5b823567ffffffffffffffff811115610c3857600080fd5b610c4485828601610b62565b9250506020830135610c5581610bfd565b809150509250929050565b600060208284031215610c7257600080fd5b61030d82610aca565b600080600060a08486031215610c9057600080fd5b610c9984610aca565b9250602085603f860112610cac57600080fd5b6040516060810181811067ffffffffffffffff82111715610ccf57610ccf610b4c565b604052806080870188811115610ce457600080fd5b8388015b81811015610cff5780358352918401918401610ce8565b5095989197505093359450505050565b600080600060608486031215610d2457600080fd5b833567ffffffffffffffff811115610d3b57600080fd5b610d4786828701610b62565b93505060208401359150610d5d60408501610aca565b90509250925092565b60008060408385031215610d7957600080fd5b610d8283610aca565b9150610d9060208401610aca565b90509250929050565b600181811c90821680610dad57607f821691505b602082108103610dcd57634e487b7160e01b600052602260045260246000fd5b50919050565b634e487b7160e01b600052603260045260246000fd5b634e487b7160e01b600052601160045260246000fd5b808201808211156102e8576102e8610de9565b600060018201610e2457610e24610de9565b5060010190565b600060208284031215610e3d57600080fd5b815161030d81610bfd56fea264697066735822122002a2b09ee6929e6134579d5fef97bad3e4dbf48255292450bd712631b11c693a64736f6c63430008150033",
  "devdoc": {
    "errors": {
      "ERC20InsufficientAllowance(address,uint256,uint256)": [
        {
          "details": "Indicates a failure with the `spender`s `allowance`. Used in transfers.",
          "params": {
            "allowance": "Amount of tokens a `spender` is allowed to operate with.",
            "needed": "Minimum amount required to perform a transfer.",
            "spender": "Address that may be allowed to operate on tokens without being their owner."
          }
        }
      ],
      "ERC20InsufficientBalance(address,uint256,uint256)": [
        {
          "details": "Indicates an error related to the current `balance` of a `sender`. Used in transfers.",
          "params": {
            "balance": "Current balance for the interacting account.",
            "needed": "Minimum amount required to perform a transfer.",
            "sender": "Address whose tokens are being transferred."
          }
        }
      ],
      "ERC20InvalidApprover(address)": [
        {
          "details": "Indicates a failure with the `approver` of a token to be approved. Used in approvals.",
          "params": {
            "approver": "Address initiating an approval operation."
          }
        }
      ],
      "ERC20InvalidReceiver(address)": [
        {
          "details": "Indicates a failure with the token `receiver`. Used in transfers.",
          "params": {
            "receiver": "Address to which tokens are being transferred."
          }
        }
      ],
      "ERC20InvalidSender(address)": [
        {
          "details": "Indicates a failure with the token `sender`. Used in transfers.",
          "params": {
            "sender": "Address whose tokens are being transferred."
          }
        }
      ],
      "ERC20InvalidSpender(address)": [
        {
          "details": "Indicates a failure with the `spender` to be approved. Used in approvals.",
          "params": {
            "spender": "Address that may be allowed to operate on tokens without being their owner."
          }
        }
      ]
    },
    "events": {
      "Approval(address,address,uint256)": {
        "details": "Emitted when the allowance of a `spender` for an `owner` is set by a call to {approve}. `value` is the new allowance."
      },
      "Transfer(address,address,uint256)": {
        "details": "Emitted when `value` tokens are moved from one account (`from`) to another (`to`). Note that `value` may be zero."
      }
    },
    "kind": "dev",
    "methods": {
      "allowance(address,address)": {
        "details": "See {IERC20-allowance}."
      },
      "approve(address,uint256)": {
        "details": "See {IERC20-approve}. NOTE: If `value` is the maximum `uint256`, the allowance is not updated on `transferFrom`. This is semantically equivalent to an infinite approval. Requirements: - `spender` cannot be the zero address."
      },
      "balanceOf(address)": {
        "details": "See {IERC20-balanceOf}."
      },
      "decimals()": {
        "details": "Returns the number of decimals used to get its user representation. For example, if `decimals` equals `2`, a balance of `505` tokens should be displayed to a user as `5.05` (`505 / 10 ** 2`). Tokens usually opt for a value of 18, imitating the relationship between Ether and Wei. This is the default value returned by this function, unless it's overridden. NOTE: This information is only used for _display_ purposes: it in no way affects any of the arithmetic of the contract, including {IERC20-balanceOf} and {IERC20-transfer}."
      },
      "name()": {
        "details": "Returns the name of the token."
      },
      "symbol()": {
        "details": "Returns the symbol of the token, usually a shorter version of the name."
      },
      "totalSupply()": {
        "details": "See {IERC20-totalSupply}."
      },
      "transfer(address,uint256)": {
        "details": "See {IERC20-transfer}. Requirements: - `to` cannot be the zero address. - the caller must have a balance of at least `value`."
      },
      "transferFrom(address,address,uint256)": {
        "details": "See {IERC20-transferFrom}. Emits an {Approval} event indicating the updated allowance. This is not required by the EIP. See the note at the beginning of {ERC20}. NOTE: Does not update the allowance if the current allowance is the maximum `uint256`. Requirements: - `from` and `to` cannot be the zero address. - `from` must have a balance of at least `value`. - the caller must have allowance for ``from``'s tokens of at least `value`."
      }
    },
    "version": 1
  },
  "userdoc": {
    "kind": "user",
    "methods": {},
    "version": 1
  },
  "storageLayout": {
    "storage": [
      {
        "astId": 9796,
        "contract": "contracts/mocks/MockCurvePool.sol:MockCurvePool",
        "label": "_balances",
        "offset": 0,
        "slot": "0",
        "type": "t_mapping(t_address,t_uint256)"
      },
      {
        "astId": 9802,
        "contract": "contracts/mocks/MockCurvePool.sol:MockCurvePool",
        "label": "_allowances",
        "offset": 0,
        "slot": "1",
        "type": "t_mapping(t_address,t_mapping(t_address,t_uint256))"
      },
      {
        "astId": 9804,
        "contract": "contracts/mocks/MockCurvePool.sol:MockCurvePool",
        "label": "_totalSupply",
        "offset": 0,
        "slot": "2",
        "type": "t_uint256"
      },
      {
        "astId": 9806,
        "contract": "contracts/mocks/MockCurvePool.sol:MockCurvePool",
        "label": "_name",
        "offset": 0,
        "slot": "3",
        "type": "t_string_storage"
      },
      {
        "astId": 9808,
        "contract": "contracts/mocks/MockCurvePool.sol:MockCurvePool",
        "label": "_symbol",
        "offset": 0,
        "slot": "4",
        "type": "t_string_storage"
      },
      {
        "astId": 28036,
        "contract": "contracts/mocks/MockCurvePool.sol:MockCurvePool",
        "label": "tokens",
        "offset": 0,
        "slot": "5",
        "type": "t_array(t_contract(IERC20)10366)dyn_storage"
      }
    ],
    "types": {
      "t_address": {
        "encoding": "inplace",
        "label": "address",
        "numberOfBytes": "20"
      },
      "t_array(t_contract(IERC20)10366)dyn_storage": {
        "base": "t_contract(IERC20)10366",
        "encoding": "dynamic_array",
        "label": "contract IERC20[]",
        "numberOfBytes": "32"
      },
      "t_contract(IERC20)10366": {
        "encoding": "inplace",
        "label": "contract IERC20",
        "numberOfBytes": "20"
      },
      "t_mapping(t_address,t_mapping(t_address,t_uint256))": {
        "encoding": "mapping",
        "key": "t_address",
        "label": "mapping(address => mapping(address => uint256))",
        "numberOfBytes": "32",
        "value": "t_mapping(t_address,t_uint256)"
      },
      "t_mapping(t_address,t_uint256)": {
        "encoding": "mapping",
        "key": "t_address",
        "label": "mapping(address => uint256)",
        "numberOfBytes": "32",
        "value": "t_uint256"
      },
      "t_string_storage": {
        "encoding": "bytes",
        "label": "string",
        "numberOfBytes": "32"
      },
      "t_uint256": {
        "encoding": "inplace",
        "label": "uint256",
        "numberOfBytes": "32"
      }
    }
  }
}