{
  "address": "0xe1a28aB23Fe5a7B094a471fda700a47c4B4a1F69",
  "abi": [
    {
      "inputs": [],
      "name": "InvalidInitialization",
      "type": "error"
    },
    {
      "inputs": [],
      "name": "NotInitializing",
      "type": "error"
    },
    {
      "inputs": [
        {
          "internalType": "address",
          "name": "owner",
          "type": "address"
        }
      ],
      "name": "OwnableInvalidOwner",
      "type": "error"
    },
    {
      "inputs": [
        {
          "internalType": "address",
          "name": "account",
          "type": "address"
        }
      ],
      "name": "OwnableUnauthorizedAccount",
      "type": "error"
    },
    {
      "inputs": [],
      "name": "ReentrancyGuardReentrantCall",
      "type": "error"
    },
    {
      "anonymous": false,
      "inputs": [
        {
          "indexed": true,
          "internalType": "address",
          "name": "_newFeeDestination",
          "type": "address"
        },
        {
          "indexed": true,
          "internalType": "address",
          "name": "_oldFeeDestination",
          "type": "address"
        },
        {
          "indexed": false,
          "internalType": "address",
          "name": "sender",
          "type": "address"
        }
      ],
      "name": "FeeDestinationUpdated",
      "type": "event"
    },
    {
      "anonymous": false,
      "inputs": [
        {
          "indexed": true,
          "internalType": "uint256",
          "name": "_newMintFeeBps",
          "type": "uint256"
        },
        {
          "indexed": true,
          "internalType": "uint256",
          "name": "_newRedeemFeeBps",
          "type": "uint256"
        },
        {
          "indexed": false,
          "internalType": "uint256",
          "name": "_oldMintFeeBps",
          "type": "uint256"
        },
        {
          "indexed": false,
          "internalType": "uint256",
          "name": "_oldRedeemFeeBps",
          "type": "uint256"
        },
        {
          "indexed": false,
          "internalType": "address",
          "name": "sender",
          "type": "address"
        }
      ],
      "name": "FeesUpdated",
      "type": "event"
    },
    {
      "anonymous": false,
      "inputs": [
        {
          "indexed": false,
          "internalType": "uint64",
          "name": "version",
          "type": "uint64"
        }
      ],
      "name": "Initialized",
      "type": "event"
    },
    {
      "anonymous": false,
      "inputs": [
        {
          "indexed": true,
          "internalType": "address",
          "name": "destination",
          "type": "address"
        },
        {
          "indexed": true,
          "internalType": "uint256",
          "name": "shares",
          "type": "uint256"
        },
        {
          "indexed": true,
          "internalType": "uint256",
          "name": "amount",
          "type": "uint256"
        },
        {
          "indexed": false,
          "internalType": "uint256",
          "name": "newDebt",
          "type": "uint256"
        },
        {
          "indexed": false,
          "internalType": "uint256",
          "name": "supplyCap",
          "type": "uint256"
        },
        {
          "indexed": false,
          "internalType": "address",
          "name": "sender",
          "type": "address"
        }
      ],
      "name": "Mint",
      "type": "event"
    },
    {
      "anonymous": false,
      "inputs": [
        {
          "indexed": true,
          "internalType": "address",
          "name": "previousOwner",
          "type": "address"
        },
        {
          "indexed": true,
          "internalType": "address",
          "name": "newOwner",
          "type": "address"
        }
      ],
      "name": "OwnershipTransferred",
      "type": "event"
    },
    {
      "anonymous": false,
      "inputs": [
        {
          "indexed": true,
          "internalType": "uint256",
          "name": "oldRate",
          "type": "uint256"
        },
        {
          "indexed": true,
          "internalType": "uint256",
          "name": "newRate",
          "type": "uint256"
        },
        {
          "indexed": false,
          "internalType": "address",
          "name": "sender",
          "type": "address"
        }
      ],
      "name": "RateUpdated",
      "type": "event"
    },
    {
      "anonymous": false,
      "inputs": [
        {
          "indexed": true,
          "internalType": "address",
          "name": "destination",
          "type": "address"
        },
        {
          "indexed": true,
          "internalType": "uint256",
          "name": "shares",
          "type": "uint256"
        },
        {
          "indexed": true,
          "internalType": "uint256",
          "name": "amount",
          "type": "uint256"
        },
        {
          "indexed": false,
          "internalType": "uint256",
          "name": "newDebt",
          "type": "uint256"
        },
        {
          "indexed": false,
          "internalType": "uint256",
          "name": "supplyCap",
          "type": "uint256"
        },
        {
          "indexed": false,
          "internalType": "address",
          "name": "sender",
          "type": "address"
        }
      ],
      "name": "Redeem",
      "type": "event"
    },
    {
      "anonymous": false,
      "inputs": [
        {
          "indexed": true,
          "internalType": "uint256",
          "name": "_newSupplyCap",
          "type": "uint256"
        },
        {
          "indexed": true,
          "internalType": "uint256",
          "name": "_newDebtCap",
          "type": "uint256"
        },
        {
          "indexed": false,
          "internalType": "uint256",
          "name": "_oldSupplyCap",
          "type": "uint256"
        },
        {
          "indexed": false,
          "internalType": "uint256",
          "name": "_oldDebtCap",
          "type": "uint256"
        },
        {
          "indexed": false,
          "internalType": "address",
          "name": "sender",
          "type": "address"
        }
      ],
      "name": "SupplyCapUpdated",
      "type": "event"
    },
    {
      "inputs": [],
      "name": "MAX_FEE_BPS",
      "outputs": [
        {
          "internalType": "uint256",
          "name": "",
          "type": "uint256"
        }
      ],
      "stateMutability": "view",
      "type": "function"
    },
    {
      "inputs": [],
      "name": "collateral",
      "outputs": [
        {
          "internalType": "contract IERC20",
          "name": "",
          "type": "address"
        }
      ],
      "stateMutability": "view",
      "type": "function"
    },
    {
      "inputs": [],
      "name": "debt",
      "outputs": [
        {
          "internalType": "uint256",
          "name": "",
          "type": "uint256"
        }
      ],
      "stateMutability": "view",
      "type": "function"
    },
    {
      "inputs": [],
      "name": "debtCap",
      "outputs": [
        {
          "internalType": "uint256",
          "name": "",
          "type": "uint256"
        }
      ],
      "stateMutability": "view",
      "type": "function"
    },
    {
      "inputs": [],
      "name": "feeDestination",
      "outputs": [
        {
          "internalType": "address",
          "name": "",
          "type": "address"
        }
      ],
      "stateMutability": "view",
      "type": "function"
    },
    {
      "inputs": [],
      "name": "feesCollected",
      "outputs": [
        {
          "internalType": "uint256",
          "name": "",
          "type": "uint256"
        }
      ],
      "stateMutability": "view",
      "type": "function"
    },
    {
      "inputs": [
        {
          "internalType": "address",
          "name": "_zai",
          "type": "address"
        },
        {
          "internalType": "address",
          "name": "_collateral",
          "type": "address"
        },
        {
          "internalType": "address",
          "name": "_governance",
          "type": "address"
        },
        {
          "internalType": "uint256",
          "name": "_newRate",
          "type": "uint256"
        },
        {
          "internalType": "uint256",
          "name": "_supplyCap",
          "type": "uint256"
        },
        {
          "internalType": "uint256",
          "name": "_debtCap",
          "type": "uint256"
        },
        {
          "internalType": "uint256",
          "name": "_mintFeeBps",
          "type": "uint256"
        },
        {
          "internalType": "uint256",
          "name": "_redeemFeeBps",
          "type": "uint256"
        },
        {
          "internalType": "address",
          "name": "_feeDestination",
          "type": "address"
        }
      ],
      "name": "initialize",
      "outputs": [],
      "stateMutability": "nonpayable",
      "type": "function"
    },
    {
      "inputs": [
        {
          "internalType": "address",
          "name": "dest",
          "type": "address"
        },
        {
          "internalType": "uint256",
          "name": "shares",
          "type": "uint256"
        }
      ],
      "name": "mint",
      "outputs": [],
      "stateMutability": "nonpayable",
      "type": "function"
    },
    {
      "inputs": [
        {
          "internalType": "uint256",
          "name": "amountAssetsIn",
          "type": "uint256"
        }
      ],
      "name": "mintAmountIn",
      "outputs": [
        {
          "internalType": "uint256",
          "name": "shares",
          "type": "uint256"
        }
      ],
      "stateMutability": "view",
      "type": "function"
    },
    {
      "inputs": [],
      "name": "mintFeeBps",
      "outputs": [
        {
          "internalType": "uint256",
          "name": "",
          "type": "uint256"
        }
      ],
      "stateMutability": "view",
      "type": "function"
    },
    {
      "inputs": [],
      "name": "owner",
      "outputs": [
        {
          "internalType": "address",
          "name": "",
          "type": "address"
        }
      ],
      "stateMutability": "view",
      "type": "function"
    },
    {
      "inputs": [],
      "name": "rate",
      "outputs": [
        {
          "internalType": "uint256",
          "name": "",
          "type": "uint256"
        }
      ],
      "stateMutability": "view",
      "type": "function"
    },
    {
      "inputs": [
        {
          "internalType": "address",
          "name": "dest",
          "type": "address"
        },
        {
          "internalType": "uint256",
          "name": "shares",
          "type": "uint256"
        }
      ],
      "name": "redeem",
      "outputs": [],
      "stateMutability": "nonpayable",
      "type": "function"
    },
    {
      "inputs": [
        {
          "internalType": "uint256",
          "name": "amountAssetsOut",
          "type": "uint256"
        }
      ],
      "name": "redeemAmountOut",
      "outputs": [
        {
          "internalType": "uint256",
          "name": "shares",
          "type": "uint256"
        }
      ],
      "stateMutability": "view",
      "type": "function"
    },
    {
      "inputs": [],
      "name": "redeemFeeBps",
      "outputs": [
        {
          "internalType": "uint256",
          "name": "",
          "type": "uint256"
        }
      ],
      "stateMutability": "view",
      "type": "function"
    },
    {
      "inputs": [],
      "name": "renounceOwnership",
      "outputs": [],
      "stateMutability": "nonpayable",
      "type": "function"
    },
    {
      "inputs": [],
      "name": "supplyCap",
      "outputs": [
        {
          "internalType": "uint256",
          "name": "",
          "type": "uint256"
        }
      ],
      "stateMutability": "view",
      "type": "function"
    },
    {
      "inputs": [],
      "name": "sweepFees",
      "outputs": [],
      "stateMutability": "nonpayable",
      "type": "function"
    },
    {
      "inputs": [
        {
          "internalType": "uint256",
          "name": "_amount",
          "type": "uint256"
        }
      ],
      "name": "toCollateralAmount",
      "outputs": [
        {
          "internalType": "uint256",
          "name": "",
          "type": "uint256"
        }
      ],
      "stateMutability": "view",
      "type": "function"
    },
    {
      "inputs": [
        {
          "internalType": "uint256",
          "name": "_amount",
          "type": "uint256"
        },
        {
          "internalType": "uint256",
          "name": "_fee",
          "type": "uint256"
        }
      ],
      "name": "toCollateralAmountWithFee",
      "outputs": [
        {
          "internalType": "uint256",
          "name": "",
          "type": "uint256"
        }
      ],
      "stateMutability": "view",
      "type": "function"
    },
    {
      "inputs": [
        {
          "internalType": "uint256",
          "name": "_amount",
          "type": "uint256"
        },
        {
          "internalType": "uint256",
          "name": "_fee",
          "type": "uint256"
        }
      ],
      "name": "toCollateralAmountWithFeeInverse",
      "outputs": [
        {
          "internalType": "uint256",
          "name": "",
          "type": "uint256"
        }
      ],
      "stateMutability": "view",
      "type": "function"
    },
    {
      "inputs": [
        {
          "internalType": "address",
          "name": "newOwner",
          "type": "address"
        }
      ],
      "name": "transferOwnership",
      "outputs": [],
      "stateMutability": "nonpayable",
      "type": "function"
    },
    {
      "inputs": [
        {
          "internalType": "uint256",
          "name": "_supplyCap",
          "type": "uint256"
        },
        {
          "internalType": "uint256",
          "name": "_debtCap",
          "type": "uint256"
        }
      ],
      "name": "updateCaps",
      "outputs": [],
      "stateMutability": "nonpayable",
      "type": "function"
    },
    {
      "inputs": [
        {
          "internalType": "address",
          "name": "_feeDestination",
          "type": "address"
        }
      ],
      "name": "updateFeeDestination",
      "outputs": [],
      "stateMutability": "nonpayable",
      "type": "function"
    },
    {
      "inputs": [
        {
          "internalType": "uint256",
          "name": "_mintFeeBps",
          "type": "uint256"
        },
        {
          "internalType": "uint256",
          "name": "_redeemFeeBps",
          "type": "uint256"
        }
      ],
      "name": "updateFees",
      "outputs": [],
      "stateMutability": "nonpayable",
      "type": "function"
    },
    {
      "inputs": [
        {
          "internalType": "uint256",
          "name": "_newRate",
          "type": "uint256"
        }
      ],
      "name": "updateRate",
      "outputs": [],
      "stateMutability": "nonpayable",
      "type": "function"
    },
    {
      "inputs": [],
      "name": "zai",
      "outputs": [
        {
          "internalType": "contract IStablecoin",
          "name": "",
          "type": "address"
        }
      ],
      "stateMutability": "view",
      "type": "function"
    }
  ],
  "transactionHash": "0x7775e63726c44a4273f42a000fafb8a2ce6769b4a2e9c8ad11c0862716673fed",
  "args": [],
  "numDeployments": 2,
  "solcInputHash": "03ac189186feda8bf396f1a585b449d4",
  "bytecode": "0x608060405234801561001057600080fd5b506112bb806100206000396000f3fe608060405234801561001057600080fd5b50600436106101b95760003560e01c8063715018a6116100f9578063d55be8c611610097578063de53fcd511610071578063de53fcd514610361578063f071db5a14610374578063f2fde38b1461037c578063f5320fd81461038f57600080fd5b8063d55be8c614610332578063d8dfeb451461033b578063dd62aefb1461034e57600080fd5b806397c8bcc1116100d357806397c8bcc1146102fb578063a371149814610304578063bb5dc18914610317578063d113b95c1461032a57600080fd5b8063715018a6146102ba5780638da5cb5b146102c25780638f770ad0146102f257600080fd5b80632c4e722e116101665780635dc2e5d1116101405780635dc2e5d11461026e57806366bea2281461028157806369ea1771146102945780636db79437146102a757600080fd5b80632c4e722e1461024957806331486c061461025257806340c10f191461025b57600080fd5b80630eb26499116101975780630eb264991461020e5780631e9a6950146102235780631f80b95a1461023657600080fd5b806307140b34146101be57806309f6442c146101ee5780630dca59c114610205575b600080fd5b6000546101d1906001600160a01b031681565b6040516001600160a01b0390911681526020015b60405180910390f35b6101f760075481565b6040519081526020016101e5565b6101f760045481565b61022161021c3660046110b4565b6103a2565b005b6102216102313660046110f2565b6103b8565b6101f761024436600461111c565b610647565b6101f760055481565b6101f760035481565b6102216102693660046110f2565b610695565b61022161027c366004611135565b610988565b6101f761028f36600461111c565b61099c565b6102216102a236600461111c565b6109b5565b6102216102b53660046110b4565b6109c6565b6102216109d8565b7f9016d09d72d40fdae2fd8ceac6b6234c7706214fd39c1cd1e609a0528c199300546001600160a01b03166101d1565b6101f760025481565b6101f760065481565b610221610312366004611150565b6109ec565b6101f761032536600461111c565b610b6d565b610221610b82565b6101f760095481565b6001546101d1906001600160a01b031681565b6101f761035c3660046110b4565b610c2a565b6008546101d1906001600160a01b031681565b6101f7610c5e565b61022161038a366004611135565b610ce2565b6101f761039d3660046110b4565b610d36565b6103aa610d46565b6103b48282610dba565b5050565b6103c0610e1a565b60006103ce82600754610d36565b9050600081116104255760405162461bcd60e51b815260206004820152600e60248201527f616d6f756e7420746f6f206c6f7700000000000000000000000000000000000060448201526064015b60405180910390fd5b6000546040516323b872dd60e01b8152336004820152306024820152604481018490526001600160a01b03909116906323b872dd906064016020604051808303816000875af115801561047c573d6000803e3d6000fd5b505050506040513d601f19601f820116820180604052508101906104a091906111d5565b506000546040517f9dc29fac000000000000000000000000000000000000000000000000000000008152306004820152602481018490526001600160a01b0390911690639dc29fac90604401600060405180830381600087803b15801561050657600080fd5b505af115801561051a573d6000803e3d6000fd5b50506001546040517fa9059cbb0000000000000000000000000000000000000000000000000000000081526001600160a01b03878116600483015260248201869052909116925063a9059cbb91506044016020604051808303816000875af115801561058a573d6000803e3d6000fd5b505050506040513d601f19601f820116820180604052508101906105ae91906111d5565b5081600460008282546105c1919061120d565b90915550506004546002546040805192835260208301919091523390820152819083906001600160a01b038616907f936e31ed75b936652e58e831fe69a161b06bc628b8b02e9dc63bc89fe578a6e1906060015b60405180910390a4506103b460017f9b779b17422d0df92223018b32b4d1fa46e071723d6817e2486d003becc55f0055565b600060055460065460095461065c9190611220565b60095461067185670de0b6b3a7640000611233565b61067b9190611233565b610685919061124a565b61068f919061124a565b92915050565b61069d610e1a565b60006106ab82600654610c2a565b9050600081116106fd5760405162461bcd60e51b815260206004820152600e60248201527f616d6f756e7420746f6f206c6f77000000000000000000000000000000000000604482015260640161041c565b6002546001546040516370a0823160e01b815230600482015283916001600160a01b0316906370a0823190602401602060405180830381865afa158015610748573d6000803e3d6000fd5b505050506040513d601f19601f8201168201806040525081019061076c919061126c565b6107769190611220565b11156107c45760405162461bcd60e51b815260206004820152601360248201527f737570706c792063617020657863656564656400000000000000000000000000604482015260640161041c565b600354826004546107d59190611220565b11156108235760405162461bcd60e51b815260206004820152601160248201527f6465627420636170206578636565646564000000000000000000000000000000604482015260640161041c565b6001546040516323b872dd60e01b8152336004820152306024820152604481018390526001600160a01b03909116906323b872dd906064016020604051808303816000875af115801561087a573d6000803e3d6000fd5b505050506040513d601f19601f8201168201806040525081019061089e91906111d5565b506000546040517f40c10f190000000000000000000000000000000000000000000000000000000081526001600160a01b03858116600483015260248201859052909116906340c10f1990604401600060405180830381600087803b15801561090657600080fd5b505af115801561091a573d6000803e3d6000fd5b5050505081600460008282546109309190611220565b90915550506004546002546040805192835260208301919091523390820152819083906001600160a01b038616907f265ee4cff6cdf714e68c02e61a7864cf66bc04e372a41b6cc425acbb737cd39590606001610615565b610990610d46565b61099981610ea3565b50565b6000670de0b6b3a7640000600554836106859190611233565b6109bd610d46565b61099981610f0c565b6109ce610d46565b6103b48282610f48565b6109e0610d46565b6109ea6000610f9e565b565b7ff0c57e16840df040f15088dc2f81fe391c3923bec73e23a9662efc9c229c6a0080546001919068010000000000000000900460ff1680610a3b5750805467ffffffffffffffff808416911610155b15610a72576040517ff92ee8a900000000000000000000000000000000000000000000000000000000815260040160405180910390fd5b805468ffffffffffffffffff191667ffffffffffffffff83161768010000000000000000178155600080546001600160a01b03808e1673ffffffffffffffffffffffffffffffffffffffff199283161790925560018054928d1692909116919091179055610adf8961101c565b610ae761102d565b610af18585610f48565b610afb8787610dba565b610b0488610f0c565b610b0d83610ea3565b612710600955805468ff00000000000000001916815560405167ffffffffffffffff831681527fc7f505b2f371ae2175ee4913f4499e1f2633a7b5936321eed1cdaeb6115181d29060200160405180910390a15050505050505050505050565b600060055460075460095461065c919061120d565b6001546008546001600160a01b039182169163a9059cbb9116610ba3610c5e565b6040517fffffffff0000000000000000000000000000000000000000000000000000000060e085901b1681526001600160a01b03909216600483015260248201526044016020604051808303816000875af1158015610c06573d6000803e3d6000fd5b505050506040513d601f19601f8201168201806040525081019061099991906111d5565b600954600090610c3a8382611220565b610c438561099c565b610c4d9190611233565b610c57919061124a565b9392505050565b600480546001546040516370a0823160e01b815230938101939093526000926001600160a01b03909116906370a0823190602401602060405180830381865afa158015610caf573d6000803e3d6000fd5b505050506040513d601f19601f82011682018060405250810190610cd3919061126c565b610cdd919061120d565b905090565b610cea610d46565b6001600160a01b038116610d2d576040517f1e4fbdf70000000000000000000000000000000000000000000000000000000081526000600482015260240161041c565b61099981610f9e565b600954600090610c3a838261120d565b33610d787f9016d09d72d40fdae2fd8ceac6b6234c7706214fd39c1cd1e609a0528c199300546001600160a01b031690565b6001600160a01b0316146109ea576040517f118cdaa700000000000000000000000000000000000000000000000000000000815233600482015260240161041c565b60028054600380549285905583905560408051828152602081018490523391810191909152909190839085907fae75d5c2e3024e6e661c4709fec706270aa58d8eb07547e3d6fc4ba44b76ab23906060015b60405180910390a350505050565b7f9b779b17422d0df92223018b32b4d1fa46e071723d6817e2486d003becc55f00805460011901610e77576040517f3ee5aeb500000000000000000000000000000000000000000000000000000000815260040160405180910390fd5b60029055565b60017f9b779b17422d0df92223018b32b4d1fa46e071723d6817e2486d003becc55f0055565b600880546001600160a01b0383811673ffffffffffffffffffffffffffffffffffffffff198316811790935560405133815291169182917f77152a8590285dd4dae2386ed85a5514f2a5fd13ae6969df03169aea7ebb88a8906020015b60405180910390a35050565b6005805490829055604051338152829082907f7a285533a6415d496859eec7fa426d85c813c8ed12602b764e6f47e97dfa42a290602001610f00565b60068054600780549285905583905560408051828152602081018490523391810191909152909190839085907f040ad6c94afb3c31033baf750e5271ef1190b75380494159c0be334e92c069c790606001610e0c565b7f9016d09d72d40fdae2fd8ceac6b6234c7706214fd39c1cd1e609a0528c199300805473ffffffffffffffffffffffffffffffffffffffff1981166001600160a01b03848116918217845560405192169182907f8be0079c531659141344cd1fd0a4f28419497f9722a3daafe3b4186f6b6457e090600090a3505050565b61102461103d565b610999816110a4565b61103561103d565b6109ea6110ac565b7ff0c57e16840df040f15088dc2f81fe391c3923bec73e23a9662efc9c229c6a005468010000000000000000900460ff166109ea576040517fd7e6bcf800000000000000000000000000000000000000000000000000000000815260040160405180910390fd5b610cea61103d565b610e7d61103d565b600080604083850312156110c757600080fd5b50508035926020909101359150565b80356001600160a01b03811681146110ed57600080fd5b919050565b6000806040838503121561110557600080fd5b61110e836110d6565b946020939093013593505050565b60006020828403121561112e57600080fd5b5035919050565b60006020828403121561114757600080fd5b610c57826110d6565b60008060008060008060008060006101208a8c03121561116f57600080fd5b6111788a6110d6565b985061118660208b016110d6565b975061119460408b016110d6565b965060608a0135955060808a0135945060a08a0135935060c08a0135925060e08a013591506111c66101008b016110d6565b90509295985092959850929598565b6000602082840312156111e757600080fd5b81518015158114610c5757600080fd5b634e487b7160e01b600052601160045260246000fd5b8181038181111561068f5761068f6111f7565b8082018082111561068f5761068f6111f7565b808202811582820484141761068f5761068f6111f7565b60008261126757634e487b7160e01b600052601260045260246000fd5b500490565b60006020828403121561127e57600080fd5b505191905056fea264697066735822122006a32595b5c9db1faeb35dcb2dbd8102ca174d4de3372cef0836ba85c1fe5c0364736f6c63430008150033",
  "devdoc": {
    "author": "maha.xyz",
    "details": "https://docs.maha.xyz/mechanics/peg-mechanics/peg-stablility-module-psm",
    "errors": {
      "InvalidInitialization()": [
        {
          "details": "The contract is already initialized."
        }
      ],
      "NotInitializing()": [
        {
          "details": "The contract is not initializing."
        }
      ],
      "OwnableInvalidOwner(address)": [
        {
          "details": "The owner is not a valid owner account. (eg. `address(0)`)"
        }
      ],
      "OwnableUnauthorizedAccount(address)": [
        {
          "details": "The caller account is not authorized to perform an operation."
        }
      ],
      "ReentrancyGuardReentrantCall()": [
        {
          "details": "Unauthorized reentrant call."
        }
      ]
    },
    "events": {
      "FeeDestinationUpdated(address,address,address)": {
        "params": {
          "_newFeeDestination": "The new fee destination",
          "_oldFeeDestination": "The old fee destination",
          "sender": "The address that called the update function"
        }
      },
      "FeesUpdated(uint256,uint256,uint256,uint256,address)": {
        "params": {
          "_newMintFeeBps": "The new mint fee",
          "_newRedeemFeeBps": "The new redeem fee",
          "_oldMintFeeBps": "The old mint fee",
          "_oldRedeemFeeBps": "The old redeem fee",
          "sender": "The address that called the update function"
        }
      },
      "Initialized(uint64)": {
        "details": "Triggered when the contract has been initialized or reinitialized."
      },
      "Mint(address,uint256,uint256,uint256,uint256,address)": {
        "params": {
          "amount": "The amount of collateral taken",
          "destination": "Where the minted ZAI will be sent",
          "newDebt": "The current new debt of the PSM module",
          "sender": "The address that called the mint function",
          "shares": "The amount of ZAI minted",
          "supplyCap": "The current supply cap of the PSM module"
        }
      },
      "RateUpdated(uint256,uint256,address)": {
        "details": "Called by the admin",
        "params": {
          "newRate": "The new rate of ZAI/Collateral",
          "oldRate": "The old rate of ZAI/Collateral",
          "sender": "The address that called the update function"
        }
      },
      "Redeem(address,uint256,uint256,uint256,uint256,address)": {
        "params": {
          "amount": "The amount of collateral taken out",
          "destination": "Where the collateral will be sent",
          "newDebt": "The current new debt of the PSM module",
          "sender": "The address that called the redeem function",
          "shares": "The amount of ZAI burnt",
          "supplyCap": "The current supply cap of the PSM module"
        }
      },
      "SupplyCapUpdated(uint256,uint256,uint256,uint256,address)": {
        "params": {
          "_newDebtCap": "The new debt cap",
          "_newSupplyCap": "The new supply cap",
          "_oldDebtCap": "The old debt cap",
          "_oldSupplyCap": "The old supply cap",
          "sender": "The address that called the update function"
        }
      }
    },
    "kind": "dev",
    "methods": {
      "feesCollected()": {
        "returns": {
          "_0": "The amount of fees collected in ZAI"
        }
      },
      "initialize(address,address,address,uint256,uint256,uint256,uint256,uint256,address)": {
        "params": {
          "_collateral": "The collateral token",
          "_debtCap": "The debt cap",
          "_feeDestination": "The address where fees are sent",
          "_governance": "Governance address",
          "_mintFeeBps": "The mint fee in BPS",
          "_newRate": "The new rate of ZAI/Collateral",
          "_redeemFeeBps": "The redeem fee in BPS",
          "_supplyCap": "The supply cap",
          "_zai": "The ZAI stablecoin"
        }
      },
      "mint(address,uint256)": {
        "details": "This contract calculates how much collateral should be taken",
        "params": {
          "destination": "Where the minted ZAI will be sent",
          "shares": "The amount of zai to mint"
        }
      },
      "mintAmountIn(uint256)": {
        "params": {
          "amountAssetsIn": "The amount of collateral"
        }
      },
      "owner()": {
        "details": "Returns the address of the current owner."
      },
      "redeem(address,uint256)": {
        "details": "This contract calculates how much collateral should be given",
        "params": {
          "destination": "Where the collateral will be sent",
          "shares": "The amount of zai to redeem"
        }
      },
      "redeemAmountOut(uint256)": {
        "params": {
          "amountAssetsOut": "The amount of collateral"
        }
      },
      "renounceOwnership()": {
        "details": "Leaves the contract without owner. It will not be possible to call `onlyOwner` functions. Can only be called by the current owner. NOTE: Renouncing ownership will leave the contract without an owner, thereby disabling any functionality that is only available to the owner."
      },
      "toCollateralAmount(uint256)": {
        "params": {
          "_amount": "The amount of ZAI"
        },
        "returns": {
          "_0": "The amount of collateral"
        }
      },
      "toCollateralAmountWithFee(uint256,uint256)": {
        "details": "Fee is calculated as (amount * (MAX_FEE_BPS + fee)) / MAX_FEE_BPS",
        "params": {
          "_amount": "The amount of ZAI",
          "_fee": "The fee to be charged in BPS"
        }
      },
      "toCollateralAmountWithFeeInverse(uint256,uint256)": {
        "details": "Fee is calculated as (amount * (MAX_FEE_BPS - fee)) / MAX_FEE_BPS",
        "params": {
          "_amount": "The amount of ZAI",
          "_fee": "The fee to be charged in BPS"
        }
      },
      "transferOwnership(address)": {
        "details": "Transfers ownership of the contract to a new account (`newOwner`). Can only be called by the current owner."
      },
      "updateCaps(uint256,uint256)": {
        "details": "Only callable by the admin",
        "params": {
          "_debtCap": "How much debt can be held",
          "_supplyCap": "How much collateral can be taken"
        }
      },
      "updateFeeDestination(address)": {
        "details": "Only callable by the admin",
        "params": {
          "_feeDestination": "The new fee destination"
        }
      },
      "updateFees(uint256,uint256)": {
        "params": {
          "_mintFeeBps": "The new mint fee in BPS",
          "_redeemFeeBps": "The new redeem fee in BPS"
        }
      },
      "updateRate(uint256)": {
        "details": "Only callable by the admin",
        "params": {
          "_newRate": "The new rate of ZAI/Collateral"
        }
      }
    },
    "title": "Peg Stability Module",
    "version": 1
  },
  "userdoc": {
    "events": {
      "FeeDestinationUpdated(address,address,address)": {
        "notice": "Emitted when the fee destination is updated"
      },
      "FeesUpdated(uint256,uint256,uint256,uint256,address)": {
        "notice": "Emitted when the fees are updated"
      },
      "Mint(address,uint256,uint256,uint256,uint256,address)": {
        "notice": "Emitted when a user mints ZAI"
      },
      "RateUpdated(uint256,uint256,address)": {
        "notice": "Emitted when the rate is updated"
      },
      "Redeem(address,uint256,uint256,uint256,uint256,address)": {
        "notice": "Emitted when a user redeems ZAI"
      },
      "SupplyCapUpdated(uint256,uint256,uint256,uint256,address)": {
        "notice": "Emitted when the supply cap is updated"
      }
    },
    "kind": "user",
    "methods": {
      "MAX_FEE_BPS()": {
        "notice": "The maximum fee that can be charged"
      },
      "collateral()": {
        "notice": "Returns the collateral token"
      },
      "debt()": {
        "notice": "Returns the current debt held in this vault"
      },
      "debtCap()": {
        "notice": "Returns the debt cap"
      },
      "feeDestination()": {
        "notice": "The address where fees are sent"
      },
      "feesCollected()": {
        "notice": "How much fees has been collected by the protocol"
      },
      "initialize(address,address,address,uint256,uint256,uint256,uint256,uint256,address)": {
        "notice": "Initializes the contract"
      },
      "mint(address,uint256)": {
        "notice": "Mints ZAI with collateral"
      },
      "mintAmountIn(uint256)": {
        "notice": "Calculates how much ZAI should be minted for a given amount of collateral"
      },
      "mintFeeBps()": {
        "notice": "The mint fee in BPS"
      },
      "rate()": {
        "notice": "Returns the current rate of ZAI/Collateral"
      },
      "redeem(address,uint256)": {
        "notice": "Redeems ZAI for collateral"
      },
      "redeemAmountOut(uint256)": {
        "notice": "Calculates how much ZAI should be redeemed for a given amount of collateral"
      },
      "redeemFeeBps()": {
        "notice": "The redeem fee in BPS"
      },
      "supplyCap()": {
        "notice": "Returns the supply cap"
      },
      "toCollateralAmount(uint256)": {
        "notice": "Converts ZAI amount to collateral"
      },
      "toCollateralAmountWithFee(uint256,uint256)": {
        "notice": "Converts ZAI amount to collateral with fee added"
      },
      "toCollateralAmountWithFeeInverse(uint256,uint256)": {
        "notice": "Converts ZAI amount to collateral with fee removed"
      },
      "updateCaps(uint256,uint256)": {
        "notice": "Updates the supply and debt caps"
      },
      "updateFeeDestination(address)": {
        "notice": "Updates the fee destination"
      },
      "updateFees(uint256,uint256)": {
        "notice": "Updates the mint and redeem fees"
      },
      "updateRate(uint256)": {
        "notice": "Updates the rate of ZAI/Collateral"
      },
      "zai()": {
        "notice": "Returns the Zai stablecoin"
      }
    },
    "notice": "Used to mint ZAI with collateral at a pre-defined rate",
    "version": 1
  },
  "storageLayout": {
    "storage": [
      {
        "astId": 23404,
        "contract": "contracts/core/psm/PegStabilityModule.sol:PegStabilityModule",
        "label": "zai",
        "offset": 0,
        "slot": "0",
        "type": "t_contract(IStablecoin)28374"
      },
      {
        "astId": 23408,
        "contract": "contracts/core/psm/PegStabilityModule.sol:PegStabilityModule",
        "label": "collateral",
        "offset": 0,
        "slot": "1",
        "type": "t_contract(IERC20)13991"
      },
      {
        "astId": 23411,
        "contract": "contracts/core/psm/PegStabilityModule.sol:PegStabilityModule",
        "label": "supplyCap",
        "offset": 0,
        "slot": "2",
        "type": "t_uint256"
      },
      {
        "astId": 23414,
        "contract": "contracts/core/psm/PegStabilityModule.sol:PegStabilityModule",
        "label": "debtCap",
        "offset": 0,
        "slot": "3",
        "type": "t_uint256"
      },
      {
        "astId": 23417,
        "contract": "contracts/core/psm/PegStabilityModule.sol:PegStabilityModule",
        "label": "debt",
        "offset": 0,
        "slot": "4",
        "type": "t_uint256"
      },
      {
        "astId": 23420,
        "contract": "contracts/core/psm/PegStabilityModule.sol:PegStabilityModule",
        "label": "rate",
        "offset": 0,
        "slot": "5",
        "type": "t_uint256"
      },
      {
        "astId": 23423,
        "contract": "contracts/core/psm/PegStabilityModule.sol:PegStabilityModule",
        "label": "mintFeeBps",
        "offset": 0,
        "slot": "6",
        "type": "t_uint256"
      },
      {
        "astId": 23426,
        "contract": "contracts/core/psm/PegStabilityModule.sol:PegStabilityModule",
        "label": "redeemFeeBps",
        "offset": 0,
        "slot": "7",
        "type": "t_uint256"
      },
      {
        "astId": 23429,
        "contract": "contracts/core/psm/PegStabilityModule.sol:PegStabilityModule",
        "label": "feeDestination",
        "offset": 0,
        "slot": "8",
        "type": "t_address"
      },
      {
        "astId": 23432,
        "contract": "contracts/core/psm/PegStabilityModule.sol:PegStabilityModule",
        "label": "MAX_FEE_BPS",
        "offset": 0,
        "slot": "9",
        "type": "t_uint256"
      }
    ],
    "types": {
      "t_address": {
        "encoding": "inplace",
        "label": "address",
        "numberOfBytes": "20"
      },
      "t_contract(IERC20)13991": {
        "encoding": "inplace",
        "label": "contract IERC20",
        "numberOfBytes": "20"
      },
      "t_contract(IStablecoin)28374": {
        "encoding": "inplace",
        "label": "contract IStablecoin",
        "numberOfBytes": "20"
      },
      "t_uint256": {
        "encoding": "inplace",
        "label": "uint256",
        "numberOfBytes": "32"
      }
    }
  }
}