{
  "address": "0xe0fF88fd14234Ac1AA180d1833Ab5e85E11C4909",
  "abi": [
    {
      "inputs": [
        {
          "internalType": "address",
          "name": "target",
          "type": "address"
        }
      ],
      "name": "AddressEmptyCode",
      "type": "error"
    },
    {
      "inputs": [
        {
          "internalType": "address",
          "name": "account",
          "type": "address"
        }
      ],
      "name": "AddressInsufficientBalance",
      "type": "error"
    },
    {
      "inputs": [],
      "name": "DebtCapReached",
      "type": "error"
    },
    {
      "inputs": [],
      "name": "FailedInnerCall",
      "type": "error"
    },
    {
      "inputs": [],
      "name": "InvalidInitialization",
      "type": "error"
    },
    {
      "inputs": [],
      "name": "NotInitializing",
      "type": "error"
    },
    {
      "inputs": [],
      "name": "NotZeroAddress",
      "type": "error"
    },
    {
      "inputs": [],
      "name": "NotZeroValue",
      "type": "error"
    },
    {
      "inputs": [
        {
          "internalType": "address",
          "name": "owner",
          "type": "address"
        }
      ],
      "name": "OwnableInvalidOwner",
      "type": "error"
    },
    {
      "inputs": [
        {
          "internalType": "address",
          "name": "account",
          "type": "address"
        }
      ],
      "name": "OwnableUnauthorizedAccount",
      "type": "error"
    },
    {
      "inputs": [],
      "name": "ReentrancyGuardReentrantCall",
      "type": "error"
    },
    {
      "inputs": [
        {
          "internalType": "address",
          "name": "token",
          "type": "address"
        }
      ],
      "name": "SafeERC20FailedOperation",
      "type": "error"
    },
    {
      "inputs": [],
      "name": "SupplyCapReached",
      "type": "error"
    },
    {
      "anonymous": false,
      "inputs": [
        {
          "indexed": true,
          "internalType": "address",
          "name": "_newFeeDestination",
          "type": "address"
        },
        {
          "indexed": true,
          "internalType": "address",
          "name": "_oldFeeDestination",
          "type": "address"
        },
        {
          "indexed": false,
          "internalType": "address",
          "name": "sender",
          "type": "address"
        }
      ],
      "name": "FeeDestinationUpdated",
      "type": "event"
    },
    {
      "anonymous": false,
      "inputs": [
        {
          "indexed": true,
          "internalType": "uint256",
          "name": "_newMintFeeBps",
          "type": "uint256"
        },
        {
          "indexed": true,
          "internalType": "uint256",
          "name": "_newRedeemFeeBps",
          "type": "uint256"
        },
        {
          "indexed": false,
          "internalType": "uint256",
          "name": "_oldMintFeeBps",
          "type": "uint256"
        },
        {
          "indexed": false,
          "internalType": "uint256",
          "name": "_oldRedeemFeeBps",
          "type": "uint256"
        },
        {
          "indexed": false,
          "internalType": "address",
          "name": "sender",
          "type": "address"
        }
      ],
      "name": "FeesUpdated",
      "type": "event"
    },
    {
      "anonymous": false,
      "inputs": [
        {
          "indexed": false,
          "internalType": "uint64",
          "name": "version",
          "type": "uint64"
        }
      ],
      "name": "Initialized",
      "type": "event"
    },
    {
      "anonymous": false,
      "inputs": [
        {
          "indexed": true,
          "internalType": "address",
          "name": "destination",
          "type": "address"
        },
        {
          "indexed": true,
          "internalType": "uint256",
          "name": "shares",
          "type": "uint256"
        },
        {
          "indexed": true,
          "internalType": "uint256",
          "name": "amount",
          "type": "uint256"
        },
        {
          "indexed": false,
          "internalType": "uint256",
          "name": "newDebt",
          "type": "uint256"
        },
        {
          "indexed": false,
          "internalType": "uint256",
          "name": "supplyCap",
          "type": "uint256"
        },
        {
          "indexed": false,
          "internalType": "address",
          "name": "sender",
          "type": "address"
        }
      ],
      "name": "Mint",
      "type": "event"
    },
    {
      "anonymous": false,
      "inputs": [
        {
          "indexed": true,
          "internalType": "address",
          "name": "previousOwner",
          "type": "address"
        },
        {
          "indexed": true,
          "internalType": "address",
          "name": "newOwner",
          "type": "address"
        }
      ],
      "name": "OwnershipTransferred",
      "type": "event"
    },
    {
      "anonymous": false,
      "inputs": [
        {
          "indexed": true,
          "internalType": "uint256",
          "name": "oldRate",
          "type": "uint256"
        },
        {
          "indexed": true,
          "internalType": "uint256",
          "name": "newRate",
          "type": "uint256"
        },
        {
          "indexed": false,
          "internalType": "address",
          "name": "sender",
          "type": "address"
        }
      ],
      "name": "RateUpdated",
      "type": "event"
    },
    {
      "anonymous": false,
      "inputs": [
        {
          "indexed": true,
          "internalType": "address",
          "name": "destination",
          "type": "address"
        },
        {
          "indexed": true,
          "internalType": "uint256",
          "name": "shares",
          "type": "uint256"
        },
        {
          "indexed": true,
          "internalType": "uint256",
          "name": "amount",
          "type": "uint256"
        },
        {
          "indexed": false,
          "internalType": "uint256",
          "name": "newDebt",
          "type": "uint256"
        },
        {
          "indexed": false,
          "internalType": "uint256",
          "name": "supplyCap",
          "type": "uint256"
        },
        {
          "indexed": false,
          "internalType": "address",
          "name": "sender",
          "type": "address"
        }
      ],
      "name": "Redeem",
      "type": "event"
    },
    {
      "anonymous": false,
      "inputs": [
        {
          "indexed": true,
          "internalType": "uint256",
          "name": "_newSupplyCap",
          "type": "uint256"
        },
        {
          "indexed": true,
          "internalType": "uint256",
          "name": "_newDebtCap",
          "type": "uint256"
        },
        {
          "indexed": false,
          "internalType": "uint256",
          "name": "_oldSupplyCap",
          "type": "uint256"
        },
        {
          "indexed": false,
          "internalType": "uint256",
          "name": "_oldDebtCap",
          "type": "uint256"
        },
        {
          "indexed": false,
          "internalType": "address",
          "name": "sender",
          "type": "address"
        }
      ],
      "name": "SupplyCapUpdated",
      "type": "event"
    },
    {
      "inputs": [],
      "name": "MAX_FEE_BPS",
      "outputs": [
        {
          "internalType": "uint256",
          "name": "",
          "type": "uint256"
        }
      ],
      "stateMutability": "view",
      "type": "function"
    },
    {
      "inputs": [],
      "name": "collateral",
      "outputs": [
        {
          "internalType": "contract IERC20",
          "name": "",
          "type": "address"
        }
      ],
      "stateMutability": "view",
      "type": "function"
    },
    {
      "inputs": [],
      "name": "debt",
      "outputs": [
        {
          "internalType": "uint256",
          "name": "",
          "type": "uint256"
        }
      ],
      "stateMutability": "view",
      "type": "function"
    },
    {
      "inputs": [],
      "name": "debtCap",
      "outputs": [
        {
          "internalType": "uint256",
          "name": "",
          "type": "uint256"
        }
      ],
      "stateMutability": "view",
      "type": "function"
    },
    {
      "inputs": [],
      "name": "feeDestination",
      "outputs": [
        {
          "internalType": "address",
          "name": "",
          "type": "address"
        }
      ],
      "stateMutability": "view",
      "type": "function"
    },
    {
      "inputs": [],
      "name": "feesCollected",
      "outputs": [
        {
          "internalType": "uint256",
          "name": "",
          "type": "uint256"
        }
      ],
      "stateMutability": "view",
      "type": "function"
    },
    {
      "inputs": [
        {
          "internalType": "address",
          "name": "_zai",
          "type": "address"
        },
        {
          "internalType": "address",
          "name": "_collateral",
          "type": "address"
        },
        {
          "internalType": "address",
          "name": "_governance",
          "type": "address"
        },
        {
          "internalType": "uint256",
          "name": "_newRate",
          "type": "uint256"
        },
        {
          "internalType": "uint256",
          "name": "_supplyCap",
          "type": "uint256"
        },
        {
          "internalType": "uint256",
          "name": "_debtCap",
          "type": "uint256"
        },
        {
          "internalType": "uint256",
          "name": "_mintFeeBps",
          "type": "uint256"
        },
        {
          "internalType": "uint256",
          "name": "_redeemFeeBps",
          "type": "uint256"
        },
        {
          "internalType": "address",
          "name": "_feeDestination",
          "type": "address"
        }
      ],
      "name": "initialize",
      "outputs": [],
      "stateMutability": "nonpayable",
      "type": "function"
    },
    {
      "inputs": [
        {
          "internalType": "address",
          "name": "dest",
          "type": "address"
        },
        {
          "internalType": "uint256",
          "name": "shares",
          "type": "uint256"
        }
      ],
      "name": "mint",
      "outputs": [],
      "stateMutability": "nonpayable",
      "type": "function"
    },
    {
      "inputs": [
        {
          "internalType": "uint256",
          "name": "amountAssetsIn",
          "type": "uint256"
        }
      ],
      "name": "mintAmountIn",
      "outputs": [
        {
          "internalType": "uint256",
          "name": "shares",
          "type": "uint256"
        }
      ],
      "stateMutability": "view",
      "type": "function"
    },
    {
      "inputs": [],
      "name": "mintFeeBps",
      "outputs": [
        {
          "internalType": "uint256",
          "name": "",
          "type": "uint256"
        }
      ],
      "stateMutability": "view",
      "type": "function"
    },
    {
      "inputs": [],
      "name": "owner",
      "outputs": [
        {
          "internalType": "address",
          "name": "",
          "type": "address"
        }
      ],
      "stateMutability": "view",
      "type": "function"
    },
    {
      "inputs": [],
      "name": "rate",
      "outputs": [
        {
          "internalType": "uint256",
          "name": "",
          "type": "uint256"
        }
      ],
      "stateMutability": "view",
      "type": "function"
    },
    {
      "inputs": [
        {
          "internalType": "address",
          "name": "dest",
          "type": "address"
        },
        {
          "internalType": "uint256",
          "name": "shares",
          "type": "uint256"
        }
      ],
      "name": "redeem",
      "outputs": [],
      "stateMutability": "nonpayable",
      "type": "function"
    },
    {
      "inputs": [
        {
          "internalType": "uint256",
          "name": "amountAssetsOut",
          "type": "uint256"
        }
      ],
      "name": "redeemAmountOut",
      "outputs": [
        {
          "internalType": "uint256",
          "name": "shares",
          "type": "uint256"
        }
      ],
      "stateMutability": "view",
      "type": "function"
    },
    {
      "inputs": [],
      "name": "redeemFeeBps",
      "outputs": [
        {
          "internalType": "uint256",
          "name": "",
          "type": "uint256"
        }
      ],
      "stateMutability": "view",
      "type": "function"
    },
    {
      "inputs": [],
      "name": "renounceOwnership",
      "outputs": [],
      "stateMutability": "nonpayable",
      "type": "function"
    },
    {
      "inputs": [],
      "name": "supplyCap",
      "outputs": [
        {
          "internalType": "uint256",
          "name": "",
          "type": "uint256"
        }
      ],
      "stateMutability": "view",
      "type": "function"
    },
    {
      "inputs": [],
      "name": "sweepFees",
      "outputs": [],
      "stateMutability": "nonpayable",
      "type": "function"
    },
    {
      "inputs": [
        {
          "internalType": "uint256",
          "name": "_amount",
          "type": "uint256"
        }
      ],
      "name": "toCollateralAmount",
      "outputs": [
        {
          "internalType": "uint256",
          "name": "",
          "type": "uint256"
        }
      ],
      "stateMutability": "view",
      "type": "function"
    },
    {
      "inputs": [
        {
          "internalType": "uint256",
          "name": "_amount",
          "type": "uint256"
        },
        {
          "internalType": "uint256",
          "name": "_fee",
          "type": "uint256"
        }
      ],
      "name": "toCollateralAmountWithFee",
      "outputs": [
        {
          "internalType": "uint256",
          "name": "",
          "type": "uint256"
        }
      ],
      "stateMutability": "view",
      "type": "function"
    },
    {
      "inputs": [
        {
          "internalType": "uint256",
          "name": "_amount",
          "type": "uint256"
        },
        {
          "internalType": "uint256",
          "name": "_fee",
          "type": "uint256"
        }
      ],
      "name": "toCollateralAmountWithFeeInverse",
      "outputs": [
        {
          "internalType": "uint256",
          "name": "",
          "type": "uint256"
        }
      ],
      "stateMutability": "view",
      "type": "function"
    },
    {
      "inputs": [
        {
          "internalType": "address",
          "name": "newOwner",
          "type": "address"
        }
      ],
      "name": "transferOwnership",
      "outputs": [],
      "stateMutability": "nonpayable",
      "type": "function"
    },
    {
      "inputs": [
        {
          "internalType": "uint256",
          "name": "_supplyCap",
          "type": "uint256"
        },
        {
          "internalType": "uint256",
          "name": "_debtCap",
          "type": "uint256"
        }
      ],
      "name": "updateCaps",
      "outputs": [],
      "stateMutability": "nonpayable",
      "type": "function"
    },
    {
      "inputs": [
        {
          "internalType": "address",
          "name": "_feeDestination",
          "type": "address"
        }
      ],
      "name": "updateFeeDestination",
      "outputs": [],
      "stateMutability": "nonpayable",
      "type": "function"
    },
    {
      "inputs": [
        {
          "internalType": "uint256",
          "name": "_mintFeeBps",
          "type": "uint256"
        },
        {
          "internalType": "uint256",
          "name": "_redeemFeeBps",
          "type": "uint256"
        }
      ],
      "name": "updateFees",
      "outputs": [],
      "stateMutability": "nonpayable",
      "type": "function"
    },
    {
      "inputs": [
        {
          "internalType": "uint256",
          "name": "_newRate",
          "type": "uint256"
        }
      ],
      "name": "updateRate",
      "outputs": [],
      "stateMutability": "nonpayable",
      "type": "function"
    },
    {
      "inputs": [],
      "name": "zai",
      "outputs": [
        {
          "internalType": "contract IStablecoin",
          "name": "",
          "type": "address"
        }
      ],
      "stateMutability": "view",
      "type": "function"
    }
  ],
  "transactionHash": "0x075bb71919572a62d87e75b22bad4f904d9f50065e9f8f6c6952a5ad07de2822",
  "args": [],
  "numDeployments": 2,
  "solcInputHash": "bf587503504f04f1a1890cac65205583",
  "bytecode": "0x60a060405261271060805234801561001657600080fd5b5060805161151c61005560003960008181610337015281816105fc0152818161062701528181610b5801528181610bb00152610ce2015261151c6000f3fe608060405234801561001057600080fd5b50600436106101b95760003560e01c8063715018a6116100f9578063d55be8c611610097578063de53fcd511610071578063de53fcd51461037f578063f071db5a14610392578063f2fde38b1461039a578063f5320fd8146103ad57600080fd5b8063d55be8c614610332578063d8dfeb4514610359578063dd62aefb1461036c57600080fd5b806397c8bcc1116100d357806397c8bcc1146102fb578063a371149814610304578063bb5dc18914610317578063d113b95c1461032a57600080fd5b8063715018a6146102ba5780638da5cb5b146102c25780638f770ad0146102f257600080fd5b80632c4e722e116101665780635dc2e5d1116101405780635dc2e5d11461026e57806366bea2281461028157806369ea1771146102945780636db79437146102a757600080fd5b80632c4e722e1461024957806331486c061461025257806340c10f191461025b57600080fd5b80630eb26499116101975780630eb264991461020e5780631e9a6950146102235780631f80b95a1461023657600080fd5b806307140b34146101be57806309f6442c146101ee5780630dca59c114610205575b600080fd5b6000546101d1906001600160a01b031681565b6040516001600160a01b0390911681526020015b60405180910390f35b6101f760075481565b6040519081526020016101e5565b6101f760045481565b61022161021c3660046112e6565b6103c0565b005b610221610231366004611324565b6103d6565b6101f761024436600461134e565b6105f2565b6101f760055481565b6101f760035481565b610221610269366004611324565b61067c565b61022161027c366004611367565b6108d1565b6101f761028f36600461134e565b6108e5565b6102216102a236600461134e565b6108fe565b6102216102b53660046112e6565b61090f565b610221610921565b7f9016d09d72d40fdae2fd8ceac6b6234c7706214fd39c1cd1e609a0528c199300546001600160a01b03166101d1565b6101f760025481565b6101f760065481565b610221610312366004611382565b610935565b6101f761032536600461134e565b610b4e565b610221610b81565b6101f77f000000000000000000000000000000000000000000000000000000000000000081565b6001546101d1906001600160a01b031681565b6101f761037a3660046112e6565b610bac565b6008546101d1906001600160a01b031681565b6101f7610bfd565b6102216103a8366004611367565b610c85565b6101f76103bb3660046112e6565b610cde565b6103c8610d0b565b6103d28282610d7f565b5050565b6103de610ddf565b60006103ec82600754610cde565b90508060000361040f57604051633fad6f3960e11b815260040160405180910390fd5b8160000361043057604051633fad6f3960e11b815260040160405180910390fd5b6000546040517f23b872dd000000000000000000000000000000000000000000000000000000008152336004820152306024820152604481018490526001600160a01b03909116906323b872dd906064016020604051808303816000875af11580156104a0573d6000803e3d6000fd5b505050506040513d601f19601f820116820180604052508101906104c49190611407565b506000546040517f9dc29fac000000000000000000000000000000000000000000000000000000008152306004820152602481018490526001600160a01b0390911690639dc29fac90604401600060405180830381600087803b15801561052a57600080fd5b505af115801561053e573d6000803e3d6000fd5b505060015461055a92506001600160a01b031690508483610e42565b816004600082825461056c919061143f565b90915550506004546002546040805192835260208301919091523390820152819083906001600160a01b038616907f936e31ed75b936652e58e831fe69a161b06bc628b8b02e9dc63bc89fe578a6e1906060015b60405180910390a4506103d260017f9b779b17422d0df92223018b32b4d1fa46e071723d6817e2486d003becc55f0055565b60006005546006547f00000000000000000000000000000000000000000000000000000000000000006106259190611452565b7f000000000000000000000000000000000000000000000000000000000000000061065885670de0b6b3a7640000611465565b6106629190611465565b61066c919061147c565b610676919061147c565b92915050565b610684610ddf565b600061069282600654610bac565b9050806000036106b557604051633fad6f3960e11b815260040160405180910390fd5b816000036106d657604051633fad6f3960e11b815260040160405180910390fd5b6002546001546040516370a0823160e01b815230600482015283916001600160a01b0316906370a0823190602401602060405180830381865afa158015610721573d6000803e3d6000fd5b505050506040513d601f19601f82011682018060405250810190610745919061149e565b61074f9190611452565b1115610787576040517fa9b65aba00000000000000000000000000000000000000000000000000000000815260040160405180910390fd5b600354826004546107989190611452565b11156107d0576040517f3b60212900000000000000000000000000000000000000000000000000000000815260040160405180910390fd5b6001546107e8906001600160a01b0316333084610ee1565b6000546040517f40c10f190000000000000000000000000000000000000000000000000000000081526001600160a01b03858116600483015260248201859052909116906340c10f1990604401600060405180830381600087803b15801561084f57600080fd5b505af1158015610863573d6000803e3d6000fd5b5050505081600460008282546108799190611452565b90915550506004546002546040805192835260208301919091523390820152819083906001600160a01b038616907f265ee4cff6cdf714e68c02e61a7864cf66bc04e372a41b6cc425acbb737cd395906060016105c0565b6108d9610d0b565b6108e281610f20565b50565b6000670de0b6b3a76400006005548361066c9190611465565b610906610d0b565b6108e281610f89565b610917610d0b565b6103d28282610fc5565b610929610d0b565b610933600061101b565b565b7ff0c57e16840df040f15088dc2f81fe391c3923bec73e23a9662efc9c229c6a0080546002919068010000000000000000900460ff16806109845750805467ffffffffffffffff808416911610155b156109bb576040517ff92ee8a900000000000000000000000000000000000000000000000000000000815260040160405180910390fd5b805468ffffffffffffffffff191667ffffffffffffffff83161768010000000000000000178155600080546001600160a01b03808e1673ffffffffffffffffffffffffffffffffffffffff19928316811790935560018054918e16919092161790551580610a3057506001600160a01b038a16155b80610a4257506001600160a01b038916155b80610a5457506001600160a01b038316155b15610a8b576040517f66385fa300000000000000000000000000000000000000000000000000000000815260040160405180910390fd5b871580610a96575086155b80610a9f575085155b15610abd57604051633fad6f3960e11b815260040160405180910390fd5b610ac689611099565b610ace6110aa565b610ad88585610fc5565b610ae28787610d7f565b610aeb88610f89565b610af483610f20565b805468ff00000000000000001916815560405167ffffffffffffffff831681527fc7f505b2f371ae2175ee4913f4499e1f2633a7b5936321eed1cdaeb6115181d29060200160405180910390a15050505050505050505050565b60006005546007547f0000000000000000000000000000000000000000000000000000000000000000610625919061143f565b600854610933906001600160a01b0316610b99610bfd565b6001546001600160a01b03169190610e42565b60007f0000000000000000000000000000000000000000000000000000000000000000610bd98382611452565b610be2856108e5565b610bec9190611465565b610bf6919061147c565b9392505050565b6000610c0a6004546108e5565b6001546040516370a0823160e01b81523060048201526001600160a01b03909116906370a0823190602401602060405180830381865afa158015610c52573d6000803e3d6000fd5b505050506040513d601f19601f82011682018060405250810190610c76919061149e565b610c80919061143f565b905090565b610c8d610d0b565b6001600160a01b038116610cd5576040517f1e4fbdf7000000000000000000000000000000000000000000000000000000008152600060048201526024015b60405180910390fd5b6108e28161101b565b60007f0000000000000000000000000000000000000000000000000000000000000000610bd9838261143f565b33610d3d7f9016d09d72d40fdae2fd8ceac6b6234c7706214fd39c1cd1e609a0528c199300546001600160a01b031690565b6001600160a01b031614610933576040517f118cdaa7000000000000000000000000000000000000000000000000000000008152336004820152602401610ccc565b60028054600380549285905583905560408051828152602081018490523391810191909152909190839085907fae75d5c2e3024e6e661c4709fec706270aa58d8eb07547e3d6fc4ba44b76ab23906060015b60405180910390a350505050565b7f9b779b17422d0df92223018b32b4d1fa46e071723d6817e2486d003becc55f00805460011901610e3c576040517f3ee5aeb500000000000000000000000000000000000000000000000000000000815260040160405180910390fd5b60029055565b6040516001600160a01b03838116602483015260448201839052610eb691859182169063a9059cbb906064015b604051602081830303815290604052915060e01b6020820180517bffffffffffffffffffffffffffffffffffffffffffffffffffffffff83818316178352505050506110ba565b505050565b60017f9b779b17422d0df92223018b32b4d1fa46e071723d6817e2486d003becc55f0055565b6040516001600160a01b038481166024830152838116604483015260648201839052610f1a9186918216906323b872dd90608401610e6f565b50505050565b600880546001600160a01b0383811673ffffffffffffffffffffffffffffffffffffffff198316811790935560405133815291169182917f77152a8590285dd4dae2386ed85a5514f2a5fd13ae6969df03169aea7ebb88a8906020015b60405180910390a35050565b6005805490829055604051338152829082907f7a285533a6415d496859eec7fa426d85c813c8ed12602b764e6f47e97dfa42a290602001610f7d565b60068054600780549285905583905560408051828152602081018490523391810191909152909190839085907f040ad6c94afb3c31033baf750e5271ef1190b75380494159c0be334e92c069c790606001610dd1565b7f9016d09d72d40fdae2fd8ceac6b6234c7706214fd39c1cd1e609a0528c199300805473ffffffffffffffffffffffffffffffffffffffff1981166001600160a01b03848116918217845560405192169182907f8be0079c531659141344cd1fd0a4f28419497f9722a3daafe3b4186f6b6457e090600090a3505050565b6110a1611136565b6108e28161119d565b6110b2611136565b6109336111a5565b60006110cf6001600160a01b038416836111ad565b905080516000141580156110f45750808060200190518101906110f29190611407565b155b15610eb6576040517f5274afe70000000000000000000000000000000000000000000000000000000081526001600160a01b0384166004820152602401610ccc565b7ff0c57e16840df040f15088dc2f81fe391c3923bec73e23a9662efc9c229c6a005468010000000000000000900460ff16610933576040517fd7e6bcf800000000000000000000000000000000000000000000000000000000815260040160405180910390fd5b610c8d611136565b610ebb611136565b6060610bf68383600084600080856001600160a01b031684866040516111d391906114b7565b60006040518083038185875af1925050503d8060008114611210576040519150601f19603f3d011682016040523d82523d6000602084013e611215565b606091505b509150915061122586838361122f565b9695505050505050565b6060826112445761123f826112a4565b610bf6565b815115801561125b57506001600160a01b0384163b155b1561129d576040517f9996b3150000000000000000000000000000000000000000000000000000000081526001600160a01b0385166004820152602401610ccc565b5080610bf6565b8051156112b45780518082602001fd5b6040517f1425ea4200000000000000000000000000000000000000000000000000000000815260040160405180910390fd5b600080604083850312156112f957600080fd5b50508035926020909101359150565b80356001600160a01b038116811461131f57600080fd5b919050565b6000806040838503121561133757600080fd5b61134083611308565b946020939093013593505050565b60006020828403121561136057600080fd5b5035919050565b60006020828403121561137957600080fd5b610bf682611308565b60008060008060008060008060006101208a8c0312156113a157600080fd5b6113aa8a611308565b98506113b860208b01611308565b97506113c660408b01611308565b965060608a0135955060808a0135945060a08a0135935060c08a0135925060e08a013591506113f86101008b01611308565b90509295985092959850929598565b60006020828403121561141957600080fd5b81518015158114610bf657600080fd5b634e487b7160e01b600052601160045260246000fd5b8181038181111561067657610676611429565b8082018082111561067657610676611429565b808202811582820484141761067657610676611429565b60008261149957634e487b7160e01b600052601260045260246000fd5b500490565b6000602082840312156114b057600080fd5b5051919050565b6000825160005b818110156114d857602081860181015185830152016114be565b50600092019182525091905056fea2646970667358221220c99fbe758c38cb316d01cfe41459e2b2c129290b08b2e78b4e10dc518e400c2864736f6c63430008150033",
  "devdoc": {
    "author": "maha.xyz",
    "details": "https://docs.maha.xyz/mechanics/peg-mechanics/peg-stablility-module-psm",
    "errors": {
      "AddressEmptyCode(address)": [
        {
          "details": "There's no code at `target` (it is not a contract)."
        }
      ],
      "AddressInsufficientBalance(address)": [
        {
          "details": "The ETH balance of the account is not enough to perform the operation."
        }
      ],
      "FailedInnerCall()": [
        {
          "details": "A call to an address target failed. The target may have reverted."
        }
      ],
      "InvalidInitialization()": [
        {
          "details": "The contract is already initialized."
        }
      ],
      "NotInitializing()": [
        {
          "details": "The contract is not initializing."
        }
      ],
      "OwnableInvalidOwner(address)": [
        {
          "details": "The owner is not a valid owner account. (eg. `address(0)`)"
        }
      ],
      "OwnableUnauthorizedAccount(address)": [
        {
          "details": "The caller account is not authorized to perform an operation."
        }
      ],
      "ReentrancyGuardReentrantCall()": [
        {
          "details": "Unauthorized reentrant call."
        }
      ],
      "SafeERC20FailedOperation(address)": [
        {
          "details": "An operation with an ERC20 token failed."
        }
      ]
    },
    "events": {
      "FeeDestinationUpdated(address,address,address)": {
        "params": {
          "_newFeeDestination": "The new fee destination",
          "_oldFeeDestination": "The old fee destination",
          "sender": "The address that called the update function"
        }
      },
      "FeesUpdated(uint256,uint256,uint256,uint256,address)": {
        "params": {
          "_newMintFeeBps": "The new mint fee",
          "_newRedeemFeeBps": "The new redeem fee",
          "_oldMintFeeBps": "The old mint fee",
          "_oldRedeemFeeBps": "The old redeem fee",
          "sender": "The address that called the update function"
        }
      },
      "Initialized(uint64)": {
        "details": "Triggered when the contract has been initialized or reinitialized."
      },
      "Mint(address,uint256,uint256,uint256,uint256,address)": {
        "params": {
          "amount": "The amount of collateral taken",
          "destination": "Where the minted ZAI will be sent",
          "newDebt": "The current new debt of the PSM module",
          "sender": "The address that called the mint function",
          "shares": "The amount of ZAI minted",
          "supplyCap": "The current supply cap of the PSM module"
        }
      },
      "RateUpdated(uint256,uint256,address)": {
        "details": "Called by the admin",
        "params": {
          "newRate": "The new rate of ZAI/Collateral",
          "oldRate": "The old rate of ZAI/Collateral",
          "sender": "The address that called the update function"
        }
      },
      "Redeem(address,uint256,uint256,uint256,uint256,address)": {
        "params": {
          "amount": "The amount of collateral taken out",
          "destination": "Where the collateral will be sent",
          "newDebt": "The current new debt of the PSM module",
          "sender": "The address that called the redeem function",
          "shares": "The amount of ZAI burnt",
          "supplyCap": "The current supply cap of the PSM module"
        }
      },
      "SupplyCapUpdated(uint256,uint256,uint256,uint256,address)": {
        "params": {
          "_newDebtCap": "The new debt cap",
          "_newSupplyCap": "The new supply cap",
          "_oldDebtCap": "The old debt cap",
          "_oldSupplyCap": "The old supply cap",
          "sender": "The address that called the update function"
        }
      }
    },
    "kind": "dev",
    "methods": {
      "feesCollected()": {
        "returns": {
          "_0": "The amount of fees collected in ZAI"
        }
      },
      "initialize(address,address,address,uint256,uint256,uint256,uint256,uint256,address)": {
        "params": {
          "_collateral": "The collateral token",
          "_debtCap": "The debt cap",
          "_feeDestination": "The address where fees are sent",
          "_governance": "Governance address",
          "_mintFeeBps": "The mint fee in BPS",
          "_newRate": "The new rate of ZAI/Collateral",
          "_redeemFeeBps": "The redeem fee in BPS",
          "_supplyCap": "The supply cap",
          "_zai": "The ZAI stablecoin"
        }
      },
      "mint(address,uint256)": {
        "details": "This contract calculates how much collateral should be taken",
        "params": {
          "destination": "Where the minted ZAI will be sent",
          "shares": "The amount of zai to mint"
        }
      },
      "mintAmountIn(uint256)": {
        "params": {
          "amountAssetsIn": "The amount of collateral"
        }
      },
      "owner()": {
        "details": "Returns the address of the current owner."
      },
      "redeem(address,uint256)": {
        "details": "This contract calculates how much collateral should be given",
        "params": {
          "destination": "Where the collateral will be sent",
          "shares": "The amount of zai to redeem"
        }
      },
      "redeemAmountOut(uint256)": {
        "params": {
          "amountAssetsOut": "The amount of collateral"
        }
      },
      "renounceOwnership()": {
        "details": "Leaves the contract without owner. It will not be possible to call `onlyOwner` functions. Can only be called by the current owner. NOTE: Renouncing ownership will leave the contract without an owner, thereby disabling any functionality that is only available to the owner."
      },
      "toCollateralAmount(uint256)": {
        "params": {
          "_amount": "The amount of ZAI"
        },
        "returns": {
          "_0": "The amount of collateral"
        }
      },
      "toCollateralAmountWithFee(uint256,uint256)": {
        "details": "Fee is calculated as (amount * (MAX_FEE_BPS + fee)) / MAX_FEE_BPS",
        "params": {
          "_amount": "The amount of ZAI",
          "_fee": "The fee to be charged in BPS"
        }
      },
      "toCollateralAmountWithFeeInverse(uint256,uint256)": {
        "details": "Fee is calculated as (amount * (MAX_FEE_BPS - fee)) / MAX_FEE_BPS",
        "params": {
          "_amount": "The amount of ZAI",
          "_fee": "The fee to be charged in BPS"
        }
      },
      "transferOwnership(address)": {
        "details": "Transfers ownership of the contract to a new account (`newOwner`). Can only be called by the current owner."
      },
      "updateCaps(uint256,uint256)": {
        "details": "Only callable by the admin",
        "params": {
          "_debtCap": "How much debt can be held",
          "_supplyCap": "How much collateral can be taken"
        }
      },
      "updateFeeDestination(address)": {
        "details": "Only callable by the admin",
        "params": {
          "_feeDestination": "The new fee destination"
        }
      },
      "updateFees(uint256,uint256)": {
        "params": {
          "_mintFeeBps": "The new mint fee in BPS",
          "_redeemFeeBps": "The new redeem fee in BPS"
        }
      },
      "updateRate(uint256)": {
        "details": "Only callable by the admin",
        "params": {
          "_newRate": "The new rate of ZAI/Collateral"
        }
      }
    },
    "title": "Peg Stability Module",
    "version": 1
  },
  "userdoc": {
    "errors": {
      "DebtCapReached()": [
        {
          "notice": "Error when debt cap is reached"
        }
      ],
      "NotZeroAddress()": [
        {
          "notice": "Error when address is not set"
        }
      ],
      "NotZeroValue()": [
        {
          "notice": "Error when value is zero"
        }
      ],
      "SupplyCapReached()": [
        {
          "notice": "Error when supply cap is reached"
        }
      ]
    },
    "events": {
      "FeeDestinationUpdated(address,address,address)": {
        "notice": "Emitted when the fee destination is updated"
      },
      "FeesUpdated(uint256,uint256,uint256,uint256,address)": {
        "notice": "Emitted when the fees are updated"
      },
      "Mint(address,uint256,uint256,uint256,uint256,address)": {
        "notice": "Emitted when a user mints ZAI"
      },
      "RateUpdated(uint256,uint256,address)": {
        "notice": "Emitted when the rate is updated"
      },
      "Redeem(address,uint256,uint256,uint256,uint256,address)": {
        "notice": "Emitted when a user redeems ZAI"
      },
      "SupplyCapUpdated(uint256,uint256,uint256,uint256,address)": {
        "notice": "Emitted when the supply cap is updated"
      }
    },
    "kind": "user",
    "methods": {
      "MAX_FEE_BPS()": {
        "notice": "The maximum fee that can be charged"
      },
      "collateral()": {
        "notice": "Returns the collateral token"
      },
      "debt()": {
        "notice": "Returns the current debt held in this vault"
      },
      "debtCap()": {
        "notice": "Returns the debt cap"
      },
      "feeDestination()": {
        "notice": "The address where fees are sent"
      },
      "feesCollected()": {
        "notice": "How much fees has been collected by the protocol"
      },
      "initialize(address,address,address,uint256,uint256,uint256,uint256,uint256,address)": {
        "notice": "Initializes the contract"
      },
      "mint(address,uint256)": {
        "notice": "Mints ZAI with collateral"
      },
      "mintAmountIn(uint256)": {
        "notice": "Calculates how much ZAI should be minted for a given amount of collateral"
      },
      "mintFeeBps()": {
        "notice": "The mint fee in BPS"
      },
      "rate()": {
        "notice": "Returns the current rate of ZAI/Collateral"
      },
      "redeem(address,uint256)": {
        "notice": "Redeems ZAI for collateral"
      },
      "redeemAmountOut(uint256)": {
        "notice": "Calculates how much ZAI should be redeemed for a given amount of collateral"
      },
      "redeemFeeBps()": {
        "notice": "The redeem fee in BPS"
      },
      "supplyCap()": {
        "notice": "Returns the supply cap"
      },
      "toCollateralAmount(uint256)": {
        "notice": "Converts ZAI amount to collateral"
      },
      "toCollateralAmountWithFee(uint256,uint256)": {
        "notice": "Converts ZAI amount to collateral with fee added"
      },
      "toCollateralAmountWithFeeInverse(uint256,uint256)": {
        "notice": "Converts ZAI amount to collateral with fee removed"
      },
      "updateCaps(uint256,uint256)": {
        "notice": "Updates the supply and debt caps"
      },
      "updateFeeDestination(address)": {
        "notice": "Updates the fee destination"
      },
      "updateFees(uint256,uint256)": {
        "notice": "Updates the mint and redeem fees"
      },
      "updateRate(uint256)": {
        "notice": "Updates the rate of ZAI/Collateral"
      },
      "zai()": {
        "notice": "Returns the Zai stablecoin"
      }
    },
    "notice": "Used to mint ZAI with collateral at a pre-defined rate",
    "version": 1
  },
  "storageLayout": {
    "storage": [
      {
        "astId": 20360,
        "contract": "contracts/core/psm/PegStabilityModule.sol:PegStabilityModule",
        "label": "zai",
        "offset": 0,
        "slot": "0",
        "type": "t_contract(IStablecoin)26477"
      },
      {
        "astId": 20364,
        "contract": "contracts/core/psm/PegStabilityModule.sol:PegStabilityModule",
        "label": "collateral",
        "offset": 0,
        "slot": "1",
        "type": "t_contract(IERC20)10366"
      },
      {
        "astId": 20367,
        "contract": "contracts/core/psm/PegStabilityModule.sol:PegStabilityModule",
        "label": "supplyCap",
        "offset": 0,
        "slot": "2",
        "type": "t_uint256"
      },
      {
        "astId": 20370,
        "contract": "contracts/core/psm/PegStabilityModule.sol:PegStabilityModule",
        "label": "debtCap",
        "offset": 0,
        "slot": "3",
        "type": "t_uint256"
      },
      {
        "astId": 20373,
        "contract": "contracts/core/psm/PegStabilityModule.sol:PegStabilityModule",
        "label": "debt",
        "offset": 0,
        "slot": "4",
        "type": "t_uint256"
      },
      {
        "astId": 20376,
        "contract": "contracts/core/psm/PegStabilityModule.sol:PegStabilityModule",
        "label": "rate",
        "offset": 0,
        "slot": "5",
        "type": "t_uint256"
      },
      {
        "astId": 20379,
        "contract": "contracts/core/psm/PegStabilityModule.sol:PegStabilityModule",
        "label": "mintFeeBps",
        "offset": 0,
        "slot": "6",
        "type": "t_uint256"
      },
      {
        "astId": 20382,
        "contract": "contracts/core/psm/PegStabilityModule.sol:PegStabilityModule",
        "label": "redeemFeeBps",
        "offset": 0,
        "slot": "7",
        "type": "t_uint256"
      },
      {
        "astId": 20385,
        "contract": "contracts/core/psm/PegStabilityModule.sol:PegStabilityModule",
        "label": "feeDestination",
        "offset": 0,
        "slot": "8",
        "type": "t_address"
      }
    ],
    "types": {
      "t_address": {
        "encoding": "inplace",
        "label": "address",
        "numberOfBytes": "20"
      },
      "t_contract(IERC20)10366": {
        "encoding": "inplace",
        "label": "contract IERC20",
        "numberOfBytes": "20"
      },
      "t_contract(IStablecoin)26477": {
        "encoding": "inplace",
        "label": "contract IStablecoin",
        "numberOfBytes": "20"
      },
      "t_uint256": {
        "encoding": "inplace",
        "label": "uint256",
        "numberOfBytes": "32"
      }
    }
  }
}