{
  "address": "0xcdd3a8E453A489fCe0be78208ef284772F30894A",
  "abi": [
    {
      "inputs": [],
      "name": "AccessControlBadConfirmation",
      "type": "error"
    },
    {
      "inputs": [
        {
          "internalType": "address",
          "name": "account",
          "type": "address"
        },
        {
          "internalType": "bytes32",
          "name": "neededRole",
          "type": "bytes32"
        }
      ],
      "name": "AccessControlUnauthorizedAccount",
      "type": "error"
    },
    {
      "inputs": [
        {
          "internalType": "address",
          "name": "target",
          "type": "address"
        }
      ],
      "name": "AddressEmptyCode",
      "type": "error"
    },
    {
      "inputs": [
        {
          "internalType": "address",
          "name": "account",
          "type": "address"
        }
      ],
      "name": "AddressInsufficientBalance",
      "type": "error"
    },
    {
      "inputs": [
        {
          "internalType": "address",
          "name": "spender",
          "type": "address"
        },
        {
          "internalType": "uint256",
          "name": "allowance",
          "type": "uint256"
        },
        {
          "internalType": "uint256",
          "name": "needed",
          "type": "uint256"
        }
      ],
      "name": "ERC20InsufficientAllowance",
      "type": "error"
    },
    {
      "inputs": [
        {
          "internalType": "address",
          "name": "sender",
          "type": "address"
        },
        {
          "internalType": "uint256",
          "name": "balance",
          "type": "uint256"
        },
        {
          "internalType": "uint256",
          "name": "needed",
          "type": "uint256"
        }
      ],
      "name": "ERC20InsufficientBalance",
      "type": "error"
    },
    {
      "inputs": [
        {
          "internalType": "address",
          "name": "approver",
          "type": "address"
        }
      ],
      "name": "ERC20InvalidApprover",
      "type": "error"
    },
    {
      "inputs": [
        {
          "internalType": "address",
          "name": "receiver",
          "type": "address"
        }
      ],
      "name": "ERC20InvalidReceiver",
      "type": "error"
    },
    {
      "inputs": [
        {
          "internalType": "address",
          "name": "sender",
          "type": "address"
        }
      ],
      "name": "ERC20InvalidSender",
      "type": "error"
    },
    {
      "inputs": [
        {
          "internalType": "address",
          "name": "spender",
          "type": "address"
        }
      ],
      "name": "ERC20InvalidSpender",
      "type": "error"
    },
    {
      "inputs": [
        {
          "internalType": "address",
          "name": "receiver",
          "type": "address"
        },
        {
          "internalType": "uint256",
          "name": "assets",
          "type": "uint256"
        },
        {
          "internalType": "uint256",
          "name": "max",
          "type": "uint256"
        }
      ],
      "name": "ERC4626ExceededMaxDeposit",
      "type": "error"
    },
    {
      "inputs": [
        {
          "internalType": "address",
          "name": "receiver",
          "type": "address"
        },
        {
          "internalType": "uint256",
          "name": "shares",
          "type": "uint256"
        },
        {
          "internalType": "uint256",
          "name": "max",
          "type": "uint256"
        }
      ],
      "name": "ERC4626ExceededMaxMint",
      "type": "error"
    },
    {
      "inputs": [
        {
          "internalType": "address",
          "name": "owner",
          "type": "address"
        },
        {
          "internalType": "uint256",
          "name": "shares",
          "type": "uint256"
        },
        {
          "internalType": "uint256",
          "name": "max",
          "type": "uint256"
        }
      ],
      "name": "ERC4626ExceededMaxRedeem",
      "type": "error"
    },
    {
      "inputs": [
        {
          "internalType": "address",
          "name": "owner",
          "type": "address"
        },
        {
          "internalType": "uint256",
          "name": "assets",
          "type": "uint256"
        },
        {
          "internalType": "uint256",
          "name": "max",
          "type": "uint256"
        }
      ],
      "name": "ERC4626ExceededMaxWithdraw",
      "type": "error"
    },
    {
      "inputs": [],
      "name": "FailedInnerCall",
      "type": "error"
    },
    {
      "inputs": [],
      "name": "InvalidInitialization",
      "type": "error"
    },
    {
      "inputs": [],
      "name": "MathOverflowedMulDiv",
      "type": "error"
    },
    {
      "inputs": [],
      "name": "NotInitializing",
      "type": "error"
    },
    {
      "inputs": [],
      "name": "ReentrancyGuardReentrantCall",
      "type": "error"
    },
    {
      "inputs": [
        {
          "internalType": "address",
          "name": "token",
          "type": "address"
        }
      ],
      "name": "SafeERC20FailedOperation",
      "type": "error"
    },
    {
      "anonymous": false,
      "inputs": [
        {
          "indexed": true,
          "internalType": "address",
          "name": "owner",
          "type": "address"
        },
        {
          "indexed": true,
          "internalType": "address",
          "name": "spender",
          "type": "address"
        },
        {
          "indexed": false,
          "internalType": "uint256",
          "name": "value",
          "type": "uint256"
        }
      ],
      "name": "Approval",
      "type": "event"
    },
    {
      "anonymous": false,
      "inputs": [
        {
          "indexed": true,
          "internalType": "uint256",
          "name": "amt",
          "type": "uint256"
        },
        {
          "indexed": true,
          "internalType": "address",
          "name": "caller",
          "type": "address"
        }
      ],
      "name": "BadDebtCovered",
      "type": "event"
    },
    {
      "anonymous": false,
      "inputs": [
        {
          "indexed": true,
          "internalType": "address",
          "name": "sender",
          "type": "address"
        },
        {
          "indexed": true,
          "internalType": "address",
          "name": "owner",
          "type": "address"
        },
        {
          "indexed": false,
          "internalType": "uint256",
          "name": "assets",
          "type": "uint256"
        },
        {
          "indexed": false,
          "internalType": "uint256",
          "name": "shares",
          "type": "uint256"
        }
      ],
      "name": "Deposit",
      "type": "event"
    },
    {
      "anonymous": false,
      "inputs": [
        {
          "indexed": false,
          "internalType": "uint64",
          "name": "version",
          "type": "uint64"
        }
      ],
      "name": "Initialized",
      "type": "event"
    },
    {
      "anonymous": false,
      "inputs": [
        {
          "indexed": true,
          "internalType": "contract IERC20",
          "name": "reward",
          "type": "address"
        },
        {
          "indexed": true,
          "internalType": "uint256",
          "name": "amount",
          "type": "uint256"
        },
        {
          "indexed": false,
          "internalType": "address",
          "name": "caller",
          "type": "address"
        }
      ],
      "name": "RewardAdded",
      "type": "event"
    },
    {
      "anonymous": false,
      "inputs": [
        {
          "indexed": true,
          "internalType": "contract IERC20",
          "name": "reward",
          "type": "address"
        },
        {
          "indexed": true,
          "internalType": "uint256",
          "name": "amount",
          "type": "uint256"
        },
        {
          "indexed": true,
          "internalType": "address",
          "name": "who",
          "type": "address"
        },
        {
          "indexed": false,
          "internalType": "address",
          "name": "caller",
          "type": "address"
        }
      ],
      "name": "RewardClaimed",
      "type": "event"
    },
    {
      "anonymous": false,
      "inputs": [
        {
          "indexed": true,
          "internalType": "bytes32",
          "name": "role",
          "type": "bytes32"
        },
        {
          "indexed": true,
          "internalType": "bytes32",
          "name": "previousAdminRole",
          "type": "bytes32"
        },
        {
          "indexed": true,
          "internalType": "bytes32",
          "name": "newAdminRole",
          "type": "bytes32"
        }
      ],
      "name": "RoleAdminChanged",
      "type": "event"
    },
    {
      "anonymous": false,
      "inputs": [
        {
          "indexed": true,
          "internalType": "bytes32",
          "name": "role",
          "type": "bytes32"
        },
        {
          "indexed": true,
          "internalType": "address",
          "name": "account",
          "type": "address"
        },
        {
          "indexed": true,
          "internalType": "address",
          "name": "sender",
          "type": "address"
        }
      ],
      "name": "RoleGranted",
      "type": "event"
    },
    {
      "anonymous": false,
      "inputs": [
        {
          "indexed": true,
          "internalType": "bytes32",
          "name": "role",
          "type": "bytes32"
        },
        {
          "indexed": true,
          "internalType": "address",
          "name": "account",
          "type": "address"
        },
        {
          "indexed": true,
          "internalType": "address",
          "name": "sender",
          "type": "address"
        }
      ],
      "name": "RoleRevoked",
      "type": "event"
    },
    {
      "anonymous": false,
      "inputs": [
        {
          "indexed": true,
          "internalType": "address",
          "name": "from",
          "type": "address"
        },
        {
          "indexed": true,
          "internalType": "address",
          "name": "to",
          "type": "address"
        },
        {
          "indexed": false,
          "internalType": "uint256",
          "name": "value",
          "type": "uint256"
        }
      ],
      "name": "Transfer",
      "type": "event"
    },
    {
      "anonymous": false,
      "inputs": [
        {
          "indexed": true,
          "internalType": "address",
          "name": "account",
          "type": "address"
        },
        {
          "indexed": false,
          "internalType": "uint256",
          "name": "boostedBalance",
          "type": "uint256"
        },
        {
          "indexed": false,
          "internalType": "uint256",
          "name": "boostedTotalSupply",
          "type": "uint256"
        }
      ],
      "name": "UpdatedBoost",
      "type": "event"
    },
    {
      "anonymous": false,
      "inputs": [
        {
          "indexed": true,
          "internalType": "address",
          "name": "sender",
          "type": "address"
        },
        {
          "indexed": true,
          "internalType": "address",
          "name": "receiver",
          "type": "address"
        },
        {
          "indexed": true,
          "internalType": "address",
          "name": "owner",
          "type": "address"
        },
        {
          "indexed": false,
          "internalType": "uint256",
          "name": "assets",
          "type": "uint256"
        },
        {
          "indexed": false,
          "internalType": "uint256",
          "name": "shares",
          "type": "uint256"
        }
      ],
      "name": "Withdraw",
      "type": "event"
    },
    {
      "anonymous": false,
      "inputs": [
        {
          "indexed": true,
          "internalType": "uint256",
          "name": "amt",
          "type": "uint256"
        },
        {
          "indexed": true,
          "internalType": "uint256",
          "name": "unlockTime",
          "type": "uint256"
        },
        {
          "indexed": true,
          "internalType": "address",
          "name": "caller",
          "type": "address"
        }
      ],
      "name": "WithdrawalQueueUpdated",
      "type": "event"
    },
    {
      "inputs": [],
      "name": "DEFAULT_ADMIN_ROLE",
      "outputs": [
        {
          "internalType": "bytes32",
          "name": "",
          "type": "bytes32"
        }
      ],
      "stateMutability": "view",
      "type": "function"
    },
    {
      "inputs": [],
      "name": "DISTRIBUTOR_ROLE",
      "outputs": [
        {
          "internalType": "bytes32",
          "name": "",
          "type": "bytes32"
        }
      ],
      "stateMutability": "view",
      "type": "function"
    },
    {
      "inputs": [],
      "name": "MANAGER_ROLE",
      "outputs": [
        {
          "internalType": "bytes32",
          "name": "",
          "type": "bytes32"
        }
      ],
      "stateMutability": "view",
      "type": "function"
    },
    {
      "inputs": [
        {
          "internalType": "address",
          "name": "owner",
          "type": "address"
        },
        {
          "internalType": "address",
          "name": "spender",
          "type": "address"
        }
      ],
      "name": "allowance",
      "outputs": [
        {
          "internalType": "uint256",
          "name": "",
          "type": "uint256"
        }
      ],
      "stateMutability": "view",
      "type": "function"
    },
    {
      "inputs": [
        {
          "internalType": "address",
          "name": "spender",
          "type": "address"
        },
        {
          "internalType": "uint256",
          "name": "value",
          "type": "uint256"
        }
      ],
      "name": "approve",
      "outputs": [
        {
          "internalType": "bool",
          "name": "",
          "type": "bool"
        }
      ],
      "stateMutability": "nonpayable",
      "type": "function"
    },
    {
      "inputs": [
        {
          "internalType": "uint256",
          "name": "val",
          "type": "uint256"
        },
        {
          "internalType": "uint256",
          "name": "deadline",
          "type": "uint256"
        },
        {
          "internalType": "uint8",
          "name": "v",
          "type": "uint8"
        },
        {
          "internalType": "bytes32",
          "name": "r",
          "type": "bytes32"
        },
        {
          "internalType": "bytes32",
          "name": "s",
          "type": "bytes32"
        }
      ],
      "name": "approveUnderlyingWithPermit",
      "outputs": [],
      "stateMutability": "nonpayable",
      "type": "function"
    },
    {
      "inputs": [],
      "name": "asset",
      "outputs": [
        {
          "internalType": "address",
          "name": "",
          "type": "address"
        }
      ],
      "stateMutability": "view",
      "type": "function"
    },
    {
      "inputs": [
        {
          "internalType": "address",
          "name": "account",
          "type": "address"
        }
      ],
      "name": "balanceOf",
      "outputs": [
        {
          "internalType": "uint256",
          "name": "",
          "type": "uint256"
        }
      ],
      "stateMutability": "view",
      "type": "function"
    },
    {
      "inputs": [
        {
          "internalType": "address",
          "name": "who",
          "type": "address"
        }
      ],
      "name": "boostedBalance",
      "outputs": [
        {
          "internalType": "uint256",
          "name": "boostedBalance_",
          "type": "uint256"
        }
      ],
      "stateMutability": "view",
      "type": "function"
    },
    {
      "inputs": [],
      "name": "cancelWithdrawal",
      "outputs": [],
      "stateMutability": "nonpayable",
      "type": "function"
    },
    {
      "inputs": [
        {
          "internalType": "uint256",
          "name": "shares",
          "type": "uint256"
        }
      ],
      "name": "convertToAssets",
      "outputs": [
        {
          "internalType": "uint256",
          "name": "",
          "type": "uint256"
        }
      ],
      "stateMutability": "view",
      "type": "function"
    },
    {
      "inputs": [
        {
          "internalType": "uint256",
          "name": "assets",
          "type": "uint256"
        }
      ],
      "name": "convertToShares",
      "outputs": [
        {
          "internalType": "uint256",
          "name": "",
          "type": "uint256"
        }
      ],
      "stateMutability": "view",
      "type": "function"
    },
    {
      "inputs": [
        {
          "internalType": "uint256",
          "name": "amount",
          "type": "uint256"
        }
      ],
      "name": "coverBadDebt",
      "outputs": [],
      "stateMutability": "nonpayable",
      "type": "function"
    },
    {
      "inputs": [],
      "name": "decimals",
      "outputs": [
        {
          "internalType": "uint8",
          "name": "",
          "type": "uint8"
        }
      ],
      "stateMutability": "view",
      "type": "function"
    },
    {
      "inputs": [
        {
          "internalType": "uint256",
          "name": "assets",
          "type": "uint256"
        },
        {
          "internalType": "address",
          "name": "receiver",
          "type": "address"
        }
      ],
      "name": "deposit",
      "outputs": [
        {
          "internalType": "uint256",
          "name": "",
          "type": "uint256"
        }
      ],
      "stateMutability": "nonpayable",
      "type": "function"
    },
    {
      "inputs": [
        {
          "internalType": "contract IERC20",
          "name": "token",
          "type": "address"
        },
        {
          "internalType": "address",
          "name": "account",
          "type": "address"
        }
      ],
      "name": "earned",
      "outputs": [
        {
          "internalType": "uint256",
          "name": "",
          "type": "uint256"
        }
      ],
      "stateMutability": "view",
      "type": "function"
    },
    {
      "inputs": [
        {
          "internalType": "address",
          "name": "who",
          "type": "address"
        },
        {
          "internalType": "contract IERC20",
          "name": "token",
          "type": "address"
        }
      ],
      "name": "getReward",
      "outputs": [],
      "stateMutability": "nonpayable",
      "type": "function"
    },
    {
      "inputs": [
        {
          "internalType": "address",
          "name": "who",
          "type": "address"
        }
      ],
      "name": "getRewardDual",
      "outputs": [],
      "stateMutability": "nonpayable",
      "type": "function"
    },
    {
      "inputs": [
        {
          "internalType": "bytes32",
          "name": "role",
          "type": "bytes32"
        }
      ],
      "name": "getRoleAdmin",
      "outputs": [
        {
          "internalType": "bytes32",
          "name": "",
          "type": "bytes32"
        }
      ],
      "stateMutability": "view",
      "type": "function"
    },
    {
      "inputs": [
        {
          "internalType": "bytes32",
          "name": "role",
          "type": "bytes32"
        },
        {
          "internalType": "uint256",
          "name": "index",
          "type": "uint256"
        }
      ],
      "name": "getRoleMember",
      "outputs": [
        {
          "internalType": "address",
          "name": "",
          "type": "address"
        }
      ],
      "stateMutability": "view",
      "type": "function"
    },
    {
      "inputs": [
        {
          "internalType": "bytes32",
          "name": "role",
          "type": "bytes32"
        }
      ],
      "name": "getRoleMemberCount",
      "outputs": [
        {
          "internalType": "uint256",
          "name": "",
          "type": "uint256"
        }
      ],
      "stateMutability": "view",
      "type": "function"
    },
    {
      "inputs": [
        {
          "internalType": "bytes32",
          "name": "role",
          "type": "bytes32"
        },
        {
          "internalType": "address",
          "name": "account",
          "type": "address"
        }
      ],
      "name": "grantRole",
      "outputs": [],
      "stateMutability": "nonpayable",
      "type": "function"
    },
    {
      "inputs": [
        {
          "internalType": "bytes32",
          "name": "role",
          "type": "bytes32"
        },
        {
          "internalType": "address",
          "name": "account",
          "type": "address"
        }
      ],
      "name": "hasRole",
      "outputs": [
        {
          "internalType": "bool",
          "name": "",
          "type": "bool"
        }
      ],
      "stateMutability": "view",
      "type": "function"
    },
    {
      "inputs": [
        {
          "internalType": "string",
          "name": "_name",
          "type": "string"
        },
        {
          "internalType": "string",
          "name": "_symbol",
          "type": "string"
        },
        {
          "internalType": "address",
          "name": "_stablecoin",
          "type": "address"
        },
        {
          "internalType": "uint256",
          "name": "_withdrawalDelay",
          "type": "uint256"
        },
        {
          "internalType": "address",
          "name": "_governance",
          "type": "address"
        },
        {
          "internalType": "address",
          "name": "_rewardToken1",
          "type": "address"
        },
        {
          "internalType": "address",
          "name": "_rewardToken2",
          "type": "address"
        },
        {
          "internalType": "uint256",
          "name": "_rewardsDuration",
          "type": "uint256"
        },
        {
          "internalType": "address",
          "name": "_stakingBoost",
          "type": "address"
        }
      ],
      "name": "initialize",
      "outputs": [],
      "stateMutability": "nonpayable",
      "type": "function"
    },
    {
      "inputs": [
        {
          "internalType": "contract IERC20",
          "name": "token",
          "type": "address"
        }
      ],
      "name": "lastTimeRewardApplicable",
      "outputs": [
        {
          "internalType": "uint256",
          "name": "",
          "type": "uint256"
        }
      ],
      "stateMutability": "view",
      "type": "function"
    },
    {
      "inputs": [
        {
          "internalType": "contract IERC20",
          "name": "reward",
          "type": "address"
        }
      ],
      "name": "lastUpdateTime",
      "outputs": [
        {
          "internalType": "uint256",
          "name": "",
          "type": "uint256"
        }
      ],
      "stateMutability": "view",
      "type": "function"
    },
    {
      "inputs": [
        {
          "internalType": "address",
          "name": "",
          "type": "address"
        }
      ],
      "name": "maxDeposit",
      "outputs": [
        {
          "internalType": "uint256",
          "name": "",
          "type": "uint256"
        }
      ],
      "stateMutability": "view",
      "type": "function"
    },
    {
      "inputs": [
        {
          "internalType": "address",
          "name": "",
          "type": "address"
        }
      ],
      "name": "maxMint",
      "outputs": [
        {
          "internalType": "uint256",
          "name": "",
          "type": "uint256"
        }
      ],
      "stateMutability": "view",
      "type": "function"
    },
    {
      "inputs": [
        {
          "internalType": "address",
          "name": "owner",
          "type": "address"
        }
      ],
      "name": "maxRedeem",
      "outputs": [
        {
          "internalType": "uint256",
          "name": "",
          "type": "uint256"
        }
      ],
      "stateMutability": "view",
      "type": "function"
    },
    {
      "inputs": [
        {
          "internalType": "address",
          "name": "owner",
          "type": "address"
        }
      ],
      "name": "maxWithdraw",
      "outputs": [
        {
          "internalType": "uint256",
          "name": "",
          "type": "uint256"
        }
      ],
      "stateMutability": "view",
      "type": "function"
    },
    {
      "inputs": [
        {
          "internalType": "uint256",
          "name": "shares",
          "type": "uint256"
        },
        {
          "internalType": "address",
          "name": "receiver",
          "type": "address"
        }
      ],
      "name": "mint",
      "outputs": [
        {
          "internalType": "uint256",
          "name": "",
          "type": "uint256"
        }
      ],
      "stateMutability": "nonpayable",
      "type": "function"
    },
    {
      "inputs": [
        {
          "internalType": "bytes[]",
          "name": "data",
          "type": "bytes[]"
        }
      ],
      "name": "multicall",
      "outputs": [
        {
          "internalType": "bytes[]",
          "name": "results",
          "type": "bytes[]"
        }
      ],
      "stateMutability": "nonpayable",
      "type": "function"
    },
    {
      "inputs": [],
      "name": "name",
      "outputs": [
        {
          "internalType": "string",
          "name": "",
          "type": "string"
        }
      ],
      "stateMutability": "view",
      "type": "function"
    },
    {
      "inputs": [
        {
          "internalType": "contract IERC20",
          "name": "token",
          "type": "address"
        },
        {
          "internalType": "uint256",
          "name": "reward",
          "type": "uint256"
        }
      ],
      "name": "notifyRewardAmount",
      "outputs": [],
      "stateMutability": "nonpayable",
      "type": "function"
    },
    {
      "inputs": [
        {
          "internalType": "contract IERC20",
          "name": "reward",
          "type": "address"
        }
      ],
      "name": "periodFinish",
      "outputs": [
        {
          "internalType": "uint256",
          "name": "",
          "type": "uint256"
        }
      ],
      "stateMutability": "view",
      "type": "function"
    },
    {
      "inputs": [
        {
          "internalType": "uint256",
          "name": "assets",
          "type": "uint256"
        }
      ],
      "name": "previewDeposit",
      "outputs": [
        {
          "internalType": "uint256",
          "name": "",
          "type": "uint256"
        }
      ],
      "stateMutability": "view",
      "type": "function"
    },
    {
      "inputs": [
        {
          "internalType": "uint256",
          "name": "shares",
          "type": "uint256"
        }
      ],
      "name": "previewMint",
      "outputs": [
        {
          "internalType": "uint256",
          "name": "",
          "type": "uint256"
        }
      ],
      "stateMutability": "view",
      "type": "function"
    },
    {
      "inputs": [
        {
          "internalType": "uint256",
          "name": "shares",
          "type": "uint256"
        }
      ],
      "name": "previewRedeem",
      "outputs": [
        {
          "internalType": "uint256",
          "name": "",
          "type": "uint256"
        }
      ],
      "stateMutability": "view",
      "type": "function"
    },
    {
      "inputs": [
        {
          "internalType": "uint256",
          "name": "assets",
          "type": "uint256"
        }
      ],
      "name": "previewWithdraw",
      "outputs": [
        {
          "internalType": "uint256",
          "name": "",
          "type": "uint256"
        }
      ],
      "stateMutability": "view",
      "type": "function"
    },
    {
      "inputs": [
        {
          "internalType": "uint256",
          "name": "shares",
          "type": "uint256"
        }
      ],
      "name": "queueWithdrawal",
      "outputs": [],
      "stateMutability": "nonpayable",
      "type": "function"
    },
    {
      "inputs": [
        {
          "internalType": "uint256",
          "name": "shares",
          "type": "uint256"
        },
        {
          "internalType": "address",
          "name": "receiver",
          "type": "address"
        },
        {
          "internalType": "address",
          "name": "owner",
          "type": "address"
        }
      ],
      "name": "redeem",
      "outputs": [
        {
          "internalType": "uint256",
          "name": "",
          "type": "uint256"
        }
      ],
      "stateMutability": "nonpayable",
      "type": "function"
    },
    {
      "inputs": [
        {
          "internalType": "bytes32",
          "name": "role",
          "type": "bytes32"
        },
        {
          "internalType": "address",
          "name": "callerConfirmation",
          "type": "address"
        }
      ],
      "name": "renounceRole",
      "outputs": [],
      "stateMutability": "nonpayable",
      "type": "function"
    },
    {
      "inputs": [
        {
          "internalType": "bytes32",
          "name": "role",
          "type": "bytes32"
        },
        {
          "internalType": "address",
          "name": "account",
          "type": "address"
        }
      ],
      "name": "revokeRole",
      "outputs": [],
      "stateMutability": "nonpayable",
      "type": "function"
    },
    {
      "inputs": [
        {
          "internalType": "contract IERC20",
          "name": "token",
          "type": "address"
        }
      ],
      "name": "rewardPerToken",
      "outputs": [
        {
          "internalType": "uint256",
          "name": "",
          "type": "uint256"
        }
      ],
      "stateMutability": "view",
      "type": "function"
    },
    {
      "inputs": [
        {
          "internalType": "contract IERC20",
          "name": "reward",
          "type": "address"
        }
      ],
      "name": "rewardPerTokenStored",
      "outputs": [
        {
          "internalType": "uint256",
          "name": "",
          "type": "uint256"
        }
      ],
      "stateMutability": "view",
      "type": "function"
    },
    {
      "inputs": [
        {
          "internalType": "contract IERC20",
          "name": "reward",
          "type": "address"
        }
      ],
      "name": "rewardRate",
      "outputs": [
        {
          "internalType": "uint256",
          "name": "",
          "type": "uint256"
        }
      ],
      "stateMutability": "view",
      "type": "function"
    },
    {
      "inputs": [],
      "name": "rewardToken1",
      "outputs": [
        {
          "internalType": "contract IERC20",
          "name": "",
          "type": "address"
        }
      ],
      "stateMutability": "view",
      "type": "function"
    },
    {
      "inputs": [],
      "name": "rewardToken2",
      "outputs": [
        {
          "internalType": "contract IERC20",
          "name": "",
          "type": "address"
        }
      ],
      "stateMutability": "view",
      "type": "function"
    },
    {
      "inputs": [
        {
          "internalType": "contract IERC20",
          "name": "reward",
          "type": "address"
        },
        {
          "internalType": "address",
          "name": "who",
          "type": "address"
        }
      ],
      "name": "rewards",
      "outputs": [
        {
          "internalType": "uint256",
          "name": "rewards",
          "type": "uint256"
        }
      ],
      "stateMutability": "view",
      "type": "function"
    },
    {
      "inputs": [],
      "name": "rewardsDuration",
      "outputs": [
        {
          "internalType": "uint256",
          "name": "",
          "type": "uint256"
        }
      ],
      "stateMutability": "view",
      "type": "function"
    },
    {
      "inputs": [],
      "name": "staking",
      "outputs": [
        {
          "internalType": "contract IOmnichainStaking",
          "name": "",
          "type": "address"
        }
      ],
      "stateMutability": "view",
      "type": "function"
    },
    {
      "inputs": [
        {
          "internalType": "bytes4",
          "name": "interfaceId",
          "type": "bytes4"
        }
      ],
      "name": "supportsInterface",
      "outputs": [
        {
          "internalType": "bool",
          "name": "",
          "type": "bool"
        }
      ],
      "stateMutability": "view",
      "type": "function"
    },
    {
      "inputs": [],
      "name": "symbol",
      "outputs": [
        {
          "internalType": "string",
          "name": "",
          "type": "string"
        }
      ],
      "stateMutability": "view",
      "type": "function"
    },
    {
      "inputs": [],
      "name": "totalAssets",
      "outputs": [
        {
          "internalType": "uint256",
          "name": "",
          "type": "uint256"
        }
      ],
      "stateMutability": "view",
      "type": "function"
    },
    {
      "inputs": [],
      "name": "totalBoostedSupply",
      "outputs": [
        {
          "internalType": "uint256",
          "name": "boostedTotalSupply_",
          "type": "uint256"
        }
      ],
      "stateMutability": "view",
      "type": "function"
    },
    {
      "inputs": [],
      "name": "totalSupply",
      "outputs": [
        {
          "internalType": "uint256",
          "name": "",
          "type": "uint256"
        }
      ],
      "stateMutability": "view",
      "type": "function"
    },
    {
      "inputs": [],
      "name": "totalVotingPower",
      "outputs": [
        {
          "internalType": "uint256",
          "name": "supply",
          "type": "uint256"
        }
      ],
      "stateMutability": "view",
      "type": "function"
    },
    {
      "inputs": [
        {
          "internalType": "address",
          "name": "to",
          "type": "address"
        },
        {
          "internalType": "uint256",
          "name": "value",
          "type": "uint256"
        }
      ],
      "name": "transfer",
      "outputs": [
        {
          "internalType": "bool",
          "name": "",
          "type": "bool"
        }
      ],
      "stateMutability": "nonpayable",
      "type": "function"
    },
    {
      "inputs": [
        {
          "internalType": "address",
          "name": "from",
          "type": "address"
        },
        {
          "internalType": "address",
          "name": "to",
          "type": "address"
        },
        {
          "internalType": "uint256",
          "name": "value",
          "type": "uint256"
        }
      ],
      "name": "transferFrom",
      "outputs": [
        {
          "internalType": "bool",
          "name": "",
          "type": "bool"
        }
      ],
      "stateMutability": "nonpayable",
      "type": "function"
    },
    {
      "inputs": [
        {
          "internalType": "contract IERC20",
          "name": "token",
          "type": "address"
        },
        {
          "internalType": "address",
          "name": "who",
          "type": "address"
        }
      ],
      "name": "updateRewards",
      "outputs": [],
      "stateMutability": "nonpayable",
      "type": "function"
    },
    {
      "inputs": [
        {
          "internalType": "contract IERC20",
          "name": "reward",
          "type": "address"
        },
        {
          "internalType": "address",
          "name": "who",
          "type": "address"
        }
      ],
      "name": "userRewardPerTokenPaid",
      "outputs": [
        {
          "internalType": "uint256",
          "name": "",
          "type": "uint256"
        }
      ],
      "stateMutability": "view",
      "type": "function"
    },
    {
      "inputs": [
        {
          "internalType": "address",
          "name": "who",
          "type": "address"
        }
      ],
      "name": "votingPower",
      "outputs": [
        {
          "internalType": "uint256",
          "name": "balance",
          "type": "uint256"
        }
      ],
      "stateMutability": "view",
      "type": "function"
    },
    {
      "inputs": [
        {
          "internalType": "uint256",
          "name": "assets",
          "type": "uint256"
        },
        {
          "internalType": "address",
          "name": "receiver",
          "type": "address"
        },
        {
          "internalType": "address",
          "name": "owner",
          "type": "address"
        }
      ],
      "name": "withdraw",
      "outputs": [
        {
          "internalType": "uint256",
          "name": "",
          "type": "uint256"
        }
      ],
      "stateMutability": "nonpayable",
      "type": "function"
    },
    {
      "inputs": [
        {
          "internalType": "address",
          "name": "",
          "type": "address"
        }
      ],
      "name": "withdrawalAmount",
      "outputs": [
        {
          "internalType": "uint256",
          "name": "",
          "type": "uint256"
        }
      ],
      "stateMutability": "view",
      "type": "function"
    },
    {
      "inputs": [],
      "name": "withdrawalDelay",
      "outputs": [
        {
          "internalType": "uint256",
          "name": "",
          "type": "uint256"
        }
      ],
      "stateMutability": "view",
      "type": "function"
    },
    {
      "inputs": [
        {
          "internalType": "address",
          "name": "",
          "type": "address"
        }
      ],
      "name": "withdrawalTimestamp",
      "outputs": [
        {
          "internalType": "uint256",
          "name": "",
          "type": "uint256"
        }
      ],
      "stateMutability": "view",
      "type": "function"
    }
  ],
  "transactionHash": "0x308bc30542fdcbad870cc5ec7bd2d9d6f68af50f66ecfa1974506e87d8e097d2",
  "args": [],
  "numDeployments": 1,
  "solcInputHash": "5f97cfa319810115112d1a5d3fd4e5f5",
  "bytecode": "0x60c06040527ffbd454f36a7e1a388bd6fc3ab10d434aa4578f811acbbcf33afb1c697486313c6080527f241ecf16d79d0f8dbfb92cbc07fe17840425976cf0667f022fe9877caa831b0860a05234801561005857600080fd5b5060805160a051613fce61008c600039600081816109d6015261185f015260008181610a23015261142f0152613fce6000f3fe608060405234801561001057600080fd5b50600436106104065760003560e01c806370a082311161021a578063c6e6f59211610135578063dd62ed3e116100c8578063ef8b30f711610097578063f0bd87cc1161007c578063f0bd87cc14610a1e578063f122977714610a45578063f3da8d3914610a5857600080fd5b8063ef8b30f71461089c578063f01edde014610a0b57600080fd5b8063dd62ed3e1461094e578063e70b9e27146109a6578063ec87621c146109d1578063ecc6d9ff146109f857600080fd5b8063d61a47f111610104578063d61a47f1146108e8578063d905777e146108fb578063da09d19d1461090e578063daa91f2e1461092e57600080fd5b8063c6e6f5921461089c578063ca15c873146108af578063ce96cb77146108c2578063d547741f146108d557600080fd5b8063a9059cbb116101ad578063b66503cf1161017c578063b66503cf14610863578063ba08765214610876578063c07473f614610889578063c63d75b61461062b57600080fd5b8063a9059cbb1461080a578063ac9650d81461081d578063b3d7f6b91461083d578063b460af941461085057600080fd5b806395d89b41116101e957806395d89b41146107d15780639ce43f90146107d9578063a217fddf146107f9578063a7ab69611461080157600080fd5b806370a082311461070b5780639010d07c1461075357806391d148541461076657806394bf804d146107be57600080fd5b8063313ce567116103255780635116ee42116102b85780636b091695116102875780636e553f651161026c5780636e553f65146106ba5780636f28d688146106cd5780637035ab98146106e057600080fd5b80636b091695146106945780636b174f35146106a757600080fd5b80635116ee42146106535780635ba83cac14610666578063638634ee14610679578063671b37931461068c57600080fd5b806338d52e0f116102f457806338d52e0f146105e7578063402d267d1461062b5780634cdad5061461045e5780634cf088d91461064057600080fd5b8063313ce5671461059e57806336568abe146105b85780633853ca54146105cb578063386a9525146105de57600080fd5b806318160ddd1161039d57806323b872dd1161036c57806323b872dd14610516578063248a9ca3146105295780632ce9aead1461056b5780632f2ff15d1461058b57600080fd5b806318160ddd146104b4578063211dc32d146104db578063221ca18c146104ee578063226112801461050e57600080fd5b8063095ea7b3116103d9578063095ea7b3146104715780630a28a477146104845780630dda7299146104975780630e37d36f1461049f57600080fd5b806301e1d1141461040b57806301ffc9a71461042657806306fdde031461044957806307a2d13a1461045e575b600080fd5b610413610a78565b6040519081526020015b60405180910390f35b6104396104343660046136d7565b610b0e565b604051901515815260200161041d565b610451610b52565b60405161041d9190613751565b61041361046c366004613764565b610c27565b61043961047f3660046137a2565b610c34565b610413610492366004613764565b610c4c565b610413610c59565b6104b26104ad3660046137ce565b610c65565b005b7f52c63247e1f47db19d5ce0460030c497f067ca4cebf71ba98eeadabe20bace0254610413565b6104136104e93660046137ce565b610c73565b6104136104fc366004613807565b60016020526000908152604090205481565b6104b2610c9a565b610439610524366004613824565b610ce4565b610413610537366004613764565b60009081527f02dd7bc7dec4dceedda775e58dd541e08a116c6c53815c0bd028192f7b626800602052604090206001015490565b610413610579366004613807565b60036020526000908152604090205481565b6104b2610599366004613865565b610d0a565b6105a6610d54565b60405160ff909116815260200161041d565b6104b26105c6366004613865565b610d92565b6104b26105d936600461392d565b610de3565b61041360025481565b7f0773e532dfede91f04b12a73d3d2acd361424f41f76b4fb79f090161e36b4e00546001600160a01b03165b6040516001600160a01b03909116815260200161041d565b610413610639366004613807565b5060001990565b600954610613906001600160a01b031681565b6104b26106613660046139fc565b610eff565b610413610674366004613807565b610fd0565b610413610687366004613807565b610fe2565b610413611006565b6104b26106a23660046137ce565b611012565b6104b26106b5366004613764565b6110f5565b6104136106c8366004613865565b6111d6565b600754610613906001600160a01b031681565b6104136106ee3660046137ce565b600560209081526000928352604080842090915290825290205481565b610413610719366004613807565b6001600160a01b031660009081527f52c63247e1f47db19d5ce0460030c497f067ca4cebf71ba98eeadabe20bace00602052604090205490565b610613610761366004613a4b565b6111fc565b610439610774366004613865565b60009182527f02dd7bc7dec4dceedda775e58dd541e08a116c6c53815c0bd028192f7b626800602090815260408084206001600160a01b0393909316845291905290205460ff1690565b6104136107cc366004613865565b611235565b610451611253565b6104136107e7366004613807565b60046020526000908152604090205481565b610413600081565b610413600e5481565b6104396108183660046137a2565b6112a4565b61083061082b366004613a6d565b6112b2565b60405161041d9190613ae2565b61041361084b366004613764565b6113a5565b61041361085e366004613b44565b6113b2565b6104b26108713660046137a2565b61142d565b610413610884366004613b44565b6116ce565b610413610897366004613807565b611749565b6104136108aa366004613764565b611754565b6104136108bd366004613764565b611761565b6104136108d0366004613807565b611799565b6104b26108e3366004613865565b6117dc565b600854610613906001600160a01b031681565b610413610909366004613807565b611820565b61041361091c366004613807565b60006020819052908152604090205481565b61041361093c366004613807565b60106020526000908152604090205481565b61041361095c3660046137ce565b6001600160a01b0391821660009081527f52c63247e1f47db19d5ce0460030c497f067ca4cebf71ba98eeadabe20bace016020908152604080832093909416825291909152205490565b6104136109b43660046137ce565b600660209081526000928352604080842090915290825290205481565b6104137f000000000000000000000000000000000000000000000000000000000000000081565b6104b2610a06366004613764565b61185d565b6104b2610a19366004613807565b611970565b6104137f000000000000000000000000000000000000000000000000000000000000000081565b610413610a53366004613807565b611b23565b610413610a66366004613807565b600f6020526000908152604090205481565b6000807f0773e532dfede91f04b12a73d3d2acd361424f41f76b4fb79f090161e36b4e0080546040516370a0823160e01b81523060048201529192506001600160a01b0316906370a0823190602401602060405180830381865afa158015610ae4573d6000803e3d6000fd5b505050506040513d601f19601f82011682018060405250810190610b089190613b86565b91505090565b60006001600160e01b031982167f5a05180f000000000000000000000000000000000000000000000000000000001480610b4c5750610b4c82611b31565b92915050565b7f52c63247e1f47db19d5ce0460030c497f067ca4cebf71ba98eeadabe20bace0380546060917f52c63247e1f47db19d5ce0460030c497f067ca4cebf71ba98eeadabe20bace0091610ba390613b9f565b80601f0160208091040260200160405190810160405280929190818152602001828054610bcf90613b9f565b8015610c1c5780601f10610bf157610100808354040283529160200191610c1c565b820191906000526020600020905b815481529060010190602001808311610bff57829003601f168201915b505050505091505090565b6000610b4c826000611b98565b600033610c42818585611bf1565b5060019392505050565b6000610b4c826001611bfe565b6000610b4c6000611c4d565b610c6f8282611d8d565b5050565b6000806000610c8184611c4d565b91509150610c9185858484611ea9565b95945050505050565b336000818152600f6020908152604080832083905560109091528082208290555181907fd8889e83fc2ffb229540f381705914cbb36a5cd705d85e1b0035c5eba0c30f4a908290a4565b600033610cf2858285611f22565b610cfd858585611fd2565b60019150505b9392505050565b60008281527f02dd7bc7dec4dceedda775e58dd541e08a116c6c53815c0bd028192f7b6268006020526040902060010154610d4481612031565b610d4e838361203b565b50505050565b6000807f0773e532dfede91f04b12a73d3d2acd361424f41f76b4fb79f090161e36b4e00905060008154610b089190600160a01b900460ff16613bef565b6001600160a01b0381163314610dd4576040517f6697b23200000000000000000000000000000000000000000000000000000000815260040160405180910390fd5b610dde8282612092565b505050565b7ff0c57e16840df040f15088dc2f81fe391c3923bec73e23a9662efc9c229c6a0080546001919068010000000000000000900460ff1680610e325750805467ffffffffffffffff808416911610155b15610e69576040517ff92ee8a900000000000000000000000000000000000000000000000000000000815260040160405180910390fd5b805468ffffffffffffffffff191667ffffffffffffffff83161768010000000000000000178155610ea08b8b8b8a8a8a8a8a6120e0565b600e889055805468ff00000000000000001916815560405167ffffffffffffffff831681527fc7f505b2f371ae2175ee4913f4499e1f2633a7b5936321eed1cdaeb6115181d29060200160405180910390a15050505050505050505050565b7f0773e532dfede91f04b12a73d3d2acd361424f41f76b4fb79f090161e36b4e00546001600160a01b03166040517fd505accf000000000000000000000000000000000000000000000000000000008152336004820152306024820152604481018790526064810186905260ff8516608482015260a4810184905260c481018390526001600160a01b03919091169063d505accf9060e401600060405180830381600087803b158015610fb157600080fd5b505af1158015610fc5573d6000803e3d6000fd5b505050505050505050565b6000610fdb82611c4d565b5092915050565b6001600160a01b038116600090815260208190526040812054610b4c904290612244565b6000610b4c600061225a565b61101a612351565b6110248183611d8d565b6001600160a01b0380821660009081526006602090815260408083209386168352929052205480156110cb576001600160a01b0380831660008181526006602090815260408083209488168352939052918220919091556110869084836123b4565b6040513381526001600160a01b038085169183918516907fe6ac6a784fb43c9f6329d2f5c82f88a26a93bad4281f7780725af5f071f0aafa9060200160405180910390a45b50610c6f60017f9b779b17422d0df92223018b32b4d1fa46e071723d6817e2486d003becc55f0055565b3360009081527f52c63247e1f47db19d5ce0460030c497f067ca4cebf71ba98eeadabe20bace0060205260409020548111156111785760405162461bcd60e51b815260206004820152601460248201527f696e73756666696369656e742062616c616e636500000000000000000000000060448201526064015b60405180910390fd5b600e546111859042613c08565b336000818152600f60208181526040808420958655601082528084208790559190529254925191929184917fd8889e83fc2ffb229540f381705914cbb36a5cd705d85e1b0035c5eba0c30f4a91a450565b600060001960006111e685611754565b90506111f433858784612428565b949350505050565b60008281527fc1f6fe24621ce81ec5827caf0253cadb74709b061630e6b55e823717059320006020819052604082206111f49084612451565b60006000196000611245856113a5565b90506111f433858388612428565b7f52c63247e1f47db19d5ce0460030c497f067ca4cebf71ba98eeadabe20bace0480546060917f52c63247e1f47db19d5ce0460030c497f067ca4cebf71ba98eeadabe20bace0091610ba390613b9f565b600033610c42818585611fd2565b6040805160008152602081019091526060908267ffffffffffffffff8111156112dd576112dd61388a565b60405190808252806020026020018201604052801561131057816020015b60608152602001906001900390816112fb5790505b50915060005b8381101561139d5761136d3086868481811061133457611334613c2e565b90506020028101906113469190613c44565b8560405160200161135993929190613c92565b60405160208183030381529060405261245d565b83828151811061137f5761137f613c2e565b6020026020010181905250808061139590613cb9565b915050611316565b505092915050565b6000610b4c826001611b98565b6000806113be83611799565b905080851115611413576040517ffe9cceec0000000000000000000000000000000000000000000000000000000081526001600160a01b0384166004820152602481018690526044810182905260640161116f565b600061141e86610c4c565b9050610c9133868689856124ca565b7f000000000000000000000000000000000000000000000000000000000000000061145781612031565b61145f612351565b61146a836000611d8d565b61147f6001600160a01b0384163330856125ff565b6001600160a01b03831660009081526020819052604090205442106114c9576002546114ab9083613ce8565b6001600160a01b03841660009081526001602052604090205561154a565b6001600160a01b0383166000908152602081905260408120546114ed904290613c1b565b6001600160a01b038516600090815260016020526040812054919250906115149083613cfc565b6002549091506115248286613c08565b61152e9190613ce8565b6001600160a01b03861660009081526001602052604090205550505b6040516370a0823160e01b81523060048201526000906001600160a01b038516906370a0823190602401602060405180830381865afa158015611591573d6000803e3d6000fd5b505050506040513d601f19601f820116820180604052508101906115b59190613b86565b9050600254816115c59190613ce8565b6001600160a01b038516600090815260016020526040902054111561162c5760405162461bcd60e51b815260206004820152601260248201527f6e6f7420656e6f7567682062616c616e63650000000000000000000000000000604482015260640161116f565b6001600160a01b0384166000908152600360205260409020429081905560025461165591613c08565b6001600160a01b03851660008181526020818152604091829020939093555133815285927f54dba80f86e498df5a2fcdb5c089d051d97ce8ca9ddb708c70da66557a954de7910160405180910390a350610dde60017f9b779b17422d0df92223018b32b4d1fa46e071723d6817e2486d003becc55f0055565b6000806116da83611820565b90508085111561172f576040517fb94abeec0000000000000000000000000000000000000000000000000000000081526001600160a01b0384166004820152602481018690526044810182905260640161116f565b600061173a86610c27565b9050610c91338686848a6124ca565b6000610fdb8261225a565b6000610b4c826000611bfe565b60008181527fc1f6fe24621ce81ec5827caf0253cadb74709b061630e6b55e82371705932000602081905260408220610d0390612638565b6001600160a01b03811660009081527f52c63247e1f47db19d5ce0460030c497f067ca4cebf71ba98eeadabe20bace006020526040812054610b4c906000611b98565b60008281527f02dd7bc7dec4dceedda775e58dd541e08a116c6c53815c0bd028192f7b626800602052604090206001015461181681612031565b610d4e8383612092565b6001600160a01b03811660009081527f52c63247e1f47db19d5ce0460030c497f067ca4cebf71ba98eeadabe20bace006020526040812054610b4c565b7f000000000000000000000000000000000000000000000000000000000000000061188781612031565b7f0773e532dfede91f04b12a73d3d2acd361424f41f76b4fb79f090161e36b4e00546001600160a01b03166040517fa9059cbb000000000000000000000000000000000000000000000000000000008152336004820152602481018490526001600160a01b03919091169063a9059cbb906044016020604051808303816000875af115801561191a573d6000803e3d6000fd5b505050506040513d601f19601f8201168201806040525081019061193e9190613d13565b50604051339083907f7a26e248cfa837e9a7db7851ce24e210ba8441615f81319a08139f256918978a90600090a35050565b611978612351565b600754600854611995916001600160a01b03908116911683612642565b6007546001600160a01b039081166000908152600660209081526040808320938516835292905220548015611a4557600780546001600160a01b039081166000908152600660209081526040808320878516845290915281205590546119fd911683836123b4565b6007546040513381526001600160a01b038481169284929116907fe6ac6a784fb43c9f6329d2f5c82f88a26a93bad4281f7780725af5f071f0aafa9060200160405180910390a45b6008546001600160a01b039081166000908152600660209081526040808320938616835292905220548015611af557600880546001600160a01b03908116600090815260066020908152604080832088851684529091528120559054611aad911684836123b4565b6008546040513381526001600160a01b038581169284929116907fe6ac6a784fb43c9f6329d2f5c82f88a26a93bad4281f7780725af5f071f0aafa9060200160405180910390a45b5050611b2060017f9b779b17422d0df92223018b32b4d1fa46e071723d6817e2486d003becc55f0055565b50565b6000610b4c82600a546127fe565b60006001600160e01b031982167f7965db0b000000000000000000000000000000000000000000000000000000001480610b4c57507f01ffc9a7000000000000000000000000000000000000000000000000000000006001600160e01b0319831614610b4c565b6000610d03611ba5610a78565b611bb0906001613c08565b611bbc6000600a613e19565b7f52c63247e1f47db19d5ce0460030c497f067ca4cebf71ba98eeadabe20bace0254611be89190613c08565b859190856128ab565b610dde83838360016128fa565b6000610d03611c0e82600a613e19565b7f52c63247e1f47db19d5ce0460030c497f067ca4cebf71ba98eeadabe20bace0254611c3a9190613c08565b611c42610a78565b611be8906001613c08565b6000806000611c90846001600160a01b031660009081527f52c63247e1f47db19d5ce0460030c497f067ca4cebf71ba98eeadabe20bace00602052604090205490565b90506000611cbc7f52c63247e1f47db19d5ce0460030c497f067ca4cebf71ba98eeadabe20bace025490565b6009549091506001600160a01b0316611cd9579094909350915050565b611ce4600583613ce8565b600b5490945015611d4557600b546001600160a01b0386166000908152600c602052604090205460059190611d199084613cfc565b611d239190613ce8565b611d2e906004613cfc565b611d389190613ce8565b611d429085613c08565b93505b611d4f8285612244565b6001600160a01b0386166000908152600d6020526040902054600a5491955090611d7a908690613c08565b611d849190613c1b565b92505050915091565b611d9681612a25565b600080611da283611c4d565b600a8190559092509050611db684826127fe565b6001600160a01b038516600090815260046020526040902055611dd884610fe2565b6001600160a01b03808616600090815260036020526040902091909155831615610d4e576001600160a01b0383166000908152600d60205260409020829055611e2384848484611ea9565b6001600160a01b0385811660008181526006602090815260408083209489168084529482528083209590955591815260048252838120546005835284822084835283529084902055825185815290810184905290917f115e39d10dd5f122500a5729d0f739ba721d5ae9b3f8809171b70e431bbe23ae910160405180910390a250505050565b6001600160a01b038085166000818152600660209081526040808320948816808452948252808320549383526005825280832094835293905291822054670de0b6b3a764000090611efa88866127fe565b611f049190613c1b565b611f0e9086613cfc565b611f189190613ce8565b610c919190613c08565b6001600160a01b0383811660009081527f52c63247e1f47db19d5ce0460030c497f067ca4cebf71ba98eeadabe20bace0160209081526040808320938616835292905220546000198114610d4e5781811015611fc3576040517ffb8f41b20000000000000000000000000000000000000000000000000000000081526001600160a01b0384166004820152602481018290526044810183905260640161116f565b610d4e848484840360006128fa565b6001600160a01b038316611ffc57604051634b637e8f60e11b81526000600482015260240161116f565b6001600160a01b0382166120265760405163ec442f0560e01b81526000600482015260240161116f565b610dde838383612a52565b611b208133612bbb565b60007fc1f6fe24621ce81ec5827caf0253cadb74709b061630e6b55e82371705932000816120698585612c48565b905080156111f45760008581526020839052604090206120899085612d17565b50949350505050565b60007fc1f6fe24621ce81ec5827caf0253cadb74709b061630e6b55e82371705932000816120c08585612d2c565b905080156111f45760008581526020839052604090206120899085612dd2565b6120e8612de7565b6120f28888612e50565b6120fb86612e62565b612103612e73565b6001600160a01b0384166121595760405162461bcd60e51b815260206004820152601560248201527f72657761726420746f6b656e2031206973203078300000000000000000000000604482015260640161116f565b6001600160a01b0383166121af5760405162461bcd60e51b815260206004820152601560248201527f72657761726420746f6b656e2032206973203078300000000000000000000000604482015260640161116f565b6002829055600780546001600160a01b0380871673ffffffffffffffffffffffffffffffffffffffff199283161790925560088054868416908316179055600980549284169290911691909117905561220960008661203b565b50600a5460000361223a577f52c63247e1f47db19d5ce0460030c497f067ca4cebf71ba98eeadabe20bace0254600a555b5050505050505050565b60008183106122535781610d03565b5090919050565b6000806001600160a01b038316158061227c57506009546001600160a01b0316155b1561228e575050600b54600092909150565b6009546040517f9ab24eb00000000000000000000000000000000000000000000000000000000081526001600160a01b03858116600483015290911690639ab24eb090602401602060405180830381865afa1580156122f1573d6000803e3d6000fd5b505050506040513d601f19601f820116820180604052508101906123159190613b86565b6001600160a01b0384166000908152600c6020526040902054600b5491935090612340908490613c08565b61234a9190613c1b565b9050915091565b7f9b779b17422d0df92223018b32b4d1fa46e071723d6817e2486d003becc55f008054600119016123ae576040517f3ee5aeb500000000000000000000000000000000000000000000000000000000815260040160405180910390fd5b60029055565b6040516001600160a01b03838116602483015260448201839052610dde91859182169063a9059cbb906064015b604051602081830303815290604052915060e01b6020820180517bffffffffffffffffffffffffffffffffffffffffffffffffffffffff8381831617835250505050612e7b565b600754600854612445916001600160a01b03908116911685612642565b610d4e84848484612ef7565b6000610d038383612f87565b6060600080846001600160a01b03168460405161247a9190613e28565b600060405180830381855af49150503d80600081146124b5576040519150601f19603f3d011682016040523d82523d6000602084013e6124ba565b606091505b5091509150610c91858383612fb1565b6001600160a01b038316600090815260106020908152604080832054600f9092529091205442101561253e5760405162461bcd60e51b815260206004820152601460248201527f7769746864726177616c206e6f74207265616479000000000000000000000000604482015260640161116f565b808214801561254d5750600081115b6125995760405162461bcd60e51b815260206004820152601260248201527f696e76616c6964207769746864726177616c0000000000000000000000000000604482015260640161116f565b6001600160a01b0384166000818152600f6020908152604080832083905560109091528082208290555181907fd8889e83fc2ffb229540f381705914cbb36a5cd705d85e1b0035c5eba0c30f4a908290a46125f78686868686613026565b505050505050565b6040516001600160a01b038481166024830152838116604483015260648201839052610d4e9186918216906323b872dd906084016123e1565b6000610b4c825490565b61264b81612a25565b60008061265783611c4d565b600a819055909250905061266b85826127fe565b6001600160a01b03861660009081526004602052604090205561268d85610fe2565b6001600160a01b0386166000908152600360205260409020556126b084826127fe565b6001600160a01b0385166000908152600460205260409020556126d284610fe2565b6001600160a01b038086166000908152600360205260409020919091558316156127f7576001600160a01b0383166000908152600d6020526040902082905561271d85848484611ea9565b6001600160a01b0380871660009081526006602090815260408083209388168352929052205561274f84848484611ea9565b6001600160a01b03808616600081815260066020908152604080832089861680855290835281842096909655938a1682526004808252848320546005808452868520888652845286852091909155938352815283822054928152838220858352905282902055517f115e39d10dd5f122500a5729d0f739ba721d5ae9b3f8809171b70e431bbe23ae906127ee9085908590918252602082015260400190565b60405180910390a25b5050505050565b60008160000361282757506001600160a01b038216600090815260046020526040902054610b4c565b6001600160a01b03831660009081526001602090815260408083205460039092529091205483919061285886610fe2565b6128629190613c1b565b61286c9190613cfc565b61287e90670de0b6b3a7640000613cfc565b6128889190613ce8565b6001600160a01b038416600090815260046020526040902054610d039190613c08565b6000806128b9868686613050565b90506128c48361312d565b80156128e05750600084806128db576128db613cd2565b868809115b15610c91576128f0600182613c08565b9695505050505050565b7f52c63247e1f47db19d5ce0460030c497f067ca4cebf71ba98eeadabe20bace006001600160a01b03851661295e576040517fe602df050000000000000000000000000000000000000000000000000000000081526000600482015260240161116f565b6001600160a01b0384166129a1576040517f94280d620000000000000000000000000000000000000000000000000000000081526000600482015260240161116f565b6001600160a01b038086166000908152600183016020908152604080832093881683529290522083905581156127f757836001600160a01b0316856001600160a01b03167f8c5be1e5ebec7d5bd14f71427d1e84f3dd0314c0f7b2291e5b200ac8c7c3b92585604051612a1691815260200190565b60405180910390a35050505050565b600080612a318361225a565b6001600160a01b039094166000908152600c60205260409020555050600b55565b7f52c63247e1f47db19d5ce0460030c497f067ca4cebf71ba98eeadabe20bace006001600160a01b038416612aa05781816002016000828254612a959190613c08565b90915550612b2b9050565b6001600160a01b03841660009081526020829052604090205482811015612b0c576040517fe450d38c0000000000000000000000000000000000000000000000000000000081526001600160a01b0386166004820152602481018290526044810184905260640161116f565b6001600160a01b03851660009081526020839052604090209083900390555b6001600160a01b038316612b49576002810180548390039055612b68565b6001600160a01b03831660009081526020829052604090208054830190555b826001600160a01b0316846001600160a01b03167fddf252ad1be2c89b69c2b068fc378daa952ba7f163c4a11628f55a4df523b3ef84604051612bad91815260200190565b60405180910390a350505050565b60008281527f02dd7bc7dec4dceedda775e58dd541e08a116c6c53815c0bd028192f7b626800602090815260408083206001600160a01b038516845290915290205460ff16610c6f576040517fe2517d3f0000000000000000000000000000000000000000000000000000000081526001600160a01b03821660048201526024810183905260440161116f565b60008281527f02dd7bc7dec4dceedda775e58dd541e08a116c6c53815c0bd028192f7b626800602081815260408084206001600160a01b038616855290915282205460ff16612d0d576000848152602082815260408083206001600160a01b03871684529091529020805460ff19166001179055612cc33390565b6001600160a01b0316836001600160a01b0316857f2f8788117e7eff1d82e926ec794901d17c78024a50270940304540a733656f0d60405160405180910390a46001915050610b4c565b6000915050610b4c565b6000610d03836001600160a01b03841661315a565b60008281527f02dd7bc7dec4dceedda775e58dd541e08a116c6c53815c0bd028192f7b626800602081815260408084206001600160a01b038616855290915282205460ff1615612d0d576000848152602082815260408083206001600160a01b0387168085529252808320805460ff1916905551339287917ff6391f5c32d9c69d2a47ea670b442974b53935d1edc7fd64eb21e047a839171b9190a46001915050610b4c565b6000610d03836001600160a01b0384166131a9565b7ff0c57e16840df040f15088dc2f81fe391c3923bec73e23a9662efc9c229c6a005468010000000000000000900460ff16612e4e576040517fd7e6bcf800000000000000000000000000000000000000000000000000000000815260040160405180910390fd5b565b612e58612de7565b610c6f8282613292565b612e6a612de7565b611b20816132f5565b612e4e612de7565b6000612e906001600160a01b0384168361339e565b90508051600014158015612eb5575080806020019051810190612eb39190613d13565b155b15610dde576040517f5274afe70000000000000000000000000000000000000000000000000000000081526001600160a01b038416600482015260240161116f565b7f0773e532dfede91f04b12a73d3d2acd361424f41f76b4fb79f090161e36b4e008054612f2f906001600160a01b03168630866125ff565b612f3984836133ac565b836001600160a01b0316856001600160a01b03167fdcbc1c05240f31ff3ad067ef1ee35ce4997762752e3a095284754544f4c709d78585604051612a16929190918252602082015260400190565b6000826000018281548110612f9e57612f9e613c2e565b9060005260206000200154905092915050565b606082612fc657612fc1826133e2565b610d03565b8151158015612fdd57506001600160a01b0384163b155b1561301f576040517f9996b3150000000000000000000000000000000000000000000000000000000081526001600160a01b038516600482015260240161116f565b5080610d03565b600754600854613043916001600160a01b03908116911685612642565b6127f78585858585613424565b60008383028160001985870982811083820303915050806000036130875783828161307d5761307d613cd2565b0492505050610d03565b8084116130c0576040517f227bc15300000000000000000000000000000000000000000000000000000000815260040160405180910390fd5b6000848688096000868103871696879004966002600389028118808a02820302808a02820302808a02820302808a02820302808a02820302808a02909103029181900381900460010186841190950394909402919094039290920491909117919091029150509392505050565b6000600282600381111561314357613143613e44565b61314d9190613e5a565b60ff166001149050919050565b60008181526001830160205260408120546131a157508154600181810184556000848152602080822090930184905584548482528286019093526040902091909155610b4c565b506000610b4c565b60008181526001830160205260408120548015612d0d5760006131cd600183613c1b565b85549091506000906131e190600190613c1b565b905080821461324657600086600001828154811061320157613201613c2e565b906000526020600020015490508087600001848154811061322457613224613c2e565b6000918252602080832090910192909255918252600188019052604090208390555b855486908061325757613257613e7c565b600190038181906000526020600020016000905590558560010160008681526020019081526020016000206000905560019350505050610b4c565b61329a612de7565b7f52c63247e1f47db19d5ce0460030c497f067ca4cebf71ba98eeadabe20bace007f52c63247e1f47db19d5ce0460030c497f067ca4cebf71ba98eeadabe20bace036132e68482613ed8565b5060048101610d4e8382613ed8565b6132fd612de7565b7f0773e532dfede91f04b12a73d3d2acd361424f41f76b4fb79f090161e36b4e0060008061332a846134eb565b915091508161333a57601261333c565b805b83547fffffffffffffffffffffff00000000000000000000000000000000000000000016600160a01b60ff929092169190910273ffffffffffffffffffffffffffffffffffffffff1916176001600160a01b0394909416939093179091555050565b6060610d03838360006135f5565b6001600160a01b0382166133d65760405163ec442f0560e01b81526000600482015260240161116f565b610c6f60008383612a52565b8051156133f25780518082602001fd5b6040517f1425ea4200000000000000000000000000000000000000000000000000000000815260040160405180910390fd5b7f0773e532dfede91f04b12a73d3d2acd361424f41f76b4fb79f090161e36b4e006001600160a01b038681169085161461346357613463848784611f22565b61346d84836136a1565b8054613483906001600160a01b031686856123b4565b836001600160a01b0316856001600160a01b0316876001600160a01b03167ffbde797d201c681b91056529119e0b02407c7bb96a4a2c75c01fc9667232c8db86866040516134db929190918252602082015260400190565b60405180910390a4505050505050565b60408051600481526024810182526020810180517bffffffffffffffffffffffffffffffffffffffffffffffffffffffff167f313ce5670000000000000000000000000000000000000000000000000000000017905290516000918291829182916001600160a01b0387169161356091613e28565b600060405180830381855afa9150503d806000811461359b576040519150601f19603f3d011682016040523d82523d6000602084013e6135a0565b606091505b50915091508180156135b457506020815110155b156135e8576000818060200190518101906135cf9190613b86565b905060ff81116135e6576001969095509350505050565b505b5060009485945092505050565b606081471015613633576040517fcd78605900000000000000000000000000000000000000000000000000000000815230600482015260240161116f565b600080856001600160a01b0316848660405161364f9190613e28565b60006040518083038185875af1925050503d806000811461368c576040519150601f19603f3d011682016040523d82523d6000602084013e613691565b606091505b50915091506128f0868383612fb1565b6001600160a01b0382166136cb57604051634b637e8f60e11b81526000600482015260240161116f565b610c6f82600083612a52565b6000602082840312156136e957600080fd5b81356001600160e01b031981168114610d0357600080fd5b60005b8381101561371c578181015183820152602001613704565b50506000910152565b6000815180845261373d816020860160208601613701565b601f01601f19169290920160200192915050565b602081526000610d036020830184613725565b60006020828403121561377657600080fd5b5035919050565b6001600160a01b0381168114611b2057600080fd5b803561379d8161377d565b919050565b600080604083850312156137b557600080fd5b82356137c08161377d565b946020939093013593505050565b600080604083850312156137e157600080fd5b82356137ec8161377d565b915060208301356137fc8161377d565b809150509250929050565b60006020828403121561381957600080fd5b8135610d038161377d565b60008060006060848603121561383957600080fd5b83356138448161377d565b925060208401356138548161377d565b929592945050506040919091013590565b6000806040838503121561387857600080fd5b8235915060208301356137fc8161377d565b634e487b7160e01b600052604160045260246000fd5b600082601f8301126138b157600080fd5b813567ffffffffffffffff808211156138cc576138cc61388a565b604051601f8301601f19908116603f011681019082821181831017156138f4576138f461388a565b8160405283815286602085880101111561390d57600080fd5b836020870160208301376000602085830101528094505050505092915050565b60008060008060008060008060006101208a8c03121561394c57600080fd5b893567ffffffffffffffff8082111561396457600080fd5b6139708d838e016138a0565b9a5060208c013591508082111561398657600080fd5b506139938c828d016138a0565b98505060408a01356139a48161377d565b965060608a0135955060808a01356139bb8161377d565b94506139c960a08b01613792565b93506139d760c08b01613792565b925060e08a013591506139ed6101008b01613792565b90509295985092959850929598565b600080600080600060a08688031215613a1457600080fd5b8535945060208601359350604086013560ff81168114613a3357600080fd5b94979396509394606081013594506080013592915050565b60008060408385031215613a5e57600080fd5b50508035926020909101359150565b60008060208385031215613a8057600080fd5b823567ffffffffffffffff80821115613a9857600080fd5b818501915085601f830112613aac57600080fd5b813581811115613abb57600080fd5b8660208260051b8501011115613ad057600080fd5b60209290920196919550909350505050565b6000602080830181845280855180835260408601915060408160051b870101925083870160005b82811015613b3757603f19888603018452613b25858351613725565b94509285019290850190600101613b09565b5092979650505050505050565b600080600060608486031215613b5957600080fd5b833592506020840135613b6b8161377d565b91506040840135613b7b8161377d565b809150509250925092565b600060208284031215613b9857600080fd5b5051919050565b600181811c90821680613bb357607f821691505b602082108103613bd357634e487b7160e01b600052602260045260246000fd5b50919050565b634e487b7160e01b600052601160045260246000fd5b60ff8181168382160190811115610b4c57610b4c613bd9565b80820180821115610b4c57610b4c613bd9565b81810381811115610b4c57610b4c613bd9565b634e487b7160e01b600052603260045260246000fd5b6000808335601e19843603018112613c5b57600080fd5b83018035915067ffffffffffffffff821115613c7657600080fd5b602001915036819003821315613c8b57600080fd5b9250929050565b828482376000838201600081528351613caf818360208801613701565b0195945050505050565b600060018201613ccb57613ccb613bd9565b5060010190565b634e487b7160e01b600052601260045260246000fd5b600082613cf757613cf7613cd2565b500490565b8082028115828204841417610b4c57610b4c613bd9565b600060208284031215613d2557600080fd5b81518015158114610d0357600080fd5b600181815b80851115613d70578160001904821115613d5657613d56613bd9565b80851615613d6357918102915b93841c9390800290613d3a565b509250929050565b600082613d8757506001610b4c565b81613d9457506000610b4c565b8160018114613daa5760028114613db457613dd0565b6001915050610b4c565b60ff841115613dc557613dc5613bd9565b50506001821b610b4c565b5060208310610133831016604e8410600b8410161715613df3575081810a610b4c565b613dfd8383613d35565b8060001904821115613e1157613e11613bd9565b029392505050565b6000610d0360ff841683613d78565b60008251613e3a818460208701613701565b9190910192915050565b634e487b7160e01b600052602160045260246000fd5b600060ff831680613e6d57613e6d613cd2565b8060ff84160691505092915050565b634e487b7160e01b600052603160045260246000fd5b601f821115610dde57600081815260208120601f850160051c81016020861015613eb95750805b601f850160051c820191505b818110156125f757828155600101613ec5565b815167ffffffffffffffff811115613ef257613ef261388a565b613f0681613f008454613b9f565b84613e92565b602080601f831160018114613f3b5760008415613f235750858301515b600019600386901b1c1916600185901b1785556125f7565b600085815260208120601f198616915b82811015613f6a57888601518255948401946001909101908401613f4b565b5085821015613f885787850151600019600388901b60f8161c191681555b5050505050600190811b0190555056fea2646970667358221220c04d6d4a96dfcae8d55a6a3f7e942b9ca43d59268e8437a2cb39daeeb473e0e864736f6c63430008150033",
  "devdoc": {
    "author": "maha.xyz",
    "details": "https://docs.maha.xyz/mechanics/safety-pool",
    "errors": {
      "AccessControlBadConfirmation()": [
        {
          "details": "The caller of a function is not the expected one. NOTE: Don't confuse with {AccessControlUnauthorizedAccount}."
        }
      ],
      "AccessControlUnauthorizedAccount(address,bytes32)": [
        {
          "details": "The `account` is missing a role."
        }
      ],
      "AddressEmptyCode(address)": [
        {
          "details": "There's no code at `target` (it is not a contract)."
        }
      ],
      "AddressInsufficientBalance(address)": [
        {
          "details": "The ETH balance of the account is not enough to perform the operation."
        }
      ],
      "ERC20InsufficientAllowance(address,uint256,uint256)": [
        {
          "details": "Indicates a failure with the `spender`s `allowance`. Used in transfers.",
          "params": {
            "allowance": "Amount of tokens a `spender` is allowed to operate with.",
            "needed": "Minimum amount required to perform a transfer.",
            "spender": "Address that may be allowed to operate on tokens without being their owner."
          }
        }
      ],
      "ERC20InsufficientBalance(address,uint256,uint256)": [
        {
          "details": "Indicates an error related to the current `balance` of a `sender`. Used in transfers.",
          "params": {
            "balance": "Current balance for the interacting account.",
            "needed": "Minimum amount required to perform a transfer.",
            "sender": "Address whose tokens are being transferred."
          }
        }
      ],
      "ERC20InvalidApprover(address)": [
        {
          "details": "Indicates a failure with the `approver` of a token to be approved. Used in approvals.",
          "params": {
            "approver": "Address initiating an approval operation."
          }
        }
      ],
      "ERC20InvalidReceiver(address)": [
        {
          "details": "Indicates a failure with the token `receiver`. Used in transfers.",
          "params": {
            "receiver": "Address to which tokens are being transferred."
          }
        }
      ],
      "ERC20InvalidSender(address)": [
        {
          "details": "Indicates a failure with the token `sender`. Used in transfers.",
          "params": {
            "sender": "Address whose tokens are being transferred."
          }
        }
      ],
      "ERC20InvalidSpender(address)": [
        {
          "details": "Indicates a failure with the `spender` to be approved. Used in approvals.",
          "params": {
            "spender": "Address that may be allowed to operate on tokens without being their owner."
          }
        }
      ],
      "ERC4626ExceededMaxDeposit(address,uint256,uint256)": [
        {
          "details": "Attempted to deposit more assets than the max amount for `receiver`."
        }
      ],
      "ERC4626ExceededMaxMint(address,uint256,uint256)": [
        {
          "details": "Attempted to mint more shares than the max amount for `receiver`."
        }
      ],
      "ERC4626ExceededMaxRedeem(address,uint256,uint256)": [
        {
          "details": "Attempted to redeem more shares than the max amount for `receiver`."
        }
      ],
      "ERC4626ExceededMaxWithdraw(address,uint256,uint256)": [
        {
          "details": "Attempted to withdraw more assets than the max amount for `receiver`."
        }
      ],
      "FailedInnerCall()": [
        {
          "details": "A call to an address target failed. The target may have reverted."
        }
      ],
      "InvalidInitialization()": [
        {
          "details": "The contract is already initialized."
        }
      ],
      "MathOverflowedMulDiv()": [
        {
          "details": "Muldiv operation overflow."
        }
      ],
      "NotInitializing()": [
        {
          "details": "The contract is not initializing."
        }
      ],
      "ReentrancyGuardReentrantCall()": [
        {
          "details": "Unauthorized reentrant call."
        }
      ],
      "SafeERC20FailedOperation(address)": [
        {
          "details": "An operation with an ERC20 token failed."
        }
      ]
    },
    "events": {
      "Approval(address,address,uint256)": {
        "details": "Emitted when the allowance of a `spender` for an `owner` is set by a call to {approve}. `value` is the new allowance."
      },
      "Initialized(uint64)": {
        "details": "Triggered when the contract has been initialized or reinitialized."
      },
      "RoleAdminChanged(bytes32,bytes32,bytes32)": {
        "details": "Emitted when `newAdminRole` is set as ``role``'s admin role, replacing `previousAdminRole` `DEFAULT_ADMIN_ROLE` is the starting admin for all roles, despite {RoleAdminChanged} not being emitted signaling this."
      },
      "RoleGranted(bytes32,address,address)": {
        "details": "Emitted when `account` is granted `role`. `sender` is the account that originated the contract call, an admin role bearer except when using {AccessControl-_setupRole}."
      },
      "RoleRevoked(bytes32,address,address)": {
        "details": "Emitted when `account` is revoked `role`. `sender` is the account that originated the contract call:   - if using `revokeRole`, it is the admin role bearer   - if using `renounceRole`, it is the role bearer (i.e. `account`)"
      },
      "Transfer(address,address,uint256)": {
        "details": "Emitted when `value` tokens are moved from one account (`from`) to another (`to`). Note that `value` may be zero."
      }
    },
    "kind": "dev",
    "methods": {
      "allowance(address,address)": {
        "details": "See {IERC20-allowance}."
      },
      "approve(address,uint256)": {
        "details": "See {IERC20-approve}. NOTE: If `value` is the maximum `uint256`, the allowance is not updated on `transferFrom`. This is semantically equivalent to an infinite approval. Requirements: - `spender` cannot be the zero address."
      },
      "asset()": {
        "details": "See {IERC4626-asset}. "
      },
      "balanceOf(address)": {
        "details": "See {IERC20-balanceOf}."
      },
      "boostedBalance(address)": {
        "details": "Code taken from https://github.com/curvefi/curve-dao-contracts/blob/master/contracts/gauges/LiquidityGaugeV5.vy#L191-L213"
      },
      "convertToAssets(uint256)": {
        "details": "See {IERC4626-convertToAssets}. "
      },
      "convertToShares(uint256)": {
        "details": "See {IERC4626-convertToShares}. "
      },
      "decimals()": {
        "details": "Decimals are computed by adding the decimal offset on top of the underlying asset's decimals. This \"original\" value is cached during construction of the vault contract. If this read operation fails (e.g., the asset has not been created yet), a default of 18 is used to represent the underlying asset's decimals. See {IERC20Metadata-decimals}."
      },
      "deposit(uint256,address)": {
        "details": "See {IERC4626-deposit}. "
      },
      "earned(address,address)": {
        "details": "It adds to the rewards the amount of reward earned since last time that is the difference in reward per token from now and last time multiplied by the number of tokens staked by the person",
        "params": {
          "account": "The account for which the rewards are earned",
          "token": "The token for which the rewards are earned"
        },
        "returns": {
          "_0": "How much a given account earned rewards"
        }
      },
      "getReward(address,address)": {
        "params": {
          "token": "The token for which the rewards are paid",
          "who": "The account for which the rewards are paid"
        }
      },
      "getRewardDual(address)": {
        "params": {
          "who": "The account for which the rewards are paid"
        }
      },
      "getRoleAdmin(bytes32)": {
        "details": "Returns the admin role that controls `role`. See {grantRole} and {revokeRole}. To change a role's admin, use {_setRoleAdmin}."
      },
      "getRoleMember(bytes32,uint256)": {
        "details": "Returns one of the accounts that have `role`. `index` must be a value between 0 and {getRoleMemberCount}, non-inclusive. Role bearers are not sorted in any particular way, and their ordering may change at any point. WARNING: When using {getRoleMember} and {getRoleMemberCount}, make sure you perform all queries on the same block. See the following https://forum.openzeppelin.com/t/iterating-over-elements-on-enumerableset-in-openzeppelin-contracts/2296[forum post] for more information."
      },
      "getRoleMemberCount(bytes32)": {
        "details": "Returns the number of accounts that have `role`. Can be used together with {getRoleMember} to enumerate all bearers of a role."
      },
      "grantRole(bytes32,address)": {
        "details": "Grants `role` to `account`. If `account` had not been already granted `role`, emits a {RoleGranted} event. Requirements: - the caller must have ``role``'s admin role. May emit a {RoleGranted} event."
      },
      "hasRole(bytes32,address)": {
        "details": "Returns `true` if `account` has been granted `role`."
      },
      "lastTimeRewardApplicable(address)": {
        "details": "Returns the current timestamp if a reward is being distributed and the end of the staking period if staking is done",
        "params": {
          "token": "The token for which the last time reward applicable is requested"
        }
      },
      "maxDeposit(address)": {
        "details": "See {IERC4626-maxDeposit}. "
      },
      "maxMint(address)": {
        "details": "See {IERC4626-maxMint}. "
      },
      "maxRedeem(address)": {
        "details": "See {IERC4626-maxRedeem}. "
      },
      "maxWithdraw(address)": {
        "details": "See {IERC4626-maxWithdraw}. "
      },
      "mint(uint256,address)": {
        "details": "See {IERC4626-mint}. As opposed to {deposit}, minting is allowed even if the vault is in a state where the price of a share is zero. In this case, the shares will be minted without requiring any assets to be deposited."
      },
      "multicall(bytes[])": {
        "custom:oz-upgrades-unsafe-allow-reachable": "delegatecall",
        "details": "Receives and executes a batch of function calls on this contract."
      },
      "name()": {
        "details": "Returns the name of the token."
      },
      "notifyRewardAmount(address,uint256)": {
        "params": {
          "reward": "Amount of reward tokens to distribute",
          "token": "The token for which the rewards are added"
        }
      },
      "previewDeposit(uint256)": {
        "details": "See {IERC4626-previewDeposit}. "
      },
      "previewMint(uint256)": {
        "details": "See {IERC4626-previewMint}. "
      },
      "previewRedeem(uint256)": {
        "details": "See {IERC4626-previewRedeem}. "
      },
      "previewWithdraw(uint256)": {
        "details": "See {IERC4626-previewWithdraw}. "
      },
      "redeem(uint256,address,address)": {
        "details": "See {IERC4626-redeem}. "
      },
      "renounceRole(bytes32,address)": {
        "details": "Revokes `role` from the calling account. Roles are often managed via {grantRole} and {revokeRole}: this function's purpose is to provide a mechanism for accounts to lose their privileges if they are compromised (such as when a trusted device is misplaced). If the calling account had been revoked `role`, emits a {RoleRevoked} event. Requirements: - the caller must be `callerConfirmation`. May emit a {RoleRevoked} event."
      },
      "revokeRole(bytes32,address)": {
        "details": "Revokes `role` from `account`. If `account` had been granted `role`, emits a {RoleRevoked} event. Requirements: - the caller must have ``role``'s admin role. May emit a {RoleRevoked} event."
      },
      "rewardPerToken(address)": {
        "details": "It adds to the reward per token: the time elapsed since the `rewardPerTokenStored` was last updated multiplied by the `rewardRate` divided by the number of tokens",
        "params": {
          "token": "The token for which the reward per token is updated"
        }
      },
      "supportsInterface(bytes4)": {
        "details": "See {IERC165-supportsInterface}."
      },
      "symbol()": {
        "details": "Returns the symbol of the token, usually a shorter version of the name."
      },
      "totalAssets()": {
        "details": "See {IERC4626-totalAssets}. "
      },
      "totalSupply()": {
        "details": "See {IERC20-totalSupply}."
      },
      "transfer(address,uint256)": {
        "details": "See {IERC20-transfer}. Requirements: - `to` cannot be the zero address. - the caller must have a balance of at least `value`."
      },
      "transferFrom(address,address,uint256)": {
        "details": "See {IERC20-transferFrom}. Emits an {Approval} event indicating the updated allowance. This is not required by the EIP. See the note at the beginning of {ERC20}. NOTE: Does not update the allowance if the current allowance is the maximum `uint256`. Requirements: - `from` and `to` cannot be the zero address. - `from` must have a balance of at least `value`. - the caller must have allowance for ``from``'s tokens of at least `value`."
      },
      "updateRewards(address,address)": {
        "params": {
          "token": "The token for which the rewards are updated",
          "who": "The account for which the rewards are updated"
        }
      },
      "votingPower(address)": {
        "params": {
          "who": "The account for which the voting power is requested"
        }
      },
      "withdraw(uint256,address,address)": {
        "details": "See {IERC4626-withdraw}. "
      }
    },
    "title": "The SafetyPool contract",
    "version": 1
  },
  "userdoc": {
    "kind": "user",
    "methods": {
      "DISTRIBUTOR_ROLE()": {
        "notice": "Gets the role that is able to distribute rewards"
      },
      "approveUnderlyingWithPermit(uint256,uint256,uint8,bytes32,bytes32)": {
        "notice": "Grants approval to the staking contract to spend the underlying token using permits"
      },
      "boostedBalance(address)": {
        "notice": "Gets the boosted balance for an account"
      },
      "earned(address,address)": {
        "notice": "Returns how much a given account earned rewards"
      },
      "getReward(address,address)": {
        "notice": "Triggers a payment of the reward earned"
      },
      "getRewardDual(address)": {
        "notice": "Triggers a payment of the rewards earned for both tokens"
      },
      "lastTimeRewardApplicable(address)": {
        "notice": "Queries the last timestamp at which a reward was distributed"
      },
      "lastUpdateTime(address)": {
        "notice": "Last time `rewardPerTokenStored` was updated"
      },
      "notifyRewardAmount(address,uint256)": {
        "notice": "Adds rewards to be distributed"
      },
      "periodFinish(address)": {
        "notice": "Gets the period finish for a reward token"
      },
      "rewardPerToken(address)": {
        "notice": "Used to actualize the `rewardPerTokenStored`"
      },
      "rewardPerTokenStored(address)": {
        "notice": "Helps to compute the amount earned by someone. Cumulates rewards accumulated for one token since the beginning. Stored as a uint so it is actually a float times the base of the reward token"
      },
      "rewardRate(address)": {
        "notice": "Reward per second given to the staking contract, split among the staked tokens"
      },
      "rewardToken1()": {
        "notice": "Gets the first reward token for which the rewards are distributed"
      },
      "rewardToken2()": {
        "notice": "Gets the second reward token for which the rewards are distributed"
      },
      "rewards(address,address)": {
        "notice": "Stores for each account the accumulated rewards"
      },
      "rewardsDuration()": {
        "notice": "Duration of the reward distribution"
      },
      "staking()": {
        "notice": "Gets the staking contract that returns the voting power of an account"
      },
      "totalBoostedSupply()": {
        "notice": "Gets the total supply of boosted tokens"
      },
      "totalVotingPower()": {
        "notice": "Gets the total voting power of all the participants"
      },
      "updateRewards(address,address)": {
        "notice": "Updates the rewards for an account"
      },
      "userRewardPerTokenPaid(address,address)": {
        "notice": "Stores for each account the `rewardPerToken`: we do the difference between the current and the old value to compute what has been earned by an account"
      },
      "votingPower(address)": {
        "notice": "Gets the voting power for an account"
      }
    },
    "notice": "Used to pay off any bad debt that may occur in the protocol",
    "version": 1
  },
  "storageLayout": {
    "storage": [
      {
        "astId": 24989,
        "contract": "contracts/core/safety-pool/SafetyPool.sol:SafetyPool",
        "label": "periodFinish",
        "offset": 0,
        "slot": "0",
        "type": "t_mapping(t_contract(IERC20)14167,t_uint256)"
      },
      {
        "astId": 24995,
        "contract": "contracts/core/safety-pool/SafetyPool.sol:SafetyPool",
        "label": "rewardRate",
        "offset": 0,
        "slot": "1",
        "type": "t_mapping(t_contract(IERC20)14167,t_uint256)"
      },
      {
        "astId": 24998,
        "contract": "contracts/core/safety-pool/SafetyPool.sol:SafetyPool",
        "label": "rewardsDuration",
        "offset": 0,
        "slot": "2",
        "type": "t_uint256"
      },
      {
        "astId": 25004,
        "contract": "contracts/core/safety-pool/SafetyPool.sol:SafetyPool",
        "label": "lastUpdateTime",
        "offset": 0,
        "slot": "3",
        "type": "t_mapping(t_contract(IERC20)14167,t_uint256)"
      },
      {
        "astId": 25010,
        "contract": "contracts/core/safety-pool/SafetyPool.sol:SafetyPool",
        "label": "rewardPerTokenStored",
        "offset": 0,
        "slot": "4",
        "type": "t_mapping(t_contract(IERC20)14167,t_uint256)"
      },
      {
        "astId": 25018,
        "contract": "contracts/core/safety-pool/SafetyPool.sol:SafetyPool",
        "label": "userRewardPerTokenPaid",
        "offset": 0,
        "slot": "5",
        "type": "t_mapping(t_contract(IERC20)14167,t_mapping(t_address,t_uint256))"
      },
      {
        "astId": 25026,
        "contract": "contracts/core/safety-pool/SafetyPool.sol:SafetyPool",
        "label": "rewards",
        "offset": 0,
        "slot": "6",
        "type": "t_mapping(t_contract(IERC20)14167,t_mapping(t_address,t_uint256))"
      },
      {
        "astId": 25030,
        "contract": "contracts/core/safety-pool/SafetyPool.sol:SafetyPool",
        "label": "rewardToken1",
        "offset": 0,
        "slot": "7",
        "type": "t_contract(IERC20)14167"
      },
      {
        "astId": 25034,
        "contract": "contracts/core/safety-pool/SafetyPool.sol:SafetyPool",
        "label": "rewardToken2",
        "offset": 0,
        "slot": "8",
        "type": "t_contract(IERC20)14167"
      },
      {
        "astId": 25038,
        "contract": "contracts/core/safety-pool/SafetyPool.sol:SafetyPool",
        "label": "staking",
        "offset": 0,
        "slot": "9",
        "type": "t_contract(IOmnichainStaking)31028"
      },
      {
        "astId": 25041,
        "contract": "contracts/core/safety-pool/SafetyPool.sol:SafetyPool",
        "label": "_boostedTotalSupply",
        "offset": 0,
        "slot": "10",
        "type": "t_uint256"
      },
      {
        "astId": 25044,
        "contract": "contracts/core/safety-pool/SafetyPool.sol:SafetyPool",
        "label": "_totalVotingPower",
        "offset": 0,
        "slot": "11",
        "type": "t_uint256"
      },
      {
        "astId": 25049,
        "contract": "contracts/core/safety-pool/SafetyPool.sol:SafetyPool",
        "label": "_votingPower",
        "offset": 0,
        "slot": "12",
        "type": "t_mapping(t_address,t_uint256)"
      },
      {
        "astId": 25054,
        "contract": "contracts/core/safety-pool/SafetyPool.sol:SafetyPool",
        "label": "_boostedBalances",
        "offset": 0,
        "slot": "13",
        "type": "t_mapping(t_address,t_uint256)"
      },
      {
        "astId": 24715,
        "contract": "contracts/core/safety-pool/SafetyPool.sol:SafetyPool",
        "label": "withdrawalDelay",
        "offset": 0,
        "slot": "14",
        "type": "t_uint256"
      },
      {
        "astId": 24720,
        "contract": "contracts/core/safety-pool/SafetyPool.sol:SafetyPool",
        "label": "withdrawalTimestamp",
        "offset": 0,
        "slot": "15",
        "type": "t_mapping(t_address,t_uint256)"
      },
      {
        "astId": 24725,
        "contract": "contracts/core/safety-pool/SafetyPool.sol:SafetyPool",
        "label": "withdrawalAmount",
        "offset": 0,
        "slot": "16",
        "type": "t_mapping(t_address,t_uint256)"
      }
    ],
    "types": {
      "t_address": {
        "encoding": "inplace",
        "label": "address",
        "numberOfBytes": "20"
      },
      "t_contract(IERC20)14167": {
        "encoding": "inplace",
        "label": "contract IERC20",
        "numberOfBytes": "20"
      },
      "t_contract(IOmnichainStaking)31028": {
        "encoding": "inplace",
        "label": "contract IOmnichainStaking",
        "numberOfBytes": "20"
      },
      "t_mapping(t_address,t_uint256)": {
        "encoding": "mapping",
        "key": "t_address",
        "label": "mapping(address => uint256)",
        "numberOfBytes": "32",
        "value": "t_uint256"
      },
      "t_mapping(t_contract(IERC20)14167,t_mapping(t_address,t_uint256))": {
        "encoding": "mapping",
        "key": "t_contract(IERC20)14167",
        "label": "mapping(contract IERC20 => mapping(address => uint256))",
        "numberOfBytes": "32",
        "value": "t_mapping(t_address,t_uint256)"
      },
      "t_mapping(t_contract(IERC20)14167,t_uint256)": {
        "encoding": "mapping",
        "key": "t_contract(IERC20)14167",
        "label": "mapping(contract IERC20 => uint256)",
        "numberOfBytes": "32",
        "value": "t_uint256"
      },
      "t_uint256": {
        "encoding": "inplace",
        "label": "uint256",
        "numberOfBytes": "32"
      }
    }
  }
}