{
  "address": "0x278fB6522F962ffD7091Ab103618b09aab24AE78",
  "abi": [
    {
      "inputs": [],
      "name": "ECDSAInvalidSignature",
      "type": "error"
    },
    {
      "inputs": [
        {
          "internalType": "uint256",
          "name": "length",
          "type": "uint256"
        }
      ],
      "name": "ECDSAInvalidSignatureLength",
      "type": "error"
    },
    {
      "inputs": [
        {
          "internalType": "bytes32",
          "name": "s",
          "type": "bytes32"
        }
      ],
      "name": "ECDSAInvalidSignatureS",
      "type": "error"
    },
    {
      "inputs": [
        {
          "internalType": "address",
          "name": "spender",
          "type": "address"
        },
        {
          "internalType": "uint256",
          "name": "allowance",
          "type": "uint256"
        },
        {
          "internalType": "uint256",
          "name": "needed",
          "type": "uint256"
        }
      ],
      "name": "ERC20InsufficientAllowance",
      "type": "error"
    },
    {
      "inputs": [
        {
          "internalType": "address",
          "name": "sender",
          "type": "address"
        },
        {
          "internalType": "uint256",
          "name": "balance",
          "type": "uint256"
        },
        {
          "internalType": "uint256",
          "name": "needed",
          "type": "uint256"
        }
      ],
      "name": "ERC20InsufficientBalance",
      "type": "error"
    },
    {
      "inputs": [
        {
          "internalType": "address",
          "name": "approver",
          "type": "address"
        }
      ],
      "name": "ERC20InvalidApprover",
      "type": "error"
    },
    {
      "inputs": [
        {
          "internalType": "address",
          "name": "receiver",
          "type": "address"
        }
      ],
      "name": "ERC20InvalidReceiver",
      "type": "error"
    },
    {
      "inputs": [
        {
          "internalType": "address",
          "name": "sender",
          "type": "address"
        }
      ],
      "name": "ERC20InvalidSender",
      "type": "error"
    },
    {
      "inputs": [
        {
          "internalType": "address",
          "name": "spender",
          "type": "address"
        }
      ],
      "name": "ERC20InvalidSpender",
      "type": "error"
    },
    {
      "inputs": [
        {
          "internalType": "uint256",
          "name": "deadline",
          "type": "uint256"
        }
      ],
      "name": "ERC2612ExpiredSignature",
      "type": "error"
    },
    {
      "inputs": [
        {
          "internalType": "address",
          "name": "signer",
          "type": "address"
        },
        {
          "internalType": "address",
          "name": "owner",
          "type": "address"
        }
      ],
      "name": "ERC2612InvalidSigner",
      "type": "error"
    },
    {
      "inputs": [],
      "name": "IXERC20_LimitsTooHigh",
      "type": "error"
    },
    {
      "inputs": [],
      "name": "IXERC20_NotFactory",
      "type": "error"
    },
    {
      "inputs": [],
      "name": "IXERC20_NotHighEnoughLimits",
      "type": "error"
    },
    {
      "inputs": [
        {
          "internalType": "address",
          "name": "account",
          "type": "address"
        },
        {
          "internalType": "uint256",
          "name": "currentNonce",
          "type": "uint256"
        }
      ],
      "name": "InvalidAccountNonce",
      "type": "error"
    },
    {
      "inputs": [],
      "name": "InvalidInitialization",
      "type": "error"
    },
    {
      "inputs": [],
      "name": "NotInitializing",
      "type": "error"
    },
    {
      "inputs": [
        {
          "internalType": "address",
          "name": "owner",
          "type": "address"
        }
      ],
      "name": "OwnableInvalidOwner",
      "type": "error"
    },
    {
      "inputs": [
        {
          "internalType": "address",
          "name": "account",
          "type": "address"
        }
      ],
      "name": "OwnableUnauthorizedAccount",
      "type": "error"
    },
    {
      "anonymous": false,
      "inputs": [
        {
          "indexed": true,
          "internalType": "address",
          "name": "owner",
          "type": "address"
        },
        {
          "indexed": true,
          "internalType": "address",
          "name": "spender",
          "type": "address"
        },
        {
          "indexed": false,
          "internalType": "uint256",
          "name": "value",
          "type": "uint256"
        }
      ],
      "name": "Approval",
      "type": "event"
    },
    {
      "anonymous": false,
      "inputs": [
        {
          "indexed": false,
          "internalType": "uint256",
          "name": "_mintingLimit",
          "type": "uint256"
        },
        {
          "indexed": false,
          "internalType": "uint256",
          "name": "_burningLimit",
          "type": "uint256"
        },
        {
          "indexed": true,
          "internalType": "address",
          "name": "_bridge",
          "type": "address"
        }
      ],
      "name": "BridgeLimitsSet",
      "type": "event"
    },
    {
      "anonymous": false,
      "inputs": [],
      "name": "EIP712DomainChanged",
      "type": "event"
    },
    {
      "anonymous": false,
      "inputs": [
        {
          "indexed": false,
          "internalType": "uint64",
          "name": "version",
          "type": "uint64"
        }
      ],
      "name": "Initialized",
      "type": "event"
    },
    {
      "anonymous": false,
      "inputs": [
        {
          "indexed": false,
          "internalType": "address",
          "name": "_lockbox",
          "type": "address"
        }
      ],
      "name": "LockboxSet",
      "type": "event"
    },
    {
      "anonymous": false,
      "inputs": [
        {
          "indexed": true,
          "internalType": "address",
          "name": "previousOwner",
          "type": "address"
        },
        {
          "indexed": true,
          "internalType": "address",
          "name": "newOwner",
          "type": "address"
        }
      ],
      "name": "OwnershipTransferred",
      "type": "event"
    },
    {
      "anonymous": false,
      "inputs": [
        {
          "indexed": true,
          "internalType": "address",
          "name": "from",
          "type": "address"
        },
        {
          "indexed": true,
          "internalType": "address",
          "name": "to",
          "type": "address"
        },
        {
          "indexed": false,
          "internalType": "uint256",
          "name": "value",
          "type": "uint256"
        }
      ],
      "name": "Transfer",
      "type": "event"
    },
    {
      "inputs": [],
      "name": "DOMAIN_SEPARATOR",
      "outputs": [
        {
          "internalType": "bytes32",
          "name": "",
          "type": "bytes32"
        }
      ],
      "stateMutability": "view",
      "type": "function"
    },
    {
      "inputs": [],
      "name": "FACTORY",
      "outputs": [
        {
          "internalType": "address",
          "name": "",
          "type": "address"
        }
      ],
      "stateMutability": "view",
      "type": "function"
    },
    {
      "inputs": [
        {
          "internalType": "address",
          "name": "owner",
          "type": "address"
        },
        {
          "internalType": "address",
          "name": "spender",
          "type": "address"
        }
      ],
      "name": "allowance",
      "outputs": [
        {
          "internalType": "uint256",
          "name": "",
          "type": "uint256"
        }
      ],
      "stateMutability": "view",
      "type": "function"
    },
    {
      "inputs": [
        {
          "internalType": "address",
          "name": "spender",
          "type": "address"
        },
        {
          "internalType": "uint256",
          "name": "value",
          "type": "uint256"
        }
      ],
      "name": "approve",
      "outputs": [
        {
          "internalType": "bool",
          "name": "",
          "type": "bool"
        }
      ],
      "stateMutability": "nonpayable",
      "type": "function"
    },
    {
      "inputs": [
        {
          "internalType": "address",
          "name": "account",
          "type": "address"
        }
      ],
      "name": "balanceOf",
      "outputs": [
        {
          "internalType": "uint256",
          "name": "",
          "type": "uint256"
        }
      ],
      "stateMutability": "view",
      "type": "function"
    },
    {
      "inputs": [
        {
          "internalType": "address",
          "name": "",
          "type": "address"
        }
      ],
      "name": "bridges",
      "outputs": [
        {
          "components": [
            {
              "internalType": "uint256",
              "name": "timestamp",
              "type": "uint256"
            },
            {
              "internalType": "uint256",
              "name": "ratePerSecond",
              "type": "uint256"
            },
            {
              "internalType": "uint256",
              "name": "maxLimit",
              "type": "uint256"
            },
            {
              "internalType": "uint256",
              "name": "currentLimit",
              "type": "uint256"
            }
          ],
          "internalType": "struct IXERC20.BridgeParameters",
          "name": "minterParams",
          "type": "tuple"
        },
        {
          "components": [
            {
              "internalType": "uint256",
              "name": "timestamp",
              "type": "uint256"
            },
            {
              "internalType": "uint256",
              "name": "ratePerSecond",
              "type": "uint256"
            },
            {
              "internalType": "uint256",
              "name": "maxLimit",
              "type": "uint256"
            },
            {
              "internalType": "uint256",
              "name": "currentLimit",
              "type": "uint256"
            }
          ],
          "internalType": "struct IXERC20.BridgeParameters",
          "name": "burnerParams",
          "type": "tuple"
        }
      ],
      "stateMutability": "view",
      "type": "function"
    },
    {
      "inputs": [
        {
          "internalType": "address",
          "name": "_user",
          "type": "address"
        },
        {
          "internalType": "uint256",
          "name": "_amount",
          "type": "uint256"
        }
      ],
      "name": "burn",
      "outputs": [],
      "stateMutability": "nonpayable",
      "type": "function"
    },
    {
      "inputs": [
        {
          "internalType": "address",
          "name": "_bridge",
          "type": "address"
        }
      ],
      "name": "burningCurrentLimitOf",
      "outputs": [
        {
          "internalType": "uint256",
          "name": "_limit",
          "type": "uint256"
        }
      ],
      "stateMutability": "view",
      "type": "function"
    },
    {
      "inputs": [
        {
          "internalType": "address",
          "name": "_bridge",
          "type": "address"
        }
      ],
      "name": "burningMaxLimitOf",
      "outputs": [
        {
          "internalType": "uint256",
          "name": "_limit",
          "type": "uint256"
        }
      ],
      "stateMutability": "view",
      "type": "function"
    },
    {
      "inputs": [],
      "name": "decimals",
      "outputs": [
        {
          "internalType": "uint8",
          "name": "",
          "type": "uint8"
        }
      ],
      "stateMutability": "view",
      "type": "function"
    },
    {
      "inputs": [],
      "name": "eip712Domain",
      "outputs": [
        {
          "internalType": "bytes1",
          "name": "fields",
          "type": "bytes1"
        },
        {
          "internalType": "string",
          "name": "name",
          "type": "string"
        },
        {
          "internalType": "string",
          "name": "version",
          "type": "string"
        },
        {
          "internalType": "uint256",
          "name": "chainId",
          "type": "uint256"
        },
        {
          "internalType": "address",
          "name": "verifyingContract",
          "type": "address"
        },
        {
          "internalType": "bytes32",
          "name": "salt",
          "type": "bytes32"
        },
        {
          "internalType": "uint256[]",
          "name": "extensions",
          "type": "uint256[]"
        }
      ],
      "stateMutability": "view",
      "type": "function"
    },
    {
      "inputs": [
        {
          "internalType": "string",
          "name": "_name",
          "type": "string"
        },
        {
          "internalType": "string",
          "name": "_symbol",
          "type": "string"
        },
        {
          "internalType": "address",
          "name": "_factory",
          "type": "address"
        }
      ],
      "name": "initialize",
      "outputs": [],
      "stateMutability": "nonpayable",
      "type": "function"
    },
    {
      "inputs": [],
      "name": "lockbox",
      "outputs": [
        {
          "internalType": "address",
          "name": "",
          "type": "address"
        }
      ],
      "stateMutability": "view",
      "type": "function"
    },
    {
      "inputs": [
        {
          "internalType": "address",
          "name": "_user",
          "type": "address"
        },
        {
          "internalType": "uint256",
          "name": "_amount",
          "type": "uint256"
        }
      ],
      "name": "mint",
      "outputs": [],
      "stateMutability": "nonpayable",
      "type": "function"
    },
    {
      "inputs": [
        {
          "internalType": "address",
          "name": "_bridge",
          "type": "address"
        }
      ],
      "name": "mintingCurrentLimitOf",
      "outputs": [
        {
          "internalType": "uint256",
          "name": "_limit",
          "type": "uint256"
        }
      ],
      "stateMutability": "view",
      "type": "function"
    },
    {
      "inputs": [
        {
          "internalType": "address",
          "name": "_bridge",
          "type": "address"
        }
      ],
      "name": "mintingMaxLimitOf",
      "outputs": [
        {
          "internalType": "uint256",
          "name": "_limit",
          "type": "uint256"
        }
      ],
      "stateMutability": "view",
      "type": "function"
    },
    {
      "inputs": [],
      "name": "name",
      "outputs": [
        {
          "internalType": "string",
          "name": "",
          "type": "string"
        }
      ],
      "stateMutability": "view",
      "type": "function"
    },
    {
      "inputs": [
        {
          "internalType": "address",
          "name": "owner",
          "type": "address"
        }
      ],
      "name": "nonces",
      "outputs": [
        {
          "internalType": "uint256",
          "name": "",
          "type": "uint256"
        }
      ],
      "stateMutability": "view",
      "type": "function"
    },
    {
      "inputs": [],
      "name": "owner",
      "outputs": [
        {
          "internalType": "address",
          "name": "",
          "type": "address"
        }
      ],
      "stateMutability": "view",
      "type": "function"
    },
    {
      "inputs": [
        {
          "internalType": "address",
          "name": "owner",
          "type": "address"
        },
        {
          "internalType": "address",
          "name": "spender",
          "type": "address"
        },
        {
          "internalType": "uint256",
          "name": "value",
          "type": "uint256"
        },
        {
          "internalType": "uint256",
          "name": "deadline",
          "type": "uint256"
        },
        {
          "internalType": "uint8",
          "name": "v",
          "type": "uint8"
        },
        {
          "internalType": "bytes32",
          "name": "r",
          "type": "bytes32"
        },
        {
          "internalType": "bytes32",
          "name": "s",
          "type": "bytes32"
        }
      ],
      "name": "permit",
      "outputs": [],
      "stateMutability": "nonpayable",
      "type": "function"
    },
    {
      "inputs": [],
      "name": "renounceOwnership",
      "outputs": [],
      "stateMutability": "nonpayable",
      "type": "function"
    },
    {
      "inputs": [
        {
          "internalType": "address",
          "name": "_bridge",
          "type": "address"
        },
        {
          "internalType": "uint256",
          "name": "_mintingLimit",
          "type": "uint256"
        },
        {
          "internalType": "uint256",
          "name": "_burningLimit",
          "type": "uint256"
        }
      ],
      "name": "setLimits",
      "outputs": [],
      "stateMutability": "nonpayable",
      "type": "function"
    },
    {
      "inputs": [
        {
          "internalType": "address",
          "name": "_lockbox",
          "type": "address"
        }
      ],
      "name": "setLockbox",
      "outputs": [],
      "stateMutability": "nonpayable",
      "type": "function"
    },
    {
      "inputs": [],
      "name": "symbol",
      "outputs": [
        {
          "internalType": "string",
          "name": "",
          "type": "string"
        }
      ],
      "stateMutability": "view",
      "type": "function"
    },
    {
      "inputs": [],
      "name": "totalSupply",
      "outputs": [
        {
          "internalType": "uint256",
          "name": "",
          "type": "uint256"
        }
      ],
      "stateMutability": "view",
      "type": "function"
    },
    {
      "inputs": [
        {
          "internalType": "address",
          "name": "to",
          "type": "address"
        },
        {
          "internalType": "uint256",
          "name": "value",
          "type": "uint256"
        }
      ],
      "name": "transfer",
      "outputs": [
        {
          "internalType": "bool",
          "name": "",
          "type": "bool"
        }
      ],
      "stateMutability": "nonpayable",
      "type": "function"
    },
    {
      "inputs": [
        {
          "internalType": "address",
          "name": "from",
          "type": "address"
        },
        {
          "internalType": "address",
          "name": "to",
          "type": "address"
        },
        {
          "internalType": "uint256",
          "name": "value",
          "type": "uint256"
        }
      ],
      "name": "transferFrom",
      "outputs": [
        {
          "internalType": "bool",
          "name": "",
          "type": "bool"
        }
      ],
      "stateMutability": "nonpayable",
      "type": "function"
    },
    {
      "inputs": [
        {
          "internalType": "address",
          "name": "newOwner",
          "type": "address"
        }
      ],
      "name": "transferOwnership",
      "outputs": [],
      "stateMutability": "nonpayable",
      "type": "function"
    }
  ],
  "transactionHash": "0x6e78615a77cb4225a9a184a553b4b3e3f1751623980b4797029f87f5c65e2e83",
  "args": [],
  "numDeployments": 1,
  "solcInputHash": "0016edc71da5c3b43af2ef1ea1763a9c",
  "bytecode": "0x60a06040526201518060805234801561001757600080fd5b5060805161225961004860003960008181610f0a01528181610f410152818161121001526112d101526122596000f3fe608060405234801561001057600080fd5b50600436106101c45760003560e01c8063715018a6116100f9578063a08d565411610097578063ced67f0c11610071578063ced67f0c1461041b578063d505accf146104a6578063dd62ed3e146104b9578063f2fde38b1461051157600080fd5b8063a08d5654146103c9578063a9059cbb146103dc578063c1eb7137146103ef57600080fd5b80638da5cb5b116100d35780638da5cb5b1461036b57806395d89b411461039b578063998955d3146103a35780639dc29fac146103b657600080fd5b8063715018a6146103355780637ecebe001461033d57806384b0196e1461035057600080fd5b8063313ce56711610166578063435350b711610140578063435350b7146102e9578063651fd268146102fc57806366cc57021461030f57806370a082311461032257600080fd5b8063313ce567146102bf5780633644e515146102ce57806340c10f19146102d657600080fd5b80630c05f82c116101a25780630c05f82c1461021f57806318160ddd1461025a57806323b872dd146102815780632dd310001461029457600080fd5b806306fdde03146101c9578063077f224a146101e7578063095ea7b3146101fc575b600080fd5b6101d1610524565b6040516101de9190611cb2565b60405180910390f35b6101fa6101f5366004611d84565b6105df565b005b61020f61020a366004611df8565b610720565b60405190151581526020016101de565b61024c61022d366004611e22565b6001600160a01b03166000908152600260208190526040909120015490565b6040519081526020016101de565b7f52c63247e1f47db19d5ce0460030c497f067ca4cebf71ba98eeadabe20bace025461024c565b61020f61028f366004611e3d565b61073a565b6000546102a7906001600160a01b031681565b6040516001600160a01b0390911681526020016101de565b604051601281526020016101de565b61024c610760565b6101fa6102e4366004611df8565b61076f565b6101fa6102f7366004611e22565b61077e565b61024c61030a366004611e22565b610823565b6001546102a7906001600160a01b031681565b61024c610330366004611e22565b610859565b6101fa61089e565b61024c61034b366004611e22565b6108b2565b6103586108bd565b6040516101de9796959493929190611e79565b7f9016d09d72d40fdae2fd8ceac6b6234c7706214fd39c1cd1e609a0528c199300546001600160a01b03166102a7565b6101d16109be565b61024c6103b1366004611e22565b610a0f565b6101fa6103c4366004611df8565b610a46565b6101fa6103d7366004611f2b565b610a6c565b61020f6103ea366004611df8565b610b2d565b61024c6103fd366004611e22565b6001600160a01b031660009081526002602052604090206006015490565b610498610429366004611e22565b60026020818152600092835260409283902083516080808201865282548252600183015482850152938201548186015260038201546060808301919091528551948501865260048301548552600583015493850193909352600682015494840194909452600701549082015282565b6040516101de929190611f5e565b6101fa6104b4366004611faa565b610b3b565b61024c6104c736600461201d565b6001600160a01b0391821660009081527f52c63247e1f47db19d5ce0460030c497f067ca4cebf71ba98eeadabe20bace016020908152604080832093909416825291909152205490565b6101fa61051f366004611e22565b610cc6565b606060007f52c63247e1f47db19d5ce0460030c497f067ca4cebf71ba98eeadabe20bace005b905080600301805461055b90612050565b80601f016020809104026020016040519081016040528092919081815260200182805461058790612050565b80156105d45780601f106105a9576101008083540402835291602001916105d4565b820191906000526020600020905b8154815290600101906020018083116105b757829003601f168201915b505050505091505090565b7ff0c57e16840df040f15088dc2f81fe391c3923bec73e23a9662efc9c229c6a00805468010000000000000000810460ff16159067ffffffffffffffff1660008115801561062a5750825b905060008267ffffffffffffffff1660011480156106475750303b155b905081158015610655575080155b1561068c576040517ff92ee8a900000000000000000000000000000000000000000000000000000000815260040160405180910390fd5b845467ffffffffffffffff1916600117855583156106c057845468ff00000000000000001916680100000000000000001785555b6106cb888888610d1d565b831561071657845468ff000000000000000019168555604051600181527fc7f505b2f371ae2175ee4913f4499e1f2633a7b5936321eed1cdaeb6115181d29060200160405180910390a15b5050505050505050565b60003361072e818585610d72565b60019150505b92915050565b600033610748858285610d84565b610753858585610e3a565b60019150505b9392505050565b600061076a610e99565b905090565b61077a338383610ea3565b5050565b6000546001600160a01b031633146107c2576040517f2029e52500000000000000000000000000000000000000000000000000000000815260040160405180910390fd5b6001805473ffffffffffffffffffffffffffffffffffffffff19166001600160a01b0383169081179091556040519081527ffa2e15ea41196e438f0593ecdd6036acd83bdfcd39d627b77c17eab43f376a399060200160405180910390a150565b6001600160a01b038116600090815260026020819052604082206003810154918101548154600190920154610734939290610efc565b6000807f52c63247e1f47db19d5ce0460030c497f067ca4cebf71ba98eeadabe20bace005b6001600160a01b0390931660009081526020939093525050604090205490565b6108a6610fae565b6108b06000611022565b565b6000610734826110a0565b600060608082808083817fa16a46d94261c7517cc8ff89f61c0ce93598e3c849801011dee649a6a557d10080549091501580156108fc57506001810154155b610967576040517f08c379a000000000000000000000000000000000000000000000000000000000815260206004820152601560248201527f4549503731323a20556e696e697469616c697a6564000000000000000000000060448201526064015b60405180910390fd5b61096f6110c9565b61097761111a565b604080516000808252602082019092527f0f000000000000000000000000000000000000000000000000000000000000009c939b5091995046985030975095509350915050565b7f52c63247e1f47db19d5ce0460030c497f067ca4cebf71ba98eeadabe20bace0480546060917f52c63247e1f47db19d5ce0460030c497f067ca4cebf71ba98eeadabe20bace009161055b90612050565b6001600160a01b03811660009081526002602052604081206007810154600682015460048301546005909301546107349390610efc565b336001600160a01b03831614610a6157610a61823383610d84565b61077a338383611144565b610a74610fae565b610a8160026000196120a0565b821180610a995750610a9660026000196120a0565b81115b15610ad0576040517ff596480900000000000000000000000000000000000000000000000000000000815260040160405180910390fd5b610ada838361119d565b610ae4838261125f565b60408051838152602081018390526001600160a01b038516917f93f3bbfe8cfb354ec059175107653f49f6eb479a8622a7d83866ea015435c944910160405180910390a2505050565b60003361072e818585610e3a565b83421115610b78576040517f627913020000000000000000000000000000000000000000000000000000000081526004810185905260240161095e565b60007f6e71edae12b1b97f4d1f60370fef10105fa2faae0126114a169c64845d6126c9888888610be48c6001600160a01b031660009081527f5ab42ced628888259c08ac98db1eb0cf702fc1501344311d8b100cd1bfe4bb006020526040902080546001810190915590565b6040805160208101969096526001600160a01b0394851690860152929091166060840152608083015260a082015260c0810186905260e0016040516020818303038152906040528051906020012090506000610c3f82611326565b90506000610c4f8287878761136e565b9050896001600160a01b0316816001600160a01b031614610caf576040517f4b800e460000000000000000000000000000000000000000000000000000000081526001600160a01b0380831660048301528b16602482015260440161095e565b610cba8a8a8a610d72565b50505050505050505050565b610cce610fae565b6001600160a01b038116610d11576040517f1e4fbdf70000000000000000000000000000000000000000000000000000000081526000600482015260240161095e565b610d1a81611022565b50565b610d2561139c565b610d2f8383611403565b610d3883611415565b610d418161145c565b6000805473ffffffffffffffffffffffffffffffffffffffff19166001600160a01b03929092169190911790555050565b610d7f838383600161146d565b505050565b6001600160a01b0383811660009081527f52c63247e1f47db19d5ce0460030c497f067ca4cebf71ba98eeadabe20bace0160209081526040808320938616835292905220546000198114610e345781811015610e25576040517ffb8f41b20000000000000000000000000000000000000000000000000000000081526001600160a01b0384166004820152602481018290526044810183905260640161095e565b610e348484848403600061146d565b50505050565b6001600160a01b038316610e6457604051634b637e8f60e11b81526000600482015260240161095e565b6001600160a01b038216610e8e5760405163ec442f0560e01b81526000600482015260240161095e565b610d7f838383611599565b600061076a611702565b6001546001600160a01b03848116911614610ef2576000610ec384610823565b905081811015610ee6576040516305b4215560e11b815260040160405180910390fd5b610ef08483611776565b505b610d7f82826117cc565b83838114610fa65742610f2f7f0000000000000000000000000000000000000000000000000000000000000000856120c2565b11610f3b575082610fa6565b42610f667f0000000000000000000000000000000000000000000000000000000000000000856120c2565b1115610fa6576000610f7884426120d5565b90506000610f8684836120e8565b610f9090846120c2565b9050858111610f9f5780610fa1565b855b925050505b949350505050565b33610fe07f9016d09d72d40fdae2fd8ceac6b6234c7706214fd39c1cd1e609a0528c199300546001600160a01b031690565b6001600160a01b0316146108b0576040517f118cdaa700000000000000000000000000000000000000000000000000000000815233600482015260240161095e565b7f9016d09d72d40fdae2fd8ceac6b6234c7706214fd39c1cd1e609a0528c199300805473ffffffffffffffffffffffffffffffffffffffff1981166001600160a01b03848116918217845560405192169182907f8be0079c531659141344cd1fd0a4f28419497f9722a3daafe3b4186f6b6457e090600090a3505050565b6000807f5ab42ced628888259c08ac98db1eb0cf702fc1501344311d8b100cd1bfe4bb0061087e565b7fa16a46d94261c7517cc8ff89f61c0ce93598e3c849801011dee649a6a557d10280546060917fa16a46d94261c7517cc8ff89f61c0ce93598e3c849801011dee649a6a557d1009161055b90612050565b606060007fa16a46d94261c7517cc8ff89f61c0ce93598e3c849801011dee649a6a557d10061054a565b6001546001600160a01b0384811691161461119357600061116484610a0f565b905081811015611187576040516305b4215560e11b815260040160405180910390fd5b6111918483611802565b505b610d7f828261185c565b6001600160a01b038216600090815260026020819052604082200154906111c384610823565b6001600160a01b03851660009081526002602081905260409091200184905590506111ef838383611892565b6001600160a01b0385166000908152600260205260409020600301556112357f0000000000000000000000000000000000000000000000000000000000000000846120a0565b6001600160a01b039094166000908152600260205260409020600181019490945550504290915550565b6001600160a01b0382166000908152600260205260408120600601549061128584610a0f565b6001600160a01b038516600090815260026020526040902060060184905590506112b0838383611892565b6001600160a01b0385166000908152600260205260409020600701556112f67f0000000000000000000000000000000000000000000000000000000000000000846120a0565b6001600160a01b039094166000908152600260205260409020600581019490945550504260049092019190915550565b6000610734611333610e99565b836040517f19010000000000000000000000000000000000000000000000000000000000008152600281019290925260228201526042902090565b600080600080611380888888886118e9565b92509250925061139082826119b8565b50909695505050505050565b7ff0c57e16840df040f15088dc2f81fe391c3923bec73e23a9662efc9c229c6a005468010000000000000000900460ff166108b0576040517fd7e6bcf800000000000000000000000000000000000000000000000000000000815260040160405180910390fd5b61140b61139c565b61077a8282611abc565b61141d61139c565b610d1a816040518060400160405280600181526020017f3100000000000000000000000000000000000000000000000000000000000000815250611b1f565b61146461139c565b610d1a81611b92565b7f52c63247e1f47db19d5ce0460030c497f067ca4cebf71ba98eeadabe20bace006001600160a01b0385166114d1576040517fe602df050000000000000000000000000000000000000000000000000000000081526000600482015260240161095e565b6001600160a01b038416611514576040517f94280d620000000000000000000000000000000000000000000000000000000081526000600482015260240161095e565b6001600160a01b0380861660009081526001830160209081526040808320938816835292905220839055811561159257836001600160a01b0316856001600160a01b03167f8c5be1e5ebec7d5bd14f71427d1e84f3dd0314c0f7b2291e5b200ac8c7c3b9258560405161158991815260200190565b60405180910390a35b5050505050565b7f52c63247e1f47db19d5ce0460030c497f067ca4cebf71ba98eeadabe20bace006001600160a01b0384166115e757818160020160008282546115dc91906120c2565b909155506116729050565b6001600160a01b03841660009081526020829052604090205482811015611653576040517fe450d38c0000000000000000000000000000000000000000000000000000000081526001600160a01b0386166004820152602481018290526044810184905260640161095e565b6001600160a01b03851660009081526020839052604090209083900390555b6001600160a01b0383166116905760028101805483900390556116af565b6001600160a01b03831660009081526020829052604090208054830190555b826001600160a01b0316846001600160a01b03167fddf252ad1be2c89b69c2b068fc378daa952ba7f163c4a11628f55a4df523b3ef846040516116f491815260200190565b60405180910390a350505050565b60007f8b73c3c69bb8fe3d512ecc4cf759cc79239f7b179b0ffacaa9a75d522b39400f61172d611b9a565b611735611c16565b60408051602081019490945283019190915260608201524660808201523060a082015260c00160405160208183030381529060405280519060200120905090565b600061178183610823565b6001600160a01b038416600090815260026020526040902042905590506117a882826120d5565b6001600160a01b039093166000908152600260205260409020600301929092555050565b6001600160a01b0382166117f65760405163ec442f0560e01b81526000600482015260240161095e565b61077a60008383611599565b600061180d83610a0f565b6001600160a01b038416600090815260026020526040902042600490910155905061183882826120d5565b6001600160a01b039093166000908152600260205260409020600701929092555050565b6001600160a01b03821661188657604051634b637e8f60e11b81526000600482015260240161095e565b61077a82600083611599565b600080848411156118c8576118a785856120d5565b90508083116118b75760006118c1565b6118c181846120d5565b91506118e1565b6118d284866120d5565b90506118de81846120c2565b91505b509392505050565b600080807f7fffffffffffffffffffffffffffffff5d576e7357a4501ddfe92f46681b20a084111561192457506000915060039050826119ae565b604080516000808252602082018084528a905260ff891692820192909252606081018790526080810186905260019060a0016020604051602081039080840390855afa158015611978573d6000803e3d6000fd5b5050604051601f1901519150506001600160a01b0381166119a4575060009250600191508290506119ae565b9250600091508190505b9450945094915050565b60008260038111156119cc576119cc6120ff565b036119d5575050565b60018260038111156119e9576119e96120ff565b03611a20576040517ff645eedf00000000000000000000000000000000000000000000000000000000815260040160405180910390fd5b6002826003811115611a3457611a346120ff565b03611a6e576040517ffce698f70000000000000000000000000000000000000000000000000000000081526004810182905260240161095e565b6003826003811115611a8257611a826120ff565b0361077a576040517fd78bce0c0000000000000000000000000000000000000000000000000000000081526004810182905260240161095e565b611ac461139c565b7f52c63247e1f47db19d5ce0460030c497f067ca4cebf71ba98eeadabe20bace007f52c63247e1f47db19d5ce0460030c497f067ca4cebf71ba98eeadabe20bace03611b108482612163565b5060048101610e348382612163565b611b2761139c565b7fa16a46d94261c7517cc8ff89f61c0ce93598e3c849801011dee649a6a557d1007fa16a46d94261c7517cc8ff89f61c0ce93598e3c849801011dee649a6a557d102611b738482612163565b5060038101611b828382612163565b5060008082556001909101555050565b610cce61139c565b60007fa16a46d94261c7517cc8ff89f61c0ce93598e3c849801011dee649a6a557d10081611bc66110c9565b805190915015611bde57805160209091012092915050565b81548015611bed579392505050565b7fc5d2460186f7233c927e7db2dcc703c0e500b653ca82273b7bfad8045d85a470935050505090565b60007fa16a46d94261c7517cc8ff89f61c0ce93598e3c849801011dee649a6a557d10081611c4261111a565b805190915015611c5a57805160209091012092915050565b60018201548015611bed579392505050565b6000815180845260005b81811015611c9257602081850181015186830182015201611c76565b506000602082860101526020601f19601f83011685010191505092915050565b6020815260006107596020830184611c6c565b634e487b7160e01b600052604160045260246000fd5b600082601f830112611cec57600080fd5b813567ffffffffffffffff80821115611d0757611d07611cc5565b604051601f8301601f19908116603f01168101908282118183101715611d2f57611d2f611cc5565b81604052838152866020858801011115611d4857600080fd5b836020870160208301376000602085830101528094505050505092915050565b80356001600160a01b0381168114611d7f57600080fd5b919050565b600080600060608486031215611d9957600080fd5b833567ffffffffffffffff80821115611db157600080fd5b611dbd87838801611cdb565b94506020860135915080821115611dd357600080fd5b50611de086828701611cdb565b925050611def60408501611d68565b90509250925092565b60008060408385031215611e0b57600080fd5b611e1483611d68565b946020939093013593505050565b600060208284031215611e3457600080fd5b61075982611d68565b600080600060608486031215611e5257600080fd5b611e5b84611d68565b9250611e6960208501611d68565b9150604084013590509250925092565b7fff00000000000000000000000000000000000000000000000000000000000000881681526000602060e081840152611eb560e084018a611c6c565b8381036040850152611ec7818a611c6c565b606085018990526001600160a01b038816608086015260a0850187905284810360c0860152855180825283870192509083019060005b81811015611f1957835183529284019291840191600101611efd565b50909c9b505050505050505050505050565b600080600060608486031215611f4057600080fd5b611f4984611d68565b95602085013595506040909401359392505050565b82518152602080840151818301526040808501518184015260608086015181850152845160808501529184015160a084015283015160c083015282015160e08201526101008101610759565b600080600080600080600060e0888a031215611fc557600080fd5b611fce88611d68565b9650611fdc60208901611d68565b95506040880135945060608801359350608088013560ff8116811461200057600080fd5b9699959850939692959460a0840135945060c09093013592915050565b6000806040838503121561203057600080fd5b61203983611d68565b915061204760208401611d68565b90509250929050565b600181811c9082168061206457607f821691505b60208210810361208457634e487b7160e01b600052602260045260246000fd5b50919050565b634e487b7160e01b600052601160045260246000fd5b6000826120bd57634e487b7160e01b600052601260045260246000fd5b500490565b808201808211156107345761073461208a565b818103818111156107345761073461208a565b80820281158282048414176107345761073461208a565b634e487b7160e01b600052602160045260246000fd5b601f821115610d7f57600081815260208120601f850160051c8101602086101561213c5750805b601f850160051c820191505b8181101561215b57828155600101612148565b505050505050565b815167ffffffffffffffff81111561217d5761217d611cc5565b6121918161218b8454612050565b84612115565b602080601f8311600181146121c657600084156121ae5750858301515b600019600386901b1c1916600185901b17855561215b565b600085815260208120601f198616915b828110156121f5578886015182559484019460019091019084016121d6565b50858210156122135787850151600019600388901b60f8161c191681555b5050505050600190811b0190555056fea2646970667358221220e1c3ff27050769f877636840b0035e23010b9f77da0da5f2d8b678e5fc19170064736f6c63430008150033",
  "devdoc": {
    "errors": {
      "ECDSAInvalidSignature()": [
        {
          "details": "The signature derives the `address(0)`."
        }
      ],
      "ECDSAInvalidSignatureLength(uint256)": [
        {
          "details": "The signature has an invalid length."
        }
      ],
      "ECDSAInvalidSignatureS(bytes32)": [
        {
          "details": "The signature has an S value that is in the upper half order."
        }
      ],
      "ERC20InsufficientAllowance(address,uint256,uint256)": [
        {
          "details": "Indicates a failure with the `spender`s `allowance`. Used in transfers.",
          "params": {
            "allowance": "Amount of tokens a `spender` is allowed to operate with.",
            "needed": "Minimum amount required to perform a transfer.",
            "spender": "Address that may be allowed to operate on tokens without being their owner."
          }
        }
      ],
      "ERC20InsufficientBalance(address,uint256,uint256)": [
        {
          "details": "Indicates an error related to the current `balance` of a `sender`. Used in transfers.",
          "params": {
            "balance": "Current balance for the interacting account.",
            "needed": "Minimum amount required to perform a transfer.",
            "sender": "Address whose tokens are being transferred."
          }
        }
      ],
      "ERC20InvalidApprover(address)": [
        {
          "details": "Indicates a failure with the `approver` of a token to be approved. Used in approvals.",
          "params": {
            "approver": "Address initiating an approval operation."
          }
        }
      ],
      "ERC20InvalidReceiver(address)": [
        {
          "details": "Indicates a failure with the token `receiver`. Used in transfers.",
          "params": {
            "receiver": "Address to which tokens are being transferred."
          }
        }
      ],
      "ERC20InvalidSender(address)": [
        {
          "details": "Indicates a failure with the token `sender`. Used in transfers.",
          "params": {
            "sender": "Address whose tokens are being transferred."
          }
        }
      ],
      "ERC20InvalidSpender(address)": [
        {
          "details": "Indicates a failure with the `spender` to be approved. Used in approvals.",
          "params": {
            "spender": "Address that may be allowed to operate on tokens without being their owner."
          }
        }
      ],
      "ERC2612ExpiredSignature(uint256)": [
        {
          "details": "Permit deadline has expired."
        }
      ],
      "ERC2612InvalidSigner(address,address)": [
        {
          "details": "Mismatched signature."
        }
      ],
      "InvalidAccountNonce(address,uint256)": [
        {
          "details": "The nonce used for an `account` is not the expected current nonce."
        }
      ],
      "InvalidInitialization()": [
        {
          "details": "The contract is already initialized."
        }
      ],
      "NotInitializing()": [
        {
          "details": "The contract is not initializing."
        }
      ],
      "OwnableInvalidOwner(address)": [
        {
          "details": "The owner is not a valid owner account. (eg. `address(0)`)"
        }
      ],
      "OwnableUnauthorizedAccount(address)": [
        {
          "details": "The caller account is not authorized to perform an operation."
        }
      ]
    },
    "events": {
      "Approval(address,address,uint256)": {
        "details": "Emitted when the allowance of a `spender` for an `owner` is set by a call to {approve}. `value` is the new allowance."
      },
      "BridgeLimitsSet(uint256,uint256,address)": {
        "params": {
          "_bridge": "The address of the bridge we are setting the limit too",
          "_burningLimit": "The updated burning limit we are setting to the bridge",
          "_mintingLimit": "The updated minting limit we are setting to the bridge"
        }
      },
      "EIP712DomainChanged()": {
        "details": "MAY be emitted to signal that the domain could have changed."
      },
      "Initialized(uint64)": {
        "details": "Triggered when the contract has been initialized or reinitialized."
      },
      "LockboxSet(address)": {
        "params": {
          "_lockbox": "The address of the lockbox"
        }
      },
      "Transfer(address,address,uint256)": {
        "details": "Emitted when `value` tokens are moved from one account (`from`) to another (`to`). Note that `value` may be zero."
      }
    },
    "kind": "dev",
    "methods": {
      "DOMAIN_SEPARATOR()": {
        "details": "Returns the domain separator used in the encoding of the signature for {permit}, as defined by {EIP712}."
      },
      "allowance(address,address)": {
        "details": "See {IERC20-allowance}."
      },
      "approve(address,uint256)": {
        "details": "See {IERC20-approve}. NOTE: If `value` is the maximum `uint256`, the allowance is not updated on `transferFrom`. This is semantically equivalent to an infinite approval. Requirements: - `spender` cannot be the zero address."
      },
      "balanceOf(address)": {
        "details": "See {IERC20-balanceOf}."
      },
      "burn(address,uint256)": {
        "details": "Can only be called by a bridge",
        "params": {
          "_amount": "The amount of tokens being burned",
          "_user": "The address of the user who needs tokens burned"
        }
      },
      "burningCurrentLimitOf(address)": {
        "params": {
          "_bridge": "the bridge we are viewing the limits of"
        },
        "returns": {
          "_limit": "The limit the bridge has"
        }
      },
      "burningMaxLimitOf(address)": {
        "params": {
          "_bridge": "the bridge we are viewing the limits of"
        },
        "returns": {
          "_limit": "The limit the bridge has"
        }
      },
      "decimals()": {
        "details": "Returns the number of decimals used to get its user representation. For example, if `decimals` equals `2`, a balance of `505` tokens should be displayed to a user as `5.05` (`505 / 10 ** 2`). Tokens usually opt for a value of 18, imitating the relationship between Ether and Wei. This is the default value returned by this function, unless it's overridden. NOTE: This information is only used for _display_ purposes: it in no way affects any of the arithmetic of the contract, including {IERC20-balanceOf} and {IERC20-transfer}."
      },
      "eip712Domain()": {
        "details": "See {IERC-5267}."
      },
      "initialize(string,string,address)": {
        "params": {
          "_factory": "The factory which deployed this contract",
          "_name": "The name of the token",
          "_symbol": "The symbol of the token"
        }
      },
      "mint(address,uint256)": {
        "details": "Can only be called by a bridge",
        "params": {
          "_amount": "The amount of tokens being minted",
          "_user": "The address of the user who needs tokens minted"
        }
      },
      "mintingCurrentLimitOf(address)": {
        "params": {
          "_bridge": "the bridge we are viewing the limits of"
        },
        "returns": {
          "_limit": "The limit the bridge has"
        }
      },
      "mintingMaxLimitOf(address)": {
        "params": {
          "_bridge": "the bridge we are viewing the limits of"
        },
        "returns": {
          "_limit": "The limit the bridge has"
        }
      },
      "name()": {
        "details": "Returns the name of the token."
      },
      "nonces(address)": {
        "details": "Returns the current nonce for `owner`. This value must be included whenever a signature is generated for {permit}. Every successful call to {permit} increases ``owner``'s nonce by one. This prevents a signature from being used multiple times."
      },
      "owner()": {
        "details": "Returns the address of the current owner."
      },
      "permit(address,address,uint256,uint256,uint8,bytes32,bytes32)": {
        "details": "Sets `value` as the allowance of `spender` over ``owner``'s tokens, given ``owner``'s signed approval. IMPORTANT: The same issues {IERC20-approve} has related to transaction ordering also apply here. Emits an {Approval} event. Requirements: - `spender` cannot be the zero address. - `deadline` must be a timestamp in the future. - `v`, `r` and `s` must be a valid `secp256k1` signature from `owner` over the EIP712-formatted function arguments. - the signature must use ``owner``'s current nonce (see {nonces}). For more information on the signature format, see the https://eips.ethereum.org/EIPS/eip-2612#specification[relevant EIP section]. CAUTION: See Security Considerations above."
      },
      "renounceOwnership()": {
        "details": "Leaves the contract without owner. It will not be possible to call `onlyOwner` functions. Can only be called by the current owner. NOTE: Renouncing ownership will leave the contract without an owner, thereby disabling any functionality that is only available to the owner."
      },
      "setLimits(address,uint256,uint256)": {
        "details": "Can only be called by the owner",
        "params": {
          "_bridge": "The address of the bridge we are setting the limits too",
          "_burningLimit": "The updated burning limit we are setting to the bridge",
          "_mintingLimit": "The updated minting limit we are setting to the bridge"
        }
      },
      "setLockbox(address)": {
        "params": {
          "_lockbox": "The address of the lockbox"
        }
      },
      "symbol()": {
        "details": "Returns the symbol of the token, usually a shorter version of the name."
      },
      "totalSupply()": {
        "details": "See {IERC20-totalSupply}."
      },
      "transfer(address,uint256)": {
        "details": "See {IERC20-transfer}. Requirements: - `to` cannot be the zero address. - the caller must have a balance of at least `value`."
      },
      "transferFrom(address,address,uint256)": {
        "details": "See {IERC20-transferFrom}. Emits an {Approval} event indicating the updated allowance. This is not required by the EIP. See the note at the beginning of {ERC20}. NOTE: Does not update the allowance if the current allowance is the maximum `uint256`. Requirements: - `from` and `to` cannot be the zero address. - `from` must have a balance of at least `value`. - the caller must have allowance for ``from``'s tokens of at least `value`."
      },
      "transferOwnership(address)": {
        "details": "Transfers ownership of the contract to a new account (`newOwner`). Can only be called by the current owner."
      }
    },
    "version": 1
  },
  "userdoc": {
    "errors": {
      "IXERC20_LimitsTooHigh()": [
        {
          "notice": "Reverts when limits are too high"
        }
      ],
      "IXERC20_NotFactory()": [
        {
          "notice": "Reverts when caller is not the factory"
        }
      ],
      "IXERC20_NotHighEnoughLimits()": [
        {
          "notice": "Reverts when a user with too low of a limit tries to call mint/burn"
        }
      ]
    },
    "events": {
      "BridgeLimitsSet(uint256,uint256,address)": {
        "notice": "Emits when a limit is set"
      },
      "LockboxSet(address)": {
        "notice": "Emits when a lockbox is set"
      }
    },
    "kind": "user",
    "methods": {
      "FACTORY()": {
        "notice": "The address of the factory which deployed this contract"
      },
      "bridges(address)": {
        "notice": "Maps bridge address to bridge configurations"
      },
      "burn(address,uint256)": {
        "notice": "Burns tokens for a user"
      },
      "burningCurrentLimitOf(address)": {
        "notice": "Returns the current limit of a bridge"
      },
      "burningMaxLimitOf(address)": {
        "notice": "Returns the max limit of a bridge"
      },
      "initialize(string,string,address)": {
        "notice": "Constructs the initial config of the XERC20"
      },
      "lockbox()": {
        "notice": "The address of the lockbox contract"
      },
      "mint(address,uint256)": {
        "notice": "Mints tokens for a user"
      },
      "mintingCurrentLimitOf(address)": {
        "notice": "Returns the current limit of a bridge"
      },
      "mintingMaxLimitOf(address)": {
        "notice": "Returns the max limit of a bridge"
      },
      "setLimits(address,uint256,uint256)": {
        "notice": "Updates the limits of any bridge"
      },
      "setLockbox(address)": {
        "notice": "Sets the lockbox address"
      }
    },
    "version": 1
  },
  "storageLayout": {
    "storage": [
      {
        "astId": 30385,
        "contract": "contracts/periphery/connext/XERC20.sol:XERC20",
        "label": "FACTORY",
        "offset": 0,
        "slot": "0",
        "type": "t_address"
      },
      {
        "astId": 30388,
        "contract": "contracts/periphery/connext/XERC20.sol:XERC20",
        "label": "lockbox",
        "offset": 0,
        "slot": "1",
        "type": "t_address"
      },
      {
        "astId": 30394,
        "contract": "contracts/periphery/connext/XERC20.sol:XERC20",
        "label": "bridges",
        "offset": 0,
        "slot": "2",
        "type": "t_mapping(t_address,t_struct(Bridge)28517_storage)"
      }
    ],
    "types": {
      "t_address": {
        "encoding": "inplace",
        "label": "address",
        "numberOfBytes": "20"
      },
      "t_mapping(t_address,t_struct(Bridge)28517_storage)": {
        "encoding": "mapping",
        "key": "t_address",
        "label": "mapping(address => struct IXERC20.Bridge)",
        "numberOfBytes": "32",
        "value": "t_struct(Bridge)28517_storage"
      },
      "t_struct(Bridge)28517_storage": {
        "encoding": "inplace",
        "label": "struct IXERC20.Bridge",
        "members": [
          {
            "astId": 28513,
            "contract": "contracts/periphery/connext/XERC20.sol:XERC20",
            "label": "minterParams",
            "offset": 0,
            "slot": "0",
            "type": "t_struct(BridgeParameters)28527_storage"
          },
          {
            "astId": 28516,
            "contract": "contracts/periphery/connext/XERC20.sol:XERC20",
            "label": "burnerParams",
            "offset": 0,
            "slot": "4",
            "type": "t_struct(BridgeParameters)28527_storage"
          }
        ],
        "numberOfBytes": "256"
      },
      "t_struct(BridgeParameters)28527_storage": {
        "encoding": "inplace",
        "label": "struct IXERC20.BridgeParameters",
        "members": [
          {
            "astId": 28520,
            "contract": "contracts/periphery/connext/XERC20.sol:XERC20",
            "label": "timestamp",
            "offset": 0,
            "slot": "0",
            "type": "t_uint256"
          },
          {
            "astId": 28522,
            "contract": "contracts/periphery/connext/XERC20.sol:XERC20",
            "label": "ratePerSecond",
            "offset": 0,
            "slot": "1",
            "type": "t_uint256"
          },
          {
            "astId": 28524,
            "contract": "contracts/periphery/connext/XERC20.sol:XERC20",
            "label": "maxLimit",
            "offset": 0,
            "slot": "2",
            "type": "t_uint256"
          },
          {
            "astId": 28526,
            "contract": "contracts/periphery/connext/XERC20.sol:XERC20",
            "label": "currentLimit",
            "offset": 0,
            "slot": "3",
            "type": "t_uint256"
          }
        ],
        "numberOfBytes": "128"
      },
      "t_uint256": {
        "encoding": "inplace",
        "label": "uint256",
        "numberOfBytes": "32"
      }
    }
  }
}