{
  "address": "0x7CE6fa74686382e3D833290b78E585932F08160A",
  "abi": [
    {
      "inputs": [
        {
          "internalType": "address",
          "name": "target",
          "type": "address"
        }
      ],
      "name": "AddressEmptyCode",
      "type": "error"
    },
    {
      "inputs": [
        {
          "internalType": "address",
          "name": "account",
          "type": "address"
        }
      ],
      "name": "AddressInsufficientBalance",
      "type": "error"
    },
    {
      "inputs": [],
      "name": "FailedInnerCall",
      "type": "error"
    },
    {
      "inputs": [],
      "name": "IXERC20Lockbox_Native",
      "type": "error"
    },
    {
      "inputs": [],
      "name": "IXERC20Lockbox_NotNative",
      "type": "error"
    },
    {
      "inputs": [],
      "name": "IXERC20Lockbox_WithdrawFailed",
      "type": "error"
    },
    {
      "inputs": [],
      "name": "InvalidInitialization",
      "type": "error"
    },
    {
      "inputs": [],
      "name": "NotInitializing",
      "type": "error"
    },
    {
      "inputs": [
        {
          "internalType": "address",
          "name": "token",
          "type": "address"
        }
      ],
      "name": "SafeERC20FailedOperation",
      "type": "error"
    },
    {
      "anonymous": false,
      "inputs": [
        {
          "indexed": false,
          "internalType": "address",
          "name": "_sender",
          "type": "address"
        },
        {
          "indexed": false,
          "internalType": "uint256",
          "name": "_amount",
          "type": "uint256"
        }
      ],
      "name": "Deposit",
      "type": "event"
    },
    {
      "anonymous": false,
      "inputs": [
        {
          "indexed": false,
          "internalType": "uint64",
          "name": "version",
          "type": "uint64"
        }
      ],
      "name": "Initialized",
      "type": "event"
    },
    {
      "anonymous": false,
      "inputs": [
        {
          "indexed": false,
          "internalType": "address",
          "name": "_sender",
          "type": "address"
        },
        {
          "indexed": false,
          "internalType": "uint256",
          "name": "_amount",
          "type": "uint256"
        }
      ],
      "name": "Withdraw",
      "type": "event"
    },
    {
      "inputs": [],
      "name": "ERC20",
      "outputs": [
        {
          "internalType": "contract IERC20",
          "name": "",
          "type": "address"
        }
      ],
      "stateMutability": "view",
      "type": "function"
    },
    {
      "inputs": [],
      "name": "IS_NATIVE",
      "outputs": [
        {
          "internalType": "bool",
          "name": "",
          "type": "bool"
        }
      ],
      "stateMutability": "view",
      "type": "function"
    },
    {
      "inputs": [],
      "name": "XERC20",
      "outputs": [
        {
          "internalType": "contract IXERC20",
          "name": "",
          "type": "address"
        }
      ],
      "stateMutability": "view",
      "type": "function"
    },
    {
      "inputs": [
        {
          "internalType": "uint256",
          "name": "_amount",
          "type": "uint256"
        }
      ],
      "name": "deposit",
      "outputs": [],
      "stateMutability": "nonpayable",
      "type": "function"
    },
    {
      "inputs": [],
      "name": "depositNative",
      "outputs": [],
      "stateMutability": "payable",
      "type": "function"
    },
    {
      "inputs": [
        {
          "internalType": "address",
          "name": "_to",
          "type": "address"
        }
      ],
      "name": "depositNativeTo",
      "outputs": [],
      "stateMutability": "payable",
      "type": "function"
    },
    {
      "inputs": [
        {
          "internalType": "address",
          "name": "_to",
          "type": "address"
        },
        {
          "internalType": "uint256",
          "name": "_amount",
          "type": "uint256"
        }
      ],
      "name": "depositTo",
      "outputs": [],
      "stateMutability": "nonpayable",
      "type": "function"
    },
    {
      "inputs": [
        {
          "internalType": "address",
          "name": "_xerc20",
          "type": "address"
        },
        {
          "internalType": "address",
          "name": "_erc20",
          "type": "address"
        },
        {
          "internalType": "bool",
          "name": "_isNative",
          "type": "bool"
        }
      ],
      "name": "initialize",
      "outputs": [],
      "stateMutability": "nonpayable",
      "type": "function"
    },
    {
      "inputs": [
        {
          "internalType": "uint256",
          "name": "_amount",
          "type": "uint256"
        }
      ],
      "name": "withdraw",
      "outputs": [],
      "stateMutability": "nonpayable",
      "type": "function"
    },
    {
      "inputs": [
        {
          "internalType": "address",
          "name": "_to",
          "type": "address"
        },
        {
          "internalType": "uint256",
          "name": "_amount",
          "type": "uint256"
        }
      ],
      "name": "withdrawTo",
      "outputs": [],
      "stateMutability": "nonpayable",
      "type": "function"
    },
    {
      "stateMutability": "payable",
      "type": "receive"
    }
  ],
  "transactionHash": "0xc0a69e6295b9ff0846dc2c40c5f8154db7b738a63e55472312541bf405369b15",
  "args": [],
  "numDeployments": 1,
  "solcInputHash": "0016edc71da5c3b43af2ef1ea1763a9c",
  "bytecode": "0x608060405234801561001057600080fd5b50610b18806100206000396000f3fe6080604052600436106100b55760003560e01c8063b6b55f2511610069578063db6b52461161004e578063db6b5246146101ca578063e4bbb5a8146101d2578063ffaad6a5146101f257600080fd5b8063b6b55f251461018a578063cc4aa204146101aa57600080fd5b8063479d39761161009a578063479d3976146101095780638ca418081461013f578063b20a0fb91461015257600080fd5b8063205c2878146100c95780632e1a7d4d146100e957600080fd5b366100c4576100c2610212565b005b600080fd5b3480156100d557600080fd5b506100c26100e43660046109e3565b610248565b3480156100f557600080fd5b506100c2610104366004610a0d565b610256565b34801561011557600080fd5b5060015461012a90600160a01b900460ff1681565b60405190151581526020015b60405180910390f35b6100c261014d366004610a26565b610263565b34801561015e57600080fd5b50600054610172906001600160a01b031681565b6040516001600160a01b039091168152602001610136565b34801561019657600080fd5b506100c26101a5366004610a0d565b610297565b3480156101b657600080fd5b50600154610172906001600160a01b031681565b6100c2610212565b3480156101de57600080fd5b506100c26101ed366004610a4f565b6102cc565b3480156101fe57600080fd5b506100c261020d3660046109e3565b610475565b600154600160a01b900460ff1661023c57604051638467cb4b60e01b815260040160405180910390fd5b61024633346104a6565b565b6102528282610595565b5050565b6102603382610595565b50565b600154600160a01b900460ff1661028d57604051638467cb4b60e01b815260040160405180910390fd5b61026081346104a6565b600154600160a01b900460ff16156102c257604051630237493d60e51b815260040160405180910390fd5b61026033826104a6565b7ff0c57e16840df040f15088dc2f81fe391c3923bec73e23a9662efc9c229c6a00805468010000000000000000810460ff16159067ffffffffffffffff166000811580156103175750825b905060008267ffffffffffffffff1660011480156103345750303b155b905081158015610342575080155b15610379576040517ff92ee8a900000000000000000000000000000000000000000000000000000000815260040160405180910390fd5b845467ffffffffffffffff1916600117855583156103ad57845468ff00000000000000001916680100000000000000001785555b600080547fffffffffffffffffffffffff0000000000000000000000000000000000000000166001600160a01b038a811691909117909155600180549189167fffffffffffffffffffffff00000000000000000000000000000000000000000090921691909117600160a01b88151502179055831561046b57845468ff000000000000000019168555604051600181527fc7f505b2f371ae2175ee4913f4499e1f2633a7b5936321eed1cdaeb6115181d29060200160405180910390a15b5050505050505050565b600154600160a01b900460ff16156104a057604051630237493d60e51b815260040160405180910390fd5b61025282825b600154600160a01b900460ff166104cf576001546104cf906001600160a01b0316333084610711565b6000546040517f40c10f190000000000000000000000000000000000000000000000000000000081526001600160a01b03848116600483015260248201849052909116906340c10f1990604401600060405180830381600087803b15801561053657600080fd5b505af115801561054a573d6000803e3d6000fd5b5050604080516001600160a01b0386168152602081018590527fe1fffcc4923d04b559f4d29a8bfc6cda04eb5b0d3c460751c2402c5c5cc9109c935001905060405180910390a15050565b604080516001600160a01b0384168152602081018390527f884edad9ce6fa2440d8a54cc123490eb96d2768479d49ff9c7366125a9424364910160405180910390a16000546040517f9dc29fac000000000000000000000000000000000000000000000000000000008152336004820152602481018390526001600160a01b0390911690639dc29fac90604401600060405180830381600087803b15801561063c57600080fd5b505af1158015610650573d6000803e3d6000fd5b5050600154600160a01b900460ff161591506106fa9050576000826001600160a01b03168260405160006040518083038185875af1925050503d80600081146106b5576040519150601f19603f3d011682016040523d82523d6000602084013e6106ba565b606091505b50509050806106f5576040517fab8a5c3400000000000000000000000000000000000000000000000000000000815260040160405180910390fd5b505050565b600154610252906001600160a01b03168383610793565b6040516001600160a01b03848116602483015283811660448301526064820183905261078d9186918216906323b872dd906084015b604051602081830303815290604052915060e01b6020820180517bffffffffffffffffffffffffffffffffffffffffffffffffffffffff83818316178352505050506107c4565b50505050565b6040516001600160a01b038381166024830152604482018390526106f591859182169063a9059cbb90606401610746565b60006107d96001600160a01b03841683610845565b905080516000141580156107fe5750808060200190518101906107fc9190610a96565b155b156106f5576040517f5274afe70000000000000000000000000000000000000000000000000000000081526001600160a01b03841660048201526024015b60405180910390fd5b60606108538383600061085a565b9392505050565b606081471015610898576040517fcd78605900000000000000000000000000000000000000000000000000000000815230600482015260240161083c565b600080856001600160a01b031684866040516108b49190610ab3565b60006040518083038185875af1925050503d80600081146108f1576040519150601f19603f3d011682016040523d82523d6000602084013e6108f6565b606091505b5091509150610906868383610910565b9695505050505050565b6060826109255761092082610985565b610853565b815115801561093c57506001600160a01b0384163b155b1561097e576040517f9996b3150000000000000000000000000000000000000000000000000000000081526001600160a01b038516600482015260240161083c565b5080610853565b8051156109955780518082602001fd5b6040517f1425ea4200000000000000000000000000000000000000000000000000000000815260040160405180910390fd5b80356001600160a01b03811681146109de57600080fd5b919050565b600080604083850312156109f657600080fd5b6109ff836109c7565b946020939093013593505050565b600060208284031215610a1f57600080fd5b5035919050565b600060208284031215610a3857600080fd5b610853826109c7565b801515811461026057600080fd5b600080600060608486031215610a6457600080fd5b610a6d846109c7565b9250610a7b602085016109c7565b91506040840135610a8b81610a41565b809150509250925092565b600060208284031215610aa857600080fd5b815161085381610a41565b6000825160005b81811015610ad45760208186018101518583015201610aba565b50600092019182525091905056fea2646970667358221220abda5aa19036dd49702844b4b9215bc15e128c8ebadf92ecb77f7365abc5a80064736f6c63430008150033",
  "devdoc": {
    "errors": {
      "AddressEmptyCode(address)": [
        {
          "details": "There's no code at `target` (it is not a contract)."
        }
      ],
      "AddressInsufficientBalance(address)": [
        {
          "details": "The ETH balance of the account is not enough to perform the operation."
        }
      ],
      "FailedInnerCall()": [
        {
          "details": "A call to an address target failed. The target may have reverted."
        }
      ],
      "InvalidInitialization()": [
        {
          "details": "The contract is already initialized."
        }
      ],
      "NotInitializing()": [
        {
          "details": "The contract is not initializing."
        }
      ],
      "SafeERC20FailedOperation(address)": [
        {
          "details": "An operation with an ERC20 token failed."
        }
      ]
    },
    "events": {
      "Deposit(address,uint256)": {
        "params": {
          "_amount": "The amount of tokens deposited",
          "_sender": "The address of the user who deposited"
        }
      },
      "Initialized(uint64)": {
        "details": "Triggered when the contract has been initialized or reinitialized."
      },
      "Withdraw(address,uint256)": {
        "params": {
          "_amount": "The amount of tokens withdrawn",
          "_sender": "The address of the user who withdrew"
        }
      }
    },
    "kind": "dev",
    "methods": {
      "deposit(uint256)": {
        "params": {
          "_amount": "The amount of tokens to deposit"
        }
      },
      "depositNativeTo(address)": {
        "params": {
          "_user": "The user to send the XERC20 to"
        }
      },
      "depositTo(address,uint256)": {
        "params": {
          "_amount": "The amount of tokens to deposit",
          "_user": "The user to send the XERC20 to"
        }
      },
      "initialize(address,address,bool)": {
        "params": {
          "_erc20": "The address of the ERC20 contract",
          "_isNative": "Whether the ERC20 token is the native gas token of this chain or not",
          "_xerc20": "The address of the XERC20 contract"
        }
      },
      "withdraw(uint256)": {
        "params": {
          "_amount": "The amount of tokens to withdraw"
        }
      },
      "withdrawTo(address,uint256)": {
        "params": {
          "_amount": "The amount of tokens to withdraw",
          "_user": "The user to withdraw to"
        }
      }
    },
    "version": 1
  },
  "userdoc": {
    "errors": {
      "IXERC20Lockbox_Native()": [
        {
          "notice": "Reverts when a user tries to deposit non-native tokens on a native lockbox"
        }
      ],
      "IXERC20Lockbox_NotNative()": [
        {
          "notice": "Reverts when a user tries to deposit native tokens on a non-native lockbox"
        }
      ],
      "IXERC20Lockbox_WithdrawFailed()": [
        {
          "notice": "Reverts when a user tries to withdraw and the call fails"
        }
      ]
    },
    "events": {
      "Deposit(address,uint256)": {
        "notice": "Emitted when tokens are deposited into the lockbox"
      },
      "Withdraw(address,uint256)": {
        "notice": "Emitted when tokens are withdrawn from the lockbox"
      }
    },
    "kind": "user",
    "methods": {
      "ERC20()": {
        "notice": "The ERC20 token of this contract"
      },
      "IS_NATIVE()": {
        "notice": "Whether the ERC20 token is the native gas token of this chain"
      },
      "XERC20()": {
        "notice": "The XERC20 token of this contract"
      },
      "deposit(uint256)": {
        "notice": "Deposit ERC20 tokens into the lockbox"
      },
      "depositNativeTo(address)": {
        "notice": "Deposit the native asset into the lockbox, and send the XERC20 to a user"
      },
      "depositTo(address,uint256)": {
        "notice": "Deposit ERC20 tokens into the lockbox, and send the XERC20 to a user"
      },
      "initialize(address,address,bool)": {
        "notice": "Constructor"
      },
      "withdraw(uint256)": {
        "notice": "Withdraw ERC20 tokens from the lockbox"
      },
      "withdrawTo(address,uint256)": {
        "notice": "Withdraw ERC20 tokens from the lockbox"
      }
    },
    "version": 1
  },
  "storageLayout": {
    "storage": [
      {
        "astId": 31090,
        "contract": "contracts/periphery/connext/XERC20Lockbox.sol:XERC20Lockbox",
        "label": "XERC20",
        "offset": 0,
        "slot": "0",
        "type": "t_contract(IXERC20)28592"
      },
      {
        "astId": 31094,
        "contract": "contracts/periphery/connext/XERC20Lockbox.sol:XERC20Lockbox",
        "label": "ERC20",
        "offset": 0,
        "slot": "1",
        "type": "t_contract(IERC20)10535"
      },
      {
        "astId": 31097,
        "contract": "contracts/periphery/connext/XERC20Lockbox.sol:XERC20Lockbox",
        "label": "IS_NATIVE",
        "offset": 20,
        "slot": "1",
        "type": "t_bool"
      }
    ],
    "types": {
      "t_bool": {
        "encoding": "inplace",
        "label": "bool",
        "numberOfBytes": "1"
      },
      "t_contract(IERC20)10535": {
        "encoding": "inplace",
        "label": "contract IERC20",
        "numberOfBytes": "20"
      },
      "t_contract(IXERC20)28592": {
        "encoding": "inplace",
        "label": "contract IXERC20",
        "numberOfBytes": "20"
      }
    }
  }
}