{
  "address": "0xf4cd82c0eA207376d6a38854077B869bBB27512B",
  "abi": [
    {
      "inputs": [
        {
          "internalType": "address",
          "name": "_owner",
          "type": "address"
        }
      ],
      "stateMutability": "nonpayable",
      "type": "constructor"
    },
    {
      "inputs": [],
      "name": "AccessControlBadConfirmation",
      "type": "error"
    },
    {
      "inputs": [
        {
          "internalType": "address",
          "name": "account",
          "type": "address"
        },
        {
          "internalType": "bytes32",
          "name": "neededRole",
          "type": "bytes32"
        }
      ],
      "name": "AccessControlUnauthorizedAccount",
      "type": "error"
    },
    {
      "inputs": [],
      "name": "ECDSAInvalidSignature",
      "type": "error"
    },
    {
      "inputs": [
        {
          "internalType": "uint256",
          "name": "length",
          "type": "uint256"
        }
      ],
      "name": "ECDSAInvalidSignatureLength",
      "type": "error"
    },
    {
      "inputs": [
        {
          "internalType": "bytes32",
          "name": "s",
          "type": "bytes32"
        }
      ],
      "name": "ECDSAInvalidSignatureS",
      "type": "error"
    },
    {
      "inputs": [
        {
          "internalType": "address",
          "name": "spender",
          "type": "address"
        },
        {
          "internalType": "uint256",
          "name": "allowance",
          "type": "uint256"
        },
        {
          "internalType": "uint256",
          "name": "needed",
          "type": "uint256"
        }
      ],
      "name": "ERC20InsufficientAllowance",
      "type": "error"
    },
    {
      "inputs": [
        {
          "internalType": "address",
          "name": "sender",
          "type": "address"
        },
        {
          "internalType": "uint256",
          "name": "balance",
          "type": "uint256"
        },
        {
          "internalType": "uint256",
          "name": "needed",
          "type": "uint256"
        }
      ],
      "name": "ERC20InsufficientBalance",
      "type": "error"
    },
    {
      "inputs": [
        {
          "internalType": "address",
          "name": "approver",
          "type": "address"
        }
      ],
      "name": "ERC20InvalidApprover",
      "type": "error"
    },
    {
      "inputs": [
        {
          "internalType": "address",
          "name": "receiver",
          "type": "address"
        }
      ],
      "name": "ERC20InvalidReceiver",
      "type": "error"
    },
    {
      "inputs": [
        {
          "internalType": "address",
          "name": "sender",
          "type": "address"
        }
      ],
      "name": "ERC20InvalidSender",
      "type": "error"
    },
    {
      "inputs": [
        {
          "internalType": "address",
          "name": "spender",
          "type": "address"
        }
      ],
      "name": "ERC20InvalidSpender",
      "type": "error"
    },
    {
      "inputs": [
        {
          "internalType": "uint256",
          "name": "deadline",
          "type": "uint256"
        }
      ],
      "name": "ERC2612ExpiredSignature",
      "type": "error"
    },
    {
      "inputs": [
        {
          "internalType": "address",
          "name": "signer",
          "type": "address"
        },
        {
          "internalType": "address",
          "name": "owner",
          "type": "address"
        }
      ],
      "name": "ERC2612InvalidSigner",
      "type": "error"
    },
    {
      "inputs": [
        {
          "internalType": "uint256",
          "name": "maxLoan",
          "type": "uint256"
        }
      ],
      "name": "ERC3156ExceededMaxLoan",
      "type": "error"
    },
    {
      "inputs": [
        {
          "internalType": "address",
          "name": "receiver",
          "type": "address"
        }
      ],
      "name": "ERC3156InvalidReceiver",
      "type": "error"
    },
    {
      "inputs": [
        {
          "internalType": "address",
          "name": "token",
          "type": "address"
        }
      ],
      "name": "ERC3156UnsupportedToken",
      "type": "error"
    },
    {
      "inputs": [
        {
          "internalType": "address",
          "name": "account",
          "type": "address"
        },
        {
          "internalType": "uint256",
          "name": "currentNonce",
          "type": "uint256"
        }
      ],
      "name": "InvalidAccountNonce",
      "type": "error"
    },
    {
      "inputs": [],
      "name": "InvalidShortString",
      "type": "error"
    },
    {
      "inputs": [
        {
          "internalType": "string",
          "name": "str",
          "type": "string"
        }
      ],
      "name": "StringTooLong",
      "type": "error"
    },
    {
      "anonymous": false,
      "inputs": [
        {
          "indexed": true,
          "internalType": "address",
          "name": "owner",
          "type": "address"
        },
        {
          "indexed": true,
          "internalType": "address",
          "name": "spender",
          "type": "address"
        },
        {
          "indexed": false,
          "internalType": "uint256",
          "name": "value",
          "type": "uint256"
        }
      ],
      "name": "Approval",
      "type": "event"
    },
    {
      "anonymous": false,
      "inputs": [],
      "name": "EIP712DomainChanged",
      "type": "event"
    },
    {
      "anonymous": false,
      "inputs": [
        {
          "indexed": true,
          "internalType": "bytes32",
          "name": "role",
          "type": "bytes32"
        },
        {
          "indexed": true,
          "internalType": "bytes32",
          "name": "previousAdminRole",
          "type": "bytes32"
        },
        {
          "indexed": true,
          "internalType": "bytes32",
          "name": "newAdminRole",
          "type": "bytes32"
        }
      ],
      "name": "RoleAdminChanged",
      "type": "event"
    },
    {
      "anonymous": false,
      "inputs": [
        {
          "indexed": true,
          "internalType": "bytes32",
          "name": "role",
          "type": "bytes32"
        },
        {
          "indexed": true,
          "internalType": "address",
          "name": "account",
          "type": "address"
        },
        {
          "indexed": true,
          "internalType": "address",
          "name": "sender",
          "type": "address"
        }
      ],
      "name": "RoleGranted",
      "type": "event"
    },
    {
      "anonymous": false,
      "inputs": [
        {
          "indexed": true,
          "internalType": "bytes32",
          "name": "role",
          "type": "bytes32"
        },
        {
          "indexed": true,
          "internalType": "address",
          "name": "account",
          "type": "address"
        },
        {
          "indexed": true,
          "internalType": "address",
          "name": "sender",
          "type": "address"
        }
      ],
      "name": "RoleRevoked",
      "type": "event"
    },
    {
      "anonymous": false,
      "inputs": [
        {
          "indexed": true,
          "internalType": "address",
          "name": "from",
          "type": "address"
        },
        {
          "indexed": true,
          "internalType": "address",
          "name": "to",
          "type": "address"
        },
        {
          "indexed": false,
          "internalType": "uint256",
          "name": "value",
          "type": "uint256"
        }
      ],
      "name": "Transfer",
      "type": "event"
    },
    {
      "inputs": [],
      "name": "DEFAULT_ADMIN_ROLE",
      "outputs": [
        {
          "internalType": "bytes32",
          "name": "",
          "type": "bytes32"
        }
      ],
      "stateMutability": "view",
      "type": "function"
    },
    {
      "inputs": [],
      "name": "DOMAIN_SEPARATOR",
      "outputs": [
        {
          "internalType": "bytes32",
          "name": "",
          "type": "bytes32"
        }
      ],
      "stateMutability": "view",
      "type": "function"
    },
    {
      "inputs": [],
      "name": "MANAGER_ROLE",
      "outputs": [
        {
          "internalType": "bytes32",
          "name": "",
          "type": "bytes32"
        }
      ],
      "stateMutability": "view",
      "type": "function"
    },
    {
      "inputs": [
        {
          "internalType": "address",
          "name": "owner",
          "type": "address"
        },
        {
          "internalType": "address",
          "name": "spender",
          "type": "address"
        }
      ],
      "name": "allowance",
      "outputs": [
        {
          "internalType": "uint256",
          "name": "",
          "type": "uint256"
        }
      ],
      "stateMutability": "view",
      "type": "function"
    },
    {
      "inputs": [
        {
          "internalType": "address",
          "name": "spender",
          "type": "address"
        },
        {
          "internalType": "uint256",
          "name": "value",
          "type": "uint256"
        }
      ],
      "name": "approve",
      "outputs": [
        {
          "internalType": "bool",
          "name": "",
          "type": "bool"
        }
      ],
      "stateMutability": "nonpayable",
      "type": "function"
    },
    {
      "inputs": [
        {
          "internalType": "address",
          "name": "account",
          "type": "address"
        }
      ],
      "name": "balanceOf",
      "outputs": [
        {
          "internalType": "uint256",
          "name": "",
          "type": "uint256"
        }
      ],
      "stateMutability": "view",
      "type": "function"
    },
    {
      "inputs": [
        {
          "internalType": "address",
          "name": "_account",
          "type": "address"
        },
        {
          "internalType": "uint256",
          "name": "_amount",
          "type": "uint256"
        }
      ],
      "name": "burn",
      "outputs": [],
      "stateMutability": "nonpayable",
      "type": "function"
    },
    {
      "inputs": [],
      "name": "decimals",
      "outputs": [
        {
          "internalType": "uint8",
          "name": "",
          "type": "uint8"
        }
      ],
      "stateMutability": "view",
      "type": "function"
    },
    {
      "inputs": [],
      "name": "eip712Domain",
      "outputs": [
        {
          "internalType": "bytes1",
          "name": "fields",
          "type": "bytes1"
        },
        {
          "internalType": "string",
          "name": "name",
          "type": "string"
        },
        {
          "internalType": "string",
          "name": "version",
          "type": "string"
        },
        {
          "internalType": "uint256",
          "name": "chainId",
          "type": "uint256"
        },
        {
          "internalType": "address",
          "name": "verifyingContract",
          "type": "address"
        },
        {
          "internalType": "bytes32",
          "name": "salt",
          "type": "bytes32"
        },
        {
          "internalType": "uint256[]",
          "name": "extensions",
          "type": "uint256[]"
        }
      ],
      "stateMutability": "view",
      "type": "function"
    },
    {
      "inputs": [
        {
          "internalType": "address",
          "name": "token",
          "type": "address"
        },
        {
          "internalType": "uint256",
          "name": "value",
          "type": "uint256"
        }
      ],
      "name": "flashFee",
      "outputs": [
        {
          "internalType": "uint256",
          "name": "",
          "type": "uint256"
        }
      ],
      "stateMutability": "view",
      "type": "function"
    },
    {
      "inputs": [
        {
          "internalType": "contract IERC3156FlashBorrower",
          "name": "receiver",
          "type": "address"
        },
        {
          "internalType": "address",
          "name": "token",
          "type": "address"
        },
        {
          "internalType": "uint256",
          "name": "value",
          "type": "uint256"
        },
        {
          "internalType": "bytes",
          "name": "data",
          "type": "bytes"
        }
      ],
      "name": "flashLoan",
      "outputs": [
        {
          "internalType": "bool",
          "name": "",
          "type": "bool"
        }
      ],
      "stateMutability": "nonpayable",
      "type": "function"
    },
    {
      "inputs": [
        {
          "internalType": "bytes32",
          "name": "role",
          "type": "bytes32"
        }
      ],
      "name": "getRoleAdmin",
      "outputs": [
        {
          "internalType": "bytes32",
          "name": "",
          "type": "bytes32"
        }
      ],
      "stateMutability": "view",
      "type": "function"
    },
    {
      "inputs": [
        {
          "internalType": "bytes32",
          "name": "role",
          "type": "bytes32"
        },
        {
          "internalType": "uint256",
          "name": "index",
          "type": "uint256"
        }
      ],
      "name": "getRoleMember",
      "outputs": [
        {
          "internalType": "address",
          "name": "",
          "type": "address"
        }
      ],
      "stateMutability": "view",
      "type": "function"
    },
    {
      "inputs": [
        {
          "internalType": "bytes32",
          "name": "role",
          "type": "bytes32"
        }
      ],
      "name": "getRoleMemberCount",
      "outputs": [
        {
          "internalType": "uint256",
          "name": "",
          "type": "uint256"
        }
      ],
      "stateMutability": "view",
      "type": "function"
    },
    {
      "inputs": [
        {
          "internalType": "address",
          "name": "_account",
          "type": "address"
        }
      ],
      "name": "grantManagerRole",
      "outputs": [],
      "stateMutability": "nonpayable",
      "type": "function"
    },
    {
      "inputs": [
        {
          "internalType": "bytes32",
          "name": "role",
          "type": "bytes32"
        },
        {
          "internalType": "address",
          "name": "account",
          "type": "address"
        }
      ],
      "name": "grantRole",
      "outputs": [],
      "stateMutability": "nonpayable",
      "type": "function"
    },
    {
      "inputs": [
        {
          "internalType": "bytes32",
          "name": "role",
          "type": "bytes32"
        },
        {
          "internalType": "address",
          "name": "account",
          "type": "address"
        }
      ],
      "name": "hasRole",
      "outputs": [
        {
          "internalType": "bool",
          "name": "",
          "type": "bool"
        }
      ],
      "stateMutability": "view",
      "type": "function"
    },
    {
      "inputs": [
        {
          "internalType": "address",
          "name": "_account",
          "type": "address"
        }
      ],
      "name": "isManager",
      "outputs": [
        {
          "internalType": "bool",
          "name": "what",
          "type": "bool"
        }
      ],
      "stateMutability": "view",
      "type": "function"
    },
    {
      "inputs": [
        {
          "internalType": "address",
          "name": "token",
          "type": "address"
        }
      ],
      "name": "maxFlashLoan",
      "outputs": [
        {
          "internalType": "uint256",
          "name": "",
          "type": "uint256"
        }
      ],
      "stateMutability": "view",
      "type": "function"
    },
    {
      "inputs": [
        {
          "internalType": "address",
          "name": "_account",
          "type": "address"
        },
        {
          "internalType": "uint256",
          "name": "_amount",
          "type": "uint256"
        }
      ],
      "name": "mint",
      "outputs": [],
      "stateMutability": "nonpayable",
      "type": "function"
    },
    {
      "inputs": [],
      "name": "name",
      "outputs": [
        {
          "internalType": "string",
          "name": "",
          "type": "string"
        }
      ],
      "stateMutability": "view",
      "type": "function"
    },
    {
      "inputs": [
        {
          "internalType": "address",
          "name": "owner",
          "type": "address"
        }
      ],
      "name": "nonces",
      "outputs": [
        {
          "internalType": "uint256",
          "name": "",
          "type": "uint256"
        }
      ],
      "stateMutability": "view",
      "type": "function"
    },
    {
      "inputs": [
        {
          "internalType": "address",
          "name": "owner",
          "type": "address"
        },
        {
          "internalType": "address",
          "name": "spender",
          "type": "address"
        },
        {
          "internalType": "uint256",
          "name": "value",
          "type": "uint256"
        },
        {
          "internalType": "uint256",
          "name": "deadline",
          "type": "uint256"
        },
        {
          "internalType": "uint8",
          "name": "v",
          "type": "uint8"
        },
        {
          "internalType": "bytes32",
          "name": "r",
          "type": "bytes32"
        },
        {
          "internalType": "bytes32",
          "name": "s",
          "type": "bytes32"
        }
      ],
      "name": "permit",
      "outputs": [],
      "stateMutability": "nonpayable",
      "type": "function"
    },
    {
      "inputs": [
        {
          "internalType": "bytes32",
          "name": "role",
          "type": "bytes32"
        },
        {
          "internalType": "address",
          "name": "callerConfirmation",
          "type": "address"
        }
      ],
      "name": "renounceRole",
      "outputs": [],
      "stateMutability": "nonpayable",
      "type": "function"
    },
    {
      "inputs": [
        {
          "internalType": "address",
          "name": "_account",
          "type": "address"
        }
      ],
      "name": "revokeManagerRole",
      "outputs": [],
      "stateMutability": "nonpayable",
      "type": "function"
    },
    {
      "inputs": [
        {
          "internalType": "bytes32",
          "name": "role",
          "type": "bytes32"
        },
        {
          "internalType": "address",
          "name": "account",
          "type": "address"
        }
      ],
      "name": "revokeRole",
      "outputs": [],
      "stateMutability": "nonpayable",
      "type": "function"
    },
    {
      "inputs": [
        {
          "internalType": "bytes4",
          "name": "interfaceId",
          "type": "bytes4"
        }
      ],
      "name": "supportsInterface",
      "outputs": [
        {
          "internalType": "bool",
          "name": "",
          "type": "bool"
        }
      ],
      "stateMutability": "view",
      "type": "function"
    },
    {
      "inputs": [],
      "name": "symbol",
      "outputs": [
        {
          "internalType": "string",
          "name": "",
          "type": "string"
        }
      ],
      "stateMutability": "view",
      "type": "function"
    },
    {
      "inputs": [],
      "name": "totalSupply",
      "outputs": [
        {
          "internalType": "uint256",
          "name": "",
          "type": "uint256"
        }
      ],
      "stateMutability": "view",
      "type": "function"
    },
    {
      "inputs": [
        {
          "internalType": "address",
          "name": "to",
          "type": "address"
        },
        {
          "internalType": "uint256",
          "name": "value",
          "type": "uint256"
        }
      ],
      "name": "transfer",
      "outputs": [
        {
          "internalType": "bool",
          "name": "",
          "type": "bool"
        }
      ],
      "stateMutability": "nonpayable",
      "type": "function"
    },
    {
      "inputs": [
        {
          "internalType": "address",
          "name": "from",
          "type": "address"
        },
        {
          "internalType": "address",
          "name": "to",
          "type": "address"
        },
        {
          "internalType": "uint256",
          "name": "value",
          "type": "uint256"
        }
      ],
      "name": "transferFrom",
      "outputs": [
        {
          "internalType": "bool",
          "name": "",
          "type": "bool"
        }
      ],
      "stateMutability": "nonpayable",
      "type": "function"
    }
  ],
  "transactionHash": "0xe6e741ca9d5ef784c901ea1b7306ac705204dc595f5c0838ae77c06d99cbaeea",
  "args": [
    "0xDceeb1e2326c7e283263E30Cf314eb06848D0FC4"
  ],
  "numDeployments": 1,
  "solcInputHash": "6a52020bda854ba848d9ed5514b0f5b6",
  "bytecode": "0x6101606040527f241ecf16d79d0f8dbfb92cbc07fe17840425976cf0667f022fe9877caa831b08600a553480156200003657600080fd5b506040516200252b3803806200252b833981016040819052620000599162000569565b6040518060400160405280600e81526020016d2d30b49029ba30b13632b1b7b4b760911b81525080604051806040016040528060018152602001603160f81b8152506040518060400160405280600e81526020016d2d30b49029ba30b13632b1b7b4b760911b815250604051806040016040528060048152602001632aa9a23d60e11b8152508160039081620000f0919062000639565b506004620000ff828262000639565b506200011191508390506005620001f7565b6101205262000122816006620001f7565b61014052815160208084019190912060e052815190820120610100524660a052620001b060e05161010051604080517f8b73c3c69bb8fe3d512ecc4cf759cc79239f7b179b0ffacaa9a75d522b39400f60208201529081019290925260608201524660808201523060a082015260009060c00160405160208183030381529060405280519060200120905090565b60805250503060c05250620001ce33670de0b6b3a764000062000230565b620001e233670de0b6b3a764000062000272565b620001ef600082620002ac565b50506200079c565b600060208351101562000217576200020f83620002e7565b90506200022a565b8162000224848262000639565b5060ff90505b92915050565b6001600160a01b038216620002605760405163ec442f0560e01b8152600060048201526024015b60405180910390fd5b6200026e600083836200032a565b5050565b6001600160a01b0382166200029e57604051634b637e8f60e11b81526000600482015260240162000257565b6200026e826000836200032a565b600080620002bb84846200045d565b90508015620002e0576000848152600960205260409020620002de90846200050f565b505b9392505050565b600080829050601f8151111562000315578260405163305a27a960e01b815260040162000257919062000705565b8051620003228262000755565b179392505050565b6001600160a01b038316620003595780600260008282546200034d91906200077a565b90915550620003cd9050565b6001600160a01b03831660009081526020819052604090205481811015620003ae5760405163391434e360e21b81526001600160a01b0385166004820152602481018290526044810183905260640162000257565b6001600160a01b03841660009081526020819052604090209082900390555b6001600160a01b038216620003eb576002805482900390556200040a565b6001600160a01b03821660009081526020819052604090208054820190555b816001600160a01b0316836001600160a01b03167fddf252ad1be2c89b69c2b068fc378daa952ba7f163c4a11628f55a4df523b3ef836040516200045091815260200190565b60405180910390a3505050565b60008281526008602090815260408083206001600160a01b038516845290915281205460ff16620005065760008381526008602090815260408083206001600160a01b03861684529091529020805460ff19166001179055620004bd3390565b6001600160a01b0316826001600160a01b0316847f2f8788117e7eff1d82e926ec794901d17c78024a50270940304540a733656f0d60405160405180910390a45060016200022a565b5060006200022a565b6000620002e0836001600160a01b038416600081815260018301602052604081205462000506575081546001818101845560008481526020808220909301849055845484825282860190935260409020919091556200022a565b6000602082840312156200057c57600080fd5b81516001600160a01b0381168114620002e057600080fd5b634e487b7160e01b600052604160045260246000fd5b600181811c90821680620005bf57607f821691505b602082108103620005e057634e487b7160e01b600052602260045260246000fd5b50919050565b601f8211156200063457600081815260208120601f850160051c810160208610156200060f5750805b601f850160051c820191505b8181101562000630578281556001016200061b565b5050505b505050565b81516001600160401b0381111562000655576200065562000594565b6200066d81620006668454620005aa565b84620005e6565b602080601f831160018114620006a557600084156200068c5750858301515b600019600386901b1c1916600185901b17855562000630565b600085815260208120601f198616915b82811015620006d657888601518255948401946001909101908401620006b5565b5085821015620006f55787850151600019600388901b60f8161c191681555b5050505050600190811b01905550565b600060208083528351808285015260005b81811015620007345785810183015185820160400152820162000716565b506000604082860101526040601f19601f8301168501019250505092915050565b80516020808301519190811015620005e05760001960209190910360031b1b16919050565b808201808211156200022a57634e487b7160e01b600052601160045260246000fd5b60805160a05160c05160e051610100516101205161014051611d34620007f76000396000610f2401526000610ef701526000610e0201526000610dda01526000610d3501526000610d5f01526000610d890152611d346000f3fe608060405234801561001057600080fd5b50600436106101e55760003560e01c80637ecebe001161010f578063be4dc94f116100a2578063d9d98ce411610071578063d9d98ce41461044a578063dd62ed3e1461045d578063ec87621c14610496578063f3ae24151461049f57600080fd5b8063be4dc94f146103fe578063ca15c87314610411578063d505accf14610424578063d547741f1461043757600080fd5b806395d89b41116100de57806395d89b41146103c85780639dc29fac146103d0578063a217fddf146103e3578063a9059cbb146103eb57600080fd5b80637ecebe001461033657806384b0196e146103495780639010d07c1461036457806391d148541461038f57600080fd5b80632f2ff15d1161018757806340c10f191161015657806340c10f19146102d45780635cffe9de146102e7578063613255ab146102fa57806370a082311461030d57600080fd5b80632f2ff15d14610297578063313ce567146102aa5780633644e515146102b957806336568abe146102c157600080fd5b806318160ddd116101c357806318160ddd1461023a57806323b872dd1461024c578063248a9ca31461025f57806326e885e31461028257600080fd5b806301ffc9a7146101ea57806306fdde0314610212578063095ea7b314610227575b600080fd5b6101fd6101f836600461184f565b6104b2565b60405190151581526020015b60405180910390f35b61021a6104f6565b60405161020991906118bf565b6101fd6102353660046118e7565b610588565b6002545b604051908152602001610209565b6101fd61025a366004611913565b6105a0565b61023e61026d366004611954565b60009081526008602052604090206001015490565b61029561029036600461196d565b6105c4565b005b6102956102a536600461198a565b6105e0565b60405160128152602001610209565b61023e61060b565b6102956102cf36600461198a565b61061a565b6102956102e23660046118e7565b610666565b6101fd6102f53660046119ba565b61067c565b61023e61030836600461196d565b610845565b61023e61031b36600461196d565b6001600160a01b031660009081526020819052604090205490565b61023e61034436600461196d565b61086d565b61035161088b565b6040516102099796959493929190611a59565b610377610372366004611b0b565b6108ed565b6040516001600160a01b039091168152602001610209565b6101fd61039d36600461198a565b60009182526008602090815260408084206001600160a01b0393909316845291905290205460ff1690565b61021a61090c565b6102956103de3660046118e7565b61091b565b61023e600081565b6101fd6103f93660046118e7565b610931565b61029561040c36600461196d565b61093f565b61023e61041f366004611954565b610956565b610295610432366004611b2d565b61096d565b61029561044536600461198a565b610ad9565b61023e6104583660046118e7565b610afe565b61023e61046b366004611ba4565b6001600160a01b03918216600090815260016020908152604080832093909416825291909152205490565b61023e600a5481565b6101fd6104ad36600461196d565b610b54565b60006001600160e01b031982167f5a05180f0000000000000000000000000000000000000000000000000000000014806104f057506104f082610b82565b92915050565b60606003805461050590611bd2565b80601f016020809104026020016040519081016040528092919081815260200182805461053190611bd2565b801561057e5780601f106105535761010080835404028352916020019161057e565b820191906000526020600020905b81548152906001019060200180831161056157829003601f168201915b5050505050905090565b600033610596818585610be9565b5060019392505050565b6000336105ae858285610bf6565b6105b9858585610c87565b506001949350505050565b60006105cf81610ce6565b6105db600a5483610cf3565b505050565b6000828152600860205260409020600101546105fb81610ce6565b6106058383610cf3565b50505050565b6000610615610d28565b905090565b6001600160a01b038116331461065c576040517f6697b23200000000000000000000000000000000000000000000000000000000815260040160405180910390fd5b6105db8282610e53565b600a5461067281610ce6565b6105db8383610e80565b60008061068886610845565b9050808511156106cc576040517ffd9a7609000000000000000000000000000000000000000000000000000000008152600481018290526024015b60405180910390fd5b60006106d88787610afe565b90506106e48887610e80565b6040517f23e30c8b0000000000000000000000000000000000000000000000000000000081527f439148f0bbc682ca079e46d6e2c2f0c1e3b820f1a291b069d8882abf8cf18dd9906001600160a01b038a16906323e30c8b906107559033908c908c9088908d908d90600401611c0c565b6020604051808303816000875af1158015610774573d6000803e3d6000fd5b505050506040513d601f19601f820116820180604052508101906107989190611c67565b146107da576040517f678c5b000000000000000000000000000000000000000000000000000000000081526001600160a01b03891660048201526024016106c3565b60006107f089306107eb858b611c96565b610bf6565b81158061080457506001600160a01b038116155b156108215761081c89610817848a611c96565b610eba565b610836565b61082b8988610eba565b610836898284610c87565b50600198975050505050505050565b60006001600160a01b038216301461085e5760006104f0565b6002546104f090600019611ca9565b6001600160a01b0381166000908152600760205260408120546104f0565b60006060806000806000606061089f610ef0565b6108a7610f1d565b604080516000808252602082019092527f0f000000000000000000000000000000000000000000000000000000000000009b939a50919850469750309650945092509050565b60008281526009602052604081206109059083610f4a565b9392505050565b60606004805461050590611bd2565b600a5461092781610ce6565b6105db8383610eba565b600033610596818585610c87565b600061094a81610ce6565b6105db600a5483610e53565b60008181526009602052604081206104f090610f56565b834211156109aa576040517f62791302000000000000000000000000000000000000000000000000000000008152600481018590526024016106c3565b60007f6e71edae12b1b97f4d1f60370fef10105fa2faae0126114a169c64845d6126c98888886109f78c6001600160a01b0316600090815260076020526040902080546001810190915590565b6040805160208101969096526001600160a01b0394851690860152929091166060840152608083015260a082015260c0810186905260e0016040516020818303038152906040528051906020012090506000610a5282610f60565b90506000610a6282878787610fa8565b9050896001600160a01b0316816001600160a01b031614610ac2576040517f4b800e460000000000000000000000000000000000000000000000000000000081526001600160a01b0380831660048301528b1660248201526044016106c3565b610acd8a8a8a610be9565b50505050505050505050565b600082815260086020526040902060010154610af481610ce6565b6106058383610e53565b60006001600160a01b0383163014610b4d576040517fb5a7db920000000000000000000000000000000000000000000000000000000081526001600160a01b03841660048201526024016106c3565b6000610905565b600a5460009081526008602090815260408083206001600160a01b038516845290915281205460ff166104f0565b60006001600160e01b031982167f7965db0b0000000000000000000000000000000000000000000000000000000014806104f057507f01ffc9a7000000000000000000000000000000000000000000000000000000006001600160e01b03198316146104f0565b6105db8383836001610fd6565b6001600160a01b0383811660009081526001602090815260408083209386168352929052205460001981146106055781811015610c78576040517ffb8f41b20000000000000000000000000000000000000000000000000000000081526001600160a01b038416600482015260248101829052604481018390526064016106c3565b61060584848484036000610fd6565b6001600160a01b038316610cb157604051634b637e8f60e11b8152600060048201526024016106c3565b6001600160a01b038216610cdb5760405163ec442f0560e01b8152600060048201526024016106c3565b6105db8383836110dd565b610cf08133611220565b50565b600080610d00848461128e565b90508015610905576000848152600960205260409020610d20908461133c565b509392505050565b6000306001600160a01b037f000000000000000000000000000000000000000000000000000000000000000016148015610d8157507f000000000000000000000000000000000000000000000000000000000000000046145b15610dab57507f000000000000000000000000000000000000000000000000000000000000000090565b610615604080517f8b73c3c69bb8fe3d512ecc4cf759cc79239f7b179b0ffacaa9a75d522b39400f60208201527f0000000000000000000000000000000000000000000000000000000000000000918101919091527f000000000000000000000000000000000000000000000000000000000000000060608201524660808201523060a082015260009060c00160405160208183030381529060405280519060200120905090565b600080610e608484611351565b90508015610905576000848152600960205260409020610d2090846113d8565b6001600160a01b038216610eaa5760405163ec442f0560e01b8152600060048201526024016106c3565b610eb6600083836110dd565b5050565b6001600160a01b038216610ee457604051634b637e8f60e11b8152600060048201526024016106c3565b610eb6826000836110dd565b60606106157f000000000000000000000000000000000000000000000000000000000000000060056113ed565b60606106157f000000000000000000000000000000000000000000000000000000000000000060066113ed565b60006109058383611498565b60006104f0825490565b60006104f0610f6d610d28565b836040517f19010000000000000000000000000000000000000000000000000000000000008152600281019290925260228201526042902090565b600080600080610fba888888886114c2565b925092509250610fca8282611591565b50909695505050505050565b6001600160a01b038416611019576040517fe602df05000000000000000000000000000000000000000000000000000000008152600060048201526024016106c3565b6001600160a01b03831661105c576040517f94280d62000000000000000000000000000000000000000000000000000000008152600060048201526024016106c3565b6001600160a01b038085166000908152600160209081526040808320938716835292905220829055801561060557826001600160a01b0316846001600160a01b03167f8c5be1e5ebec7d5bd14f71427d1e84f3dd0314c0f7b2291e5b200ac8c7c3b925846040516110cf91815260200190565b60405180910390a350505050565b6001600160a01b0383166111085780600260008282546110fd9190611c96565b909155506111939050565b6001600160a01b03831660009081526020819052604090205481811015611174576040517fe450d38c0000000000000000000000000000000000000000000000000000000081526001600160a01b038516600482015260248101829052604481018390526064016106c3565b6001600160a01b03841660009081526020819052604090209082900390555b6001600160a01b0382166111af576002805482900390556111ce565b6001600160a01b03821660009081526020819052604090208054820190555b816001600160a01b0316836001600160a01b03167fddf252ad1be2c89b69c2b068fc378daa952ba7f163c4a11628f55a4df523b3ef8360405161121391815260200190565b60405180910390a3505050565b60008281526008602090815260408083206001600160a01b038516845290915290205460ff16610eb6576040517fe2517d3f0000000000000000000000000000000000000000000000000000000081526001600160a01b0382166004820152602481018390526044016106c3565b60008281526008602090815260408083206001600160a01b038516845290915281205460ff166113345760008381526008602090815260408083206001600160a01b03861684529091529020805460ff191660011790556112ec3390565b6001600160a01b0316826001600160a01b0316847f2f8788117e7eff1d82e926ec794901d17c78024a50270940304540a733656f0d60405160405180910390a45060016104f0565b5060006104f0565b6000610905836001600160a01b038416611695565b60008281526008602090815260408083206001600160a01b038516845290915281205460ff16156113345760008381526008602090815260408083206001600160a01b0386168085529252808320805460ff1916905551339286917ff6391f5c32d9c69d2a47ea670b442974b53935d1edc7fd64eb21e047a839171b9190a45060016104f0565b6000610905836001600160a01b0384166116dc565b606060ff831461140757611400836117cf565b90506104f0565b81805461141390611bd2565b80601f016020809104026020016040519081016040528092919081815260200182805461143f90611bd2565b801561148c5780601f106114615761010080835404028352916020019161148c565b820191906000526020600020905b81548152906001019060200180831161146f57829003601f168201915b505050505090506104f0565b60008260000182815481106114af576114af611cbc565b9060005260206000200154905092915050565b600080807f7fffffffffffffffffffffffffffffff5d576e7357a4501ddfe92f46681b20a08411156114fd5750600091506003905082611587565b604080516000808252602082018084528a905260ff891692820192909252606081018790526080810186905260019060a0016020604051602081039080840390855afa158015611551573d6000803e3d6000fd5b5050604051601f1901519150506001600160a01b03811661157d57506000925060019150829050611587565b9250600091508190505b9450945094915050565b60008260038111156115a5576115a5611cd2565b036115ae575050565b60018260038111156115c2576115c2611cd2565b036115f9576040517ff645eedf00000000000000000000000000000000000000000000000000000000815260040160405180910390fd5b600282600381111561160d5761160d611cd2565b03611647576040517ffce698f7000000000000000000000000000000000000000000000000000000008152600481018290526024016106c3565b600382600381111561165b5761165b611cd2565b03610eb6576040517fd78bce0c000000000000000000000000000000000000000000000000000000008152600481018290526024016106c3565b6000818152600183016020526040812054611334575081546001818101845560008481526020808220909301849055845484825282860190935260409020919091556104f0565b600081815260018301602052604081205480156117c5576000611700600183611ca9565b855490915060009061171490600190611ca9565b905080821461177957600086600001828154811061173457611734611cbc565b906000526020600020015490508087600001848154811061175757611757611cbc565b6000918252602080832090910192909255918252600188019052604090208390555b855486908061178a5761178a611ce8565b6001900381819060005260206000200160009055905585600101600086815260200190815260200160002060009055600193505050506104f0565b60009150506104f0565b606060006117dc8361180e565b604080516020808252818301909252919250600091906020820181803683375050509182525060208101929092525090565b600060ff8216601f8111156104f0576040517fb3512b0c00000000000000000000000000000000000000000000000000000000815260040160405180910390fd5b60006020828403121561186157600080fd5b81356001600160e01b03198116811461090557600080fd5b6000815180845260005b8181101561189f57602081850181015186830182015201611883565b506000602082860101526020601f19601f83011685010191505092915050565b6020815260006109056020830184611879565b6001600160a01b0381168114610cf057600080fd5b600080604083850312156118fa57600080fd5b8235611905816118d2565b946020939093013593505050565b60008060006060848603121561192857600080fd5b8335611933816118d2565b92506020840135611943816118d2565b929592945050506040919091013590565b60006020828403121561196657600080fd5b5035919050565b60006020828403121561197f57600080fd5b8135610905816118d2565b6000806040838503121561199d57600080fd5b8235915060208301356119af816118d2565b809150509250929050565b6000806000806000608086880312156119d257600080fd5b85356119dd816118d2565b945060208601356119ed816118d2565b935060408601359250606086013567ffffffffffffffff80821115611a1157600080fd5b818801915088601f830112611a2557600080fd5b813581811115611a3457600080fd5b896020828501011115611a4657600080fd5b9699959850939650602001949392505050565b7fff00000000000000000000000000000000000000000000000000000000000000881681526000602060e081840152611a9560e084018a611879565b8381036040850152611aa7818a611879565b606085018990526001600160a01b038816608086015260a0850187905284810360c0860152855180825283870192509083019060005b81811015611af957835183529284019291840191600101611add565b50909c9b505050505050505050505050565b60008060408385031215611b1e57600080fd5b50508035926020909101359150565b600080600080600080600060e0888a031215611b4857600080fd5b8735611b53816118d2565b96506020880135611b63816118d2565b95506040880135945060608801359350608088013560ff81168114611b8757600080fd5b9699959850939692959460a0840135945060c09093013592915050565b60008060408385031215611bb757600080fd5b8235611bc2816118d2565b915060208301356119af816118d2565b600181811c90821680611be657607f821691505b602082108103611c0657634e487b7160e01b600052602260045260246000fd5b50919050565b60006001600160a01b03808916835280881660208401525085604083015284606083015260a060808301528260a0830152828460c0840137600060c0848401015260c0601f19601f8501168301019050979650505050505050565b600060208284031215611c7957600080fd5b5051919050565b634e487b7160e01b600052601160045260246000fd5b808201808211156104f0576104f0611c80565b818103818111156104f0576104f0611c80565b634e487b7160e01b600052603260045260246000fd5b634e487b7160e01b600052602160045260246000fd5b634e487b7160e01b600052603160045260246000fdfea2646970667358221220e79698479828f715989af26ad1584892402edf7b4a6a93d55106f2461194b30c64736f6c63430008150033",
  "devdoc": {
    "author": "maha.xyz",
    "errors": {
      "AccessControlBadConfirmation()": [
        {
          "details": "The caller of a function is not the expected one. NOTE: Don't confuse with {AccessControlUnauthorizedAccount}."
        }
      ],
      "AccessControlUnauthorizedAccount(address,bytes32)": [
        {
          "details": "The `account` is missing a role."
        }
      ],
      "ECDSAInvalidSignature()": [
        {
          "details": "The signature derives the `address(0)`."
        }
      ],
      "ECDSAInvalidSignatureLength(uint256)": [
        {
          "details": "The signature has an invalid length."
        }
      ],
      "ECDSAInvalidSignatureS(bytes32)": [
        {
          "details": "The signature has an S value that is in the upper half order."
        }
      ],
      "ERC20InsufficientAllowance(address,uint256,uint256)": [
        {
          "details": "Indicates a failure with the `spender`s `allowance`. Used in transfers.",
          "params": {
            "allowance": "Amount of tokens a `spender` is allowed to operate with.",
            "needed": "Minimum amount required to perform a transfer.",
            "spender": "Address that may be allowed to operate on tokens without being their owner."
          }
        }
      ],
      "ERC20InsufficientBalance(address,uint256,uint256)": [
        {
          "details": "Indicates an error related to the current `balance` of a `sender`. Used in transfers.",
          "params": {
            "balance": "Current balance for the interacting account.",
            "needed": "Minimum amount required to perform a transfer.",
            "sender": "Address whose tokens are being transferred."
          }
        }
      ],
      "ERC20InvalidApprover(address)": [
        {
          "details": "Indicates a failure with the `approver` of a token to be approved. Used in approvals.",
          "params": {
            "approver": "Address initiating an approval operation."
          }
        }
      ],
      "ERC20InvalidReceiver(address)": [
        {
          "details": "Indicates a failure with the token `receiver`. Used in transfers.",
          "params": {
            "receiver": "Address to which tokens are being transferred."
          }
        }
      ],
      "ERC20InvalidSender(address)": [
        {
          "details": "Indicates a failure with the token `sender`. Used in transfers.",
          "params": {
            "sender": "Address whose tokens are being transferred."
          }
        }
      ],
      "ERC20InvalidSpender(address)": [
        {
          "details": "Indicates a failure with the `spender` to be approved. Used in approvals.",
          "params": {
            "spender": "Address that may be allowed to operate on tokens without being their owner."
          }
        }
      ],
      "ERC2612ExpiredSignature(uint256)": [
        {
          "details": "Permit deadline has expired."
        }
      ],
      "ERC2612InvalidSigner(address,address)": [
        {
          "details": "Mismatched signature."
        }
      ],
      "ERC3156ExceededMaxLoan(uint256)": [
        {
          "details": "The requested loan exceeds the max loan value for `token`."
        }
      ],
      "ERC3156InvalidReceiver(address)": [
        {
          "details": "The receiver of a flashloan is not a valid {onFlashLoan} implementer."
        }
      ],
      "ERC3156UnsupportedToken(address)": [
        {
          "details": "The loan token is not valid."
        }
      ],
      "InvalidAccountNonce(address,uint256)": [
        {
          "details": "The nonce used for an `account` is not the expected current nonce."
        }
      ]
    },
    "events": {
      "Approval(address,address,uint256)": {
        "details": "Emitted when the allowance of a `spender` for an `owner` is set by a call to {approve}. `value` is the new allowance."
      },
      "EIP712DomainChanged()": {
        "details": "MAY be emitted to signal that the domain could have changed."
      },
      "RoleAdminChanged(bytes32,bytes32,bytes32)": {
        "details": "Emitted when `newAdminRole` is set as ``role``'s admin role, replacing `previousAdminRole` `DEFAULT_ADMIN_ROLE` is the starting admin for all roles, despite {RoleAdminChanged} not being emitted signaling this."
      },
      "RoleGranted(bytes32,address,address)": {
        "details": "Emitted when `account` is granted `role`. `sender` is the account that originated the contract call, an admin role bearer except when using {AccessControl-_setupRole}."
      },
      "RoleRevoked(bytes32,address,address)": {
        "details": "Emitted when `account` is revoked `role`. `sender` is the account that originated the contract call:   - if using `revokeRole`, it is the admin role bearer   - if using `renounceRole`, it is the role bearer (i.e. `account`)"
      },
      "Transfer(address,address,uint256)": {
        "details": "Emitted when `value` tokens are moved from one account (`from`) to another (`to`). Note that `value` may be zero."
      }
    },
    "kind": "dev",
    "methods": {
      "DOMAIN_SEPARATOR()": {
        "details": "Returns the domain separator used in the encoding of the signature for {permit}, as defined by {EIP712}."
      },
      "allowance(address,address)": {
        "details": "See {IERC20-allowance}."
      },
      "approve(address,uint256)": {
        "details": "See {IERC20-approve}. NOTE: If `value` is the maximum `uint256`, the allowance is not updated on `transferFrom`. This is semantically equivalent to an infinite approval. Requirements: - `spender` cannot be the zero address."
      },
      "balanceOf(address)": {
        "details": "See {IERC20-balanceOf}."
      },
      "burn(address,uint256)": {
        "details": "This is only callable by verified managers approved by governance",
        "params": {
          "_account": "The address to burn from",
          "_amount": "The amount to burn"
        }
      },
      "decimals()": {
        "details": "Returns the number of decimals used to get its user representation. For example, if `decimals` equals `2`, a balance of `505` tokens should be displayed to a user as `5.05` (`505 / 10 ** 2`). Tokens usually opt for a value of 18, imitating the relationship between Ether and Wei. This is the default value returned by this function, unless it's overridden. NOTE: This information is only used for _display_ purposes: it in no way affects any of the arithmetic of the contract, including {IERC20-balanceOf} and {IERC20-transfer}."
      },
      "eip712Domain()": {
        "details": "See {IERC-5267}."
      },
      "flashFee(address,uint256)": {
        "details": "Returns the fee applied when doing flash loans. This function calls the {_flashFee} function which returns the fee applied when doing flash loans.",
        "params": {
          "token": "The token to be flash loaned.",
          "value": "The amount of tokens to be loaned."
        },
        "returns": {
          "_0": "The fees applied to the corresponding flash loan."
        }
      },
      "flashLoan(address,address,uint256,bytes)": {
        "details": "Performs a flash loan. New tokens are minted and sent to the `receiver`, who is required to implement the {IERC3156FlashBorrower} interface. By the end of the flash loan, the receiver is expected to own value + fee tokens and have them approved back to the token contract itself so they can be burned.",
        "params": {
          "data": "An arbitrary datafield that is passed to the receiver.",
          "receiver": "The receiver of the flash loan. Should implement the {IERC3156FlashBorrower-onFlashLoan} interface.",
          "token": "The token to be flash loaned. Only `address(this)` is supported.",
          "value": "The amount of tokens to be loaned."
        },
        "returns": {
          "_0": "`true` if the flash loan was successful."
        }
      },
      "getRoleAdmin(bytes32)": {
        "details": "Returns the admin role that controls `role`. See {grantRole} and {revokeRole}. To change a role's admin, use {_setRoleAdmin}."
      },
      "getRoleMember(bytes32,uint256)": {
        "details": "Returns one of the accounts that have `role`. `index` must be a value between 0 and {getRoleMemberCount}, non-inclusive. Role bearers are not sorted in any particular way, and their ordering may change at any point. WARNING: When using {getRoleMember} and {getRoleMemberCount}, make sure you perform all queries on the same block. See the following https://forum.openzeppelin.com/t/iterating-over-elements-on-enumerableset-in-openzeppelin-contracts/2296[forum post] for more information."
      },
      "getRoleMemberCount(bytes32)": {
        "details": "Returns the number of accounts that have `role`. Can be used together with {getRoleMember} to enumerate all bearers of a role."
      },
      "grantManagerRole(address)": {
        "details": "Can only be called by governance",
        "params": {
          "_account": "The account to grant the role to"
        }
      },
      "grantRole(bytes32,address)": {
        "details": "Grants `role` to `account`. If `account` had not been already granted `role`, emits a {RoleGranted} event. Requirements: - the caller must have ``role``'s admin role. May emit a {RoleGranted} event."
      },
      "hasRole(bytes32,address)": {
        "details": "Returns `true` if `account` has been granted `role`."
      },
      "isManager(address)": {
        "params": {
          "_account": "The address to check"
        },
        "returns": {
          "what": "True iff the address is a manager"
        }
      },
      "maxFlashLoan(address)": {
        "details": "Returns the maximum amount of tokens available for loan.",
        "params": {
          "token": "The address of the token that is requested."
        },
        "returns": {
          "_0": "The amount of token that can be loaned. NOTE: This function does not consider any form of supply cap, so in case it's used in a token with a cap like {ERC20Capped}, make sure to override this function to integrate the cap instead of `type(uint256).max`."
        }
      },
      "mint(address,uint256)": {
        "details": "This is only callable by verified managers approved by governance",
        "params": {
          "_account": "The address to mint to",
          "_amount": "The amount to mint"
        }
      },
      "name()": {
        "details": "Returns the name of the token."
      },
      "nonces(address)": {
        "details": "Returns the current nonce for `owner`. This value must be included whenever a signature is generated for {permit}. Every successful call to {permit} increases ``owner``'s nonce by one. This prevents a signature from being used multiple times."
      },
      "permit(address,address,uint256,uint256,uint8,bytes32,bytes32)": {
        "details": "Sets `value` as the allowance of `spender` over ``owner``'s tokens, given ``owner``'s signed approval. IMPORTANT: The same issues {IERC20-approve} has related to transaction ordering also apply here. Emits an {Approval} event. Requirements: - `spender` cannot be the zero address. - `deadline` must be a timestamp in the future. - `v`, `r` and `s` must be a valid `secp256k1` signature from `owner` over the EIP712-formatted function arguments. - the signature must use ``owner``'s current nonce (see {nonces}). For more information on the signature format, see the https://eips.ethereum.org/EIPS/eip-2612#specification[relevant EIP section]. CAUTION: See Security Considerations above."
      },
      "renounceRole(bytes32,address)": {
        "details": "Revokes `role` from the calling account. Roles are often managed via {grantRole} and {revokeRole}: this function's purpose is to provide a mechanism for accounts to lose their privileges if they are compromised (such as when a trusted device is misplaced). If the calling account had been revoked `role`, emits a {RoleRevoked} event. Requirements: - the caller must be `callerConfirmation`. May emit a {RoleRevoked} event."
      },
      "revokeManagerRole(address)": {
        "details": "Can only be called by governance",
        "params": {
          "_account": "The account to revoke the role from"
        }
      },
      "revokeRole(bytes32,address)": {
        "details": "Revokes `role` from `account`. If `account` had been granted `role`, emits a {RoleRevoked} event. Requirements: - the caller must have ``role``'s admin role. May emit a {RoleRevoked} event."
      },
      "supportsInterface(bytes4)": {
        "details": "See {IERC165-supportsInterface}."
      },
      "symbol()": {
        "details": "Returns the symbol of the token, usually a shorter version of the name."
      },
      "totalSupply()": {
        "details": "See {IERC20-totalSupply}."
      },
      "transfer(address,uint256)": {
        "details": "See {IERC20-transfer}. Requirements: - `to` cannot be the zero address. - the caller must have a balance of at least `value`."
      },
      "transferFrom(address,address,uint256)": {
        "details": "See {IERC20-transferFrom}. Emits an {Approval} event indicating the updated allowance. This is not required by the EIP. See the note at the beginning of {ERC20}. NOTE: Does not update the allowance if the current allowance is the maximum `uint256`. Requirements: - `from` and `to` cannot be the zero address. - `from` must have a balance of at least `value`. - the caller must have allowance for ``from``'s tokens of at least `value`."
      }
    },
    "title": "Zai Stablecoin \"USDz\"",
    "version": 1
  },
  "userdoc": {
    "kind": "user",
    "methods": {
      "MANAGER_ROLE()": {
        "notice": "Role for minting/burning ZAI"
      },
      "burn(address,uint256)": {
        "notice": "Used to burn ZAI"
      },
      "constructor": {
        "notice": "Initializes the stablecoin"
      },
      "grantManagerRole(address)": {
        "notice": "Grants the manager role to an account"
      },
      "isManager(address)": {
        "notice": "Checks if an address is an approved manager"
      },
      "mint(address,uint256)": {
        "notice": "Used to mint ZAI"
      },
      "revokeManagerRole(address)": {
        "notice": "Revokes the manager role to an account"
      }
    },
    "notice": "Represents the ZAI stablecoin.",
    "version": 1
  },
  "storageLayout": {
    "storage": [
      {
        "astId": 11241,
        "contract": "contracts/core/ZaiStablecoin.sol:ZaiStablecoin",
        "label": "_balances",
        "offset": 0,
        "slot": "0",
        "type": "t_mapping(t_address,t_uint256)"
      },
      {
        "astId": 11247,
        "contract": "contracts/core/ZaiStablecoin.sol:ZaiStablecoin",
        "label": "_allowances",
        "offset": 0,
        "slot": "1",
        "type": "t_mapping(t_address,t_mapping(t_address,t_uint256))"
      },
      {
        "astId": 11249,
        "contract": "contracts/core/ZaiStablecoin.sol:ZaiStablecoin",
        "label": "_totalSupply",
        "offset": 0,
        "slot": "2",
        "type": "t_uint256"
      },
      {
        "astId": 11251,
        "contract": "contracts/core/ZaiStablecoin.sol:ZaiStablecoin",
        "label": "_name",
        "offset": 0,
        "slot": "3",
        "type": "t_string_storage"
      },
      {
        "astId": 11253,
        "contract": "contracts/core/ZaiStablecoin.sol:ZaiStablecoin",
        "label": "_symbol",
        "offset": 0,
        "slot": "4",
        "type": "t_string_storage"
      },
      {
        "astId": 14189,
        "contract": "contracts/core/ZaiStablecoin.sol:ZaiStablecoin",
        "label": "_nameFallback",
        "offset": 0,
        "slot": "5",
        "type": "t_string_storage"
      },
      {
        "astId": 14191,
        "contract": "contracts/core/ZaiStablecoin.sol:ZaiStablecoin",
        "label": "_versionFallback",
        "offset": 0,
        "slot": "6",
        "type": "t_string_storage"
      },
      {
        "astId": 13099,
        "contract": "contracts/core/ZaiStablecoin.sol:ZaiStablecoin",
        "label": "_nonces",
        "offset": 0,
        "slot": "7",
        "type": "t_mapping(t_address,t_uint256)"
      },
      {
        "astId": 8545,
        "contract": "contracts/core/ZaiStablecoin.sol:ZaiStablecoin",
        "label": "_roles",
        "offset": 0,
        "slot": "8",
        "type": "t_mapping(t_bytes32,t_struct(RoleData)8540_storage)"
      },
      {
        "astId": 9784,
        "contract": "contracts/core/ZaiStablecoin.sol:ZaiStablecoin",
        "label": "_roleMembers",
        "offset": 0,
        "slot": "9",
        "type": "t_mapping(t_bytes32,t_struct(AddressSet)19301_storage)"
      },
      {
        "astId": 19912,
        "contract": "contracts/core/ZaiStablecoin.sol:ZaiStablecoin",
        "label": "MANAGER_ROLE",
        "offset": 0,
        "slot": "10",
        "type": "t_bytes32"
      }
    ],
    "types": {
      "t_address": {
        "encoding": "inplace",
        "label": "address",
        "numberOfBytes": "20"
      },
      "t_array(t_bytes32)dyn_storage": {
        "base": "t_bytes32",
        "encoding": "dynamic_array",
        "label": "bytes32[]",
        "numberOfBytes": "32"
      },
      "t_bool": {
        "encoding": "inplace",
        "label": "bool",
        "numberOfBytes": "1"
      },
      "t_bytes32": {
        "encoding": "inplace",
        "label": "bytes32",
        "numberOfBytes": "32"
      },
      "t_mapping(t_address,t_bool)": {
        "encoding": "mapping",
        "key": "t_address",
        "label": "mapping(address => bool)",
        "numberOfBytes": "32",
        "value": "t_bool"
      },
      "t_mapping(t_address,t_mapping(t_address,t_uint256))": {
        "encoding": "mapping",
        "key": "t_address",
        "label": "mapping(address => mapping(address => uint256))",
        "numberOfBytes": "32",
        "value": "t_mapping(t_address,t_uint256)"
      },
      "t_mapping(t_address,t_uint256)": {
        "encoding": "mapping",
        "key": "t_address",
        "label": "mapping(address => uint256)",
        "numberOfBytes": "32",
        "value": "t_uint256"
      },
      "t_mapping(t_bytes32,t_struct(AddressSet)19301_storage)": {
        "encoding": "mapping",
        "key": "t_bytes32",
        "label": "mapping(bytes32 => struct EnumerableSet.AddressSet)",
        "numberOfBytes": "32",
        "value": "t_struct(AddressSet)19301_storage"
      },
      "t_mapping(t_bytes32,t_struct(RoleData)8540_storage)": {
        "encoding": "mapping",
        "key": "t_bytes32",
        "label": "mapping(bytes32 => struct AccessControl.RoleData)",
        "numberOfBytes": "32",
        "value": "t_struct(RoleData)8540_storage"
      },
      "t_mapping(t_bytes32,t_uint256)": {
        "encoding": "mapping",
        "key": "t_bytes32",
        "label": "mapping(bytes32 => uint256)",
        "numberOfBytes": "32",
        "value": "t_uint256"
      },
      "t_string_storage": {
        "encoding": "bytes",
        "label": "string",
        "numberOfBytes": "32"
      },
      "t_struct(AddressSet)19301_storage": {
        "encoding": "inplace",
        "label": "struct EnumerableSet.AddressSet",
        "members": [
          {
            "astId": 19300,
            "contract": "contracts/core/ZaiStablecoin.sol:ZaiStablecoin",
            "label": "_inner",
            "offset": 0,
            "slot": "0",
            "type": "t_struct(Set)18986_storage"
          }
        ],
        "numberOfBytes": "64"
      },
      "t_struct(RoleData)8540_storage": {
        "encoding": "inplace",
        "label": "struct AccessControl.RoleData",
        "members": [
          {
            "astId": 8537,
            "contract": "contracts/core/ZaiStablecoin.sol:ZaiStablecoin",
            "label": "hasRole",
            "offset": 0,
            "slot": "0",
            "type": "t_mapping(t_address,t_bool)"
          },
          {
            "astId": 8539,
            "contract": "contracts/core/ZaiStablecoin.sol:ZaiStablecoin",
            "label": "adminRole",
            "offset": 0,
            "slot": "1",
            "type": "t_bytes32"
          }
        ],
        "numberOfBytes": "64"
      },
      "t_struct(Set)18986_storage": {
        "encoding": "inplace",
        "label": "struct EnumerableSet.Set",
        "members": [
          {
            "astId": 18981,
            "contract": "contracts/core/ZaiStablecoin.sol:ZaiStablecoin",
            "label": "_values",
            "offset": 0,
            "slot": "0",
            "type": "t_array(t_bytes32)dyn_storage"
          },
          {
            "astId": 18985,
            "contract": "contracts/core/ZaiStablecoin.sol:ZaiStablecoin",
            "label": "_positions",
            "offset": 0,
            "slot": "1",
            "type": "t_mapping(t_bytes32,t_uint256)"
          }
        ],
        "numberOfBytes": "64"
      },
      "t_uint256": {
        "encoding": "inplace",
        "label": "uint256",
        "numberOfBytes": "32"
      }
    }
  }
}