{
  "address": "0x69E4C22105EE356bd1f57F40dF29129748544704",
  "abi": [
    {
      "inputs": [
        {
          "internalType": "address",
          "name": "_staking",
          "type": "address"
        },
        {
          "internalType": "address",
          "name": "_psm",
          "type": "address"
        },
        {
          "internalType": "address",
          "name": "_router",
          "type": "address"
        }
      ],
      "stateMutability": "nonpayable",
      "type": "constructor"
    },
    {
      "inputs": [],
      "name": "CollateralTransferFailed",
      "type": "error"
    },
    {
      "inputs": [],
      "name": "OdosSwapFailed",
      "type": "error"
    },
    {
      "inputs": [],
      "name": "ZaiTransferFailed",
      "type": "error"
    },
    {
      "anonymous": false,
      "inputs": [
        {
          "indexed": true,
          "internalType": "address",
          "name": "user",
          "type": "address"
        },
        {
          "indexed": true,
          "internalType": "uint256",
          "name": "collateralAmount",
          "type": "uint256"
        },
        {
          "indexed": true,
          "internalType": "uint256",
          "name": "zaiAmount",
          "type": "uint256"
        },
        {
          "indexed": false,
          "internalType": "uint256",
          "name": "newStakedAmount",
          "type": "uint256"
        }
      ],
      "name": "Zapped",
      "type": "event"
    },
    {
      "inputs": [],
      "name": "collateral",
      "outputs": [
        {
          "internalType": "contract IERC20Metadata",
          "name": "",
          "type": "address"
        }
      ],
      "stateMutability": "view",
      "type": "function"
    },
    {
      "inputs": [],
      "name": "decimalOffset",
      "outputs": [
        {
          "internalType": "uint256",
          "name": "",
          "type": "uint256"
        }
      ],
      "stateMutability": "view",
      "type": "function"
    },
    {
      "inputs": [],
      "name": "pool",
      "outputs": [
        {
          "internalType": "contract ICurveStableSwapNG",
          "name": "",
          "type": "address"
        }
      ],
      "stateMutability": "view",
      "type": "function"
    },
    {
      "inputs": [],
      "name": "psm",
      "outputs": [
        {
          "internalType": "contract IPegStabilityModule",
          "name": "",
          "type": "address"
        }
      ],
      "stateMutability": "view",
      "type": "function"
    },
    {
      "inputs": [],
      "name": "router",
      "outputs": [
        {
          "internalType": "contract ICurveRouter",
          "name": "",
          "type": "address"
        }
      ],
      "stateMutability": "view",
      "type": "function"
    },
    {
      "inputs": [],
      "name": "staking",
      "outputs": [
        {
          "internalType": "contract IERC4626",
          "name": "",
          "type": "address"
        }
      ],
      "stateMutability": "view",
      "type": "function"
    },
    {
      "inputs": [],
      "name": "sweep",
      "outputs": [],
      "stateMutability": "nonpayable",
      "type": "function"
    },
    {
      "inputs": [],
      "name": "zai",
      "outputs": [
        {
          "internalType": "contract IERC20Metadata",
          "name": "",
          "type": "address"
        }
      ],
      "stateMutability": "view",
      "type": "function"
    },
    {
      "inputs": [
        {
          "internalType": "uint256",
          "name": "collateralAmount",
          "type": "uint256"
        },
        {
          "internalType": "uint256",
          "name": "minLpAmount",
          "type": "uint256"
        }
      ],
      "name": "zapIntoLP",
      "outputs": [],
      "stateMutability": "nonpayable",
      "type": "function"
    },
    {
      "inputs": [
        {
          "internalType": "uint256",
          "name": "zaiAmount",
          "type": "uint256"
        },
        {
          "internalType": "uint256",
          "name": "collateralAmount",
          "type": "uint256"
        },
        {
          "internalType": "uint256",
          "name": "minLpAmount",
          "type": "uint256"
        }
      ],
      "name": "zapWithZaiIntoLP",
      "outputs": [],
      "stateMutability": "nonpayable",
      "type": "function"
    }
  ],
  "transactionHash": "0x25d4a64256200662c37cad0edac167d6b03170f97afd0eced2696a76256ad289",
  "args": [
    "0x0992C8F1CE767A3015Fb255881C716575cBFe6F3",
    "0x569CF49beDDFA221deD68aF7819A3014491b883d",
    "0x5153c753BFaf3dFFaB76004Ed004c79714f5aA78"
  ],
  "numDeployments": 1,
  "solcInputHash": "bf587503504f04f1a1890cac65205583",
  "bytecode": "0x60806040523480156200001157600080fd5b5060405162001376380380620013768339810160408190526200003491620004a5565b600080546001600160a01b038086166001600160a01b03199283168117909355600580548683169084161790556002805491851691909216179055604080516338d52e0f60e01b815290516338d52e0f916004808201926020929091908290030181865afa158015620000ab573d6000803e3d6000fd5b505050506040513d601f19601f82011682018060405250810190620000d19190620004f9565b600180546001600160a01b0319166001600160a01b03928316179055600554604080516301c502cd60e21b8152905191909216916307140b3491600480830192602092919082900301816000875af115801562000132573d6000803e3d6000fd5b505050506040513d601f19601f82011682018060405250810190620001589190620004f9565b600380546001600160a01b0319166001600160a01b039283161790556005546040805163d8dfeb4560e01b81529051919092169163d8dfeb4591600480830192602092919082900301816000875af1158015620001b9573d6000803e3d6000fd5b505050506040513d601f19601f82011682018060405250810190620001df9190620004f9565b600480546001600160a01b0319166001600160a01b039290921691821781556040805163313ce56760e01b8152905163313ce567928281019260209291908290030181865afa15801562000237573d6000803e3d6000fd5b505050506040513d601f19601f820116820180604052508101906200025d919062000520565b6200026a9060126200055b565b6200027790600a6200067a565b60065560035460405163095ea7b360e01b81526001600160a01b03838116600483015260001960248301529091169063095ea7b3906044016020604051808303816000875af1158015620002cf573d6000803e3d6000fd5b505050506040513d601f19601f82011682018060405250810190620002f591906200068b565b506004805460405163095ea7b360e01b81526001600160a01b0384811693820193909352600019602482015291169063095ea7b3906044016020604051808303816000875af11580156200034d573d6000803e3d6000fd5b505050506040513d601f19601f820116820180604052508101906200037391906200068b565b506004805460055460405163095ea7b360e01b81526001600160a01b03918216938101939093526000196024840152169063095ea7b3906044016020604051808303816000875af1158015620003cd573d6000803e3d6000fd5b505050506040513d601f19601f82011682018060405250810190620003f391906200068b565b5060015460405163095ea7b360e01b81526001600160a01b03858116600483015260001960248301529091169063095ea7b3906044016020604051808303816000875af115801562000449573d6000803e3d6000fd5b505050506040513d601f19601f820116820180604052508101906200046f91906200068b565b5050600780546001600160a01b0319163017905550620006af9050565b6001600160a01b0381168114620004a257600080fd5b50565b600080600060608486031215620004bb57600080fd5b8351620004c8816200048c565b6020850151909350620004db816200048c565b6040850151909250620004ee816200048c565b809150509250925092565b6000602082840312156200050c57600080fd5b815162000519816200048c565b9392505050565b6000602082840312156200053357600080fd5b815160ff811681146200051957600080fd5b634e487b7160e01b600052601160045260246000fd5b60ff828116828216039081111562000577576200057762000545565b92915050565b600181815b80851115620005be578160001904821115620005a257620005a262000545565b80851615620005b057918102915b93841c939080029062000582565b509250929050565b600082620005d75750600162000577565b81620005e65750600062000577565b8160018114620005ff57600281146200060a576200062a565b600191505062000577565b60ff8411156200061e576200061e62000545565b50506001821b62000577565b5060208310610133831016604e8410600b84101617156200064f575081810a62000577565b6200065b83836200057d565b806000190482111562000672576200067262000545565b029392505050565b60006200051960ff841683620005c6565b6000602082840312156200069e57600080fd5b815180151581146200051957600080fd5b610cb780620006bf6000396000f3fe608060405234801561001057600080fd5b50600436106100be5760003560e01c806352d8e34f11610076578063d8dfeb451161005b578063d8dfeb4514610160578063f887ea4014610173578063fbbe5a331461018657600080fd5b806352d8e34f14610136578063d1b39ae51461014957600080fd5b806316f0115b116100a757806316f0115b1461010657806335faa416146101195780634cf088d91461012357600080fd5b806304bda262146100c357806307140b34146100f3575b600080fd5b6005546100d6906001600160a01b031681565b6040516001600160a01b0390911681526020015b60405180910390f35b6003546100d6906001600160a01b031681565b6001546100d6906001600160a01b031681565b610121610199565b005b6000546100d6906001600160a01b031681565b610121610144366004610aeb565b6103f2565b61015260065481565b6040519081526020016100ea565b6004546100d6906001600160a01b031681565b6002546100d6906001600160a01b031681565b610121610194366004610b17565b61079d565b6003546040516370a0823160e01b81523060048201526000916001600160a01b0316906370a0823190602401602060405180830381865afa1580156101e2573d6000803e3d6000fd5b505050506040513d601f19601f820116820180604052508101906102069190610b39565b600480546040516370a0823160e01b815230928101929092529192506000916001600160a01b0316906370a0823190602401602060405180830381865afa158015610255573d6000803e3d6000fd5b505050506040513d601f19601f820116820180604052508101906102799190610b39565b90506000821180156102fd575060035460405163a9059cbb60e01b8152336004820152602481018490526001600160a01b039091169063a9059cbb906044016020604051808303816000875af11580156102d7573d6000803e3d6000fd5b505050506040513d601f19601f820116820180604052508101906102fb9190610b52565b155b15610334576040517f61a6da1b00000000000000000000000000000000000000000000000000000000815260040160405180910390fd5b6000811180156103b757506004805460405163a9059cbb60e01b81523392810192909252602482018390526001600160a01b03169063a9059cbb906044016020604051808303816000875af1158015610391573d6000803e3d6000fd5b505050506040513d601f19601f820116820180604052508101906103b59190610b52565b155b156103ee576040517f4161287400000000000000000000000000000000000000000000000000000000815260040160405180910390fd5b5050565b8215610479576003546007546040516323b872dd60e01b81523360048201526001600160a01b039182166024820152604481018690529116906323b872dd906064016020604051808303816000875af1158015610453573d6000803e3d6000fd5b505050506040513d601f19601f820116820180604052508101906104779190610b52565b505b811561050257600480546007546040516323b872dd60e01b815233938101939093526001600160a01b0390811660248401526044830185905216906323b872dd906064016020604051808303816000875af11580156104dc573d6000803e3d6000fd5b505050506040513d601f19601f820116820180604052508101906105009190610b52565b505b604080516002808252606082018352600092602083019080368337019050509050838160008151811061053757610537610b7b565b602002602001018181525050828160018151811061055757610557610b7b565b60209081029190910101526001546040517fa7256d090000000000000000000000000000000000000000000000000000000081526001600160a01b039091169063a7256d09906105af90849086903090600401610b91565b6020604051808303816000875af11580156105ce573d6000803e3d6000fd5b505050506040513d601f19601f820116820180604052508101906105f29190610b39565b506000546001546040516370a0823160e01b81523060048201526001600160a01b0392831692636e553f659216906370a0823190602401602060405180830381865afa158015610646573d6000803e3d6000fd5b505050506040513d601f19601f8201168201806040525081019061066a9190610b39565b6040517fffffffff0000000000000000000000000000000000000000000000000000000060e084901b16815260048101919091523360248201526044016020604051808303816000875af11580156106c6573d6000803e3d6000fd5b505050506040513d601f19601f820116820180604052508101906106ea9190610b39565b506106f3610199565b6001546040516370a0823160e01b81523360048201819052869286927f8254cb1554a3a4f342e4d6bc29ea29f483d72ec4183e94e4a83410c93af84341916001600160a01b0316906370a08231906024015b602060405180830381865afa158015610762573d6000803e3d6000fd5b505050506040513d601f19601f820116820180604052508101906107869190610b39565b60405190815260200160405180910390a450505050565b600480546007546040516323b872dd60e01b815233938101939093526001600160a01b0390811660248401526044830185905216906323b872dd906064016020604051808303816000875af11580156107fa573d6000803e3d6000fd5b505050506040513d601f19601f8201168201806040525081019061081e9190610b52565b5060006002600654846108319190610bec565b61083b9190610c17565b6005546040517f40c10f19000000000000000000000000000000000000000000000000000000008152306004820152602481018390529192506001600160a01b0316906340c10f1990604401600060405180830381600087803b1580156108a157600080fd5b505af11580156108b5573d6000803e3d6000fd5b505050506108c1610acd565b8181526108cf600285610c17565b81600260200201526002546001546040517fa31851790000000000000000000000000000000000000000000000000000000081526001600160a01b039283169263a3185179926109289291169085908890600401610c39565b6020604051808303816000875af1158015610947573d6000803e3d6000fd5b505050506040513d601f19601f8201168201806040525081019061096b9190610b39565b506000546001546040516370a0823160e01b81523060048201526001600160a01b0392831692636e553f659216906370a0823190602401602060405180830381865afa1580156109bf573d6000803e3d6000fd5b505050506040513d601f19601f820116820180604052508101906109e39190610b39565b6040517fffffffff0000000000000000000000000000000000000000000000000000000060e084901b16815260048101919091523360248201526044016020604051808303816000875af1158015610a3f573d6000803e3d6000fd5b505050506040513d601f19601f82011682018060405250810190610a639190610b39565b50610a6c610199565b81610a78600286610c17565b6001546040516370a0823160e01b81523360048201819052917f8254cb1554a3a4f342e4d6bc29ea29f483d72ec4183e94e4a83410c93af84341916001600160a01b03909116906370a0823190602401610745565b60405180606001604052806003906020820280368337509192915050565b600080600060608486031215610b0057600080fd5b505081359360208301359350604090920135919050565b60008060408385031215610b2a57600080fd5b50508035926020909101359150565b600060208284031215610b4b57600080fd5b5051919050565b600060208284031215610b6457600080fd5b81518015158114610b7457600080fd5b9392505050565b634e487b7160e01b600052603260045260246000fd5b606080825284519082018190526000906020906080840190828801845b82811015610bca57815184529284019290840190600101610bae565b50505090830194909452506001600160a01b0391909116604090910152919050565b8082028115828204841417610c1157634e487b7160e01b600052601160045260246000fd5b92915050565b600082610c3457634e487b7160e01b600052601260045260246000fd5b500490565b6001600160a01b038416815260a0810160208083018560005b6003811015610c6f57815183529183019190830190600101610c52565b5050505082608083015294935050505056fea26469706673582212207d4faeff6b8ce54060a228166e6a264a630c66b2722e4677afe78d5682d7d46f64736f6c63430008150033",
  "devdoc": {
    "details": "This contract allows users to perform a Zap operation by swapping collateral for zai tokens, adding liquidity to curve LP, and staking the LP tokens.",
    "kind": "dev",
    "methods": {
      "constructor": {
        "details": "Initializes the contract with the required contracts"
      },
      "zapIntoLP(uint256,uint256)": {
        "details": "This function is used when the user only has collateral tokens.",
        "params": {
          "collateralAmount": "The amount of collateral to zap",
          "minLpAmount": "The minimum amount of LP tokens to stake"
        }
      },
      "zapWithZaiIntoLP(uint256,uint256,uint256)": {
        "details": "This function is used when the user already has ZAI tokens.",
        "params": {
          "collateralAmount": "The amount of collateral to zap",
          "minLpAmount": "The minimum amount of LP tokens to stake",
          "zaiAmount": "The amount of ZAI to zap"
        }
      }
    },
    "title": "ZapCurvePool",
    "version": 1
  },
  "userdoc": {
    "kind": "user",
    "methods": {
      "zapIntoLP(uint256,uint256)": {
        "notice": "Zaps collateral into ZAI LP tokens"
      },
      "zapWithZaiIntoLP(uint256,uint256,uint256)": {
        "notice": "Zaps ZAI and collateral into LP tokens"
      }
    },
    "version": 1
  },
  "storageLayout": {
    "storage": [
      {
        "astId": 29084,
        "contract": "contracts/periphery/zaps/ZapCurvePool.sol:ZapCurvePool",
        "label": "staking",
        "offset": 0,
        "slot": "0",
        "type": "t_contract(IERC4626)8628"
      },
      {
        "astId": 29087,
        "contract": "contracts/periphery/zaps/ZapCurvePool.sol:ZapCurvePool",
        "label": "pool",
        "offset": 0,
        "slot": "1",
        "type": "t_contract(ICurveStableSwapNG)27978"
      },
      {
        "astId": 29090,
        "contract": "contracts/periphery/zaps/ZapCurvePool.sol:ZapCurvePool",
        "label": "router",
        "offset": 0,
        "slot": "2",
        "type": "t_contract(ICurveRouter)29080"
      },
      {
        "astId": 29093,
        "contract": "contracts/periphery/zaps/ZapCurvePool.sol:ZapCurvePool",
        "label": "zai",
        "offset": 0,
        "slot": "3",
        "type": "t_contract(IERC20Metadata)10836"
      },
      {
        "astId": 29096,
        "contract": "contracts/periphery/zaps/ZapCurvePool.sol:ZapCurvePool",
        "label": "collateral",
        "offset": 0,
        "slot": "4",
        "type": "t_contract(IERC20Metadata)10836"
      },
      {
        "astId": 29099,
        "contract": "contracts/periphery/zaps/ZapCurvePool.sol:ZapCurvePool",
        "label": "psm",
        "offset": 0,
        "slot": "5",
        "type": "t_contract(IPegStabilityModule)27143"
      },
      {
        "astId": 29101,
        "contract": "contracts/periphery/zaps/ZapCurvePool.sol:ZapCurvePool",
        "label": "decimalOffset",
        "offset": 0,
        "slot": "6",
        "type": "t_uint256"
      },
      {
        "astId": 29103,
        "contract": "contracts/periphery/zaps/ZapCurvePool.sol:ZapCurvePool",
        "label": "me",
        "offset": 0,
        "slot": "7",
        "type": "t_address"
      }
    ],
    "types": {
      "t_address": {
        "encoding": "inplace",
        "label": "address",
        "numberOfBytes": "20"
      },
      "t_contract(ICurveRouter)29080": {
        "encoding": "inplace",
        "label": "contract ICurveRouter",
        "numberOfBytes": "20"
      },
      "t_contract(ICurveStableSwapNG)27978": {
        "encoding": "inplace",
        "label": "contract ICurveStableSwapNG",
        "numberOfBytes": "20"
      },
      "t_contract(IERC20Metadata)10836": {
        "encoding": "inplace",
        "label": "contract IERC20Metadata",
        "numberOfBytes": "20"
      },
      "t_contract(IERC4626)8628": {
        "encoding": "inplace",
        "label": "contract IERC4626",
        "numberOfBytes": "20"
      },
      "t_contract(IPegStabilityModule)27143": {
        "encoding": "inplace",
        "label": "contract IPegStabilityModule",
        "numberOfBytes": "20"
      },
      "t_uint256": {
        "encoding": "inplace",
        "label": "uint256",
        "numberOfBytes": "32"
      }
    }
  }
}