{
  "address": "0xba10F6C121aC62e7E8a6E257bbbaCde75ff6E965",
  "abi": [
    {
      "inputs": [
        {
          "internalType": "address",
          "name": "_safetyPool",
          "type": "address"
        },
        {
          "internalType": "address",
          "name": "_zai",
          "type": "address"
        }
      ],
      "stateMutability": "nonpayable",
      "type": "constructor"
    },
    {
      "inputs": [
        {
          "internalType": "address",
          "name": "target",
          "type": "address"
        }
      ],
      "name": "AddressEmptyCode",
      "type": "error"
    },
    {
      "inputs": [
        {
          "internalType": "address",
          "name": "account",
          "type": "address"
        }
      ],
      "name": "AddressInsufficientBalance",
      "type": "error"
    },
    {
      "inputs": [],
      "name": "FailedInnerCall",
      "type": "error"
    },
    {
      "inputs": [
        {
          "internalType": "address",
          "name": "token",
          "type": "address"
        }
      ],
      "name": "SafeERC20FailedOperation",
      "type": "error"
    },
    {
      "inputs": [],
      "name": "TokenTransferFailed",
      "type": "error"
    },
    {
      "inputs": [],
      "name": "ZaiTransferFailed",
      "type": "error"
    },
    {
      "inputs": [],
      "name": "safetyPool",
      "outputs": [
        {
          "internalType": "contract IERC4626",
          "name": "",
          "type": "address"
        }
      ],
      "stateMutability": "view",
      "type": "function"
    },
    {
      "inputs": [
        {
          "internalType": "contract IERC20",
          "name": "token",
          "type": "address"
        }
      ],
      "name": "sweep",
      "outputs": [],
      "stateMutability": "nonpayable",
      "type": "function"
    },
    {
      "inputs": [],
      "name": "zai",
      "outputs": [
        {
          "internalType": "contract IERC20",
          "name": "",
          "type": "address"
        }
      ],
      "stateMutability": "view",
      "type": "function"
    },
    {
      "inputs": [
        {
          "internalType": "contract IPegStabilityModule",
          "name": "psm",
          "type": "address"
        },
        {
          "internalType": "uint256",
          "name": "amountIn",
          "type": "uint256"
        }
      ],
      "name": "zapIntoSafetyPool",
      "outputs": [],
      "stateMutability": "nonpayable",
      "type": "function"
    }
  ],
  "transactionHash": "0xe6009b04dc3b4e344e33be5323a99e9815b244dae77262918921a9185f8f6961",
  "args": [
    "0xbBB0E456D90eBE5223814cFDb89e6CAB3B2b11c5",
    "0x84E89EBb20737b06933805ff72FAC6DabD1d5f72"
  ],
  "numDeployments": 1,
  "solcInputHash": "64f784480fc78f9da321666fdabf82a4",
  "bytecode": "0x608060405234801561001057600080fd5b50604051610ac3380380610ac383398101604081905261002f916100f7565b600080546001600160a01b038481166001600160a01b03199283168117909355600180549185169183168217905560028054909216301790915560405163095ea7b360e01b8152600481019290925260001960248301529063095ea7b3906044016020604051808303816000875af11580156100af573d6000803e3d6000fd5b505050506040513d601f19601f820116820180604052508101906100d3919061012a565b505050610153565b80516001600160a01b03811681146100f257600080fd5b919050565b6000806040838503121561010a57600080fd5b610113836100db565b9150610121602084016100db565b90509250929050565b60006020828403121561013c57600080fd5b8151801515811461014c57600080fd5b9392505050565b610961806101626000396000f3fe608060405234801561001057600080fd5b506004361061004c5760003560e01c806301681a621461005157806307140b341461006657806354ff486514610095578063913e2c79146100a8575b600080fd5b61006461005f36600461085b565b6100bb565b005b600154610079906001600160a01b031681565b6040516001600160a01b03909116815260200160405180910390f35b6100646100a3366004610878565b61030b565b600054610079906001600160a01b031681565b6001546040516370a0823160e01b81523060048201526000916001600160a01b0316906370a0823190602401602060405180830381865afa158015610104573d6000803e3d6000fd5b505050506040513d601f19601f8201168201806040525081019061012891906108a4565b6040516370a0823160e01b81523060048201529091506000906001600160a01b038416906370a0823190602401602060405180830381865afa158015610172573d6000803e3d6000fd5b505050506040513d601f19601f8201168201806040525081019061019691906108a4565b905060008211801561021a575060015460405163a9059cbb60e01b8152336004820152602481018490526001600160a01b039091169063a9059cbb906044016020604051808303816000875af11580156101f4573d6000803e3d6000fd5b505050506040513d601f19601f8201168201806040525081019061021891906108bd565b155b15610251576040517f61a6da1b00000000000000000000000000000000000000000000000000000000815260040160405180910390fd5b6000811180156102cf575060405163a9059cbb60e01b8152336004820152602481018290526001600160a01b0384169063a9059cbb906044016020604051808303816000875af11580156102a9573d6000803e3d6000fd5b505050506040513d601f19601f820116820180604052508101906102cd91906108bd565b155b15610306576040517f045c4b0200000000000000000000000000000000000000000000000000000000815260040160405180910390fd5b505050565b6040517f1f80b95a000000000000000000000000000000000000000000000000000000008152600481018290526000906001600160a01b03841690631f80b95a90602401602060405180830381865afa15801561036c573d6000803e3d6000fd5b505050506040513d601f19601f8201168201806040525081019061039091906108a4565b90506000836001600160a01b031663d8dfeb456040518163ffffffff1660e01b81526004016020604051808303816000875af11580156103d4573d6000803e3d6000fd5b505050506040513d601f19601f820116820180604052508101906103f891906108df565b600254909150610417906001600160a01b0380841691339116866105c1565b6040517f095ea7b30000000000000000000000000000000000000000000000000000000081526001600160a01b0385811660048301526024820185905282169063095ea7b3906044016020604051808303816000875af115801561047f573d6000803e3d6000fd5b505050506040513d601f19601f820116820180604052508101906104a391906108bd565b506002546040517f40c10f190000000000000000000000000000000000000000000000000000000081526001600160a01b03918216600482015260248101849052908516906340c10f1990604401600060405180830381600087803b15801561050b57600080fd5b505af115801561051f573d6000803e3d6000fd5b50506000546040517f6e553f65000000000000000000000000000000000000000000000000000000008152600481018690523360248201526001600160a01b039091169250636e553f6591506044016020604051808303816000875af115801561058d573d6000803e3d6000fd5b505050506040513d601f19601f820116820180604052508101906105b191906108a4565b506105bb816100bb565b50505050565b604080516001600160a01b038581166024830152848116604483015260648083018590528351808403909101815260849092019092526020810180517bffffffffffffffffffffffffffffffffffffffffffffffffffffffff167f23b872dd000000000000000000000000000000000000000000000000000000001790526105bb91869190600090610655908416836106c1565b9050805160001415801561067a57508080602001905181019061067891906108bd565b155b15610306576040517f5274afe70000000000000000000000000000000000000000000000000000000081526001600160a01b03841660048201526024015b60405180910390fd5b60606106cf838360006106d6565b9392505050565b606081471015610714576040517fcd7860590000000000000000000000000000000000000000000000000000000081523060048201526024016106b8565b600080856001600160a01b0316848660405161073091906108fc565b60006040518083038185875af1925050503d806000811461076d576040519150601f19603f3d011682016040523d82523d6000602084013e610772565b606091505b509150915061078286838361078c565b9695505050505050565b6060826107a15761079c82610801565b6106cf565b81511580156107b857506001600160a01b0384163b155b156107fa576040517f9996b3150000000000000000000000000000000000000000000000000000000081526001600160a01b03851660048201526024016106b8565b50806106cf565b8051156108115780518082602001fd5b6040517f1425ea4200000000000000000000000000000000000000000000000000000000815260040160405180910390fd5b50565b6001600160a01b038116811461084357600080fd5b60006020828403121561086d57600080fd5b81356106cf81610846565b6000806040838503121561088b57600080fd5b823561089681610846565b946020939093013593505050565b6000602082840312156108b657600080fd5b5051919050565b6000602082840312156108cf57600080fd5b815180151581146106cf57600080fd5b6000602082840312156108f157600080fd5b81516106cf81610846565b6000825160005b8181101561091d5760208186018101518583015201610903565b50600092019182525091905056fea2646970667358221220820e08af5e036730c98175b0a979d5e268221b0e2aecccb92128ad54219eb65d64736f6c63430008150033",
  "devdoc": {
    "details": "This contract allows users to directly stake into the safety pool",
    "errors": {
      "AddressEmptyCode(address)": [
        {
          "details": "There's no code at `target` (it is not a contract)."
        }
      ],
      "AddressInsufficientBalance(address)": [
        {
          "details": "The ETH balance of the account is not enough to perform the operation."
        }
      ],
      "FailedInnerCall()": [
        {
          "details": "A call to an address target failed. The target may have reverted."
        }
      ],
      "SafeERC20FailedOperation(address)": [
        {
          "details": "An operation with an ERC20 token failed."
        }
      ]
    },
    "kind": "dev",
    "methods": {
      "constructor": {
        "details": "Initializes the contract with the required contracts"
      },
      "zapIntoSafetyPool(address,uint256)": {
        "params": {
          "amountIn": "The amount to zap",
          "psm": "The Peg Stability Module for the asset"
        }
      }
    },
    "stateVariables": {
      "me": {
        "details": "The address of this contract"
      }
    },
    "title": "ZapSafetyPool",
    "version": 1
  },
  "userdoc": {
    "kind": "user",
    "methods": {
      "safetyPool()": {
        "notice": "The safety pool contract"
      },
      "zai()": {
        "notice": "The ZAI stablecoin"
      },
      "zapIntoSafetyPool(address,uint256)": {
        "notice": "Allows a user to zap into the safety pool"
      }
    },
    "version": 1
  },
  "storageLayout": {
    "storage": [
      {
        "astId": 31115,
        "contract": "contracts/periphery/zaps/ZapSafetyPool.sol:ZapSafetyPool",
        "label": "safetyPool",
        "offset": 0,
        "slot": "0",
        "type": "t_contract(IERC4626)12253"
      },
      {
        "astId": 31119,
        "contract": "contracts/periphery/zaps/ZapSafetyPool.sol:ZapSafetyPool",
        "label": "zai",
        "offset": 0,
        "slot": "1",
        "type": "t_contract(IERC20)13991"
      },
      {
        "astId": 31122,
        "contract": "contracts/periphery/zaps/ZapSafetyPool.sol:ZapSafetyPool",
        "label": "me",
        "offset": 0,
        "slot": "2",
        "type": "t_address"
      }
    ],
    "types": {
      "t_address": {
        "encoding": "inplace",
        "label": "address",
        "numberOfBytes": "20"
      },
      "t_contract(IERC20)13991": {
        "encoding": "inplace",
        "label": "contract IERC20",
        "numberOfBytes": "20"
      },
      "t_contract(IERC4626)12253": {
        "encoding": "inplace",
        "label": "contract IERC4626",
        "numberOfBytes": "20"
      }
    }
  }
}