{
  "address": "0xe182070CC7365B0BAd06b190044823E8bC7f13b8",
  "abi": [
    {
      "anonymous": false,
      "inputs": [
        {
          "indexed": false,
          "internalType": "address",
          "name": "addr",
          "type": "address"
        }
      ],
      "name": "Deploy",
      "type": "event"
    },
    {
      "inputs": [
        {
          "internalType": "bytes",
          "name": "bytecode",
          "type": "bytes"
        },
        {
          "internalType": "uint256",
          "name": "_salt",
          "type": "uint256"
        }
      ],
      "name": "deploy",
      "outputs": [],
      "stateMutability": "nonpayable",
      "type": "function"
    },
    {
      "inputs": [
        {
          "internalType": "bytes",
          "name": "bytecode",
          "type": "bytes"
        },
        {
          "internalType": "uint256",
          "name": "_salt",
          "type": "uint256"
        },
        {
          "internalType": "address",
          "name": "target",
          "type": "address"
        }
      ],
      "name": "deployWithAssert",
      "outputs": [],
      "stateMutability": "nonpayable",
      "type": "function"
    }
  ],
  "transactionHash": "0xe7df7fbd2ead57757eb3ba87c2dfc11bcd458836211280a006b1ad14d77ef9d6",
  "args": [],
  "numDeployments": 1,
  "solcInputHash": "7fdb9bfbfc540d627f9c36968933994c",
  "bytecode": "0x608060405234801561001057600080fd5b506102fd806100206000396000f3fe608060405234801561001057600080fd5b50600436106100365760003560e01c806337a43add1461003b5780639c4ae2d014610050575b600080fd5b61004e61004936600461021b565b610063565b005b61004e61005e366004610282565b61011e565b6000828451602086016000f59050803b61007c57600080fd5b816001600160a01b0316816001600160a01b0316146100dc5760405162461bcd60e51b815260206004820152601860248201527711195c1b1bde595c8e881253959053125117d5105491d15560421b604482015260640160405180910390fd5b6040516001600160a01b03821681527f55ea6c6b31543d8e2ec6a72f71a79c0f4b72ed0d4757172b043d8f4f4cd848489060200160405180910390a150505050565b6000818351602085016000f59050803b61013757600080fd5b6040516001600160a01b03821681527f55ea6c6b31543d8e2ec6a72f71a79c0f4b72ed0d4757172b043d8f4f4cd848489060200160405180910390a1505050565b634e487b7160e01b600052604160045260246000fd5b600082601f83011261019f57600080fd5b813567ffffffffffffffff808211156101ba576101ba610178565b604051601f8301601f19908116603f011681019082821181831017156101e2576101e2610178565b816040528381528660208588010111156101fb57600080fd5b836020870160208301376000602085830101528094505050505092915050565b60008060006060848603121561023057600080fd5b833567ffffffffffffffff81111561024757600080fd5b6102538682870161018e565b9350506020840135915060408401356001600160a01b038116811461027757600080fd5b809150509250925092565b6000806040838503121561029557600080fd5b823567ffffffffffffffff8111156102ac57600080fd5b6102b88582860161018e565b9560209490940135945050505056fea2646970667358221220ca045847760f901631d09db0cc4a571bedd853b378359b50b13fc62d60c255e064736f6c63430008150033",
  "devdoc": {
    "kind": "dev",
    "methods": {},
    "version": 1
  },
  "userdoc": {
    "kind": "user",
    "methods": {},
    "version": 1
  },
  "storageLayout": {
    "storage": [],
    "types": null
  }
}