{
  "address": "0xF6D3F800623f932004B096E480A4A183cbaf6a9f",
  "abi": [
    {
      "inputs": [
        {
          "internalType": "address",
          "name": "_old",
          "type": "address"
        },
        {
          "internalType": "address",
          "name": "_zai",
          "type": "address"
        }
      ],
      "stateMutability": "nonpayable",
      "type": "constructor"
    },
    {
      "inputs": [
        {
          "internalType": "uint256",
          "name": "amount",
          "type": "uint256"
        }
      ],
      "name": "migrate",
      "outputs": [],
      "stateMutability": "nonpayable",
      "type": "function"
    },
    {
      "inputs": [],
      "name": "old",
      "outputs": [
        {
          "internalType": "contract IERC20",
          "name": "",
          "type": "address"
        }
      ],
      "stateMutability": "view",
      "type": "function"
    },
    {
      "inputs": [],
      "name": "zai",
      "outputs": [
        {
          "internalType": "contract IERC20",
          "name": "",
          "type": "address"
        }
      ],
      "stateMutability": "view",
      "type": "function"
    }
  ],
  "transactionHash": "0x590ba067152a214371c6262274746a0b07a095f71f179dd423da0a2c227ee019",
  "args": [
    "0x69000405f9dce69bd4cbf4f2865b79144a69bfe0",
    "0x69000dFD5025E82f48Eb28325A2B88a241182CEd"
  ],
  "numDeployments": 1,
  "solcInputHash": "7dd21d2f7424db6d5b1fc667d59ecac8",
  "bytecode": "0x608060405234801561001057600080fd5b5060405161033038038061033083398101604081905261002f9161007c565b600080546001600160a01b039384166001600160a01b031991821617909155600180549290931691161790556100af565b80516001600160a01b038116811461007757600080fd5b919050565b6000806040838503121561008f57600080fd5b61009883610060565b91506100a660208401610060565b90509250929050565b610272806100be6000396000f3fe608060405234801561001057600080fd5b50600436106100415760003560e01c806307140b3414610046578063454b060814610075578063b83f86631461008a575b600080fd5b600154610059906001600160a01b031681565b6040516001600160a01b03909116815260200160405180910390f35b6100886100833660046101d1565b61009d565b005b600054610059906001600160a01b031681565b6000546040516323b872dd60e01b8152336004820152306024820152604481018390526001600160a01b03909116906323b872dd906064016020604051808303816000875af11580156100f4573d6000803e3d6000fd5b505050506040513d601f19601f8201168201806040525081019061011891906101ea565b61013d5760405162461bcd60e51b815260040161013490610213565b60405180910390fd5b60015460405163a9059cbb60e01b8152336004820152602481018390526001600160a01b039091169063a9059cbb906044016020604051808303816000875af115801561018e573d6000803e3d6000fd5b505050506040513d601f19601f820116820180604052508101906101b291906101ea565b6101ce5760405162461bcd60e51b815260040161013490610213565b50565b6000602082840312156101e357600080fd5b5035919050565b6000602082840312156101fc57600080fd5b8151801515811461020c57600080fd5b9392505050565b6020808252600f908201526e151c985b9cd9995c8819985a5b1959608a1b60408201526060019056fea264697066735822122070a07e593ef53a377f241e940d9a84bed7099b3b377cf88aa1319f0300d892fd64736f6c63430008150033",
  "devdoc": {
    "kind": "dev",
    "methods": {},
    "version": 1
  },
  "userdoc": {
    "kind": "user",
    "methods": {},
    "version": 1
  },
  "storageLayout": {
    "storage": [
      {
        "astId": 39836,
        "contract": "contracts/periphery/UsdzMigrator.sol:UsdzMigrator",
        "label": "old",
        "offset": 0,
        "slot": "0",
        "type": "t_contract(IERC20)15836"
      },
      {
        "astId": 39839,
        "contract": "contracts/periphery/UsdzMigrator.sol:UsdzMigrator",
        "label": "zai",
        "offset": 0,
        "slot": "1",
        "type": "t_contract(IERC20)15836"
      }
    ],
    "types": {
      "t_contract(IERC20)15836": {
        "encoding": "inplace",
        "label": "contract IERC20",
        "numberOfBytes": "20"
      }
    }
  }
}