{
  "address": "0x945fFE2cfc7ED7219d78718F320e3685d86e50bf",
  "abi": [
    {
      "inputs": [
        {
          "internalType": "address",
          "name": "user",
          "type": "address"
        },
        {
          "internalType": "address",
          "name": "token",
          "type": "address"
        }
      ],
      "name": "balanceOf",
      "outputs": [
        {
          "internalType": "uint256",
          "name": "",
          "type": "uint256"
        }
      ],
      "stateMutability": "view",
      "type": "function"
    },
    {
      "inputs": [
        {
          "internalType": "address[]",
          "name": "users",
          "type": "address[]"
        },
        {
          "internalType": "address[]",
          "name": "targets",
          "type": "address[]"
        },
        {
          "internalType": "address[]",
          "name": "tokens",
          "type": "address[]"
        }
      ],
      "name": "batchAllowancesOf",
      "outputs": [
        {
          "internalType": "uint256[]",
          "name": "allowances",
          "type": "uint256[]"
        }
      ],
      "stateMutability": "view",
      "type": "function"
    },
    {
      "inputs": [
        {
          "internalType": "address[]",
          "name": "users",
          "type": "address[]"
        },
        {
          "internalType": "address[]",
          "name": "tokens",
          "type": "address[]"
        }
      ],
      "name": "batchBalanceOfCross",
      "outputs": [
        {
          "internalType": "uint256[]",
          "name": "balances",
          "type": "uint256[]"
        }
      ],
      "stateMutability": "view",
      "type": "function"
    },
    {
      "inputs": [
        {
          "internalType": "address[]",
          "name": "users",
          "type": "address[]"
        },
        {
          "internalType": "address[]",
          "name": "tokens",
          "type": "address[]"
        }
      ],
      "name": "batchBalanceOfSingle",
      "outputs": [
        {
          "internalType": "uint256[]",
          "name": "balances",
          "type": "uint256[]"
        }
      ],
      "stateMutability": "view",
      "type": "function"
    },
    {
      "inputs": [
        {
          "internalType": "address[]",
          "name": "tokens",
          "type": "address[]"
        },
        {
          "internalType": "address[]",
          "name": "chainlinkOracles",
          "type": "address[]"
        }
      ],
      "name": "batchDetailsOf",
      "outputs": [
        {
          "internalType": "string[]",
          "name": "names",
          "type": "string[]"
        },
        {
          "internalType": "string[]",
          "name": "symbols",
          "type": "string[]"
        },
        {
          "internalType": "uint8[]",
          "name": "decimals",
          "type": "uint8[]"
        },
        {
          "internalType": "uint256[]",
          "name": "totalSupplies",
          "type": "uint256[]"
        },
        {
          "internalType": "int256[]",
          "name": "prices",
          "type": "int256[]"
        }
      ],
      "stateMutability": "view",
      "type": "function"
    }
  ],
  "transactionHash": "0x7169b117ccc78fd5c79a135aeb76a28005e7bdab8c0776ea1ca0c870aadf00d7",
  "args": [],
  "numDeployments": 1,
  "solcInputHash": "e1a076f7db38716ca65ab5f37f4c965f",
  "bytecode": "0x608060405234801561001057600080fd5b5061105d806100206000396000f3fe608060405234801561001057600080fd5b50600436106100575760003560e01c80636c611b881461005c57806386a3d5d4146100855780639e10ae2414610098578063ccb84b90146100bc578063f7888aec146100cf575b600080fd5b61006f61006a366004610bab565b6100f0565b60405161007c9190610c51565b60405180910390f35b61006f610093366004610bab565b610205565b6100ab6100a6366004610bab565b6102c1565b60405161007c959493929190610cf8565b61006f6100ca366004610db0565b61094f565b6100e26100dd366004610e65565b610acc565b60405190815260200161007c565b60606100fc8285610eae565b6001600160401b0381111561011357610113610ec5565b60405190808252806020026020018201604052801561013c578160200160208202803683370190505b50905060005b848110156101fc5760005b838110156101e9576101a687878481811061016a5761016a610edb565b905060200201602081019061017f9190610ef1565b86868481811061019157610191610edb565b90506020020160208101906100dd9190610ef1565b83826101b28786610eae565b6101bc9190610f0c565b815181106101cc576101cc610edb565b6020908102919091010152806101e181610f1f565b91505061014d565b50806101f481610f1f565b915050610142565b50949350505050565b6060836001600160401b0381111561021f5761021f610ec5565b604051908082528060200260200182016040528015610248578160200160208202803683370190505b50905060005b848110156101fc5761029286868381811061026b5761026b610edb565b90506020020160208101906102809190610ef1565b85858481811061019157610191610edb565b8282815181106102a4576102a4610edb565b6020908102919091010152806102b981610f1f565b91505061024e565b606080808080876001600160401b038111156102df576102df610ec5565b60405190808252806020026020018201604052801561031257816020015b60608152602001906001900390816102fd5790505b509450876001600160401b0381111561032d5761032d610ec5565b60405190808252806020026020018201604052801561036057816020015b606081526020019060019003908161034b5790505b509350876001600160401b0381111561037b5761037b610ec5565b6040519080825280602002602001820160405280156103a4578160200160208202803683370190505b509250876001600160401b038111156103bf576103bf610ec5565b6040519080825280602002602001820160405280156103e8578160200160208202803683370190505b509050876001600160401b0381111561040357610403610ec5565b60405190808252806020026020018201604052801561042c578160200160208202803683370190505b50915060005b888110156109435760008a8a8381811061044e5761044e610edb565b90506020020160208101906104639190610ef1565b6001600160a01b0316036105e45760405180604001604052806008815260200167457468657265756d60c01b8152508682815181106104a4576104a4610edb565b60200260200101819052506040518060400160405280600381526020016208aa8960eb1b8152508582815181106104dd576104dd610edb565b602002602001018190525060128482815181106104fc576104fc610edb565b602002602001019060ff16908160ff168152505069152d02c7e14af680000083828151811061052d5761052d610edb565b60200260200101818152505087878281811061054b5761054b610edb565b90506020020160208101906105609190610ef1565b6001600160a01b03166350d25bcd6040518163ffffffff1660e01b8152600401602060405180830381865afa15801561059d573d6000803e3d6000fd5b505050506040513d601f19601f820116820180604052508101906105c19190610f38565b8282815181106105d3576105d3610edb565b602002602001018181525050610931565b8989828181106105f6576105f6610edb565b905060200201602081019061060b9190610ef1565b6001600160a01b03166306fdde036040518163ffffffff1660e01b8152600401600060405180830381865afa158015610648573d6000803e3d6000fd5b505050506040513d6000823e601f3d908101601f191682016040526106709190810190610f51565b86828151811061068257610682610edb565b602002602001018190525089898281811061069f5761069f610edb565b90506020020160208101906106b49190610ef1565b6001600160a01b03166395d89b416040518163ffffffff1660e01b8152600401600060405180830381865afa1580156106f1573d6000803e3d6000fd5b505050506040513d6000823e601f3d908101601f191682016040526107199190810190610f51565b85828151811061072b5761072b610edb565b602002602001018190525089898281811061074857610748610edb565b905060200201602081019061075d9190610ef1565b6001600160a01b031663313ce5676040518163ffffffff1660e01b8152600401602060405180830381865afa15801561079a573d6000803e3d6000fd5b505050506040513d601f19601f820116820180604052508101906107be9190610ffd565b8482815181106107d0576107d0610edb565b602002602001019060ff16908160ff16815250508989828181106107f6576107f6610edb565b905060200201602081019061080b9190610ef1565b6001600160a01b03166318160ddd6040518163ffffffff1660e01b8152600401602060405180830381865afa158015610848573d6000803e3d6000fd5b505050506040513d601f19601f8201168201806040525081019061086c9190610f38565b83828151811061087e5761087e610edb565b60200260200101818152505087878281811061089c5761089c610edb565b90506020020160208101906108b19190610ef1565b6001600160a01b03166350d25bcd6040518163ffffffff1660e01b8152600401602060405180830381865afa1580156108ee573d6000803e3d6000fd5b505050506040513d601f19601f820116820180604052508101906109129190610f38565b82828151811061092457610924610edb565b6020026020010181815250505b8061093b81610f1f565b915050610432565b50945094509450945094565b6060856001600160401b0381111561096957610969610ec5565b604051908082528060200260200182016040528015610992578160200160208202803683370190505b50905060005b86811015610ac1578383828181106109b2576109b2610edb565b90506020020160208101906109c79190610ef1565b6001600160a01b031663dd62ed3e8989848181106109e7576109e7610edb565b90506020020160208101906109fc9190610ef1565b888885818110610a0e57610a0e610edb565b9050602002016020810190610a239190610ef1565b6040516001600160e01b031960e085901b1681526001600160a01b03928316600482015291166024820152604401602060405180830381865afa158015610a6e573d6000803e3d6000fd5b505050506040513d601f19601f82011682018060405250810190610a929190610f38565b828281518110610aa457610aa4610edb565b602090810291909101015280610ab981610f1f565b915050610998565b509695505050505050565b60006001600160a01b038216610aed57506001600160a01b03821631610b5a565b6040516370a0823160e01b81526001600160a01b0384811660048301528316906370a0823190602401602060405180830381865afa158015610b33573d6000803e3d6000fd5b505050506040513d601f19601f82011682018060405250810190610b579190610f38565b90505b92915050565b60008083601f840112610b7257600080fd5b5081356001600160401b03811115610b8957600080fd5b6020830191508360208260051b8501011115610ba457600080fd5b9250929050565b60008060008060408587031215610bc157600080fd5b84356001600160401b0380821115610bd857600080fd5b610be488838901610b60565b90965094506020870135915080821115610bfd57600080fd5b50610c0a87828801610b60565b95989497509550505050565b600081518084526020808501945080840160005b83811015610c4657815187529582019590820190600101610c2a565b509495945050505050565b602081526000610b576020830184610c16565b60005b83811015610c7f578181015183820152602001610c67565b50506000910152565b600082825180855260208086019550808260051b84010181860160005b84811015610ceb57601f1980878503018a5282518051808652610ccd81888801898501610c64565b9a86019a601f01909116939093018401925090830190600101610ca5565b5090979650505050505050565b60a081526000610d0b60a0830188610c88565b602083820381850152610d1e8289610c88565b8481036040860152875180825282890193509082019060005b81811015610d5657845160ff1683529383019391830191600101610d37565b50508481036060860152610d6a8188610c16565b858103608087015286518082528388019450908301915060005b81811015610da057845183529383019391830191600101610d84565b50909a9950505050505050505050565b60008060008060008060608789031215610dc957600080fd5b86356001600160401b0380821115610de057600080fd5b610dec8a838b01610b60565b90985096506020890135915080821115610e0557600080fd5b610e118a838b01610b60565b90965094506040890135915080821115610e2a57600080fd5b50610e3789828a01610b60565b979a9699509497509295939492505050565b80356001600160a01b0381168114610e6057600080fd5b919050565b60008060408385031215610e7857600080fd5b610e8183610e49565b9150610e8f60208401610e49565b90509250929050565b634e487b7160e01b600052601160045260246000fd5b8082028115828204841417610b5a57610b5a610e98565b634e487b7160e01b600052604160045260246000fd5b634e487b7160e01b600052603260045260246000fd5b600060208284031215610f0357600080fd5b610b5782610e49565b80820180821115610b5a57610b5a610e98565b600060018201610f3157610f31610e98565b5060010190565b600060208284031215610f4a57600080fd5b5051919050565b600060208284031215610f6357600080fd5b81516001600160401b0380821115610f7a57600080fd5b818401915084601f830112610f8e57600080fd5b815181811115610fa057610fa0610ec5565b604051601f8201601f19908116603f01168101908382118183101715610fc857610fc8610ec5565b81604052828152876020848701011115610fe157600080fd5b610ff2836020830160208801610c64565b979650505050505050565b60006020828403121561100f57600080fd5b815160ff8116811461102057600080fd5b939250505056fea26469706673582212204ff53f12acdca4af2e1dffa7bc6d712e37b7d94d3f0ed97a910778eef1bebad164736f6c63430008150033",
  "devdoc": {
    "kind": "dev",
    "methods": {},
    "version": 1
  },
  "userdoc": {
    "kind": "user",
    "methods": {},
    "version": 1
  },
  "storageLayout": {
    "storage": [],
    "types": null
  }
}