{
  "address": "0x6C194170B621d01e3D35A221180cC2e58B6fB916",
  "abi": [
    {
      "inputs": [
        {
          "internalType": "address",
          "name": "user",
          "type": "address"
        },
        {
          "internalType": "address",
          "name": "token",
          "type": "address"
        }
      ],
      "name": "balanceOf",
      "outputs": [
        {
          "internalType": "uint256",
          "name": "",
          "type": "uint256"
        }
      ],
      "stateMutability": "view",
      "type": "function"
    },
    {
      "inputs": [
        {
          "internalType": "address[]",
          "name": "users",
          "type": "address[]"
        },
        {
          "internalType": "address[]",
          "name": "targets",
          "type": "address[]"
        },
        {
          "internalType": "address[]",
          "name": "tokens",
          "type": "address[]"
        }
      ],
      "name": "batchAllowancesOf",
      "outputs": [
        {
          "internalType": "uint256[]",
          "name": "allowances",
          "type": "uint256[]"
        }
      ],
      "stateMutability": "view",
      "type": "function"
    },
    {
      "inputs": [
        {
          "internalType": "address[]",
          "name": "users",
          "type": "address[]"
        },
        {
          "internalType": "address[]",
          "name": "tokens",
          "type": "address[]"
        }
      ],
      "name": "batchBalanceOfCross",
      "outputs": [
        {
          "internalType": "uint256[]",
          "name": "balances",
          "type": "uint256[]"
        }
      ],
      "stateMutability": "view",
      "type": "function"
    },
    {
      "inputs": [
        {
          "internalType": "address[]",
          "name": "users",
          "type": "address[]"
        },
        {
          "internalType": "address[]",
          "name": "tokens",
          "type": "address[]"
        }
      ],
      "name": "batchBalanceOfSingle",
      "outputs": [
        {
          "internalType": "uint256[]",
          "name": "balances",
          "type": "uint256[]"
        }
      ],
      "stateMutability": "view",
      "type": "function"
    },
    {
      "inputs": [
        {
          "internalType": "address[]",
          "name": "tokens",
          "type": "address[]"
        },
        {
          "internalType": "address[]",
          "name": "chainlinkOracles",
          "type": "address[]"
        }
      ],
      "name": "batchDetailsOf",
      "outputs": [
        {
          "internalType": "string[]",
          "name": "names",
          "type": "string[]"
        },
        {
          "internalType": "string[]",
          "name": "symbols",
          "type": "string[]"
        },
        {
          "internalType": "uint8[]",
          "name": "decimals",
          "type": "uint8[]"
        },
        {
          "internalType": "uint256[]",
          "name": "totalSupplies",
          "type": "uint256[]"
        },
        {
          "internalType": "int256[]",
          "name": "prices",
          "type": "int256[]"
        }
      ],
      "stateMutability": "view",
      "type": "function"
    }
  ],
  "transactionHash": "0x170e1dd97b03c79ba638f2358d71dfea012955d8b3615f0b07ed4450949ee2ff",
  "args": [],
  "numDeployments": 1,
  "solcInputHash": "4890756c7f4f76c3286b545d22120f58",
  "bytecode": "0x608060405234801561001057600080fd5b50610eb1806100206000396000f3fe608060405234801561001057600080fd5b50600436106100575760003560e01c80636c611b881461005c57806386a3d5d4146100855780639e10ae2414610098578063ccb84b90146100bc578063f7888aec146100cf575b600080fd5b61006f61006a3660046109ff565b6100f0565b60405161007c9190610aa5565b60405180910390f35b61006f6100933660046109ff565b610205565b6100ab6100a63660046109ff565b6102c1565b60405161007c959493929190610b4c565b61006f6100ca366004610c04565b6107a3565b6100e26100dd366004610cb9565b610920565b60405190815260200161007c565b60606100fc8285610d02565b6001600160401b0381111561011357610113610d19565b60405190808252806020026020018201604052801561013c578160200160208202803683370190505b50905060005b848110156101fc5760005b838110156101e9576101a687878481811061016a5761016a610d2f565b905060200201602081019061017f9190610d45565b86868481811061019157610191610d2f565b90506020020160208101906100dd9190610d45565b83826101b28786610d02565b6101bc9190610d60565b815181106101cc576101cc610d2f565b6020908102919091010152806101e181610d73565b91505061014d565b50806101f481610d73565b915050610142565b50949350505050565b6060836001600160401b0381111561021f5761021f610d19565b604051908082528060200260200182016040528015610248578160200160208202803683370190505b50905060005b848110156101fc5761029286868381811061026b5761026b610d2f565b90506020020160208101906102809190610d45565b85858481811061019157610191610d2f565b8282815181106102a4576102a4610d2f565b6020908102919091010152806102b981610d73565b91505061024e565b606080808080876001600160401b038111156102df576102df610d19565b60405190808252806020026020018201604052801561031257816020015b60608152602001906001900390816102fd5790505b509450876001600160401b0381111561032d5761032d610d19565b60405190808252806020026020018201604052801561036057816020015b606081526020019060019003908161034b5790505b509350876001600160401b0381111561037b5761037b610d19565b6040519080825280602002602001820160405280156103a4578160200160208202803683370190505b509250876001600160401b038111156103bf576103bf610d19565b6040519080825280602002602001820160405280156103e8578160200160208202803683370190505b509050876001600160401b0381111561040357610403610d19565b60405190808252806020026020018201604052801561042c578160200160208202803683370190505b50915060005b888110156107975789898281811061044c5761044c610d2f565b90506020020160208101906104619190610d45565b6001600160a01b03166306fdde036040518163ffffffff1660e01b8152600401600060405180830381865afa15801561049e573d6000803e3d6000fd5b505050506040513d6000823e601f3d908101601f191682016040526104c69190810190610d8c565b8682815181106104d8576104d8610d2f565b60200260200101819052508989828181106104f5576104f5610d2f565b905060200201602081019061050a9190610d45565b6001600160a01b03166395d89b416040518163ffffffff1660e01b8152600401600060405180830381865afa158015610547573d6000803e3d6000fd5b505050506040513d6000823e601f3d908101601f1916820160405261056f9190810190610d8c565b85828151811061058157610581610d2f565b602002602001018190525089898281811061059e5761059e610d2f565b90506020020160208101906105b39190610d45565b6001600160a01b031663313ce5676040518163ffffffff1660e01b8152600401602060405180830381865afa1580156105f0573d6000803e3d6000fd5b505050506040513d601f19601f820116820180604052508101906106149190610e38565b84828151811061062657610626610d2f565b602002602001019060ff16908160ff168152505089898281811061064c5761064c610d2f565b90506020020160208101906106619190610d45565b6001600160a01b03166318160ddd6040518163ffffffff1660e01b8152600401602060405180830381865afa15801561069e573d6000803e3d6000fd5b505050506040513d601f19601f820116820180604052508101906106c29190610e62565b8382815181106106d4576106d4610d2f565b6020026020010181815250508787828181106106f2576106f2610d2f565b90506020020160208101906107079190610d45565b6001600160a01b03166350d25bcd6040518163ffffffff1660e01b8152600401602060405180830381865afa158015610744573d6000803e3d6000fd5b505050506040513d601f19601f820116820180604052508101906107689190610e62565b82828151811061077a5761077a610d2f565b60209081029190910101528061078f81610d73565b915050610432565b50945094509450945094565b6060856001600160401b038111156107bd576107bd610d19565b6040519080825280602002602001820160405280156107e6578160200160208202803683370190505b50905060005b868110156109155783838281811061080657610806610d2f565b905060200201602081019061081b9190610d45565b6001600160a01b031663dd62ed3e89898481811061083b5761083b610d2f565b90506020020160208101906108509190610d45565b88888581811061086257610862610d2f565b90506020020160208101906108779190610d45565b6040516001600160e01b031960e085901b1681526001600160a01b03928316600482015291166024820152604401602060405180830381865afa1580156108c2573d6000803e3d6000fd5b505050506040513d601f19601f820116820180604052508101906108e69190610e62565b8282815181106108f8576108f8610d2f565b60209081029190910101528061090d81610d73565b9150506107ec565b509695505050505050565b60006001600160a01b03821661094157506001600160a01b038216316109ae565b6040516370a0823160e01b81526001600160a01b0384811660048301528316906370a0823190602401602060405180830381865afa158015610987573d6000803e3d6000fd5b505050506040513d601f19601f820116820180604052508101906109ab9190610e62565b90505b92915050565b60008083601f8401126109c657600080fd5b5081356001600160401b038111156109dd57600080fd5b6020830191508360208260051b85010111156109f857600080fd5b9250929050565b60008060008060408587031215610a1557600080fd5b84356001600160401b0380821115610a2c57600080fd5b610a38888389016109b4565b90965094506020870135915080821115610a5157600080fd5b50610a5e878288016109b4565b95989497509550505050565b600081518084526020808501945080840160005b83811015610a9a57815187529582019590820190600101610a7e565b509495945050505050565b6020815260006109ab6020830184610a6a565b60005b83811015610ad3578181015183820152602001610abb565b50506000910152565b600082825180855260208086019550808260051b84010181860160005b84811015610b3f57601f1980878503018a5282518051808652610b2181888801898501610ab8565b9a86019a601f01909116939093018401925090830190600101610af9565b5090979650505050505050565b60a081526000610b5f60a0830188610adc565b602083820381850152610b728289610adc565b8481036040860152875180825282890193509082019060005b81811015610baa57845160ff1683529383019391830191600101610b8b565b50508481036060860152610bbe8188610a6a565b858103608087015286518082528388019450908301915060005b81811015610bf457845183529383019391830191600101610bd8565b50909a9950505050505050505050565b60008060008060008060608789031215610c1d57600080fd5b86356001600160401b0380821115610c3457600080fd5b610c408a838b016109b4565b90985096506020890135915080821115610c5957600080fd5b610c658a838b016109b4565b90965094506040890135915080821115610c7e57600080fd5b50610c8b89828a016109b4565b979a9699509497509295939492505050565b80356001600160a01b0381168114610cb457600080fd5b919050565b60008060408385031215610ccc57600080fd5b610cd583610c9d565b9150610ce360208401610c9d565b90509250929050565b634e487b7160e01b600052601160045260246000fd5b80820281158282048414176109ae576109ae610cec565b634e487b7160e01b600052604160045260246000fd5b634e487b7160e01b600052603260045260246000fd5b600060208284031215610d5757600080fd5b6109ab82610c9d565b808201808211156109ae576109ae610cec565b600060018201610d8557610d85610cec565b5060010190565b600060208284031215610d9e57600080fd5b81516001600160401b0380821115610db557600080fd5b818401915084601f830112610dc957600080fd5b815181811115610ddb57610ddb610d19565b604051601f8201601f19908116603f01168101908382118183101715610e0357610e03610d19565b81604052828152876020848701011115610e1c57600080fd5b610e2d836020830160208801610ab8565b979650505050505050565b600060208284031215610e4a57600080fd5b815160ff81168114610e5b57600080fd5b9392505050565b600060208284031215610e7457600080fd5b505191905056fea2646970667358221220a46650fac331646d84299d3f8a08032af7c14c8a10cef416b4f1b5f091e37f0164736f6c63430008150033",
  "devdoc": {
    "kind": "dev",
    "methods": {},
    "version": 1
  },
  "userdoc": {
    "kind": "user",
    "methods": {},
    "version": 1
  },
  "storageLayout": {
    "storage": [],
    "types": null
  }
}