{
  "address": "0xb0B57222dB1bAF2E4fE4E865b45054d954EDe37d",
  "abi": [
    {
      "inputs": [],
      "name": "AccessControlBadConfirmation",
      "type": "error"
    },
    {
      "inputs": [
        {
          "internalType": "address",
          "name": "account",
          "type": "address"
        },
        {
          "internalType": "bytes32",
          "name": "neededRole",
          "type": "bytes32"
        }
      ],
      "name": "AccessControlUnauthorizedAccount",
      "type": "error"
    },
    {
      "inputs": [],
      "name": "InvalidInitialization",
      "type": "error"
    },
    {
      "inputs": [
        {
          "internalType": "contract IDDPool",
          "name": "pool",
          "type": "address"
        }
      ],
      "name": "NoOp",
      "type": "error"
    },
    {
      "inputs": [],
      "name": "NotAuthorized",
      "type": "error"
    },
    {
      "inputs": [],
      "name": "NotInitializing",
      "type": "error"
    },
    {
      "inputs": [],
      "name": "ReentrancyGuardReentrantCall",
      "type": "error"
    },
    {
      "anonymous": false,
      "inputs": [
        {
          "indexed": true,
          "internalType": "contract IDDPool",
          "name": "pool",
          "type": "address"
        },
        {
          "indexed": false,
          "internalType": "uint256",
          "name": "amt",
          "type": "uint256"
        }
      ],
      "name": "BurnDebt",
      "type": "event"
    },
    {
      "anonymous": false,
      "inputs": [
        {
          "indexed": true,
          "internalType": "contract IDDPool",
          "name": "pool",
          "type": "address"
        },
        {
          "indexed": false,
          "internalType": "uint256",
          "name": "amt",
          "type": "uint256"
        }
      ],
      "name": "Fees",
      "type": "event"
    },
    {
      "anonymous": false,
      "inputs": [
        {
          "indexed": false,
          "internalType": "uint64",
          "name": "version",
          "type": "uint64"
        }
      ],
      "name": "Initialized",
      "type": "event"
    },
    {
      "anonymous": false,
      "inputs": [
        {
          "indexed": true,
          "internalType": "contract IDDPool",
          "name": "pool",
          "type": "address"
        },
        {
          "indexed": false,
          "internalType": "uint256",
          "name": "amt",
          "type": "uint256"
        }
      ],
      "name": "MintDebt",
      "type": "event"
    },
    {
      "anonymous": false,
      "inputs": [
        {
          "indexed": true,
          "internalType": "contract IDDPool",
          "name": "pool",
          "type": "address"
        },
        {
          "components": [
            {
              "internalType": "contract IDDPlan",
              "name": "plan",
              "type": "address"
            },
            {
              "internalType": "bool",
              "name": "isLive",
              "type": "bool"
            },
            {
              "internalType": "uint256",
              "name": "debt",
              "type": "uint256"
            },
            {
              "internalType": "uint256",
              "name": "debtCeiling",
              "type": "uint256"
            }
          ],
          "indexed": false,
          "internalType": "struct IDDHub.PoolInfo",
          "name": "info",
          "type": "tuple"
        }
      ],
      "name": "PoolInfoUpdated",
      "type": "event"
    },
    {
      "anonymous": false,
      "inputs": [
        {
          "indexed": true,
          "internalType": "bytes32",
          "name": "role",
          "type": "bytes32"
        },
        {
          "indexed": true,
          "internalType": "bytes32",
          "name": "previousAdminRole",
          "type": "bytes32"
        },
        {
          "indexed": true,
          "internalType": "bytes32",
          "name": "newAdminRole",
          "type": "bytes32"
        }
      ],
      "name": "RoleAdminChanged",
      "type": "event"
    },
    {
      "anonymous": false,
      "inputs": [
        {
          "indexed": true,
          "internalType": "bytes32",
          "name": "role",
          "type": "bytes32"
        },
        {
          "indexed": true,
          "internalType": "address",
          "name": "account",
          "type": "address"
        },
        {
          "indexed": true,
          "internalType": "address",
          "name": "sender",
          "type": "address"
        }
      ],
      "name": "RoleGranted",
      "type": "event"
    },
    {
      "anonymous": false,
      "inputs": [
        {
          "indexed": true,
          "internalType": "bytes32",
          "name": "role",
          "type": "bytes32"
        },
        {
          "indexed": true,
          "internalType": "address",
          "name": "account",
          "type": "address"
        },
        {
          "indexed": true,
          "internalType": "address",
          "name": "sender",
          "type": "address"
        }
      ],
      "name": "RoleRevoked",
      "type": "event"
    },
    {
      "inputs": [],
      "name": "DEFAULT_ADMIN_ROLE",
      "outputs": [
        {
          "internalType": "bytes32",
          "name": "",
          "type": "bytes32"
        }
      ],
      "stateMutability": "view",
      "type": "function"
    },
    {
      "inputs": [],
      "name": "EXECUTOR_ROLE",
      "outputs": [
        {
          "internalType": "bytes32",
          "name": "",
          "type": "bytes32"
        }
      ],
      "stateMutability": "view",
      "type": "function"
    },
    {
      "inputs": [],
      "name": "RISK_ROLE",
      "outputs": [
        {
          "internalType": "bytes32",
          "name": "",
          "type": "bytes32"
        }
      ],
      "stateMutability": "view",
      "type": "function"
    },
    {
      "inputs": [
        {
          "internalType": "contract IDDPool",
          "name": "pool",
          "type": "address"
        }
      ],
      "name": "evaluatePoolAction",
      "outputs": [
        {
          "internalType": "uint256",
          "name": "toWithdraw",
          "type": "uint256"
        },
        {
          "internalType": "uint256",
          "name": "toSupply",
          "type": "uint256"
        }
      ],
      "stateMutability": "view",
      "type": "function"
    },
    {
      "inputs": [
        {
          "internalType": "contract IDDPool",
          "name": "pool",
          "type": "address"
        }
      ],
      "name": "exec",
      "outputs": [],
      "stateMutability": "nonpayable",
      "type": "function"
    },
    {
      "inputs": [],
      "name": "feeCollector",
      "outputs": [
        {
          "internalType": "address",
          "name": "",
          "type": "address"
        }
      ],
      "stateMutability": "view",
      "type": "function"
    },
    {
      "inputs": [
        {
          "internalType": "bytes32",
          "name": "role",
          "type": "bytes32"
        }
      ],
      "name": "getRoleAdmin",
      "outputs": [
        {
          "internalType": "bytes32",
          "name": "",
          "type": "bytes32"
        }
      ],
      "stateMutability": "view",
      "type": "function"
    },
    {
      "inputs": [
        {
          "internalType": "bytes32",
          "name": "role",
          "type": "bytes32"
        },
        {
          "internalType": "uint256",
          "name": "index",
          "type": "uint256"
        }
      ],
      "name": "getRoleMember",
      "outputs": [
        {
          "internalType": "address",
          "name": "",
          "type": "address"
        }
      ],
      "stateMutability": "view",
      "type": "function"
    },
    {
      "inputs": [
        {
          "internalType": "bytes32",
          "name": "role",
          "type": "bytes32"
        }
      ],
      "name": "getRoleMemberCount",
      "outputs": [
        {
          "internalType": "uint256",
          "name": "",
          "type": "uint256"
        }
      ],
      "stateMutability": "view",
      "type": "function"
    },
    {
      "inputs": [],
      "name": "globalDebtCeiling",
      "outputs": [
        {
          "internalType": "uint256",
          "name": "",
          "type": "uint256"
        }
      ],
      "stateMutability": "view",
      "type": "function"
    },
    {
      "inputs": [
        {
          "internalType": "bytes32",
          "name": "role",
          "type": "bytes32"
        },
        {
          "internalType": "address",
          "name": "account",
          "type": "address"
        }
      ],
      "name": "grantRole",
      "outputs": [],
      "stateMutability": "nonpayable",
      "type": "function"
    },
    {
      "inputs": [
        {
          "internalType": "bytes32",
          "name": "role",
          "type": "bytes32"
        },
        {
          "internalType": "address",
          "name": "account",
          "type": "address"
        }
      ],
      "name": "hasRole",
      "outputs": [
        {
          "internalType": "bool",
          "name": "",
          "type": "bool"
        }
      ],
      "stateMutability": "view",
      "type": "function"
    },
    {
      "inputs": [
        {
          "internalType": "address",
          "name": "_feeCollector",
          "type": "address"
        },
        {
          "internalType": "uint256",
          "name": "_globalDebtCeiling",
          "type": "uint256"
        },
        {
          "internalType": "address",
          "name": "_zai",
          "type": "address"
        },
        {
          "internalType": "address",
          "name": "_governance",
          "type": "address"
        }
      ],
      "name": "initialize",
      "outputs": [],
      "stateMutability": "nonpayable",
      "type": "function"
    },
    {
      "inputs": [
        {
          "internalType": "address",
          "name": "pool",
          "type": "address"
        }
      ],
      "name": "isPool",
      "outputs": [
        {
          "internalType": "bool",
          "name": "what",
          "type": "bool"
        }
      ],
      "stateMutability": "view",
      "type": "function"
    },
    {
      "inputs": [
        {
          "internalType": "contract IDDPool",
          "name": "pool",
          "type": "address"
        }
      ],
      "name": "poolInfos",
      "outputs": [
        {
          "components": [
            {
              "internalType": "contract IDDPlan",
              "name": "plan",
              "type": "address"
            },
            {
              "internalType": "bool",
              "name": "isLive",
              "type": "bool"
            },
            {
              "internalType": "uint256",
              "name": "debt",
              "type": "uint256"
            },
            {
              "internalType": "uint256",
              "name": "debtCeiling",
              "type": "uint256"
            }
          ],
          "internalType": "struct IDDHub.PoolInfo",
          "name": "info",
          "type": "tuple"
        }
      ],
      "stateMutability": "view",
      "type": "function"
    },
    {
      "inputs": [
        {
          "internalType": "contract IDDPool",
          "name": "pool",
          "type": "address"
        },
        {
          "internalType": "uint256",
          "name": "amountToReduce",
          "type": "uint256"
        }
      ],
      "name": "reduceDebtCeiling",
      "outputs": [],
      "stateMutability": "nonpayable",
      "type": "function"
    },
    {
      "inputs": [
        {
          "internalType": "contract IDDPool",
          "name": "pool",
          "type": "address"
        },
        {
          "internalType": "contract IDDPlan",
          "name": "plan",
          "type": "address"
        },
        {
          "internalType": "uint256",
          "name": "debtCeiling",
          "type": "uint256"
        }
      ],
      "name": "registerPool",
      "outputs": [],
      "stateMutability": "nonpayable",
      "type": "function"
    },
    {
      "inputs": [
        {
          "internalType": "bytes32",
          "name": "role",
          "type": "bytes32"
        },
        {
          "internalType": "address",
          "name": "callerConfirmation",
          "type": "address"
        }
      ],
      "name": "renounceRole",
      "outputs": [],
      "stateMutability": "nonpayable",
      "type": "function"
    },
    {
      "inputs": [
        {
          "internalType": "bytes32",
          "name": "role",
          "type": "bytes32"
        },
        {
          "internalType": "address",
          "name": "account",
          "type": "address"
        }
      ],
      "name": "revokeRole",
      "outputs": [],
      "stateMutability": "nonpayable",
      "type": "function"
    },
    {
      "inputs": [
        {
          "internalType": "contract IDDPool",
          "name": "pool",
          "type": "address"
        },
        {
          "internalType": "uint256",
          "name": "amount",
          "type": "uint256"
        }
      ],
      "name": "setDebtCeiling",
      "outputs": [],
      "stateMutability": "nonpayable",
      "type": "function"
    },
    {
      "inputs": [
        {
          "internalType": "address",
          "name": "who",
          "type": "address"
        }
      ],
      "name": "setFeeCollector",
      "outputs": [],
      "stateMutability": "nonpayable",
      "type": "function"
    },
    {
      "inputs": [
        {
          "internalType": "uint256",
          "name": "amount",
          "type": "uint256"
        }
      ],
      "name": "setGlobalDebtCeiling",
      "outputs": [],
      "stateMutability": "nonpayable",
      "type": "function"
    },
    {
      "inputs": [
        {
          "internalType": "contract IDDPool",
          "name": "pool",
          "type": "address"
        }
      ],
      "name": "shutdownPool",
      "outputs": [],
      "stateMutability": "nonpayable",
      "type": "function"
    },
    {
      "inputs": [
        {
          "internalType": "bytes4",
          "name": "interfaceId",
          "type": "bytes4"
        }
      ],
      "name": "supportsInterface",
      "outputs": [
        {
          "internalType": "bool",
          "name": "",
          "type": "bool"
        }
      ],
      "stateMutability": "view",
      "type": "function"
    },
    {
      "inputs": [
        {
          "internalType": "contract IDDPool",
          "name": "pool",
          "type": "address"
        }
      ],
      "name": "sweepFees",
      "outputs": [],
      "stateMutability": "nonpayable",
      "type": "function"
    },
    {
      "inputs": [],
      "name": "zai",
      "outputs": [
        {
          "internalType": "contract IStablecoin",
          "name": "",
          "type": "address"
        }
      ],
      "stateMutability": "view",
      "type": "function"
    }
  ],
  "transactionHash": "0xdb9e654109e046527fc49e3ec5b92a784e9c051c0f2e99b5c93e632a1830365a",
  "args": [],
  "numDeployments": 1,
  "solcInputHash": "bf587503504f04f1a1890cac65205583",
  "bytecode": "0x608060405234801561001057600080fd5b50612135806100206000396000f3fe608060405234801561001057600080fd5b50600436106101ae5760003560e01c806364b0aa94116100ee578063a217fddf11610097578063c415b95c11610071578063c415b95c146104cd578063c86e7064146104e0578063ca15c873146104e9578063d547741f146104fc57600080fd5b8063a217fddf1461049f578063a42dce80146104a7578063aeb4fcc1146104ba57600080fd5b80638d4b5cd2116100c85780638d4b5cd2146104215780639010d07c1461043457806391d148541461044757600080fd5b806364b0aa94146103e85780636bb6126e146103fb5780638d196e321461040e57600080fd5b80632f2ff15d1161015b57806342340a561161013557806342340a56146102b657806351c157211461037f5780635b16ebb71461039257806361b477c8146103c057600080fd5b80632f2ff15d1461027d578063358394d81461029057806336568abe146102a357600080fd5b80632278c62f1161018c5780632278c62f1461021d578063248a9ca3146102325780632efcc8661461027457600080fd5b806301ffc9a7146101b357806307140b34146101db57806307bd026514610206575b600080fd5b6101c66101c1366004611eb3565b61050f565b60405190151581526020015b60405180910390f35b6000546101ee906001600160a01b031681565b6040516001600160a01b0390911681526020016101d2565b61020f60025481565b6040519081526020016101d2565b61023061022b366004611ef2565b610553565b005b61020f610240366004611f1e565b60009081527f02dd7bc7dec4dceedda775e58dd541e08a116c6c53815c0bd028192f7b626800602052604090206001015490565b61020f60045481565b61023061028b366004611f37565b6105d6565b61023061029e366004611f67565b61061a565b6102306102b1366004611f37565b6107bd565b6103416102c4366004611fba565b604080516080810182526000808252602082018190529181018290526060810191909152506001600160a01b03908116600090815260056020908152604091829020825160808101845281549485168152600160a01b90940460ff1615159184019190915260018101549183019190915260020154606082015290565b6040516101d2919081516001600160a01b03168152602080830151151590820152604080830151908201526060918201519181019190915260800190565b61023061038d366004611fd7565b61080e565b6101c66103a0366004611fba565b6001600160a01b0390811660009081526005602052604090205416151590565b6103d36103ce366004611fba565b6108e9565b604080519283526020830191909152016101d2565b6102306103f6366004611fba565b610c64565b610230610409366004611fba565b610cbd565b61023061041c366004611f1e565b610e70565b61023061042f366004611fba565b610e81565b6101ee610442366004612018565b610e8a565b6101c6610455366004611f37565b60009182527f02dd7bc7dec4dceedda775e58dd541e08a116c6c53815c0bd028192f7b626800602090815260408084206001600160a01b0393909316845291905290205460ff1690565b61020f600081565b6102306104b5366004611fba565b610ecb565b6102306104c8366004611ef2565b610f06565b6003546101ee906001600160a01b031681565b61020f60015481565b61020f6104f7366004611f1e565b610f6a565b61023061050a366004611f37565b610fa9565b60006001600160e01b031982167f5a05180f00000000000000000000000000000000000000000000000000000000148061054d575061054d82610fed565b92915050565b60015461055f81611054565b6001600160a01b03838116600090815260056020908152604091829020825160808101845281549485168152600160a01b90940460ff16151591840191909152600181015491830191909152600201546060820181815284916105c3908390612050565b9052506105d0848261105e565b50505050565b60008281527f02dd7bc7dec4dceedda775e58dd541e08a116c6c53815c0bd028192f7b626800602052604090206001015461061081611054565b6105d0838361113b565b7ff0c57e16840df040f15088dc2f81fe391c3923bec73e23a9662efc9c229c6a0080546001919068010000000000000000900460ff16806106695750805467ffffffffffffffff808416911610155b156106a0576040517ff92ee8a900000000000000000000000000000000000000000000000000000000815260040160405180910390fd5b805468ffffffffffffffffff191667ffffffffffffffff831617680100000000000000001781556106cf611192565b6106d76111a4565b600080546001600160a01b0380871673ffffffffffffffffffffffffffffffffffffffff1992831617835560038054918a169190921617905560048690557fbb4cf8e50e81e9742807782b2bc5c27c5a943f214ee0b993943eff5a774e555b6001557fd8aa0f3194971a2a116679f7c2090f6939c8d4e01a2a8d7e41d55e5351469e63600255610767908461113b565b50805468ff00000000000000001916815560405167ffffffffffffffff831681527fc7f505b2f371ae2175ee4913f4499e1f2633a7b5936321eed1cdaeb6115181d29060200160405180910390a1505050505050565b6001600160a01b03811633146107ff576040517f6697b23200000000000000000000000000000000000000000000000000000000815260040160405180910390fd5b61080982826111ac565b505050565b600061081981611054565b604080516080810182526001600160a01b03851681526001602082015260009181019190915260608101839052610850858261105e565b6000546040517f095ea7b30000000000000000000000000000000000000000000000000000000081526001600160a01b03878116600483015260001960248301529091169063095ea7b3906044016020604051808303816000875af11580156108bd573d6000803e3d6000fd5b505050506040513d601f19601f820116820180604052508101906108e19190612063565b505050505050565b6001600160a01b038181166000818152600560209081526040808320815160808101835281549687168152600160a01b90960460ff16151586840152600181015486830152600201546060860152805163c66f245560e01b815290519294859490938593919263c66f24559260048083019391928290030181865afa158015610976573d6000803e3d6000fd5b505050506040513d601f19601f8201168201806040525081019061099a9190612085565b90506000610a3e866001600160a01b031663ac7a1b5b6040518163ffffffff1660e01b8152600401602060405180830381865afa1580156109df573d6000803e3d6000fd5b505050506040513d601f19601f82011682018060405250810190610a039190612085565b610a396b033b2e3c9fd0803ce80000007f7fffffffffffffffffffffffffffffffffffffffffffffffffffffffffffffff61209e565b6111fa565b905082602001511580610ab4575082600001516001600160a01b03166302fb0c5e6040518163ffffffff1660e01b8152600401602060405180830381865afa158015610a8e573d6000803e3d6000fd5b505050506040513d601f19601f82011682018060405250810190610ab29190612063565b155b15610ac157809450610c5c565b6060830151604080850151855191517f8715d7100000000000000000000000000000000000000000000000000000000081526004810186905290916000916001600160a01b0390911690638715d71090602401602060405180830381865afa158015610b31573d6000803e3d6000fd5b505050506040513d601f19601f82011682018060405250810190610b559190612085565b9050610baf610b97848411610b6b576000610b75565b610b758585612050565b6004548511610b85576000611210565b600454610b929086612050565b611210565b868310610ba5576000611210565b610b928388612050565b97508715610bc857610bc188856111fa565b9750610c58565b610c55610bf3610be9610bdb8587612050565b85600454610a399190612050565b610a398885612050565b8a6001600160a01b0316636083e59a6040518163ffffffff1660e01b8152600401602060405180830381865afa158015610c31573d6000803e3d6000fd5b505050506040513d601f19601f82011682018060405250810190610a399190612085565b96505b5050505b505050915091565b600154610c7081611054565b6001600160a01b038083166000908152600560209081526040808320815160808101835281549095168552600181015491850191909152600201546060840152820152610809838261105e565b610cc561121f565b600254610cd181611054565b6001600160a01b0382811660009081526005602090815260409182902082516080810184528154948516808252600160a01b90950460ff16151592810192909252600181015492820192909252600290910154606082015290610d7b5760405162461bcd60e51b815260206004820152600e60248201527f6e6f74207265676973746572656400000000000000000000000000000000000060448201526064015b60405180910390fd5b826001600160a01b03166387edc58f6040518163ffffffff1660e01b8152600401600060405180830381600087803b158015610db657600080fd5b505af1158015610dca573d6000803e3d6000fd5b505050508060200151610de557610de083611282565b610def565b610def838261140d565b826001600160a01b0316632001fdb76040518163ffffffff1660e01b8152600401600060405180830381600087803b158015610e2a57600080fd5b505af1158015610e3e573d6000803e3d6000fd5b505050505050610e6d60017f9b779b17422d0df92223018b32b4d1fa46e071723d6817e2486d003becc55f0055565b50565b6000610e7b81611054565b50600455565b610e6d81611776565b60008281527fc1f6fe24621ce81ec5827caf0253cadb74709b061630e6b55e82371705932000602081905260408220610ec39084611a9c565b949350505050565b6000610ed681611054565b506003805473ffffffffffffffffffffffffffffffffffffffff19166001600160a01b0392909216919091179055565b6000610f1181611054565b6001600160a01b03838116600090815260056020908152604091829020825160808101845281549485168152600160a01b90940460ff161515918401919091526001015490820152606081018390526105d0848261105e565b60008181527fc1f6fe24621ce81ec5827caf0253cadb74709b061630e6b55e82371705932000602081905260408220610fa290611aa8565b9392505050565b60008281527f02dd7bc7dec4dceedda775e58dd541e08a116c6c53815c0bd028192f7b6268006020526040902060010154610fe381611054565b6105d083836111ac565b60006001600160e01b031982167f7965db0b00000000000000000000000000000000000000000000000000000000148061054d57507f01ffc9a7000000000000000000000000000000000000000000000000000000006001600160e01b031983161461054d565b610e6d8133611ab2565b6001600160a01b0380831660008181526005602090815260409182902085518154928701511515600160a01b027fffffffffffffffffffffff000000000000000000000000000000000000000000909316951694909417178355808401516001840155606084015160029093019290925590517f03b4ea12ab782b897ae8c52030f721ad8e724dede039394307a4676a6ad9c95d9061112f90849081516001600160a01b03168152602080830151151590820152604080830151908201526060918201519181019190915260800190565b60405180910390a25050565b60007fc1f6fe24621ce81ec5827caf0253cadb74709b061630e6b55e82371705932000816111698585611b43565b90508015610ec35760008581526020839052604090206111899085611c12565b50949350505050565b61119a611c27565b6111a2611c8e565b565b6111a2611c27565b60007fc1f6fe24621ce81ec5827caf0253cadb74709b061630e6b55e82371705932000816111da8585611c96565b90508015610ec35760008581526020839052604090206111899085611d3c565b60008183106112095781610fa2565b5090919050565b60008183116112095781610fa2565b7f9b779b17422d0df92223018b32b4d1fa46e071723d6817e2486d003becc55f0080546001190161127c576040517f3ee5aeb500000000000000000000000000000000000000000000000000000000815260040160405180910390fd5b60029055565b6000816001600160a01b031663ac7a1b5b6040518163ffffffff1660e01b8152600401602060405180830381865afa1580156112c2573d6000803e3d6000fd5b505050506040513d601f19601f820116820180604052508101906112e69190612085565b9050806000036113145760405163e391c15b60e01b81526001600160a01b0383166004820152602401610d72565b604051632e1a7d4d60e01b8152600481018290526001600160a01b03831690632e1a7d4d90602401600060405180830381600087803b15801561135657600080fd5b505af115801561136a573d6000803e3d6000fd5b5050600054604051632770a7eb60e21b8152306004820152602481018590526001600160a01b039091169250639dc29fac9150604401600060405180830381600087803b1580156113ba57600080fd5b505af11580156113ce573d6000803e3d6000fd5b50505050816001600160a01b03167f72d913f983c605f91ab3c4901f1bfcd947f7028ec426d14e001468c17721f1ad8260405161112f91815260200190565b61141682611776565b600080611422846108e9565b9092509050811561154857604051632e1a7d4d60e01b8152600481018390526001600160a01b03851690632e1a7d4d90602401600060405180830381600087803b15801561146f57600080fd5b505af1158015611483573d6000803e3d6000fd5b5050505081836040018181516114999190612050565b905250600054604051632770a7eb60e21b8152306004820152602481018490526001600160a01b0390911690639dc29fac90604401600060405180830381600087803b1580156114e857600080fd5b505af11580156114fc573d6000803e3d6000fd5b50505050836001600160a01b03167f72d913f983c605f91ab3c4901f1bfcd947f7028ec426d14e001468c17721f1ad8360405161153b91815260200190565b60405180910390a2611746565b8015611722576115846b033b2e3c9fd0803ce80000007f7fffffffffffffffffffffffffffffffffffffffffffffffffffffffffffffff61209e565b81846040015161159491906120c0565b11156115e25760405162461bcd60e51b815260206004820152601360248201527f44444875622f77696e642d6f766572666c6f77000000000000000000000000006044820152606401610d72565b80836040018181516115f491906120c0565b9052506000546040517f40c10f19000000000000000000000000000000000000000000000000000000008152306004820152602481018390526001600160a01b03909116906340c10f1990604401600060405180830381600087803b15801561165c57600080fd5b505af1158015611670573d6000803e3d6000fd5b50506040517fb6b55f25000000000000000000000000000000000000000000000000000000008152600481018490526001600160a01b038716925063b6b55f259150602401600060405180830381600087803b1580156116cf57600080fd5b505af11580156116e3573d6000803e3d6000fd5b50505050836001600160a01b03167f6a2853f9aa513d38cd986c06b4a8c936f2eea1b2a246c89ad81c546ecf72e0388260405161153b91815260200190565b60405163e391c15b60e01b81526001600160a01b0385166004820152602401610d72565b6105d0848461105e565b60017f9b779b17422d0df92223018b32b4d1fa46e071723d6817e2486d003becc55f0055565b6001600160a01b038181166000818152600560209081526040808320815160808101835281549687168152600160a01b90960460ff16151586840152600181015486830152600201546060860152805163c66f245560e01b8152905192939263c66f2455926004808401939192918290030181865afa1580156117fd573d6000803e3d6000fd5b505050506040513d601f19601f820116820180604052508101906118219190612085565b60408301519091506118348260016120c0565b10156118825760405162461bcd60e51b815260206004820152601860248201527f696e76617269616e742062616c616e6365203e206465627400000000000000006044820152606401610d72565b8160400151811161189257505050565b60008260400151826118a49190612050565b604051632e1a7d4d60e01b8152600481018290529091506001600160a01b03851690632e1a7d4d90602401600060405180830381600087803b1580156118e957600080fd5b505af11580156118fd573d6000803e3d6000fd5b505050506000846001600160a01b031663c66f24556040518163ffffffff1660e01b8152600401602060405180830381865afa158015611941573d6000803e3d6000fd5b505050506040513d601f19601f820116820180604052508101906119659190612085565b90506119718184612050565b82146119bf5760405162461bcd60e51b815260206004820152600e60248201527f696e76617261696e7420666565730000000000000000000000000000000000006044820152606401610d72565b6000546003546040517fa9059cbb0000000000000000000000000000000000000000000000000000000081526001600160a01b0391821660048201526024810185905291169063a9059cbb906044016020604051808303816000875af1158015611a2d573d6000803e3d6000fd5b505050506040513d601f19601f82011682018060405250810190611a519190612063565b50846001600160a01b03167f3ffd609b9b5a2a69ee3777fb7c2198bfcaf6cd5475d9c06bea186ac64afc083183604051611a8d91815260200190565b60405180910390a25050505050565b6000610fa28383611d51565b600061054d825490565b60008281527f02dd7bc7dec4dceedda775e58dd541e08a116c6c53815c0bd028192f7b626800602090815260408083206001600160a01b038516845290915290205460ff16611b3f576040517fe2517d3f0000000000000000000000000000000000000000000000000000000081526001600160a01b038216600482015260248101839052604401610d72565b5050565b60008281527f02dd7bc7dec4dceedda775e58dd541e08a116c6c53815c0bd028192f7b626800602081815260408084206001600160a01b038616855290915282205460ff16611c08576000848152602082815260408083206001600160a01b03871684529091529020805460ff19166001179055611bbe3390565b6001600160a01b0316836001600160a01b0316857f2f8788117e7eff1d82e926ec794901d17c78024a50270940304540a733656f0d60405160405180910390a4600191505061054d565b600091505061054d565b6000610fa2836001600160a01b038416611d7b565b7ff0c57e16840df040f15088dc2f81fe391c3923bec73e23a9662efc9c229c6a005468010000000000000000900460ff166111a2576040517fd7e6bcf800000000000000000000000000000000000000000000000000000000815260040160405180910390fd5b611750611c27565b60008281527f02dd7bc7dec4dceedda775e58dd541e08a116c6c53815c0bd028192f7b626800602081815260408084206001600160a01b038616855290915282205460ff1615611c08576000848152602082815260408083206001600160a01b0387168085529252808320805460ff1916905551339287917ff6391f5c32d9c69d2a47ea670b442974b53935d1edc7fd64eb21e047a839171b9190a4600191505061054d565b6000610fa2836001600160a01b038416611dca565b6000826000018281548110611d6857611d686120d3565b9060005260206000200154905092915050565b6000818152600183016020526040812054611dc25750815460018181018455600084815260208082209093018490558454848252828601909352604090209190915561054d565b50600061054d565b60008181526001830160205260408120548015611c08576000611dee600183612050565b8554909150600090611e0290600190612050565b9050808214611e67576000866000018281548110611e2257611e226120d3565b9060005260206000200154905080876000018481548110611e4557611e456120d3565b6000918252602080832090910192909255918252600188019052604090208390555b8554869080611e7857611e786120e9565b60019003818190600052602060002001600090559055856001016000868152602001908152602001600020600090556001935050505061054d565b600060208284031215611ec557600080fd5b81356001600160e01b031981168114610fa257600080fd5b6001600160a01b0381168114610e6d57600080fd5b60008060408385031215611f0557600080fd5b8235611f1081611edd565b946020939093013593505050565b600060208284031215611f3057600080fd5b5035919050565b60008060408385031215611f4a57600080fd5b823591506020830135611f5c81611edd565b809150509250929050565b60008060008060808587031215611f7d57600080fd5b8435611f8881611edd565b9350602085013592506040850135611f9f81611edd565b91506060850135611faf81611edd565b939692955090935050565b600060208284031215611fcc57600080fd5b8135610fa281611edd565b600080600060608486031215611fec57600080fd5b8335611ff781611edd565b9250602084013561200781611edd565b929592945050506040919091013590565b6000806040838503121561202b57600080fd5b50508035926020909101359150565b634e487b7160e01b600052601160045260246000fd5b8181038181111561054d5761054d61203a565b60006020828403121561207557600080fd5b81518015158114610fa257600080fd5b60006020828403121561209757600080fd5b5051919050565b6000826120bb57634e487b7160e01b600052601260045260246000fd5b500490565b8082018082111561054d5761054d61203a565b634e487b7160e01b600052603260045260246000fd5b634e487b7160e01b600052603160045260246000fdfea26469706673582212202356a7a8db7524a6308a4ffc0d522dea8bc257b9dbbf73408100ddccead41a2564736f6c63430008150033",
  "devdoc": {
    "author": "maha.xyz",
    "details": "Has permissions to mint/burn ZAI",
    "errors": {
      "AccessControlBadConfirmation()": [
        {
          "details": "The caller of a function is not the expected one. NOTE: Don't confuse with {AccessControlUnauthorizedAccount}."
        }
      ],
      "AccessControlUnauthorizedAccount(address,bytes32)": [
        {
          "details": "The `account` is missing a role."
        }
      ],
      "InvalidInitialization()": [
        {
          "details": "The contract is already initialized."
        }
      ],
      "NotInitializing()": [
        {
          "details": "The contract is not initializing."
        }
      ],
      "ReentrancyGuardReentrantCall()": [
        {
          "details": "Unauthorized reentrant call."
        }
      ]
    },
    "events": {
      "Initialized(uint64)": {
        "details": "Triggered when the contract has been initialized or reinitialized."
      },
      "RoleAdminChanged(bytes32,bytes32,bytes32)": {
        "details": "Emitted when `newAdminRole` is set as ``role``'s admin role, replacing `previousAdminRole` `DEFAULT_ADMIN_ROLE` is the starting admin for all roles, despite {RoleAdminChanged} not being emitted signaling this."
      },
      "RoleGranted(bytes32,address,address)": {
        "details": "Emitted when `account` is granted `role`. `sender` is the account that originated the contract call, an admin role bearer except when using {AccessControl-_setupRole}."
      },
      "RoleRevoked(bytes32,address,address)": {
        "details": "Emitted when `account` is revoked `role`. `sender` is the account that originated the contract call:   - if using `revokeRole`, it is the admin role bearer   - if using `renounceRole`, it is the role bearer (i.e. `account`)"
      }
    },
    "kind": "dev",
    "methods": {
      "evaluatePoolAction(address)": {
        "params": {
          "pool": "The pool to evaluate"
        },
        "returns": {
          "toSupply": "The amount of ZAI to withdraw",
          "toWithdraw": "The amount of ZAI to supply"
        }
      },
      "exec(address)": {
        "details": "This is a permission-less function",
        "params": {
          "pool": "The pool to execute actions for"
        }
      },
      "getRoleAdmin(bytes32)": {
        "details": "Returns the admin role that controls `role`. See {grantRole} and {revokeRole}. To change a role's admin, use {_setRoleAdmin}."
      },
      "getRoleMember(bytes32,uint256)": {
        "details": "Returns one of the accounts that have `role`. `index` must be a value between 0 and {getRoleMemberCount}, non-inclusive. Role bearers are not sorted in any particular way, and their ordering may change at any point. WARNING: When using {getRoleMember} and {getRoleMemberCount}, make sure you perform all queries on the same block. See the following https://forum.openzeppelin.com/t/iterating-over-elements-on-enumerableset-in-openzeppelin-contracts/2296[forum post] for more information."
      },
      "getRoleMemberCount(bytes32)": {
        "details": "Returns the number of accounts that have `role`. Can be used together with {getRoleMember} to enumerate all bearers of a role."
      },
      "grantRole(bytes32,address)": {
        "details": "Grants `role` to `account`. If `account` had not been already granted `role`, emits a {RoleGranted} event. Requirements: - the caller must have ``role``'s admin role. May emit a {RoleGranted} event."
      },
      "hasRole(bytes32,address)": {
        "details": "Returns `true` if `account` has been granted `role`."
      },
      "initialize(address,uint256,address,address)": {
        "params": {
          "_feeCollector": "The address to send fees to",
          "_globalDebtCeiling": "The global debt ceiling",
          "_governance": "The governance contract for ownership",
          "_zai": "The ZAI stablecoin contract"
        }
      },
      "isPool(address)": {
        "params": {
          "pool": "The pool to check"
        }
      },
      "poolInfos(address)": {
        "params": {
          "pool": "The pool to get the info for"
        },
        "returns": {
          "info": "The pool info"
        }
      },
      "reduceDebtCeiling(address,uint256)": {
        "details": "Callable by the risk manager only",
        "params": {
          "amountToReduce": "The amount to reduce the debt ceiling by",
          "pool": "The pool to reduce the debt ceiling for"
        }
      },
      "registerPool(address,address,uint256)": {
        "params": {
          "debtCeiling": "The debt ceiling for the pool",
          "plan": "The plan to use for the pool",
          "pool": "The pool to register"
        }
      },
      "renounceRole(bytes32,address)": {
        "details": "Revokes `role` from the calling account. Roles are often managed via {grantRole} and {revokeRole}: this function's purpose is to provide a mechanism for accounts to lose their privileges if they are compromised (such as when a trusted device is misplaced). If the calling account had been revoked `role`, emits a {RoleRevoked} event. Requirements: - the caller must be `callerConfirmation`. May emit a {RoleRevoked} event."
      },
      "revokeRole(bytes32,address)": {
        "details": "Revokes `role` from `account`. If `account` had been granted `role`, emits a {RoleRevoked} event. Requirements: - the caller must have ``role``'s admin role. May emit a {RoleRevoked} event."
      },
      "setDebtCeiling(address,uint256)": {
        "details": "Callable by the governance only",
        "params": {
          "amount": "The new debt ceiling",
          "pool": "The pool to set the debt ceiling for"
        }
      },
      "setFeeCollector(address)": {
        "details": "Callable by governance only",
        "params": {
          "who": "The new fee collector"
        }
      },
      "setGlobalDebtCeiling(uint256)": {
        "details": "Callable by governance only",
        "params": {
          "amount": "The new global debt ceiling"
        }
      },
      "shutdownPool(address)": {
        "details": "Callable by governance only",
        "params": {
          "pool": "The pool to shutdown"
        }
      },
      "supportsInterface(bytes4)": {
        "details": "See {IERC165-supportsInterface}."
      },
      "sweepFees(address)": {
        "params": {
          "pool": "The pool to sweep fees for"
        }
      }
    },
    "stateVariables": {
      "globalDebtCeiling": {
        "return": "The total debt ceiling",
        "returns": {
          "_0": "The total debt ceiling"
        }
      }
    },
    "title": "Direct Deposit Hub",
    "version": 1
  },
  "userdoc": {
    "kind": "user",
    "methods": {
      "EXECUTOR_ROLE()": {
        "notice": "The executor role"
      },
      "RISK_ROLE()": {
        "notice": "The risk manager role"
      },
      "evaluatePoolAction(address)": {
        "notice": "Evaluates the actions to take for a pool"
      },
      "exec(address)": {
        "notice": "Executes the actions for a pool"
      },
      "feeCollector()": {
        "notice": "The fee collector address"
      },
      "globalDebtCeiling()": {
        "notice": "The total debt ceiling for all pools"
      },
      "initialize(address,uint256,address,address)": {
        "notice": "Initializes the contract"
      },
      "isPool(address)": {
        "notice": "Checks if a pool is registered"
      },
      "poolInfos(address)": {
        "notice": "The pool info for a given pool"
      },
      "reduceDebtCeiling(address,uint256)": {
        "notice": "Reduces the debt ceiling for a pool"
      },
      "registerPool(address,address,uint256)": {
        "notice": "Registers a pool"
      },
      "setDebtCeiling(address,uint256)": {
        "notice": "Sets the debt ceiling for a pool"
      },
      "setFeeCollector(address)": {
        "notice": "Sets the fee collector"
      },
      "setGlobalDebtCeiling(uint256)": {
        "notice": "Sets the global debt ceiling"
      },
      "shutdownPool(address)": {
        "notice": "Shuts down a pool"
      },
      "sweepFees(address)": {
        "notice": "Sweeps fees from a specific pool"
      },
      "zai()": {
        "notice": "The ZAI stablecoin contract"
      }
    },
    "notice": "This is the main contract responsible for managing pools.",
    "version": 1
  },
  "storageLayout": {
    "storage": [
      {
        "astId": 19212,
        "contract": "contracts/core/direct-deposit/DDHub.sol:DDHub",
        "label": "zai",
        "offset": 0,
        "slot": "0",
        "type": "t_contract(IStablecoin)26477"
      },
      {
        "astId": 19215,
        "contract": "contracts/core/direct-deposit/DDHub.sol:DDHub",
        "label": "RISK_ROLE",
        "offset": 0,
        "slot": "1",
        "type": "t_bytes32"
      },
      {
        "astId": 19218,
        "contract": "contracts/core/direct-deposit/DDHub.sol:DDHub",
        "label": "EXECUTOR_ROLE",
        "offset": 0,
        "slot": "2",
        "type": "t_bytes32"
      },
      {
        "astId": 19221,
        "contract": "contracts/core/direct-deposit/DDHub.sol:DDHub",
        "label": "feeCollector",
        "offset": 0,
        "slot": "3",
        "type": "t_address"
      },
      {
        "astId": 19224,
        "contract": "contracts/core/direct-deposit/DDHub.sol:DDHub",
        "label": "globalDebtCeiling",
        "offset": 0,
        "slot": "4",
        "type": "t_uint256"
      },
      {
        "astId": 19230,
        "contract": "contracts/core/direct-deposit/DDHub.sol:DDHub",
        "label": "_poolInfos",
        "offset": 0,
        "slot": "5",
        "type": "t_mapping(t_contract(IDDPool)26716,t_struct(PoolInfo)26504_storage)"
      }
    ],
    "types": {
      "t_address": {
        "encoding": "inplace",
        "label": "address",
        "numberOfBytes": "20"
      },
      "t_bool": {
        "encoding": "inplace",
        "label": "bool",
        "numberOfBytes": "1"
      },
      "t_bytes32": {
        "encoding": "inplace",
        "label": "bytes32",
        "numberOfBytes": "32"
      },
      "t_contract(IDDPlan)26664": {
        "encoding": "inplace",
        "label": "contract IDDPlan",
        "numberOfBytes": "20"
      },
      "t_contract(IDDPool)26716": {
        "encoding": "inplace",
        "label": "contract IDDPool",
        "numberOfBytes": "20"
      },
      "t_contract(IStablecoin)26477": {
        "encoding": "inplace",
        "label": "contract IStablecoin",
        "numberOfBytes": "20"
      },
      "t_mapping(t_contract(IDDPool)26716,t_struct(PoolInfo)26504_storage)": {
        "encoding": "mapping",
        "key": "t_contract(IDDPool)26716",
        "label": "mapping(contract IDDPool => struct IDDHub.PoolInfo)",
        "numberOfBytes": "32",
        "value": "t_struct(PoolInfo)26504_storage"
      },
      "t_struct(PoolInfo)26504_storage": {
        "encoding": "inplace",
        "label": "struct IDDHub.PoolInfo",
        "members": [
          {
            "astId": 26497,
            "contract": "contracts/core/direct-deposit/DDHub.sol:DDHub",
            "label": "plan",
            "offset": 0,
            "slot": "0",
            "type": "t_contract(IDDPlan)26664"
          },
          {
            "astId": 26499,
            "contract": "contracts/core/direct-deposit/DDHub.sol:DDHub",
            "label": "isLive",
            "offset": 20,
            "slot": "0",
            "type": "t_bool"
          },
          {
            "astId": 26501,
            "contract": "contracts/core/direct-deposit/DDHub.sol:DDHub",
            "label": "debt",
            "offset": 0,
            "slot": "1",
            "type": "t_uint256"
          },
          {
            "astId": 26503,
            "contract": "contracts/core/direct-deposit/DDHub.sol:DDHub",
            "label": "debtCeiling",
            "offset": 0,
            "slot": "2",
            "type": "t_uint256"
          }
        ],
        "numberOfBytes": "96"
      },
      "t_uint256": {
        "encoding": "inplace",
        "label": "uint256",
        "numberOfBytes": "32"
      }
    }
  }
}