{
  "address": "0xc999767ab22c04089d7cd69812b6725ca0f7d675",
  "abi": [
    {
      "inputs": [],
      "name": "AccessControlBadConfirmation",
      "type": "error"
    },
    {
      "inputs": [
        {
          "internalType": "address",
          "name": "account",
          "type": "address"
        },
        {
          "internalType": "bytes32",
          "name": "neededRole",
          "type": "bytes32"
        }
      ],
      "name": "AccessControlUnauthorizedAccount",
      "type": "error"
    },
    {
      "inputs": [],
      "name": "InvalidInitialization",
      "type": "error"
    },
    {
      "inputs": [
        {
          "internalType": "contract IDDPool",
          "name": "pool",
          "type": "address"
        }
      ],
      "name": "NoOp",
      "type": "error"
    },
    {
      "inputs": [],
      "name": "NotAuthorized",
      "type": "error"
    },
    {
      "inputs": [],
      "name": "NotInitializing",
      "type": "error"
    },
    {
      "inputs": [],
      "name": "ReentrancyGuardReentrantCall",
      "type": "error"
    },
    {
      "anonymous": false,
      "inputs": [
        {
          "indexed": true,
          "internalType": "contract IDDPool",
          "name": "pool",
          "type": "address"
        },
        {
          "indexed": false,
          "internalType": "uint256",
          "name": "amt",
          "type": "uint256"
        }
      ],
      "name": "BurnDebt",
      "type": "event"
    },
    {
      "anonymous": false,
      "inputs": [
        {
          "indexed": true,
          "internalType": "contract IDDPool",
          "name": "pool",
          "type": "address"
        },
        {
          "indexed": false,
          "internalType": "uint256",
          "name": "amt",
          "type": "uint256"
        }
      ],
      "name": "Fees",
      "type": "event"
    },
    {
      "anonymous": false,
      "inputs": [
        {
          "indexed": false,
          "internalType": "uint64",
          "name": "version",
          "type": "uint64"
        }
      ],
      "name": "Initialized",
      "type": "event"
    },
    {
      "anonymous": false,
      "inputs": [
        {
          "indexed": true,
          "internalType": "contract IDDPool",
          "name": "pool",
          "type": "address"
        },
        {
          "indexed": false,
          "internalType": "uint256",
          "name": "amt",
          "type": "uint256"
        }
      ],
      "name": "MintDebt",
      "type": "event"
    },
    {
      "anonymous": false,
      "inputs": [
        {
          "indexed": true,
          "internalType": "contract IDDPool",
          "name": "pool",
          "type": "address"
        },
        {
          "components": [
            {
              "internalType": "contract IDDPlan",
              "name": "plan",
              "type": "address"
            },
            {
              "internalType": "bool",
              "name": "isLive",
              "type": "bool"
            },
            {
              "internalType": "uint256",
              "name": "debt",
              "type": "uint256"
            },
            {
              "internalType": "uint256",
              "name": "debtCeiling",
              "type": "uint256"
            }
          ],
          "indexed": false,
          "internalType": "struct IDDHub.PoolInfo",
          "name": "info",
          "type": "tuple"
        }
      ],
      "name": "PoolInfoUpdated",
      "type": "event"
    },
    {
      "anonymous": false,
      "inputs": [
        {
          "indexed": true,
          "internalType": "bytes32",
          "name": "role",
          "type": "bytes32"
        },
        {
          "indexed": true,
          "internalType": "bytes32",
          "name": "previousAdminRole",
          "type": "bytes32"
        },
        {
          "indexed": true,
          "internalType": "bytes32",
          "name": "newAdminRole",
          "type": "bytes32"
        }
      ],
      "name": "RoleAdminChanged",
      "type": "event"
    },
    {
      "anonymous": false,
      "inputs": [
        {
          "indexed": true,
          "internalType": "bytes32",
          "name": "role",
          "type": "bytes32"
        },
        {
          "indexed": true,
          "internalType": "address",
          "name": "account",
          "type": "address"
        },
        {
          "indexed": true,
          "internalType": "address",
          "name": "sender",
          "type": "address"
        }
      ],
      "name": "RoleGranted",
      "type": "event"
    },
    {
      "anonymous": false,
      "inputs": [
        {
          "indexed": true,
          "internalType": "bytes32",
          "name": "role",
          "type": "bytes32"
        },
        {
          "indexed": true,
          "internalType": "address",
          "name": "account",
          "type": "address"
        },
        {
          "indexed": true,
          "internalType": "address",
          "name": "sender",
          "type": "address"
        }
      ],
      "name": "RoleRevoked",
      "type": "event"
    },
    {
      "inputs": [],
      "name": "DEFAULT_ADMIN_ROLE",
      "outputs": [
        {
          "internalType": "bytes32",
          "name": "",
          "type": "bytes32"
        }
      ],
      "stateMutability": "view",
      "type": "function"
    },
    {
      "inputs": [],
      "name": "EXECUTOR_ROLE",
      "outputs": [
        {
          "internalType": "bytes32",
          "name": "",
          "type": "bytes32"
        }
      ],
      "stateMutability": "view",
      "type": "function"
    },
    {
      "inputs": [],
      "name": "RISK_ROLE",
      "outputs": [
        {
          "internalType": "bytes32",
          "name": "",
          "type": "bytes32"
        }
      ],
      "stateMutability": "view",
      "type": "function"
    },
    {
      "inputs": [
        {
          "internalType": "contract IDDPool",
          "name": "pool",
          "type": "address"
        }
      ],
      "name": "evaluatePoolAction",
      "outputs": [
        {
          "internalType": "uint256",
          "name": "toWithdraw",
          "type": "uint256"
        },
        {
          "internalType": "uint256",
          "name": "toSupply",
          "type": "uint256"
        }
      ],
      "stateMutability": "view",
      "type": "function"
    },
    {
      "inputs": [
        {
          "internalType": "contract IDDPool",
          "name": "pool",
          "type": "address"
        }
      ],
      "name": "exec",
      "outputs": [],
      "stateMutability": "nonpayable",
      "type": "function"
    },
    {
      "inputs": [],
      "name": "feeCollector",
      "outputs": [
        {
          "internalType": "address",
          "name": "",
          "type": "address"
        }
      ],
      "stateMutability": "view",
      "type": "function"
    },
    {
      "inputs": [
        {
          "internalType": "bytes32",
          "name": "role",
          "type": "bytes32"
        }
      ],
      "name": "getRoleAdmin",
      "outputs": [
        {
          "internalType": "bytes32",
          "name": "",
          "type": "bytes32"
        }
      ],
      "stateMutability": "view",
      "type": "function"
    },
    {
      "inputs": [
        {
          "internalType": "bytes32",
          "name": "role",
          "type": "bytes32"
        },
        {
          "internalType": "uint256",
          "name": "index",
          "type": "uint256"
        }
      ],
      "name": "getRoleMember",
      "outputs": [
        {
          "internalType": "address",
          "name": "",
          "type": "address"
        }
      ],
      "stateMutability": "view",
      "type": "function"
    },
    {
      "inputs": [
        {
          "internalType": "bytes32",
          "name": "role",
          "type": "bytes32"
        }
      ],
      "name": "getRoleMemberCount",
      "outputs": [
        {
          "internalType": "uint256",
          "name": "",
          "type": "uint256"
        }
      ],
      "stateMutability": "view",
      "type": "function"
    },
    {
      "inputs": [],
      "name": "globalDebtCeiling",
      "outputs": [
        {
          "internalType": "uint256",
          "name": "",
          "type": "uint256"
        }
      ],
      "stateMutability": "view",
      "type": "function"
    },
    {
      "inputs": [
        {
          "internalType": "bytes32",
          "name": "role",
          "type": "bytes32"
        },
        {
          "internalType": "address",
          "name": "account",
          "type": "address"
        }
      ],
      "name": "grantRole",
      "outputs": [],
      "stateMutability": "nonpayable",
      "type": "function"
    },
    {
      "inputs": [
        {
          "internalType": "bytes32",
          "name": "role",
          "type": "bytes32"
        },
        {
          "internalType": "address",
          "name": "account",
          "type": "address"
        }
      ],
      "name": "hasRole",
      "outputs": [
        {
          "internalType": "bool",
          "name": "",
          "type": "bool"
        }
      ],
      "stateMutability": "view",
      "type": "function"
    },
    {
      "inputs": [
        {
          "internalType": "address",
          "name": "_feeCollector",
          "type": "address"
        },
        {
          "internalType": "uint256",
          "name": "_globalDebtCeiling",
          "type": "uint256"
        },
        {
          "internalType": "address",
          "name": "_zai",
          "type": "address"
        },
        {
          "internalType": "address",
          "name": "_governance",
          "type": "address"
        }
      ],
      "name": "initialize",
      "outputs": [],
      "stateMutability": "nonpayable",
      "type": "function"
    },
    {
      "inputs": [
        {
          "internalType": "address",
          "name": "pool",
          "type": "address"
        }
      ],
      "name": "isPool",
      "outputs": [
        {
          "internalType": "bool",
          "name": "what",
          "type": "bool"
        }
      ],
      "stateMutability": "view",
      "type": "function"
    },
    {
      "inputs": [
        {
          "internalType": "contract IDDPool",
          "name": "pool",
          "type": "address"
        }
      ],
      "name": "poolInfos",
      "outputs": [
        {
          "components": [
            {
              "internalType": "contract IDDPlan",
              "name": "plan",
              "type": "address"
            },
            {
              "internalType": "bool",
              "name": "isLive",
              "type": "bool"
            },
            {
              "internalType": "uint256",
              "name": "debt",
              "type": "uint256"
            },
            {
              "internalType": "uint256",
              "name": "debtCeiling",
              "type": "uint256"
            }
          ],
          "internalType": "struct IDDHub.PoolInfo",
          "name": "info",
          "type": "tuple"
        }
      ],
      "stateMutability": "view",
      "type": "function"
    },
    {
      "inputs": [
        {
          "internalType": "contract IDDPool",
          "name": "pool",
          "type": "address"
        },
        {
          "internalType": "uint256",
          "name": "amountToReduce",
          "type": "uint256"
        }
      ],
      "name": "reduceDebtCeiling",
      "outputs": [],
      "stateMutability": "nonpayable",
      "type": "function"
    },
    {
      "inputs": [
        {
          "internalType": "contract IDDPool",
          "name": "pool",
          "type": "address"
        },
        {
          "internalType": "contract IDDPlan",
          "name": "plan",
          "type": "address"
        },
        {
          "internalType": "uint256",
          "name": "debtCeiling",
          "type": "uint256"
        }
      ],
      "name": "registerPool",
      "outputs": [],
      "stateMutability": "nonpayable",
      "type": "function"
    },
    {
      "inputs": [
        {
          "internalType": "bytes32",
          "name": "role",
          "type": "bytes32"
        },
        {
          "internalType": "address",
          "name": "callerConfirmation",
          "type": "address"
        }
      ],
      "name": "renounceRole",
      "outputs": [],
      "stateMutability": "nonpayable",
      "type": "function"
    },
    {
      "inputs": [
        {
          "internalType": "bytes32",
          "name": "role",
          "type": "bytes32"
        },
        {
          "internalType": "address",
          "name": "account",
          "type": "address"
        }
      ],
      "name": "revokeRole",
      "outputs": [],
      "stateMutability": "nonpayable",
      "type": "function"
    },
    {
      "inputs": [
        {
          "internalType": "contract IDDPool",
          "name": "pool",
          "type": "address"
        },
        {
          "internalType": "uint256",
          "name": "amount",
          "type": "uint256"
        }
      ],
      "name": "setDebtCeiling",
      "outputs": [],
      "stateMutability": "nonpayable",
      "type": "function"
    },
    {
      "inputs": [
        {
          "internalType": "address",
          "name": "who",
          "type": "address"
        }
      ],
      "name": "setFeeCollector",
      "outputs": [],
      "stateMutability": "nonpayable",
      "type": "function"
    },
    {
      "inputs": [
        {
          "internalType": "uint256",
          "name": "amount",
          "type": "uint256"
        }
      ],
      "name": "setGlobalDebtCeiling",
      "outputs": [],
      "stateMutability": "nonpayable",
      "type": "function"
    },
    {
      "inputs": [
        {
          "internalType": "contract IDDPool",
          "name": "pool",
          "type": "address"
        }
      ],
      "name": "shutdownPool",
      "outputs": [],
      "stateMutability": "nonpayable",
      "type": "function"
    },
    {
      "inputs": [
        {
          "internalType": "bytes4",
          "name": "interfaceId",
          "type": "bytes4"
        }
      ],
      "name": "supportsInterface",
      "outputs": [
        {
          "internalType": "bool",
          "name": "",
          "type": "bool"
        }
      ],
      "stateMutability": "view",
      "type": "function"
    },
    {
      "inputs": [
        {
          "internalType": "contract IDDPool",
          "name": "pool",
          "type": "address"
        }
      ],
      "name": "sweepFees",
      "outputs": [],
      "stateMutability": "nonpayable",
      "type": "function"
    },
    {
      "inputs": [],
      "name": "zai",
      "outputs": [
        {
          "internalType": "contract IStablecoin",
          "name": "",
          "type": "address"
        }
      ],
      "stateMutability": "view",
      "type": "function"
    }
  ],
  "transactionHash": "0x28cfef130200553bf4b1f33b0e500158e10c813bd24e944a186c3d9af6511d62",
  "args": [],
  "numDeployments": 1,
  "solcInputHash": "8070cff6a707be9fa4e46d3cd0ef366d",
  "bytecode": "0x608060405234801561001057600080fd5b50611d41806100206000396000f3fe608060405234801561001057600080fd5b506004361061016e5760003560e01c806364b0aa94116100ce578063a217fddf11610087578063a217fddf146103af578063a42dce80146103b7578063aeb4fcc1146103ca578063c415b95c146103dd578063c86e7064146103f0578063ca15c873146103f9578063d547741f1461040c57600080fd5b806364b0aa941461033d5780636bb6126e146103505780638d196e32146103635780638d4b5cd2146103765780639010d07c1461038957806391d148541461039c57600080fd5b80632f2ff15d1161012b5780632f2ff15d14610203578063358394d81461021657806336568abe1461022957806342340a561461023c57806351c15721146102d45780635b16ebb7146102e757806361b477c81461031557600080fd5b806301ffc9a71461017357806307140b341461019b57806307bd0265146101bb5780632278c62f146101d2578063248a9ca3146101e75780632efcc866146101fa575b600080fd5b610186610181366004611a3c565b61041f565b60405190151581526020015b60405180910390f35b6000546101ae906001600160a01b031681565b6040516101929190611a66565b6101c460025481565b604051908152602001610192565b6101e56101e0366004611a8f565b61044a565b005b6101c46101f5366004611abb565b6104cd565b6101c460045481565b6101e5610211366004611ad4565b6104ed565b6101e5610224366004611b04565b610509565b6101e5610237366004611ad4565b610677565b6102c761024a366004611b57565b604080516080810182526000808252602082018190529181018290526060810191909152506001600160a01b03908116600090815260056020908152604091829020825160808101845281549485168152600160a01b90940460ff1615159184019190915260018101549183019190915260020154606082015290565b6040516101929190611b74565b6101e56102e2366004611baa565b6106af565b6101866102f5366004611b57565b6001600160a01b0390811660009081526005602052604090205416151590565b610328610323366004611b57565b610770565b60408051928352602083019190915201610192565b6101e561034b366004611b57565b610ab9565b6101e561035e366004611b57565b610b12565b6101e5610371366004611abb565b610ca4565b6101e5610384366004611b57565b610cb5565b6101ae610397366004611beb565b610cbe565b6101866103aa366004611ad4565b610cec565b6101c4600081565b6101e56103c5366004611b57565b610d22565b6101e56103d8366004611a8f565b610d50565b6003546101ae906001600160a01b031681565b6101c460015481565b6101c4610407366004611abb565b610db4565b6101e561041a366004611ad4565b610de0565b60006001600160e01b03198216635a05180f60e01b1480610444575061044482610dfc565b92915050565b60015461045681610e31565b6001600160a01b03838116600090815260056020908152604091829020825160808101845281549485168152600160a01b90940460ff16151591840191909152600181015491830191909152600201546060820181815284916104ba908390611c23565b9052506104c78482610e3b565b50505050565b6000806104d8610ecf565b60009384526020525050604090206001015490565b6104f6826104cd565b6104ff81610e31565b6104c78383610ef3565b7ff0c57e16840df040f15088dc2f81fe391c3923bec73e23a9662efc9c229c6a00805460019190600160401b900460ff16806105535750805467ffffffffffffffff808416911610155b156105715760405163f92ee8a960e01b815260040160405180910390fd5b805468ffffffffffffffffff191667ffffffffffffffff831617600160401b17815561059b610f35565b6105a3610f47565b600080546001600160a01b038087166001600160a01b031992831617835560038054918a169190921617905560048690557fbb4cf8e50e81e9742807782b2bc5c27c5a943f214ee0b993943eff5a774e555b6001557fd8aa0f3194971a2a116679f7c2090f6939c8d4e01a2a8d7e41d55e5351469e636002556106269084610ef3565b50805460ff60401b1916815560405167ffffffffffffffff831681527fc7f505b2f371ae2175ee4913f4499e1f2633a7b5936321eed1cdaeb6115181d29060200160405180910390a1505050505050565b6001600160a01b03811633146106a05760405163334bd91960e11b815260040160405180910390fd5b6106aa8282610f4f565b505050565b60006106ba81610e31565b604080516080810182526001600160a01b038516815260016020820152600091810191909152606081018390526106f18582610e3b565b60005460405163095ea7b360e01b81526001600160a01b039091169063095ea7b39061072590889060001990600401611c36565b6020604051808303816000875af1158015610744573d6000803e3d6000fd5b505050506040513d601f19601f820116820180604052508101906107689190611c4f565b505050505050565b6001600160a01b038181166000818152600560209081526040808320815160808101835281549687168152600160a01b90960460ff16151586840152600181015486830152600201546060860152805163c66f245560e01b815290519294859490938593919263c66f24559260048083019391928290030181865afa1580156107fd573d6000803e3d6000fd5b505050506040513d601f19601f820116820180604052508101906108219190611c71565b905060006108ac866001600160a01b031663ac7a1b5b6040518163ffffffff1660e01b8152600401602060405180830381865afa158015610866573d6000803e3d6000fd5b505050506040513d601f19601f8201168201806040525081019061088a9190611c71565b6108a76b033b2e3c9fd0803ce80000006001600160ff1b03611c8a565b610f88565b905082602001511580610922575082600001516001600160a01b03166302fb0c5e6040518163ffffffff1660e01b8152600401602060405180830381865afa1580156108fc573d6000803e3d6000fd5b505050506040513d601f19601f820116820180604052508101906109209190611c4f565b155b1561092f57809450610ab1565b6060830151604080850151855191516308715d7160e41b81526004810186905290916000916001600160a01b0390911690638715d71090602401602060405180830381865afa158015610986573d6000803e3d6000fd5b505050506040513d601f19601f820116820180604052508101906109aa9190611c71565b9050610a046109ec8484116109c05760006109ca565b6109ca8585611c23565b60045485116109da576000610f9e565b6004546109e79086611c23565b610f9e565b8683106109fa576000610f9e565b6109e78388611c23565b97508715610a1d57610a168885610f88565b9750610aad565b610aaa610a48610a3e610a308587611c23565b856004546108a79190611c23565b6108a78885611c23565b8a6001600160a01b0316636083e59a6040518163ffffffff1660e01b8152600401602060405180830381865afa158015610a86573d6000803e3d6000fd5b505050506040513d601f19601f820116820180604052508101906108a79190611c71565b96505b5050505b505050915091565b600154610ac581610e31565b6001600160a01b0380831660009081526005602090815260408083208151608081018352815490951685526001810154918501919091526002015460608401528201526106aa8382610e3b565b610b1a610fad565b600254610b2681610e31565b6001600160a01b0382811660009081526005602090815260409182902082516080810184528154948516808252600160a01b90950460ff16151592810192909252600181015492820192909252600290910154606082015290610bc15760405162461bcd60e51b815260206004820152600e60248201526d1b9bdd081c9959da5cdd195c995960921b60448201526064015b60405180910390fd5b826001600160a01b03166387edc58f6040518163ffffffff1660e01b8152600401600060405180830381600087803b158015610bfc57600080fd5b505af1158015610c10573d6000803e3d6000fd5b505050508060200151610c2b57610c2683610fe5565b610c35565b610c35838261110d565b826001600160a01b0316632001fdb76040518163ffffffff1660e01b8152600401600060405180830381600087803b158015610c7057600080fd5b505af1158015610c84573d6000803e3d6000fd5b505050505050610ca16001600080516020611cec83398151915255565b50565b6000610caf81610e31565b50600455565b610ca181611352565b600080610cc961164b565b6000858152602082905260409020909150610ce4908461166f565b949350505050565b600080610cf7610ecf565b6000948552602090815260408086206001600160a01b03959095168652939052505090205460ff1690565b6000610d2d81610e31565b50600380546001600160a01b0319166001600160a01b0392909216919091179055565b6000610d5b81610e31565b6001600160a01b03838116600090815260056020908152604091829020825160808101845281549485168152600160a01b90940460ff161515918401919091526001015490820152606081018390526104c78482610e3b565b600080610dbf61164b565b6000848152602082905260409020909150610dd99061167b565b9392505050565b610de9826104cd565b610df281610e31565b6104c78383610f4f565b60006001600160e01b03198216637965db0b60e01b148061044457506301ffc9a760e01b6001600160e01b0319831614610444565b610ca18133611685565b6001600160a01b0380831660008181526005602090815260409182902085518154928701511515600160a01b026001600160a81b0319909316951694909417178355808401516001840155606084015160029093019290925590517f03b4ea12ab782b897ae8c52030f721ad8e724dede039394307a4676a6ad9c95d90610ec3908490611b74565b60405180910390a25050565b7f02dd7bc7dec4dceedda775e58dd541e08a116c6c53815c0bd028192f7b62680090565b600080610efe61164b565b90506000610f0c85856116b4565b90508015610ce4576000858152602083905260409020610f2c9085611755565b50949350505050565b610f3d61176a565b610f456117b3565b565b610f4561176a565b600080610f5a61164b565b90506000610f6885856117bb565b90508015610ce4576000858152602083905260409020610f2c9085611833565b6000818310610f975781610dd9565b5090919050565b6000818311610f975781610dd9565b600080516020611cec833981519152805460011901610fdf57604051633ee5aeb560e01b815260040160405180910390fd5b60029055565b6000816001600160a01b031663ac7a1b5b6040518163ffffffff1660e01b8152600401602060405180830381865afa158015611025573d6000803e3d6000fd5b505050506040513d601f19601f820116820180604052508101906110499190611c71565b90508060000361106e578160405163e391c15b60e01b8152600401610bb89190611a66565b604051632e1a7d4d60e01b8152600481018290526001600160a01b03831690632e1a7d4d90602401600060405180830381600087803b1580156110b057600080fd5b505af11580156110c4573d6000803e3d6000fd5b505050506110d28130611848565b816001600160a01b03167f72d913f983c605f91ab3c4901f1bfcd947f7028ec426d14e001468c17721f1ad82604051610ec391815260200190565b61111682611352565b60008061112284610770565b909250905081156111ee57604051632e1a7d4d60e01b8152600481018390526001600160a01b03851690632e1a7d4d90602401600060405180830381600087803b15801561116f57600080fd5b505af1158015611183573d6000803e3d6000fd5b5050505081836040018181516111999190611c23565b9052506111a68230611848565b836001600160a01b03167f72d913f983c605f91ab3c4901f1bfcd947f7028ec426d14e001468c17721f1ad836040516111e191815260200190565b60405180910390a2611334565b8015611319576112116b033b2e3c9fd0803ce80000006001600160ff1b03611c8a565b8184604001516112219190611cac565b11156112655760405162461bcd60e51b815260206004820152601360248201527244444875622f77696e642d6f766572666c6f7760681b6044820152606401610bb8565b80836040018181516112779190611cac565b90525061128481306118a8565b60405163b6b55f2560e01b8152600481018290526001600160a01b0385169063b6b55f2590602401600060405180830381600087803b1580156112c657600080fd5b505af11580156112da573d6000803e3d6000fd5b50505050836001600160a01b03167f6a2853f9aa513d38cd986c06b4a8c936f2eea1b2a246c89ad81c546ecf72e038826040516111e191815260200190565b8360405163e391c15b60e01b8152600401610bb89190611a66565b6104c78484610e3b565b6001600080516020611cec83398151915255565b6001600160a01b038181166000818152600560209081526040808320815160808101835281549687168152600160a01b90960460ff16151586840152600181015486830152600201546060860152805163c66f245560e01b8152905192939263c66f2455926004808401939192918290030181865afa1580156113d9573d6000803e3d6000fd5b505050506040513d601f19601f820116820180604052508101906113fd9190611c71565b6040830151909150611410826001611cac565b10156114595760405162461bcd60e51b81526020600482015260186024820152771a5b9d985c9a585b9d0818985b185b98d9480f881919589d60421b6044820152606401610bb8565b8160400151811161146957505050565b600082604001518261147b9190611c23565b604051632e1a7d4d60e01b8152600481018290529091506001600160a01b03851690632e1a7d4d90602401600060405180830381600087803b1580156114c057600080fd5b505af11580156114d4573d6000803e3d6000fd5b505050506000846001600160a01b031663c66f24556040518163ffffffff1660e01b8152600401602060405180830381865afa158015611518573d6000803e3d6000fd5b505050506040513d601f19601f8201168201806040525081019061153c9190611c71565b90506115488184611c23565b82146115875760405162461bcd60e51b815260206004820152600e60248201526d696e76617261696e74206665657360901b6044820152606401610bb8565b60005460035460405163a9059cbb60e01b81526001600160a01b039283169263a9059cbb926115bd929116908690600401611c36565b6020604051808303816000875af11580156115dc573d6000803e3d6000fd5b505050506040513d601f19601f820116820180604052508101906116009190611c4f565b50846001600160a01b03167f3ffd609b9b5a2a69ee3777fb7c2198bfcaf6cd5475d9c06bea186ac64afc08318360405161163c91815260200190565b60405180910390a25050505050565b7fc1f6fe24621ce81ec5827caf0253cadb74709b061630e6b55e8237170593200090565b6000610dd983836118da565b6000610444825490565b61168f8282610cec565b6116b057808260405163e2517d3f60e01b8152600401610bb8929190611c36565b5050565b6000806116bf610ecf565b90506116cb8484610cec565b61174b576000848152602082815260408083206001600160a01b03871684529091529020805460ff191660011790556117013390565b6001600160a01b0316836001600160a01b0316857f2f8788117e7eff1d82e926ec794901d17c78024a50270940304540a733656f0d60405160405180910390a46001915050610444565b6000915050610444565b6000610dd9836001600160a01b038416611904565b7ff0c57e16840df040f15088dc2f81fe391c3923bec73e23a9662efc9c229c6a0054600160401b900460ff16610f4557604051631afcd79f60e31b815260040160405180910390fd5b61133e61176a565b6000806117c6610ecf565b90506117d28484610cec565b1561174b576000848152602082815260408083206001600160a01b0387168085529252808320805460ff1916905551339287917ff6391f5c32d9c69d2a47ea670b442974b53935d1edc7fd64eb21e047a839171b9190a46001915050610444565b6000610dd9836001600160a01b038416611953565b600054604051632770a7eb60e21b81526001600160a01b0390911690639dc29fac9061187a9084908690600401611c36565b600060405180830381600087803b15801561189457600080fd5b505af1158015610768573d6000803e3d6000fd5b6000546040516340c10f1960e01b81526001600160a01b03909116906340c10f199061187a9084908690600401611c36565b60008260000182815481106118f1576118f1611cbf565b9060005260206000200154905092915050565b600081815260018301602052604081205461194b57508154600181810184556000848152602080822090930184905584548482528286019093526040902091909155610444565b506000610444565b6000818152600183016020526040812054801561174b576000611977600183611c23565b855490915060009061198b90600190611c23565b90508082146119f05760008660000182815481106119ab576119ab611cbf565b90600052602060002001549050808760000184815481106119ce576119ce611cbf565b6000918252602080832090910192909255918252600188019052604090208390555b8554869080611a0157611a01611cd5565b600190038181906000526020600020016000905590558560010160008681526020019081526020016000206000905560019350505050610444565b600060208284031215611a4e57600080fd5b81356001600160e01b031981168114610dd957600080fd5b6001600160a01b0391909116815260200190565b6001600160a01b0381168114610ca157600080fd5b60008060408385031215611aa257600080fd5b8235611aad81611a7a565b946020939093013593505050565b600060208284031215611acd57600080fd5b5035919050565b60008060408385031215611ae757600080fd5b823591506020830135611af981611a7a565b809150509250929050565b60008060008060808587031215611b1a57600080fd5b8435611b2581611a7a565b9350602085013592506040850135611b3c81611a7a565b91506060850135611b4c81611a7a565b939692955090935050565b600060208284031215611b6957600080fd5b8135610dd981611a7a565b81516001600160a01b03168152602080830151151590820152604080830151908201526060918201519181019190915260800190565b600080600060608486031215611bbf57600080fd5b8335611bca81611a7a565b92506020840135611bda81611a7a565b929592945050506040919091013590565b60008060408385031215611bfe57600080fd5b50508035926020909101359150565b634e487b7160e01b600052601160045260246000fd5b8181038181111561044457610444611c0d565b6001600160a01b03929092168252602082015260400190565b600060208284031215611c6157600080fd5b81518015158114610dd957600080fd5b600060208284031215611c8357600080fd5b5051919050565b600082611ca757634e487b7160e01b600052601260045260246000fd5b500490565b8082018082111561044457610444611c0d565b634e487b7160e01b600052603260045260246000fd5b634e487b7160e01b600052603160045260246000fdfe9b779b17422d0df92223018b32b4d1fa46e071723d6817e2486d003becc55f00a26469706673582212206f8cd087bbd27ef5166c447cb233f25b9aceb1aa9b9f8b73b90e1a7cee40176d64736f6c63430008150033",
  "devdoc": {
    "author": "maha.xyz",
    "errors": {
      "AccessControlBadConfirmation()": [
        {
          "details": "The caller of a function is not the expected one. NOTE: Don't confuse with {AccessControlUnauthorizedAccount}."
        }
      ],
      "AccessControlUnauthorizedAccount(address,bytes32)": [
        {
          "details": "The `account` is missing a role."
        }
      ],
      "InvalidInitialization()": [
        {
          "details": "The contract is already initialized."
        }
      ],
      "NotInitializing()": [
        {
          "details": "The contract is not initializing."
        }
      ],
      "ReentrancyGuardReentrantCall()": [
        {
          "details": "Unauthorized reentrant call."
        }
      ]
    },
    "events": {
      "Initialized(uint64)": {
        "details": "Triggered when the contract has been initialized or reinitialized."
      },
      "RoleAdminChanged(bytes32,bytes32,bytes32)": {
        "details": "Emitted when `newAdminRole` is set as ``role``'s admin role, replacing `previousAdminRole` `DEFAULT_ADMIN_ROLE` is the starting admin for all roles, despite {RoleAdminChanged} not being emitted signaling this."
      },
      "RoleGranted(bytes32,address,address)": {
        "details": "Emitted when `account` is granted `role`. `sender` is the account that originated the contract call, an admin role bearer except when using {AccessControl-_setupRole}."
      },
      "RoleRevoked(bytes32,address,address)": {
        "details": "Emitted when `account` is revoked `role`. `sender` is the account that originated the contract call:   - if using `revokeRole`, it is the admin role bearer   - if using `renounceRole`, it is the role bearer (i.e. `account`)"
      }
    },
    "kind": "dev",
    "methods": {
      "evaluatePoolAction(address)": {
        "params": {
          "pool": "The pool to evaluate"
        },
        "returns": {
          "toSupply": "The amount of ZAI to withdraw",
          "toWithdraw": "The amount of ZAI to supply"
        }
      },
      "exec(address)": {
        "details": "This is a permission-less function",
        "params": {
          "pool": "The pool to execute actions for"
        }
      },
      "getRoleAdmin(bytes32)": {
        "details": "Returns the admin role that controls `role`. See {grantRole} and {revokeRole}. To change a role's admin, use {_setRoleAdmin}."
      },
      "getRoleMember(bytes32,uint256)": {
        "details": "Returns one of the accounts that have `role`. `index` must be a value between 0 and {getRoleMemberCount}, non-inclusive. Role bearers are not sorted in any particular way, and their ordering may change at any point. WARNING: When using {getRoleMember} and {getRoleMemberCount}, make sure you perform all queries on the same block. See the following https://forum.openzeppelin.com/t/iterating-over-elements-on-enumerableset-in-openzeppelin-contracts/2296[forum post] for more information."
      },
      "getRoleMemberCount(bytes32)": {
        "details": "Returns the number of accounts that have `role`. Can be used together with {getRoleMember} to enumerate all bearers of a role."
      },
      "grantRole(bytes32,address)": {
        "details": "Grants `role` to `account`. If `account` had not been already granted `role`, emits a {RoleGranted} event. Requirements: - the caller must have ``role``'s admin role. May emit a {RoleGranted} event."
      },
      "hasRole(bytes32,address)": {
        "details": "Returns `true` if `account` has been granted `role`."
      },
      "initialize(address,uint256,address,address)": {
        "params": {
          "_feeCollector": "The address to send fees to",
          "_globalDebtCeiling": "The global debt ceiling",
          "_governance": "The governance contract for ownership",
          "_zai": "The ZAI stablecoin contract"
        }
      },
      "isPool(address)": {
        "params": {
          "pool": "The pool to check"
        }
      },
      "poolInfos(address)": {
        "params": {
          "pool": "The pool to get the info for"
        },
        "returns": {
          "info": "The pool info"
        }
      },
      "reduceDebtCeiling(address,uint256)": {
        "details": "Callable by the risk manager only",
        "params": {
          "amountToReduce": "The amount to reduce the debt ceiling by",
          "pool": "The pool to reduce the debt ceiling for"
        }
      },
      "registerPool(address,address,uint256)": {
        "params": {
          "debtCeiling": "The debt ceiling for the pool",
          "plan": "The plan to use for the pool",
          "pool": "The pool to register"
        }
      },
      "renounceRole(bytes32,address)": {
        "details": "Revokes `role` from the calling account. Roles are often managed via {grantRole} and {revokeRole}: this function's purpose is to provide a mechanism for accounts to lose their privileges if they are compromised (such as when a trusted device is misplaced). If the calling account had been revoked `role`, emits a {RoleRevoked} event. Requirements: - the caller must be `callerConfirmation`. May emit a {RoleRevoked} event."
      },
      "revokeRole(bytes32,address)": {
        "details": "Revokes `role` from `account`. If `account` had been granted `role`, emits a {RoleRevoked} event. Requirements: - the caller must have ``role``'s admin role. May emit a {RoleRevoked} event."
      },
      "setDebtCeiling(address,uint256)": {
        "details": "Callable by the governance only",
        "params": {
          "amount": "The new debt ceiling",
          "pool": "The pool to set the debt ceiling for"
        }
      },
      "setFeeCollector(address)": {
        "details": "Callable by governance only",
        "params": {
          "who": "The new fee collector"
        }
      },
      "setGlobalDebtCeiling(uint256)": {
        "details": "Callable by governance only",
        "params": {
          "amount": "The new global debt ceiling"
        }
      },
      "shutdownPool(address)": {
        "details": "Callable by governance only",
        "params": {
          "pool": "The pool to shutdown"
        }
      },
      "supportsInterface(bytes4)": {
        "details": "See {IERC165-supportsInterface}."
      },
      "sweepFees(address)": {
        "params": {
          "pool": "The pool to sweep fees for"
        }
      }
    },
    "title": "A Direct Deposit Hub",
    "version": 1
  },
  "userdoc": {
    "kind": "user",
    "methods": {
      "EXECUTOR_ROLE()": {
        "notice": "The executor role"
      },
      "RISK_ROLE()": {
        "notice": "The risk manager role"
      },
      "evaluatePoolAction(address)": {
        "notice": "Evaluates the actions to take for a pool"
      },
      "exec(address)": {
        "notice": "Executes the actions for a pool"
      },
      "feeCollector()": {
        "notice": "The fee collector address"
      },
      "globalDebtCeiling()": {
        "notice": "The total debt ceiling for all pools"
      },
      "initialize(address,uint256,address,address)": {
        "notice": "Initializes the contract"
      },
      "isPool(address)": {
        "notice": "Checks if a pool is registered"
      },
      "poolInfos(address)": {
        "notice": "The pool info for a given pool"
      },
      "reduceDebtCeiling(address,uint256)": {
        "notice": "Reduces the debt ceiling for a pool"
      },
      "registerPool(address,address,uint256)": {
        "notice": "Registers a pool"
      },
      "setDebtCeiling(address,uint256)": {
        "notice": "Sets the debt ceiling for a pool"
      },
      "setFeeCollector(address)": {
        "notice": "Sets the fee collector"
      },
      "setGlobalDebtCeiling(uint256)": {
        "notice": "Sets the global debt ceiling"
      },
      "shutdownPool(address)": {
        "notice": "Shuts down a pool"
      },
      "sweepFees(address)": {
        "notice": "Sweeps fees from a specific pool"
      },
      "zai()": {
        "notice": "The ZAI stablecoin contract"
      }
    },
    "notice": "This is the main contract responsible for managing pools.",
    "version": 1
  },
  "storageLayout": {
    "storage": [
      {
        "astId": 25436,
        "contract": "contracts/core/direct-deposit/hub/DDHubL1.sol:DDHubL1",
        "label": "zai",
        "offset": 0,
        "slot": "0",
        "type": "t_contract(IStablecoin)34894"
      },
      {
        "astId": 25439,
        "contract": "contracts/core/direct-deposit/hub/DDHubL1.sol:DDHubL1",
        "label": "RISK_ROLE",
        "offset": 0,
        "slot": "1",
        "type": "t_bytes32"
      },
      {
        "astId": 25442,
        "contract": "contracts/core/direct-deposit/hub/DDHubL1.sol:DDHubL1",
        "label": "EXECUTOR_ROLE",
        "offset": 0,
        "slot": "2",
        "type": "t_bytes32"
      },
      {
        "astId": 25445,
        "contract": "contracts/core/direct-deposit/hub/DDHubL1.sol:DDHubL1",
        "label": "feeCollector",
        "offset": 0,
        "slot": "3",
        "type": "t_address"
      },
      {
        "astId": 25448,
        "contract": "contracts/core/direct-deposit/hub/DDHubL1.sol:DDHubL1",
        "label": "globalDebtCeiling",
        "offset": 0,
        "slot": "4",
        "type": "t_uint256"
      },
      {
        "astId": 25454,
        "contract": "contracts/core/direct-deposit/hub/DDHubL1.sol:DDHubL1",
        "label": "_poolInfos",
        "offset": 0,
        "slot": "5",
        "type": "t_mapping(t_contract(IDDPool)35133,t_struct(PoolInfo)34921_storage)"
      }
    ],
    "types": {
      "t_address": {
        "encoding": "inplace",
        "label": "address",
        "numberOfBytes": "20"
      },
      "t_bool": {
        "encoding": "inplace",
        "label": "bool",
        "numberOfBytes": "1"
      },
      "t_bytes32": {
        "encoding": "inplace",
        "label": "bytes32",
        "numberOfBytes": "32"
      },
      "t_contract(IDDPlan)35081": {
        "encoding": "inplace",
        "label": "contract IDDPlan",
        "numberOfBytes": "20"
      },
      "t_contract(IDDPool)35133": {
        "encoding": "inplace",
        "label": "contract IDDPool",
        "numberOfBytes": "20"
      },
      "t_contract(IStablecoin)34894": {
        "encoding": "inplace",
        "label": "contract IStablecoin",
        "numberOfBytes": "20"
      },
      "t_mapping(t_contract(IDDPool)35133,t_struct(PoolInfo)34921_storage)": {
        "encoding": "mapping",
        "key": "t_contract(IDDPool)35133",
        "label": "mapping(contract IDDPool => struct IDDHub.PoolInfo)",
        "numberOfBytes": "32",
        "value": "t_struct(PoolInfo)34921_storage"
      },
      "t_struct(PoolInfo)34921_storage": {
        "encoding": "inplace",
        "label": "struct IDDHub.PoolInfo",
        "members": [
          {
            "astId": 34914,
            "contract": "contracts/core/direct-deposit/hub/DDHubL1.sol:DDHubL1",
            "label": "plan",
            "offset": 0,
            "slot": "0",
            "type": "t_contract(IDDPlan)35081"
          },
          {
            "astId": 34916,
            "contract": "contracts/core/direct-deposit/hub/DDHubL1.sol:DDHubL1",
            "label": "isLive",
            "offset": 20,
            "slot": "0",
            "type": "t_bool"
          },
          {
            "astId": 34918,
            "contract": "contracts/core/direct-deposit/hub/DDHubL1.sol:DDHubL1",
            "label": "debt",
            "offset": 0,
            "slot": "1",
            "type": "t_uint256"
          },
          {
            "astId": 34920,
            "contract": "contracts/core/direct-deposit/hub/DDHubL1.sol:DDHubL1",
            "label": "debtCeiling",
            "offset": 0,
            "slot": "2",
            "type": "t_uint256"
          }
        ],
        "numberOfBytes": "96"
      },
      "t_uint256": {
        "encoding": "inplace",
        "label": "uint256",
        "numberOfBytes": "32"
      }
    }
  }
}