{
  "address": "0x153F4bd3F90850CBcd2a30D59355824eb5E69cD1",
  "abi": [
    {
      "inputs": [],
      "name": "InvalidInitialization",
      "type": "error"
    },
    {
      "inputs": [],
      "name": "NotAuthorized",
      "type": "error"
    },
    {
      "inputs": [],
      "name": "NotInitializing",
      "type": "error"
    },
    {
      "anonymous": false,
      "inputs": [
        {
          "indexed": false,
          "internalType": "uint64",
          "name": "version",
          "type": "uint64"
        }
      ],
      "name": "Initialized",
      "type": "event"
    },
    {
      "inputs": [],
      "name": "assetBalance",
      "outputs": [
        {
          "internalType": "uint256",
          "name": "",
          "type": "uint256"
        }
      ],
      "stateMutability": "view",
      "type": "function"
    },
    {
      "inputs": [],
      "name": "bridged",
      "outputs": [
        {
          "internalType": "uint256",
          "name": "",
          "type": "uint256"
        }
      ],
      "stateMutability": "view",
      "type": "function"
    },
    {
      "inputs": [
        {
          "internalType": "uint256",
          "name": "wad",
          "type": "uint256"
        }
      ],
      "name": "deposit",
      "outputs": [],
      "stateMutability": "nonpayable",
      "type": "function"
    },
    {
      "inputs": [
        {
          "internalType": "uint256",
          "name": "wad",
          "type": "uint256"
        }
      ],
      "name": "depositToBridge",
      "outputs": [],
      "stateMutability": "payable",
      "type": "function"
    },
    {
      "inputs": [],
      "name": "destinationL2",
      "outputs": [
        {
          "internalType": "bytes32",
          "name": "",
          "type": "bytes32"
        }
      ],
      "stateMutability": "view",
      "type": "function"
    },
    {
      "inputs": [],
      "name": "dstEid",
      "outputs": [
        {
          "internalType": "uint32",
          "name": "",
          "type": "uint32"
        }
      ],
      "stateMutability": "view",
      "type": "function"
    },
    {
      "inputs": [],
      "name": "hub",
      "outputs": [
        {
          "internalType": "address",
          "name": "",
          "type": "address"
        }
      ],
      "stateMutability": "view",
      "type": "function"
    },
    {
      "inputs": [
        {
          "internalType": "address",
          "name": "_hub",
          "type": "address"
        },
        {
          "internalType": "address",
          "name": "_zai",
          "type": "address"
        },
        {
          "internalType": "bytes32",
          "name": "_destinationL2",
          "type": "bytes32"
        },
        {
          "internalType": "address",
          "name": "_oftAdapter",
          "type": "address"
        },
        {
          "internalType": "uint32",
          "name": "_dstEid",
          "type": "uint32"
        }
      ],
      "name": "initialize",
      "outputs": [],
      "stateMutability": "nonpayable",
      "type": "function"
    },
    {
      "inputs": [],
      "name": "maxDeposit",
      "outputs": [
        {
          "internalType": "uint256",
          "name": "",
          "type": "uint256"
        }
      ],
      "stateMutability": "pure",
      "type": "function"
    },
    {
      "inputs": [],
      "name": "maxWithdraw",
      "outputs": [
        {
          "internalType": "uint256",
          "name": "",
          "type": "uint256"
        }
      ],
      "stateMutability": "view",
      "type": "function"
    },
    {
      "inputs": [],
      "name": "oftAdapter",
      "outputs": [
        {
          "internalType": "contract IOFT",
          "name": "",
          "type": "address"
        }
      ],
      "stateMutability": "view",
      "type": "function"
    },
    {
      "inputs": [],
      "name": "postDebtChange",
      "outputs": [],
      "stateMutability": "nonpayable",
      "type": "function"
    },
    {
      "inputs": [],
      "name": "preDebtChange",
      "outputs": [],
      "stateMutability": "nonpayable",
      "type": "function"
    },
    {
      "inputs": [],
      "name": "redeemable",
      "outputs": [
        {
          "internalType": "address",
          "name": "",
          "type": "address"
        }
      ],
      "stateMutability": "view",
      "type": "function"
    },
    {
      "inputs": [
        {
          "internalType": "uint256",
          "name": "wad",
          "type": "uint256"
        }
      ],
      "name": "withdraw",
      "outputs": [],
      "stateMutability": "nonpayable",
      "type": "function"
    },
    {
      "inputs": [],
      "name": "zai",
      "outputs": [
        {
          "internalType": "contract IStablecoin",
          "name": "",
          "type": "address"
        }
      ],
      "stateMutability": "view",
      "type": "function"
    },
    {
      "stateMutability": "payable",
      "type": "receive"
    }
  ],
  "transactionHash": "0xee69b23e2f4d6068aed2c2b7ccb758f70e1c9dd677a0cc02a28c610c9dfed461",
  "args": [],
  "numDeployments": 1,
  "solcInputHash": "67b42711509103a7fb2eae22be651979",
  "bytecode": "0x608060405234801561001057600080fd5b50610d28806100206000396000f3fe6080604052600436106100f75760003560e01c80636de8eeb91161008a578063b6b55f2511610059578063b6b55f251461026e578063c66f24551461028e578063cd1545f0146102a3578063f0e0fe5e146102b657600080fd5b80636de8eeb914610207578063734ff5f31461022757806387edc58f14610140578063ac7a1b5b1461025957600080fd5b8063365a86fc116100c6578063365a86fc1461018e57806350f61213146101ae5780635704c0c6146101d25780636083e59a146101f257600080fd5b806307140b34146101035780632001fdb7146101405780632d7ecd11146101505780632e1a7d4d1461016e57600080fd5b366100fe57005b600080fd5b34801561010f57600080fd5b50600054610123906001600160a01b031681565b6040516001600160a01b0390911681526020015b60405180910390f35b34801561014c57600080fd5b505b005b34801561015c57600080fd5b506002546001600160a01b0316610123565b34801561017a57600080fd5b5061014e6101893660046109cd565b6102cc565b34801561019a57600080fd5b50600154610123906001600160a01b031681565b3480156101ba57600080fd5b506101c460055481565b604051908152602001610137565b3480156101de57600080fd5b5061014e6101ed366004610a02565b6103a1565b3480156101fe57600080fd5b506000196101c4565b34801561021357600080fd5b50600454610123906001600160a01b031681565b34801561023357600080fd5b506006546102449063ffffffff1681565b60405163ffffffff9091168152602001610137565b34801561026557600080fd5b506101c4610719565b34801561027a57600080fd5b5061014e6102893660046109cd565b61078f565b34801561029a57600080fd5b506101c461082b565b61014e6102b13660046109cd565b6108a9565b3480156102c257600080fd5b506101c460035481565b6001546001600160a01b031633146102f75760405163ea8e4eb560e01b815260040160405180910390fd5b80600560008282546103099190610a83565b90915550506000546040517fa9059cbb000000000000000000000000000000000000000000000000000000008152336004820152602481018390526001600160a01b039091169063a9059cbb906044015b6020604051808303816000875af1158015610379573d6000803e3d6000fd5b505050506040513d601f19601f8201168201806040525081019061039d9190610a9c565b5050565b7ff0c57e16840df040f15088dc2f81fe391c3923bec73e23a9662efc9c229c6a0080546001919068010000000000000000900460ff16806103f05750805467ffffffffffffffff808416911610155b15610427576040517ff92ee8a900000000000000000000000000000000000000000000000000000000815260040160405180910390fd5b805468ffffffffffffffffff191667ffffffffffffffff8316176801000000000000000017815561049e8688600080546001600160a01b0393841673ffffffffffffffffffffffffffffffffffffffff19918216179091556001805492909316918116919091179091556002805490911630179055565b60038590556006805463ffffffff191663ffffffff85161790556004805473ffffffffffffffffffffffffffffffffffffffff19166001600160a01b038681169190911790915587166105385760405162461bcd60e51b815260206004820152601b60248201527f44444c617965725a65726f4875622f7a65726f2d61646472657373000000000060448201526064015b60405180910390fd5b6001600160a01b03861661058e5760405162461bcd60e51b815260206004820152601b60248201527f44444c617965725a65726f4875622f7a65726f2d616464726573730000000000604482015260640161052f565b846105db5760405162461bcd60e51b815260206004820152601b60248201527f44444c617965725a65726f4875622f7a65726f2d616464726573730000000000604482015260640161052f565b6001600160a01b0384166106315760405162461bcd60e51b815260206004820152601b60248201527f44444c617965725a65726f4875622f7a65726f2d616464726573730000000000604482015260640161052f565b6000546040517f095ea7b30000000000000000000000000000000000000000000000000000000081526001600160a01b03868116600483015260001960248301529091169063095ea7b3906044016020604051808303816000875af115801561069e573d6000803e3d6000fd5b505050506040513d601f19601f820116820180604052508101906106c29190610a9c565b50805468ff00000000000000001916815560405167ffffffffffffffff831681527fc7f505b2f371ae2175ee4913f4499e1f2633a7b5936321eed1cdaeb6115181d29060200160405180910390a150505050505050565b600080546002546040516370a0823160e01b81526001600160a01b0391821660048201529116906370a0823190602401602060405180830381865afa158015610766573d6000803e3d6000fd5b505050506040513d601f19601f8201168201806040525081019061078a9190610ac5565b905090565b6001546001600160a01b031633146107ba5760405163ea8e4eb560e01b815260040160405180910390fd5b80600560008282546107cc9190610ade565b90915550506000546002546040517f23b872dd0000000000000000000000000000000000000000000000000000000081523360048201526001600160a01b039182166024820152604481018490529116906323b872dd9060640161035a565b600080546002546040516370a0823160e01b81526001600160a01b0391821660048201529116906370a0823190602401602060405180830381865afa158015610878573d6000803e3d6000fd5b505050506040513d601f19601f8201168201806040525081019061089c9190610ac5565b60055461078a9190610ade565b80600560008282546108bb9190610ade565b90915550506040805160e08101825260065463ffffffff1681526003546020808301919091528183018490526060820184905282518082018452600080825260808401919091528351808301855281815260a08401528351808301855281815260c08401528351808501855234808252928101919091526004805494517fc7c7f5b3000000000000000000000000000000000000000000000000000000008152939491936001600160a01b039092169263c7c7f5b39290916109839187918791309101610b37565b60c06040518083038185885af11580156109a1573d6000803e3d6000fd5b50505050506040513d601f19601f820116820180604052508101906109c69190610c50565b5050505050565b6000602082840312156109df57600080fd5b5035919050565b80356001600160a01b03811681146109fd57600080fd5b919050565b600080600080600060a08688031215610a1a57600080fd5b610a23866109e6565b9450610a31602087016109e6565b935060408601359250610a46606087016109e6565b9150608086013563ffffffff81168114610a5f57600080fd5b809150509295509295909350565b634e487b7160e01b600052601160045260246000fd5b81810381811115610a9657610a96610a6d565b92915050565b600060208284031215610aae57600080fd5b81518015158114610abe57600080fd5b9392505050565b600060208284031215610ad757600080fd5b5051919050565b80820180821115610a9657610a96610a6d565b6000815180845260005b81811015610b1757602081850181015186830182015201610afb565b506000602082860101526020601f19601f83011685010191505092915050565b6080815263ffffffff8451166080820152602084015160a0820152604084015160c0820152606084015160e08201526000608085015160e0610100840152610b83610160840182610af1565b905060a0860151607f198085840301610120860152610ba28383610af1565b925060c08801519150808584030161014086015250610bc18282610af1565b92505050610bdc602083018580518252602090810151910152565b6001600160a01b0383166060830152949350505050565b600060408284031215610c0557600080fd5b6040516040810181811067ffffffffffffffff82111715610c3657634e487b7160e01b600052604160045260246000fd5b604052825181526020928301519281019290925250919050565b60008082840360c0811215610c6457600080fd5b6080811215610c7257600080fd5b506040516060810167ffffffffffffffff8282108183111715610ca557634e487b7160e01b600052604160045260246000fd5b8160405285518352602086015191508082168214610cc257600080fd5b506020820152610cd58560408601610bf3565b60408201529150610ce98460808501610bf3565b9050925092905056fea2646970667358221220d23639009bab9aa139d7a546069a9ed7531b13e3d5b3725e42dba671cacb861864736f6c63430008150033",
  "devdoc": {
    "author": "maha.xyz",
    "details": "Assumes that the destination on the L2 chain is a valid contract with proper controls.",
    "errors": {
      "InvalidInitialization()": [
        {
          "details": "The contract is already initialized."
        }
      ],
      "NotInitializing()": [
        {
          "details": "The contract is not initializing."
        }
      ]
    },
    "events": {
      "Initialized(uint64)": {
        "details": "Triggered when the contract has been initialized or reinitialized."
      }
    },
    "kind": "dev",
    "methods": {
      "assetBalance()": {
        "details": "This could be greater than the amount the pool can withdraw due to lack of liquidity.",
        "returns": {
          "_0": "uint256 number of assets in ZAI"
        }
      },
      "deposit(uint256)": {
        "details": "If the external pool requires a different amount to be passed in, the conversion should occur here as the Hub passes ZAI amounts.msg.sender must be the hub.",
        "params": {
          "amount": "amount in asset (ZAI) terms that we want to deposit"
        }
      },
      "maxDeposit()": {
        "returns": {
          "_0": "uint256 number of assets in ZAI"
        }
      },
      "maxWithdraw()": {
        "returns": {
          "_0": "uint256 number of assets in ZAI"
        }
      },
      "withdraw(uint256)": {
        "details": "Any withdrawn amount will be held in the contract",
        "params": {
          "amount": "amount in asset (ZAI) terms that we want to withdraw"
        }
      }
    },
    "title": "A Direct Deposit Module that sends the newly minted ZAI to a hub on a layer 2 via a L2 bridge",
    "version": 1
  },
  "userdoc": {
    "kind": "user",
    "methods": {
      "assetBalance()": {
        "notice": "Balance of assets this pool \"owns\"."
      },
      "deposit(uint256)": {
        "notice": "Deposit assets (ZAI) in the external pool."
      },
      "hub()": {
        "notice": "The Direct Deposit module hub"
      },
      "maxDeposit()": {
        "notice": "Maximum number of assets the pool could deposit at present."
      },
      "maxWithdraw()": {
        "notice": "Maximum number of assets the pool could withdraw at present."
      },
      "postDebtChange()": {
        "notice": "Some external pools require actions after debt changes"
      },
      "preDebtChange()": {
        "notice": "Some external pools require actions before debt changes"
      },
      "redeemable()": {
        "notice": "returns address of redeemable tokens (if any)"
      },
      "withdraw(uint256)": {
        "notice": "Withdraw assets (ZAI) from the external pool."
      },
      "zai()": {
        "notice": "The ZAI Stablecoin"
      }
    },
    "notice": "A direct deposit module that sends ZAI to an L2 chain",
    "version": 1
  },
  "storageLayout": {
    "storage": [
      {
        "astId": 3506,
        "contract": "contracts/core/direct-deposit/pools/layer2/DDLayerZeroHub.sol:DDLayerZeroHub",
        "label": "zai",
        "offset": 0,
        "slot": "0",
        "type": "t_contract(IStablecoin)3874"
      },
      {
        "astId": 3509,
        "contract": "contracts/core/direct-deposit/pools/layer2/DDLayerZeroHub.sol:DDLayerZeroHub",
        "label": "hub",
        "offset": 0,
        "slot": "1",
        "type": "t_address"
      },
      {
        "astId": 3511,
        "contract": "contracts/core/direct-deposit/pools/layer2/DDLayerZeroHub.sol:DDLayerZeroHub",
        "label": "me",
        "offset": 0,
        "slot": "2",
        "type": "t_address"
      },
      {
        "astId": 3567,
        "contract": "contracts/core/direct-deposit/pools/layer2/DDLayerZeroHub.sol:DDLayerZeroHub",
        "label": "destinationL2",
        "offset": 0,
        "slot": "3",
        "type": "t_bytes32"
      },
      {
        "astId": 3570,
        "contract": "contracts/core/direct-deposit/pools/layer2/DDLayerZeroHub.sol:DDLayerZeroHub",
        "label": "oftAdapter",
        "offset": 0,
        "slot": "4",
        "type": "t_contract(IOFT)522"
      },
      {
        "astId": 3572,
        "contract": "contracts/core/direct-deposit/pools/layer2/DDLayerZeroHub.sol:DDLayerZeroHub",
        "label": "bridged",
        "offset": 0,
        "slot": "5",
        "type": "t_uint256"
      },
      {
        "astId": 3574,
        "contract": "contracts/core/direct-deposit/pools/layer2/DDLayerZeroHub.sol:DDLayerZeroHub",
        "label": "dstEid",
        "offset": 0,
        "slot": "6",
        "type": "t_uint32"
      },
      {
        "astId": 3576,
        "contract": "contracts/core/direct-deposit/pools/layer2/DDLayerZeroHub.sol:DDLayerZeroHub",
        "label": "ethRefundAddress",
        "offset": 4,
        "slot": "6",
        "type": "t_address"
      }
    ],
    "types": {
      "t_address": {
        "encoding": "inplace",
        "label": "address",
        "numberOfBytes": "20"
      },
      "t_bytes32": {
        "encoding": "inplace",
        "label": "bytes32",
        "numberOfBytes": "32"
      },
      "t_contract(IOFT)522": {
        "encoding": "inplace",
        "label": "contract IOFT",
        "numberOfBytes": "20"
      },
      "t_contract(IStablecoin)3874": {
        "encoding": "inplace",
        "label": "contract IStablecoin",
        "numberOfBytes": "20"
      },
      "t_uint256": {
        "encoding": "inplace",
        "label": "uint256",
        "numberOfBytes": "32"
      },
      "t_uint32": {
        "encoding": "inplace",
        "label": "uint32",
        "numberOfBytes": "4"
      }
    }
  }
}