{
  "address": "0xa5A9aB93C93EF72CB75e6fa41E1Bc80562c1fD03",
  "abi": [
    {
      "inputs": [],
      "name": "InvalidInitialization",
      "type": "error"
    },
    {
      "inputs": [],
      "name": "NotAuthorized",
      "type": "error"
    },
    {
      "inputs": [],
      "name": "NotInitializing",
      "type": "error"
    },
    {
      "anonymous": false,
      "inputs": [
        {
          "indexed": false,
          "internalType": "uint64",
          "name": "version",
          "type": "uint64"
        }
      ],
      "name": "Initialized",
      "type": "event"
    },
    {
      "inputs": [],
      "name": "assetBalance",
      "outputs": [
        {
          "internalType": "uint256",
          "name": "",
          "type": "uint256"
        }
      ],
      "stateMutability": "view",
      "type": "function"
    },
    {
      "inputs": [
        {
          "internalType": "uint256",
          "name": "wad",
          "type": "uint256"
        }
      ],
      "name": "deposit",
      "outputs": [],
      "stateMutability": "nonpayable",
      "type": "function"
    },
    {
      "inputs": [],
      "name": "hub",
      "outputs": [
        {
          "internalType": "address",
          "name": "",
          "type": "address"
        }
      ],
      "stateMutability": "view",
      "type": "function"
    },
    {
      "inputs": [
        {
          "internalType": "address",
          "name": "_hub",
          "type": "address"
        },
        {
          "internalType": "address",
          "name": "_zai",
          "type": "address"
        },
        {
          "internalType": "address",
          "name": "_vault",
          "type": "address"
        }
      ],
      "name": "initialize",
      "outputs": [],
      "stateMutability": "nonpayable",
      "type": "function"
    },
    {
      "inputs": [],
      "name": "maxDeposit",
      "outputs": [
        {
          "internalType": "uint256",
          "name": "",
          "type": "uint256"
        }
      ],
      "stateMutability": "view",
      "type": "function"
    },
    {
      "inputs": [],
      "name": "maxWithdraw",
      "outputs": [
        {
          "internalType": "uint256",
          "name": "",
          "type": "uint256"
        }
      ],
      "stateMutability": "view",
      "type": "function"
    },
    {
      "inputs": [],
      "name": "postDebtChange",
      "outputs": [],
      "stateMutability": "nonpayable",
      "type": "function"
    },
    {
      "inputs": [],
      "name": "preDebtChange",
      "outputs": [],
      "stateMutability": "nonpayable",
      "type": "function"
    },
    {
      "inputs": [],
      "name": "redeemable",
      "outputs": [
        {
          "internalType": "address",
          "name": "",
          "type": "address"
        }
      ],
      "stateMutability": "view",
      "type": "function"
    },
    {
      "inputs": [],
      "name": "vault",
      "outputs": [
        {
          "internalType": "contract IMetaMorpho",
          "name": "",
          "type": "address"
        }
      ],
      "stateMutability": "view",
      "type": "function"
    },
    {
      "inputs": [
        {
          "internalType": "uint256",
          "name": "wad",
          "type": "uint256"
        }
      ],
      "name": "withdraw",
      "outputs": [],
      "stateMutability": "nonpayable",
      "type": "function"
    },
    {
      "inputs": [],
      "name": "zai",
      "outputs": [
        {
          "internalType": "contract IStablecoin",
          "name": "",
          "type": "address"
        }
      ],
      "stateMutability": "view",
      "type": "function"
    }
  ],
  "transactionHash": "0x213ee73963056fb0768501b3a47d5f2b9da2f746e22fc6e8416e1dd5b2123265",
  "args": [],
  "numDeployments": 1,
  "solcInputHash": "bf587503504f04f1a1890cac65205583",
  "bytecode": "0x608060405234801561001057600080fd5b50610a0b806100206000396000f3fe608060405234801561001057600080fd5b50600436106100d45760003560e01c806387edc58f11610081578063c0c53b8b1161005b578063c0c53b8b14610173578063c66f245514610186578063fbfa77cf1461018e57600080fd5b806387edc58f14610109578063ac7a1b5b14610158578063b6b55f251461016057600080fd5b80632e1a7d4d116100b25780632e1a7d4d1461011c578063365a86fc1461012f5780636083e59a1461014257600080fd5b806307140b34146100d95780632001fdb7146101095780632d7ecd111461010b575b600080fd5b6000546100ec906001600160a01b031681565b6040516001600160a01b0390911681526020015b60405180910390f35b005b6002546001600160a01b03166100ec565b61010961012a3660046108fa565b6101a1565b6001546100ec906001600160a01b031681565b61014a610265565b604051908152602001610100565b61014a6102f1565b61010961016e3660046108fa565b61033b565b61010961018136600461092b565b61044b565b61014a61084e565b6002546100ec906001600160a01b031681565b6001546001600160a01b031633146101cc5760405163ea8e4eb560e01b815260040160405180910390fd5b6002546040517fb460af94000000000000000000000000000000000000000000000000000000008152600481018390523360248201523060448201526001600160a01b039091169063b460af94906064015b6020604051808303816000875af115801561023d573d6000803e3d6000fd5b505050506040513d601f19601f820116820180604052508101906102619190610976565b5050565b6002546040517f402d267d0000000000000000000000000000000000000000000000000000000081523060048201526000916001600160a01b03169063402d267d906024015b602060405180830381865afa1580156102c8573d6000803e3d6000fd5b505050506040513d601f19601f820116820180604052508101906102ec9190610976565b905090565b6002546040517fce96cb770000000000000000000000000000000000000000000000000000000081523060048201526000916001600160a01b03169063ce96cb77906024016102ab565b6001546001600160a01b031633146103665760405163ea8e4eb560e01b815260040160405180910390fd5b6000546040517f23b872dd000000000000000000000000000000000000000000000000000000008152336004820152306024820152604481018390526001600160a01b03909116906323b872dd906064016020604051808303816000875af11580156103d6573d6000803e3d6000fd5b505050506040513d601f19601f820116820180604052508101906103fa919061098f565b506002546040517f6e553f65000000000000000000000000000000000000000000000000000000008152600481018390523060248201526001600160a01b0390911690636e553f659060440161021e565b7ff0c57e16840df040f15088dc2f81fe391c3923bec73e23a9662efc9c229c6a0080546001919068010000000000000000900460ff168061049a5750805467ffffffffffffffff808416911610155b156104d1576040517ff92ee8a900000000000000000000000000000000000000000000000000000000815260040160405180910390fd5b805468ffffffffffffffffff191667ffffffffffffffff831617680100000000000000001781556105388486600080546001600160a01b0393841673ffffffffffffffffffffffffffffffffffffffff199182161790915560018054929093169116179055565b6002805473ffffffffffffffffffffffffffffffffffffffff19166001600160a01b038581169190911790915585166105b85760405162461bcd60e51b815260206004820152601960248201527f44444d6574614d6f7270686f2f7a65726f2d616464726573730000000000000060448201526064015b60405180910390fd5b6001600160a01b03841661060e5760405162461bcd60e51b815260206004820152601960248201527f44444d6574614d6f7270686f2f7a65726f2d616464726573730000000000000060448201526064016105af565b6001600160a01b0383166106645760405162461bcd60e51b815260206004820152601960248201527f44444d6574614d6f7270686f2f7a65726f2d616464726573730000000000000060448201526064016105af565b600254604080517f38d52e0f00000000000000000000000000000000000000000000000000000000815290516001600160a01b038088169316916338d52e0f9160048083019260209291908290030181865afa1580156106c8573d6000803e3d6000fd5b505050506040513d601f19601f820116820180604052508101906106ec91906109b8565b6001600160a01b0316146107685760405162461bcd60e51b815260206004820152602360248201527f44444d6574614d6f7270686f2f7661756c742d61737365742d69732d6e6f742d60448201527f7a6169000000000000000000000000000000000000000000000000000000000060648201526084016105af565b6000546040517f095ea7b30000000000000000000000000000000000000000000000000000000081526001600160a01b03858116600483015260001960248301529091169063095ea7b3906044016020604051808303816000875af11580156107d5573d6000803e3d6000fd5b505050506040513d601f19601f820116820180604052508101906107f9919061098f565b50805468ff00000000000000001916815560405167ffffffffffffffff831681527fc7f505b2f371ae2175ee4913f4499e1f2633a7b5936321eed1cdaeb6115181d29060200160405180910390a15050505050565b6002546040517f70a082310000000000000000000000000000000000000000000000000000000081523060048201526000916001600160a01b0316906307a2d13a9082906370a0823190602401602060405180830381865afa1580156108b8573d6000803e3d6000fd5b505050506040513d601f19601f820116820180604052508101906108dc9190610976565b6040518263ffffffff1660e01b81526004016102ab91815260200190565b60006020828403121561090c57600080fd5b5035919050565b6001600160a01b038116811461092857600080fd5b50565b60008060006060848603121561094057600080fd5b833561094b81610913565b9250602084013561095b81610913565b9150604084013561096b81610913565b809150509250925092565b60006020828403121561098857600080fd5b5051919050565b6000602082840312156109a157600080fd5b815180151581146109b157600080fd5b9392505050565b6000602082840312156109ca57600080fd5b81516109b18161091356fea264697066735822122084d3031801d79b50806dd9258414425fe7c4d0f00c5a4afbc4c27c8dfc9cc1b164736f6c63430008150033",
  "devdoc": {
    "author": "maha.xyz",
    "errors": {
      "InvalidInitialization()": [
        {
          "details": "The contract is already initialized."
        }
      ],
      "NotInitializing()": [
        {
          "details": "The contract is not initializing."
        }
      ]
    },
    "events": {
      "Initialized(uint64)": {
        "details": "Triggered when the contract has been initialized or reinitialized."
      }
    },
    "kind": "dev",
    "methods": {
      "assetBalance()": {
        "details": "This could be greater than the amount the pool can withdraw due to lack of liquidity.",
        "returns": {
          "_0": "uint256 number of assets in ZAI"
        }
      },
      "deposit(uint256)": {
        "details": "If the external pool requires a different amount to be passed in, the conversion should occur here as the Hub passes ZAI amounts.msg.sender must be the hub.",
        "params": {
          "amount": "amount in asset (ZAI) terms that we want to deposit"
        }
      },
      "maxDeposit()": {
        "returns": {
          "_0": "uint256 number of assets in ZAI"
        }
      },
      "maxWithdraw()": {
        "returns": {
          "_0": "uint256 number of assets in ZAI"
        }
      },
      "withdraw(uint256)": {
        "details": "If the external pool requires a different amount to be passed in the conversion should occur here as the Hub passes ZAI amounts.msg.sender must be the hub.",
        "params": {
          "amount": "amount in asset (ZAI) terms that we want to withdraw"
        }
      }
    },
    "title": "MetaMorpho Direct Deposit Module",
    "version": 1
  },
  "userdoc": {
    "kind": "user",
    "methods": {
      "assetBalance()": {
        "notice": "Balance of assets this pool \"owns\"."
      },
      "deposit(uint256)": {
        "notice": "https://github.com/morpho-org/metamorpho/blob/fcf3c41d9c113514c9af0bbf6298e88a1060b220/src/MetaMorpho.sol#L531"
      },
      "hub()": {
        "notice": "The Direct Deposit module hub"
      },
      "maxDeposit()": {
        "notice": "Maximum number of assets the pool could deposit at present."
      },
      "maxWithdraw()": {
        "notice": "Maximum number of assets the pool could withdraw at present."
      },
      "postDebtChange()": {
        "notice": "Some external pools require actions after debt changes"
      },
      "preDebtChange()": {
        "notice": "Some external pools require actions before debt changes"
      },
      "redeemable()": {
        "notice": "returns address of redeemable tokens (if any)"
      },
      "withdraw(uint256)": {
        "notice": "https://github.com/morpho-org/metamorpho/blob/fcf3c41d9c113514c9af0bbf6298e88a1060b220/src/MetaMorpho.sol#L557"
      },
      "zai()": {
        "notice": "The ZAI Stablecoin"
      }
    },
    "notice": "A direct deposit module that manages a morpho vault",
    "version": 1
  },
  "storageLayout": {
    "storage": [
      {
        "astId": 20076,
        "contract": "contracts/core/direct-deposit/pools/DDMetaMorpho.sol:DDMetaMorpho",
        "label": "zai",
        "offset": 0,
        "slot": "0",
        "type": "t_contract(IStablecoin)26477"
      },
      {
        "astId": 20079,
        "contract": "contracts/core/direct-deposit/pools/DDMetaMorpho.sol:DDMetaMorpho",
        "label": "hub",
        "offset": 0,
        "slot": "1",
        "type": "t_address"
      },
      {
        "astId": 20127,
        "contract": "contracts/core/direct-deposit/pools/DDMetaMorpho.sol:DDMetaMorpho",
        "label": "vault",
        "offset": 0,
        "slot": "2",
        "type": "t_contract(IMetaMorpho)30779"
      }
    ],
    "types": {
      "t_address": {
        "encoding": "inplace",
        "label": "address",
        "numberOfBytes": "20"
      },
      "t_contract(IMetaMorpho)30779": {
        "encoding": "inplace",
        "label": "contract IMetaMorpho",
        "numberOfBytes": "20"
      },
      "t_contract(IStablecoin)26477": {
        "encoding": "inplace",
        "label": "contract IStablecoin",
        "numberOfBytes": "20"
      }
    }
  }
}