{
  "address": "0xD5b0Ef891200b883fafD300Ce560A69C8d919B34",
  "abi": [
    {
      "inputs": [],
      "name": "InvalidInitialization",
      "type": "error"
    },
    {
      "inputs": [],
      "name": "NotAuthorized",
      "type": "error"
    },
    {
      "inputs": [],
      "name": "NotInitializing",
      "type": "error"
    },
    {
      "anonymous": false,
      "inputs": [
        {
          "indexed": false,
          "internalType": "uint64",
          "name": "version",
          "type": "uint64"
        }
      ],
      "name": "Initialized",
      "type": "event"
    },
    {
      "inputs": [],
      "name": "assetBalance",
      "outputs": [
        {
          "internalType": "uint256",
          "name": "",
          "type": "uint256"
        }
      ],
      "stateMutability": "view",
      "type": "function"
    },
    {
      "inputs": [
        {
          "internalType": "uint256",
          "name": "wad",
          "type": "uint256"
        }
      ],
      "name": "deposit",
      "outputs": [],
      "stateMutability": "nonpayable",
      "type": "function"
    },
    {
      "inputs": [],
      "name": "hub",
      "outputs": [
        {
          "internalType": "address",
          "name": "",
          "type": "address"
        }
      ],
      "stateMutability": "view",
      "type": "function"
    },
    {
      "inputs": [
        {
          "internalType": "address",
          "name": "_hub",
          "type": "address"
        },
        {
          "internalType": "address",
          "name": "_zai",
          "type": "address"
        },
        {
          "internalType": "address",
          "name": "_pool",
          "type": "address"
        },
        {
          "internalType": "address",
          "name": "_z0USDz",
          "type": "address"
        }
      ],
      "name": "initialize",
      "outputs": [],
      "stateMutability": "nonpayable",
      "type": "function"
    },
    {
      "inputs": [],
      "name": "maxDeposit",
      "outputs": [
        {
          "internalType": "uint256",
          "name": "",
          "type": "uint256"
        }
      ],
      "stateMutability": "pure",
      "type": "function"
    },
    {
      "inputs": [],
      "name": "maxWithdraw",
      "outputs": [
        {
          "internalType": "uint256",
          "name": "",
          "type": "uint256"
        }
      ],
      "stateMutability": "view",
      "type": "function"
    },
    {
      "inputs": [],
      "name": "pool",
      "outputs": [
        {
          "internalType": "contract IPool",
          "name": "",
          "type": "address"
        }
      ],
      "stateMutability": "view",
      "type": "function"
    },
    {
      "inputs": [],
      "name": "postDebtChange",
      "outputs": [],
      "stateMutability": "nonpayable",
      "type": "function"
    },
    {
      "inputs": [],
      "name": "preDebtChange",
      "outputs": [],
      "stateMutability": "nonpayable",
      "type": "function"
    },
    {
      "inputs": [],
      "name": "redeemable",
      "outputs": [
        {
          "internalType": "address",
          "name": "",
          "type": "address"
        }
      ],
      "stateMutability": "view",
      "type": "function"
    },
    {
      "inputs": [
        {
          "internalType": "uint256",
          "name": "wad",
          "type": "uint256"
        }
      ],
      "name": "withdraw",
      "outputs": [],
      "stateMutability": "nonpayable",
      "type": "function"
    },
    {
      "inputs": [],
      "name": "z0USDz",
      "outputs": [
        {
          "internalType": "contract IERC20",
          "name": "",
          "type": "address"
        }
      ],
      "stateMutability": "view",
      "type": "function"
    },
    {
      "inputs": [],
      "name": "zai",
      "outputs": [
        {
          "internalType": "contract IStablecoin",
          "name": "",
          "type": "address"
        }
      ],
      "stateMutability": "view",
      "type": "function"
    }
  ],
  "transactionHash": "0x17fe5d0313fcc57ebdd0f511b2b1aed7cf899ab60a974d2351ac3f82a69721e1",
  "args": [],
  "numDeployments": 1,
  "solcInputHash": "d3c2fe7c21fe0808b8e6c1cf8e7898f7",
  "bytecode": "0x608060405234801561001057600080fd5b50610a98806100206000396000f3fe608060405234801561001057600080fd5b50600436106100df5760003560e01c80636083e59a1161008c578063b6b55f2511610066578063b6b55f251461017a578063c66f24551461018d578063f05c426c14610195578063f8c8765e146101a857600080fd5b80636083e59a1461016057806387edc58f14610127578063ac7a1b5b1461017257600080fd5b80632d7ecd11116100bd5780632d7ecd11146101295780632e1a7d4d1461013a578063365a86fc1461014d57600080fd5b806307140b34146100e457806316f0115b146101145780632001fdb714610127575b600080fd5b6000546100f7906001600160a01b031681565b6040516001600160a01b0390911681526020015b60405180910390f35b6003546100f7906001600160a01b031681565b005b6004546001600160a01b03166100f7565b61012761014836600461095e565b6101bb565b6001546100f7906001600160a01b031681565b6000195b60405190815260200161010b565b6101646103d0565b61012761018836600461095e565b610459565b6101646105b6565b6004546100f7906001600160a01b031681565b6101276101b6366004610993565b61062c565b6001546001600160a01b031633146101e65760405163ea8e4eb560e01b815260040160405180910390fd5b600080546040516370a0823160e01b81523360048201526001600160a01b03909116906370a0823190602401602060405180830381865afa15801561022f573d6000803e3d6000fd5b505050506040513d601f19601f8201168201806040525081019061025391906109e7565b6003546000546040517f69328dec0000000000000000000000000000000000000000000000000000000081526001600160a01b0391821660048201526024810186905233604482015292935016906369328dec90606401600060405180830381600087803b1580156102c457600080fd5b505af11580156102d8573d6000803e3d6000fd5b5050505081816102e89190610a00565b6000546040516370a0823160e01b81523360048201526001600160a01b03909116906370a0823190602401602060405180830381865afa158015610330573d6000803e3d6000fd5b505050506040513d601f19601f8201168201806040525081019061035491906109e7565b146103cc5760405162461bcd60e51b815260206004820152602960248201527f44445a65726f4c656e642f696e636f72726563742d7a61692d62616c616e636560448201527f2d7265636569766564000000000000000000000000000000000000000000000060648201526084015b60405180910390fd5b5050565b60008054600480546040516370a0823160e01b81526001600160a01b03918216928101929092526104549216906370a0823190602401602060405180830381865afa158015610423573d6000803e3d6000fd5b505050506040513d601f19601f8201168201806040525081019061044791906109e7565b61044f6105b6565b610945565b905090565b6001546001600160a01b031633146104845760405163ea8e4eb560e01b815260040160405180910390fd5b6000546002546040517f23b872dd0000000000000000000000000000000000000000000000000000000081523360048201526001600160a01b039182166024820152604481018490529116906323b872dd906064016020604051808303816000875af11580156104f8573d6000803e3d6000fd5b505050506040513d601f19601f8201168201806040525081019061051c9190610a40565b50600354600080546002546040517f617ba0370000000000000000000000000000000000000000000000000000000081526001600160a01b03928316600482015260248101869052908216604482015260648101929092529091169063617ba03790608401600060405180830381600087803b15801561059b57600080fd5b505af11580156105af573d6000803e3d6000fd5b5050505050565b600480546002546040516370a0823160e01b81526001600160a01b03918216938101939093526000929116906370a0823190602401602060405180830381865afa158015610608573d6000803e3d6000fd5b505050506040513d601f19601f8201168201806040525081019061045491906109e7565b7ff0c57e16840df040f15088dc2f81fe391c3923bec73e23a9662efc9c229c6a0080546001919068010000000000000000900460ff168061067b5750805467ffffffffffffffff808416911610155b156106b2576040517ff92ee8a900000000000000000000000000000000000000000000000000000000815260040160405180910390fd5b805468ffffffffffffffffff191667ffffffffffffffff831617680100000000000000001781556107298587600080546001600160a01b0393841673ffffffffffffffffffffffffffffffffffffffff19918216179091556001805492909316918116919091179091556002805490911630179055565b600380546001600160a01b0380871673ffffffffffffffffffffffffffffffffffffffff199283161790925560048054868416921691909117905586166107b25760405162461bcd60e51b815260206004820152601760248201527f44445a65726f4c656e642f7a65726f2d6164647265737300000000000000000060448201526064016103c3565b6001600160a01b0385166108085760405162461bcd60e51b815260206004820152601760248201527f44445a65726f4c656e642f7a65726f2d6164647265737300000000000000000060448201526064016103c3565b6001600160a01b03841661085e5760405162461bcd60e51b815260206004820152601760248201527f44445a65726f4c656e642f7a65726f2d6164647265737300000000000000000060448201526064016103c3565b6000546040517f095ea7b30000000000000000000000000000000000000000000000000000000081526001600160a01b03868116600483015260001960248301529091169063095ea7b3906044016020604051808303816000875af11580156108cb573d6000803e3d6000fd5b505050506040513d601f19601f820116820180604052508101906108ef9190610a40565b50805468ff00000000000000001916815560405167ffffffffffffffff831681527fc7f505b2f371ae2175ee4913f4499e1f2633a7b5936321eed1cdaeb6115181d29060200160405180910390a1505050505050565b6000818311156109555781610957565b825b9392505050565b60006020828403121561097057600080fd5b5035919050565b80356001600160a01b038116811461098e57600080fd5b919050565b600080600080608085870312156109a957600080fd5b6109b285610977565b93506109c060208601610977565b92506109ce60408601610977565b91506109dc60608601610977565b905092959194509250565b6000602082840312156109f957600080fd5b5051919050565b80820180821115610a3a577f4e487b7100000000000000000000000000000000000000000000000000000000600052601160045260246000fd5b92915050565b600060208284031215610a5257600080fd5b8151801515811461095757600080fdfea26469706673582212207af821627d340fbe3e7e1d07f47f556888c17e4c8579f346346a91385952e59564736f6c63430008150033",
  "devdoc": {
    "author": "maha.xyz",
    "errors": {
      "InvalidInitialization()": [
        {
          "details": "The contract is already initialized."
        }
      ],
      "NotInitializing()": [
        {
          "details": "The contract is not initializing."
        }
      ]
    },
    "events": {
      "Initialized(uint64)": {
        "details": "Triggered when the contract has been initialized or reinitialized."
      }
    },
    "kind": "dev",
    "methods": {
      "assetBalance()": {
        "details": "This could be greater than the amount the pool can withdraw due to lack of liquidity.",
        "returns": {
          "_0": "uint256 number of assets in ZAI"
        }
      },
      "deposit(uint256)": {
        "details": "If the external pool requires a different amount to be passed in, the conversion should occur here as the Hub passes ZAI amounts.msg.sender must be the hub.",
        "params": {
          "amount": "amount in asset (ZAI) terms that we want to deposit"
        }
      },
      "maxDeposit()": {
        "returns": {
          "_0": "uint256 number of assets in ZAI"
        }
      },
      "maxWithdraw()": {
        "returns": {
          "_0": "uint256 number of assets in ZAI"
        }
      },
      "withdraw(uint256)": {
        "details": "If the external pool requires a different amount to be passed in the conversion should occur here as the Hub passes ZAI amounts.msg.sender must be the hub.",
        "params": {
          "amount": "amount in asset (ZAI) terms that we want to withdraw"
        }
      }
    },
    "title": "ZeroLend Direct Deposit Module",
    "version": 1
  },
  "userdoc": {
    "kind": "user",
    "methods": {
      "assetBalance()": {
        "notice": "Balance of assets this pool \"owns\"."
      },
      "deposit(uint256)": {
        "notice": "Deposit assets (ZAI) in the external pool."
      },
      "hub()": {
        "notice": "The Direct Deposit module hub"
      },
      "maxDeposit()": {
        "notice": "Maximum number of assets the pool could deposit at present."
      },
      "maxWithdraw()": {
        "notice": "Maximum number of assets the pool could withdraw at present."
      },
      "postDebtChange()": {
        "notice": "Some external pools require actions after debt changes"
      },
      "preDebtChange()": {
        "notice": "Some external pools require actions before debt changes"
      },
      "redeemable()": {
        "notice": "returns address of redeemable tokens (if any)"
      },
      "withdraw(uint256)": {
        "notice": "Withdraw assets (ZAI) from the external pool."
      },
      "zai()": {
        "notice": "The ZAI Stablecoin"
      }
    },
    "notice": "A direct deposit module that deposits into ZeroLend directly",
    "version": 1
  },
  "storageLayout": {
    "storage": [
      {
        "astId": 24441,
        "contract": "contracts/core/direct-deposit/pools/DDZeroLendV1.sol:DDZeroLendV1",
        "label": "zai",
        "offset": 0,
        "slot": "0",
        "type": "t_contract(IStablecoin)31982"
      },
      {
        "astId": 24444,
        "contract": "contracts/core/direct-deposit/pools/DDZeroLendV1.sol:DDZeroLendV1",
        "label": "hub",
        "offset": 0,
        "slot": "1",
        "type": "t_address"
      },
      {
        "astId": 24446,
        "contract": "contracts/core/direct-deposit/pools/DDZeroLendV1.sol:DDZeroLendV1",
        "label": "me",
        "offset": 0,
        "slot": "2",
        "type": "t_address"
      },
      {
        "astId": 25012,
        "contract": "contracts/core/direct-deposit/pools/DDZeroLendV1.sol:DDZeroLendV1",
        "label": "pool",
        "offset": 0,
        "slot": "3",
        "type": "t_contract(IPool)25004"
      },
      {
        "astId": 25015,
        "contract": "contracts/core/direct-deposit/pools/DDZeroLendV1.sol:DDZeroLendV1",
        "label": "z0USDz",
        "offset": 0,
        "slot": "4",
        "type": "t_contract(IERC20)14465"
      }
    ],
    "types": {
      "t_address": {
        "encoding": "inplace",
        "label": "address",
        "numberOfBytes": "20"
      },
      "t_contract(IERC20)14465": {
        "encoding": "inplace",
        "label": "contract IERC20",
        "numberOfBytes": "20"
      },
      "t_contract(IPool)25004": {
        "encoding": "inplace",
        "label": "contract IPool",
        "numberOfBytes": "20"
      },
      "t_contract(IStablecoin)31982": {
        "encoding": "inplace",
        "label": "contract IStablecoin",
        "numberOfBytes": "20"
      }
    }
  }
}