{
  "address": "0x6b89C9573be417FEc4D5f1B4daE1c619A35cA9E3",
  "abi": [
    {
      "inputs": [],
      "name": "InvalidInitialization",
      "type": "error"
    },
    {
      "inputs": [],
      "name": "NotInitializing",
      "type": "error"
    },
    {
      "inputs": [
        {
          "internalType": "address",
          "name": "owner",
          "type": "address"
        }
      ],
      "name": "OwnableInvalidOwner",
      "type": "error"
    },
    {
      "inputs": [
        {
          "internalType": "address",
          "name": "account",
          "type": "address"
        }
      ],
      "name": "OwnableUnauthorizedAccount",
      "type": "error"
    },
    {
      "anonymous": false,
      "inputs": [
        {
          "indexed": false,
          "internalType": "uint64",
          "name": "version",
          "type": "uint64"
        }
      ],
      "name": "Initialized",
      "type": "event"
    },
    {
      "anonymous": false,
      "inputs": [
        {
          "indexed": true,
          "internalType": "address",
          "name": "previousOwner",
          "type": "address"
        },
        {
          "indexed": true,
          "internalType": "address",
          "name": "newOwner",
          "type": "address"
        }
      ],
      "name": "OwnershipTransferred",
      "type": "event"
    },
    {
      "inputs": [
        {
          "internalType": "address",
          "name": "_usdc",
          "type": "address"
        },
        {
          "internalType": "address",
          "name": "_owner",
          "type": "address"
        }
      ],
      "name": "initialize",
      "outputs": [],
      "stateMutability": "nonpayable",
      "type": "function"
    },
    {
      "inputs": [],
      "name": "owner",
      "outputs": [
        {
          "internalType": "address",
          "name": "",
          "type": "address"
        }
      ],
      "stateMutability": "view",
      "type": "function"
    },
    {
      "inputs": [],
      "name": "renounceOwnership",
      "outputs": [],
      "stateMutability": "nonpayable",
      "type": "function"
    },
    {
      "inputs": [
        {
          "internalType": "address",
          "name": "newOwner",
          "type": "address"
        }
      ],
      "name": "transferOwnership",
      "outputs": [],
      "stateMutability": "nonpayable",
      "type": "function"
    }
  ],
  "transactionHash": "0x82c3ec7d4c982b1817bccc2a0848fc77a63dc42cddf848f6c048453c9784e546",
  "args": [],
  "numDeployments": 1,
  "solcInputHash": "ec4a27fa97e6d9916d1332968874d8e2",
  "bytecode": "0x608060405234801561001057600080fd5b50610483806100206000396000f3fe608060405234801561001057600080fd5b506004361061004c5760003560e01c8063485cc95514610051578063715018a6146100665780638da5cb5b1461006e578063f2fde38b1461008c575b600080fd5b61006461005f3660046103a9565b61009f565b005b610064610261565b610076610275565b60405161008391906103dc565b60405180910390f35b61006461009a3660046103f0565b6102a3565b7ff0c57e16840df040f15088dc2f81fe391c3923bec73e23a9662efc9c229c6a00805460639190600160401b900460ff16806100e95750805467ffffffffffffffff808416911610155b156101075760405163f92ee8a960e01b815260040160405180910390fd5b805468ffffffffffffffffff191667ffffffffffffffff831617600160401b1781556040516370a0823160e01b815284906001600160a01b0382169063a9059cbb90869083906370a08231906101619030906004016103dc565b602060405180830381865afa15801561017e573d6000803e3d6000fd5b505050506040513d601f19601f820116820180604052508101906101a29190610412565b6040516001600160e01b031960e085901b1681526001600160a01b03909216600483015260248201526044016020604051808303816000875af11580156101ed573d6000803e3d6000fd5b505050506040513d601f19601f82011682018060405250810190610211919061042b565b5050805460ff60401b1916815560405167ffffffffffffffff831681527fc7f505b2f371ae2175ee4913f4499e1f2633a7b5936321eed1cdaeb6115181d29060200160405180910390a150505050565b6102696102ea565b610273600061031c565b565b7f9016d09d72d40fdae2fd8ceac6b6234c7706214fd39c1cd1e609a0528c199300546001600160a01b031690565b6102ab6102ea565b6001600160a01b0381166102de576000604051631e4fbdf760e01b81526004016102d591906103dc565b60405180910390fd5b6102e78161031c565b50565b336102f3610275565b6001600160a01b031614610273573360405163118cdaa760e01b81526004016102d591906103dc565b7f9016d09d72d40fdae2fd8ceac6b6234c7706214fd39c1cd1e609a0528c19930080546001600160a01b031981166001600160a01b03848116918217845560405192169182907f8be0079c531659141344cd1fd0a4f28419497f9722a3daafe3b4186f6b6457e090600090a3505050565b80356001600160a01b03811681146103a457600080fd5b919050565b600080604083850312156103bc57600080fd5b6103c58361038d565b91506103d36020840161038d565b90509250929050565b6001600160a01b0391909116815260200190565b60006020828403121561040257600080fd5b61040b8261038d565b9392505050565b60006020828403121561042457600080fd5b5051919050565b60006020828403121561043d57600080fd5b8151801515811461040b57600080fdfea2646970667358221220ab01ce96e4d9c39892c855616d9fe394d78863a8b190b47cd1a47d3e19777a4564736f6c63430008150033",
  "devdoc": {
    "errors": {
      "InvalidInitialization()": [
        {
          "details": "The contract is already initialized."
        }
      ],
      "NotInitializing()": [
        {
          "details": "The contract is not initializing."
        }
      ],
      "OwnableInvalidOwner(address)": [
        {
          "details": "The owner is not a valid owner account. (eg. `address(0)`)"
        }
      ],
      "OwnableUnauthorizedAccount(address)": [
        {
          "details": "The caller account is not authorized to perform an operation."
        }
      ]
    },
    "events": {
      "Initialized(uint64)": {
        "details": "Triggered when the contract has been initialized or reinitialized."
      }
    },
    "kind": "dev",
    "methods": {
      "owner()": {
        "details": "Returns the address of the current owner."
      },
      "renounceOwnership()": {
        "details": "Leaves the contract without owner. It will not be possible to call `onlyOwner` functions. Can only be called by the current owner. NOTE: Renouncing ownership will leave the contract without an owner, thereby disabling any functionality that is only available to the owner."
      },
      "transferOwnership(address)": {
        "details": "Transfers ownership of the contract to a new account (`newOwner`). Can only be called by the current owner."
      }
    },
    "version": 1
  },
  "userdoc": {
    "kind": "user",
    "methods": {},
    "notice": "Contract to recover a ERC20 token from a proxy contract to a wallet",
    "version": 1
  },
  "storageLayout": {
    "storage": [],
    "types": null
  }
}