{
  "address": "0x43630aB966Bbd4db219f44aB9487858d08f54cb2",
  "abi": [
    {
      "inputs": [],
      "name": "InvalidInitialization",
      "type": "error"
    },
    {
      "inputs": [
        {
          "internalType": "address",
          "name": "expectedSender",
          "type": "address"
        },
        {
          "internalType": "address",
          "name": "actualSender",
          "type": "address"
        }
      ],
      "name": "InvalidSender",
      "type": "error"
    },
    {
      "inputs": [],
      "name": "InvalidTokenReceived",
      "type": "error"
    },
    {
      "inputs": [],
      "name": "InvalidZeroInput",
      "type": "error"
    },
    {
      "inputs": [],
      "name": "NotInitializing",
      "type": "error"
    },
    {
      "inputs": [],
      "name": "ReentrancyGuardReentrantCall",
      "type": "error"
    },
    {
      "anonymous": false,
      "inputs": [
        {
          "indexed": false,
          "internalType": "uint64",
          "name": "version",
          "type": "uint64"
        }
      ],
      "name": "Initialized",
      "type": "event"
    },
    {
      "anonymous": false,
      "inputs": [
        {
          "indexed": false,
          "internalType": "bytes32",
          "name": "transferId",
          "type": "bytes32"
        },
        {
          "indexed": false,
          "internalType": "uint256",
          "name": "amountDeposited",
          "type": "uint256"
        },
        {
          "indexed": false,
          "internalType": "uint32",
          "name": "origin",
          "type": "uint32"
        },
        {
          "indexed": false,
          "internalType": "address",
          "name": "originSender",
          "type": "address"
        },
        {
          "indexed": false,
          "internalType": "uint256",
          "name": "minted",
          "type": "uint256"
        }
      ],
      "name": "ZaiMinted",
      "type": "event"
    },
    {
      "inputs": [],
      "name": "collateral",
      "outputs": [
        {
          "internalType": "contract IERC20",
          "name": "",
          "type": "address"
        }
      ],
      "stateMutability": "view",
      "type": "function"
    },
    {
      "inputs": [],
      "name": "connext",
      "outputs": [
        {
          "internalType": "address",
          "name": "",
          "type": "address"
        }
      ],
      "stateMutability": "view",
      "type": "function"
    },
    {
      "inputs": [
        {
          "internalType": "contract IERC20",
          "name": "_zai",
          "type": "address"
        },
        {
          "internalType": "contract IERC20",
          "name": "_xZai",
          "type": "address"
        },
        {
          "internalType": "contract IPegStabilityModule",
          "name": "_psm",
          "type": "address"
        },
        {
          "internalType": "contract IERC20",
          "name": "_collateral",
          "type": "address"
        },
        {
          "internalType": "contract IXERC20Lockbox",
          "name": "_lockbox",
          "type": "address"
        },
        {
          "internalType": "address",
          "name": "_connext",
          "type": "address"
        }
      ],
      "name": "initialize",
      "outputs": [],
      "stateMutability": "nonpayable",
      "type": "function"
    },
    {
      "inputs": [],
      "name": "lockbox",
      "outputs": [
        {
          "internalType": "contract IXERC20Lockbox",
          "name": "",
          "type": "address"
        }
      ],
      "stateMutability": "view",
      "type": "function"
    },
    {
      "inputs": [],
      "name": "psm",
      "outputs": [
        {
          "internalType": "contract IPegStabilityModule",
          "name": "",
          "type": "address"
        }
      ],
      "stateMutability": "view",
      "type": "function"
    },
    {
      "inputs": [
        {
          "internalType": "bytes32",
          "name": "_transferId",
          "type": "bytes32"
        },
        {
          "internalType": "uint256",
          "name": "_amount",
          "type": "uint256"
        },
        {
          "internalType": "address",
          "name": "_asset",
          "type": "address"
        },
        {
          "internalType": "address",
          "name": "_originSender",
          "type": "address"
        },
        {
          "internalType": "uint32",
          "name": "_origin",
          "type": "uint32"
        },
        {
          "internalType": "bytes",
          "name": "",
          "type": "bytes"
        }
      ],
      "name": "xReceive",
      "outputs": [
        {
          "internalType": "bytes",
          "name": "",
          "type": "bytes"
        }
      ],
      "stateMutability": "nonpayable",
      "type": "function"
    },
    {
      "inputs": [],
      "name": "xZAI",
      "outputs": [
        {
          "internalType": "contract IERC20",
          "name": "",
          "type": "address"
        }
      ],
      "stateMutability": "view",
      "type": "function"
    },
    {
      "inputs": [],
      "name": "zai",
      "outputs": [
        {
          "internalType": "contract IERC20",
          "name": "",
          "type": "address"
        }
      ],
      "stateMutability": "view",
      "type": "function"
    }
  ],
  "transactionHash": "0xd4170f739cf32f4ccbd2ab28266afc50523ba1148b18254af59e3a676fa60a34",
  "args": [],
  "numDeployments": 1,
  "solcInputHash": "5e5b74a0eae3989730f63272dfc04123",
  "bytecode": "0x608060405234801561001057600080fd5b50610d2f806100206000396000f3fe608060405234801561001057600080fd5b50600436106100885760003560e01c8063cc2a9a5b1161005b578063cc2a9a5b146100f6578063d8dfeb451461010b578063de4b05481461011e578063fd614f411461013157600080fd5b806304bda2621461008d57806307140b34146100bd5780631d976939146100d057806366cc5702146100e3575b600080fd5b6002546100a0906001600160a01b031681565b6040516001600160a01b0390911681526020015b60405180910390f35b6001546100a0906001600160a01b031681565b6000546100a0906001600160a01b031681565b6004546100a0906001600160a01b031681565b610109610104366004610aa6565b610151565b005b6003546100a0906001600160a01b031681565b6005546100a0906001600160a01b031681565b61014461013f366004610b3e565b61046d565b6040516100b49190610c42565b7ff0c57e16840df040f15088dc2f81fe391c3923bec73e23a9662efc9c229c6a00805468010000000000000000810460ff16159067ffffffffffffffff1660008115801561019c5750825b905060008267ffffffffffffffff1660011480156101b95750303b155b9050811580156101c7575080155b156101fe576040517ff92ee8a900000000000000000000000000000000000000000000000000000000815260040160405180910390fd5b845467ffffffffffffffff19166001178555831561023257845468ff00000000000000001916680100000000000000001785555b6001600160a01b038b16158061024f57506001600160a01b038a16155b8061026157506001600160a01b038916155b8061027357506001600160a01b038816155b8061028557506001600160a01b038716155b8061029757506001600160a01b038616155b156102b55760405163862a606760e01b815260040160405180910390fd5b600180547fffffffffffffffffffffffff00000000000000000000000000000000000000009081166001600160a01b038e81169182179093556000805483168e85161790556002805483168d85161790556003805483168c85161790556004805483168b8516908117825560058054909416948b169490941790925560405163095ea7b360e01b815291820192909252600019602482015263095ea7b3906044016020604051808303816000875af1158015610375573d6000803e3d6000fd5b505050506040513d601f19601f820116820180604052508101906103999190610c90565b5060035460025460405163095ea7b360e01b81526001600160a01b039182166004820152600019602482015291169063095ea7b3906044016020604051808303816000875af11580156103f0573d6000803e3d6000fd5b505050506040513d601f19601f820116820180604052508101906104149190610c90565b50831561046057845468ff000000000000000019168555604051600181527fc7f505b2f371ae2175ee4913f4499e1f2633a7b5936321eed1cdaeb6115181d29060200160405180910390a15b5050505050505050505050565b6060610477610a2b565b6005546001600160a01b031633146104d4576005546040517fe1130dba0000000000000000000000000000000000000000000000000000000081526001600160a01b03909116600482015233602482015260440160405180910390fd5b6003546001600160a01b0386811691161461051b576040517f6d5f86d500000000000000000000000000000000000000000000000000000000815260040160405180910390fd5b8560000361053c5760405163862a606760e01b815260040160405180910390fd5b6003546040516370a0823160e01b81523060048201526000916001600160a01b0316906370a0823190602401602060405180830381865afa158015610585573d6000803e3d6000fd5b505050506040513d601f19601f820116820180604052508101906105a99190610cb9565b6001546040516370a0823160e01b81523060048201529192506000916001600160a01b03909116906370a0823190602401602060405180830381865afa1580156105f7573d6000803e3d6000fd5b505050506040513d601f19601f8201168201806040525081019061061b9190610cb9565b6002546040517f1f80b95a000000000000000000000000000000000000000000000000000000008152600481018590529192506001600160a01b0316906340c10f199030908390631f80b95a90602401602060405180830381865afa158015610688573d6000803e3d6000fd5b505050506040513d601f19601f820116820180604052508101906106ac9190610cb9565b6040517fffffffff0000000000000000000000000000000000000000000000000000000060e085901b1681526001600160a01b0390921660048301526024820152604401600060405180830381600087803b15801561070a57600080fd5b505af115801561071e573d6000803e3d6000fd5b50506001546040516370a0823160e01b8152306004820152600093508492506001600160a01b03909116906370a0823190602401602060405180830381865afa15801561076f573d6000803e3d6000fd5b505050506040513d601f19601f820116820180604052508101906107939190610cb9565b61079d9190610cd2565b600080546040516370a0823160e01b815230600482015292935090916001600160a01b03909116906370a0823190602401602060405180830381865afa1580156107eb573d6000803e3d6000fd5b505050506040513d601f19601f8201168201806040525081019061080f9190610cb9565b600480546040517fb6b55f250000000000000000000000000000000000000000000000000000000081529293506001600160a01b03169163b6b55f259161085c9186910190815260200190565b600060405180830381600087803b15801561087657600080fd5b505af115801561088a573d6000803e3d6000fd5b5050600080546040516370a0823160e01b81523060048201529193508492506001600160a01b0316906370a0823190602401602060405180830381865afa1580156108d9573d6000803e3d6000fd5b505050506040513d601f19601f820116820180604052508101906108fd9190610cb9565b6109079190610cd2565b6000546040517f9dc29fac000000000000000000000000000000000000000000000000000000008152306004820152602481018390529192506001600160a01b031690639dc29fac90604401600060405180830381600087803b15801561096d57600080fd5b505af1158015610981573d6000803e3d6000fd5b5050604080518f8152602081018f905263ffffffff8c16818301526001600160a01b038d1660608201526080810187905290517fb778382b756076f5721b453189e2612ce9954f7eb3eae95c7c2992924985f5d893509081900360a0019150a1505060408051600081526020810190915260017f9b779b17422d0df92223018b32b4d1fa46e071723d6817e2486d003becc55f00559350610a2192505050565b9695505050505050565b7f9b779b17422d0df92223018b32b4d1fa46e071723d6817e2486d003becc55f00805460011901610a88576040517f3ee5aeb500000000000000000000000000000000000000000000000000000000815260040160405180910390fd5b60029055565b6001600160a01b0381168114610aa357600080fd5b50565b60008060008060008060c08789031215610abf57600080fd5b8635610aca81610a8e565b95506020870135610ada81610a8e565b94506040870135610aea81610a8e565b93506060870135610afa81610a8e565b92506080870135610b0a81610a8e565b915060a0870135610b1a81610a8e565b809150509295509295509295565b634e487b7160e01b600052604160045260246000fd5b60008060008060008060c08789031215610b5757600080fd5b86359550602087013594506040870135610b7081610a8e565b93506060870135610b8081610a8e565b9250608087013563ffffffff81168114610b9957600080fd5b915060a087013567ffffffffffffffff80821115610bb657600080fd5b818901915089601f830112610bca57600080fd5b813581811115610bdc57610bdc610b28565b604051601f8201601f19908116603f01168101908382118183101715610c0457610c04610b28565b816040528281528c6020848701011115610c1d57600080fd5b8260208601602083013760006020848301015280955050505050509295509295509295565b600060208083528351808285015260005b81811015610c6f57858101830151858201604001528201610c53565b506000604082860101526040601f19601f8301168501019250505092915050565b600060208284031215610ca257600080fd5b81518015158114610cb257600080fd5b9392505050565b600060208284031215610ccb57600080fd5b5051919050565b81810381811115610cf357634e487b7160e01b600052601160045260246000fd5b9291505056fea2646970667358221220cf8b15b7fa2a1fb2901552ff9ce9471a3183a42284a972c169f7159e7df0adf464736f6c63430008150033",
  "devdoc": {
    "errors": {
      "InvalidInitialization()": [
        {
          "details": "The contract is already initialized."
        }
      ],
      "InvalidSender(address,address)": [
        {
          "details": "Error when the sender is not expected"
        }
      ],
      "InvalidTokenReceived()": [
        {
          "details": "Error when the token received over the bridge is not the one expected"
        }
      ],
      "InvalidZeroInput()": [
        {
          "details": "Error for 0x0 address inputs"
        }
      ],
      "NotInitializing()": [
        {
          "details": "The contract is not initializing."
        }
      ],
      "ReentrancyGuardReentrantCall()": [
        {
          "details": "Unauthorized reentrant call."
        }
      ]
    },
    "events": {
      "Initialized(uint64)": {
        "details": "Triggered when the contract has been initialized or reinitialized."
      },
      "ZaiMinted(bytes32,uint256,uint32,address,uint256)": {
        "details": "Event emitted when bridge triggers mint"
      }
    },
    "kind": "dev",
    "methods": {
      "initialize(address,address,address,address,address,address)": {
        "details": "Initializes the contract with initial vars"
      },
      "xReceive(bytes32,uint256,address,address,uint32,bytes)": {
        "details": "This function will take all collateral and deposit it into maha          The ZAI from the deposit will be sent to the lockbox to be wrapped into xZAI          The xZAI will be burned so that the xZAI on the L2 can be unwrapped for ZAI later"
      }
    },
    "version": 1
  },
  "userdoc": {
    "kind": "user",
    "methods": {
      "collateral()": {
        "notice": "The wETH token address - will be sent via bridge from L2"
      },
      "connext()": {
        "notice": "The address of the main Connext contract"
      },
      "lockbox()": {
        "notice": "The lockbox contract for ZAI - minted ZAI is sent here"
      },
      "psm()": {
        "notice": "The RestakeManager contract - deposits into the protocol are restaked here"
      },
      "xReceive(bytes32,uint256,address,address,uint32,bytes)": {
        "notice": "Accepts collateral from the bridge"
      },
      "xZAI()": {
        "notice": "The xZAI token address"
      },
      "zai()": {
        "notice": "The zai token address"
      }
    },
    "version": 1
  },
  "storageLayout": {
    "storage": [
      {
        "astId": 29400,
        "contract": "contracts/periphery/connext/L1BridgeCollateralConnext.sol:L1BridgeCollateralConnext",
        "label": "xZAI",
        "offset": 0,
        "slot": "0",
        "type": "t_contract(IERC20)10535"
      },
      {
        "astId": 29404,
        "contract": "contracts/periphery/connext/L1BridgeCollateralConnext.sol:L1BridgeCollateralConnext",
        "label": "zai",
        "offset": 0,
        "slot": "1",
        "type": "t_contract(IERC20)10535"
      },
      {
        "astId": 29408,
        "contract": "contracts/periphery/connext/L1BridgeCollateralConnext.sol:L1BridgeCollateralConnext",
        "label": "psm",
        "offset": 0,
        "slot": "2",
        "type": "t_contract(IPegStabilityModule)27312"
      },
      {
        "astId": 29412,
        "contract": "contracts/periphery/connext/L1BridgeCollateralConnext.sol:L1BridgeCollateralConnext",
        "label": "collateral",
        "offset": 0,
        "slot": "3",
        "type": "t_contract(IERC20)10535"
      },
      {
        "astId": 29416,
        "contract": "contracts/periphery/connext/L1BridgeCollateralConnext.sol:L1BridgeCollateralConnext",
        "label": "lockbox",
        "offset": 0,
        "slot": "4",
        "type": "t_contract(IXERC20Lockbox)28655"
      },
      {
        "astId": 29419,
        "contract": "contracts/periphery/connext/L1BridgeCollateralConnext.sol:L1BridgeCollateralConnext",
        "label": "connext",
        "offset": 0,
        "slot": "5",
        "type": "t_address"
      }
    ],
    "types": {
      "t_address": {
        "encoding": "inplace",
        "label": "address",
        "numberOfBytes": "20"
      },
      "t_contract(IERC20)10535": {
        "encoding": "inplace",
        "label": "contract IERC20",
        "numberOfBytes": "20"
      },
      "t_contract(IPegStabilityModule)27312": {
        "encoding": "inplace",
        "label": "contract IPegStabilityModule",
        "numberOfBytes": "20"
      },
      "t_contract(IXERC20Lockbox)28655": {
        "encoding": "inplace",
        "label": "contract IXERC20Lockbox",
        "numberOfBytes": "20"
      }
    }
  }
}