{
  "address": "0x17A71d4B54179315fF0aEE17a246e3004d07bb33",
  "abi": [
    {
      "inputs": [
        {
          "internalType": "contract IPegStabilityModule",
          "name": "_psm",
          "type": "address"
        },
        {
          "internalType": "address",
          "name": "_adapter",
          "type": "address"
        },
        {
          "internalType": "address",
          "name": "_endpoint",
          "type": "address"
        }
      ],
      "stateMutability": "nonpayable",
      "type": "constructor"
    },
    {
      "inputs": [],
      "name": "InvalidDelegate",
      "type": "error"
    },
    {
      "inputs": [],
      "name": "InvalidEndpointCall",
      "type": "error"
    },
    {
      "inputs": [],
      "name": "LzTokenUnavailable",
      "type": "error"
    },
    {
      "inputs": [
        {
          "internalType": "uint32",
          "name": "eid",
          "type": "uint32"
        }
      ],
      "name": "NoPeer",
      "type": "error"
    },
    {
      "inputs": [
        {
          "internalType": "uint256",
          "name": "msgValue",
          "type": "uint256"
        }
      ],
      "name": "NotEnoughNative",
      "type": "error"
    },
    {
      "inputs": [
        {
          "internalType": "address",
          "name": "addr",
          "type": "address"
        }
      ],
      "name": "OnlyEndpoint",
      "type": "error"
    },
    {
      "inputs": [
        {
          "internalType": "uint32",
          "name": "eid",
          "type": "uint32"
        },
        {
          "internalType": "bytes32",
          "name": "sender",
          "type": "bytes32"
        }
      ],
      "name": "OnlyPeer",
      "type": "error"
    },
    {
      "inputs": [
        {
          "internalType": "address",
          "name": "owner",
          "type": "address"
        }
      ],
      "name": "OwnableInvalidOwner",
      "type": "error"
    },
    {
      "inputs": [
        {
          "internalType": "address",
          "name": "account",
          "type": "address"
        }
      ],
      "name": "OwnableUnauthorizedAccount",
      "type": "error"
    },
    {
      "anonymous": false,
      "inputs": [
        {
          "indexed": true,
          "internalType": "address",
          "name": "previousOwner",
          "type": "address"
        },
        {
          "indexed": true,
          "internalType": "address",
          "name": "newOwner",
          "type": "address"
        }
      ],
      "name": "OwnershipTransferred",
      "type": "event"
    },
    {
      "anonymous": false,
      "inputs": [
        {
          "indexed": false,
          "internalType": "uint32",
          "name": "eid",
          "type": "uint32"
        },
        {
          "indexed": false,
          "internalType": "bytes32",
          "name": "peer",
          "type": "bytes32"
        }
      ],
      "name": "PeerSet",
      "type": "event"
    },
    {
      "inputs": [],
      "name": "adapter",
      "outputs": [
        {
          "internalType": "address",
          "name": "",
          "type": "address"
        }
      ],
      "stateMutability": "view",
      "type": "function"
    },
    {
      "inputs": [
        {
          "components": [
            {
              "internalType": "uint32",
              "name": "srcEid",
              "type": "uint32"
            },
            {
              "internalType": "bytes32",
              "name": "sender",
              "type": "bytes32"
            },
            {
              "internalType": "uint64",
              "name": "nonce",
              "type": "uint64"
            }
          ],
          "internalType": "struct Origin",
          "name": "origin",
          "type": "tuple"
        }
      ],
      "name": "allowInitializePath",
      "outputs": [
        {
          "internalType": "bool",
          "name": "",
          "type": "bool"
        }
      ],
      "stateMutability": "view",
      "type": "function"
    },
    {
      "inputs": [],
      "name": "collateral",
      "outputs": [
        {
          "internalType": "contract IERC20",
          "name": "",
          "type": "address"
        }
      ],
      "stateMutability": "view",
      "type": "function"
    },
    {
      "inputs": [],
      "name": "endpoint",
      "outputs": [
        {
          "internalType": "contract ILayerZeroEndpointV2",
          "name": "",
          "type": "address"
        }
      ],
      "stateMutability": "view",
      "type": "function"
    },
    {
      "inputs": [
        {
          "components": [
            {
              "internalType": "uint32",
              "name": "srcEid",
              "type": "uint32"
            },
            {
              "internalType": "bytes32",
              "name": "sender",
              "type": "bytes32"
            },
            {
              "internalType": "uint64",
              "name": "nonce",
              "type": "uint64"
            }
          ],
          "internalType": "struct Origin",
          "name": "",
          "type": "tuple"
        },
        {
          "internalType": "bytes",
          "name": "",
          "type": "bytes"
        },
        {
          "internalType": "address",
          "name": "_sender",
          "type": "address"
        }
      ],
      "name": "isComposeMsgSender",
      "outputs": [
        {
          "internalType": "bool",
          "name": "",
          "type": "bool"
        }
      ],
      "stateMutability": "view",
      "type": "function"
    },
    {
      "inputs": [
        {
          "components": [
            {
              "internalType": "uint32",
              "name": "srcEid",
              "type": "uint32"
            },
            {
              "internalType": "bytes32",
              "name": "sender",
              "type": "bytes32"
            },
            {
              "internalType": "uint64",
              "name": "nonce",
              "type": "uint64"
            }
          ],
          "internalType": "struct Origin",
          "name": "_origin",
          "type": "tuple"
        },
        {
          "internalType": "bytes32",
          "name": "_guid",
          "type": "bytes32"
        },
        {
          "internalType": "bytes",
          "name": "_message",
          "type": "bytes"
        },
        {
          "internalType": "address",
          "name": "_executor",
          "type": "address"
        },
        {
          "internalType": "bytes",
          "name": "_extraData",
          "type": "bytes"
        }
      ],
      "name": "lzReceive",
      "outputs": [],
      "stateMutability": "payable",
      "type": "function"
    },
    {
      "inputs": [
        {
          "internalType": "uint32",
          "name": "",
          "type": "uint32"
        },
        {
          "internalType": "bytes32",
          "name": "",
          "type": "bytes32"
        }
      ],
      "name": "nextNonce",
      "outputs": [
        {
          "internalType": "uint64",
          "name": "nonce",
          "type": "uint64"
        }
      ],
      "stateMutability": "view",
      "type": "function"
    },
    {
      "inputs": [],
      "name": "oAppVersion",
      "outputs": [
        {
          "internalType": "uint64",
          "name": "senderVersion",
          "type": "uint64"
        },
        {
          "internalType": "uint64",
          "name": "receiverVersion",
          "type": "uint64"
        }
      ],
      "stateMutability": "pure",
      "type": "function"
    },
    {
      "inputs": [],
      "name": "owner",
      "outputs": [
        {
          "internalType": "address",
          "name": "",
          "type": "address"
        }
      ],
      "stateMutability": "view",
      "type": "function"
    },
    {
      "inputs": [
        {
          "internalType": "uint32",
          "name": "eid",
          "type": "uint32"
        }
      ],
      "name": "peers",
      "outputs": [
        {
          "internalType": "bytes32",
          "name": "peer",
          "type": "bytes32"
        }
      ],
      "stateMutability": "view",
      "type": "function"
    },
    {
      "inputs": [],
      "name": "process",
      "outputs": [],
      "stateMutability": "nonpayable",
      "type": "function"
    },
    {
      "inputs": [],
      "name": "psm",
      "outputs": [
        {
          "internalType": "contract IPegStabilityModule",
          "name": "",
          "type": "address"
        }
      ],
      "stateMutability": "view",
      "type": "function"
    },
    {
      "inputs": [
        {
          "internalType": "address",
          "name": "_token",
          "type": "address"
        }
      ],
      "name": "recall",
      "outputs": [],
      "stateMutability": "nonpayable",
      "type": "function"
    },
    {
      "inputs": [],
      "name": "renounceOwnership",
      "outputs": [],
      "stateMutability": "nonpayable",
      "type": "function"
    },
    {
      "inputs": [
        {
          "internalType": "address",
          "name": "_delegate",
          "type": "address"
        }
      ],
      "name": "setDelegate",
      "outputs": [],
      "stateMutability": "nonpayable",
      "type": "function"
    },
    {
      "inputs": [
        {
          "internalType": "uint32",
          "name": "_eid",
          "type": "uint32"
        },
        {
          "internalType": "bytes32",
          "name": "_peer",
          "type": "bytes32"
        }
      ],
      "name": "setPeer",
      "outputs": [],
      "stateMutability": "nonpayable",
      "type": "function"
    },
    {
      "inputs": [],
      "name": "stablecoin",
      "outputs": [
        {
          "internalType": "contract IERC20",
          "name": "",
          "type": "address"
        }
      ],
      "stateMutability": "view",
      "type": "function"
    },
    {
      "inputs": [
        {
          "internalType": "address",
          "name": "newOwner",
          "type": "address"
        }
      ],
      "name": "transferOwnership",
      "outputs": [],
      "stateMutability": "nonpayable",
      "type": "function"
    }
  ],
  "transactionHash": "0xc3e693b023768a5c2ddfcfff748d96d889dc013d910d940b37cedc383fe46991",
  "args": [
    "0x69000052a82e218ccb61fe6e9d7e3f87b9c5916f",
    "0x90fD843fA0222E4222b5b8F2c839699eE84e50a0",
    "0x1a44076050125825900e736c501f859c50fE728c"
  ],
  "numDeployments": 1,
  "solcInputHash": "6f6b75901247304b9d38ebd88cc166e1",
  "bytecode": "0x6101206040523480156200001257600080fd5b506040516200115238038062001152833981016040819052620000359162000347565b8033818180806200006157604051631e4fbdf760e01b8152600060048201526024015b60405180910390fd5b6200006c81620002de565b506001600160a01b0380831660805281166200009b57604051632d618d8160e21b815260040160405180910390fd5b60805160405163ca5eb5e160e01b81526001600160a01b0383811660048301529091169063ca5eb5e190602401600060405180830381600087803b158015620000e357600080fd5b505af1158015620000f8573d6000803e3d6000fd5b5050506001600160a01b03881694506200015a93505050505760405162461bcd60e51b815260206004820152601360248201527f496e76616c69642050534d206164647265737300000000000000000000000000604482015260640162000058565b6001600160a01b0380841660e081905290831660a052604080516301c502cd60e21b815290516307140b349160048082019260209290919082900301816000875af1158015620001ae573d6000803e3d6000fd5b505050506040513d601f19601f82011682018060405250810190620001d491906200039b565b6001600160a01b031660c0816001600160a01b031681525050826001600160a01b031663d8dfeb456040518163ffffffff1660e01b81526004016020604051808303816000875af11580156200022e573d6000803e3d6000fd5b505050506040513d601f19601f820116820180604052508101906200025491906200039b565b6001600160a01b0390811661010081905260e05160405163095ea7b360e01b81529216600483015260001960248301529063095ea7b3906044016020604051808303816000875af1158015620002ae573d6000803e3d6000fd5b505050506040513d601f19601f82011682018060405250810190620002d49190620003c2565b50505050620003e6565b600080546001600160a01b038381166001600160a01b0319831681178455604051919092169283917f8be0079c531659141344cd1fd0a4f28419497f9722a3daafe3b4186f6b6457e09190a35050565b6001600160a01b03811681146200034457600080fd5b50565b6000806000606084860312156200035d57600080fd5b83516200036a816200032e565b60208501519093506200037d816200032e565b604085015190925062000390816200032e565b809150509250925092565b600060208284031215620003ae57600080fd5b8151620003bb816200032e565b9392505050565b600060208284031215620003d557600080fd5b81518015158114620003bb57600080fd5b60805160a05160c05160e05161010051610d046200044e6000396000818161038e01526105580152600081816101910152610602015260006103c2015260008181610140015261063301526000818161021c01528181610426015261085b0152610d046000f3fe6080604052600436106101295760003560e01c80638da5cb5b116100a5578063ca5eb5e111610074578063e9cbd82211610059578063e9cbd822146103b0578063f2fde38b146103e4578063ff7bd03d1461040457600080fd5b8063ca5eb5e11461035c578063d8dfeb451461037c57600080fd5b80638da5cb5b146102ce578063bb0b6a53146102ec578063c33fb87714610327578063ca4305191461033c57600080fd5b80633400288b116100fc578063715018a6116100e1578063715018a61461023e5780637d25a05e1461025357806382413eac1461028f57600080fd5b80633400288b146101ea5780635e280f111461020a57600080fd5b806303eadcfc1461012e57806304bda2621461017f57806313137d65146101b357806317442b70146101c8575b600080fd5b34801561013a57600080fd5b506101627f000000000000000000000000000000000000000000000000000000000000000081565b6040516001600160a01b0390911681526020015b60405180910390f35b34801561018b57600080fd5b506101627f000000000000000000000000000000000000000000000000000000000000000081565b6101c66101c1366004610af7565b610424565b005b3480156101d457600080fd5b5060408051600181526002602082015201610176565b3480156101f657600080fd5b506101c6610205366004610baa565b610516565b34801561021657600080fd5b506101627f000000000000000000000000000000000000000000000000000000000000000081565b34801561024a57600080fd5b506101c661052c565b34801561025f57600080fd5b5061027661026e366004610baa565b600092915050565b60405167ffffffffffffffff9091168152602001610176565b34801561029b57600080fd5b506102be6102aa366004610bd4565b6001600160a01b0381163014949350505050565b6040519015158152602001610176565b3480156102da57600080fd5b506000546001600160a01b0316610162565b3480156102f857600080fd5b50610319610307366004610c3a565b60016020526000908152604090205481565b604051908152602001610176565b34801561033357600080fd5b506101c6610540565b34801561034857600080fd5b506101c6610357366004610c5c565b61071a565b34801561036857600080fd5b506101c6610377366004610c5c565b61081b565b34801561038857600080fd5b506101627f000000000000000000000000000000000000000000000000000000000000000081565b3480156103bc57600080fd5b506101627f000000000000000000000000000000000000000000000000000000000000000081565b3480156103f057600080fd5b506101c66103ff366004610c5c565b61088a565b34801561041057600080fd5b506102be61041f366004610c77565b6108de565b7f00000000000000000000000000000000000000000000000000000000000000006001600160a01b0316331461048d576040517f91ac5e4f0000000000000000000000000000000000000000000000000000000081523360048201526024015b60405180910390fd5b602087018035906104a7906104a2908a610c3a565b610914565b146104fe576104b96020880188610c3a565b6040517fc26bebcc00000000000000000000000000000000000000000000000000000000815263ffffffff909116600482015260208801356024820152604401610484565b61050d8787878787878761096f565b50505050505050565b61051e610977565b61052882826109bd565b5050565b610534610977565b61053e6000610a12565b565b6040516370a0823160e01b81523060048201526000907f00000000000000000000000000000000000000000000000000000000000000006001600160a01b0316906370a0823190602401602060405180830381865afa1580156105a7573d6000803e3d6000fd5b505050506040513d601f19601f820116820180604052508101906105cb9190610c93565b90508015610717576040517f1f80b95a000000000000000000000000000000000000000000000000000000008152600481018290527f00000000000000000000000000000000000000000000000000000000000000006001600160a01b0316906340c10f19907f0000000000000000000000000000000000000000000000000000000000000000908390631f80b95a90602401602060405180830381865afa15801561067b573d6000803e3d6000fd5b505050506040513d601f19601f8201168201806040525081019061069f9190610c93565b6040517fffffffff0000000000000000000000000000000000000000000000000000000060e085901b1681526001600160a01b03909216600483015260248201526044015b600060405180830381600087803b1580156106fe57600080fd5b505af1158015610712573d6000803e3d6000fd5b505050505b50565b610722610977565b6040516370a0823160e01b81523060048201526001600160a01b0382169063a9059cbb90339083906370a0823190602401602060405180830381865afa158015610770573d6000803e3d6000fd5b505050506040513d601f19601f820116820180604052508101906107949190610c93565b6040517fffffffff0000000000000000000000000000000000000000000000000000000060e085901b1681526001600160a01b03909216600483015260248201526044016020604051808303816000875af11580156107f7573d6000803e3d6000fd5b505050506040513d601f19601f820116820180604052508101906105289190610cac565b610823610977565b6040517fca5eb5e10000000000000000000000000000000000000000000000000000000081526001600160a01b0382811660048301527f0000000000000000000000000000000000000000000000000000000000000000169063ca5eb5e1906024016106e4565b610892610977565b6001600160a01b0381166108d5576040517f1e4fbdf700000000000000000000000000000000000000000000000000000000815260006004820152602401610484565b61071781610a12565b60006020820180359060019083906108f69086610c3a565b63ffffffff1681526020810191909152604001600020541492915050565b63ffffffff811660009081526001602052604081205480610969576040517ff6ff4fb700000000000000000000000000000000000000000000000000000000815263ffffffff84166004820152602401610484565b92915050565b61050d610540565b6000546001600160a01b0316331461053e576040517f118cdaa7000000000000000000000000000000000000000000000000000000008152336004820152602401610484565b63ffffffff8216600081815260016020908152604091829020849055815192835282018390527f238399d427b947898edb290f5ff0f9109849b1c3ba196a42e35f00c50a54b98b910160405180910390a15050565b600080546001600160a01b038381167fffffffffffffffffffffffff0000000000000000000000000000000000000000831681178455604051919092169283917f8be0079c531659141344cd1fd0a4f28419497f9722a3daafe3b4186f6b6457e09190a35050565b600060608284031215610a8c57600080fd5b50919050565b60008083601f840112610aa457600080fd5b50813567ffffffffffffffff811115610abc57600080fd5b602083019150836020828501011115610ad457600080fd5b9250929050565b80356001600160a01b0381168114610af257600080fd5b919050565b600080600080600080600060e0888a031215610b1257600080fd5b610b1c8989610a7a565b965060608801359550608088013567ffffffffffffffff80821115610b4057600080fd5b610b4c8b838c01610a92565b9097509550859150610b6060a08b01610adb565b945060c08a0135915080821115610b7657600080fd5b50610b838a828b01610a92565b989b979a50959850939692959293505050565b803563ffffffff81168114610af257600080fd5b60008060408385031215610bbd57600080fd5b610bc683610b96565b946020939093013593505050565b60008060008060a08587031215610bea57600080fd5b610bf48686610a7a565b9350606085013567ffffffffffffffff811115610c1057600080fd5b610c1c87828801610a92565b9094509250610c2f905060808601610adb565b905092959194509250565b600060208284031215610c4c57600080fd5b610c5582610b96565b9392505050565b600060208284031215610c6e57600080fd5b610c5582610adb565b600060608284031215610c8957600080fd5b610c558383610a7a565b600060208284031215610ca557600080fd5b5051919050565b600060208284031215610cbe57600080fd5b81518015158114610c5557600080fdfea2646970667358221220ff783974a2ee7ea0eb11a472ccc1e61f4d948664c5088fa7803b4bd87637276c64736f6c63430008150033",
  "devdoc": {
    "author": "maha.xyz",
    "errors": {
      "OwnableInvalidOwner(address)": [
        {
          "details": "The owner is not a valid owner account. (eg. `address(0)`)"
        }
      ],
      "OwnableUnauthorizedAccount(address)": [
        {
          "details": "The caller account is not authorized to perform an operation."
        }
      ]
    },
    "kind": "dev",
    "methods": {
      "allowInitializePath((uint32,bytes32,uint64))": {
        "details": "This indicates to the endpoint that the OApp has enabled msgs for this particular path to be received.This defaults to assuming if a peer has been set, its initialized. Can be overridden by the OApp if there is other logic to determine this.",
        "params": {
          "origin": "The origin information containing the source endpoint and sender address."
        },
        "returns": {
          "_0": "Whether the path has been initialized."
        }
      },
      "isComposeMsgSender((uint32,bytes32,uint64),bytes,address)": {
        "details": "_origin The origin information containing the source endpoint and sender address.  - srcEid: The source chain endpoint ID.  - sender: The sender address on the src chain.  - nonce: The nonce of the message._message The lzReceive payload.Applications can optionally choose to implement separate composeMsg senders that are NOT the bridging layer.The default sender IS the OAppReceiver implementer.",
        "params": {
          "_sender": "The sender address."
        },
        "returns": {
          "_0": "isSender Is a valid sender."
        }
      },
      "lzReceive((uint32,bytes32,uint64),bytes32,bytes,address,bytes)": {
        "details": "Entry point for receiving messages or packets from the endpoint.Entry point for receiving msg/packet from the LayerZero endpoint.",
        "params": {
          "_executor": "The address of the executor for the received message.",
          "_extraData": "Additional arbitrary data provided by the corresponding executor.",
          "_guid": "The unique identifier for the received LayerZero message.",
          "_message": "The payload of the received message.",
          "_origin": "The origin information containing the source endpoint and sender address.  - srcEid: The source chain endpoint ID.  - sender: The sender address on the src chain.  - nonce: The nonce of the message."
        }
      },
      "nextNonce(uint32,bytes32)": {
        "details": "_srcEid The source endpoint ID._sender The sender address.The path nonce starts from 1. If 0 is returned it means that there is NO nonce ordered enforcement.Is required by the off-chain executor to determine the OApp expects msg execution is ordered.This is also enforced by the OApp.By default this is NOT enabled. ie. nextNonce is hardcoded to return 0.",
        "returns": {
          "nonce": "The next nonce."
        }
      },
      "oAppVersion()": {
        "returns": {
          "receiverVersion": "The version of the OAppReceiver.sol implementation.",
          "senderVersion": "The version of the OAppSender.sol implementation."
        }
      },
      "owner()": {
        "details": "Returns the address of the current owner."
      },
      "renounceOwnership()": {
        "details": "Leaves the contract without owner. It will not be possible to call `onlyOwner` functions. Can only be called by the current owner. NOTE: Renouncing ownership will leave the contract without an owner, thereby disabling any functionality that is only available to the owner."
      },
      "setDelegate(address)": {
        "details": "Only the owner/admin of the OApp can call this function.Provides the ability for a delegate to set configs, on behalf of the OApp, directly on the Endpoint contract.",
        "params": {
          "_delegate": "The address of the delegate to be set."
        }
      },
      "setPeer(uint32,bytes32)": {
        "details": "Only the owner/admin of the OApp can call this function.Indicates that the peer is trusted to send LayerZero messages to this OApp.Set this to bytes32(0) to remove the peer address.Peer is a bytes32 to accommodate non-evm chains.",
        "params": {
          "_eid": "The endpoint ID.",
          "_peer": "The address of the peer to be associated with the corresponding endpoint."
        }
      },
      "transferOwnership(address)": {
        "details": "Transfers ownership of the contract to a new account (`newOwner`). Can only be called by the current owner."
      }
    },
    "title": "L1BridgeCollateralL0",
    "version": 1
  },
  "userdoc": {
    "kind": "user",
    "methods": {
      "adapter()": {
        "notice": "The layerzero OFT adapter on mainnet"
      },
      "allowInitializePath((uint32,bytes32,uint64))": {
        "notice": "Checks if the path initialization is allowed based on the provided origin."
      },
      "collateral()": {
        "notice": "The collateral token address - will be sent via bridge from L2"
      },
      "endpoint()": {
        "notice": "Retrieves the LayerZero endpoint associated with the OApp."
      },
      "isComposeMsgSender((uint32,bytes32,uint64),bytes,address)": {
        "notice": "Indicates whether an address is an approved composeMsg sender to the Endpoint."
      },
      "nextNonce(uint32,bytes32)": {
        "notice": "Retrieves the next nonce for a given source endpoint and sender address."
      },
      "oAppVersion()": {
        "notice": "Retrieves the OApp version information."
      },
      "peers(uint32)": {
        "notice": "Retrieves the peer (OApp) associated with a corresponding endpoint."
      },
      "psm()": {
        "notice": "The RestakeManager contract - deposits into the protocol are restaked here"
      },
      "setDelegate(address)": {
        "notice": "Sets the delegate address for the OApp."
      },
      "setPeer(uint32,bytes32)": {
        "notice": "Sets the peer address (OApp instance) for a corresponding endpoint."
      },
      "stablecoin()": {
        "notice": "The stablecoin address on mainnet"
      }
    },
    "notice": "Credits any collateral bridged from various L2s via layerzero into the adapter for accounting purposes.",
    "version": 1
  },
  "storageLayout": {
    "storage": [
      {
        "astId": 10243,
        "contract": "contracts/periphery/restaking/layerzero/L1BridgeCollateralL0.sol:L1BridgeCollateralL0",
        "label": "_owner",
        "offset": 0,
        "slot": "0",
        "type": "t_address"
      },
      {
        "astId": 64,
        "contract": "contracts/periphery/restaking/layerzero/L1BridgeCollateralL0.sol:L1BridgeCollateralL0",
        "label": "peers",
        "offset": 0,
        "slot": "1",
        "type": "t_mapping(t_uint32,t_bytes32)"
      }
    ],
    "types": {
      "t_address": {
        "encoding": "inplace",
        "label": "address",
        "numberOfBytes": "20"
      },
      "t_bytes32": {
        "encoding": "inplace",
        "label": "bytes32",
        "numberOfBytes": "32"
      },
      "t_mapping(t_uint32,t_bytes32)": {
        "encoding": "mapping",
        "key": "t_uint32",
        "label": "mapping(uint32 => bytes32)",
        "numberOfBytes": "32",
        "value": "t_bytes32"
      },
      "t_uint32": {
        "encoding": "inplace",
        "label": "uint32",
        "numberOfBytes": "4"
      }
    }
  }
}