{
  "address": "0x8974c0538C51fb8A5514e78a3d74B432DAa6c6B7",
  "abi": [
    {
      "inputs": [
        {
          "internalType": "contract IPegStabilityModule",
          "name": "_psm",
          "type": "address"
        },
        {
          "internalType": "address",
          "name": "_adapter",
          "type": "address"
        },
        {
          "internalType": "address",
          "name": "_odos",
          "type": "address"
        }
      ],
      "stateMutability": "nonpayable",
      "type": "constructor"
    },
    {
      "inputs": [],
      "name": "AccessControlBadConfirmation",
      "type": "error"
    },
    {
      "inputs": [
        {
          "internalType": "address",
          "name": "account",
          "type": "address"
        },
        {
          "internalType": "bytes32",
          "name": "neededRole",
          "type": "bytes32"
        }
      ],
      "name": "AccessControlUnauthorizedAccount",
      "type": "error"
    },
    {
      "anonymous": false,
      "inputs": [
        {
          "indexed": true,
          "internalType": "bytes32",
          "name": "role",
          "type": "bytes32"
        },
        {
          "indexed": true,
          "internalType": "bytes32",
          "name": "previousAdminRole",
          "type": "bytes32"
        },
        {
          "indexed": true,
          "internalType": "bytes32",
          "name": "newAdminRole",
          "type": "bytes32"
        }
      ],
      "name": "RoleAdminChanged",
      "type": "event"
    },
    {
      "anonymous": false,
      "inputs": [
        {
          "indexed": true,
          "internalType": "bytes32",
          "name": "role",
          "type": "bytes32"
        },
        {
          "indexed": true,
          "internalType": "address",
          "name": "account",
          "type": "address"
        },
        {
          "indexed": true,
          "internalType": "address",
          "name": "sender",
          "type": "address"
        }
      ],
      "name": "RoleGranted",
      "type": "event"
    },
    {
      "anonymous": false,
      "inputs": [
        {
          "indexed": true,
          "internalType": "bytes32",
          "name": "role",
          "type": "bytes32"
        },
        {
          "indexed": true,
          "internalType": "address",
          "name": "account",
          "type": "address"
        },
        {
          "indexed": true,
          "internalType": "address",
          "name": "sender",
          "type": "address"
        }
      ],
      "name": "RoleRevoked",
      "type": "event"
    },
    {
      "inputs": [],
      "name": "DEFAULT_ADMIN_ROLE",
      "outputs": [
        {
          "internalType": "bytes32",
          "name": "",
          "type": "bytes32"
        }
      ],
      "stateMutability": "view",
      "type": "function"
    },
    {
      "inputs": [],
      "name": "EXECUTOR_ROLE",
      "outputs": [
        {
          "internalType": "bytes32",
          "name": "",
          "type": "bytes32"
        }
      ],
      "stateMutability": "view",
      "type": "function"
    },
    {
      "inputs": [],
      "name": "adapter",
      "outputs": [
        {
          "internalType": "address",
          "name": "",
          "type": "address"
        }
      ],
      "stateMutability": "view",
      "type": "function"
    },
    {
      "inputs": [],
      "name": "collateral",
      "outputs": [
        {
          "internalType": "contract IERC20",
          "name": "",
          "type": "address"
        }
      ],
      "stateMutability": "view",
      "type": "function"
    },
    {
      "inputs": [
        {
          "internalType": "bytes32",
          "name": "role",
          "type": "bytes32"
        }
      ],
      "name": "getRoleAdmin",
      "outputs": [
        {
          "internalType": "bytes32",
          "name": "",
          "type": "bytes32"
        }
      ],
      "stateMutability": "view",
      "type": "function"
    },
    {
      "inputs": [
        {
          "internalType": "bytes32",
          "name": "role",
          "type": "bytes32"
        },
        {
          "internalType": "uint256",
          "name": "index",
          "type": "uint256"
        }
      ],
      "name": "getRoleMember",
      "outputs": [
        {
          "internalType": "address",
          "name": "",
          "type": "address"
        }
      ],
      "stateMutability": "view",
      "type": "function"
    },
    {
      "inputs": [
        {
          "internalType": "bytes32",
          "name": "role",
          "type": "bytes32"
        }
      ],
      "name": "getRoleMemberCount",
      "outputs": [
        {
          "internalType": "uint256",
          "name": "",
          "type": "uint256"
        }
      ],
      "stateMutability": "view",
      "type": "function"
    },
    {
      "inputs": [
        {
          "internalType": "bytes32",
          "name": "role",
          "type": "bytes32"
        },
        {
          "internalType": "address",
          "name": "account",
          "type": "address"
        }
      ],
      "name": "grantRole",
      "outputs": [],
      "stateMutability": "nonpayable",
      "type": "function"
    },
    {
      "inputs": [
        {
          "internalType": "bytes32",
          "name": "role",
          "type": "bytes32"
        },
        {
          "internalType": "address",
          "name": "account",
          "type": "address"
        }
      ],
      "name": "hasRole",
      "outputs": [
        {
          "internalType": "bool",
          "name": "",
          "type": "bool"
        }
      ],
      "stateMutability": "view",
      "type": "function"
    },
    {
      "inputs": [],
      "name": "odos",
      "outputs": [
        {
          "internalType": "address",
          "name": "",
          "type": "address"
        }
      ],
      "stateMutability": "view",
      "type": "function"
    },
    {
      "inputs": [],
      "name": "process",
      "outputs": [],
      "stateMutability": "nonpayable",
      "type": "function"
    },
    {
      "inputs": [
        {
          "internalType": "contract IERC20",
          "name": "token",
          "type": "address"
        },
        {
          "internalType": "bytes",
          "name": "data",
          "type": "bytes"
        }
      ],
      "name": "processWithOdos",
      "outputs": [],
      "stateMutability": "nonpayable",
      "type": "function"
    },
    {
      "inputs": [],
      "name": "psm",
      "outputs": [
        {
          "internalType": "contract IPegStabilityModule",
          "name": "",
          "type": "address"
        }
      ],
      "stateMutability": "view",
      "type": "function"
    },
    {
      "inputs": [
        {
          "internalType": "address",
          "name": "_token",
          "type": "address"
        }
      ],
      "name": "recall",
      "outputs": [],
      "stateMutability": "nonpayable",
      "type": "function"
    },
    {
      "inputs": [
        {
          "internalType": "bytes32",
          "name": "role",
          "type": "bytes32"
        },
        {
          "internalType": "address",
          "name": "callerConfirmation",
          "type": "address"
        }
      ],
      "name": "renounceRole",
      "outputs": [],
      "stateMutability": "nonpayable",
      "type": "function"
    },
    {
      "inputs": [
        {
          "internalType": "bytes32",
          "name": "role",
          "type": "bytes32"
        },
        {
          "internalType": "address",
          "name": "account",
          "type": "address"
        }
      ],
      "name": "revokeRole",
      "outputs": [],
      "stateMutability": "nonpayable",
      "type": "function"
    },
    {
      "inputs": [],
      "name": "stablecoin",
      "outputs": [
        {
          "internalType": "contract IERC20",
          "name": "",
          "type": "address"
        }
      ],
      "stateMutability": "view",
      "type": "function"
    },
    {
      "inputs": [
        {
          "internalType": "bytes4",
          "name": "interfaceId",
          "type": "bytes4"
        }
      ],
      "name": "supportsInterface",
      "outputs": [
        {
          "internalType": "bool",
          "name": "",
          "type": "bool"
        }
      ],
      "stateMutability": "view",
      "type": "function"
    }
  ],
  "transactionHash": "0x26bdac78fcc5594a44a9af287de5f36572e6dedad7c473f077561d88fe7ede36",
  "args": [
    "0x7DCdE153e4cACe9Ca852590d9654c7694388Db54",
    "0x557177Aa5F5303dED2fa56b413631bAb22a73872",
    "0xcf5540fffcdc3d510b18bfca6d2b9987b0772559"
  ],
  "numDeployments": 1,
  "solcInputHash": "c8b2808b58d8a411e6292b8d25a3da99",
  "bytecode": "0x6101206040523480156200001257600080fd5b50604051620012f1380380620012f18339810160408190526200003591620003b3565b6001600160a01b038316620000905760405162461bcd60e51b815260206004820152601360248201527f496e76616c69642050534d206164647265737300000000000000000000000000604482015260640160405180910390fd5b6001600160a01b0380841660c0819052908316608052604080516301c502cd60e21b815290516307140b349160048082019260209290919082900301816000875af1158015620000e4573d6000803e3d6000fd5b505050506040513d601f19601f820116820180604052508101906200010a919062000407565b6001600160a01b031660a0816001600160a01b031681525050826001600160a01b031663d8dfeb456040518163ffffffff1660e01b81526004016020604051808303816000875af115801562000164573d6000803e3d6000fd5b505050506040513d601f19601f820116820180604052508101906200018a919062000407565b6001600160a01b0390811660e08190528282166101005260c05160405163095ea7b360e01b81529216600483015260001960248301529063095ea7b3906044016020604051808303816000875af1158015620001ea573d6000803e3d6000fd5b505050506040513d601f19601f8201168201806040525081019062000210919062000427565b506200021e60003362000255565b506200024b7fd8aa0f3194971a2a116679f7c2090f6939c8d4e01a2a8d7e41d55e5351469e633362000255565b505050506200044b565b60008062000264848462000292565b905080156200028957600084815260016020526040902062000287908462000340565b505b90505b92915050565b6000828152602081815260408083206001600160a01b038516845290915281205460ff1662000337576000838152602081815260408083206001600160a01b03861684529091529020805460ff19166001179055620002ee3390565b6001600160a01b0316826001600160a01b0316847f2f8788117e7eff1d82e926ec794901d17c78024a50270940304540a733656f0d60405160405180910390a45060016200028c565b5060006200028c565b600062000289836001600160a01b038416600081815260018301602052604081205462000337575081546001818101845560008481526020808220909301849055845484825282860190935260409020919091556200028c565b6001600160a01b0381168114620003b057600080fd5b50565b600080600060608486031215620003c957600080fd5b8351620003d6816200039a565b6020850151909350620003e9816200039a565b6040850151909250620003fc816200039a565b809150509250925092565b6000602082840312156200041a57600080fd5b815162000289816200039a565b6000602082840312156200043a57600080fd5b815180151581146200028957600080fd5b60805160a05160c05160e05161010051610e3e620004b3600039600081816101b8015281816103d101526104450152600081816102ac015261057001526000818161015c0152610604015260006102d301526000818161012801526106350152610e3e6000f3fe608060405234801561001057600080fd5b50600436106100f65760003560e01c80639010d07c116100925780639010d07c1461023857806391d148541461024b578063a217fddf1461025e578063c33fb87714610266578063ca15c8731461026e578063ca43051914610281578063d547741f14610294578063d8dfeb45146102a7578063e9cbd822146102ce57600080fd5b806301ffc9a7146100fb57806303eadcfc1461012357806304bda2621461015757806307bd02651461017e5780631eba02ec146101b3578063248a9ca3146101da5780632f2ff15d146101fd57806336568abe146102125780638a2934c614610225575b600080fd5b61010e610109366004610b83565b6102f5565b60405190151581526020015b60405180910390f35b61014a7f000000000000000000000000000000000000000000000000000000000000000081565b60405161011a9190610bad565b61014a7f000000000000000000000000000000000000000000000000000000000000000081565b6101a57fd8aa0f3194971a2a116679f7c2090f6939c8d4e01a2a8d7e41d55e5351469e6381565b60405190815260200161011a565b61014a7f000000000000000000000000000000000000000000000000000000000000000081565b6101a56101e8366004610bc1565b60009081526020819052604090206001015490565b61021061020b366004610bef565b610320565b005b610210610220366004610bef565b61034b565b610210610233366004610c35565b610383565b61014a610246366004610cf9565b61050e565b61010e610259366004610bef565b61052d565b6101a5600081565b610210610556565b6101a561027c366004610bc1565b6106f4565b61021061028f366004610d1b565b61070b565b6102106102a2366004610bef565b6107ed565b61014a7f000000000000000000000000000000000000000000000000000000000000000081565b61014a7f000000000000000000000000000000000000000000000000000000000000000081565b60006001600160e01b03198216635a05180f60e01b148061031a575061031a82610812565b92915050565b60008281526020819052604090206001015461033b81610847565b6103458383610851565b50505050565b6001600160a01b03811633146103745760405163334bd91960e11b815260040160405180910390fd5b61037e8282610886565b505050565b7fd8aa0f3194971a2a116679f7c2090f6939c8d4e01a2a8d7e41d55e5351469e636103ad81610847565b60405163095ea7b360e01b81526001600160a01b0384169063095ea7b3906103fd907f00000000000000000000000000000000000000000000000000000000000000009060001990600401610d38565b6020604051808303816000875af115801561041c573d6000803e3d6000fd5b505050506040513d601f19601f820116820180604052508101906104409190610d51565b5060007f00000000000000000000000000000000000000000000000000000000000000006001600160a01b03168360405161047b9190610d73565b6000604051808303816000865af19150503d80600081146104b8576040519150601f19603f3d011682016040523d82523d6000602084013e6104bd565b606091505b50509050806105065760405162461bcd60e51b815260206004820152601060248201526f1bd91bdcc818d85b1b0819985a5b195960821b60448201526064015b60405180910390fd5b610345610556565b600082815260016020526040812061052690836108b3565b9392505050565b6000918252602082815260408084206001600160a01b0393909316845291905290205460ff1690565b6040516370a0823160e01b81526000906001600160a01b037f000000000000000000000000000000000000000000000000000000000000000016906370a08231906105a5903090600401610bad565b602060405180830381865afa1580156105c2573d6000803e3d6000fd5b505050506040513d601f19601f820116820180604052508101906105e69190610da2565b905080156106f157604051630fc05cad60e11b8152600481018290527f00000000000000000000000000000000000000000000000000000000000000006001600160a01b0316906340c10f19907f0000000000000000000000000000000000000000000000000000000000000000908390631f80b95a90602401602060405180830381865afa15801561067d573d6000803e3d6000fd5b505050506040513d601f19601f820116820180604052508101906106a19190610da2565b6040518363ffffffff1660e01b81526004016106be929190610d38565b600060405180830381600087803b1580156106d857600080fd5b505af11580156106ec573d6000803e3d6000fd5b505050505b50565b600081815260016020526040812061031a906108bf565b600061071681610847565b6040516370a0823160e01b81526001600160a01b0383169063a9059cbb90339083906370a082319061074c903090600401610bad565b602060405180830381865afa158015610769573d6000803e3d6000fd5b505050506040513d601f19601f8201168201806040525081019061078d9190610da2565b6040518363ffffffff1660e01b81526004016107aa929190610d38565b6020604051808303816000875af11580156107c9573d6000803e3d6000fd5b505050506040513d601f19601f8201168201806040525081019061037e9190610d51565b60008281526020819052604090206001015461080881610847565b6103458383610886565b60006001600160e01b03198216637965db0b60e01b148061031a57506301ffc9a760e01b6001600160e01b031983161461031a565b6106f181336108c9565b60008061085e84846108f8565b9050801561052657600084815260016020526040902061087e908461098a565b509392505050565b600080610893848461099f565b9050801561052657600084815260016020526040902061087e9084610a0a565b60006105268383610a1f565b600061031a825490565b6108d3828261052d565b6108f457808260405163e2517d3f60e01b81526004016104fd929190610d38565b5050565b6000610904838361052d565b610982576000838152602081815260408083206001600160a01b03861684529091529020805460ff1916600117905561093a3390565b6001600160a01b0316826001600160a01b0316847f2f8788117e7eff1d82e926ec794901d17c78024a50270940304540a733656f0d60405160405180910390a450600161031a565b50600061031a565b6000610526836001600160a01b038416610a49565b60006109ab838361052d565b15610982576000838152602081815260408083206001600160a01b0386168085529252808320805460ff1916905551339286917ff6391f5c32d9c69d2a47ea670b442974b53935d1edc7fd64eb21e047a839171b9190a450600161031a565b6000610526836001600160a01b038416610a90565b6000826000018281548110610a3657610a36610dbb565b9060005260206000200154905092915050565b60008181526001830160205260408120546109825750815460018181018455600084815260208082209093018490558454848252828601909352604090209190915561031a565b60008181526001830160205260408120548015610b79576000610ab4600183610dd1565b8554909150600090610ac890600190610dd1565b9050808214610b2d576000866000018281548110610ae857610ae8610dbb565b9060005260206000200154905080876000018481548110610b0b57610b0b610dbb565b6000918252602080832090910192909255918252600188019052604090208390555b8554869080610b3e57610b3e610df2565b60019003818190600052602060002001600090559055856001016000868152602001908152602001600020600090556001935050505061031a565b600091505061031a565b600060208284031215610b9557600080fd5b81356001600160e01b03198116811461052657600080fd5b6001600160a01b0391909116815260200190565b600060208284031215610bd357600080fd5b5035919050565b6001600160a01b03811681146106f157600080fd5b60008060408385031215610c0257600080fd5b823591506020830135610c1481610bda565b809150509250929050565b634e487b7160e01b600052604160045260246000fd5b60008060408385031215610c4857600080fd5b8235610c5381610bda565b9150602083013567ffffffffffffffff80821115610c7057600080fd5b818501915085601f830112610c8457600080fd5b813581811115610c9657610c96610c1f565b604051601f8201601f19908116603f01168101908382118183101715610cbe57610cbe610c1f565b81604052828152886020848701011115610cd757600080fd5b8260208601602083013760006020848301015280955050505050509250929050565b60008060408385031215610d0c57600080fd5b50508035926020909101359150565b600060208284031215610d2d57600080fd5b813561052681610bda565b6001600160a01b03929092168252602082015260400190565b600060208284031215610d6357600080fd5b8151801515811461052657600080fd5b6000825160005b81811015610d945760208186018101518583015201610d7a565b506000920191825250919050565b600060208284031215610db457600080fd5b5051919050565b634e487b7160e01b600052603260045260246000fd5b8181038181111561031a57634e487b7160e01b600052601160045260246000fd5b634e487b7160e01b600052603160045260246000fdfea2646970667358221220a649f5a42dacaaae1fdca54cefd96a04fe7ff49aff1d350e6738a062c3658c2b64736f6c63430008150033",
  "devdoc": {
    "author": "maha.xyz",
    "errors": {
      "AccessControlBadConfirmation()": [
        {
          "details": "The caller of a function is not the expected one. NOTE: Don't confuse with {AccessControlUnauthorizedAccount}."
        }
      ],
      "AccessControlUnauthorizedAccount(address,bytes32)": [
        {
          "details": "The `account` is missing a role."
        }
      ]
    },
    "events": {
      "RoleAdminChanged(bytes32,bytes32,bytes32)": {
        "details": "Emitted when `newAdminRole` is set as ``role``'s admin role, replacing `previousAdminRole` `DEFAULT_ADMIN_ROLE` is the starting admin for all roles, despite {RoleAdminChanged} not being emitted signaling this."
      },
      "RoleGranted(bytes32,address,address)": {
        "details": "Emitted when `account` is granted `role`. `sender` is the account that originated the contract call, an admin role bearer except when using {AccessControl-_setupRole}."
      },
      "RoleRevoked(bytes32,address,address)": {
        "details": "Emitted when `account` is revoked `role`. `sender` is the account that originated the contract call:   - if using `revokeRole`, it is the admin role bearer   - if using `renounceRole`, it is the role bearer (i.e. `account`)"
      }
    },
    "kind": "dev",
    "methods": {
      "getRoleAdmin(bytes32)": {
        "details": "Returns the admin role that controls `role`. See {grantRole} and {revokeRole}. To change a role's admin, use {_setRoleAdmin}."
      },
      "getRoleMember(bytes32,uint256)": {
        "details": "Returns one of the accounts that have `role`. `index` must be a value between 0 and {getRoleMemberCount}, non-inclusive. Role bearers are not sorted in any particular way, and their ordering may change at any point. WARNING: When using {getRoleMember} and {getRoleMemberCount}, make sure you perform all queries on the same block. See the following https://forum.openzeppelin.com/t/iterating-over-elements-on-enumerableset-in-openzeppelin-contracts/2296[forum post] for more information."
      },
      "getRoleMemberCount(bytes32)": {
        "details": "Returns the number of accounts that have `role`. Can be used together with {getRoleMember} to enumerate all bearers of a role."
      },
      "grantRole(bytes32,address)": {
        "details": "Grants `role` to `account`. If `account` had not been already granted `role`, emits a {RoleGranted} event. Requirements: - the caller must have ``role``'s admin role. May emit a {RoleGranted} event."
      },
      "hasRole(bytes32,address)": {
        "details": "Returns `true` if `account` has been granted `role`."
      },
      "renounceRole(bytes32,address)": {
        "details": "Revokes `role` from the calling account. Roles are often managed via {grantRole} and {revokeRole}: this function's purpose is to provide a mechanism for accounts to lose their privileges if they are compromised (such as when a trusted device is misplaced). If the calling account had been revoked `role`, emits a {RoleRevoked} event. Requirements: - the caller must be `callerConfirmation`. May emit a {RoleRevoked} event."
      },
      "revokeRole(bytes32,address)": {
        "details": "Revokes `role` from `account`. If `account` had been granted `role`, emits a {RoleRevoked} event. Requirements: - the caller must have ``role``'s admin role. May emit a {RoleRevoked} event."
      },
      "supportsInterface(bytes4)": {
        "details": "See {IERC165-supportsInterface}."
      }
    },
    "title": "L1BridgeCollateralL0",
    "version": 1
  },
  "userdoc": {
    "kind": "user",
    "methods": {
      "adapter()": {
        "notice": "The layerzero OFT adapter on mainnet"
      },
      "collateral()": {
        "notice": "The collateral token address - will be sent via bridge from L2"
      },
      "odos()": {
        "notice": "The odos contract address"
      },
      "psm()": {
        "notice": "The RestakeManager contract - deposits into the protocol are restaked here"
      },
      "stablecoin()": {
        "notice": "The stablecoin address on mainnet"
      }
    },
    "notice": "Credits any collateral bridged from various L2s via layerzero into the adapter for accounting purposes.",
    "version": 1
  },
  "storageLayout": {
    "storage": [
      {
        "astId": 1345,
        "contract": "contracts/periphery/restaking/layerzero/L1BridgeCollateralL0.sol:L1BridgeCollateralL0",
        "label": "_roles",
        "offset": 0,
        "slot": "0",
        "type": "t_mapping(t_bytes32,t_struct(RoleData)1340_storage)"
      },
      {
        "astId": 1867,
        "contract": "contracts/periphery/restaking/layerzero/L1BridgeCollateralL0.sol:L1BridgeCollateralL0",
        "label": "_roleMembers",
        "offset": 0,
        "slot": "1",
        "type": "t_mapping(t_bytes32,t_struct(AddressSet)3066_storage)"
      }
    ],
    "types": {
      "t_address": {
        "encoding": "inplace",
        "label": "address",
        "numberOfBytes": "20"
      },
      "t_array(t_bytes32)dyn_storage": {
        "base": "t_bytes32",
        "encoding": "dynamic_array",
        "label": "bytes32[]",
        "numberOfBytes": "32"
      },
      "t_bool": {
        "encoding": "inplace",
        "label": "bool",
        "numberOfBytes": "1"
      },
      "t_bytes32": {
        "encoding": "inplace",
        "label": "bytes32",
        "numberOfBytes": "32"
      },
      "t_mapping(t_address,t_bool)": {
        "encoding": "mapping",
        "key": "t_address",
        "label": "mapping(address => bool)",
        "numberOfBytes": "32",
        "value": "t_bool"
      },
      "t_mapping(t_bytes32,t_struct(AddressSet)3066_storage)": {
        "encoding": "mapping",
        "key": "t_bytes32",
        "label": "mapping(bytes32 => struct EnumerableSet.AddressSet)",
        "numberOfBytes": "32",
        "value": "t_struct(AddressSet)3066_storage"
      },
      "t_mapping(t_bytes32,t_struct(RoleData)1340_storage)": {
        "encoding": "mapping",
        "key": "t_bytes32",
        "label": "mapping(bytes32 => struct AccessControl.RoleData)",
        "numberOfBytes": "32",
        "value": "t_struct(RoleData)1340_storage"
      },
      "t_mapping(t_bytes32,t_uint256)": {
        "encoding": "mapping",
        "key": "t_bytes32",
        "label": "mapping(bytes32 => uint256)",
        "numberOfBytes": "32",
        "value": "t_uint256"
      },
      "t_struct(AddressSet)3066_storage": {
        "encoding": "inplace",
        "label": "struct EnumerableSet.AddressSet",
        "members": [
          {
            "astId": 3065,
            "contract": "contracts/periphery/restaking/layerzero/L1BridgeCollateralL0.sol:L1BridgeCollateralL0",
            "label": "_inner",
            "offset": 0,
            "slot": "0",
            "type": "t_struct(Set)2751_storage"
          }
        ],
        "numberOfBytes": "64"
      },
      "t_struct(RoleData)1340_storage": {
        "encoding": "inplace",
        "label": "struct AccessControl.RoleData",
        "members": [
          {
            "astId": 1337,
            "contract": "contracts/periphery/restaking/layerzero/L1BridgeCollateralL0.sol:L1BridgeCollateralL0",
            "label": "hasRole",
            "offset": 0,
            "slot": "0",
            "type": "t_mapping(t_address,t_bool)"
          },
          {
            "astId": 1339,
            "contract": "contracts/periphery/restaking/layerzero/L1BridgeCollateralL0.sol:L1BridgeCollateralL0",
            "label": "adminRole",
            "offset": 0,
            "slot": "1",
            "type": "t_bytes32"
          }
        ],
        "numberOfBytes": "64"
      },
      "t_struct(Set)2751_storage": {
        "encoding": "inplace",
        "label": "struct EnumerableSet.Set",
        "members": [
          {
            "astId": 2746,
            "contract": "contracts/periphery/restaking/layerzero/L1BridgeCollateralL0.sol:L1BridgeCollateralL0",
            "label": "_values",
            "offset": 0,
            "slot": "0",
            "type": "t_array(t_bytes32)dyn_storage"
          },
          {
            "astId": 2750,
            "contract": "contracts/periphery/restaking/layerzero/L1BridgeCollateralL0.sol:L1BridgeCollateralL0",
            "label": "_positions",
            "offset": 0,
            "slot": "1",
            "type": "t_mapping(t_bytes32,t_uint256)"
          }
        ],
        "numberOfBytes": "64"
      },
      "t_uint256": {
        "encoding": "inplace",
        "label": "uint256",
        "numberOfBytes": "32"
      }
    }
  }
}