{
  "address": "0x715e12c483Fe6b490594e60C13CB2cb2d337cAE2",
  "abi": [
    {
      "inputs": [],
      "name": "InvalidInitialization",
      "type": "error"
    },
    {
      "inputs": [],
      "name": "NotInitializing",
      "type": "error"
    },
    {
      "inputs": [
        {
          "internalType": "address",
          "name": "owner",
          "type": "address"
        }
      ],
      "name": "OwnableInvalidOwner",
      "type": "error"
    },
    {
      "inputs": [
        {
          "internalType": "address",
          "name": "account",
          "type": "address"
        }
      ],
      "name": "OwnableUnauthorizedAccount",
      "type": "error"
    },
    {
      "anonymous": false,
      "inputs": [
        {
          "indexed": false,
          "internalType": "uint64",
          "name": "version",
          "type": "uint64"
        }
      ],
      "name": "Initialized",
      "type": "event"
    },
    {
      "anonymous": false,
      "inputs": [
        {
          "indexed": true,
          "internalType": "address",
          "name": "previousOwner",
          "type": "address"
        },
        {
          "indexed": true,
          "internalType": "address",
          "name": "newOwner",
          "type": "address"
        }
      ],
      "name": "OwnershipTransferred",
      "type": "event"
    },
    {
      "inputs": [],
      "name": "depositCollateralL0",
      "outputs": [
        {
          "internalType": "contract IL1BridgeCollateralL0",
          "name": "",
          "type": "address"
        }
      ],
      "stateMutability": "view",
      "type": "function"
    },
    {
      "inputs": [],
      "name": "execute",
      "outputs": [],
      "stateMutability": "payable",
      "type": "function"
    },
    {
      "inputs": [],
      "name": "gelatoooooo",
      "outputs": [
        {
          "internalType": "address",
          "name": "",
          "type": "address"
        }
      ],
      "stateMutability": "view",
      "type": "function"
    },
    {
      "inputs": [
        {
          "internalType": "address",
          "name": "_usdc",
          "type": "address"
        },
        {
          "internalType": "uint256",
          "name": "_limit",
          "type": "uint256"
        },
        {
          "internalType": "address",
          "name": "_depositCollateralL0",
          "type": "address"
        },
        {
          "internalType": "address",
          "name": "_governance",
          "type": "address"
        }
      ],
      "name": "initialize",
      "outputs": [],
      "stateMutability": "nonpayable",
      "type": "function"
    },
    {
      "inputs": [],
      "name": "limit",
      "outputs": [
        {
          "internalType": "uint256",
          "name": "",
          "type": "uint256"
        }
      ],
      "stateMutability": "view",
      "type": "function"
    },
    {
      "inputs": [],
      "name": "owner",
      "outputs": [
        {
          "internalType": "address",
          "name": "",
          "type": "address"
        }
      ],
      "stateMutability": "view",
      "type": "function"
    },
    {
      "inputs": [],
      "name": "refundETH",
      "outputs": [],
      "stateMutability": "nonpayable",
      "type": "function"
    },
    {
      "inputs": [],
      "name": "renounceOwnership",
      "outputs": [],
      "stateMutability": "nonpayable",
      "type": "function"
    },
    {
      "inputs": [
        {
          "internalType": "uint256",
          "name": "_limit",
          "type": "uint256"
        }
      ],
      "name": "setSweepLimit",
      "outputs": [],
      "stateMutability": "nonpayable",
      "type": "function"
    },
    {
      "inputs": [],
      "name": "shouldExecute",
      "outputs": [
        {
          "internalType": "bool",
          "name": "",
          "type": "bool"
        }
      ],
      "stateMutability": "view",
      "type": "function"
    },
    {
      "inputs": [
        {
          "internalType": "address",
          "name": "newOwner",
          "type": "address"
        }
      ],
      "name": "transferOwnership",
      "outputs": [],
      "stateMutability": "nonpayable",
      "type": "function"
    },
    {
      "inputs": [],
      "name": "usdc",
      "outputs": [
        {
          "internalType": "address",
          "name": "",
          "type": "address"
        }
      ],
      "stateMutability": "view",
      "type": "function"
    },
    {
      "inputs": [],
      "name": "usdcToSweep",
      "outputs": [
        {
          "internalType": "uint256",
          "name": "",
          "type": "uint256"
        }
      ],
      "stateMutability": "view",
      "type": "function"
    },
    {
      "stateMutability": "payable",
      "type": "receive"
    }
  ],
  "transactionHash": "0xa599389e9c765b258f6a410218ac18cc11ac1b99b4e7c1d9c1733902a98b1060",
  "args": [],
  "numDeployments": 1,
  "solcInputHash": "1d72b347e559f8886323a64986999bc5",
  "bytecode": "0x608060405234801561001057600080fd5b50610937806100206000396000f3fe6080604052600436106100d65760003560e01c8063715018a61161007f578063a4d66daf11610059578063a4d66daf14610213578063b5a7841214610229578063e4ad32881461024e578063f2fde38b1461026e57600080fd5b8063715018a6146101a15780638da5cb5b146101b657806396992066146101f357600080fd5b8063358394d8116100b0578063358394d8146101415780633e413bee14610161578063614619541461019957600080fd5b80630765939e146100e257806312210e8a146101045780631aa258731461011957600080fd5b366100dd57005b600080fd5b3480156100ee57600080fd5b506101026100fd366004610844565b61028e565b005b34801561011057600080fd5b5061010261029b565b34801561012557600080fd5b5061012e6102fe565b6040519081526020015b60405180910390f35b34801561014d57600080fd5b5061010261015c366004610879565b610378565b34801561016d57600080fd5b50600154610181906001600160a01b031681565b6040516001600160a01b039091168152602001610138565b6101026104ce565b3480156101ad57600080fd5b50610102610656565b3480156101c257600080fd5b507f9016d09d72d40fdae2fd8ceac6b6234c7706214fd39c1cd1e609a0528c199300546001600160a01b0316610181565b3480156101ff57600080fd5b50600054610181906001600160a01b031681565b34801561021f57600080fd5b5061012e60025481565b34801561023557600080fd5b5061023e61066a565b6040519015158152602001610138565b34801561025a57600080fd5b50600354610181906001600160a01b031681565b34801561027a57600080fd5b506101026102893660046108c6565b61067e565b6102966106d2565b600255565b6102a36106d2565b7f9016d09d72d40fdae2fd8ceac6b6234c7706214fd39c1cd1e609a0528c199300546040516001600160a01b03909116904780156108fc02916000818181858888f193505050501580156102fb573d6000803e3d6000fd5b50565b6001546003546040516370a0823160e01b81526001600160a01b03918216600482015260009291909116906370a0823190602401602060405180830381865afa15801561034f573d6000803e3d6000fd5b505050506040513d601f19601f8201168201806040525081019061037391906108e8565b905090565b7ff0c57e16840df040f15088dc2f81fe391c3923bec73e23a9662efc9c229c6a0080546001919068010000000000000000900460ff16806103c75750805467ffffffffffffffff808416911610155b156103fe576040517ff92ee8a900000000000000000000000000000000000000000000000000000000815260040160405180910390fd5b805468ffffffffffffffffff191667ffffffffffffffff8316176801000000000000000017815561042e33610746565b600180546001600160a01b0380891673ffffffffffffffffffffffffffffffffffffffff19928316179092556002879055600380549287169290911691909117905561047983610757565b805468ff00000000000000001916815560405167ffffffffffffffff831681527fc7f505b2f371ae2175ee4913f4499e1f2633a7b5936321eed1cdaeb6115181d29060200160405180910390a1505050505050565b7f9016d09d72d40fdae2fd8ceac6b6234c7706214fd39c1cd1e609a0528c199300546001600160a01b031633148061051057506000546001600160a01b031633145b61057b576040517f08c379a000000000000000000000000000000000000000000000000000000000815260206004820152600860248201527f77686f206469733f00000000000000000000000000000000000000000000000060448201526064015b60405180910390fd5b6001546003546040516370a0823160e01b81526001600160a01b0391821660048201529116906370a0823190602401602060405180830381865afa1580156105c7573d6000803e3d6000fd5b505050506040513d601f19601f820116820180604052508101906105eb91906108e8565b50600360009054906101000a90046001600160a01b03166001600160a01b031663c33fb8776040518163ffffffff1660e01b8152600401600060405180830381600087803b15801561063c57600080fd5b505af1158015610650573d6000803e3d6000fd5b50505050565b61065e6106d2565b6106686000610757565b565b60006002546106776102fe565b1015905090565b6106866106d2565b6001600160a01b0381166106c9576040517f1e4fbdf700000000000000000000000000000000000000000000000000000000815260006004820152602401610572565b6102fb81610757565b336107047f9016d09d72d40fdae2fd8ceac6b6234c7706214fd39c1cd1e609a0528c199300546001600160a01b031690565b6001600160a01b031614610668576040517f118cdaa7000000000000000000000000000000000000000000000000000000008152336004820152602401610572565b61074e6107d5565b6102fb8161083c565b7f9016d09d72d40fdae2fd8ceac6b6234c7706214fd39c1cd1e609a0528c199300805473ffffffffffffffffffffffffffffffffffffffff1981166001600160a01b03848116918217845560405192169182907f8be0079c531659141344cd1fd0a4f28419497f9722a3daafe3b4186f6b6457e090600090a3505050565b7ff0c57e16840df040f15088dc2f81fe391c3923bec73e23a9662efc9c229c6a005468010000000000000000900460ff16610668576040517fd7e6bcf800000000000000000000000000000000000000000000000000000000815260040160405180910390fd5b6106866107d5565b60006020828403121561085657600080fd5b5035919050565b80356001600160a01b038116811461087457600080fd5b919050565b6000806000806080858703121561088f57600080fd5b6108988561085d565b9350602085013592506108ad6040860161085d565b91506108bb6060860161085d565b905092959194509250565b6000602082840312156108d857600080fd5b6108e18261085d565b9392505050565b6000602082840312156108fa57600080fd5b505191905056fea2646970667358221220fbadef31c7ecd946b3d38a7558b02d2287790afb7952594b0b1b81589a752ca864736f6c63430008150033",
  "devdoc": {
    "errors": {
      "InvalidInitialization()": [
        {
          "details": "The contract is already initialized."
        }
      ],
      "NotInitializing()": [
        {
          "details": "The contract is not initializing."
        }
      ],
      "OwnableInvalidOwner(address)": [
        {
          "details": "The owner is not a valid owner account. (eg. `address(0)`)"
        }
      ],
      "OwnableUnauthorizedAccount(address)": [
        {
          "details": "The caller account is not authorized to perform an operation."
        }
      ]
    },
    "events": {
      "Initialized(uint64)": {
        "details": "Triggered when the contract has been initialized or reinitialized."
      }
    },
    "kind": "dev",
    "methods": {
      "owner()": {
        "details": "Returns the address of the current owner."
      },
      "renounceOwnership()": {
        "details": "Leaves the contract without owner. It will not be possible to call `onlyOwner` functions. Can only be called by the current owner. NOTE: Renouncing ownership will leave the contract without an owner, thereby disabling any functionality that is only available to the owner."
      },
      "transferOwnership(address)": {
        "details": "Transfers ownership of the contract to a new account (`newOwner`). Can only be called by the current owner."
      }
    },
    "version": 1
  },
  "userdoc": {
    "kind": "user",
    "methods": {},
    "version": 1
  },
  "storageLayout": {
    "storage": [
      {
        "astId": 2609,
        "contract": "contracts/periphery/crons/L1RestakingSweeperCron.sol:L1RestakingSweeperCron",
        "label": "gelatoooooo",
        "offset": 0,
        "slot": "0",
        "type": "t_address"
      },
      {
        "astId": 2611,
        "contract": "contracts/periphery/crons/L1RestakingSweeperCron.sol:L1RestakingSweeperCron",
        "label": "usdc",
        "offset": 0,
        "slot": "1",
        "type": "t_address"
      },
      {
        "astId": 2613,
        "contract": "contracts/periphery/crons/L1RestakingSweeperCron.sol:L1RestakingSweeperCron",
        "label": "limit",
        "offset": 0,
        "slot": "2",
        "type": "t_uint256"
      },
      {
        "astId": 2616,
        "contract": "contracts/periphery/crons/L1RestakingSweeperCron.sol:L1RestakingSweeperCron",
        "label": "depositCollateralL0",
        "offset": 0,
        "slot": "3",
        "type": "t_contract(IL1BridgeCollateralL0)2605"
      }
    ],
    "types": {
      "t_address": {
        "encoding": "inplace",
        "label": "address",
        "numberOfBytes": "20"
      },
      "t_contract(IL1BridgeCollateralL0)2605": {
        "encoding": "inplace",
        "label": "contract IL1BridgeCollateralL0",
        "numberOfBytes": "20"
      },
      "t_uint256": {
        "encoding": "inplace",
        "label": "uint256",
        "numberOfBytes": "32"
      }
    }
  }
}