{
  "address": "0x12114B452310C7Eb6736557482B858C3Cf1f0835",
  "abi": [
    {
      "inputs": [
        {
          "internalType": "contract ILayerZeroEndpoint",
          "name": "_lzEndpoint",
          "type": "address"
        },
        {
          "internalType": "address",
          "name": "_owner",
          "type": "address"
        }
      ],
      "stateMutability": "nonpayable",
      "type": "constructor"
    },
    {
      "inputs": [
        {
          "internalType": "address",
          "name": "owner",
          "type": "address"
        }
      ],
      "name": "OwnableInvalidOwner",
      "type": "error"
    },
    {
      "inputs": [
        {
          "internalType": "address",
          "name": "account",
          "type": "address"
        }
      ],
      "name": "OwnableUnauthorizedAccount",
      "type": "error"
    },
    {
      "inputs": [],
      "name": "ReentrancyGuardReentrantCall",
      "type": "error"
    },
    {
      "anonymous": false,
      "inputs": [
        {
          "indexed": true,
          "internalType": "uint64",
          "name": "nonce",
          "type": "uint64"
        },
        {
          "indexed": false,
          "internalType": "bytes32",
          "name": "executionHash",
          "type": "bytes32"
        }
      ],
      "name": "ClearPayload",
      "type": "event"
    },
    {
      "anonymous": false,
      "inputs": [
        {
          "indexed": true,
          "internalType": "uint16",
          "name": "remoteChainId",
          "type": "uint16"
        },
        {
          "indexed": false,
          "internalType": "bytes",
          "name": "payload",
          "type": "bytes"
        }
      ],
      "name": "ExecuteRemoteProposal",
      "type": "event"
    },
    {
      "anonymous": false,
      "inputs": [
        {
          "indexed": true,
          "internalType": "address",
          "name": "previousOwner",
          "type": "address"
        },
        {
          "indexed": true,
          "internalType": "address",
          "name": "newOwner",
          "type": "address"
        }
      ],
      "name": "OwnershipTransferred",
      "type": "event"
    },
    {
      "anonymous": false,
      "inputs": [
        {
          "indexed": false,
          "internalType": "uint16",
          "name": "remoteChainId",
          "type": "uint16"
        },
        {
          "indexed": false,
          "internalType": "bytes",
          "name": "remoteAddress",
          "type": "bytes"
        }
      ],
      "name": "SetTrustedRemoteAddress",
      "type": "event"
    },
    {
      "anonymous": false,
      "inputs": [
        {
          "indexed": true,
          "internalType": "uint64",
          "name": "nonce",
          "type": "uint64"
        },
        {
          "indexed": true,
          "internalType": "uint16",
          "name": "remoteChainId",
          "type": "uint16"
        },
        {
          "indexed": false,
          "internalType": "bytes",
          "name": "payload",
          "type": "bytes"
        },
        {
          "indexed": false,
          "internalType": "bytes",
          "name": "adapterParams",
          "type": "bytes"
        },
        {
          "indexed": false,
          "internalType": "uint256",
          "name": "value",
          "type": "uint256"
        },
        {
          "indexed": false,
          "internalType": "bytes",
          "name": "reason",
          "type": "bytes"
        }
      ],
      "name": "StorePayload",
      "type": "event"
    },
    {
      "inputs": [
        {
          "internalType": "uint16",
          "name": "remoteChainId",
          "type": "uint16"
        },
        {
          "internalType": "bytes",
          "name": "payload",
          "type": "bytes"
        },
        {
          "internalType": "bytes",
          "name": "adapterParams",
          "type": "bytes"
        }
      ],
      "name": "estimateFees",
      "outputs": [
        {
          "internalType": "uint256",
          "name": "nativeFee",
          "type": "uint256"
        },
        {
          "internalType": "uint256",
          "name": "zroFee",
          "type": "uint256"
        }
      ],
      "stateMutability": "view",
      "type": "function"
    },
    {
      "inputs": [
        {
          "internalType": "uint16",
          "name": "remoteChainId",
          "type": "uint16"
        },
        {
          "internalType": "bytes",
          "name": "payload",
          "type": "bytes"
        },
        {
          "internalType": "bytes",
          "name": "adapterParams",
          "type": "bytes"
        }
      ],
      "name": "execute",
      "outputs": [],
      "stateMutability": "payable",
      "type": "function"
    },
    {
      "inputs": [
        {
          "internalType": "uint16",
          "name": "version",
          "type": "uint16"
        },
        {
          "internalType": "uint16",
          "name": "chainId",
          "type": "uint16"
        },
        {
          "internalType": "uint256",
          "name": "configType",
          "type": "uint256"
        }
      ],
      "name": "getConfig",
      "outputs": [
        {
          "internalType": "bytes",
          "name": "",
          "type": "bytes"
        }
      ],
      "stateMutability": "view",
      "type": "function"
    },
    {
      "inputs": [],
      "name": "lastStoredPayloadNonce",
      "outputs": [
        {
          "internalType": "uint64",
          "name": "",
          "type": "uint64"
        }
      ],
      "stateMutability": "view",
      "type": "function"
    },
    {
      "inputs": [],
      "name": "lzEndpoint",
      "outputs": [
        {
          "internalType": "contract ILayerZeroEndpoint",
          "name": "",
          "type": "address"
        }
      ],
      "stateMutability": "view",
      "type": "function"
    },
    {
      "inputs": [],
      "name": "owner",
      "outputs": [
        {
          "internalType": "address",
          "name": "",
          "type": "address"
        }
      ],
      "stateMutability": "view",
      "type": "function"
    },
    {
      "inputs": [],
      "name": "renounceOwnership",
      "outputs": [],
      "stateMutability": "nonpayable",
      "type": "function"
    },
    {
      "inputs": [
        {
          "internalType": "uint64",
          "name": "nonce",
          "type": "uint64"
        },
        {
          "internalType": "uint16",
          "name": "remoteChainId",
          "type": "uint16"
        },
        {
          "internalType": "bytes",
          "name": "payload",
          "type": "bytes"
        },
        {
          "internalType": "bytes",
          "name": "adapterParams",
          "type": "bytes"
        },
        {
          "internalType": "uint256",
          "name": "originalValue",
          "type": "uint256"
        }
      ],
      "name": "retryExecute",
      "outputs": [],
      "stateMutability": "payable",
      "type": "function"
    },
    {
      "inputs": [
        {
          "internalType": "uint16",
          "name": "version",
          "type": "uint16"
        },
        {
          "internalType": "uint16",
          "name": "chainId",
          "type": "uint16"
        },
        {
          "internalType": "uint256",
          "name": "configType",
          "type": "uint256"
        },
        {
          "internalType": "bytes",
          "name": "config",
          "type": "bytes"
        }
      ],
      "name": "setConfig",
      "outputs": [],
      "stateMutability": "nonpayable",
      "type": "function"
    },
    {
      "inputs": [
        {
          "internalType": "uint16",
          "name": "version",
          "type": "uint16"
        }
      ],
      "name": "setSendVersion",
      "outputs": [],
      "stateMutability": "nonpayable",
      "type": "function"
    },
    {
      "inputs": [
        {
          "internalType": "uint16",
          "name": "remoteChainId",
          "type": "uint16"
        },
        {
          "internalType": "bytes",
          "name": "remoteAddress",
          "type": "bytes"
        }
      ],
      "name": "setTrustedRemoteAddress",
      "outputs": [],
      "stateMutability": "nonpayable",
      "type": "function"
    },
    {
      "inputs": [
        {
          "internalType": "uint64",
          "name": "",
          "type": "uint64"
        }
      ],
      "name": "storedExecutionHashes",
      "outputs": [
        {
          "internalType": "bytes32",
          "name": "",
          "type": "bytes32"
        }
      ],
      "stateMutability": "view",
      "type": "function"
    },
    {
      "inputs": [
        {
          "internalType": "address",
          "name": "newOwner",
          "type": "address"
        }
      ],
      "name": "transferOwnership",
      "outputs": [],
      "stateMutability": "nonpayable",
      "type": "function"
    },
    {
      "inputs": [
        {
          "internalType": "uint16",
          "name": "",
          "type": "uint16"
        }
      ],
      "name": "trustedRemoteLookup",
      "outputs": [
        {
          "internalType": "bytes",
          "name": "",
          "type": "bytes"
        }
      ],
      "stateMutability": "view",
      "type": "function"
    }
  ],
  "transactionHash": "0x8eb0c7ffd5a490a1da722ba98da6cdf325ece3f1c27399c366b173323fc95d89",
  "args": [
    "0x1a44076050125825900e736c501f859c50fE728c",
    "0x1F09Ec21d7fd0A21879b919bf0f9C46e6b85CA8b"
  ],
  "numDeployments": 1,
  "solcInputHash": "80217b7bf6bdf8910481d1edeff77bcd",
  "bytecode": "0x60a06040523480156200001157600080fd5b50604051620018b4380380620018b483398101604081905262000034916200015b565b806001600160a01b0381166200006557604051631e4fbdf760e01b8152600060048201526024015b60405180910390fd5b6200007081620000f2565b50600180556001600160a01b038216620000df5760405162461bcd60e51b815260206004820152602960248201527f4f6d6e69636861696e50726f706f73616c53656e6465723a20696e76616c696460448201526808195b991c1bda5b9d60ba1b60648201526084016200005c565b506001600160a01b03166080526200019a565b600080546001600160a01b038381166001600160a01b0319831681178455604051919092169283917f8be0079c531659141344cd1fd0a4f28419497f9722a3daafe3b4186f6b6457e09190a35050565b6001600160a01b03811681146200015857600080fd5b50565b600080604083850312156200016f57600080fd5b82516200017c8162000142565b60208401519092506200018f8162000142565b809150509250929050565b6080516116d4620001e06000396000818161023f0152818161033b015281816103a701528181610496015281816107b401528181610a260152610c2f01526116d46000f3fe6080604052600436106100dd5760003560e01c8063a6c3d1651161007f578063bb5a944f11610059578063bb5a944f14610274578063cbed8b9c14610287578063daceee51146102a7578063f2fde38b146102e157600080fd5b8063a6c3d1651461020d578063b353aaa71461022d578063ba2a60da1461026157600080fd5b80635f6716f7116100bb5780635f6716f714610179578063715018a6146101a65780637533d788146101bb5780638da5cb5b146101db57600080fd5b806307e0db17146100e25780631fdd10261461010457806345e380a314610144575b600080fd5b3480156100ee57600080fd5b506101026100fd366004610e04565b610301565b005b34801561011057600080fd5b5061013161011f366004610e3e565b60036020526000908152604090205481565b6040519081526020015b60405180910390f35b34801561015057600080fd5b5061016461015f366004610ea2565b6103a2565b6040805192835260208301919091520161013b565b34801561018557600080fd5b50610199610194366004610f23565b61044c565b60405161013b9190610faf565b3480156101b257600080fd5b50610102610515565b3480156101c757600080fd5b506101996101d6366004610e04565b610529565b3480156101e757600080fd5b506000546001600160a01b03165b6040516001600160a01b03909116815260200161013b565b34801561021957600080fd5b50610102610228366004610fc2565b6105c3565b34801561023957600080fd5b506101f57f000000000000000000000000000000000000000000000000000000000000000081565b61010261026f366004611015565b61064c565b610102610282366004610ea2565b6108b3565b34801561029357600080fd5b506101026102a23660046110af565b610bf7565b3480156102b357600080fd5b506002546102c89067ffffffffffffffff1681565b60405167ffffffffffffffff909116815260200161013b565b3480156102ed57600080fd5b506101026102fc36600461110d565b610ca5565b610309610cfc565b6040517f07e0db1700000000000000000000000000000000000000000000000000000000815261ffff821660048201527f00000000000000000000000000000000000000000000000000000000000000006001600160a01b0316906307e0db1790602401600060405180830381600087803b15801561038757600080fd5b505af115801561039b573d6000803e3d6000fd5b5050505050565b6000807f00000000000000000000000000000000000000000000000000000000000000006001600160a01b03166340a7bb108830898960008a8a6040518863ffffffff1660e01b81526004016103fe979695949392919061115f565b6040805180830381865afa15801561041a573d6000803e3d6000fd5b505050506040513d601f19601f8201168201806040525081019061043e91906111b5565b915091509550959350505050565b6040517ff5ecbdbc00000000000000000000000000000000000000000000000000000000815261ffff808516600483015283166024820152306044820152606481018290526060907f00000000000000000000000000000000000000000000000000000000000000006001600160a01b03169063f5ecbdbc90608401600060405180830381865afa1580156104e5573d6000803e3d6000fd5b505050506040513d6000823e601f3d908101601f1916820160405261050d91908101906111ef565b949350505050565b61051d610cfc565b6105276000610d42565b565b600460205260009081526040902080546105429061129c565b80601f016020809104026020016040519081016040528092919081815260200182805461056e9061129c565b80156105bb5780601f10610590576101008083540402835291602001916105bb565b820191906000526020600020905b81548152906001019060200180831161059e57829003601f168201915b505050505081565b6105cb610cfc565b8181306040516020016105e0939291906112d6565b60408051601f1981840301815291815261ffff851660009081526004602052209061060b9082611347565b507f8c0400cfe2d1199b1a725c78960bcc2a344d869b80590d0f2bd005db15a572ce83838360405161063f93929190611407565b60405180910390a1505050565b610654610daa565b67ffffffffffffffff8716600090815260036020526040902054806106e65760405162461bcd60e51b815260206004820152602a60248201527f4f6d6e69636861696e50726f706f73616c53656e6465723a206e6f2073746f7260448201527f6564207061796c6f61640000000000000000000000000000000000000000000060648201526084015b60405180910390fd5b60008787878787876040516020016107039695949392919061142e565b6040516020818303038152906040529050818180519060200120146107905760405162461bcd60e51b815260206004820152603160248201527f4f6d6e69636861696e50726f706f73616c53656e6465723a20696e76616c696460448201527f20657865637574696f6e20706172616d7300000000000000000000000000000060648201526084016106dd565b67ffffffffffffffff89166000908152600360205260408120556001600160a01b037f00000000000000000000000000000000000000000000000000000000000000001663c58031006107e33486611489565b8a600460008d61ffff1661ffff1681526020019081526020016000208b8b3360008d8d6040518a63ffffffff1660e01b81526004016108299897969594939291906114a2565b6000604051808303818588803b15801561084257600080fd5b505af1158015610856573d6000803e3d6000fd5b50505050508867ffffffffffffffff167f71f6d2b2aa9e3344f99b39005cfb62b9f3224726fd59c585d27529ace84c30ab8360405161089791815260200190565b60405180910390a250506108aa60018055565b50505050505050565b6108bb610cfc565b61ffff8516600090815260046020526040812080546108d99061129c565b80601f01602080910402602001604051908101604052809291908181526020018280546109059061129c565b80156109525780601f1061092757610100808354040283529160200191610952565b820191906000526020600020905b81548152906001019060200180831161093557829003601f168201915b5050505050905080516000036109f65760405162461bcd60e51b815260206004820152604260248201527f4f6d6e69636861696e50726f706f73616c53656e6465723a2064657374696e6160448201527f74696f6e20636861696e206973206e6f742061207472757374656420736f757260648201527f6365000000000000000000000000000000000000000000000000000000000000608482015260a4016106dd565b6040517fc58031000000000000000000000000000000000000000000000000000000000081526001600160a01b037f0000000000000000000000000000000000000000000000000000000000000000169063c5803100903490610a6c908a9086908b908b9032906000908d908d9060040161158b565b6000604051808303818588803b158015610a8557600080fd5b505af193505050508015610a97575060015b610bb0573d808015610ac5576040519150601f19603f3d011682016040523d82523d6000602084013e610aca565b606091505b5060028054600091908290610ae89067ffffffffffffffff166115e7565b91906101000a81548167ffffffffffffffff021916908367ffffffffffffffff160217905590506000888888888834604051602001610b2c9695949392919061142e565b60408051601f19818403018152828252805160208083019190912067ffffffffffffffff8716600081815260039093529390912055925061ffff8b16917f5f75bcca5c62694b542c33759787579412e120b9abbbb1d2a77133b75b1566c490610ba0908c908c908c908c9034908c9061160e565b60405180910390a3505050610bef565b8561ffff167f2ce1f76c46a8f9821497c22ba45b63ae46cf89cceb9846cad58411c155f9969e8686604051610be692919061165c565b60405180910390a25b505050505050565b610bff610cfc565b6040517fcbed8b9c0000000000000000000000000000000000000000000000000000000081526001600160a01b037f0000000000000000000000000000000000000000000000000000000000000000169063cbed8b9c90610c6c9088908890889088908890600401611670565b600060405180830381600087803b158015610c8657600080fd5b505af1158015610c9a573d6000803e3d6000fd5b505050505050505050565b610cad610cfc565b6001600160a01b038116610cf0576040517f1e4fbdf7000000000000000000000000000000000000000000000000000000008152600060048201526024016106dd565b610cf981610d42565b50565b6000546001600160a01b03163314610527576040517f118cdaa70000000000000000000000000000000000000000000000000000000081523360048201526024016106dd565b600080546001600160a01b038381167fffffffffffffffffffffffff0000000000000000000000000000000000000000831681178455604051919092169283917f8be0079c531659141344cd1fd0a4f28419497f9722a3daafe3b4186f6b6457e09190a35050565b600260015403610de6576040517f3ee5aeb500000000000000000000000000000000000000000000000000000000815260040160405180910390fd5b6002600155565b803561ffff81168114610dff57600080fd5b919050565b600060208284031215610e1657600080fd5b610e1f82610ded565b9392505050565b803567ffffffffffffffff81168114610dff57600080fd5b600060208284031215610e5057600080fd5b610e1f82610e26565b60008083601f840112610e6b57600080fd5b50813567ffffffffffffffff811115610e8357600080fd5b602083019150836020828501011115610e9b57600080fd5b9250929050565b600080600080600060608688031215610eba57600080fd5b610ec386610ded565b9450602086013567ffffffffffffffff80821115610ee057600080fd5b610eec89838a01610e59565b90965094506040880135915080821115610f0557600080fd5b50610f1288828901610e59565b969995985093965092949392505050565b600080600060608486031215610f3857600080fd5b610f4184610ded565b9250610f4f60208501610ded565b9150604084013590509250925092565b60005b83811015610f7a578181015183820152602001610f62565b50506000910152565b60008151808452610f9b816020860160208601610f5f565b601f01601f19169290920160200192915050565b602081526000610e1f6020830184610f83565b600080600060408486031215610fd757600080fd5b610fe084610ded565b9250602084013567ffffffffffffffff811115610ffc57600080fd5b61100886828701610e59565b9497909650939450505050565b600080600080600080600060a0888a03121561103057600080fd5b61103988610e26565b965061104760208901610ded565b9550604088013567ffffffffffffffff8082111561106457600080fd5b6110708b838c01610e59565b909750955060608a013591508082111561108957600080fd5b506110968a828b01610e59565b989b979a50959894979596608090950135949350505050565b6000806000806000608086880312156110c757600080fd5b6110d086610ded565b94506110de60208701610ded565b935060408601359250606086013567ffffffffffffffff81111561110157600080fd5b610f1288828901610e59565b60006020828403121561111f57600080fd5b81356001600160a01b0381168114610e1f57600080fd5b81835281816020850137506000828201602090810191909152601f909101601f19169091010190565b61ffff881681526001600160a01b038716602082015260a06040820152600061118c60a083018789611136565b851515606084015282810360808401526111a7818587611136565b9a9950505050505050505050565b600080604083850312156111c857600080fd5b505080516020909101519092909150565b634e487b7160e01b600052604160045260246000fd5b60006020828403121561120157600080fd5b815167ffffffffffffffff8082111561121957600080fd5b818401915084601f83011261122d57600080fd5b81518181111561123f5761123f6111d9565b604051601f8201601f19908116603f01168101908382118183101715611267576112676111d9565b8160405282815287602084870101111561128057600080fd5b611291836020830160208801610f5f565b979650505050505050565b600181811c908216806112b057607f821691505b6020821081036112d057634e487b7160e01b600052602260045260246000fd5b50919050565b8284823760609190911b6bffffffffffffffffffffffff19169101908152601401919050565b601f82111561134257600081815260208120601f850160051c810160208610156113235750805b601f850160051c820191505b81811015610bef5782815560010161132f565b505050565b815167ffffffffffffffff811115611361576113616111d9565b6113758161136f845461129c565b846112fc565b602080601f8311600181146113aa57600084156113925750858301515b600019600386901b1c1916600185901b178555610bef565b600085815260208120601f198616915b828110156113d9578886015182559484019460019091019084016113ba565b50858210156113f75787850151600019600388901b60f8161c191681555b5050505050600190811b01905550565b61ffff84168152604060208201526000611425604083018486611136565b95945050505050565b61ffff8716815260806020820152600061144c608083018789611136565b828103604084015261145f818688611136565b915050826060830152979650505050505050565b634e487b7160e01b600052601160045260246000fd5b8082018082111561149c5761149c611473565b92915050565b61ffff891681526000602060c08184015260008a546114c08161129c565b8060c087015260e06001808416600081146114e257600181146114fc5761152a565b60ff1985168984015283151560051b89018301955061152a565b8f6000528660002060005b858110156115225781548b8201860152908301908801611507565b8a0184019650505b50505050508381036040850152611542818a8c611136565b91505061155a60608401886001600160a01b03169052565b6001600160a01b038616608084015282810360a084015261157c818587611136565b9b9a5050505050505050505050565b61ffff8916815260c0602082015260006115a860c083018a610f83565b82810360408401526115bb81898b611136565b6001600160a01b0388811660608601528716608085015283810360a0850152905061157c818587611136565b600067ffffffffffffffff80831681810361160457611604611473565b6001019392505050565b60808152600061162260808301888a611136565b8281036020840152611635818789611136565b9050846040840152828103606084015261164f8185610f83565b9998505050505050505050565b60208152600061050d602083018486611136565b600061ffff80881683528087166020840152508460408301526080606083015261129160808301848661113656fea26469706673582212200212885db05448afea23d389cc68b5a91d6b383a38b89a6392137b86c804f5e464736f6c63430008150033",
  "devdoc": {
    "details": "When used with GovernorBravo the owner of this contract must be set to the Timelock contract",
    "errors": {
      "OwnableInvalidOwner(address)": [
        {
          "details": "The owner is not a valid owner account. (eg. `address(0)`)"
        }
      ],
      "OwnableUnauthorizedAccount(address)": [
        {
          "details": "The caller account is not authorized to perform an operation."
        }
      ],
      "ReentrancyGuardReentrantCall()": [
        {
          "details": "Unauthorized reentrant call."
        }
      ]
    },
    "kind": "dev",
    "methods": {
      "estimateFees(uint16,bytes,bytes)": {
        "details": "The estimated fees are the minimum required, it's recommended to increase the fees amount when sending a message. The unused amount will be refunded",
        "params": {
          "adapterParams": "The params used to specify the custom amount of gas required for the execution on the destination",
          "payload": "The payload to be sent to the remote chain. It's computed as follows payload = abi.encode(targets, values, signatures, calldatas)",
          "remoteChainId": "The LayerZero id of a remote chain"
        },
        "returns": {
          "nativeFee": "The amount of fee in the native gas token (e.g. ETH)",
          "zroFee": "The amount of fee in ZRO token"
        }
      },
      "execute(uint16,bytes,bytes)": {
        "details": "Stores the hash of the execution parameters if sending fails (e.g., due to insufficient fees)",
        "params": {
          "adapterParams": "The params used to specify the custom amount of gas required for the execution on the destination",
          "payload": "The payload to be sent to the remote chain. It's computed as follows payload = abi.encode(targets, values, signatures, calldatas)",
          "remoteChainId": "The LayerZero id of the remote chain"
        }
      },
      "getConfig(uint16,uint16,uint256)": {
        "params": {
          "chainId": "The LayerZero chainId",
          "configType": "Type of configuration. Every messaging library has its own convention.",
          "version": "Messaging library version"
        }
      },
      "owner()": {
        "details": "Returns the address of the current owner."
      },
      "renounceOwnership()": {
        "details": "Leaves the contract without owner. It will not be possible to call `onlyOwner` functions. Can only be called by the current owner. NOTE: Renouncing ownership will leave the contract without an owner, thereby disabling any functionality that is only available to the owner."
      },
      "retryExecute(uint64,uint16,bytes,bytes,uint256)": {
        "details": "Allows to provide more fees if needed. The extra fees will be refunded to the caller",
        "params": {
          "adapterParams": "The params used to specify the custom amount of gas required for the execution on the destination",
          "nonce": "The nonce to identify a failed message",
          "originalValue": "The msg.value passed when execute() function was called",
          "payload": "The payload to be sent to the remote chain. It's computed as follows payload = abi.encode(targets, values, signatures, calldatas)",
          "remoteChainId": "The LayerZero id of the remote chain"
        }
      },
      "setConfig(uint16,uint16,uint256,bytes)": {
        "params": {
          "chainId": "The LayerZero chainId for the pending config change",
          "config": "The configuration in bytes. It can encode arbitrary content",
          "configType": "The type of configuration. Every messaging library has its own convention",
          "version": "Messaging library version"
        }
      },
      "setSendVersion(uint16)": {
        "params": {
          "version": "New messaging library version"
        }
      },
      "setTrustedRemoteAddress(uint16,bytes)": {
        "params": {
          "remoteAddress": "The address of the contract on the remote chain to receive messages sent by this contract",
          "remoteChainId": "The LayerZero id of a remote chain"
        }
      },
      "transferOwnership(address)": {
        "details": "Transfers ownership of the contract to a new account (`newOwner`). Can only be called by the current owner."
      }
    },
    "stateVariables": {
      "storedExecutionHashes": {
        "details": "[nonce] -> [executionHash]"
      }
    },
    "title": "Omnichain Governance Proposal Sender",
    "version": 1
  },
  "userdoc": {
    "events": {
      "ClearPayload(uint64,bytes32)": {
        "notice": "Emitted when a previously failed message successfully sent to the remote chain"
      },
      "ExecuteRemoteProposal(uint16,bytes)": {
        "notice": "Emitted when a proposal execution request sent to the remote chain"
      },
      "SetTrustedRemoteAddress(uint16,bytes)": {
        "notice": "Emitted when a remote message receiver is set for the remote chain"
      },
      "StorePayload(uint64,uint16,bytes,bytes,uint256,bytes)": {
        "notice": "Emitted when an execution hash of a failed message saved"
      }
    },
    "kind": "user",
    "methods": {
      "estimateFees(uint16,bytes,bytes)": {
        "notice": "Estimates LayerZero fees for cross-chain message delivery to the remote chain"
      },
      "execute(uint16,bytes,bytes)": {
        "notice": "Sends a message to execute a remote proposal"
      },
      "getConfig(uint16,uint16,uint256)": {
        "notice": "Gets the configuration of the LayerZero messaging library of the specified version"
      },
      "lzEndpoint()": {
        "notice": "LayerZero endpoint for sending messages to remote chains"
      },
      "retryExecute(uint64,uint16,bytes,bytes,uint256)": {
        "notice": "Resends a previously failed message"
      },
      "setConfig(uint16,uint16,uint256,bytes)": {
        "notice": "Sets the configuration of the LayerZero messaging library of the specified version"
      },
      "setSendVersion(uint16)": {
        "notice": "Sets the configuration of the LayerZero messaging library of the specified version"
      },
      "setTrustedRemoteAddress(uint16,bytes)": {
        "notice": "Sets the remote message receiver address"
      },
      "storedExecutionHashes(uint64)": {
        "notice": "Execution hashes of failed messages"
      },
      "trustedRemoteLookup(uint16)": {
        "notice": "Specifies the allowed path for sending messages (remote chainId => remote app address + local app address)"
      }
    },
    "notice": "Sends a proposal's data to remote chains for execution after the proposal passes on the main chain",
    "version": 1
  },
  "storageLayout": {
    "storage": [
      {
        "astId": 1411,
        "contract": "contracts/governance/omnichain/OmnichainProposalSenderL1.sol:OmnichainProposalSenderL1",
        "label": "_owner",
        "offset": 0,
        "slot": "0",
        "type": "t_address"
      },
      {
        "astId": 1591,
        "contract": "contracts/governance/omnichain/OmnichainProposalSenderL1.sol:OmnichainProposalSenderL1",
        "label": "_status",
        "offset": 0,
        "slot": "1",
        "type": "t_uint256"
      },
      {
        "astId": 1910,
        "contract": "contracts/governance/omnichain/OmnichainProposalSenderL1.sol:OmnichainProposalSenderL1",
        "label": "lastStoredPayloadNonce",
        "offset": 0,
        "slot": "2",
        "type": "t_uint64"
      },
      {
        "astId": 1915,
        "contract": "contracts/governance/omnichain/OmnichainProposalSenderL1.sol:OmnichainProposalSenderL1",
        "label": "storedExecutionHashes",
        "offset": 0,
        "slot": "3",
        "type": "t_mapping(t_uint64,t_bytes32)"
      },
      {
        "astId": 1924,
        "contract": "contracts/governance/omnichain/OmnichainProposalSenderL1.sol:OmnichainProposalSenderL1",
        "label": "trustedRemoteLookup",
        "offset": 0,
        "slot": "4",
        "type": "t_mapping(t_uint16,t_bytes_storage)"
      }
    ],
    "types": {
      "t_address": {
        "encoding": "inplace",
        "label": "address",
        "numberOfBytes": "20"
      },
      "t_bytes32": {
        "encoding": "inplace",
        "label": "bytes32",
        "numberOfBytes": "32"
      },
      "t_bytes_storage": {
        "encoding": "bytes",
        "label": "bytes",
        "numberOfBytes": "32"
      },
      "t_mapping(t_uint16,t_bytes_storage)": {
        "encoding": "mapping",
        "key": "t_uint16",
        "label": "mapping(uint16 => bytes)",
        "numberOfBytes": "32",
        "value": "t_bytes_storage"
      },
      "t_mapping(t_uint64,t_bytes32)": {
        "encoding": "mapping",
        "key": "t_uint64",
        "label": "mapping(uint64 => bytes32)",
        "numberOfBytes": "32",
        "value": "t_bytes32"
      },
      "t_uint16": {
        "encoding": "inplace",
        "label": "uint16",
        "numberOfBytes": "2"
      },
      "t_uint256": {
        "encoding": "inplace",
        "label": "uint256",
        "numberOfBytes": "32"
      },
      "t_uint64": {
        "encoding": "inplace",
        "label": "uint64",
        "numberOfBytes": "8"
      }
    }
  }
}