{
  "address": "0xB21aa1Ff22efAd4FFAd6Df0cf7c6FB5dfA6Dfc8e",
  "abi": [
    {
      "inputs": [
        {
          "internalType": "address",
          "name": "target",
          "type": "address"
        }
      ],
      "name": "AddressEmptyCode",
      "type": "error"
    },
    {
      "inputs": [
        {
          "internalType": "address",
          "name": "account",
          "type": "address"
        }
      ],
      "name": "AddressInsufficientBalance",
      "type": "error"
    },
    {
      "inputs": [],
      "name": "DebtCapReached",
      "type": "error"
    },
    {
      "inputs": [],
      "name": "FailedInnerCall",
      "type": "error"
    },
    {
      "inputs": [],
      "name": "InvalidInitialization",
      "type": "error"
    },
    {
      "inputs": [],
      "name": "NotInitializing",
      "type": "error"
    },
    {
      "inputs": [],
      "name": "NotZeroAddress",
      "type": "error"
    },
    {
      "inputs": [],
      "name": "NotZeroValue",
      "type": "error"
    },
    {
      "inputs": [
        {
          "internalType": "address",
          "name": "owner",
          "type": "address"
        }
      ],
      "name": "OwnableInvalidOwner",
      "type": "error"
    },
    {
      "inputs": [
        {
          "internalType": "address",
          "name": "account",
          "type": "address"
        }
      ],
      "name": "OwnableUnauthorizedAccount",
      "type": "error"
    },
    {
      "inputs": [],
      "name": "ReentrancyGuardReentrantCall",
      "type": "error"
    },
    {
      "inputs": [
        {
          "internalType": "address",
          "name": "token",
          "type": "address"
        }
      ],
      "name": "SafeERC20FailedOperation",
      "type": "error"
    },
    {
      "inputs": [],
      "name": "SupplyCapReached",
      "type": "error"
    },
    {
      "anonymous": false,
      "inputs": [
        {
          "indexed": true,
          "internalType": "address",
          "name": "_newFeeDestination",
          "type": "address"
        },
        {
          "indexed": true,
          "internalType": "address",
          "name": "_oldFeeDestination",
          "type": "address"
        },
        {
          "indexed": false,
          "internalType": "address",
          "name": "sender",
          "type": "address"
        }
      ],
      "name": "FeeDestinationUpdated",
      "type": "event"
    },
    {
      "anonymous": false,
      "inputs": [
        {
          "indexed": true,
          "internalType": "uint256",
          "name": "_newMintFeeBps",
          "type": "uint256"
        },
        {
          "indexed": true,
          "internalType": "uint256",
          "name": "_newRedeemFeeBps",
          "type": "uint256"
        },
        {
          "indexed": false,
          "internalType": "uint256",
          "name": "_oldMintFeeBps",
          "type": "uint256"
        },
        {
          "indexed": false,
          "internalType": "uint256",
          "name": "_oldRedeemFeeBps",
          "type": "uint256"
        },
        {
          "indexed": false,
          "internalType": "address",
          "name": "sender",
          "type": "address"
        }
      ],
      "name": "FeesUpdated",
      "type": "event"
    },
    {
      "anonymous": false,
      "inputs": [
        {
          "indexed": false,
          "internalType": "uint64",
          "name": "version",
          "type": "uint64"
        }
      ],
      "name": "Initialized",
      "type": "event"
    },
    {
      "anonymous": false,
      "inputs": [
        {
          "indexed": true,
          "internalType": "address",
          "name": "destination",
          "type": "address"
        },
        {
          "indexed": true,
          "internalType": "uint256",
          "name": "shares",
          "type": "uint256"
        },
        {
          "indexed": true,
          "internalType": "uint256",
          "name": "amount",
          "type": "uint256"
        },
        {
          "indexed": false,
          "internalType": "uint256",
          "name": "newDebt",
          "type": "uint256"
        },
        {
          "indexed": false,
          "internalType": "uint256",
          "name": "supplyCap",
          "type": "uint256"
        },
        {
          "indexed": false,
          "internalType": "address",
          "name": "sender",
          "type": "address"
        }
      ],
      "name": "Mint",
      "type": "event"
    },
    {
      "anonymous": false,
      "inputs": [
        {
          "indexed": true,
          "internalType": "address",
          "name": "previousOwner",
          "type": "address"
        },
        {
          "indexed": true,
          "internalType": "address",
          "name": "newOwner",
          "type": "address"
        }
      ],
      "name": "OwnershipTransferred",
      "type": "event"
    },
    {
      "anonymous": false,
      "inputs": [
        {
          "indexed": true,
          "internalType": "address",
          "name": "destination",
          "type": "address"
        },
        {
          "indexed": true,
          "internalType": "uint256",
          "name": "shares",
          "type": "uint256"
        },
        {
          "indexed": true,
          "internalType": "uint256",
          "name": "amount",
          "type": "uint256"
        },
        {
          "indexed": false,
          "internalType": "uint256",
          "name": "newDebt",
          "type": "uint256"
        },
        {
          "indexed": false,
          "internalType": "uint256",
          "name": "supplyCap",
          "type": "uint256"
        },
        {
          "indexed": false,
          "internalType": "address",
          "name": "sender",
          "type": "address"
        }
      ],
      "name": "Redeem",
      "type": "event"
    },
    {
      "anonymous": false,
      "inputs": [
        {
          "indexed": true,
          "internalType": "uint256",
          "name": "_newSupplyCap",
          "type": "uint256"
        },
        {
          "indexed": true,
          "internalType": "uint256",
          "name": "_newDebtCap",
          "type": "uint256"
        },
        {
          "indexed": false,
          "internalType": "uint256",
          "name": "_oldSupplyCap",
          "type": "uint256"
        },
        {
          "indexed": false,
          "internalType": "uint256",
          "name": "_oldDebtCap",
          "type": "uint256"
        },
        {
          "indexed": false,
          "internalType": "address",
          "name": "sender",
          "type": "address"
        }
      ],
      "name": "SupplyCapUpdated",
      "type": "event"
    },
    {
      "inputs": [],
      "name": "MAX_FEE_BPS",
      "outputs": [
        {
          "internalType": "uint256",
          "name": "",
          "type": "uint256"
        }
      ],
      "stateMutability": "view",
      "type": "function"
    },
    {
      "inputs": [],
      "name": "collateral",
      "outputs": [
        {
          "internalType": "contract IERC20",
          "name": "",
          "type": "address"
        }
      ],
      "stateMutability": "view",
      "type": "function"
    },
    {
      "inputs": [],
      "name": "debt",
      "outputs": [
        {
          "internalType": "uint256",
          "name": "",
          "type": "uint256"
        }
      ],
      "stateMutability": "view",
      "type": "function"
    },
    {
      "inputs": [],
      "name": "debtCap",
      "outputs": [
        {
          "internalType": "uint256",
          "name": "",
          "type": "uint256"
        }
      ],
      "stateMutability": "view",
      "type": "function"
    },
    {
      "inputs": [],
      "name": "feeDestination",
      "outputs": [
        {
          "internalType": "address",
          "name": "",
          "type": "address"
        }
      ],
      "stateMutability": "view",
      "type": "function"
    },
    {
      "inputs": [],
      "name": "feesCollected",
      "outputs": [
        {
          "internalType": "uint256",
          "name": "",
          "type": "uint256"
        }
      ],
      "stateMutability": "view",
      "type": "function"
    },
    {
      "inputs": [
        {
          "internalType": "address",
          "name": "_zai",
          "type": "address"
        },
        {
          "internalType": "address",
          "name": "_collateral",
          "type": "address"
        },
        {
          "internalType": "address",
          "name": "_governance",
          "type": "address"
        },
        {
          "internalType": "uint256",
          "name": "_supplyCap",
          "type": "uint256"
        },
        {
          "internalType": "uint256",
          "name": "_debtCap",
          "type": "uint256"
        },
        {
          "internalType": "uint256",
          "name": "_mintFeeBps",
          "type": "uint256"
        },
        {
          "internalType": "uint256",
          "name": "_redeemFeeBps",
          "type": "uint256"
        },
        {
          "internalType": "address",
          "name": "_feeDestination",
          "type": "address"
        }
      ],
      "name": "initialize",
      "outputs": [],
      "stateMutability": "nonpayable",
      "type": "function"
    },
    {
      "inputs": [
        {
          "internalType": "address",
          "name": "dest",
          "type": "address"
        },
        {
          "internalType": "uint256",
          "name": "shares",
          "type": "uint256"
        }
      ],
      "name": "mint",
      "outputs": [],
      "stateMutability": "nonpayable",
      "type": "function"
    },
    {
      "inputs": [
        {
          "internalType": "uint256",
          "name": "amountAssetsIn",
          "type": "uint256"
        }
      ],
      "name": "mintAmountIn",
      "outputs": [
        {
          "internalType": "uint256",
          "name": "shares",
          "type": "uint256"
        }
      ],
      "stateMutability": "view",
      "type": "function"
    },
    {
      "inputs": [],
      "name": "mintFeeBps",
      "outputs": [
        {
          "internalType": "uint256",
          "name": "",
          "type": "uint256"
        }
      ],
      "stateMutability": "view",
      "type": "function"
    },
    {
      "inputs": [],
      "name": "owner",
      "outputs": [
        {
          "internalType": "address",
          "name": "",
          "type": "address"
        }
      ],
      "stateMutability": "view",
      "type": "function"
    },
    {
      "inputs": [],
      "name": "rate",
      "outputs": [
        {
          "internalType": "uint256",
          "name": "",
          "type": "uint256"
        }
      ],
      "stateMutability": "view",
      "type": "function"
    },
    {
      "inputs": [
        {
          "internalType": "address",
          "name": "dest",
          "type": "address"
        },
        {
          "internalType": "uint256",
          "name": "shares",
          "type": "uint256"
        }
      ],
      "name": "redeem",
      "outputs": [],
      "stateMutability": "nonpayable",
      "type": "function"
    },
    {
      "inputs": [
        {
          "internalType": "uint256",
          "name": "amountAssetsOut",
          "type": "uint256"
        }
      ],
      "name": "redeemAmountOut",
      "outputs": [
        {
          "internalType": "uint256",
          "name": "shares",
          "type": "uint256"
        }
      ],
      "stateMutability": "view",
      "type": "function"
    },
    {
      "inputs": [],
      "name": "redeemFeeBps",
      "outputs": [
        {
          "internalType": "uint256",
          "name": "",
          "type": "uint256"
        }
      ],
      "stateMutability": "view",
      "type": "function"
    },
    {
      "inputs": [],
      "name": "renounceOwnership",
      "outputs": [],
      "stateMutability": "nonpayable",
      "type": "function"
    },
    {
      "inputs": [],
      "name": "supplyCap",
      "outputs": [
        {
          "internalType": "uint256",
          "name": "",
          "type": "uint256"
        }
      ],
      "stateMutability": "view",
      "type": "function"
    },
    {
      "inputs": [],
      "name": "sweepFees",
      "outputs": [],
      "stateMutability": "nonpayable",
      "type": "function"
    },
    {
      "inputs": [
        {
          "internalType": "uint256",
          "name": "_amount",
          "type": "uint256"
        }
      ],
      "name": "toCollateralAmount",
      "outputs": [
        {
          "internalType": "uint256",
          "name": "",
          "type": "uint256"
        }
      ],
      "stateMutability": "view",
      "type": "function"
    },
    {
      "inputs": [
        {
          "internalType": "uint256",
          "name": "_amount",
          "type": "uint256"
        },
        {
          "internalType": "uint256",
          "name": "_fee",
          "type": "uint256"
        }
      ],
      "name": "toCollateralAmountWithFee",
      "outputs": [
        {
          "internalType": "uint256",
          "name": "",
          "type": "uint256"
        }
      ],
      "stateMutability": "view",
      "type": "function"
    },
    {
      "inputs": [
        {
          "internalType": "uint256",
          "name": "_amount",
          "type": "uint256"
        },
        {
          "internalType": "uint256",
          "name": "_fee",
          "type": "uint256"
        }
      ],
      "name": "toCollateralAmountWithFeeInverse",
      "outputs": [
        {
          "internalType": "uint256",
          "name": "",
          "type": "uint256"
        }
      ],
      "stateMutability": "view",
      "type": "function"
    },
    {
      "inputs": [
        {
          "internalType": "address",
          "name": "newOwner",
          "type": "address"
        }
      ],
      "name": "transferOwnership",
      "outputs": [],
      "stateMutability": "nonpayable",
      "type": "function"
    },
    {
      "inputs": [
        {
          "internalType": "uint256",
          "name": "_supplyCap",
          "type": "uint256"
        },
        {
          "internalType": "uint256",
          "name": "_debtCap",
          "type": "uint256"
        }
      ],
      "name": "updateCaps",
      "outputs": [],
      "stateMutability": "nonpayable",
      "type": "function"
    },
    {
      "inputs": [
        {
          "internalType": "address",
          "name": "_feeDestination",
          "type": "address"
        }
      ],
      "name": "updateFeeDestination",
      "outputs": [],
      "stateMutability": "nonpayable",
      "type": "function"
    },
    {
      "inputs": [
        {
          "internalType": "uint256",
          "name": "_mintFeeBps",
          "type": "uint256"
        },
        {
          "internalType": "uint256",
          "name": "_redeemFeeBps",
          "type": "uint256"
        }
      ],
      "name": "updateFees",
      "outputs": [],
      "stateMutability": "nonpayable",
      "type": "function"
    },
    {
      "inputs": [],
      "name": "zai",
      "outputs": [
        {
          "internalType": "contract IStablecoin",
          "name": "",
          "type": "address"
        }
      ],
      "stateMutability": "view",
      "type": "function"
    }
  ],
  "transactionHash": "0x3169b9344c721a8761ac14b5fab616b680e8ecd90f3ec71c9f1f3afcc70c7580",
  "args": [],
  "numDeployments": 1,
  "solcInputHash": "7dd21d2f7424db6d5b1fc667d59ecac8",
  "bytecode": "0x60a060405261271060805234801561001657600080fd5b506080516113e4610055600039600081816102a9015281816105250152818161054b0152818161099f015281816109f20152610ba401526113e46000f3fe608060405234801561001057600080fd5b506004361061016e5760003560e01c8063715018a6116100ce578063d55be8c611610087578063d55be8c6146102a4578063d8dfeb45146102cb578063dd62aefb146102de578063de53fcd5146102f1578063f071db5a14610304578063f2fde38b1461030c578063f5320fd81461031f57600080fd5b8063715018a6146102675780638da5cb5b1461026f5780638f770ad01461027757806397c8bcc114610280578063bb5dc18914610289578063d113b95c1461029c57600080fd5b80632bf033ad1161012b5780632bf033ad146101f75780632c4e722e1461020a57806331486c061461021257806340c10f191461021b5780635dc2e5d11461022e57806366bea228146102415780636db794371461025457600080fd5b806307140b341461017357806309f6442c1461019c5780630dca59c1146101b35780630eb26499146101bc5780631e9a6950146101d15780631f80b95a146101e4575b600080fd5b600054610186906001600160a01b031681565b6040516101939190611128565b60405180910390f35b6101a560065481565b604051908152602001610193565b6101a560045481565b6101cf6101ca36600461113c565b610332565b005b6101cf6101df36600461117a565b610348565b6101a56101f23660046111a4565b610512565b6101cf6102053660046111bd565b6105a0565b6101a561068e565b6101a560035481565b6101cf61022936600461117a565b610708565b6101cf61023c366004611238565b610907565b6101a561024f3660046111a4565b61091b565b6101cf61026236600461113c565b610938565b6101cf61094a565b61018661095e565b6101a560025481565b6101a560055481565b6101a56102973660046111a4565b61098c565b6101cf6109c3565b6101a57f000000000000000000000000000000000000000000000000000000000000000081565b600154610186906001600160a01b031681565b6101a56102ec36600461113c565b6109ee565b600754610186906001600160a01b031681565b6101a5610a3f565b6101cf61031a366004611238565b610b65565b6101a561032d36600461113c565b610ba0565b61033a610bcd565b6103448282610bff565b5050565b610350610c57565b600061035e82600654610ba0565b90508060000361038157604051633fad6f3960e11b815260040160405180910390fd5b816000036103a257604051633fad6f3960e11b815260040160405180910390fd5b6000546040516323b872dd60e01b81526001600160a01b03909116906323b872dd906103d690339030908790600401611253565b6020604051808303816000875af11580156103f5573d6000803e3d6000fd5b505050506040513d601f19601f820116820180604052508101906104199190611277565b50600054604051632770a7eb60e21b81526001600160a01b0390911690639dc29fac9061044c9030908690600401611299565b600060405180830381600087803b15801561046657600080fd5b505af115801561047a573d6000803e3d6000fd5b505060015461049692506001600160a01b031690508483610c8f565b81600460008282546104a891906112c8565b925050819055508082846001600160a01b03167f936e31ed75b936652e58e831fe69a161b06bc628b8b02e9dc63bc89fe578a6e1600454600254336040516104f2939291906112db565b60405180910390a450610344600160008051602061138f83398151915255565b600061051c61068e565b600554610549907f00000000000000000000000000000000000000000000000000000000000000006112fa565b7f000000000000000000000000000000000000000000000000000000000000000061057c85670de0b6b3a764000061130d565b610586919061130d565b6105909190611324565b61059a9190611324565b92915050565b7ff0c57e16840df040f15088dc2f81fe391c3923bec73e23a9662efc9c229c6a00805460049190600160401b900460ff16806105ea5750805467ffffffffffffffff808416911610155b156106085760405163f92ee8a960e01b815260040160405180910390fd5b805468ffffffffffffffffff191667ffffffffffffffff831617600160401b17815561063a8a8a8a8a8a8a8a8a610d00565b805460ff60401b1916815560405167ffffffffffffffff831681527fc7f505b2f371ae2175ee4913f4499e1f2633a7b5936321eed1cdaeb6115181d29060200160405180910390a150505050505050505050565b600154604051630a28a47760e01b8152670de0b6b3a764000060048201526000916001600160a01b031690630a28a47790602401602060405180830381865afa1580156106df573d6000803e3d6000fd5b505050506040513d601f19601f820116820180604052508101906107039190611346565b905090565b610710610c57565b600061071e826005546109ee565b90508060000361074157604051633fad6f3960e11b815260040160405180910390fd5b8160000361076257604051633fad6f3960e11b815260040160405180910390fd5b6002546001546040516370a0823160e01b815283916001600160a01b0316906370a0823190610795903090600401611128565b602060405180830381865afa1580156107b2573d6000803e3d6000fd5b505050506040513d601f19601f820116820180604052508101906107d69190611346565b6107e091906112fa565b11156107ff576040516354db2d5d60e11b815260040160405180910390fd5b6003548260045461081091906112fa565b111561082f57604051633b60212960e01b815260040160405180910390fd5b600154610847906001600160a01b0316333084610de4565b6000546040516340c10f1960e01b81526001600160a01b03909116906340c10f19906108799086908690600401611299565b600060405180830381600087803b15801561089357600080fd5b505af11580156108a7573d6000803e3d6000fd5b5050505081600460008282546108bd91906112fa565b925050819055508082846001600160a01b03167f265ee4cff6cdf714e68c02e61a7864cf66bc04e372a41b6cc425acbb737cd395600454600254336040516104f2939291906112db565b61090f610bcd565b61091881610e12565b50565b6000670de0b6b3a764000061092e61068e565b610590908461130d565b610940610bcd565b6103448282610e72565b610952610bcd565b61095c6000610ebc565b565b7f9016d09d72d40fdae2fd8ceac6b6234c7706214fd39c1cd1e609a0528c199300546001600160a01b031690565b600061099661068e565b600654610549907f00000000000000000000000000000000000000000000000000000000000000006112c8565b60075461095c906001600160a01b03166109db610a3f565b6001546001600160a01b03169190610c8f565b60007f0000000000000000000000000000000000000000000000000000000000000000610a1b83826112fa565b610a248561091b565b610a2e919061130d565b610a389190611324565b9392505050565b6001546040516370a0823160e01b815260009182916001600160a01b03909116906370a0823190610a74903090600401611128565b602060405180830381865afa158015610a91573d6000803e3d6000fd5b505050506040513d601f19601f82011682018060405250810190610ab59190611346565b90506000610ac161068e565b610ad383670de0b6b3a764000061130d565b610add9190611324565b9050600454811015610b2d5760405162461bcd60e51b81526020600482015260146024820152733737903cb4b2b632103a37903a3930b739b332b960611b60448201526064015b60405180910390fd5b610b3561068e565b600454610b4290836112c8565b610b5490670de0b6b3a764000061130d565b610b5e9190611324565b9250505090565b610b6d610bcd565b6001600160a01b038116610b97576000604051631e4fbdf760e01b8152600401610b249190611128565b61091881610ebc565b60007f0000000000000000000000000000000000000000000000000000000000000000610a1b83826112c8565b33610bd661095e565b6001600160a01b03161461095c573360405163118cdaa760e01b8152600401610b249190611128565b600280546003805492859055839055604051909190839085907fae75d5c2e3024e6e661c4709fec706270aa58d8eb07547e3d6fc4ba44b76ab2390610c49908690869033906112db565b60405180910390a350505050565b60008051602061138f833981519152805460011901610c8957604051633ee5aeb560e01b815260040160405180910390fd5b60029055565b610ce783846001600160a01b031663a9059cbb8585604051602401610cb5929190611299565b604051602081830303815290604052915060e01b6020820180516001600160e01b038381831617835250505050610f2d565b505050565b600160008051602061138f83398151915255565b600080546001600160a01b03808b166001600160a01b0319928316811790935560018054918b16919092161790551580610d4157506001600160a01b038716155b80610d5357506001600160a01b038616155b80610d6557506001600160a01b038116155b15610d83576040516366385fa360e01b815260040160405180910390fd5b841580610d8e575083155b15610dac57604051633fad6f3960e11b815260040160405180910390fd5b610db586610f87565b610dbd610f98565b610dc78383610e72565b610dd18585610bff565b610dda81610e12565b5050505050505050565b610e0c84856001600160a01b03166323b872dd868686604051602401610cb593929190611253565b50505050565b600780546001600160a01b038381166001600160a01b03198316811790935560405191169182917f77152a8590285dd4dae2386ed85a5514f2a5fd13ae6969df03169aea7ebb88a890610e66903390611128565b60405180910390a35050565b600580546006805492859055839055604051909190839085907f040ad6c94afb3c31033baf750e5271ef1190b75380494159c0be334e92c069c790610c49908690869033906112db565b7f9016d09d72d40fdae2fd8ceac6b6234c7706214fd39c1cd1e609a0528c19930080546001600160a01b031981166001600160a01b03848116918217845560405192169182907f8be0079c531659141344cd1fd0a4f28419497f9722a3daafe3b4186f6b6457e090600090a3505050565b6000610f426001600160a01b03841683610fa8565b90508051600014158015610f67575080806020019051810190610f659190611277565b155b15610ce75782604051635274afe760e01b8152600401610b249190611128565b610f8f610fb6565b61091881610fff565b610fa0610fb6565b61095c611007565b6060610a388383600061100f565b7ff0c57e16840df040f15088dc2f81fe391c3923bec73e23a9662efc9c229c6a0054600160401b900460ff1661095c57604051631afcd79f60e31b815260040160405180910390fd5b610b6d610fb6565b610cec610fb6565b606081471015611034573060405163cd78605960e01b8152600401610b249190611128565b600080856001600160a01b03168486604051611050919061135f565b60006040518083038185875af1925050503d806000811461108d576040519150601f19603f3d011682016040523d82523d6000602084013e611092565b606091505b50915091506110a28683836110ac565b9695505050505050565b6060826110c1576110bc826110ff565b610a38565b81511580156110d857506001600160a01b0384163b155b156110f85783604051639996b31560e01b8152600401610b249190611128565b5080610a38565b80511561110f5780518082602001fd5b604051630a12f52160e11b815260040160405180910390fd5b6001600160a01b0391909116815260200190565b6000806040838503121561114f57600080fd5b50508035926020909101359150565b80356001600160a01b038116811461117557600080fd5b919050565b6000806040838503121561118d57600080fd5b6111968361115e565b946020939093013593505050565b6000602082840312156111b657600080fd5b5035919050565b600080600080600080600080610100898b0312156111da57600080fd5b6111e38961115e565b97506111f160208a0161115e565b96506111ff60408a0161115e565b9550606089013594506080890135935060a0890135925060c0890135915061122960e08a0161115e565b90509295985092959890939650565b60006020828403121561124a57600080fd5b610a388261115e565b6001600160a01b039384168152919092166020820152604081019190915260600190565b60006020828403121561128957600080fd5b81518015158114610a3857600080fd5b6001600160a01b03929092168252602082015260400190565b634e487b7160e01b600052601160045260246000fd5b8181038181111561059a5761059a6112b2565b92835260208301919091526001600160a01b0316604082015260600190565b8082018082111561059a5761059a6112b2565b808202811582820484141761059a5761059a6112b2565b60008261134157634e487b7160e01b600052601260045260246000fd5b500490565b60006020828403121561135857600080fd5b5051919050565b6000825160005b818110156113805760208186018101518583015201611366565b50600092019182525091905056fe9b779b17422d0df92223018b32b4d1fa46e071723d6817e2486d003becc55f00a26469706673582212208b71094c1e45c81080297ac4be1cb6ec17675ffa8c2dcbd3a6a60c3f5389596664736f6c63430008150033",
  "devdoc": {
    "errors": {
      "AddressEmptyCode(address)": [
        {
          "details": "There's no code at `target` (it is not a contract)."
        }
      ],
      "AddressInsufficientBalance(address)": [
        {
          "details": "The ETH balance of the account is not enough to perform the operation."
        }
      ],
      "FailedInnerCall()": [
        {
          "details": "A call to an address target failed. The target may have reverted."
        }
      ],
      "InvalidInitialization()": [
        {
          "details": "The contract is already initialized."
        }
      ],
      "NotInitializing()": [
        {
          "details": "The contract is not initializing."
        }
      ],
      "OwnableInvalidOwner(address)": [
        {
          "details": "The owner is not a valid owner account. (eg. `address(0)`)"
        }
      ],
      "OwnableUnauthorizedAccount(address)": [
        {
          "details": "The caller account is not authorized to perform an operation."
        }
      ],
      "ReentrancyGuardReentrantCall()": [
        {
          "details": "Unauthorized reentrant call."
        }
      ],
      "SafeERC20FailedOperation(address)": [
        {
          "details": "An operation with an ERC20 token failed."
        }
      ]
    },
    "events": {
      "FeeDestinationUpdated(address,address,address)": {
        "params": {
          "_newFeeDestination": "The new fee destination",
          "_oldFeeDestination": "The old fee destination",
          "sender": "The address that called the update function"
        }
      },
      "FeesUpdated(uint256,uint256,uint256,uint256,address)": {
        "params": {
          "_newMintFeeBps": "The new mint fee",
          "_newRedeemFeeBps": "The new redeem fee",
          "_oldMintFeeBps": "The old mint fee",
          "_oldRedeemFeeBps": "The old redeem fee",
          "sender": "The address that called the update function"
        }
      },
      "Initialized(uint64)": {
        "details": "Triggered when the contract has been initialized or reinitialized."
      },
      "Mint(address,uint256,uint256,uint256,uint256,address)": {
        "params": {
          "amount": "The amount of collateral taken",
          "destination": "Where the minted ZAI will be sent",
          "newDebt": "The current new debt of the PSM module",
          "sender": "The address that called the mint function",
          "shares": "The amount of ZAI minted",
          "supplyCap": "The current supply cap of the PSM module"
        }
      },
      "Redeem(address,uint256,uint256,uint256,uint256,address)": {
        "params": {
          "amount": "The amount of collateral taken out",
          "destination": "Where the collateral will be sent",
          "newDebt": "The current new debt of the PSM module",
          "sender": "The address that called the redeem function",
          "shares": "The amount of ZAI burnt",
          "supplyCap": "The current supply cap of the PSM module"
        }
      },
      "SupplyCapUpdated(uint256,uint256,uint256,uint256,address)": {
        "params": {
          "_newDebtCap": "The new debt cap",
          "_newSupplyCap": "The new supply cap",
          "_oldDebtCap": "The old debt cap",
          "_oldSupplyCap": "The old supply cap",
          "sender": "The address that called the update function"
        }
      }
    },
    "kind": "dev",
    "methods": {
      "feesCollected()": {
        "details": "Computes yield based on the collateral balance and transfers it to the fee distributor if      the current value of collateral exceeds the outstanding debt.      Uses `safeTransfer` to ensure secure transfer of assets."
      },
      "mint(address,uint256)": {
        "details": "This contract calculates how much collateral should be taken",
        "params": {
          "destination": "Where the minted ZAI will be sent",
          "shares": "The amount of zai to mint"
        }
      },
      "mintAmountIn(uint256)": {
        "params": {
          "amountAssetsIn": "The amount of collateral"
        }
      },
      "owner()": {
        "details": "Returns the address of the current owner."
      },
      "rate()": {
        "details": "Uses total assets and total supply from the collateral to compute the ratio.",
        "returns": {
          "_0": "The asset value per share in 18 decimal precision."
        }
      },
      "redeem(address,uint256)": {
        "details": "This contract calculates how much collateral should be given",
        "params": {
          "destination": "Where the collateral will be sent",
          "shares": "The amount of zai to redeem"
        }
      },
      "redeemAmountOut(uint256)": {
        "params": {
          "amountAssetsOut": "The amount of collateral"
        }
      },
      "renounceOwnership()": {
        "details": "Leaves the contract without owner. It will not be possible to call `onlyOwner` functions. Can only be called by the current owner. NOTE: Renouncing ownership will leave the contract without an owner, thereby disabling any functionality that is only available to the owner."
      },
      "toCollateralAmount(uint256)": {
        "params": {
          "_amount": "The amount of ZAI"
        },
        "returns": {
          "_0": "The amount of collateral"
        }
      },
      "toCollateralAmountWithFee(uint256,uint256)": {
        "details": "Fee is calculated as (amount * (MAX_FEE_BPS + fee)) / MAX_FEE_BPS",
        "params": {
          "_amount": "The amount of ZAI",
          "_fee": "The fee to be charged in BPS"
        }
      },
      "toCollateralAmountWithFeeInverse(uint256,uint256)": {
        "details": "Fee is calculated as (amount * (MAX_FEE_BPS - fee)) / MAX_FEE_BPS",
        "params": {
          "_amount": "The amount of ZAI",
          "_fee": "The fee to be charged in BPS"
        }
      },
      "transferOwnership(address)": {
        "details": "Transfers ownership of the contract to a new account (`newOwner`). Can only be called by the current owner."
      },
      "updateCaps(uint256,uint256)": {
        "details": "Only callable by the admin",
        "params": {
          "_debtCap": "How much debt can be held",
          "_supplyCap": "How much collateral can be taken"
        }
      },
      "updateFeeDestination(address)": {
        "details": "Only callable by the admin",
        "params": {
          "_feeDestination": "The new fee destination"
        }
      },
      "updateFees(uint256,uint256)": {
        "params": {
          "_mintFeeBps": "The new mint fee in BPS",
          "_redeemFeeBps": "The new redeem fee in BPS"
        }
      }
    },
    "version": 1
  },
  "userdoc": {
    "errors": {
      "DebtCapReached()": [
        {
          "notice": "Error when debt cap is reached"
        }
      ],
      "NotZeroAddress()": [
        {
          "notice": "Error when address is not set"
        }
      ],
      "NotZeroValue()": [
        {
          "notice": "Error when value is zero"
        }
      ],
      "SupplyCapReached()": [
        {
          "notice": "Error when supply cap is reached"
        }
      ]
    },
    "events": {
      "FeeDestinationUpdated(address,address,address)": {
        "notice": "Emitted when the fee destination is updated"
      },
      "FeesUpdated(uint256,uint256,uint256,uint256,address)": {
        "notice": "Emitted when the fees are updated"
      },
      "Mint(address,uint256,uint256,uint256,uint256,address)": {
        "notice": "Emitted when a user mints ZAI"
      },
      "Redeem(address,uint256,uint256,uint256,uint256,address)": {
        "notice": "Emitted when a user redeems ZAI"
      },
      "SupplyCapUpdated(uint256,uint256,uint256,uint256,address)": {
        "notice": "Emitted when the supply cap is updated"
      }
    },
    "kind": "user",
    "methods": {
      "MAX_FEE_BPS()": {
        "notice": "The maximum fee that can be charged"
      },
      "collateral()": {
        "notice": "Returns the collateral token"
      },
      "debt()": {
        "notice": "Returns the current debt held in this vault"
      },
      "debtCap()": {
        "notice": "Returns the debt cap"
      },
      "feeDestination()": {
        "notice": "The address where fees are sent"
      },
      "feesCollected()": {
        "notice": "Transfers yield from the collateral to the fee distributor if yield exceeds debt."
      },
      "mint(address,uint256)": {
        "notice": "Mints ZAI with collateral"
      },
      "mintAmountIn(uint256)": {
        "notice": "Calculates how much ZAI should be minted for a given amount of collateral"
      },
      "mintFeeBps()": {
        "notice": "The mint fee in BPS"
      },
      "rate()": {
        "notice": "Calculates the value of assets per share in the collateral pool."
      },
      "redeem(address,uint256)": {
        "notice": "Redeems ZAI for collateral"
      },
      "redeemAmountOut(uint256)": {
        "notice": "Calculates how much ZAI should be redeemed for a given amount of collateral"
      },
      "redeemFeeBps()": {
        "notice": "The redeem fee in BPS"
      },
      "supplyCap()": {
        "notice": "Returns the supply cap"
      },
      "toCollateralAmount(uint256)": {
        "notice": "Converts ZAI amount to collateral"
      },
      "toCollateralAmountWithFee(uint256,uint256)": {
        "notice": "Converts ZAI amount to collateral with fee added"
      },
      "toCollateralAmountWithFeeInverse(uint256,uint256)": {
        "notice": "Converts ZAI amount to collateral with fee removed"
      },
      "updateCaps(uint256,uint256)": {
        "notice": "Updates the supply and debt caps"
      },
      "updateFeeDestination(address)": {
        "notice": "Updates the fee destination"
      },
      "updateFees(uint256,uint256)": {
        "notice": "Updates the mint and redeem fees"
      },
      "zai()": {
        "notice": "Returns the Zai stablecoin"
      }
    },
    "version": 1
  },
  "storageLayout": {
    "storage": [
      {
        "astId": 27992,
        "contract": "contracts/core/psm/PegStabilityModuleYield.sol:PegStabilityModuleYield",
        "label": "zai",
        "offset": 0,
        "slot": "0",
        "type": "t_contract(IStablecoin)34784"
      },
      {
        "astId": 27996,
        "contract": "contracts/core/psm/PegStabilityModuleYield.sol:PegStabilityModuleYield",
        "label": "collateral",
        "offset": 0,
        "slot": "1",
        "type": "t_contract(IERC20)15836"
      },
      {
        "astId": 27999,
        "contract": "contracts/core/psm/PegStabilityModuleYield.sol:PegStabilityModuleYield",
        "label": "supplyCap",
        "offset": 0,
        "slot": "2",
        "type": "t_uint256"
      },
      {
        "astId": 28002,
        "contract": "contracts/core/psm/PegStabilityModuleYield.sol:PegStabilityModuleYield",
        "label": "debtCap",
        "offset": 0,
        "slot": "3",
        "type": "t_uint256"
      },
      {
        "astId": 28005,
        "contract": "contracts/core/psm/PegStabilityModuleYield.sol:PegStabilityModuleYield",
        "label": "debt",
        "offset": 0,
        "slot": "4",
        "type": "t_uint256"
      },
      {
        "astId": 28008,
        "contract": "contracts/core/psm/PegStabilityModuleYield.sol:PegStabilityModuleYield",
        "label": "mintFeeBps",
        "offset": 0,
        "slot": "5",
        "type": "t_uint256"
      },
      {
        "astId": 28011,
        "contract": "contracts/core/psm/PegStabilityModuleYield.sol:PegStabilityModuleYield",
        "label": "redeemFeeBps",
        "offset": 0,
        "slot": "6",
        "type": "t_uint256"
      },
      {
        "astId": 28014,
        "contract": "contracts/core/psm/PegStabilityModuleYield.sol:PegStabilityModuleYield",
        "label": "feeDestination",
        "offset": 0,
        "slot": "7",
        "type": "t_address"
      }
    ],
    "types": {
      "t_address": {
        "encoding": "inplace",
        "label": "address",
        "numberOfBytes": "20"
      },
      "t_contract(IERC20)15836": {
        "encoding": "inplace",
        "label": "contract IERC20",
        "numberOfBytes": "20"
      },
      "t_contract(IStablecoin)34784": {
        "encoding": "inplace",
        "label": "contract IStablecoin",
        "numberOfBytes": "20"
      },
      "t_uint256": {
        "encoding": "inplace",
        "label": "uint256",
        "numberOfBytes": "32"
      }
    }
  }
}