{
  "address": "0xBb5355b2c8978E2573f5E0248ec25CaaCAa4E70E",
  "abi": [
    {
      "inputs": [],
      "name": "AccessControlBadConfirmation",
      "type": "error"
    },
    {
      "inputs": [
        {
          "internalType": "address",
          "name": "account",
          "type": "address"
        },
        {
          "internalType": "bytes32",
          "name": "neededRole",
          "type": "bytes32"
        }
      ],
      "name": "AccessControlUnauthorizedAccount",
      "type": "error"
    },
    {
      "inputs": [
        {
          "internalType": "address",
          "name": "target",
          "type": "address"
        }
      ],
      "name": "AddressEmptyCode",
      "type": "error"
    },
    {
      "inputs": [
        {
          "internalType": "address",
          "name": "account",
          "type": "address"
        }
      ],
      "name": "AddressInsufficientBalance",
      "type": "error"
    },
    {
      "inputs": [],
      "name": "DebtCapReached",
      "type": "error"
    },
    {
      "inputs": [],
      "name": "EnforcedPause",
      "type": "error"
    },
    {
      "inputs": [],
      "name": "ExpectedPause",
      "type": "error"
    },
    {
      "inputs": [],
      "name": "FailedInnerCall",
      "type": "error"
    },
    {
      "inputs": [],
      "name": "InvalidInitialization",
      "type": "error"
    },
    {
      "inputs": [],
      "name": "NotInitializing",
      "type": "error"
    },
    {
      "inputs": [],
      "name": "NotZeroAddress",
      "type": "error"
    },
    {
      "inputs": [],
      "name": "NotZeroValue",
      "type": "error"
    },
    {
      "inputs": [],
      "name": "ReentrancyGuardReentrantCall",
      "type": "error"
    },
    {
      "inputs": [
        {
          "internalType": "address",
          "name": "token",
          "type": "address"
        }
      ],
      "name": "SafeERC20FailedOperation",
      "type": "error"
    },
    {
      "inputs": [],
      "name": "SupplyCapReached",
      "type": "error"
    },
    {
      "anonymous": false,
      "inputs": [
        {
          "indexed": true,
          "internalType": "address",
          "name": "_newFeeDestination",
          "type": "address"
        },
        {
          "indexed": true,
          "internalType": "address",
          "name": "_oldFeeDestination",
          "type": "address"
        },
        {
          "indexed": false,
          "internalType": "address",
          "name": "sender",
          "type": "address"
        }
      ],
      "name": "FeeDestinationUpdated",
      "type": "event"
    },
    {
      "anonymous": false,
      "inputs": [
        {
          "indexed": true,
          "internalType": "uint256",
          "name": "_newMintFeeBps",
          "type": "uint256"
        },
        {
          "indexed": true,
          "internalType": "uint256",
          "name": "_newRedeemFeeBps",
          "type": "uint256"
        },
        {
          "indexed": false,
          "internalType": "uint256",
          "name": "_oldMintFeeBps",
          "type": "uint256"
        },
        {
          "indexed": false,
          "internalType": "uint256",
          "name": "_oldRedeemFeeBps",
          "type": "uint256"
        },
        {
          "indexed": false,
          "internalType": "address",
          "name": "sender",
          "type": "address"
        }
      ],
      "name": "FeesUpdated",
      "type": "event"
    },
    {
      "anonymous": false,
      "inputs": [
        {
          "indexed": false,
          "internalType": "uint64",
          "name": "version",
          "type": "uint64"
        }
      ],
      "name": "Initialized",
      "type": "event"
    },
    {
      "anonymous": false,
      "inputs": [
        {
          "indexed": true,
          "internalType": "address",
          "name": "destination",
          "type": "address"
        },
        {
          "indexed": true,
          "internalType": "uint256",
          "name": "shares",
          "type": "uint256"
        },
        {
          "indexed": true,
          "internalType": "uint256",
          "name": "amount",
          "type": "uint256"
        },
        {
          "indexed": false,
          "internalType": "uint256",
          "name": "newDebt",
          "type": "uint256"
        },
        {
          "indexed": false,
          "internalType": "uint256",
          "name": "supplyCap",
          "type": "uint256"
        },
        {
          "indexed": false,
          "internalType": "address",
          "name": "sender",
          "type": "address"
        }
      ],
      "name": "Mint",
      "type": "event"
    },
    {
      "anonymous": false,
      "inputs": [
        {
          "indexed": false,
          "internalType": "address",
          "name": "account",
          "type": "address"
        }
      ],
      "name": "Paused",
      "type": "event"
    },
    {
      "anonymous": false,
      "inputs": [
        {
          "indexed": true,
          "internalType": "address",
          "name": "destination",
          "type": "address"
        },
        {
          "indexed": true,
          "internalType": "uint256",
          "name": "shares",
          "type": "uint256"
        },
        {
          "indexed": true,
          "internalType": "uint256",
          "name": "amount",
          "type": "uint256"
        },
        {
          "indexed": false,
          "internalType": "uint256",
          "name": "newDebt",
          "type": "uint256"
        },
        {
          "indexed": false,
          "internalType": "uint256",
          "name": "supplyCap",
          "type": "uint256"
        },
        {
          "indexed": false,
          "internalType": "address",
          "name": "sender",
          "type": "address"
        }
      ],
      "name": "Redeem",
      "type": "event"
    },
    {
      "anonymous": false,
      "inputs": [
        {
          "indexed": true,
          "internalType": "bytes32",
          "name": "role",
          "type": "bytes32"
        },
        {
          "indexed": true,
          "internalType": "bytes32",
          "name": "previousAdminRole",
          "type": "bytes32"
        },
        {
          "indexed": true,
          "internalType": "bytes32",
          "name": "newAdminRole",
          "type": "bytes32"
        }
      ],
      "name": "RoleAdminChanged",
      "type": "event"
    },
    {
      "anonymous": false,
      "inputs": [
        {
          "indexed": true,
          "internalType": "bytes32",
          "name": "role",
          "type": "bytes32"
        },
        {
          "indexed": true,
          "internalType": "address",
          "name": "account",
          "type": "address"
        },
        {
          "indexed": true,
          "internalType": "address",
          "name": "sender",
          "type": "address"
        }
      ],
      "name": "RoleGranted",
      "type": "event"
    },
    {
      "anonymous": false,
      "inputs": [
        {
          "indexed": true,
          "internalType": "bytes32",
          "name": "role",
          "type": "bytes32"
        },
        {
          "indexed": true,
          "internalType": "address",
          "name": "account",
          "type": "address"
        },
        {
          "indexed": true,
          "internalType": "address",
          "name": "sender",
          "type": "address"
        }
      ],
      "name": "RoleRevoked",
      "type": "event"
    },
    {
      "anonymous": false,
      "inputs": [
        {
          "indexed": true,
          "internalType": "uint256",
          "name": "_newSupplyCap",
          "type": "uint256"
        },
        {
          "indexed": true,
          "internalType": "uint256",
          "name": "_newDebtCap",
          "type": "uint256"
        },
        {
          "indexed": false,
          "internalType": "uint256",
          "name": "_oldSupplyCap",
          "type": "uint256"
        },
        {
          "indexed": false,
          "internalType": "uint256",
          "name": "_oldDebtCap",
          "type": "uint256"
        },
        {
          "indexed": false,
          "internalType": "address",
          "name": "sender",
          "type": "address"
        }
      ],
      "name": "SupplyCapUpdated",
      "type": "event"
    },
    {
      "anonymous": false,
      "inputs": [
        {
          "indexed": false,
          "internalType": "address",
          "name": "account",
          "type": "address"
        }
      ],
      "name": "Unpaused",
      "type": "event"
    },
    {
      "inputs": [],
      "name": "DEFAULT_ADMIN_ROLE",
      "outputs": [
        {
          "internalType": "bytes32",
          "name": "",
          "type": "bytes32"
        }
      ],
      "stateMutability": "view",
      "type": "function"
    },
    {
      "inputs": [],
      "name": "FEE_COLLECTOR_ROLE",
      "outputs": [
        {
          "internalType": "bytes32",
          "name": "",
          "type": "bytes32"
        }
      ],
      "stateMutability": "view",
      "type": "function"
    },
    {
      "inputs": [],
      "name": "MAX_FEE_BPS",
      "outputs": [
        {
          "internalType": "uint256",
          "name": "",
          "type": "uint256"
        }
      ],
      "stateMutability": "view",
      "type": "function"
    },
    {
      "inputs": [],
      "name": "PAUSER_ROLE",
      "outputs": [
        {
          "internalType": "bytes32",
          "name": "",
          "type": "bytes32"
        }
      ],
      "stateMutability": "view",
      "type": "function"
    },
    {
      "inputs": [],
      "name": "collateral",
      "outputs": [
        {
          "internalType": "contract IERC20",
          "name": "",
          "type": "address"
        }
      ],
      "stateMutability": "view",
      "type": "function"
    },
    {
      "inputs": [],
      "name": "debt",
      "outputs": [
        {
          "internalType": "uint256",
          "name": "",
          "type": "uint256"
        }
      ],
      "stateMutability": "view",
      "type": "function"
    },
    {
      "inputs": [],
      "name": "debtCap",
      "outputs": [
        {
          "internalType": "uint256",
          "name": "",
          "type": "uint256"
        }
      ],
      "stateMutability": "view",
      "type": "function"
    },
    {
      "inputs": [],
      "name": "feeDestination",
      "outputs": [
        {
          "internalType": "address",
          "name": "",
          "type": "address"
        }
      ],
      "stateMutability": "view",
      "type": "function"
    },
    {
      "inputs": [],
      "name": "feesCollected",
      "outputs": [
        {
          "internalType": "uint256",
          "name": "yield",
          "type": "uint256"
        }
      ],
      "stateMutability": "view",
      "type": "function"
    },
    {
      "inputs": [
        {
          "internalType": "bytes32",
          "name": "role",
          "type": "bytes32"
        }
      ],
      "name": "getRoleAdmin",
      "outputs": [
        {
          "internalType": "bytes32",
          "name": "",
          "type": "bytes32"
        }
      ],
      "stateMutability": "view",
      "type": "function"
    },
    {
      "inputs": [
        {
          "internalType": "bytes32",
          "name": "role",
          "type": "bytes32"
        },
        {
          "internalType": "uint256",
          "name": "index",
          "type": "uint256"
        }
      ],
      "name": "getRoleMember",
      "outputs": [
        {
          "internalType": "address",
          "name": "",
          "type": "address"
        }
      ],
      "stateMutability": "view",
      "type": "function"
    },
    {
      "inputs": [
        {
          "internalType": "bytes32",
          "name": "role",
          "type": "bytes32"
        }
      ],
      "name": "getRoleMemberCount",
      "outputs": [
        {
          "internalType": "uint256",
          "name": "",
          "type": "uint256"
        }
      ],
      "stateMutability": "view",
      "type": "function"
    },
    {
      "inputs": [
        {
          "internalType": "bytes32",
          "name": "role",
          "type": "bytes32"
        },
        {
          "internalType": "address",
          "name": "account",
          "type": "address"
        }
      ],
      "name": "grantRole",
      "outputs": [],
      "stateMutability": "nonpayable",
      "type": "function"
    },
    {
      "inputs": [
        {
          "internalType": "bytes32",
          "name": "role",
          "type": "bytes32"
        },
        {
          "internalType": "address",
          "name": "account",
          "type": "address"
        }
      ],
      "name": "hasRole",
      "outputs": [
        {
          "internalType": "bool",
          "name": "",
          "type": "bool"
        }
      ],
      "stateMutability": "view",
      "type": "function"
    },
    {
      "inputs": [
        {
          "internalType": "address",
          "name": "_zai",
          "type": "address"
        },
        {
          "internalType": "address",
          "name": "_collateral",
          "type": "address"
        },
        {
          "internalType": "address",
          "name": "_governance",
          "type": "address"
        },
        {
          "internalType": "uint256",
          "name": "_supplyCap",
          "type": "uint256"
        },
        {
          "internalType": "uint256",
          "name": "_debtCap",
          "type": "uint256"
        },
        {
          "internalType": "uint256",
          "name": "_mintFeeBps",
          "type": "uint256"
        },
        {
          "internalType": "uint256",
          "name": "_redeemFeeBps",
          "type": "uint256"
        },
        {
          "internalType": "address",
          "name": "_feeDestination",
          "type": "address"
        }
      ],
      "name": "initialize",
      "outputs": [],
      "stateMutability": "nonpayable",
      "type": "function"
    },
    {
      "inputs": [
        {
          "internalType": "address",
          "name": "dest",
          "type": "address"
        },
        {
          "internalType": "uint256",
          "name": "shares",
          "type": "uint256"
        }
      ],
      "name": "mint",
      "outputs": [],
      "stateMutability": "nonpayable",
      "type": "function"
    },
    {
      "inputs": [
        {
          "internalType": "uint256",
          "name": "amountAssetsIn",
          "type": "uint256"
        }
      ],
      "name": "mintAmountIn",
      "outputs": [
        {
          "internalType": "uint256",
          "name": "shares",
          "type": "uint256"
        }
      ],
      "stateMutability": "view",
      "type": "function"
    },
    {
      "inputs": [],
      "name": "mintFeeBps",
      "outputs": [
        {
          "internalType": "uint256",
          "name": "",
          "type": "uint256"
        }
      ],
      "stateMutability": "view",
      "type": "function"
    },
    {
      "inputs": [],
      "name": "paused",
      "outputs": [
        {
          "internalType": "bool",
          "name": "",
          "type": "bool"
        }
      ],
      "stateMutability": "view",
      "type": "function"
    },
    {
      "inputs": [],
      "name": "rate",
      "outputs": [
        {
          "internalType": "uint256",
          "name": "",
          "type": "uint256"
        }
      ],
      "stateMutability": "view",
      "type": "function"
    },
    {
      "inputs": [
        {
          "internalType": "address",
          "name": "dest",
          "type": "address"
        },
        {
          "internalType": "uint256",
          "name": "shares",
          "type": "uint256"
        }
      ],
      "name": "redeem",
      "outputs": [],
      "stateMutability": "nonpayable",
      "type": "function"
    },
    {
      "inputs": [
        {
          "internalType": "uint256",
          "name": "amountAssetsOut",
          "type": "uint256"
        }
      ],
      "name": "redeemAmountOut",
      "outputs": [
        {
          "internalType": "uint256",
          "name": "shares",
          "type": "uint256"
        }
      ],
      "stateMutability": "view",
      "type": "function"
    },
    {
      "inputs": [],
      "name": "redeemFeeBps",
      "outputs": [
        {
          "internalType": "uint256",
          "name": "",
          "type": "uint256"
        }
      ],
      "stateMutability": "view",
      "type": "function"
    },
    {
      "inputs": [
        {
          "internalType": "bytes32",
          "name": "role",
          "type": "bytes32"
        },
        {
          "internalType": "address",
          "name": "callerConfirmation",
          "type": "address"
        }
      ],
      "name": "renounceRole",
      "outputs": [],
      "stateMutability": "nonpayable",
      "type": "function"
    },
    {
      "inputs": [
        {
          "internalType": "bytes32",
          "name": "role",
          "type": "bytes32"
        },
        {
          "internalType": "address",
          "name": "account",
          "type": "address"
        }
      ],
      "name": "revokeRole",
      "outputs": [],
      "stateMutability": "nonpayable",
      "type": "function"
    },
    {
      "inputs": [],
      "name": "supplyCap",
      "outputs": [
        {
          "internalType": "uint256",
          "name": "",
          "type": "uint256"
        }
      ],
      "stateMutability": "view",
      "type": "function"
    },
    {
      "inputs": [
        {
          "internalType": "bytes4",
          "name": "interfaceId",
          "type": "bytes4"
        }
      ],
      "name": "supportsInterface",
      "outputs": [
        {
          "internalType": "bool",
          "name": "",
          "type": "bool"
        }
      ],
      "stateMutability": "view",
      "type": "function"
    },
    {
      "inputs": [],
      "name": "sweepFees",
      "outputs": [],
      "stateMutability": "nonpayable",
      "type": "function"
    },
    {
      "inputs": [
        {
          "internalType": "uint256",
          "name": "_shares",
          "type": "uint256"
        }
      ],
      "name": "toCollateralAmount",
      "outputs": [
        {
          "internalType": "uint256",
          "name": "",
          "type": "uint256"
        }
      ],
      "stateMutability": "view",
      "type": "function"
    },
    {
      "inputs": [
        {
          "internalType": "uint256",
          "name": "_amount",
          "type": "uint256"
        },
        {
          "internalType": "uint256",
          "name": "_fee",
          "type": "uint256"
        }
      ],
      "name": "toCollateralAmountWithFee",
      "outputs": [
        {
          "internalType": "uint256",
          "name": "",
          "type": "uint256"
        }
      ],
      "stateMutability": "view",
      "type": "function"
    },
    {
      "inputs": [
        {
          "internalType": "uint256",
          "name": "_amount",
          "type": "uint256"
        },
        {
          "internalType": "uint256",
          "name": "_fee",
          "type": "uint256"
        }
      ],
      "name": "toCollateralAmountWithFeeInverse",
      "outputs": [
        {
          "internalType": "uint256",
          "name": "",
          "type": "uint256"
        }
      ],
      "stateMutability": "view",
      "type": "function"
    },
    {
      "inputs": [],
      "name": "togglePause",
      "outputs": [],
      "stateMutability": "nonpayable",
      "type": "function"
    },
    {
      "inputs": [
        {
          "internalType": "uint256",
          "name": "_supplyCap",
          "type": "uint256"
        },
        {
          "internalType": "uint256",
          "name": "_debtCap",
          "type": "uint256"
        }
      ],
      "name": "updateCaps",
      "outputs": [],
      "stateMutability": "nonpayable",
      "type": "function"
    },
    {
      "inputs": [
        {
          "internalType": "address",
          "name": "_feeDestination",
          "type": "address"
        }
      ],
      "name": "updateFeeDestination",
      "outputs": [],
      "stateMutability": "nonpayable",
      "type": "function"
    },
    {
      "inputs": [
        {
          "internalType": "uint256",
          "name": "_mintFeeBps",
          "type": "uint256"
        },
        {
          "internalType": "uint256",
          "name": "_redeemFeeBps",
          "type": "uint256"
        }
      ],
      "name": "updateFees",
      "outputs": [],
      "stateMutability": "nonpayable",
      "type": "function"
    },
    {
      "inputs": [],
      "name": "zai",
      "outputs": [
        {
          "internalType": "contract IStablecoin",
          "name": "",
          "type": "address"
        }
      ],
      "stateMutability": "view",
      "type": "function"
    }
  ],
  "transactionHash": "0xc084e8a561f856cd7112c71cf7aacba0adb1bf3084091100750640a42500336a",
  "args": [],
  "numDeployments": 1,
  "solcInputHash": "a44723c0b7856032ee376d99ae0c2bdf",
  "bytecode": "0x60a060405261271060805234801561001657600080fd5b50608051611ba5610055600039600081816103d801528181610691015281816106b701528181610bbc01528181610caf0152610df90152611ba56000f3fe608060405234801561001057600080fd5b50600436106101dc5760003560e01c80636db7943711610105578063d113b95c1161009d578063d113b95c146103b8578063d547741f146103c0578063d55be8c6146103d3578063d8dfeb45146103fa578063dd62aefb1461040d578063de53fcd514610420578063e63ab1e914610433578063f071db5a14610448578063f5320fd81461045057600080fd5b80636db79437146103375780638f770ad01461034a5780639010d07c1461035357806391d148541461036657806397c8bcc114610379578063a217fddf14610382578063bb5dc1891461038a578063c4ae31681461039d578063ca15c873146103a557600080fd5b80632c4e722e116101785780632c4e722e146102aa5780632f2ff15d146102b257806331486c06146102c557806336568abe146102ce57806340c10f19146102e15780635c975abb146102f45780635dc2e5d1146102fc57806362a2a47c1461030f57806366bea2281461032457600080fd5b806301ffc9a7146101e157806307140b341461020957806309f6442c146102295780630dca59c1146102405780630eb26499146102495780631e9a69501461025e5780631f80b95a14610271578063248a9ca3146102845780632bf033ad14610297575b600080fd5b6101f46101ef366004611827565b610463565b60405190151581526020015b60405180910390f35b60005461021c906001600160a01b031681565b6040516102009190611851565b61023260065481565b604051908152602001610200565b61023260045481565b61025c610257366004611865565b61048e565b005b61025c61026c3660046118a3565b6104a8565b61023261027f3660046118cd565b61067e565b6102326102923660046118cd565b610706565b61025c6102a53660046118e6565b610726565b610232610814565b61025c6102c0366004611961565b61088e565b61023260035481565b61025c6102dc366004611961565b6108b0565b61025c6102ef3660046118a3565b6108e3565b6101f4610aea565b61025c61030a36600461198d565b610aff565b610232600080516020611b1083398151915281565b6102326103323660046118cd565b610b13565b61025c610345366004611865565b610b30565b61023260025481565b61021c610361366004611865565b610b45565b6101f4610374366004611961565b610b73565b61023260055481565b610232600081565b6102326103983660046118cd565b610ba9565b61025c610be0565b6102326103b33660046118cd565b610c18565b61025c610c44565b61025c6103ce366004611961565b610c8f565b6102327f000000000000000000000000000000000000000000000000000000000000000081565b60015461021c906001600160a01b031681565b61023261041b366004611865565b610cab565b60075461021c906001600160a01b031681565b610232600080516020611b3083398151915281565b610232610cf5565b61023261045e366004611865565b610df5565b60006001600160e01b03198216635a05180f60e01b1480610488575061048882610e22565b92915050565b600061049981610e57565b6104a38383610e61565b505050565b6104b0610eb9565b6104b8610ef1565b60006104c682600654610df5565b9050806000036104e957604051633fad6f3960e11b815260040160405180910390fd5b8160000361050a57604051633fad6f3960e11b815260040160405180910390fd5b6000546040516323b872dd60e01b81526001600160a01b03909116906323b872dd9061053e903390309087906004016119a8565b6020604051808303816000875af115801561055d573d6000803e3d6000fd5b505050506040513d601f19601f8201168201806040525081019061058191906119cc565b50600054604051632770a7eb60e21b81526001600160a01b0390911690639dc29fac906105b490309086906004016119ee565b600060405180830381600087803b1580156105ce57600080fd5b505af11580156105e2573d6000803e3d6000fd5b50506001546105fe92506001600160a01b031690508483610f19565b81600460008282546106109190611a1d565b925050819055508082846001600160a01b03167f936e31ed75b936652e58e831fe69a161b06bc628b8b02e9dc63bc89fe578a6e16004546002543360405161065a93929190611a30565b60405180910390a45061067a6001600080516020611b5083398151915255565b5050565b6000610688610814565b6005546106b5907f0000000000000000000000000000000000000000000000000000000000000000611a4f565b7f00000000000000000000000000000000000000000000000000000000000000006106e885670de0b6b3a7640000611a62565b6106f29190611a62565b6106fc9190611a79565b6104889190611a79565b600080610711610f85565b60009384526020525050604090206001015490565b7ff0c57e16840df040f15088dc2f81fe391c3923bec73e23a9662efc9c229c6a00805460019190600160401b900460ff16806107705750805467ffffffffffffffff808416911610155b1561078e5760405163f92ee8a960e01b815260040160405180910390fd5b805468ffffffffffffffffff191667ffffffffffffffff831617600160401b1781556107c08a8a8a8a8a8a8a8a610fa9565b805460ff60401b1916815560405167ffffffffffffffff831681527fc7f505b2f371ae2175ee4913f4499e1f2633a7b5936321eed1cdaeb6115181d29060200160405180910390a150505050505050505050565b60015460405163ef8b30f760e01b8152670de0b6b3a764000060048201526000916001600160a01b03169063ef8b30f790602401602060405180830381865afa158015610865573d6000803e3d6000fd5b505050506040513d601f19601f820116820180604052508101906108899190611a9b565b905090565b61089782610706565b6108a081610e57565b6108aa83836110d2565b50505050565b6001600160a01b03811633146108d95760405163334bd91960e11b815260040160405180910390fd5b6104a38282611114565b6108eb610eb9565b6108f3610ef1565b600061090182600554610cab565b90508060000361092457604051633fad6f3960e11b815260040160405180910390fd5b8160000361094557604051633fad6f3960e11b815260040160405180910390fd5b6002546001546040516370a0823160e01b815283916001600160a01b0316906370a0823190610978903090600401611851565b602060405180830381865afa158015610995573d6000803e3d6000fd5b505050506040513d601f19601f820116820180604052508101906109b99190611a9b565b6109c39190611a4f565b11156109e2576040516354db2d5d60e11b815260040160405180910390fd5b600354826004546109f39190611a4f565b1115610a1257604051633b60212960e01b815260040160405180910390fd5b600154610a2a906001600160a01b031633308461114d565b6000546040516340c10f1960e01b81526001600160a01b03909116906340c10f1990610a5c90869086906004016119ee565b600060405180830381600087803b158015610a7657600080fd5b505af1158015610a8a573d6000803e3d6000fd5b505050508160046000828254610aa09190611a4f565b925050819055508082846001600160a01b03167f265ee4cff6cdf714e68c02e61a7864cf66bc04e372a41b6cc425acbb737cd3956004546002543360405161065a93929190611a30565b600080610af5611175565b5460ff1692915050565b6000610b0a81610e57565b61067a82611199565b6000670de0b6b3a7640000610b26610814565b6106fc9084611a62565b6000610b3b81610e57565b6104a383836111f9565b600080610b50611243565b6000858152602082905260409020909150610b6b9084611267565b949350505050565b600080610b7e610f85565b6000948552602090815260408086206001600160a01b03959095168652939052505090205460ff1690565b6000610bb3610814565b6006546106b5907f0000000000000000000000000000000000000000000000000000000000000000611a1d565b600080516020611b30833981519152610bf881610e57565b610c00610aea565b15610c1057610c0d611273565b50565b610c0d6112ca565b600080610c23611243565b6000848152602082905260409020909150610c3d90611311565b9392505050565b610c4c610ef1565b600080516020611b10833981519152610c6481610e57565b600754610c0d906001600160a01b0316610c7c610cf5565b6001546001600160a01b03169190610f19565b610c9882610706565b610ca181610e57565b6108aa8383611114565b60007f0000000000000000000000000000000000000000000000000000000000000000610cd88382611a4f565b610ce185610b13565b610ceb9190611a62565b610c3d9190611a79565b600080670de0b6b3a7640000610d09610814565b600454610d169190611a62565b610d209190611a79565b6001546040516370a0823160e01b81529192506000916001600160a01b03909116906370a0823190610d56903090600401611851565b602060405180830381865afa158015610d73573d6000803e3d6000fd5b505050506040513d601f19601f82011682018060405250810190610d979190611a9b565b9050818111610de45760405162461bcd60e51b81526020600482015260146024820152733737903cb4b2b632103a37903a3930b739b332b960611b60448201526064015b60405180910390fd5b610dee8282611a1d565b9250505090565b60007f0000000000000000000000000000000000000000000000000000000000000000610cd88382611a1d565b60006001600160e01b03198216637965db0b60e01b148061048857506301ffc9a760e01b6001600160e01b0319831614610488565b610c0d813361131b565b600280546003805492859055839055604051909190839085907fae75d5c2e3024e6e661c4709fec706270aa58d8eb07547e3d6fc4ba44b76ab2390610eab90869086903390611a30565b60405180910390a350505050565b600080516020611b50833981519152805460011901610eeb57604051633ee5aeb560e01b815260040160405180910390fd5b60029055565b610ef9610aea565b15610f175760405163d93c066560e01b815260040160405180910390fd5b565b6104a383846001600160a01b031663a9059cbb8585604051602401610f3f9291906119ee565b604051602081830303815290604052915060e01b6020820180516001600160e01b038381831617835250505050611346565b6001600080516020611b5083398151915255565b7f02dd7bc7dec4dceedda775e58dd541e08a116c6c53815c0bd028192f7b62680090565b610fb16113a0565b610fb96113b0565b610fc16113b8565b600080546001600160a01b03808b166001600160a01b0319928316811790935560018054918b1691909216179055158061100257506001600160a01b038716155b8061101457506001600160a01b038616155b8061102657506001600160a01b038116155b15611044576040516366385fa360e01b815260040160405180910390fd5b84158061104f575083155b1561106d57604051633fad6f3960e11b815260040160405180910390fd5b6110786000876110d2565b50611091600080516020611b30833981519152876110d2565b506110aa600080516020611b10833981519152876110d2565b506110b583836111f9565b6110bf8585610e61565b6110c881611199565b5050505050505050565b6000806110dd611243565b905060006110eb85856113c8565b90508015610b6b57600085815260208390526040902061110b9085611469565b50949350505050565b60008061111f611243565b9050600061112d858561147e565b90508015610b6b57600085815260208390526040902061110b90856114f6565b6108aa84856001600160a01b03166323b872dd868686604051602401610f3f939291906119a8565b7fcd5ed15c6e187e77e9aee88184c21f4f2182ab5827cb3b7e07fbedcd63f0330090565b600780546001600160a01b038381166001600160a01b03198316811790935560405191169182917f77152a8590285dd4dae2386ed85a5514f2a5fd13ae6969df03169aea7ebb88a8906111ed903390611851565b60405180910390a35050565b600580546006805492859055839055604051909190839085907f040ad6c94afb3c31033baf750e5271ef1190b75380494159c0be334e92c069c790610eab90869086903390611a30565b7fc1f6fe24621ce81ec5827caf0253cadb74709b061630e6b55e8237170593200090565b6000610c3d838361150b565b61127b611535565b6000611285611175565b805460ff1916815590507f5db9ee0a495bf2e6ff9c91a7834c1ba4fdd244a5e8aa4e537bd38aeae4b073aa335b6040516112bf9190611851565b60405180910390a150565b6112d2610ef1565b60006112dc611175565b805460ff1916600117815590507f62e78cea01bee320cd4e420270b5ea74000d11b0c9f74754ebdbfc544b05a2586112b23390565b6000610488825490565b6113258282610b73565b61067a57808260405163e2517d3f60e01b8152600401610ddb9291906119ee565b600061135b6001600160a01b0384168361155a565b9050805160001415801561138057508080602001905181019061137e91906119cc565b155b156104a35782604051635274afe760e01b8152600401610ddb9190611851565b6113a8611568565b610f176115b1565b610f17611568565b6113c0611568565b610f176115ce565b6000806113d3610f85565b90506113df8484610b73565b61145f576000848152602082815260408083206001600160a01b03871684529091529020805460ff191660011790556114153390565b6001600160a01b0316836001600160a01b0316857f2f8788117e7eff1d82e926ec794901d17c78024a50270940304540a733656f0d60405160405180910390a46001915050610488565b6000915050610488565b6000610c3d836001600160a01b0384166115d6565b600080611489610f85565b90506114958484610b73565b1561145f576000848152602082815260408083206001600160a01b0387168085529252808320805460ff1916905551339287917ff6391f5c32d9c69d2a47ea670b442974b53935d1edc7fd64eb21e047a839171b9190a46001915050610488565b6000610c3d836001600160a01b038416611625565b600082600001828154811061152257611522611ab4565b9060005260206000200154905092915050565b61153d610aea565b610f1757604051638dfc202b60e01b815260040160405180910390fd5b6060610c3d8383600061170e565b7ff0c57e16840df040f15088dc2f81fe391c3923bec73e23a9662efc9c229c6a0054600160401b900460ff16610f1757604051631afcd79f60e31b815260040160405180910390fd5b6115b9611568565b60006115c3611175565b805460ff1916905550565b610f71611568565b600081815260018301602052604081205461161d57508154600181810184556000848152602080822090930184905584548482528286019093526040902091909155610488565b506000610488565b6000818152600183016020526040812054801561145f576000611649600183611a1d565b855490915060009061165d90600190611a1d565b90508082146116c257600086600001828154811061167d5761167d611ab4565b90600052602060002001549050808760000184815481106116a0576116a0611ab4565b6000918252602080832090910192909255918252600188019052604090208390555b85548690806116d3576116d3611aca565b600190038181906000526020600020016000905590558560010160008681526020019081526020016000206000905560019350505050610488565b606081471015611733573060405163cd78605960e01b8152600401610ddb9190611851565b600080856001600160a01b0316848660405161174f9190611ae0565b60006040518083038185875af1925050503d806000811461178c576040519150601f19603f3d011682016040523d82523d6000602084013e611791565b606091505b50915091506117a18683836117ab565b9695505050505050565b6060826117c0576117bb826117fe565b610c3d565b81511580156117d757506001600160a01b0384163b155b156117f75783604051639996b31560e01b8152600401610ddb9190611851565b5080610c3d565b80511561180e5780518082602001fd5b604051630a12f52160e11b815260040160405180910390fd5b60006020828403121561183957600080fd5b81356001600160e01b031981168114610c3d57600080fd5b6001600160a01b0391909116815260200190565b6000806040838503121561187857600080fd5b50508035926020909101359150565b80356001600160a01b038116811461189e57600080fd5b919050565b600080604083850312156118b657600080fd5b6118bf83611887565b946020939093013593505050565b6000602082840312156118df57600080fd5b5035919050565b600080600080600080600080610100898b03121561190357600080fd5b61190c89611887565b975061191a60208a01611887565b965061192860408a01611887565b9550606089013594506080890135935060a0890135925060c0890135915061195260e08a01611887565b90509295985092959890939650565b6000806040838503121561197457600080fd5b8235915061198460208401611887565b90509250929050565b60006020828403121561199f57600080fd5b610c3d82611887565b6001600160a01b039384168152919092166020820152604081019190915260600190565b6000602082840312156119de57600080fd5b81518015158114610c3d57600080fd5b6001600160a01b03929092168252602082015260400190565b634e487b7160e01b600052601160045260246000fd5b8181038181111561048857610488611a07565b92835260208301919091526001600160a01b0316604082015260600190565b8082018082111561048857610488611a07565b808202811582820484141761048857610488611a07565b600082611a9657634e487b7160e01b600052601260045260246000fd5b500490565b600060208284031215611aad57600080fd5b5051919050565b634e487b7160e01b600052603260045260246000fd5b634e487b7160e01b600052603160045260246000fd5b6000825160005b81811015611b015760208186018101518583015201611ae7565b50600092019182525091905056fe2dca0f5ce7e75a4b43fe2b0d6f5d0b7a2bf92ecf89f8f0aa17b8308b6703882165d7a28e3265b37a6474929f336521b332c1681b933f6cb9f3376673440d862a9b779b17422d0df92223018b32b4d1fa46e071723d6817e2486d003becc55f00a264697066735822122071b433d384d82e0d733b8fa092a6e8384cebb00ed4659868f0fb0f8a25d622ae64736f6c63430008150033",
  "devdoc": {
    "errors": {
      "AccessControlBadConfirmation()": [
        {
          "details": "The caller of a function is not the expected one. NOTE: Don't confuse with {AccessControlUnauthorizedAccount}."
        }
      ],
      "AccessControlUnauthorizedAccount(address,bytes32)": [
        {
          "details": "The `account` is missing a role."
        }
      ],
      "AddressEmptyCode(address)": [
        {
          "details": "There's no code at `target` (it is not a contract)."
        }
      ],
      "AddressInsufficientBalance(address)": [
        {
          "details": "The ETH balance of the account is not enough to perform the operation."
        }
      ],
      "EnforcedPause()": [
        {
          "details": "The operation failed because the contract is paused."
        }
      ],
      "ExpectedPause()": [
        {
          "details": "The operation failed because the contract is not paused."
        }
      ],
      "FailedInnerCall()": [
        {
          "details": "A call to an address target failed. The target may have reverted."
        }
      ],
      "InvalidInitialization()": [
        {
          "details": "The contract is already initialized."
        }
      ],
      "NotInitializing()": [
        {
          "details": "The contract is not initializing."
        }
      ],
      "ReentrancyGuardReentrantCall()": [
        {
          "details": "Unauthorized reentrant call."
        }
      ],
      "SafeERC20FailedOperation(address)": [
        {
          "details": "An operation with an ERC20 token failed."
        }
      ]
    },
    "events": {
      "FeeDestinationUpdated(address,address,address)": {
        "params": {
          "_newFeeDestination": "The new fee destination",
          "_oldFeeDestination": "The old fee destination",
          "sender": "The address that called the update function"
        }
      },
      "FeesUpdated(uint256,uint256,uint256,uint256,address)": {
        "params": {
          "_newMintFeeBps": "The new mint fee",
          "_newRedeemFeeBps": "The new redeem fee",
          "_oldMintFeeBps": "The old mint fee",
          "_oldRedeemFeeBps": "The old redeem fee",
          "sender": "The address that called the update function"
        }
      },
      "Initialized(uint64)": {
        "details": "Triggered when the contract has been initialized or reinitialized."
      },
      "Mint(address,uint256,uint256,uint256,uint256,address)": {
        "params": {
          "amount": "The amount of collateral taken",
          "destination": "Where the minted ZAI will be sent",
          "newDebt": "The current new debt of the PSM module",
          "sender": "The address that called the mint function",
          "shares": "The amount of ZAI minted",
          "supplyCap": "The current supply cap of the PSM module"
        }
      },
      "Paused(address)": {
        "details": "Emitted when the pause is triggered by `account`."
      },
      "Redeem(address,uint256,uint256,uint256,uint256,address)": {
        "params": {
          "amount": "The amount of collateral taken out",
          "destination": "Where the collateral will be sent",
          "newDebt": "The current new debt of the PSM module",
          "sender": "The address that called the redeem function",
          "shares": "The amount of ZAI burnt",
          "supplyCap": "The current supply cap of the PSM module"
        }
      },
      "RoleAdminChanged(bytes32,bytes32,bytes32)": {
        "details": "Emitted when `newAdminRole` is set as ``role``'s admin role, replacing `previousAdminRole` `DEFAULT_ADMIN_ROLE` is the starting admin for all roles, despite {RoleAdminChanged} not being emitted signaling this."
      },
      "RoleGranted(bytes32,address,address)": {
        "details": "Emitted when `account` is granted `role`. `sender` is the account that originated the contract call, an admin role bearer except when using {AccessControl-_setupRole}."
      },
      "RoleRevoked(bytes32,address,address)": {
        "details": "Emitted when `account` is revoked `role`. `sender` is the account that originated the contract call:   - if using `revokeRole`, it is the admin role bearer   - if using `renounceRole`, it is the role bearer (i.e. `account`)"
      },
      "SupplyCapUpdated(uint256,uint256,uint256,uint256,address)": {
        "params": {
          "_newDebtCap": "The new debt cap",
          "_newSupplyCap": "The new supply cap",
          "_oldDebtCap": "The old debt cap",
          "_oldSupplyCap": "The old supply cap",
          "sender": "The address that called the update function"
        }
      },
      "Unpaused(address)": {
        "details": "Emitted when the pause is lifted by `account`."
      }
    },
    "kind": "dev",
    "methods": {
      "feesCollected()": {
        "details": "Computes yield based on the collateral balance and transfers it to the fee distributor if      the current value of collateral exceeds the outstanding debt.      Uses `safeTransfer` to ensure secure transfer of assets."
      },
      "getRoleAdmin(bytes32)": {
        "details": "Returns the admin role that controls `role`. See {grantRole} and {revokeRole}. To change a role's admin, use {_setRoleAdmin}."
      },
      "getRoleMember(bytes32,uint256)": {
        "details": "Returns one of the accounts that have `role`. `index` must be a value between 0 and {getRoleMemberCount}, non-inclusive. Role bearers are not sorted in any particular way, and their ordering may change at any point. WARNING: When using {getRoleMember} and {getRoleMemberCount}, make sure you perform all queries on the same block. See the following https://forum.openzeppelin.com/t/iterating-over-elements-on-enumerableset-in-openzeppelin-contracts/2296[forum post] for more information."
      },
      "getRoleMemberCount(bytes32)": {
        "details": "Returns the number of accounts that have `role`. Can be used together with {getRoleMember} to enumerate all bearers of a role."
      },
      "grantRole(bytes32,address)": {
        "details": "Grants `role` to `account`. If `account` had not been already granted `role`, emits a {RoleGranted} event. Requirements: - the caller must have ``role``'s admin role. May emit a {RoleGranted} event."
      },
      "hasRole(bytes32,address)": {
        "details": "Returns `true` if `account` has been granted `role`."
      },
      "mint(address,uint256)": {
        "details": "This contract calculates how much collateral should be taken",
        "params": {
          "destination": "Where the minted ZAI will be sent",
          "shares": "The amount of zai to mint"
        }
      },
      "mintAmountIn(uint256)": {
        "params": {
          "amountAssetsIn": "The amount of collateral"
        }
      },
      "paused()": {
        "details": "Returns true if the contract is paused, and false otherwise."
      },
      "rate()": {
        "details": "Uses total assets and total supply from the collateral to compute the ratio.",
        "returns": {
          "_0": "The asset value per share in 18 decimal precision."
        }
      },
      "redeem(address,uint256)": {
        "details": "This contract calculates how much collateral should be given",
        "params": {
          "destination": "Where the collateral will be sent",
          "shares": "The amount of zai to redeem"
        }
      },
      "redeemAmountOut(uint256)": {
        "params": {
          "amountAssetsOut": "The amount of collateral"
        }
      },
      "renounceRole(bytes32,address)": {
        "details": "Revokes `role` from the calling account. Roles are often managed via {grantRole} and {revokeRole}: this function's purpose is to provide a mechanism for accounts to lose their privileges if they are compromised (such as when a trusted device is misplaced). If the calling account had been revoked `role`, emits a {RoleRevoked} event. Requirements: - the caller must be `callerConfirmation`. May emit a {RoleRevoked} event."
      },
      "revokeRole(bytes32,address)": {
        "details": "Revokes `role` from `account`. If `account` had been granted `role`, emits a {RoleRevoked} event. Requirements: - the caller must have ``role``'s admin role. May emit a {RoleRevoked} event."
      },
      "supportsInterface(bytes4)": {
        "details": "See {IERC165-supportsInterface}."
      },
      "toCollateralAmount(uint256)": {
        "params": {
          "_amount": "The amount of ZAI"
        },
        "returns": {
          "_0": "The amount of collateral"
        }
      },
      "toCollateralAmountWithFee(uint256,uint256)": {
        "details": "Fee is calculated as (amount * (MAX_FEE_BPS + fee)) / MAX_FEE_BPS",
        "params": {
          "_amount": "The amount of ZAI",
          "_fee": "The fee to be charged in BPS"
        }
      },
      "toCollateralAmountWithFeeInverse(uint256,uint256)": {
        "details": "Fee is calculated as (amount * (MAX_FEE_BPS - fee)) / MAX_FEE_BPS",
        "params": {
          "_amount": "The amount of ZAI",
          "_fee": "The fee to be charged in BPS"
        }
      },
      "updateCaps(uint256,uint256)": {
        "details": "Only callable by the admin",
        "params": {
          "_debtCap": "How much debt can be held",
          "_supplyCap": "How much collateral can be taken"
        }
      },
      "updateFeeDestination(address)": {
        "details": "Only callable by the admin",
        "params": {
          "_feeDestination": "The new fee destination"
        }
      },
      "updateFees(uint256,uint256)": {
        "params": {
          "_mintFeeBps": "The new mint fee in BPS",
          "_redeemFeeBps": "The new redeem fee in BPS"
        }
      }
    },
    "version": 1
  },
  "userdoc": {
    "errors": {
      "DebtCapReached()": [
        {
          "notice": "Error when debt cap is reached"
        }
      ],
      "NotZeroAddress()": [
        {
          "notice": "Error when address is not set"
        }
      ],
      "NotZeroValue()": [
        {
          "notice": "Error when value is zero"
        }
      ],
      "SupplyCapReached()": [
        {
          "notice": "Error when supply cap is reached"
        }
      ]
    },
    "events": {
      "FeeDestinationUpdated(address,address,address)": {
        "notice": "Emitted when the fee destination is updated"
      },
      "FeesUpdated(uint256,uint256,uint256,uint256,address)": {
        "notice": "Emitted when the fees are updated"
      },
      "Mint(address,uint256,uint256,uint256,uint256,address)": {
        "notice": "Emitted when a user mints ZAI"
      },
      "Redeem(address,uint256,uint256,uint256,uint256,address)": {
        "notice": "Emitted when a user redeems ZAI"
      },
      "SupplyCapUpdated(uint256,uint256,uint256,uint256,address)": {
        "notice": "Emitted when the supply cap is updated"
      }
    },
    "kind": "user",
    "methods": {
      "MAX_FEE_BPS()": {
        "notice": "The maximum fee that can be charged"
      },
      "collateral()": {
        "notice": "Returns the collateral token"
      },
      "debt()": {
        "notice": "Returns the current debt held in this vault"
      },
      "debtCap()": {
        "notice": "Returns the debt cap"
      },
      "feeDestination()": {
        "notice": "The address where fees are sent"
      },
      "feesCollected()": {
        "notice": "Transfers yield from the collateral to the fee distributor if yield exceeds debt."
      },
      "mint(address,uint256)": {
        "notice": "Mints ZAI with collateral"
      },
      "mintAmountIn(uint256)": {
        "notice": "Calculates how much ZAI should be minted for a given amount of collateral"
      },
      "mintFeeBps()": {
        "notice": "The mint fee in BPS"
      },
      "rate()": {
        "notice": "Calculates the value of assets per share in the collateral pool."
      },
      "redeem(address,uint256)": {
        "notice": "Redeems ZAI for collateral"
      },
      "redeemAmountOut(uint256)": {
        "notice": "Calculates how much ZAI should be redeemed for a given amount of collateral"
      },
      "redeemFeeBps()": {
        "notice": "The redeem fee in BPS"
      },
      "supplyCap()": {
        "notice": "Returns the supply cap"
      },
      "sweepFees()": {
        "notice": "Collects fees from the collateral pool"
      },
      "toCollateralAmount(uint256)": {
        "notice": "Converts ZAI amount to collateral"
      },
      "toCollateralAmountWithFee(uint256,uint256)": {
        "notice": "Converts ZAI amount to collateral with fee added"
      },
      "toCollateralAmountWithFeeInverse(uint256,uint256)": {
        "notice": "Converts ZAI amount to collateral with fee removed"
      },
      "togglePause()": {
        "notice": "Pauses the contract"
      },
      "updateCaps(uint256,uint256)": {
        "notice": "Updates the supply and debt caps"
      },
      "updateFeeDestination(address)": {
        "notice": "Updates the fee destination"
      },
      "updateFees(uint256,uint256)": {
        "notice": "Updates the mint and redeem fees"
      },
      "zai()": {
        "notice": "Returns the Zai stablecoin"
      }
    },
    "version": 1
  },
  "storageLayout": {
    "storage": [
      {
        "astId": 28007,
        "contract": "contracts/core/psm/PegStabilityModuleYield.sol:PegStabilityModuleYield",
        "label": "zai",
        "offset": 0,
        "slot": "0",
        "type": "t_contract(IStablecoin)34841"
      },
      {
        "astId": 28011,
        "contract": "contracts/core/psm/PegStabilityModuleYield.sol:PegStabilityModuleYield",
        "label": "collateral",
        "offset": 0,
        "slot": "1",
        "type": "t_contract(IERC20)15836"
      },
      {
        "astId": 28014,
        "contract": "contracts/core/psm/PegStabilityModuleYield.sol:PegStabilityModuleYield",
        "label": "supplyCap",
        "offset": 0,
        "slot": "2",
        "type": "t_uint256"
      },
      {
        "astId": 28017,
        "contract": "contracts/core/psm/PegStabilityModuleYield.sol:PegStabilityModuleYield",
        "label": "debtCap",
        "offset": 0,
        "slot": "3",
        "type": "t_uint256"
      },
      {
        "astId": 28020,
        "contract": "contracts/core/psm/PegStabilityModuleYield.sol:PegStabilityModuleYield",
        "label": "debt",
        "offset": 0,
        "slot": "4",
        "type": "t_uint256"
      },
      {
        "astId": 28023,
        "contract": "contracts/core/psm/PegStabilityModuleYield.sol:PegStabilityModuleYield",
        "label": "mintFeeBps",
        "offset": 0,
        "slot": "5",
        "type": "t_uint256"
      },
      {
        "astId": 28026,
        "contract": "contracts/core/psm/PegStabilityModuleYield.sol:PegStabilityModuleYield",
        "label": "redeemFeeBps",
        "offset": 0,
        "slot": "6",
        "type": "t_uint256"
      },
      {
        "astId": 28029,
        "contract": "contracts/core/psm/PegStabilityModuleYield.sol:PegStabilityModuleYield",
        "label": "feeDestination",
        "offset": 0,
        "slot": "7",
        "type": "t_address"
      }
    ],
    "types": {
      "t_address": {
        "encoding": "inplace",
        "label": "address",
        "numberOfBytes": "20"
      },
      "t_contract(IERC20)15836": {
        "encoding": "inplace",
        "label": "contract IERC20",
        "numberOfBytes": "20"
      },
      "t_contract(IStablecoin)34841": {
        "encoding": "inplace",
        "label": "contract IStablecoin",
        "numberOfBytes": "20"
      },
      "t_uint256": {
        "encoding": "inplace",
        "label": "uint256",
        "numberOfBytes": "32"
      }
    }
  }
}