{
  "address": "0xC17596890598282dE86028B24C0C4885a9261874",
  "abi": [
    {
      "inputs": [
        {
          "internalType": "address",
          "name": "target",
          "type": "address"
        }
      ],
      "name": "AddressEmptyCode",
      "type": "error"
    },
    {
      "inputs": [
        {
          "internalType": "address",
          "name": "account",
          "type": "address"
        }
      ],
      "name": "AddressInsufficientBalance",
      "type": "error"
    },
    {
      "inputs": [],
      "name": "FailedInnerCall",
      "type": "error"
    },
    {
      "inputs": [],
      "name": "InvalidInitialization",
      "type": "error"
    },
    {
      "inputs": [],
      "name": "NotInitializing",
      "type": "error"
    },
    {
      "inputs": [
        {
          "internalType": "address",
          "name": "owner",
          "type": "address"
        }
      ],
      "name": "OwnableInvalidOwner",
      "type": "error"
    },
    {
      "inputs": [
        {
          "internalType": "address",
          "name": "account",
          "type": "address"
        }
      ],
      "name": "OwnableUnauthorizedAccount",
      "type": "error"
    },
    {
      "inputs": [],
      "name": "ReentrancyGuardReentrantCall",
      "type": "error"
    },
    {
      "inputs": [
        {
          "internalType": "address",
          "name": "token",
          "type": "address"
        }
      ],
      "name": "SafeERC20FailedOperation",
      "type": "error"
    },
    {
      "anonymous": false,
      "inputs": [
        {
          "indexed": true,
          "internalType": "address",
          "name": "_newFeeDestination",
          "type": "address"
        },
        {
          "indexed": true,
          "internalType": "address",
          "name": "_oldFeeDestination",
          "type": "address"
        },
        {
          "indexed": false,
          "internalType": "address",
          "name": "sender",
          "type": "address"
        }
      ],
      "name": "FeeDestinationUpdated",
      "type": "event"
    },
    {
      "anonymous": false,
      "inputs": [
        {
          "indexed": true,
          "internalType": "uint256",
          "name": "_newMintFeeBps",
          "type": "uint256"
        },
        {
          "indexed": true,
          "internalType": "uint256",
          "name": "_newRedeemFeeBps",
          "type": "uint256"
        },
        {
          "indexed": false,
          "internalType": "uint256",
          "name": "_oldMintFeeBps",
          "type": "uint256"
        },
        {
          "indexed": false,
          "internalType": "uint256",
          "name": "_oldRedeemFeeBps",
          "type": "uint256"
        },
        {
          "indexed": false,
          "internalType": "address",
          "name": "sender",
          "type": "address"
        }
      ],
      "name": "FeesUpdated",
      "type": "event"
    },
    {
      "anonymous": false,
      "inputs": [
        {
          "indexed": false,
          "internalType": "uint64",
          "name": "version",
          "type": "uint64"
        }
      ],
      "name": "Initialized",
      "type": "event"
    },
    {
      "anonymous": false,
      "inputs": [
        {
          "indexed": true,
          "internalType": "address",
          "name": "destination",
          "type": "address"
        },
        {
          "indexed": true,
          "internalType": "uint256",
          "name": "shares",
          "type": "uint256"
        },
        {
          "indexed": true,
          "internalType": "uint256",
          "name": "amount",
          "type": "uint256"
        },
        {
          "indexed": false,
          "internalType": "uint256",
          "name": "newDebt",
          "type": "uint256"
        },
        {
          "indexed": false,
          "internalType": "uint256",
          "name": "supplyCap",
          "type": "uint256"
        },
        {
          "indexed": false,
          "internalType": "address",
          "name": "sender",
          "type": "address"
        }
      ],
      "name": "Mint",
      "type": "event"
    },
    {
      "anonymous": false,
      "inputs": [
        {
          "indexed": true,
          "internalType": "address",
          "name": "previousOwner",
          "type": "address"
        },
        {
          "indexed": true,
          "internalType": "address",
          "name": "newOwner",
          "type": "address"
        }
      ],
      "name": "OwnershipTransferred",
      "type": "event"
    },
    {
      "anonymous": false,
      "inputs": [
        {
          "indexed": true,
          "internalType": "uint256",
          "name": "oldRate",
          "type": "uint256"
        },
        {
          "indexed": true,
          "internalType": "uint256",
          "name": "newRate",
          "type": "uint256"
        },
        {
          "indexed": false,
          "internalType": "address",
          "name": "sender",
          "type": "address"
        }
      ],
      "name": "RateUpdated",
      "type": "event"
    },
    {
      "anonymous": false,
      "inputs": [
        {
          "indexed": true,
          "internalType": "address",
          "name": "destination",
          "type": "address"
        },
        {
          "indexed": true,
          "internalType": "uint256",
          "name": "shares",
          "type": "uint256"
        },
        {
          "indexed": true,
          "internalType": "uint256",
          "name": "amount",
          "type": "uint256"
        },
        {
          "indexed": false,
          "internalType": "uint256",
          "name": "newDebt",
          "type": "uint256"
        },
        {
          "indexed": false,
          "internalType": "uint256",
          "name": "supplyCap",
          "type": "uint256"
        },
        {
          "indexed": false,
          "internalType": "address",
          "name": "sender",
          "type": "address"
        }
      ],
      "name": "Redeem",
      "type": "event"
    },
    {
      "anonymous": false,
      "inputs": [
        {
          "indexed": true,
          "internalType": "uint256",
          "name": "_newSupplyCap",
          "type": "uint256"
        },
        {
          "indexed": true,
          "internalType": "uint256",
          "name": "_newDebtCap",
          "type": "uint256"
        },
        {
          "indexed": false,
          "internalType": "uint256",
          "name": "_oldSupplyCap",
          "type": "uint256"
        },
        {
          "indexed": false,
          "internalType": "uint256",
          "name": "_oldDebtCap",
          "type": "uint256"
        },
        {
          "indexed": false,
          "internalType": "address",
          "name": "sender",
          "type": "address"
        }
      ],
      "name": "SupplyCapUpdated",
      "type": "event"
    },
    {
      "inputs": [],
      "name": "MAX_FEE_BPS",
      "outputs": [
        {
          "internalType": "uint256",
          "name": "",
          "type": "uint256"
        }
      ],
      "stateMutability": "view",
      "type": "function"
    },
    {
      "inputs": [],
      "name": "collateral",
      "outputs": [
        {
          "internalType": "contract IERC20",
          "name": "",
          "type": "address"
        }
      ],
      "stateMutability": "view",
      "type": "function"
    },
    {
      "inputs": [],
      "name": "debt",
      "outputs": [
        {
          "internalType": "uint256",
          "name": "",
          "type": "uint256"
        }
      ],
      "stateMutability": "view",
      "type": "function"
    },
    {
      "inputs": [],
      "name": "debtCap",
      "outputs": [
        {
          "internalType": "uint256",
          "name": "",
          "type": "uint256"
        }
      ],
      "stateMutability": "view",
      "type": "function"
    },
    {
      "inputs": [],
      "name": "feeDestination",
      "outputs": [
        {
          "internalType": "address",
          "name": "",
          "type": "address"
        }
      ],
      "stateMutability": "view",
      "type": "function"
    },
    {
      "inputs": [],
      "name": "feesCollected",
      "outputs": [
        {
          "internalType": "uint256",
          "name": "",
          "type": "uint256"
        }
      ],
      "stateMutability": "view",
      "type": "function"
    },
    {
      "inputs": [
        {
          "internalType": "address",
          "name": "_zai",
          "type": "address"
        },
        {
          "internalType": "address",
          "name": "_collateral",
          "type": "address"
        },
        {
          "internalType": "address",
          "name": "_governance",
          "type": "address"
        },
        {
          "internalType": "uint256",
          "name": "_newRate",
          "type": "uint256"
        },
        {
          "internalType": "uint256",
          "name": "_supplyCap",
          "type": "uint256"
        },
        {
          "internalType": "uint256",
          "name": "_debtCap",
          "type": "uint256"
        },
        {
          "internalType": "uint256",
          "name": "_mintFeeBps",
          "type": "uint256"
        },
        {
          "internalType": "uint256",
          "name": "_redeemFeeBps",
          "type": "uint256"
        },
        {
          "internalType": "address",
          "name": "_feeDestination",
          "type": "address"
        }
      ],
      "name": "initialize",
      "outputs": [],
      "stateMutability": "nonpayable",
      "type": "function"
    },
    {
      "inputs": [
        {
          "internalType": "address",
          "name": "dest",
          "type": "address"
        },
        {
          "internalType": "uint256",
          "name": "shares",
          "type": "uint256"
        }
      ],
      "name": "mint",
      "outputs": [],
      "stateMutability": "nonpayable",
      "type": "function"
    },
    {
      "inputs": [],
      "name": "mintFeeBps",
      "outputs": [
        {
          "internalType": "uint256",
          "name": "",
          "type": "uint256"
        }
      ],
      "stateMutability": "view",
      "type": "function"
    },
    {
      "inputs": [],
      "name": "owner",
      "outputs": [
        {
          "internalType": "address",
          "name": "",
          "type": "address"
        }
      ],
      "stateMutability": "view",
      "type": "function"
    },
    {
      "inputs": [],
      "name": "rate",
      "outputs": [
        {
          "internalType": "uint256",
          "name": "",
          "type": "uint256"
        }
      ],
      "stateMutability": "view",
      "type": "function"
    },
    {
      "inputs": [
        {
          "internalType": "address",
          "name": "dest",
          "type": "address"
        },
        {
          "internalType": "uint256",
          "name": "shares",
          "type": "uint256"
        }
      ],
      "name": "redeem",
      "outputs": [],
      "stateMutability": "nonpayable",
      "type": "function"
    },
    {
      "inputs": [],
      "name": "redeemFeeBps",
      "outputs": [
        {
          "internalType": "uint256",
          "name": "",
          "type": "uint256"
        }
      ],
      "stateMutability": "view",
      "type": "function"
    },
    {
      "inputs": [],
      "name": "renounceOwnership",
      "outputs": [],
      "stateMutability": "nonpayable",
      "type": "function"
    },
    {
      "inputs": [],
      "name": "supplyCap",
      "outputs": [
        {
          "internalType": "uint256",
          "name": "",
          "type": "uint256"
        }
      ],
      "stateMutability": "view",
      "type": "function"
    },
    {
      "inputs": [],
      "name": "sweepFees",
      "outputs": [],
      "stateMutability": "nonpayable",
      "type": "function"
    },
    {
      "inputs": [
        {
          "internalType": "uint256",
          "name": "_amount",
          "type": "uint256"
        }
      ],
      "name": "toCollateralAmount",
      "outputs": [
        {
          "internalType": "uint256",
          "name": "",
          "type": "uint256"
        }
      ],
      "stateMutability": "view",
      "type": "function"
    },
    {
      "inputs": [
        {
          "internalType": "uint256",
          "name": "_amount",
          "type": "uint256"
        },
        {
          "internalType": "uint256",
          "name": "_fee",
          "type": "uint256"
        }
      ],
      "name": "toCollateralAmountWithFee",
      "outputs": [
        {
          "internalType": "uint256",
          "name": "",
          "type": "uint256"
        }
      ],
      "stateMutability": "view",
      "type": "function"
    },
    {
      "inputs": [
        {
          "internalType": "uint256",
          "name": "_amount",
          "type": "uint256"
        },
        {
          "internalType": "uint256",
          "name": "_fee",
          "type": "uint256"
        }
      ],
      "name": "toCollateralAmountWithFeeInverse",
      "outputs": [
        {
          "internalType": "uint256",
          "name": "",
          "type": "uint256"
        }
      ],
      "stateMutability": "view",
      "type": "function"
    },
    {
      "inputs": [
        {
          "internalType": "address",
          "name": "newOwner",
          "type": "address"
        }
      ],
      "name": "transferOwnership",
      "outputs": [],
      "stateMutability": "nonpayable",
      "type": "function"
    },
    {
      "inputs": [
        {
          "internalType": "uint256",
          "name": "_supplyCap",
          "type": "uint256"
        },
        {
          "internalType": "uint256",
          "name": "_debtCap",
          "type": "uint256"
        }
      ],
      "name": "updateCaps",
      "outputs": [],
      "stateMutability": "nonpayable",
      "type": "function"
    },
    {
      "inputs": [
        {
          "internalType": "address",
          "name": "_feeDestination",
          "type": "address"
        }
      ],
      "name": "updateFeeDestination",
      "outputs": [],
      "stateMutability": "nonpayable",
      "type": "function"
    },
    {
      "inputs": [
        {
          "internalType": "uint256",
          "name": "_mintFeeBps",
          "type": "uint256"
        },
        {
          "internalType": "uint256",
          "name": "_redeemFeeBps",
          "type": "uint256"
        }
      ],
      "name": "updateFees",
      "outputs": [],
      "stateMutability": "nonpayable",
      "type": "function"
    },
    {
      "inputs": [
        {
          "internalType": "uint256",
          "name": "_newRate",
          "type": "uint256"
        }
      ],
      "name": "updateRate",
      "outputs": [],
      "stateMutability": "nonpayable",
      "type": "function"
    },
    {
      "inputs": [],
      "name": "zai",
      "outputs": [
        {
          "internalType": "contract IStablecoin",
          "name": "",
          "type": "address"
        }
      ],
      "stateMutability": "view",
      "type": "function"
    }
  ],
  "transactionHash": "0xc0d58a7a8b9bbd39f2a3a83c4bbd70cbf4028dd6c6c90d7bd1191d9965fa6649",
  "args": [],
  "numDeployments": 1,
  "solcInputHash": "729d32936b4b407d88f8b4392f77656a",
  "bytecode": "0x608060405234801561001057600080fd5b50611387806100206000396000f3fe608060405234801561001057600080fd5b50600436106101a35760003560e01c8063715018a6116100ee578063d55be8c611610097578063de53fcd511610071578063de53fcd514610325578063f071db5a14610338578063f2fde38b14610340578063f5320fd81461035357600080fd5b8063d55be8c6146102f6578063d8dfeb45146102ff578063dd62aefb1461031257600080fd5b806397c8bcc1116100c857806397c8bcc1146102d2578063a3711498146102db578063d113b95c146102ee57600080fd5b8063715018a6146102915780638da5cb5b146102995780638f770ad0146102c957600080fd5b806331486c061161015057806366bea2281161012a57806366bea2281461025857806369ea17711461026b5780636db794371461027e57600080fd5b806331486c061461022957806340c10f19146102325780635dc2e5d11461024557600080fd5b80630eb26499116101815780630eb26499146101f85780631e9a69501461020d5780632c4e722e1461022057600080fd5b806307140b34146101a857806309f6442c146101d85780630dca59c1146101ef575b600080fd5b6000546101bb906001600160a01b031681565b6040516001600160a01b0390911681526020015b60405180910390f35b6101e160075481565b6040519081526020016101cf565b6101e160045481565b61020b610206366004611151565b610366565b005b61020b61021b36600461118f565b61037c565b6101e160055481565b6101e160035481565b61020b61024036600461118f565b6105ab565b61020b6102533660046111b9565b61083a565b6101e16102663660046111d4565b61084e565b61020b6102793660046111d4565b610877565b61020b61028c366004611151565b610888565b61020b61089a565b7f9016d09d72d40fdae2fd8ceac6b6234c7706214fd39c1cd1e609a0528c199300546001600160a01b03166101bb565b6101e160025481565b6101e160065481565b61020b6102e93660046111ed565b6108ae565b61020b610a2f565b6101e160095481565b6001546101bb906001600160a01b031681565b6101e1610320366004611151565b610a5a565b6008546101bb906001600160a01b031681565b6101e1610a8e565b61020b61034e3660046111b9565b610b12565b6101e1610361366004611151565b610b66565b61036e610b76565b6103788282610bea565b5050565b610384610c4a565b600061039282600754610b66565b9050600081116103e95760405162461bcd60e51b815260206004820152600e60248201527f616d6f756e7420746f6f206c6f7700000000000000000000000000000000000060448201526064015b60405180910390fd5b6000546040517f23b872dd000000000000000000000000000000000000000000000000000000008152336004820152306024820152604481018490526001600160a01b03909116906323b872dd906064016020604051808303816000875af1158015610459573d6000803e3d6000fd5b505050506040513d601f19601f8201168201806040525081019061047d9190611272565b506000546040517f9dc29fac000000000000000000000000000000000000000000000000000000008152306004820152602481018490526001600160a01b0390911690639dc29fac90604401600060405180830381600087803b1580156104e357600080fd5b505af11580156104f7573d6000803e3d6000fd5b505060015461051392506001600160a01b031690508483610cad565b816004600082825461052591906112aa565b90915550506004546002546040805192835260208301919091523390820152819083906001600160a01b038616907f936e31ed75b936652e58e831fe69a161b06bc628b8b02e9dc63bc89fe578a6e1906060015b60405180910390a45061037860017f9b779b17422d0df92223018b32b4d1fa46e071723d6817e2486d003becc55f0055565b6105b3610c4a565b60006105c182600654610a5a565b9050600081116106135760405162461bcd60e51b815260206004820152600e60248201527f616d6f756e7420746f6f206c6f7700000000000000000000000000000000000060448201526064016103e0565b6002546001546040516370a0823160e01b815230600482015283916001600160a01b0316906370a0823190602401602060405180830381865afa15801561065e573d6000803e3d6000fd5b505050506040513d601f19601f8201168201806040525081019061068291906112bd565b61068c91906112d6565b11156106da5760405162461bcd60e51b815260206004820152601360248201527f737570706c79206361702065786365656465640000000000000000000000000060448201526064016103e0565b600354826004546106eb91906112d6565b11156107395760405162461bcd60e51b815260206004820152601160248201527f646562742063617020657863656564656400000000000000000000000000000060448201526064016103e0565b600154610751906001600160a01b0316333084610d4c565b6000546040517f40c10f190000000000000000000000000000000000000000000000000000000081526001600160a01b03858116600483015260248201859052909116906340c10f1990604401600060405180830381600087803b1580156107b857600080fd5b505af11580156107cc573d6000803e3d6000fd5b5050505081600460008282546107e291906112d6565b90915550506004546002546040805192835260208301919091523390820152819083906001600160a01b038616907f265ee4cff6cdf714e68c02e61a7864cf66bc04e372a41b6cc425acbb737cd39590606001610579565b610842610b76565b61084b81610d8b565b50565b6000670de0b6b3a76400006005548361086791906112e9565b6108719190611300565b92915050565b61087f610b76565b61084b81610df4565b610890610b76565b6103788282610e30565b6108a2610b76565b6108ac6000610e86565b565b7ff0c57e16840df040f15088dc2f81fe391c3923bec73e23a9662efc9c229c6a0080546001919068010000000000000000900460ff16806108fd5750805467ffffffffffffffff808416911610155b15610934576040517ff92ee8a900000000000000000000000000000000000000000000000000000000815260040160405180910390fd5b805468ffffffffffffffffff191667ffffffffffffffff83161768010000000000000000178155600080546001600160a01b03808e1673ffffffffffffffffffffffffffffffffffffffff199283161790925560018054928d16929091169190911790556109a189610f04565b6109a9610f15565b6109b38585610e30565b6109bd8787610bea565b6109c688610df4565b6109cf83610d8b565b612710600955805468ff00000000000000001916815560405167ffffffffffffffff831681527fc7f505b2f371ae2175ee4913f4499e1f2633a7b5936321eed1cdaeb6115181d29060200160405180910390a15050505050505050505050565b6008546108ac906001600160a01b0316610a47610a8e565b6001546001600160a01b03169190610cad565b600954600090610a6a83826112d6565b610a738561084e565b610a7d91906112e9565b610a879190611300565b9392505050565b600480546001546040516370a0823160e01b815230938101939093526000926001600160a01b03909116906370a0823190602401602060405180830381865afa158015610adf573d6000803e3d6000fd5b505050506040513d601f19601f82011682018060405250810190610b0391906112bd565b610b0d91906112aa565b905090565b610b1a610b76565b6001600160a01b038116610b5d576040517f1e4fbdf7000000000000000000000000000000000000000000000000000000008152600060048201526024016103e0565b61084b81610e86565b600954600090610a6a83826112aa565b33610ba87f9016d09d72d40fdae2fd8ceac6b6234c7706214fd39c1cd1e609a0528c199300546001600160a01b031690565b6001600160a01b0316146108ac576040517f118cdaa70000000000000000000000000000000000000000000000000000000081523360048201526024016103e0565b60028054600380549285905583905560408051828152602081018490523391810191909152909190839085907fae75d5c2e3024e6e661c4709fec706270aa58d8eb07547e3d6fc4ba44b76ab23906060015b60405180910390a350505050565b7f9b779b17422d0df92223018b32b4d1fa46e071723d6817e2486d003becc55f00805460011901610ca7576040517f3ee5aeb500000000000000000000000000000000000000000000000000000000815260040160405180910390fd5b60029055565b6040516001600160a01b03838116602483015260448201839052610d2191859182169063a9059cbb906064015b604051602081830303815290604052915060e01b6020820180517bffffffffffffffffffffffffffffffffffffffffffffffffffffffff8381831617835250505050610f25565b505050565b60017f9b779b17422d0df92223018b32b4d1fa46e071723d6817e2486d003becc55f0055565b6040516001600160a01b038481166024830152838116604483015260648201839052610d859186918216906323b872dd90608401610cda565b50505050565b600880546001600160a01b0383811673ffffffffffffffffffffffffffffffffffffffff198316811790935560405133815291169182917f77152a8590285dd4dae2386ed85a5514f2a5fd13ae6969df03169aea7ebb88a8906020015b60405180910390a35050565b6005805490829055604051338152829082907f7a285533a6415d496859eec7fa426d85c813c8ed12602b764e6f47e97dfa42a290602001610de8565b60068054600780549285905583905560408051828152602081018490523391810191909152909190839085907f040ad6c94afb3c31033baf750e5271ef1190b75380494159c0be334e92c069c790606001610c3c565b7f9016d09d72d40fdae2fd8ceac6b6234c7706214fd39c1cd1e609a0528c199300805473ffffffffffffffffffffffffffffffffffffffff1981166001600160a01b03848116918217845560405192169182907f8be0079c531659141344cd1fd0a4f28419497f9722a3daafe3b4186f6b6457e090600090a3505050565b610f0c610fa1565b61084b81611008565b610f1d610fa1565b6108ac611010565b6000610f3a6001600160a01b03841683611018565b90508051600014158015610f5f575080806020019051810190610f5d9190611272565b155b15610d21576040517f5274afe70000000000000000000000000000000000000000000000000000000081526001600160a01b03841660048201526024016103e0565b7ff0c57e16840df040f15088dc2f81fe391c3923bec73e23a9662efc9c229c6a005468010000000000000000900460ff166108ac576040517fd7e6bcf800000000000000000000000000000000000000000000000000000000815260040160405180910390fd5b610b1a610fa1565b610d26610fa1565b6060610a878383600084600080856001600160a01b0316848660405161103e9190611322565b60006040518083038185875af1925050503d806000811461107b576040519150601f19603f3d011682016040523d82523d6000602084013e611080565b606091505b509150915061109086838361109a565b9695505050505050565b6060826110af576110aa8261110f565b610a87565b81511580156110c657506001600160a01b0384163b155b15611108576040517f9996b3150000000000000000000000000000000000000000000000000000000081526001600160a01b03851660048201526024016103e0565b5080610a87565b80511561111f5780518082602001fd5b6040517f1425ea4200000000000000000000000000000000000000000000000000000000815260040160405180910390fd5b6000806040838503121561116457600080fd5b50508035926020909101359150565b80356001600160a01b038116811461118a57600080fd5b919050565b600080604083850312156111a257600080fd5b6111ab83611173565b946020939093013593505050565b6000602082840312156111cb57600080fd5b610a8782611173565b6000602082840312156111e657600080fd5b5035919050565b60008060008060008060008060006101208a8c03121561120c57600080fd5b6112158a611173565b985061122360208b01611173565b975061123160408b01611173565b965060608a0135955060808a0135945060a08a0135935060c08a0135925060e08a013591506112636101008b01611173565b90509295985092959850929598565b60006020828403121561128457600080fd5b81518015158114610a8757600080fd5b634e487b7160e01b600052601160045260246000fd5b8181038181111561087157610871611294565b6000602082840312156112cf57600080fd5b5051919050565b8082018082111561087157610871611294565b808202811582820484141761087157610871611294565b60008261131d57634e487b7160e01b600052601260045260246000fd5b500490565b6000825160005b818110156113435760208186018101518583015201611329565b50600092019182525091905056fea26469706673582212201c11486c0d6a36d29d15acc5390e14cd5a6a19a7b1b86f12b35df9bd7662f72d64736f6c63430008150033",
  "devdoc": {
    "author": "maha.xyz",
    "details": "https://docs.maha.xyz/mechanics/peg-mechanics/peg-stablility-module-psm",
    "errors": {
      "AddressEmptyCode(address)": [
        {
          "details": "There's no code at `target` (it is not a contract)."
        }
      ],
      "AddressInsufficientBalance(address)": [
        {
          "details": "The ETH balance of the account is not enough to perform the operation."
        }
      ],
      "FailedInnerCall()": [
        {
          "details": "A call to an address target failed. The target may have reverted."
        }
      ],
      "InvalidInitialization()": [
        {
          "details": "The contract is already initialized."
        }
      ],
      "NotInitializing()": [
        {
          "details": "The contract is not initializing."
        }
      ],
      "OwnableInvalidOwner(address)": [
        {
          "details": "The owner is not a valid owner account. (eg. `address(0)`)"
        }
      ],
      "OwnableUnauthorizedAccount(address)": [
        {
          "details": "The caller account is not authorized to perform an operation."
        }
      ],
      "ReentrancyGuardReentrantCall()": [
        {
          "details": "Unauthorized reentrant call."
        }
      ],
      "SafeERC20FailedOperation(address)": [
        {
          "details": "An operation with an ERC20 token failed."
        }
      ]
    },
    "events": {
      "FeeDestinationUpdated(address,address,address)": {
        "params": {
          "_newFeeDestination": "The new fee destination",
          "_oldFeeDestination": "The old fee destination",
          "sender": "The address that called the update function"
        }
      },
      "FeesUpdated(uint256,uint256,uint256,uint256,address)": {
        "params": {
          "_newMintFeeBps": "The new mint fee",
          "_newRedeemFeeBps": "The new redeem fee",
          "_oldMintFeeBps": "The old mint fee",
          "_oldRedeemFeeBps": "The old redeem fee",
          "sender": "The address that called the update function"
        }
      },
      "Initialized(uint64)": {
        "details": "Triggered when the contract has been initialized or reinitialized."
      },
      "Mint(address,uint256,uint256,uint256,uint256,address)": {
        "params": {
          "amount": "The amount of collateral taken",
          "destination": "Where the minted ZAI will be sent",
          "newDebt": "The current new debt of the PSM module",
          "sender": "The address that called the mint function",
          "shares": "The amount of ZAI minted",
          "supplyCap": "The current supply cap of the PSM module"
        }
      },
      "RateUpdated(uint256,uint256,address)": {
        "details": "Called by the admin",
        "params": {
          "newRate": "The new rate of ZAI/Collateral",
          "oldRate": "The old rate of ZAI/Collateral",
          "sender": "The address that called the update function"
        }
      },
      "Redeem(address,uint256,uint256,uint256,uint256,address)": {
        "params": {
          "amount": "The amount of collateral taken out",
          "destination": "Where the collateral will be sent",
          "newDebt": "The current new debt of the PSM module",
          "sender": "The address that called the redeem function",
          "shares": "The amount of ZAI burnt",
          "supplyCap": "The current supply cap of the PSM module"
        }
      },
      "SupplyCapUpdated(uint256,uint256,uint256,uint256,address)": {
        "params": {
          "_newDebtCap": "The new debt cap",
          "_newSupplyCap": "The new supply cap",
          "_oldDebtCap": "The old debt cap",
          "_oldSupplyCap": "The old supply cap",
          "sender": "The address that called the update function"
        }
      }
    },
    "kind": "dev",
    "methods": {
      "feesCollected()": {
        "returns": {
          "_0": "The amount of fees collected in ZAI"
        }
      },
      "initialize(address,address,address,uint256,uint256,uint256,uint256,uint256,address)": {
        "params": {
          "_collateral": "The collateral token",
          "_debtCap": "The debt cap",
          "_feeDestination": "The address where fees are sent",
          "_governance": "Governance address",
          "_mintFeeBps": "The mint fee in BPS",
          "_newRate": "The new rate of ZAI/Collateral",
          "_redeemFeeBps": "The redeem fee in BPS",
          "_supplyCap": "The supply cap",
          "_zai": "The ZAI stablecoin"
        }
      },
      "mint(address,uint256)": {
        "details": "This contract calculates how much collateral should be taken",
        "params": {
          "destination": "Where the minted ZAI will be sent",
          "shares": "The amount of zai to mint"
        }
      },
      "owner()": {
        "details": "Returns the address of the current owner."
      },
      "redeem(address,uint256)": {
        "details": "This contract calculates how much collateral should be given",
        "params": {
          "destination": "Where the collateral will be sent",
          "shares": "The amount of zai to redeem"
        }
      },
      "renounceOwnership()": {
        "details": "Leaves the contract without owner. It will not be possible to call `onlyOwner` functions. Can only be called by the current owner. NOTE: Renouncing ownership will leave the contract without an owner, thereby disabling any functionality that is only available to the owner."
      },
      "toCollateralAmount(uint256)": {
        "params": {
          "_amount": "The amount of ZAI"
        },
        "returns": {
          "_0": "The amount of collateral"
        }
      },
      "toCollateralAmountWithFee(uint256,uint256)": {
        "details": "Fee is calculated as (amount * (MAX_FEE_BPS + fee)) / MAX_FEE_BPS",
        "params": {
          "_amount": "The amount of ZAI",
          "_fee": "The fee to be charged in BPS"
        }
      },
      "toCollateralAmountWithFeeInverse(uint256,uint256)": {
        "details": "Fee is calculated as (amount * (MAX_FEE_BPS - fee)) / MAX_FEE_BPS",
        "params": {
          "_amount": "The amount of ZAI",
          "_fee": "The fee to be charged in BPS"
        }
      },
      "transferOwnership(address)": {
        "details": "Transfers ownership of the contract to a new account (`newOwner`). Can only be called by the current owner."
      },
      "updateCaps(uint256,uint256)": {
        "details": "Only callable by the admin",
        "params": {
          "_debtCap": "How much debt can be held",
          "_supplyCap": "How much collateral can be taken"
        }
      },
      "updateFeeDestination(address)": {
        "details": "Only callable by the admin",
        "params": {
          "_feeDestination": "The new fee destination"
        }
      },
      "updateFees(uint256,uint256)": {
        "params": {
          "_mintFeeBps": "The new mint fee in BPS",
          "_redeemFeeBps": "The new redeem fee in BPS"
        }
      },
      "updateRate(uint256)": {
        "details": "Only callable by the admin",
        "params": {
          "_newRate": "The new rate of ZAI/Collateral"
        }
      }
    },
    "title": "Peg Stability Module",
    "version": 1
  },
  "userdoc": {
    "events": {
      "FeeDestinationUpdated(address,address,address)": {
        "notice": "Emitted when the fee destination is updated"
      },
      "FeesUpdated(uint256,uint256,uint256,uint256,address)": {
        "notice": "Emitted when the fees are updated"
      },
      "Mint(address,uint256,uint256,uint256,uint256,address)": {
        "notice": "Emitted when a user mints ZAI"
      },
      "RateUpdated(uint256,uint256,address)": {
        "notice": "Emitted when the rate is updated"
      },
      "Redeem(address,uint256,uint256,uint256,uint256,address)": {
        "notice": "Emitted when a user redeems ZAI"
      },
      "SupplyCapUpdated(uint256,uint256,uint256,uint256,address)": {
        "notice": "Emitted when the supply cap is updated"
      }
    },
    "kind": "user",
    "methods": {
      "MAX_FEE_BPS()": {
        "notice": "The maximum fee that can be charged"
      },
      "collateral()": {
        "notice": "Returns the collateral token"
      },
      "debt()": {
        "notice": "Returns the current debt held in this vault"
      },
      "debtCap()": {
        "notice": "Returns the debt cap"
      },
      "feeDestination()": {
        "notice": "The address where fees are sent"
      },
      "feesCollected()": {
        "notice": "How much fees has been collected by the protocol"
      },
      "initialize(address,address,address,uint256,uint256,uint256,uint256,uint256,address)": {
        "notice": "Initializes the contract"
      },
      "mint(address,uint256)": {
        "notice": "Mints ZAI with collateral"
      },
      "mintFeeBps()": {
        "notice": "The mint fee in BPS"
      },
      "rate()": {
        "notice": "Returns the current rate of ZAI/Collateral"
      },
      "redeem(address,uint256)": {
        "notice": "Redeems ZAI for collateral"
      },
      "redeemFeeBps()": {
        "notice": "The redeem fee in BPS"
      },
      "supplyCap()": {
        "notice": "Returns the supply cap"
      },
      "toCollateralAmount(uint256)": {
        "notice": "Converts ZAI amount to collateral"
      },
      "toCollateralAmountWithFee(uint256,uint256)": {
        "notice": "Converts ZAI amount to collateral with fee added"
      },
      "toCollateralAmountWithFeeInverse(uint256,uint256)": {
        "notice": "Converts ZAI amount to collateral with fee removed"
      },
      "updateCaps(uint256,uint256)": {
        "notice": "Updates the supply and debt caps"
      },
      "updateFeeDestination(address)": {
        "notice": "Updates the fee destination"
      },
      "updateFees(uint256,uint256)": {
        "notice": "Updates the mint and redeem fees"
      },
      "updateRate(uint256)": {
        "notice": "Updates the rate of ZAI/Collateral"
      },
      "zai()": {
        "notice": "Returns the Zai stablecoin"
      }
    },
    "notice": "Used to mint ZAI with collateral at a pre-defined rate",
    "version": 1
  },
  "storageLayout": {
    "storage": [
      {
        "astId": 1314,
        "contract": "contracts/core/psm/PegStabilityModule.sol:PegStabilityModule",
        "label": "zai",
        "offset": 0,
        "slot": "0",
        "type": "t_contract(IStablecoin)1881"
      },
      {
        "astId": 1318,
        "contract": "contracts/core/psm/PegStabilityModule.sol:PegStabilityModule",
        "label": "collateral",
        "offset": 0,
        "slot": "1",
        "type": "t_contract(IERC20)705"
      },
      {
        "astId": 1321,
        "contract": "contracts/core/psm/PegStabilityModule.sol:PegStabilityModule",
        "label": "supplyCap",
        "offset": 0,
        "slot": "2",
        "type": "t_uint256"
      },
      {
        "astId": 1324,
        "contract": "contracts/core/psm/PegStabilityModule.sol:PegStabilityModule",
        "label": "debtCap",
        "offset": 0,
        "slot": "3",
        "type": "t_uint256"
      },
      {
        "astId": 1327,
        "contract": "contracts/core/psm/PegStabilityModule.sol:PegStabilityModule",
        "label": "debt",
        "offset": 0,
        "slot": "4",
        "type": "t_uint256"
      },
      {
        "astId": 1330,
        "contract": "contracts/core/psm/PegStabilityModule.sol:PegStabilityModule",
        "label": "rate",
        "offset": 0,
        "slot": "5",
        "type": "t_uint256"
      },
      {
        "astId": 1333,
        "contract": "contracts/core/psm/PegStabilityModule.sol:PegStabilityModule",
        "label": "mintFeeBps",
        "offset": 0,
        "slot": "6",
        "type": "t_uint256"
      },
      {
        "astId": 1336,
        "contract": "contracts/core/psm/PegStabilityModule.sol:PegStabilityModule",
        "label": "redeemFeeBps",
        "offset": 0,
        "slot": "7",
        "type": "t_uint256"
      },
      {
        "astId": 1339,
        "contract": "contracts/core/psm/PegStabilityModule.sol:PegStabilityModule",
        "label": "feeDestination",
        "offset": 0,
        "slot": "8",
        "type": "t_address"
      },
      {
        "astId": 1342,
        "contract": "contracts/core/psm/PegStabilityModule.sol:PegStabilityModule",
        "label": "MAX_FEE_BPS",
        "offset": 0,
        "slot": "9",
        "type": "t_uint256"
      }
    ],
    "types": {
      "t_address": {
        "encoding": "inplace",
        "label": "address",
        "numberOfBytes": "20"
      },
      "t_contract(IERC20)705": {
        "encoding": "inplace",
        "label": "contract IERC20",
        "numberOfBytes": "20"
      },
      "t_contract(IStablecoin)1881": {
        "encoding": "inplace",
        "label": "contract IStablecoin",
        "numberOfBytes": "20"
      },
      "t_uint256": {
        "encoding": "inplace",
        "label": "uint256",
        "numberOfBytes": "32"
      }
    }
  }
}