{
  "address": "0x4A20706bA61F4c9824044fa6F358F491152d3eAc",
  "abi": [
    {
      "inputs": [
        {
          "internalType": "address",
          "name": "target",
          "type": "address"
        }
      ],
      "name": "AddressEmptyCode",
      "type": "error"
    },
    {
      "inputs": [
        {
          "internalType": "address",
          "name": "account",
          "type": "address"
        }
      ],
      "name": "AddressInsufficientBalance",
      "type": "error"
    },
    {
      "inputs": [],
      "name": "DebtCapReached",
      "type": "error"
    },
    {
      "inputs": [],
      "name": "FailedInnerCall",
      "type": "error"
    },
    {
      "inputs": [],
      "name": "InvalidInitialization",
      "type": "error"
    },
    {
      "inputs": [],
      "name": "NotInitializing",
      "type": "error"
    },
    {
      "inputs": [],
      "name": "NotZeroAddress",
      "type": "error"
    },
    {
      "inputs": [],
      "name": "NotZeroValue",
      "type": "error"
    },
    {
      "inputs": [
        {
          "internalType": "address",
          "name": "owner",
          "type": "address"
        }
      ],
      "name": "OwnableInvalidOwner",
      "type": "error"
    },
    {
      "inputs": [
        {
          "internalType": "address",
          "name": "account",
          "type": "address"
        }
      ],
      "name": "OwnableUnauthorizedAccount",
      "type": "error"
    },
    {
      "inputs": [],
      "name": "ReentrancyGuardReentrantCall",
      "type": "error"
    },
    {
      "inputs": [
        {
          "internalType": "address",
          "name": "token",
          "type": "address"
        }
      ],
      "name": "SafeERC20FailedOperation",
      "type": "error"
    },
    {
      "inputs": [],
      "name": "SupplyCapReached",
      "type": "error"
    },
    {
      "anonymous": false,
      "inputs": [
        {
          "indexed": true,
          "internalType": "address",
          "name": "_newFeeDestination",
          "type": "address"
        },
        {
          "indexed": true,
          "internalType": "address",
          "name": "_oldFeeDestination",
          "type": "address"
        },
        {
          "indexed": false,
          "internalType": "address",
          "name": "sender",
          "type": "address"
        }
      ],
      "name": "FeeDestinationUpdated",
      "type": "event"
    },
    {
      "anonymous": false,
      "inputs": [
        {
          "indexed": true,
          "internalType": "uint256",
          "name": "_newMintFeeBps",
          "type": "uint256"
        },
        {
          "indexed": true,
          "internalType": "uint256",
          "name": "_newRedeemFeeBps",
          "type": "uint256"
        },
        {
          "indexed": false,
          "internalType": "uint256",
          "name": "_oldMintFeeBps",
          "type": "uint256"
        },
        {
          "indexed": false,
          "internalType": "uint256",
          "name": "_oldRedeemFeeBps",
          "type": "uint256"
        },
        {
          "indexed": false,
          "internalType": "address",
          "name": "sender",
          "type": "address"
        }
      ],
      "name": "FeesUpdated",
      "type": "event"
    },
    {
      "anonymous": false,
      "inputs": [
        {
          "indexed": false,
          "internalType": "uint64",
          "name": "version",
          "type": "uint64"
        }
      ],
      "name": "Initialized",
      "type": "event"
    },
    {
      "anonymous": false,
      "inputs": [
        {
          "indexed": true,
          "internalType": "address",
          "name": "destination",
          "type": "address"
        },
        {
          "indexed": true,
          "internalType": "uint256",
          "name": "shares",
          "type": "uint256"
        },
        {
          "indexed": true,
          "internalType": "uint256",
          "name": "amount",
          "type": "uint256"
        },
        {
          "indexed": false,
          "internalType": "uint256",
          "name": "newDebt",
          "type": "uint256"
        },
        {
          "indexed": false,
          "internalType": "uint256",
          "name": "supplyCap",
          "type": "uint256"
        },
        {
          "indexed": false,
          "internalType": "address",
          "name": "sender",
          "type": "address"
        }
      ],
      "name": "Mint",
      "type": "event"
    },
    {
      "anonymous": false,
      "inputs": [
        {
          "indexed": true,
          "internalType": "address",
          "name": "previousOwner",
          "type": "address"
        },
        {
          "indexed": true,
          "internalType": "address",
          "name": "newOwner",
          "type": "address"
        }
      ],
      "name": "OwnershipTransferred",
      "type": "event"
    },
    {
      "anonymous": false,
      "inputs": [
        {
          "indexed": true,
          "internalType": "address",
          "name": "destination",
          "type": "address"
        },
        {
          "indexed": true,
          "internalType": "uint256",
          "name": "shares",
          "type": "uint256"
        },
        {
          "indexed": true,
          "internalType": "uint256",
          "name": "amount",
          "type": "uint256"
        },
        {
          "indexed": false,
          "internalType": "uint256",
          "name": "newDebt",
          "type": "uint256"
        },
        {
          "indexed": false,
          "internalType": "uint256",
          "name": "supplyCap",
          "type": "uint256"
        },
        {
          "indexed": false,
          "internalType": "address",
          "name": "sender",
          "type": "address"
        }
      ],
      "name": "Redeem",
      "type": "event"
    },
    {
      "anonymous": false,
      "inputs": [
        {
          "indexed": true,
          "internalType": "uint256",
          "name": "_newSupplyCap",
          "type": "uint256"
        },
        {
          "indexed": true,
          "internalType": "uint256",
          "name": "_newDebtCap",
          "type": "uint256"
        },
        {
          "indexed": false,
          "internalType": "uint256",
          "name": "_oldSupplyCap",
          "type": "uint256"
        },
        {
          "indexed": false,
          "internalType": "uint256",
          "name": "_oldDebtCap",
          "type": "uint256"
        },
        {
          "indexed": false,
          "internalType": "address",
          "name": "sender",
          "type": "address"
        }
      ],
      "name": "SupplyCapUpdated",
      "type": "event"
    },
    {
      "inputs": [],
      "name": "MAX_FEE_BPS",
      "outputs": [
        {
          "internalType": "uint256",
          "name": "",
          "type": "uint256"
        }
      ],
      "stateMutability": "view",
      "type": "function"
    },
    {
      "inputs": [],
      "name": "collateral",
      "outputs": [
        {
          "internalType": "contract IERC20",
          "name": "",
          "type": "address"
        }
      ],
      "stateMutability": "view",
      "type": "function"
    },
    {
      "inputs": [],
      "name": "debt",
      "outputs": [
        {
          "internalType": "uint256",
          "name": "",
          "type": "uint256"
        }
      ],
      "stateMutability": "view",
      "type": "function"
    },
    {
      "inputs": [],
      "name": "debtCap",
      "outputs": [
        {
          "internalType": "uint256",
          "name": "",
          "type": "uint256"
        }
      ],
      "stateMutability": "view",
      "type": "function"
    },
    {
      "inputs": [],
      "name": "feeDestination",
      "outputs": [
        {
          "internalType": "address",
          "name": "",
          "type": "address"
        }
      ],
      "stateMutability": "view",
      "type": "function"
    },
    {
      "inputs": [],
      "name": "feesCollected",
      "outputs": [
        {
          "internalType": "uint256",
          "name": "",
          "type": "uint256"
        }
      ],
      "stateMutability": "view",
      "type": "function"
    },
    {
      "inputs": [
        {
          "internalType": "address",
          "name": "_zai",
          "type": "address"
        },
        {
          "internalType": "address",
          "name": "_collateral",
          "type": "address"
        },
        {
          "internalType": "address",
          "name": "_governance",
          "type": "address"
        },
        {
          "internalType": "uint256",
          "name": "_supplyCap",
          "type": "uint256"
        },
        {
          "internalType": "uint256",
          "name": "_debtCap",
          "type": "uint256"
        },
        {
          "internalType": "uint256",
          "name": "_mintFeeBps",
          "type": "uint256"
        },
        {
          "internalType": "uint256",
          "name": "_redeemFeeBps",
          "type": "uint256"
        },
        {
          "internalType": "address",
          "name": "_feeDestination",
          "type": "address"
        }
      ],
      "name": "initialize",
      "outputs": [],
      "stateMutability": "nonpayable",
      "type": "function"
    },
    {
      "inputs": [
        {
          "internalType": "address",
          "name": "dest",
          "type": "address"
        },
        {
          "internalType": "uint256",
          "name": "shares",
          "type": "uint256"
        }
      ],
      "name": "mint",
      "outputs": [],
      "stateMutability": "nonpayable",
      "type": "function"
    },
    {
      "inputs": [
        {
          "internalType": "uint256",
          "name": "amountAssetsIn",
          "type": "uint256"
        }
      ],
      "name": "mintAmountIn",
      "outputs": [
        {
          "internalType": "uint256",
          "name": "shares",
          "type": "uint256"
        }
      ],
      "stateMutability": "view",
      "type": "function"
    },
    {
      "inputs": [],
      "name": "mintFeeBps",
      "outputs": [
        {
          "internalType": "uint256",
          "name": "",
          "type": "uint256"
        }
      ],
      "stateMutability": "view",
      "type": "function"
    },
    {
      "inputs": [],
      "name": "owner",
      "outputs": [
        {
          "internalType": "address",
          "name": "",
          "type": "address"
        }
      ],
      "stateMutability": "view",
      "type": "function"
    },
    {
      "inputs": [],
      "name": "rate",
      "outputs": [
        {
          "internalType": "uint256",
          "name": "",
          "type": "uint256"
        }
      ],
      "stateMutability": "view",
      "type": "function"
    },
    {
      "inputs": [
        {
          "internalType": "address",
          "name": "dest",
          "type": "address"
        },
        {
          "internalType": "uint256",
          "name": "shares",
          "type": "uint256"
        }
      ],
      "name": "redeem",
      "outputs": [],
      "stateMutability": "nonpayable",
      "type": "function"
    },
    {
      "inputs": [
        {
          "internalType": "uint256",
          "name": "amountAssetsOut",
          "type": "uint256"
        }
      ],
      "name": "redeemAmountOut",
      "outputs": [
        {
          "internalType": "uint256",
          "name": "shares",
          "type": "uint256"
        }
      ],
      "stateMutability": "view",
      "type": "function"
    },
    {
      "inputs": [],
      "name": "redeemFeeBps",
      "outputs": [
        {
          "internalType": "uint256",
          "name": "",
          "type": "uint256"
        }
      ],
      "stateMutability": "view",
      "type": "function"
    },
    {
      "inputs": [],
      "name": "renounceOwnership",
      "outputs": [],
      "stateMutability": "nonpayable",
      "type": "function"
    },
    {
      "inputs": [],
      "name": "supplyCap",
      "outputs": [
        {
          "internalType": "uint256",
          "name": "",
          "type": "uint256"
        }
      ],
      "stateMutability": "view",
      "type": "function"
    },
    {
      "inputs": [],
      "name": "sweepFees",
      "outputs": [],
      "stateMutability": "nonpayable",
      "type": "function"
    },
    {
      "inputs": [
        {
          "internalType": "uint256",
          "name": "_amount",
          "type": "uint256"
        }
      ],
      "name": "toCollateralAmount",
      "outputs": [
        {
          "internalType": "uint256",
          "name": "",
          "type": "uint256"
        }
      ],
      "stateMutability": "view",
      "type": "function"
    },
    {
      "inputs": [
        {
          "internalType": "uint256",
          "name": "_amount",
          "type": "uint256"
        },
        {
          "internalType": "uint256",
          "name": "_fee",
          "type": "uint256"
        }
      ],
      "name": "toCollateralAmountWithFee",
      "outputs": [
        {
          "internalType": "uint256",
          "name": "",
          "type": "uint256"
        }
      ],
      "stateMutability": "view",
      "type": "function"
    },
    {
      "inputs": [
        {
          "internalType": "uint256",
          "name": "_amount",
          "type": "uint256"
        },
        {
          "internalType": "uint256",
          "name": "_fee",
          "type": "uint256"
        }
      ],
      "name": "toCollateralAmountWithFeeInverse",
      "outputs": [
        {
          "internalType": "uint256",
          "name": "",
          "type": "uint256"
        }
      ],
      "stateMutability": "view",
      "type": "function"
    },
    {
      "inputs": [
        {
          "internalType": "address",
          "name": "newOwner",
          "type": "address"
        }
      ],
      "name": "transferOwnership",
      "outputs": [],
      "stateMutability": "nonpayable",
      "type": "function"
    },
    {
      "inputs": [],
      "name": "transferYieldToFeeDistributor",
      "outputs": [],
      "stateMutability": "nonpayable",
      "type": "function"
    },
    {
      "inputs": [
        {
          "internalType": "uint256",
          "name": "_supplyCap",
          "type": "uint256"
        },
        {
          "internalType": "uint256",
          "name": "_debtCap",
          "type": "uint256"
        }
      ],
      "name": "updateCaps",
      "outputs": [],
      "stateMutability": "nonpayable",
      "type": "function"
    },
    {
      "inputs": [
        {
          "internalType": "address",
          "name": "_feeDestination",
          "type": "address"
        }
      ],
      "name": "updateFeeDestination",
      "outputs": [],
      "stateMutability": "nonpayable",
      "type": "function"
    },
    {
      "inputs": [
        {
          "internalType": "uint256",
          "name": "_mintFeeBps",
          "type": "uint256"
        },
        {
          "internalType": "uint256",
          "name": "_redeemFeeBps",
          "type": "uint256"
        }
      ],
      "name": "updateFees",
      "outputs": [],
      "stateMutability": "nonpayable",
      "type": "function"
    },
    {
      "inputs": [],
      "name": "zai",
      "outputs": [
        {
          "internalType": "contract IStablecoin",
          "name": "",
          "type": "address"
        }
      ],
      "stateMutability": "view",
      "type": "function"
    }
  ],
  "transactionHash": "0xcb3c7b36e4426dd5ba6637e640ebe0cfa4d61472762e05638e7b664c5562e14f",
  "args": [],
  "numDeployments": 1,
  "solcInputHash": "db825634234a60007cd14f5176e71f09",
  "bytecode": "0x60a060405261271060805234801561001657600080fd5b50608051611497610055600039600081816102bc015281816105380152818161055e01528181610af501528181610b480152610c5c01526114976000f3fe608060405234801561001057600080fd5b50600436106101795760003560e01c8063715018a6116100d9578063d55be8c611610087578063d55be8c6146102b7578063d8dfeb45146102de578063dd62aefb146102f1578063de53fcd514610304578063f071db5a14610317578063f2fde38b1461031f578063f5320fd81461033257600080fd5b8063715018a6146102725780638acdac691461027a5780638da5cb5b146102825780638f770ad01461028a57806397c8bcc114610293578063bb5dc1891461029c578063d113b95c146102af57600080fd5b80632bf033ad116101365780632bf033ad146102025780632c4e722e1461021557806331486c061461021d57806340c10f19146102265780635dc2e5d11461023957806366bea2281461024c5780636db794371461025f57600080fd5b806307140b341461017e57806309f6442c146101a75780630dca59c1146101be5780630eb26499146101c75780631e9a6950146101dc5780631f80b95a146101ef575b600080fd5b600054610191906001600160a01b031681565b60405161019e91906111db565b60405180910390f35b6101b060065481565b60405190815260200161019e565b6101b060045481565b6101da6101d53660046111ef565b610345565b005b6101da6101ea36600461122d565b61035b565b6101b06101fd366004611257565b610525565b6101da610210366004611270565b6105b3565b6101b06106a1565b6101b060035481565b6101da61023436600461122d565b61071b565b6101da6102473660046112eb565b61091a565b6101b061025a366004611257565b61092e565b6101da61026d3660046111ef565b61094b565b6101da61095d565b6101da610971565b610191610ab4565b6101b060025481565b6101b060055481565b6101b06102aa366004611257565b610ae2565b6101da610b19565b6101b07f000000000000000000000000000000000000000000000000000000000000000081565b600154610191906001600160a01b031681565b6101b06102ff3660046111ef565b610b44565b600754610191906001600160a01b031681565b6101b0610b95565b6101da61032d3660046112eb565b610c1d565b6101b06103403660046111ef565b610c58565b61034d610c85565b6103578282610cb7565b5050565b610363610d0f565b600061037182600654610c58565b90508060000361039457604051633fad6f3960e11b815260040160405180910390fd5b816000036103b557604051633fad6f3960e11b815260040160405180910390fd5b6000546040516323b872dd60e01b81526001600160a01b03909116906323b872dd906103e990339030908790600401611306565b6020604051808303816000875af1158015610408573d6000803e3d6000fd5b505050506040513d601f19601f8201168201806040525081019061042c919061132a565b50600054604051632770a7eb60e21b81526001600160a01b0390911690639dc29fac9061045f903090869060040161134c565b600060405180830381600087803b15801561047957600080fd5b505af115801561048d573d6000803e3d6000fd5b50506001546104a992506001600160a01b031690508483610d47565b81600460008282546104bb919061137b565b925050819055508082846001600160a01b03167f936e31ed75b936652e58e831fe69a161b06bc628b8b02e9dc63bc89fe578a6e1600454600254336040516105059392919061138e565b60405180910390a450610357600160008051602061144283398151915255565b600061052f6106a1565b60055461055c907f00000000000000000000000000000000000000000000000000000000000000006113ad565b7f000000000000000000000000000000000000000000000000000000000000000061058f85670de0b6b3a76400006113c0565b61059991906113c0565b6105a391906113d7565b6105ad91906113d7565b92915050565b7ff0c57e16840df040f15088dc2f81fe391c3923bec73e23a9662efc9c229c6a00805460029190600160401b900460ff16806105fd5750805467ffffffffffffffff808416911610155b1561061b5760405163f92ee8a960e01b815260040160405180910390fd5b805468ffffffffffffffffff191667ffffffffffffffff831617600160401b17815561064d8a8a8a8a8a8a8a8a610db3565b805460ff60401b1916815560405167ffffffffffffffff831681527fc7f505b2f371ae2175ee4913f4499e1f2633a7b5936321eed1cdaeb6115181d29060200160405180910390a150505050505050505050565b60015460405163b3d7f6b960e01b8152670de0b6b3a764000060048201526000916001600160a01b03169063b3d7f6b990602401602060405180830381865afa1580156106f2573d6000803e3d6000fd5b505050506040513d601f19601f8201168201806040525081019061071691906113f9565b905090565b610723610d0f565b600061073182600554610b44565b90508060000361075457604051633fad6f3960e11b815260040160405180910390fd5b8160000361077557604051633fad6f3960e11b815260040160405180910390fd5b6002546001546040516370a0823160e01b815283916001600160a01b0316906370a08231906107a89030906004016111db565b602060405180830381865afa1580156107c5573d6000803e3d6000fd5b505050506040513d601f19601f820116820180604052508101906107e991906113f9565b6107f391906113ad565b1115610812576040516354db2d5d60e11b815260040160405180910390fd5b6003548260045461082391906113ad565b111561084257604051633b60212960e01b815260040160405180910390fd5b60015461085a906001600160a01b0316333084610e97565b6000546040516340c10f1960e01b81526001600160a01b03909116906340c10f199061088c908690869060040161134c565b600060405180830381600087803b1580156108a657600080fd5b505af11580156108ba573d6000803e3d6000fd5b5050505081600460008282546108d091906113ad565b925050819055508082846001600160a01b03167f265ee4cff6cdf714e68c02e61a7864cf66bc04e372a41b6cc425acbb737cd395600454600254336040516105059392919061138e565b610922610c85565b61092b81610ec5565b50565b6000670de0b6b3a76400006109416106a1565b6105a390846113c0565b610953610c85565b6103578282610f25565b610965610c85565b61096f6000610f6f565b565b6001546040516370a0823160e01b81526000916001600160a01b0316906370a08231906109a29030906004016111db565b602060405180830381865afa1580156109bf573d6000803e3d6000fd5b505050506040513d601f19601f820116820180604052508101906109e391906113f9565b90506000670de0b6b3a76400006109f86106a1565b610a0290846113c0565b610a0c91906113d7565b9050600454811015610a5c5760405162461bcd60e51b81526020600482015260146024820152733737903cb4b2b632103a37903a3930b739b332b960611b60448201526064015b60405180910390fd5b6000610a666106a1565b600454610a73908461137b565b610a8590670de0b6b3a76400006113c0565b610a8f91906113d7565b600754600154919250610aaf916001600160a01b03908116911683610d47565b505050565b7f9016d09d72d40fdae2fd8ceac6b6234c7706214fd39c1cd1e609a0528c199300546001600160a01b031690565b6000610aec6106a1565b60065461055c907f000000000000000000000000000000000000000000000000000000000000000061137b565b60075461096f906001600160a01b0316610b31610b95565b6001546001600160a01b03169190610d47565b60007f0000000000000000000000000000000000000000000000000000000000000000610b7183826113ad565b610b7a8561092e565b610b8491906113c0565b610b8e91906113d7565b9392505050565b6000610ba260045461092e565b6001546040516370a0823160e01b81526001600160a01b03909116906370a0823190610bd29030906004016111db565b602060405180830381865afa158015610bef573d6000803e3d6000fd5b505050506040513d601f19601f82011682018060405250810190610c1391906113f9565b610716919061137b565b610c25610c85565b6001600160a01b038116610c4f576000604051631e4fbdf760e01b8152600401610a5391906111db565b61092b81610f6f565b60007f0000000000000000000000000000000000000000000000000000000000000000610b71838261137b565b33610c8e610ab4565b6001600160a01b03161461096f573360405163118cdaa760e01b8152600401610a5391906111db565b600280546003805492859055839055604051909190839085907fae75d5c2e3024e6e661c4709fec706270aa58d8eb07547e3d6fc4ba44b76ab2390610d019086908690339061138e565b60405180910390a350505050565b600080516020611442833981519152805460011901610d4157604051633ee5aeb560e01b815260040160405180910390fd5b60029055565b610aaf83846001600160a01b031663a9059cbb8585604051602401610d6d92919061134c565b604051602081830303815290604052915060e01b6020820180516001600160e01b038381831617835250505050610fe0565b600160008051602061144283398151915255565b600080546001600160a01b03808b166001600160a01b0319928316811790935560018054918b16919092161790551580610df457506001600160a01b038716155b80610e0657506001600160a01b038616155b80610e1857506001600160a01b038116155b15610e36576040516366385fa360e01b815260040160405180910390fd5b841580610e41575083155b15610e5f57604051633fad6f3960e11b815260040160405180910390fd5b610e688661103a565b610e7061104b565b610e7a8383610f25565b610e848585610cb7565b610e8d81610ec5565b5050505050505050565b610ebf84856001600160a01b03166323b872dd868686604051602401610d6d93929190611306565b50505050565b600780546001600160a01b038381166001600160a01b03198316811790935560405191169182917f77152a8590285dd4dae2386ed85a5514f2a5fd13ae6969df03169aea7ebb88a890610f199033906111db565b60405180910390a35050565b600580546006805492859055839055604051909190839085907f040ad6c94afb3c31033baf750e5271ef1190b75380494159c0be334e92c069c790610d019086908690339061138e565b7f9016d09d72d40fdae2fd8ceac6b6234c7706214fd39c1cd1e609a0528c19930080546001600160a01b031981166001600160a01b03848116918217845560405192169182907f8be0079c531659141344cd1fd0a4f28419497f9722a3daafe3b4186f6b6457e090600090a3505050565b6000610ff56001600160a01b0384168361105b565b9050805160001415801561101a575080806020019051810190611018919061132a565b155b15610aaf5782604051635274afe760e01b8152600401610a5391906111db565b611042611069565b61092b816110b2565b611053611069565b61096f6110ba565b6060610b8e838360006110c2565b7ff0c57e16840df040f15088dc2f81fe391c3923bec73e23a9662efc9c229c6a0054600160401b900460ff1661096f57604051631afcd79f60e31b815260040160405180910390fd5b610c25611069565b610d9f611069565b6060814710156110e7573060405163cd78605960e01b8152600401610a5391906111db565b600080856001600160a01b031684866040516111039190611412565b60006040518083038185875af1925050503d8060008114611140576040519150601f19603f3d011682016040523d82523d6000602084013e611145565b606091505b509150915061115586838361115f565b9695505050505050565b6060826111745761116f826111b2565b610b8e565b815115801561118b57506001600160a01b0384163b155b156111ab5783604051639996b31560e01b8152600401610a5391906111db565b5080610b8e565b8051156111c25780518082602001fd5b604051630a12f52160e11b815260040160405180910390fd5b6001600160a01b0391909116815260200190565b6000806040838503121561120257600080fd5b50508035926020909101359150565b80356001600160a01b038116811461122857600080fd5b919050565b6000806040838503121561124057600080fd5b61124983611211565b946020939093013593505050565b60006020828403121561126957600080fd5b5035919050565b600080600080600080600080610100898b03121561128d57600080fd5b61129689611211565b97506112a460208a01611211565b96506112b260408a01611211565b9550606089013594506080890135935060a0890135925060c089013591506112dc60e08a01611211565b90509295985092959890939650565b6000602082840312156112fd57600080fd5b610b8e82611211565b6001600160a01b039384168152919092166020820152604081019190915260600190565b60006020828403121561133c57600080fd5b81518015158114610b8e57600080fd5b6001600160a01b03929092168252602082015260400190565b634e487b7160e01b600052601160045260246000fd5b818103818111156105ad576105ad611365565b92835260208301919091526001600160a01b0316604082015260600190565b808201808211156105ad576105ad611365565b80820281158282048414176105ad576105ad611365565b6000826113f457634e487b7160e01b600052601260045260246000fd5b500490565b60006020828403121561140b57600080fd5b5051919050565b6000825160005b818110156114335760208186018101518583015201611419565b50600092019182525091905056fe9b779b17422d0df92223018b32b4d1fa46e071723d6817e2486d003becc55f00a2646970667358221220aa68cd15e4701040daa89b41f1805ef72e06aacdeab210d63f0fc918f4bafb9664736f6c63430008150033",
  "devdoc": {
    "errors": {
      "AddressEmptyCode(address)": [
        {
          "details": "There's no code at `target` (it is not a contract)."
        }
      ],
      "AddressInsufficientBalance(address)": [
        {
          "details": "The ETH balance of the account is not enough to perform the operation."
        }
      ],
      "FailedInnerCall()": [
        {
          "details": "A call to an address target failed. The target may have reverted."
        }
      ],
      "InvalidInitialization()": [
        {
          "details": "The contract is already initialized."
        }
      ],
      "NotInitializing()": [
        {
          "details": "The contract is not initializing."
        }
      ],
      "OwnableInvalidOwner(address)": [
        {
          "details": "The owner is not a valid owner account. (eg. `address(0)`)"
        }
      ],
      "OwnableUnauthorizedAccount(address)": [
        {
          "details": "The caller account is not authorized to perform an operation."
        }
      ],
      "ReentrancyGuardReentrantCall()": [
        {
          "details": "Unauthorized reentrant call."
        }
      ],
      "SafeERC20FailedOperation(address)": [
        {
          "details": "An operation with an ERC20 token failed."
        }
      ]
    },
    "events": {
      "FeeDestinationUpdated(address,address,address)": {
        "params": {
          "_newFeeDestination": "The new fee destination",
          "_oldFeeDestination": "The old fee destination",
          "sender": "The address that called the update function"
        }
      },
      "FeesUpdated(uint256,uint256,uint256,uint256,address)": {
        "params": {
          "_newMintFeeBps": "The new mint fee",
          "_newRedeemFeeBps": "The new redeem fee",
          "_oldMintFeeBps": "The old mint fee",
          "_oldRedeemFeeBps": "The old redeem fee",
          "sender": "The address that called the update function"
        }
      },
      "Initialized(uint64)": {
        "details": "Triggered when the contract has been initialized or reinitialized."
      },
      "Mint(address,uint256,uint256,uint256,uint256,address)": {
        "params": {
          "amount": "The amount of collateral taken",
          "destination": "Where the minted ZAI will be sent",
          "newDebt": "The current new debt of the PSM module",
          "sender": "The address that called the mint function",
          "shares": "The amount of ZAI minted",
          "supplyCap": "The current supply cap of the PSM module"
        }
      },
      "Redeem(address,uint256,uint256,uint256,uint256,address)": {
        "params": {
          "amount": "The amount of collateral taken out",
          "destination": "Where the collateral will be sent",
          "newDebt": "The current new debt of the PSM module",
          "sender": "The address that called the redeem function",
          "shares": "The amount of ZAI burnt",
          "supplyCap": "The current supply cap of the PSM module"
        }
      },
      "SupplyCapUpdated(uint256,uint256,uint256,uint256,address)": {
        "params": {
          "_newDebtCap": "The new debt cap",
          "_newSupplyCap": "The new supply cap",
          "_oldDebtCap": "The old debt cap",
          "_oldSupplyCap": "The old supply cap",
          "sender": "The address that called the update function"
        }
      }
    },
    "kind": "dev",
    "methods": {
      "feesCollected()": {
        "returns": {
          "_0": "The amount of fees collected in ZAI"
        }
      },
      "mint(address,uint256)": {
        "details": "This contract calculates how much collateral should be taken",
        "params": {
          "destination": "Where the minted ZAI will be sent",
          "shares": "The amount of zai to mint"
        }
      },
      "mintAmountIn(uint256)": {
        "params": {
          "amountAssetsIn": "The amount of collateral"
        }
      },
      "owner()": {
        "details": "Returns the address of the current owner."
      },
      "rate()": {
        "details": "Uses total assets and total supply from the collateral to compute the ratio.",
        "returns": {
          "_0": "The asset value per share in 18 decimal precision."
        }
      },
      "redeem(address,uint256)": {
        "details": "This contract calculates how much collateral should be given",
        "params": {
          "destination": "Where the collateral will be sent",
          "shares": "The amount of zai to redeem"
        }
      },
      "redeemAmountOut(uint256)": {
        "params": {
          "amountAssetsOut": "The amount of collateral"
        }
      },
      "renounceOwnership()": {
        "details": "Leaves the contract without owner. It will not be possible to call `onlyOwner` functions. Can only be called by the current owner. NOTE: Renouncing ownership will leave the contract without an owner, thereby disabling any functionality that is only available to the owner."
      },
      "toCollateralAmount(uint256)": {
        "params": {
          "_amount": "The amount of ZAI"
        },
        "returns": {
          "_0": "The amount of collateral"
        }
      },
      "toCollateralAmountWithFee(uint256,uint256)": {
        "details": "Fee is calculated as (amount * (MAX_FEE_BPS + fee)) / MAX_FEE_BPS",
        "params": {
          "_amount": "The amount of ZAI",
          "_fee": "The fee to be charged in BPS"
        }
      },
      "toCollateralAmountWithFeeInverse(uint256,uint256)": {
        "details": "Fee is calculated as (amount * (MAX_FEE_BPS - fee)) / MAX_FEE_BPS",
        "params": {
          "_amount": "The amount of ZAI",
          "_fee": "The fee to be charged in BPS"
        }
      },
      "transferOwnership(address)": {
        "details": "Transfers ownership of the contract to a new account (`newOwner`). Can only be called by the current owner."
      },
      "transferYieldToFeeDistributor()": {
        "details": "Computes yield based on the collateral balance and transfers it to the fee distributor if      the current value of collateral exceeds the outstanding debt.      Uses `safeTransfer` to ensure secure transfer of assets."
      },
      "updateCaps(uint256,uint256)": {
        "details": "Only callable by the admin",
        "params": {
          "_debtCap": "How much debt can be held",
          "_supplyCap": "How much collateral can be taken"
        }
      },
      "updateFeeDestination(address)": {
        "details": "Only callable by the admin",
        "params": {
          "_feeDestination": "The new fee destination"
        }
      },
      "updateFees(uint256,uint256)": {
        "params": {
          "_mintFeeBps": "The new mint fee in BPS",
          "_redeemFeeBps": "The new redeem fee in BPS"
        }
      }
    },
    "version": 1
  },
  "userdoc": {
    "errors": {
      "DebtCapReached()": [
        {
          "notice": "Error when debt cap is reached"
        }
      ],
      "NotZeroAddress()": [
        {
          "notice": "Error when address is not set"
        }
      ],
      "NotZeroValue()": [
        {
          "notice": "Error when value is zero"
        }
      ],
      "SupplyCapReached()": [
        {
          "notice": "Error when supply cap is reached"
        }
      ]
    },
    "events": {
      "FeeDestinationUpdated(address,address,address)": {
        "notice": "Emitted when the fee destination is updated"
      },
      "FeesUpdated(uint256,uint256,uint256,uint256,address)": {
        "notice": "Emitted when the fees are updated"
      },
      "Mint(address,uint256,uint256,uint256,uint256,address)": {
        "notice": "Emitted when a user mints ZAI"
      },
      "Redeem(address,uint256,uint256,uint256,uint256,address)": {
        "notice": "Emitted when a user redeems ZAI"
      },
      "SupplyCapUpdated(uint256,uint256,uint256,uint256,address)": {
        "notice": "Emitted when the supply cap is updated"
      }
    },
    "kind": "user",
    "methods": {
      "MAX_FEE_BPS()": {
        "notice": "The maximum fee that can be charged"
      },
      "collateral()": {
        "notice": "Returns the collateral token"
      },
      "debt()": {
        "notice": "Returns the current debt held in this vault"
      },
      "debtCap()": {
        "notice": "Returns the debt cap"
      },
      "feeDestination()": {
        "notice": "The address where fees are sent"
      },
      "feesCollected()": {
        "notice": "How much fees has been collected by the protocol"
      },
      "mint(address,uint256)": {
        "notice": "Mints ZAI with collateral"
      },
      "mintAmountIn(uint256)": {
        "notice": "Calculates how much ZAI should be minted for a given amount of collateral"
      },
      "mintFeeBps()": {
        "notice": "The mint fee in BPS"
      },
      "rate()": {
        "notice": "Calculates the value of assets per share in the collateral pool."
      },
      "redeem(address,uint256)": {
        "notice": "Redeems ZAI for collateral"
      },
      "redeemAmountOut(uint256)": {
        "notice": "Calculates how much ZAI should be redeemed for a given amount of collateral"
      },
      "redeemFeeBps()": {
        "notice": "The redeem fee in BPS"
      },
      "supplyCap()": {
        "notice": "Returns the supply cap"
      },
      "toCollateralAmount(uint256)": {
        "notice": "Converts ZAI amount to collateral"
      },
      "toCollateralAmountWithFee(uint256,uint256)": {
        "notice": "Converts ZAI amount to collateral with fee added"
      },
      "toCollateralAmountWithFeeInverse(uint256,uint256)": {
        "notice": "Converts ZAI amount to collateral with fee removed"
      },
      "transferYieldToFeeDistributor()": {
        "notice": "Transfers yield from the collateral to the fee distributor if yield exceeds debt."
      },
      "updateCaps(uint256,uint256)": {
        "notice": "Updates the supply and debt caps"
      },
      "updateFeeDestination(address)": {
        "notice": "Updates the fee destination"
      },
      "updateFees(uint256,uint256)": {
        "notice": "Updates the mint and redeem fees"
      },
      "zai()": {
        "notice": "Returns the Zai stablecoin"
      }
    },
    "version": 1
  },
  "storageLayout": {
    "storage": [
      {
        "astId": 27983,
        "contract": "contracts/core/psm/PegStabilityModuleYield.sol:PegStabilityModuleYield",
        "label": "zai",
        "offset": 0,
        "slot": "0",
        "type": "t_contract(IStablecoin)34863"
      },
      {
        "astId": 27987,
        "contract": "contracts/core/psm/PegStabilityModuleYield.sol:PegStabilityModuleYield",
        "label": "collateral",
        "offset": 0,
        "slot": "1",
        "type": "t_contract(IERC20)15836"
      },
      {
        "astId": 27990,
        "contract": "contracts/core/psm/PegStabilityModuleYield.sol:PegStabilityModuleYield",
        "label": "supplyCap",
        "offset": 0,
        "slot": "2",
        "type": "t_uint256"
      },
      {
        "astId": 27993,
        "contract": "contracts/core/psm/PegStabilityModuleYield.sol:PegStabilityModuleYield",
        "label": "debtCap",
        "offset": 0,
        "slot": "3",
        "type": "t_uint256"
      },
      {
        "astId": 27996,
        "contract": "contracts/core/psm/PegStabilityModuleYield.sol:PegStabilityModuleYield",
        "label": "debt",
        "offset": 0,
        "slot": "4",
        "type": "t_uint256"
      },
      {
        "astId": 27999,
        "contract": "contracts/core/psm/PegStabilityModuleYield.sol:PegStabilityModuleYield",
        "label": "mintFeeBps",
        "offset": 0,
        "slot": "5",
        "type": "t_uint256"
      },
      {
        "astId": 28002,
        "contract": "contracts/core/psm/PegStabilityModuleYield.sol:PegStabilityModuleYield",
        "label": "redeemFeeBps",
        "offset": 0,
        "slot": "6",
        "type": "t_uint256"
      },
      {
        "astId": 28005,
        "contract": "contracts/core/psm/PegStabilityModuleYield.sol:PegStabilityModuleYield",
        "label": "feeDestination",
        "offset": 0,
        "slot": "7",
        "type": "t_address"
      }
    ],
    "types": {
      "t_address": {
        "encoding": "inplace",
        "label": "address",
        "numberOfBytes": "20"
      },
      "t_contract(IERC20)15836": {
        "encoding": "inplace",
        "label": "contract IERC20",
        "numberOfBytes": "20"
      },
      "t_contract(IStablecoin)34863": {
        "encoding": "inplace",
        "label": "contract IStablecoin",
        "numberOfBytes": "20"
      },
      "t_uint256": {
        "encoding": "inplace",
        "label": "uint256",
        "numberOfBytes": "32"
      }
    }
  }
}