{
  "address": "0x039f8c5F7fC2ce8f0235F46c1189E75dB52E3919",
  "abi": [
    {
      "inputs": [],
      "name": "AccessControlBadConfirmation",
      "type": "error"
    },
    {
      "inputs": [
        {
          "internalType": "address",
          "name": "account",
          "type": "address"
        },
        {
          "internalType": "bytes32",
          "name": "neededRole",
          "type": "bytes32"
        }
      ],
      "name": "AccessControlUnauthorizedAccount",
      "type": "error"
    },
    {
      "inputs": [
        {
          "internalType": "address",
          "name": "target",
          "type": "address"
        }
      ],
      "name": "AddressEmptyCode",
      "type": "error"
    },
    {
      "inputs": [
        {
          "internalType": "address",
          "name": "account",
          "type": "address"
        }
      ],
      "name": "AddressInsufficientBalance",
      "type": "error"
    },
    {
      "inputs": [
        {
          "internalType": "address",
          "name": "spender",
          "type": "address"
        },
        {
          "internalType": "uint256",
          "name": "allowance",
          "type": "uint256"
        },
        {
          "internalType": "uint256",
          "name": "needed",
          "type": "uint256"
        }
      ],
      "name": "ERC20InsufficientAllowance",
      "type": "error"
    },
    {
      "inputs": [
        {
          "internalType": "address",
          "name": "sender",
          "type": "address"
        },
        {
          "internalType": "uint256",
          "name": "balance",
          "type": "uint256"
        },
        {
          "internalType": "uint256",
          "name": "needed",
          "type": "uint256"
        }
      ],
      "name": "ERC20InsufficientBalance",
      "type": "error"
    },
    {
      "inputs": [
        {
          "internalType": "address",
          "name": "approver",
          "type": "address"
        }
      ],
      "name": "ERC20InvalidApprover",
      "type": "error"
    },
    {
      "inputs": [
        {
          "internalType": "address",
          "name": "receiver",
          "type": "address"
        }
      ],
      "name": "ERC20InvalidReceiver",
      "type": "error"
    },
    {
      "inputs": [
        {
          "internalType": "address",
          "name": "sender",
          "type": "address"
        }
      ],
      "name": "ERC20InvalidSender",
      "type": "error"
    },
    {
      "inputs": [
        {
          "internalType": "address",
          "name": "spender",
          "type": "address"
        }
      ],
      "name": "ERC20InvalidSpender",
      "type": "error"
    },
    {
      "inputs": [
        {
          "internalType": "address",
          "name": "receiver",
          "type": "address"
        },
        {
          "internalType": "uint256",
          "name": "assets",
          "type": "uint256"
        },
        {
          "internalType": "uint256",
          "name": "max",
          "type": "uint256"
        }
      ],
      "name": "ERC4626ExceededMaxDeposit",
      "type": "error"
    },
    {
      "inputs": [
        {
          "internalType": "address",
          "name": "receiver",
          "type": "address"
        },
        {
          "internalType": "uint256",
          "name": "shares",
          "type": "uint256"
        },
        {
          "internalType": "uint256",
          "name": "max",
          "type": "uint256"
        }
      ],
      "name": "ERC4626ExceededMaxMint",
      "type": "error"
    },
    {
      "inputs": [
        {
          "internalType": "address",
          "name": "owner",
          "type": "address"
        },
        {
          "internalType": "uint256",
          "name": "shares",
          "type": "uint256"
        },
        {
          "internalType": "uint256",
          "name": "max",
          "type": "uint256"
        }
      ],
      "name": "ERC4626ExceededMaxRedeem",
      "type": "error"
    },
    {
      "inputs": [
        {
          "internalType": "address",
          "name": "owner",
          "type": "address"
        },
        {
          "internalType": "uint256",
          "name": "assets",
          "type": "uint256"
        },
        {
          "internalType": "uint256",
          "name": "max",
          "type": "uint256"
        }
      ],
      "name": "ERC4626ExceededMaxWithdraw",
      "type": "error"
    },
    {
      "inputs": [],
      "name": "FailedInnerCall",
      "type": "error"
    },
    {
      "inputs": [],
      "name": "InvalidInitialization",
      "type": "error"
    },
    {
      "inputs": [],
      "name": "MathOverflowedMulDiv",
      "type": "error"
    },
    {
      "inputs": [],
      "name": "NotInitializing",
      "type": "error"
    },
    {
      "inputs": [],
      "name": "ReentrancyGuardReentrantCall",
      "type": "error"
    },
    {
      "inputs": [
        {
          "internalType": "address",
          "name": "token",
          "type": "address"
        }
      ],
      "name": "SafeERC20FailedOperation",
      "type": "error"
    },
    {
      "anonymous": false,
      "inputs": [
        {
          "indexed": true,
          "internalType": "address",
          "name": "owner",
          "type": "address"
        },
        {
          "indexed": true,
          "internalType": "address",
          "name": "spender",
          "type": "address"
        },
        {
          "indexed": false,
          "internalType": "uint256",
          "name": "value",
          "type": "uint256"
        }
      ],
      "name": "Approval",
      "type": "event"
    },
    {
      "anonymous": false,
      "inputs": [
        {
          "indexed": true,
          "internalType": "address",
          "name": "sender",
          "type": "address"
        },
        {
          "indexed": true,
          "internalType": "address",
          "name": "owner",
          "type": "address"
        },
        {
          "indexed": false,
          "internalType": "uint256",
          "name": "assets",
          "type": "uint256"
        },
        {
          "indexed": false,
          "internalType": "uint256",
          "name": "shares",
          "type": "uint256"
        }
      ],
      "name": "Deposit",
      "type": "event"
    },
    {
      "anonymous": false,
      "inputs": [
        {
          "indexed": false,
          "internalType": "uint64",
          "name": "version",
          "type": "uint64"
        }
      ],
      "name": "Initialized",
      "type": "event"
    },
    {
      "anonymous": false,
      "inputs": [
        {
          "indexed": true,
          "internalType": "contract IERC20",
          "name": "reward",
          "type": "address"
        },
        {
          "indexed": true,
          "internalType": "uint256",
          "name": "amount",
          "type": "uint256"
        },
        {
          "indexed": false,
          "internalType": "address",
          "name": "caller",
          "type": "address"
        }
      ],
      "name": "RewardAdded",
      "type": "event"
    },
    {
      "anonymous": false,
      "inputs": [
        {
          "indexed": true,
          "internalType": "contract IERC20",
          "name": "reward",
          "type": "address"
        },
        {
          "indexed": true,
          "internalType": "uint256",
          "name": "amount",
          "type": "uint256"
        },
        {
          "indexed": true,
          "internalType": "address",
          "name": "who",
          "type": "address"
        },
        {
          "indexed": false,
          "internalType": "address",
          "name": "caller",
          "type": "address"
        }
      ],
      "name": "RewardClaimed",
      "type": "event"
    },
    {
      "anonymous": false,
      "inputs": [
        {
          "indexed": true,
          "internalType": "bytes32",
          "name": "role",
          "type": "bytes32"
        },
        {
          "indexed": true,
          "internalType": "bytes32",
          "name": "previousAdminRole",
          "type": "bytes32"
        },
        {
          "indexed": true,
          "internalType": "bytes32",
          "name": "newAdminRole",
          "type": "bytes32"
        }
      ],
      "name": "RoleAdminChanged",
      "type": "event"
    },
    {
      "anonymous": false,
      "inputs": [
        {
          "indexed": true,
          "internalType": "bytes32",
          "name": "role",
          "type": "bytes32"
        },
        {
          "indexed": true,
          "internalType": "address",
          "name": "account",
          "type": "address"
        },
        {
          "indexed": true,
          "internalType": "address",
          "name": "sender",
          "type": "address"
        }
      ],
      "name": "RoleGranted",
      "type": "event"
    },
    {
      "anonymous": false,
      "inputs": [
        {
          "indexed": true,
          "internalType": "bytes32",
          "name": "role",
          "type": "bytes32"
        },
        {
          "indexed": true,
          "internalType": "address",
          "name": "account",
          "type": "address"
        },
        {
          "indexed": true,
          "internalType": "address",
          "name": "sender",
          "type": "address"
        }
      ],
      "name": "RoleRevoked",
      "type": "event"
    },
    {
      "anonymous": false,
      "inputs": [
        {
          "indexed": true,
          "internalType": "address",
          "name": "from",
          "type": "address"
        },
        {
          "indexed": true,
          "internalType": "address",
          "name": "to",
          "type": "address"
        },
        {
          "indexed": false,
          "internalType": "uint256",
          "name": "value",
          "type": "uint256"
        }
      ],
      "name": "Transfer",
      "type": "event"
    },
    {
      "anonymous": false,
      "inputs": [
        {
          "indexed": true,
          "internalType": "address",
          "name": "account",
          "type": "address"
        },
        {
          "indexed": false,
          "internalType": "uint256",
          "name": "boostedBalance",
          "type": "uint256"
        },
        {
          "indexed": false,
          "internalType": "uint256",
          "name": "boostedTotalSupply",
          "type": "uint256"
        }
      ],
      "name": "UpdatedBoost",
      "type": "event"
    },
    {
      "anonymous": false,
      "inputs": [
        {
          "indexed": true,
          "internalType": "address",
          "name": "sender",
          "type": "address"
        },
        {
          "indexed": true,
          "internalType": "address",
          "name": "receiver",
          "type": "address"
        },
        {
          "indexed": true,
          "internalType": "address",
          "name": "owner",
          "type": "address"
        },
        {
          "indexed": false,
          "internalType": "uint256",
          "name": "assets",
          "type": "uint256"
        },
        {
          "indexed": false,
          "internalType": "uint256",
          "name": "shares",
          "type": "uint256"
        }
      ],
      "name": "Withdraw",
      "type": "event"
    },
    {
      "inputs": [],
      "name": "DEFAULT_ADMIN_ROLE",
      "outputs": [
        {
          "internalType": "bytes32",
          "name": "",
          "type": "bytes32"
        }
      ],
      "stateMutability": "view",
      "type": "function"
    },
    {
      "inputs": [],
      "name": "DISTRIBUTOR_ROLE",
      "outputs": [
        {
          "internalType": "bytes32",
          "name": "",
          "type": "bytes32"
        }
      ],
      "stateMutability": "view",
      "type": "function"
    },
    {
      "inputs": [
        {
          "internalType": "address",
          "name": "owner",
          "type": "address"
        },
        {
          "internalType": "address",
          "name": "spender",
          "type": "address"
        }
      ],
      "name": "allowance",
      "outputs": [
        {
          "internalType": "uint256",
          "name": "",
          "type": "uint256"
        }
      ],
      "stateMutability": "view",
      "type": "function"
    },
    {
      "inputs": [
        {
          "internalType": "address",
          "name": "spender",
          "type": "address"
        },
        {
          "internalType": "uint256",
          "name": "value",
          "type": "uint256"
        }
      ],
      "name": "approve",
      "outputs": [
        {
          "internalType": "bool",
          "name": "",
          "type": "bool"
        }
      ],
      "stateMutability": "nonpayable",
      "type": "function"
    },
    {
      "inputs": [
        {
          "internalType": "uint256",
          "name": "val",
          "type": "uint256"
        },
        {
          "internalType": "uint256",
          "name": "deadline",
          "type": "uint256"
        },
        {
          "internalType": "uint8",
          "name": "v",
          "type": "uint8"
        },
        {
          "internalType": "bytes32",
          "name": "r",
          "type": "bytes32"
        },
        {
          "internalType": "bytes32",
          "name": "s",
          "type": "bytes32"
        }
      ],
      "name": "approveUnderlyingWithPermit",
      "outputs": [],
      "stateMutability": "nonpayable",
      "type": "function"
    },
    {
      "inputs": [],
      "name": "asset",
      "outputs": [
        {
          "internalType": "address",
          "name": "",
          "type": "address"
        }
      ],
      "stateMutability": "view",
      "type": "function"
    },
    {
      "inputs": [
        {
          "internalType": "address",
          "name": "account",
          "type": "address"
        }
      ],
      "name": "balanceOf",
      "outputs": [
        {
          "internalType": "uint256",
          "name": "",
          "type": "uint256"
        }
      ],
      "stateMutability": "view",
      "type": "function"
    },
    {
      "inputs": [
        {
          "internalType": "address",
          "name": "who",
          "type": "address"
        }
      ],
      "name": "boostedBalance",
      "outputs": [
        {
          "internalType": "uint256",
          "name": "boostedBalance_",
          "type": "uint256"
        }
      ],
      "stateMutability": "view",
      "type": "function"
    },
    {
      "inputs": [
        {
          "internalType": "uint256",
          "name": "shares",
          "type": "uint256"
        }
      ],
      "name": "convertToAssets",
      "outputs": [
        {
          "internalType": "uint256",
          "name": "",
          "type": "uint256"
        }
      ],
      "stateMutability": "view",
      "type": "function"
    },
    {
      "inputs": [
        {
          "internalType": "uint256",
          "name": "assets",
          "type": "uint256"
        }
      ],
      "name": "convertToShares",
      "outputs": [
        {
          "internalType": "uint256",
          "name": "",
          "type": "uint256"
        }
      ],
      "stateMutability": "view",
      "type": "function"
    },
    {
      "inputs": [],
      "name": "decimals",
      "outputs": [
        {
          "internalType": "uint8",
          "name": "",
          "type": "uint8"
        }
      ],
      "stateMutability": "view",
      "type": "function"
    },
    {
      "inputs": [
        {
          "internalType": "uint256",
          "name": "assets",
          "type": "uint256"
        },
        {
          "internalType": "address",
          "name": "receiver",
          "type": "address"
        }
      ],
      "name": "deposit",
      "outputs": [
        {
          "internalType": "uint256",
          "name": "",
          "type": "uint256"
        }
      ],
      "stateMutability": "nonpayable",
      "type": "function"
    },
    {
      "inputs": [
        {
          "internalType": "contract IERC20",
          "name": "token",
          "type": "address"
        },
        {
          "internalType": "address",
          "name": "account",
          "type": "address"
        }
      ],
      "name": "earned",
      "outputs": [
        {
          "internalType": "uint256",
          "name": "",
          "type": "uint256"
        }
      ],
      "stateMutability": "view",
      "type": "function"
    },
    {
      "inputs": [
        {
          "internalType": "address",
          "name": "who",
          "type": "address"
        },
        {
          "internalType": "contract IERC20",
          "name": "token",
          "type": "address"
        }
      ],
      "name": "getReward",
      "outputs": [],
      "stateMutability": "nonpayable",
      "type": "function"
    },
    {
      "inputs": [
        {
          "internalType": "address",
          "name": "who",
          "type": "address"
        }
      ],
      "name": "getRewardDual",
      "outputs": [],
      "stateMutability": "nonpayable",
      "type": "function"
    },
    {
      "inputs": [
        {
          "internalType": "bytes32",
          "name": "role",
          "type": "bytes32"
        }
      ],
      "name": "getRoleAdmin",
      "outputs": [
        {
          "internalType": "bytes32",
          "name": "",
          "type": "bytes32"
        }
      ],
      "stateMutability": "view",
      "type": "function"
    },
    {
      "inputs": [
        {
          "internalType": "bytes32",
          "name": "role",
          "type": "bytes32"
        },
        {
          "internalType": "uint256",
          "name": "index",
          "type": "uint256"
        }
      ],
      "name": "getRoleMember",
      "outputs": [
        {
          "internalType": "address",
          "name": "",
          "type": "address"
        }
      ],
      "stateMutability": "view",
      "type": "function"
    },
    {
      "inputs": [
        {
          "internalType": "bytes32",
          "name": "role",
          "type": "bytes32"
        }
      ],
      "name": "getRoleMemberCount",
      "outputs": [
        {
          "internalType": "uint256",
          "name": "",
          "type": "uint256"
        }
      ],
      "stateMutability": "view",
      "type": "function"
    },
    {
      "inputs": [
        {
          "internalType": "bytes32",
          "name": "role",
          "type": "bytes32"
        },
        {
          "internalType": "address",
          "name": "account",
          "type": "address"
        }
      ],
      "name": "grantRole",
      "outputs": [],
      "stateMutability": "nonpayable",
      "type": "function"
    },
    {
      "inputs": [
        {
          "internalType": "bytes32",
          "name": "role",
          "type": "bytes32"
        },
        {
          "internalType": "address",
          "name": "account",
          "type": "address"
        }
      ],
      "name": "hasRole",
      "outputs": [
        {
          "internalType": "bool",
          "name": "",
          "type": "bool"
        }
      ],
      "stateMutability": "view",
      "type": "function"
    },
    {
      "inputs": [
        {
          "internalType": "string",
          "name": "_name",
          "type": "string"
        },
        {
          "internalType": "string",
          "name": "_symbol",
          "type": "string"
        },
        {
          "internalType": "address",
          "name": "_stakingToken",
          "type": "address"
        },
        {
          "internalType": "address",
          "name": "_governance",
          "type": "address"
        },
        {
          "internalType": "address",
          "name": "_rewardToken1",
          "type": "address"
        },
        {
          "internalType": "address",
          "name": "_rewardToken2",
          "type": "address"
        },
        {
          "internalType": "uint256",
          "name": "_rewardsDuration",
          "type": "uint256"
        },
        {
          "internalType": "address",
          "name": "_staking",
          "type": "address"
        }
      ],
      "name": "initialize",
      "outputs": [],
      "stateMutability": "nonpayable",
      "type": "function"
    },
    {
      "inputs": [
        {
          "internalType": "contract IERC20",
          "name": "token",
          "type": "address"
        }
      ],
      "name": "lastTimeRewardApplicable",
      "outputs": [
        {
          "internalType": "uint256",
          "name": "",
          "type": "uint256"
        }
      ],
      "stateMutability": "view",
      "type": "function"
    },
    {
      "inputs": [
        {
          "internalType": "contract IERC20",
          "name": "reward",
          "type": "address"
        }
      ],
      "name": "lastUpdateTime",
      "outputs": [
        {
          "internalType": "uint256",
          "name": "",
          "type": "uint256"
        }
      ],
      "stateMutability": "view",
      "type": "function"
    },
    {
      "inputs": [
        {
          "internalType": "address",
          "name": "",
          "type": "address"
        }
      ],
      "name": "maxDeposit",
      "outputs": [
        {
          "internalType": "uint256",
          "name": "",
          "type": "uint256"
        }
      ],
      "stateMutability": "view",
      "type": "function"
    },
    {
      "inputs": [
        {
          "internalType": "address",
          "name": "",
          "type": "address"
        }
      ],
      "name": "maxMint",
      "outputs": [
        {
          "internalType": "uint256",
          "name": "",
          "type": "uint256"
        }
      ],
      "stateMutability": "view",
      "type": "function"
    },
    {
      "inputs": [
        {
          "internalType": "address",
          "name": "owner",
          "type": "address"
        }
      ],
      "name": "maxRedeem",
      "outputs": [
        {
          "internalType": "uint256",
          "name": "",
          "type": "uint256"
        }
      ],
      "stateMutability": "view",
      "type": "function"
    },
    {
      "inputs": [
        {
          "internalType": "address",
          "name": "owner",
          "type": "address"
        }
      ],
      "name": "maxWithdraw",
      "outputs": [
        {
          "internalType": "uint256",
          "name": "",
          "type": "uint256"
        }
      ],
      "stateMutability": "view",
      "type": "function"
    },
    {
      "inputs": [
        {
          "internalType": "uint256",
          "name": "shares",
          "type": "uint256"
        },
        {
          "internalType": "address",
          "name": "receiver",
          "type": "address"
        }
      ],
      "name": "mint",
      "outputs": [
        {
          "internalType": "uint256",
          "name": "",
          "type": "uint256"
        }
      ],
      "stateMutability": "nonpayable",
      "type": "function"
    },
    {
      "inputs": [
        {
          "internalType": "bytes[]",
          "name": "data",
          "type": "bytes[]"
        }
      ],
      "name": "multicall",
      "outputs": [
        {
          "internalType": "bytes[]",
          "name": "results",
          "type": "bytes[]"
        }
      ],
      "stateMutability": "nonpayable",
      "type": "function"
    },
    {
      "inputs": [],
      "name": "name",
      "outputs": [
        {
          "internalType": "string",
          "name": "",
          "type": "string"
        }
      ],
      "stateMutability": "view",
      "type": "function"
    },
    {
      "inputs": [
        {
          "internalType": "contract IERC20",
          "name": "token",
          "type": "address"
        },
        {
          "internalType": "uint256",
          "name": "reward",
          "type": "uint256"
        }
      ],
      "name": "notifyRewardAmount",
      "outputs": [],
      "stateMutability": "nonpayable",
      "type": "function"
    },
    {
      "inputs": [
        {
          "internalType": "contract IERC20",
          "name": "reward",
          "type": "address"
        }
      ],
      "name": "periodFinish",
      "outputs": [
        {
          "internalType": "uint256",
          "name": "",
          "type": "uint256"
        }
      ],
      "stateMutability": "view",
      "type": "function"
    },
    {
      "inputs": [
        {
          "internalType": "uint256",
          "name": "assets",
          "type": "uint256"
        }
      ],
      "name": "previewDeposit",
      "outputs": [
        {
          "internalType": "uint256",
          "name": "",
          "type": "uint256"
        }
      ],
      "stateMutability": "view",
      "type": "function"
    },
    {
      "inputs": [
        {
          "internalType": "uint256",
          "name": "shares",
          "type": "uint256"
        }
      ],
      "name": "previewMint",
      "outputs": [
        {
          "internalType": "uint256",
          "name": "",
          "type": "uint256"
        }
      ],
      "stateMutability": "view",
      "type": "function"
    },
    {
      "inputs": [
        {
          "internalType": "uint256",
          "name": "shares",
          "type": "uint256"
        }
      ],
      "name": "previewRedeem",
      "outputs": [
        {
          "internalType": "uint256",
          "name": "",
          "type": "uint256"
        }
      ],
      "stateMutability": "view",
      "type": "function"
    },
    {
      "inputs": [
        {
          "internalType": "uint256",
          "name": "assets",
          "type": "uint256"
        }
      ],
      "name": "previewWithdraw",
      "outputs": [
        {
          "internalType": "uint256",
          "name": "",
          "type": "uint256"
        }
      ],
      "stateMutability": "view",
      "type": "function"
    },
    {
      "inputs": [
        {
          "internalType": "uint256",
          "name": "shares",
          "type": "uint256"
        },
        {
          "internalType": "address",
          "name": "receiver",
          "type": "address"
        },
        {
          "internalType": "address",
          "name": "owner",
          "type": "address"
        }
      ],
      "name": "redeem",
      "outputs": [
        {
          "internalType": "uint256",
          "name": "",
          "type": "uint256"
        }
      ],
      "stateMutability": "nonpayable",
      "type": "function"
    },
    {
      "inputs": [
        {
          "internalType": "bytes32",
          "name": "role",
          "type": "bytes32"
        },
        {
          "internalType": "address",
          "name": "callerConfirmation",
          "type": "address"
        }
      ],
      "name": "renounceRole",
      "outputs": [],
      "stateMutability": "nonpayable",
      "type": "function"
    },
    {
      "inputs": [
        {
          "internalType": "bytes32",
          "name": "role",
          "type": "bytes32"
        },
        {
          "internalType": "address",
          "name": "account",
          "type": "address"
        }
      ],
      "name": "revokeRole",
      "outputs": [],
      "stateMutability": "nonpayable",
      "type": "function"
    },
    {
      "inputs": [
        {
          "internalType": "contract IERC20",
          "name": "token",
          "type": "address"
        }
      ],
      "name": "rewardPerToken",
      "outputs": [
        {
          "internalType": "uint256",
          "name": "",
          "type": "uint256"
        }
      ],
      "stateMutability": "view",
      "type": "function"
    },
    {
      "inputs": [
        {
          "internalType": "contract IERC20",
          "name": "reward",
          "type": "address"
        }
      ],
      "name": "rewardPerTokenStored",
      "outputs": [
        {
          "internalType": "uint256",
          "name": "",
          "type": "uint256"
        }
      ],
      "stateMutability": "view",
      "type": "function"
    },
    {
      "inputs": [
        {
          "internalType": "contract IERC20",
          "name": "reward",
          "type": "address"
        }
      ],
      "name": "rewardRate",
      "outputs": [
        {
          "internalType": "uint256",
          "name": "",
          "type": "uint256"
        }
      ],
      "stateMutability": "view",
      "type": "function"
    },
    {
      "inputs": [],
      "name": "rewardToken1",
      "outputs": [
        {
          "internalType": "contract IERC20",
          "name": "",
          "type": "address"
        }
      ],
      "stateMutability": "view",
      "type": "function"
    },
    {
      "inputs": [],
      "name": "rewardToken2",
      "outputs": [
        {
          "internalType": "contract IERC20",
          "name": "",
          "type": "address"
        }
      ],
      "stateMutability": "view",
      "type": "function"
    },
    {
      "inputs": [
        {
          "internalType": "contract IERC20",
          "name": "reward",
          "type": "address"
        },
        {
          "internalType": "address",
          "name": "who",
          "type": "address"
        }
      ],
      "name": "rewards",
      "outputs": [
        {
          "internalType": "uint256",
          "name": "rewards",
          "type": "uint256"
        }
      ],
      "stateMutability": "view",
      "type": "function"
    },
    {
      "inputs": [],
      "name": "rewardsDuration",
      "outputs": [
        {
          "internalType": "uint256",
          "name": "",
          "type": "uint256"
        }
      ],
      "stateMutability": "view",
      "type": "function"
    },
    {
      "inputs": [],
      "name": "staking",
      "outputs": [
        {
          "internalType": "contract IOmnichainStaking",
          "name": "",
          "type": "address"
        }
      ],
      "stateMutability": "view",
      "type": "function"
    },
    {
      "inputs": [
        {
          "internalType": "bytes4",
          "name": "interfaceId",
          "type": "bytes4"
        }
      ],
      "name": "supportsInterface",
      "outputs": [
        {
          "internalType": "bool",
          "name": "",
          "type": "bool"
        }
      ],
      "stateMutability": "view",
      "type": "function"
    },
    {
      "inputs": [],
      "name": "symbol",
      "outputs": [
        {
          "internalType": "string",
          "name": "",
          "type": "string"
        }
      ],
      "stateMutability": "view",
      "type": "function"
    },
    {
      "inputs": [],
      "name": "totalAssets",
      "outputs": [
        {
          "internalType": "uint256",
          "name": "",
          "type": "uint256"
        }
      ],
      "stateMutability": "view",
      "type": "function"
    },
    {
      "inputs": [],
      "name": "totalBoostedSupply",
      "outputs": [
        {
          "internalType": "uint256",
          "name": "boostedTotalSupply_",
          "type": "uint256"
        }
      ],
      "stateMutability": "view",
      "type": "function"
    },
    {
      "inputs": [],
      "name": "totalSupply",
      "outputs": [
        {
          "internalType": "uint256",
          "name": "",
          "type": "uint256"
        }
      ],
      "stateMutability": "view",
      "type": "function"
    },
    {
      "inputs": [],
      "name": "totalVotingPower",
      "outputs": [
        {
          "internalType": "uint256",
          "name": "supply",
          "type": "uint256"
        }
      ],
      "stateMutability": "view",
      "type": "function"
    },
    {
      "inputs": [
        {
          "internalType": "address",
          "name": "to",
          "type": "address"
        },
        {
          "internalType": "uint256",
          "name": "value",
          "type": "uint256"
        }
      ],
      "name": "transfer",
      "outputs": [
        {
          "internalType": "bool",
          "name": "",
          "type": "bool"
        }
      ],
      "stateMutability": "nonpayable",
      "type": "function"
    },
    {
      "inputs": [
        {
          "internalType": "address",
          "name": "from",
          "type": "address"
        },
        {
          "internalType": "address",
          "name": "to",
          "type": "address"
        },
        {
          "internalType": "uint256",
          "name": "value",
          "type": "uint256"
        }
      ],
      "name": "transferFrom",
      "outputs": [
        {
          "internalType": "bool",
          "name": "",
          "type": "bool"
        }
      ],
      "stateMutability": "nonpayable",
      "type": "function"
    },
    {
      "inputs": [
        {
          "internalType": "contract IERC20",
          "name": "token",
          "type": "address"
        },
        {
          "internalType": "address",
          "name": "who",
          "type": "address"
        }
      ],
      "name": "updateRewards",
      "outputs": [],
      "stateMutability": "nonpayable",
      "type": "function"
    },
    {
      "inputs": [
        {
          "internalType": "contract IERC20",
          "name": "reward",
          "type": "address"
        },
        {
          "internalType": "address",
          "name": "who",
          "type": "address"
        }
      ],
      "name": "userRewardPerTokenPaid",
      "outputs": [
        {
          "internalType": "uint256",
          "name": "",
          "type": "uint256"
        }
      ],
      "stateMutability": "view",
      "type": "function"
    },
    {
      "inputs": [
        {
          "internalType": "address",
          "name": "who",
          "type": "address"
        }
      ],
      "name": "votingPower",
      "outputs": [
        {
          "internalType": "uint256",
          "name": "balance",
          "type": "uint256"
        }
      ],
      "stateMutability": "view",
      "type": "function"
    },
    {
      "inputs": [
        {
          "internalType": "uint256",
          "name": "assets",
          "type": "uint256"
        },
        {
          "internalType": "address",
          "name": "receiver",
          "type": "address"
        },
        {
          "internalType": "address",
          "name": "owner",
          "type": "address"
        }
      ],
      "name": "withdraw",
      "outputs": [
        {
          "internalType": "uint256",
          "name": "",
          "type": "uint256"
        }
      ],
      "stateMutability": "nonpayable",
      "type": "function"
    }
  ],
  "transactionHash": "0xa6792661315962ccce7b7d2228238bdb1f926ac80116ccc7ba4c6b561637ad25",
  "args": [],
  "numDeployments": 1,
  "solcInputHash": "bf587503504f04f1a1890cac65205583",
  "bytecode": "0x60a06040527ffbd454f36a7e1a388bd6fc3ab10d434aa4578f811acbbcf33afb1c697486313c60805234801561003457600080fd5b50608051613b8f6100576000396000818161093801526112010152613b8f6000f3fe608060405234801561001057600080fd5b50600436106103995760003560e01c80637035ab98116101e9578063c07473f61161010f578063d905777e116100ad578063ef8b30f71161007c578063ef8b30f71461080b578063f01edde014610920578063f0bd87cc14610933578063f12297771461095a57600080fd5b8063d905777e1461086a578063da09d19d1461087d578063dd62ed3e1461089d578063e70b9e27146108f557600080fd5b8063ca15c873116100e9578063ca15c8731461081e578063ce96cb7714610831578063d547741f14610844578063d61a47f11461085757600080fd5b8063c07473f6146107f8578063c63d75b6146105a3578063c6e6f5921461080b57600080fd5b8063a217fddf11610187578063b3d7f6b911610156578063b3d7f6b9146107ac578063b460af94146107bf578063b66503cf146107d2578063ba087652146107e557600080fd5b8063a217fddf1461075e578063a550529314610766578063a9059cbb14610779578063ac9650d81461078c57600080fd5b806391d14854116101c357806391d14854146106cb57806394bf804d1461072357806395d89b41146107365780639ce43f901461073e57600080fd5b80637035ab981461064557806370a08231146106705780639010d07c146106b857600080fd5b80632f2ff15d116102ce5780634cf088d91161026c578063671b37931161023b578063671b3793146106045780636b0916951461060c5780636e553f651461061f5780636f28d6881461063257600080fd5b80634cf088d9146105b85780635116ee42146105cb5780635ba83cac146105de578063638634ee146105f157600080fd5b8063386a9525116102a8578063386a95251461055657806338d52e0f1461055f578063402d267d146105a35780634cdad506146103f157600080fd5b80632f2ff15d14610516578063313ce5671461052957806336568abe1461054357600080fd5b80630e37d36f1161033b578063221ca18c11610315578063221ca18c1461048157806323b872dd146104a1578063248a9ca3146104b45780632ce9aead146104f657600080fd5b80630e37d36f1461043257806318160ddd14610447578063211dc32d1461046e57600080fd5b806307a2d13a1161037757806307a2d13a146103f1578063095ea7b3146104045780630a28a477146104175780630dda72991461042a57600080fd5b806301e1d1141461039e57806301ffc9a7146103b957806306fdde03146103dc575b600080fd5b6103a661096d565b6040519081526020015b60405180910390f35b6103cc6103c73660046132a2565b610a03565b60405190151581526020016103b0565b6103e4610a47565b6040516103b0919061331c565b6103a66103ff36600461332f565b610b1c565b6103cc61041236600461335d565b610b29565b6103a661042536600461332f565b610b41565b6103a6610b4e565b610445610440366004613389565b610b5a565b005b7f52c63247e1f47db19d5ce0460030c497f067ca4cebf71ba98eeadabe20bace02546103a6565b6103a661047c366004613389565b610b68565b6103a661048f3660046133c2565b60016020526000908152604090205481565b6103cc6104af3660046133df565b610b8f565b6103a66104c236600461332f565b60009081527f02dd7bc7dec4dceedda775e58dd541e08a116c6c53815c0bd028192f7b626800602052604090206001015490565b6103a66105043660046133c2565b60036020526000908152604090205481565b610445610524366004613420565b610bb5565b610531610bff565b60405160ff90911681526020016103b0565b610445610551366004613420565b610c3d565b6103a660025481565b7f0773e532dfede91f04b12a73d3d2acd361424f41f76b4fb79f090161e36b4e00546001600160a01b03165b6040516001600160a01b0390911681526020016103b0565b6103a66105b13660046133c2565b5060001990565b60095461058b906001600160a01b031681565b6104456105d9366004613445565b610c8e565b6103a66105ec3660046133c2565b610d5f565b6103a66105ff3660046133c2565b610d71565b6103a6610d95565b61044561061a366004613389565b610da1565b6103a661062d366004613420565b610e84565b60075461058b906001600160a01b031681565b6103a6610653366004613389565b600560209081526000928352604080842090915290825290205481565b6103a661067e3660046133c2565b6001600160a01b031660009081527f52c63247e1f47db19d5ce0460030c497f067ca4cebf71ba98eeadabe20bace00602052604090205490565b61058b6106c6366004613494565b610eb8565b6103cc6106d9366004613420565b60009182527f02dd7bc7dec4dceedda775e58dd541e08a116c6c53815c0bd028192f7b626800602090815260408084206001600160a01b0393909316845291905290205460ff1690565b6103a6610731366004613420565b610ef1565b6103e4610f0f565b6103a661074c3660046133c2565b60046020526000908152604090205481565b6103a6600081565b610445610774366004613559565b610f60565b6103cc61078736600461335d565b611076565b61079f61079a366004613626565b611084565b6040516103b0919061369b565b6103a66107ba36600461332f565b611177565b6103a66107cd3660046136fd565b611184565b6104456107e036600461335d565b6111ff565b6103a66107f33660046136fd565b6114a0565b6103a66108063660046133c2565b61151b565b6103a661081936600461332f565b611526565b6103a661082c36600461332f565b611533565b6103a661083f3660046133c2565b61156b565b610445610852366004613420565b6115ae565b60085461058b906001600160a01b031681565b6103a66108783660046133c2565b6115f2565b6103a661088b3660046133c2565b60006020819052908152604090205481565b6103a66108ab366004613389565b6001600160a01b0391821660009081527f52c63247e1f47db19d5ce0460030c497f067ca4cebf71ba98eeadabe20bace016020908152604080832093909416825291909152205490565b6103a6610903366004613389565b600660209081526000928352604080842090915290825290205481565b61044561092e3660046133c2565b61162f565b6103a67f000000000000000000000000000000000000000000000000000000000000000081565b6103a66109683660046133c2565b6117e2565b6000807f0773e532dfede91f04b12a73d3d2acd361424f41f76b4fb79f090161e36b4e0080546040516370a0823160e01b81523060048201529192506001600160a01b0316906370a0823190602401602060405180830381865afa1580156109d9573d6000803e3d6000fd5b505050506040513d601f19601f820116820180604052508101906109fd919061373f565b91505090565b60006001600160e01b031982167f5a05180f000000000000000000000000000000000000000000000000000000001480610a415750610a41826117f0565b92915050565b7f52c63247e1f47db19d5ce0460030c497f067ca4cebf71ba98eeadabe20bace0380546060917f52c63247e1f47db19d5ce0460030c497f067ca4cebf71ba98eeadabe20bace0091610a9890613758565b80601f0160208091040260200160405190810160405280929190818152602001828054610ac490613758565b8015610b115780601f10610ae657610100808354040283529160200191610b11565b820191906000526020600020905b815481529060010190602001808311610af457829003601f168201915b505050505091505090565b6000610a41826000611857565b600033610b378185856118b0565b5060019392505050565b6000610a418260016118bd565b6000610a41600061190c565b610b648282611a63565b5050565b6000806000610b768461190c565b91509150610b8685858484611b7f565b95945050505050565b600033610b9d858285611bf8565b610ba8858585611ca8565b60019150505b9392505050565b60008281527f02dd7bc7dec4dceedda775e58dd541e08a116c6c53815c0bd028192f7b6268006020526040902060010154610bef81611d07565b610bf98383611d11565b50505050565b6000807f0773e532dfede91f04b12a73d3d2acd361424f41f76b4fb79f090161e36b4e009050600081546109fd9190600160a01b900460ff166137a8565b6001600160a01b0381163314610c7f576040517f6697b23200000000000000000000000000000000000000000000000000000000815260040160405180910390fd5b610c898282611d68565b505050565b7f0773e532dfede91f04b12a73d3d2acd361424f41f76b4fb79f090161e36b4e00546001600160a01b03166040517fd505accf000000000000000000000000000000000000000000000000000000008152336004820152306024820152604481018790526064810186905260ff8516608482015260a4810184905260c481018390526001600160a01b03919091169063d505accf9060e401600060405180830381600087803b158015610d4057600080fd5b505af1158015610d54573d6000803e3d6000fd5b505050505050505050565b6000610d6a8261190c565b5092915050565b6001600160a01b038116600090815260208190526040812054610a41904290611db6565b6000610a416000611dcc565b610da9611ec3565b610db38183611a63565b6001600160a01b038082166000908152600660209081526040808320938616835292905220548015610e5a576001600160a01b038083166000818152600660209081526040808320948816835293905291822091909155610e15908483611f26565b6040513381526001600160a01b038085169183918516907fe6ac6a784fb43c9f6329d2f5c82f88a26a93bad4281f7780725af5f071f0aafa9060200160405180910390a45b50610b6460017f9b779b17422d0df92223018b32b4d1fa46e071723d6817e2486d003becc55f0055565b6000600019610e97565b60405180910390fd5b6000610ea285611526565b9050610eb033858784611f9a565b949350505050565b60008281527fc1f6fe24621ce81ec5827caf0253cadb74709b061630e6b55e82371705932000602081905260408220610eb09084611fc3565b60006000196000610f0185611177565b9050610eb033858388611f9a565b7f52c63247e1f47db19d5ce0460030c497f067ca4cebf71ba98eeadabe20bace0480546060917f52c63247e1f47db19d5ce0460030c497f067ca4cebf71ba98eeadabe20bace0091610a9890613758565b7ff0c57e16840df040f15088dc2f81fe391c3923bec73e23a9662efc9c229c6a0080546001919068010000000000000000900460ff1680610faf5750805467ffffffffffffffff808416911610155b15610fe6576040517ff92ee8a900000000000000000000000000000000000000000000000000000000815260040160405180910390fd5b805468ffffffffffffffffff191667ffffffffffffffff8316176801000000000000000017815561101d8a8a8a8a8a8a8a8a611fcf565b805468ff00000000000000001916815560405167ffffffffffffffff831681527fc7f505b2f371ae2175ee4913f4499e1f2633a7b5936321eed1cdaeb6115181d29060200160405180910390a150505050505050505050565b600033610b37818585611ca8565b6040805160008152602081019091526060908267ffffffffffffffff8111156110af576110af6134b6565b6040519080825280602002602001820160405280156110e257816020015b60608152602001906001900390816110cd5790505b50915060005b8381101561116f5761113f30868684818110611106576111066137d4565b905060200281019061111891906137ea565b8560405160200161112b93929190613838565b604051602081830303815290604052612157565b838281518110611151576111516137d4565b602002602001018190525080806111679061385f565b9150506110e8565b505092915050565b6000610a41826001611857565b6000806111908361156b565b9050808511156111e5576040517ffe9cceec0000000000000000000000000000000000000000000000000000000081526001600160a01b03841660048201526024810186905260448101829052606401610e8e565b60006111f086610b41565b9050610b8633868689856121c4565b7f000000000000000000000000000000000000000000000000000000000000000061122981611d07565b611231611ec3565b61123c836000611a63565b6112516001600160a01b0384163330856121f5565b6001600160a01b038316600090815260208190526040902054421061129b5760025461127d908361388e565b6001600160a01b03841660009081526001602052604090205561131c565b6001600160a01b0383166000908152602081905260408120546112bf9042906137c1565b6001600160a01b038516600090815260016020526040812054919250906112e690836138a2565b6002549091506112f682866138b9565b611300919061388e565b6001600160a01b03861660009081526001602052604090205550505b6040516370a0823160e01b81523060048201526000906001600160a01b038516906370a0823190602401602060405180830381865afa158015611363573d6000803e3d6000fd5b505050506040513d601f19601f82011682018060405250810190611387919061373f565b905060025481611397919061388e565b6001600160a01b03851660009081526001602052604090205411156113fe5760405162461bcd60e51b815260206004820152601260248201527f6e6f7420656e6f7567682062616c616e636500000000000000000000000000006044820152606401610e8e565b6001600160a01b03841660009081526003602052604090204290819055600254611427916138b9565b6001600160a01b03851660008181526020818152604091829020939093555133815285927f54dba80f86e498df5a2fcdb5c089d051d97ce8ca9ddb708c70da66557a954de7910160405180910390a350610c8960017f9b779b17422d0df92223018b32b4d1fa46e071723d6817e2486d003becc55f0055565b6000806114ac836115f2565b905080851115611501576040517fb94abeec0000000000000000000000000000000000000000000000000000000081526001600160a01b03841660048201526024810186905260448101829052606401610e8e565b600061150c86610b1c565b9050610b86338686848a6121c4565b6000610d6a82611dcc565b6000610a418260006118bd565b60008181527fc1f6fe24621ce81ec5827caf0253cadb74709b061630e6b55e82371705932000602081905260408220610bae9061222e565b6001600160a01b03811660009081527f52c63247e1f47db19d5ce0460030c497f067ca4cebf71ba98eeadabe20bace006020526040812054610a41906000611857565b60008281527f02dd7bc7dec4dceedda775e58dd541e08a116c6c53815c0bd028192f7b62680060205260409020600101546115e881611d07565b610bf98383611d68565b6001600160a01b03811660009081527f52c63247e1f47db19d5ce0460030c497f067ca4cebf71ba98eeadabe20bace006020526040812054610a41565b611637611ec3565b600754600854611654916001600160a01b03908116911683612238565b6007546001600160a01b03908116600090815260066020908152604080832093851683529290522054801561170457600780546001600160a01b039081166000908152600660209081526040808320878516845290915281205590546116bc91168383611f26565b6007546040513381526001600160a01b038481169284929116907fe6ac6a784fb43c9f6329d2f5c82f88a26a93bad4281f7780725af5f071f0aafa9060200160405180910390a45b6008546001600160a01b0390811660009081526006602090815260408083209386168352929052205480156117b457600880546001600160a01b0390811660009081526006602090815260408083208885168452909152812055905461176c91168483611f26565b6008546040513381526001600160a01b038581169284929116907fe6ac6a784fb43c9f6329d2f5c82f88a26a93bad4281f7780725af5f071f0aafa9060200160405180910390a45b50506117df60017f9b779b17422d0df92223018b32b4d1fa46e071723d6817e2486d003becc55f0055565b50565b6000610a4182600a546123f3565b60006001600160e01b031982167f7965db0b000000000000000000000000000000000000000000000000000000001480610a4157507f01ffc9a7000000000000000000000000000000000000000000000000000000006001600160e01b0319831614610a41565b6000610bae61186461096d565b61186f9060016138b9565b61187b6000600a6139b0565b7f52c63247e1f47db19d5ce0460030c497f067ca4cebf71ba98eeadabe20bace02546118a791906138b9565b859190856124a0565b610c8983838360016124ef565b6000610bae6118cd82600a6139b0565b7f52c63247e1f47db19d5ce0460030c497f067ca4cebf71ba98eeadabe20bace02546118f991906138b9565b61190161096d565b6118a79060016138b9565b600080600061194f846001600160a01b031660009081527f52c63247e1f47db19d5ce0460030c497f067ca4cebf71ba98eeadabe20bace00602052604090205490565b9050600061197b7f52c63247e1f47db19d5ce0460030c497f067ca4cebf71ba98eeadabe20bace025490565b6009549091506001600160a01b03166119af5761199960058361388e565b6119a460058361388e565b935093505050915091565b6119ba60058361388e565b600b5490945015611a1b57600b546001600160a01b0386166000908152600c6020526040902054600591906119ef90846138a2565b6119f9919061388e565b611a049060046138a2565b611a0e919061388e565b611a1890856138b9565b93505b611a258285611db6565b6001600160a01b0386166000908152600d6020526040902054600a5491955090611a509086906138b9565b611a5a91906137c1565b92505050915091565b611a6c8161261a565b600080611a788361190c565b600a8190559092509050611a8c84826123f3565b6001600160a01b038516600090815260046020526040902055611aae84610d71565b6001600160a01b03808616600090815260036020526040902091909155831615610bf9576001600160a01b0383166000908152600d60205260409020829055611af984848484611b7f565b6001600160a01b0385811660008181526006602090815260408083209489168084529482528083209590955591815260048252838120546005835284822084835283529084902055825185815290810184905290917f115e39d10dd5f122500a5729d0f739ba721d5ae9b3f8809171b70e431bbe23ae910160405180910390a250505050565b6001600160a01b038085166000818152600660209081526040808320948816808452948252808320549383526005825280832094835293905291822054670de0b6b3a764000090611bd088866123f3565b611bda91906137c1565b611be490866138a2565b611bee919061388e565b610b8691906138b9565b6001600160a01b0383811660009081527f52c63247e1f47db19d5ce0460030c497f067ca4cebf71ba98eeadabe20bace0160209081526040808320938616835292905220546000198114610bf95781811015611c99576040517ffb8f41b20000000000000000000000000000000000000000000000000000000081526001600160a01b03841660048201526024810182905260448101839052606401610e8e565b610bf9848484840360006124ef565b6001600160a01b038316611cd257604051634b637e8f60e11b815260006004820152602401610e8e565b6001600160a01b038216611cfc5760405163ec442f0560e01b815260006004820152602401610e8e565b610c89838383612647565b6117df81336127b0565b60007fc1f6fe24621ce81ec5827caf0253cadb74709b061630e6b55e8237170593200081611d3f858561283d565b90508015610eb0576000858152602083905260409020611d5f908561290c565b50949350505050565b60007fc1f6fe24621ce81ec5827caf0253cadb74709b061630e6b55e8237170593200081611d968585612921565b90508015610eb0576000858152602083905260409020611d5f90856129c7565b6000818310611dc55781610bae565b5090919050565b6000806001600160a01b0383161580611dee57506009546001600160a01b0316155b15611e00575050600b54600092909150565b6009546040517f9ab24eb00000000000000000000000000000000000000000000000000000000081526001600160a01b03858116600483015290911690639ab24eb090602401602060405180830381865afa158015611e63573d6000803e3d6000fd5b505050506040513d601f19601f82011682018060405250810190611e87919061373f565b6001600160a01b0384166000908152600c6020526040902054600b5491935090611eb29084906138b9565b611ebc91906137c1565b9050915091565b7f9b779b17422d0df92223018b32b4d1fa46e071723d6817e2486d003becc55f00805460011901611f20576040517f3ee5aeb500000000000000000000000000000000000000000000000000000000815260040160405180910390fd5b60029055565b6040516001600160a01b03838116602483015260448201839052610c8991859182169063a9059cbb906064015b604051602081830303815290604052915060e01b6020820180517bffffffffffffffffffffffffffffffffffffffffffffffffffffffff83818316178352505050506129dc565b600754600854611fb7916001600160a01b03908116911685612238565b610bf984848484612a58565b6000610bae8383612ae8565b611fd7612b12565b611fe18888612b7b565b611fea86612b8d565b611ff2612b9e565b6001600160a01b0384166120485760405162461bcd60e51b815260206004820152601560248201527f72657761726420746f6b656e20312069732030783000000000000000000000006044820152606401610e8e565b6001600160a01b03831661209e5760405162461bcd60e51b815260206004820152601560248201527f72657761726420746f6b656e20322069732030783000000000000000000000006044820152606401610e8e565b6002829055600780546001600160a01b0380871673ffffffffffffffffffffffffffffffffffffffff19928316179092556008805486841690831617905560098054928416929091169190911790556120f8600086611d11565b50600a54600003612129577f52c63247e1f47db19d5ce0460030c497f067ca4cebf71ba98eeadabe20bace0254600a555b61213b33670de0b6b3a7640000612ba6565b61214d33670de0b6b3a7640000612bdc565b5050505050505050565b6060600080846001600160a01b03168460405161217491906139bf565b600060405180830381855af49150503d80600081146121af576040519150601f19603f3d011682016040523d82523d6000602084013e6121b4565b606091505b5091509150610b86858383612c12565b6007546008546121e1916001600160a01b03908116911685612238565b6121ee8585858585612c87565b5050505050565b6040516001600160a01b038481166024830152838116604483015260648201839052610bf99186918216906323b872dd90608401611f53565b6000610a41825490565b6122418161261a565b60008061224d8361190c565b600a819055909250905061226185826123f3565b6001600160a01b03861660009081526004602052604090205561228385610d71565b6001600160a01b0386166000908152600360205260409020556122a684826123f3565b6001600160a01b0385166000908152600460205260409020556122c884610d71565b6001600160a01b038086166000908152600360205260409020919091558316156121ee576001600160a01b0383166000908152600d6020526040902082905561231385848484611b7f565b6001600160a01b0380871660009081526006602090815260408083209388168352929052205561234584848484611b7f565b6001600160a01b03808616600081815260066020908152604080832089861680855290835281842096909655938a1682526004808252848320546005808452868520888652845286852091909155938352815283822054928152838220858352905282902055517f115e39d10dd5f122500a5729d0f739ba721d5ae9b3f8809171b70e431bbe23ae906123e49085908590918252602082015260400190565b60405180910390a25050505050565b60008160000361241c57506001600160a01b038216600090815260046020526040902054610a41565b6001600160a01b03831660009081526001602090815260408083205460039092529091205483919061244d86610d71565b61245791906137c1565b61246191906138a2565b61247390670de0b6b3a76400006138a2565b61247d919061388e565b6001600160a01b038416600090815260046020526040902054610bae91906138b9565b6000806124ae868686612d4e565b90506124b983612e2b565b80156124d55750600084806124d0576124d0613878565b868809115b15610b86576124e56001826138b9565b9695505050505050565b7f52c63247e1f47db19d5ce0460030c497f067ca4cebf71ba98eeadabe20bace006001600160a01b038516612553576040517fe602df0500000000000000000000000000000000000000000000000000000000815260006004820152602401610e8e565b6001600160a01b038416612596576040517f94280d6200000000000000000000000000000000000000000000000000000000815260006004820152602401610e8e565b6001600160a01b038086166000908152600183016020908152604080832093881683529290522083905581156121ee57836001600160a01b0316856001600160a01b03167f8c5be1e5ebec7d5bd14f71427d1e84f3dd0314c0f7b2291e5b200ac8c7c3b9258560405161260b91815260200190565b60405180910390a35050505050565b60008061262683611dcc565b6001600160a01b039094166000908152600c60205260409020555050600b55565b7f52c63247e1f47db19d5ce0460030c497f067ca4cebf71ba98eeadabe20bace006001600160a01b038416612695578181600201600082825461268a91906138b9565b909155506127209050565b6001600160a01b03841660009081526020829052604090205482811015612701576040517fe450d38c0000000000000000000000000000000000000000000000000000000081526001600160a01b03861660048201526024810182905260448101849052606401610e8e565b6001600160a01b03851660009081526020839052604090209083900390555b6001600160a01b03831661273e57600281018054839003905561275d565b6001600160a01b03831660009081526020829052604090208054830190555b826001600160a01b0316846001600160a01b03167fddf252ad1be2c89b69c2b068fc378daa952ba7f163c4a11628f55a4df523b3ef846040516127a291815260200190565b60405180910390a350505050565b60008281527f02dd7bc7dec4dceedda775e58dd541e08a116c6c53815c0bd028192f7b626800602090815260408083206001600160a01b038516845290915290205460ff16610b64576040517fe2517d3f0000000000000000000000000000000000000000000000000000000081526001600160a01b038216600482015260248101839052604401610e8e565b60008281527f02dd7bc7dec4dceedda775e58dd541e08a116c6c53815c0bd028192f7b626800602081815260408084206001600160a01b038616855290915282205460ff16612902576000848152602082815260408083206001600160a01b03871684529091529020805460ff191660011790556128b83390565b6001600160a01b0316836001600160a01b0316857f2f8788117e7eff1d82e926ec794901d17c78024a50270940304540a733656f0d60405160405180910390a46001915050610a41565b6000915050610a41565b6000610bae836001600160a01b038416612e58565b60008281527f02dd7bc7dec4dceedda775e58dd541e08a116c6c53815c0bd028192f7b626800602081815260408084206001600160a01b038616855290915282205460ff1615612902576000848152602082815260408083206001600160a01b0387168085529252808320805460ff1916905551339287917ff6391f5c32d9c69d2a47ea670b442974b53935d1edc7fd64eb21e047a839171b9190a46001915050610a41565b6000610bae836001600160a01b038416612ea7565b60006129f16001600160a01b03841683612f90565b90508051600014158015612a16575080806020019051810190612a1491906139db565b155b15610c89576040517f5274afe70000000000000000000000000000000000000000000000000000000081526001600160a01b0384166004820152602401610e8e565b7f0773e532dfede91f04b12a73d3d2acd361424f41f76b4fb79f090161e36b4e008054612a90906001600160a01b03168630866121f5565b612a9a8483612ba6565b836001600160a01b0316856001600160a01b03167fdcbc1c05240f31ff3ad067ef1ee35ce4997762752e3a095284754544f4c709d7858560405161260b929190918252602082015260400190565b6000826000018281548110612aff57612aff6137d4565b9060005260206000200154905092915050565b7ff0c57e16840df040f15088dc2f81fe391c3923bec73e23a9662efc9c229c6a005468010000000000000000900460ff16612b79576040517fd7e6bcf800000000000000000000000000000000000000000000000000000000815260040160405180910390fd5b565b612b83612b12565b610b648282612f9e565b612b95612b12565b6117df81613001565b612b79612b12565b6001600160a01b038216612bd05760405163ec442f0560e01b815260006004820152602401610e8e565b610b6460008383612647565b6001600160a01b038216612c0657604051634b637e8f60e11b815260006004820152602401610e8e565b610b6482600083612647565b606082612c2757612c22826130aa565b610bae565b8151158015612c3e57506001600160a01b0384163b155b15612c80576040517f9996b3150000000000000000000000000000000000000000000000000000000081526001600160a01b0385166004820152602401610e8e565b5080610bae565b7f0773e532dfede91f04b12a73d3d2acd361424f41f76b4fb79f090161e36b4e006001600160a01b0386811690851614612cc657612cc6848784611bf8565b612cd08483612bdc565b8054612ce6906001600160a01b03168685611f26565b836001600160a01b0316856001600160a01b0316876001600160a01b03167ffbde797d201c681b91056529119e0b02407c7bb96a4a2c75c01fc9667232c8db8686604051612d3e929190918252602082015260400190565b60405180910390a4505050505050565b6000838302816000198587098281108382030391505080600003612d8557838281612d7b57612d7b613878565b0492505050610bae565b808411612dbe576040517f227bc15300000000000000000000000000000000000000000000000000000000815260040160405180910390fd5b6000848688096000868103871696879004966002600389028118808a02820302808a02820302808a02820302808a02820302808a02820302808a02909103029181900381900460010186841190950394909402919094039290920491909117919091029150509392505050565b60006002826003811115612e4157612e416139fd565b612e4b9190613a13565b60ff166001149050919050565b6000818152600183016020526040812054612e9f57508154600181810184556000848152602080822090930184905584548482528286019093526040902091909155610a41565b506000610a41565b60008181526001830160205260408120548015612902576000612ecb6001836137c1565b8554909150600090612edf906001906137c1565b9050808214612f44576000866000018281548110612eff57612eff6137d4565b9060005260206000200154905080876000018481548110612f2257612f226137d4565b6000918252602080832090910192909255918252600188019052604090208390555b8554869080612f5557612f55613a35565b600190038181906000526020600020016000905590558560010160008681526020019081526020016000206000905560019350505050610a41565b6060610bae838360006130ec565b612fa6612b12565b7f52c63247e1f47db19d5ce0460030c497f067ca4cebf71ba98eeadabe20bace007f52c63247e1f47db19d5ce0460030c497f067ca4cebf71ba98eeadabe20bace03612ff28482613a99565b5060048101610bf98382613a99565b613009612b12565b7f0773e532dfede91f04b12a73d3d2acd361424f41f76b4fb79f090161e36b4e0060008061303684613198565b9150915081613046576012613048565b805b83547fffffffffffffffffffffff00000000000000000000000000000000000000000016600160a01b60ff929092169190910273ffffffffffffffffffffffffffffffffffffffff1916176001600160a01b0394909416939093179091555050565b8051156130ba5780518082602001fd5b6040517f1425ea4200000000000000000000000000000000000000000000000000000000815260040160405180910390fd5b60608147101561312a576040517fcd786059000000000000000000000000000000000000000000000000000000008152306004820152602401610e8e565b600080856001600160a01b0316848660405161314691906139bf565b60006040518083038185875af1925050503d8060008114613183576040519150601f19603f3d011682016040523d82523d6000602084013e613188565b606091505b50915091506124e5868383612c12565b60408051600481526024810182526020810180517bffffffffffffffffffffffffffffffffffffffffffffffffffffffff167f313ce5670000000000000000000000000000000000000000000000000000000017905290516000918291829182916001600160a01b0387169161320d916139bf565b600060405180830381855afa9150503d8060008114613248576040519150601f19603f3d011682016040523d82523d6000602084013e61324d565b606091505b509150915081801561326157506020815110155b156132955760008180602001905181019061327c919061373f565b905060ff8111613293576001969095509350505050565b505b5060009485945092505050565b6000602082840312156132b457600080fd5b81356001600160e01b031981168114610bae57600080fd5b60005b838110156132e75781810151838201526020016132cf565b50506000910152565b600081518084526133088160208601602086016132cc565b601f01601f19169290920160200192915050565b602081526000610bae60208301846132f0565b60006020828403121561334157600080fd5b5035919050565b6001600160a01b03811681146117df57600080fd5b6000806040838503121561337057600080fd5b823561337b81613348565b946020939093013593505050565b6000806040838503121561339c57600080fd5b82356133a781613348565b915060208301356133b781613348565b809150509250929050565b6000602082840312156133d457600080fd5b8135610bae81613348565b6000806000606084860312156133f457600080fd5b83356133ff81613348565b9250602084013561340f81613348565b929592945050506040919091013590565b6000806040838503121561343357600080fd5b8235915060208301356133b781613348565b600080600080600060a0868803121561345d57600080fd5b8535945060208601359350604086013560ff8116811461347c57600080fd5b94979396509394606081013594506080013592915050565b600080604083850312156134a757600080fd5b50508035926020909101359150565b634e487b7160e01b600052604160045260246000fd5b600082601f8301126134dd57600080fd5b813567ffffffffffffffff808211156134f8576134f86134b6565b604051601f8301601f19908116603f01168101908282118183101715613520576135206134b6565b8160405283815286602085880101111561353957600080fd5b836020870160208301376000602085830101528094505050505092915050565b600080600080600080600080610100898b03121561357657600080fd5b883567ffffffffffffffff8082111561358e57600080fd5b61359a8c838d016134cc565b995060208b01359150808211156135b057600080fd5b506135bd8b828c016134cc565b97505060408901356135ce81613348565b955060608901356135de81613348565b945060808901356135ee81613348565b935060a08901356135fe81613348565b925060c0890135915060e089013561361581613348565b809150509295985092959890939650565b6000806020838503121561363957600080fd5b823567ffffffffffffffff8082111561365157600080fd5b818501915085601f83011261366557600080fd5b81358181111561367457600080fd5b8660208260051b850101111561368957600080fd5b60209290920196919550909350505050565b6000602080830181845280855180835260408601915060408160051b870101925083870160005b828110156136f057603f198886030184526136de8583516132f0565b945092850192908501906001016136c2565b5092979650505050505050565b60008060006060848603121561371257600080fd5b83359250602084013561372481613348565b9150604084013561373481613348565b809150509250925092565b60006020828403121561375157600080fd5b5051919050565b600181811c9082168061376c57607f821691505b60208210810361378c57634e487b7160e01b600052602260045260246000fd5b50919050565b634e487b7160e01b600052601160045260246000fd5b60ff8181168382160190811115610a4157610a41613792565b81810381811115610a4157610a41613792565b634e487b7160e01b600052603260045260246000fd5b6000808335601e1984360301811261380157600080fd5b83018035915067ffffffffffffffff82111561381c57600080fd5b60200191503681900382131561383157600080fd5b9250929050565b8284823760008382016000815283516138558183602088016132cc565b0195945050505050565b60006001820161387157613871613792565b5060010190565b634e487b7160e01b600052601260045260246000fd5b60008261389d5761389d613878565b500490565b8082028115828204841417610a4157610a41613792565b80820180821115610a4157610a41613792565b600181815b808511156139075781600019048211156138ed576138ed613792565b808516156138fa57918102915b93841c93908002906138d1565b509250929050565b60008261391e57506001610a41565b8161392b57506000610a41565b8160018114613941576002811461394b57613967565b6001915050610a41565b60ff84111561395c5761395c613792565b50506001821b610a41565b5060208310610133831016604e8410600b841016171561398a575081810a610a41565b61399483836138cc565b80600019048211156139a8576139a8613792565b029392505050565b6000610bae60ff84168361390f565b600082516139d18184602087016132cc565b9190910192915050565b6000602082840312156139ed57600080fd5b81518015158114610bae57600080fd5b634e487b7160e01b600052602160045260246000fd5b600060ff831680613a2657613a26613878565b8060ff84160691505092915050565b634e487b7160e01b600052603160045260246000fd5b601f821115610c8957600081815260208120601f850160051c81016020861015613a725750805b601f850160051c820191505b81811015613a9157828155600101613a7e565b505050505050565b815167ffffffffffffffff811115613ab357613ab36134b6565b613ac781613ac18454613758565b84613a4b565b602080601f831160018114613afc5760008415613ae45750858301515b600019600386901b1c1916600185901b178555613a91565b600085815260208120601f198616915b82811015613b2b57888601518255948401946001909101908401613b0c565b5085821015613b495787850151600019600388901b60f8161c191681555b5050505050600190811b0190555056fea26469706673582212200ecf769b681ef47b2cff4b921a6c056fb3280af7e0c159942718a12b0c30a39764736f6c63430008150033",
  "devdoc": {
    "errors": {
      "AccessControlBadConfirmation()": [
        {
          "details": "The caller of a function is not the expected one. NOTE: Don't confuse with {AccessControlUnauthorizedAccount}."
        }
      ],
      "AccessControlUnauthorizedAccount(address,bytes32)": [
        {
          "details": "The `account` is missing a role."
        }
      ],
      "AddressEmptyCode(address)": [
        {
          "details": "There's no code at `target` (it is not a contract)."
        }
      ],
      "AddressInsufficientBalance(address)": [
        {
          "details": "The ETH balance of the account is not enough to perform the operation."
        }
      ],
      "ERC20InsufficientAllowance(address,uint256,uint256)": [
        {
          "details": "Indicates a failure with the `spender`s `allowance`. Used in transfers.",
          "params": {
            "allowance": "Amount of tokens a `spender` is allowed to operate with.",
            "needed": "Minimum amount required to perform a transfer.",
            "spender": "Address that may be allowed to operate on tokens without being their owner."
          }
        }
      ],
      "ERC20InsufficientBalance(address,uint256,uint256)": [
        {
          "details": "Indicates an error related to the current `balance` of a `sender`. Used in transfers.",
          "params": {
            "balance": "Current balance for the interacting account.",
            "needed": "Minimum amount required to perform a transfer.",
            "sender": "Address whose tokens are being transferred."
          }
        }
      ],
      "ERC20InvalidApprover(address)": [
        {
          "details": "Indicates a failure with the `approver` of a token to be approved. Used in approvals.",
          "params": {
            "approver": "Address initiating an approval operation."
          }
        }
      ],
      "ERC20InvalidReceiver(address)": [
        {
          "details": "Indicates a failure with the token `receiver`. Used in transfers.",
          "params": {
            "receiver": "Address to which tokens are being transferred."
          }
        }
      ],
      "ERC20InvalidSender(address)": [
        {
          "details": "Indicates a failure with the token `sender`. Used in transfers.",
          "params": {
            "sender": "Address whose tokens are being transferred."
          }
        }
      ],
      "ERC20InvalidSpender(address)": [
        {
          "details": "Indicates a failure with the `spender` to be approved. Used in approvals.",
          "params": {
            "spender": "Address that may be allowed to operate on tokens without being their owner."
          }
        }
      ],
      "ERC4626ExceededMaxDeposit(address,uint256,uint256)": [
        {
          "details": "Attempted to deposit more assets than the max amount for `receiver`."
        }
      ],
      "ERC4626ExceededMaxMint(address,uint256,uint256)": [
        {
          "details": "Attempted to mint more shares than the max amount for `receiver`."
        }
      ],
      "ERC4626ExceededMaxRedeem(address,uint256,uint256)": [
        {
          "details": "Attempted to redeem more shares than the max amount for `receiver`."
        }
      ],
      "ERC4626ExceededMaxWithdraw(address,uint256,uint256)": [
        {
          "details": "Attempted to withdraw more assets than the max amount for `receiver`."
        }
      ],
      "FailedInnerCall()": [
        {
          "details": "A call to an address target failed. The target may have reverted."
        }
      ],
      "InvalidInitialization()": [
        {
          "details": "The contract is already initialized."
        }
      ],
      "MathOverflowedMulDiv()": [
        {
          "details": "Muldiv operation overflow."
        }
      ],
      "NotInitializing()": [
        {
          "details": "The contract is not initializing."
        }
      ],
      "ReentrancyGuardReentrantCall()": [
        {
          "details": "Unauthorized reentrant call."
        }
      ],
      "SafeERC20FailedOperation(address)": [
        {
          "details": "An operation with an ERC20 token failed."
        }
      ]
    },
    "events": {
      "Approval(address,address,uint256)": {
        "details": "Emitted when the allowance of a `spender` for an `owner` is set by a call to {approve}. `value` is the new allowance."
      },
      "Initialized(uint64)": {
        "details": "Triggered when the contract has been initialized or reinitialized."
      },
      "RoleAdminChanged(bytes32,bytes32,bytes32)": {
        "details": "Emitted when `newAdminRole` is set as ``role``'s admin role, replacing `previousAdminRole` `DEFAULT_ADMIN_ROLE` is the starting admin for all roles, despite {RoleAdminChanged} not being emitted signaling this."
      },
      "RoleGranted(bytes32,address,address)": {
        "details": "Emitted when `account` is granted `role`. `sender` is the account that originated the contract call, an admin role bearer except when using {AccessControl-_setupRole}."
      },
      "RoleRevoked(bytes32,address,address)": {
        "details": "Emitted when `account` is revoked `role`. `sender` is the account that originated the contract call:   - if using `revokeRole`, it is the admin role bearer   - if using `renounceRole`, it is the role bearer (i.e. `account`)"
      },
      "Transfer(address,address,uint256)": {
        "details": "Emitted when `value` tokens are moved from one account (`from`) to another (`to`). Note that `value` may be zero."
      }
    },
    "kind": "dev",
    "methods": {
      "allowance(address,address)": {
        "details": "See {IERC20-allowance}."
      },
      "approve(address,uint256)": {
        "details": "See {IERC20-approve}. NOTE: If `value` is the maximum `uint256`, the allowance is not updated on `transferFrom`. This is semantically equivalent to an infinite approval. Requirements: - `spender` cannot be the zero address."
      },
      "asset()": {
        "details": "See {IERC4626-asset}. "
      },
      "balanceOf(address)": {
        "details": "See {IERC20-balanceOf}."
      },
      "boostedBalance(address)": {
        "details": "Code taken from https://github.com/curvefi/curve-dao-contracts/blob/master/contracts/gauges/LiquidityGaugeV5.vy#L191-L213"
      },
      "convertToAssets(uint256)": {
        "details": "See {IERC4626-convertToAssets}. "
      },
      "convertToShares(uint256)": {
        "details": "See {IERC4626-convertToShares}. "
      },
      "decimals()": {
        "details": "Decimals are computed by adding the decimal offset on top of the underlying asset's decimals. This \"original\" value is cached during construction of the vault contract. If this read operation fails (e.g., the asset has not been created yet), a default of 18 is used to represent the underlying asset's decimals. See {IERC20Metadata-decimals}."
      },
      "deposit(uint256,address)": {
        "details": "See {IERC4626-deposit}. "
      },
      "earned(address,address)": {
        "details": "It adds to the rewards the amount of reward earned since last time that is the difference in reward per token from now and last time multiplied by the number of tokens staked by the person",
        "params": {
          "account": "The account for which the rewards are earned",
          "token": "The token for which the rewards are earned"
        },
        "returns": {
          "_0": "How much a given account earned rewards"
        }
      },
      "getReward(address,address)": {
        "params": {
          "token": "The token for which the rewards are paid",
          "who": "The account for which the rewards are paid"
        }
      },
      "getRewardDual(address)": {
        "params": {
          "who": "The account for which the rewards are paid"
        }
      },
      "getRoleAdmin(bytes32)": {
        "details": "Returns the admin role that controls `role`. See {grantRole} and {revokeRole}. To change a role's admin, use {_setRoleAdmin}."
      },
      "getRoleMember(bytes32,uint256)": {
        "details": "Returns one of the accounts that have `role`. `index` must be a value between 0 and {getRoleMemberCount}, non-inclusive. Role bearers are not sorted in any particular way, and their ordering may change at any point. WARNING: When using {getRoleMember} and {getRoleMemberCount}, make sure you perform all queries on the same block. See the following https://forum.openzeppelin.com/t/iterating-over-elements-on-enumerableset-in-openzeppelin-contracts/2296[forum post] for more information."
      },
      "getRoleMemberCount(bytes32)": {
        "details": "Returns the number of accounts that have `role`. Can be used together with {getRoleMember} to enumerate all bearers of a role."
      },
      "grantRole(bytes32,address)": {
        "details": "Grants `role` to `account`. If `account` had not been already granted `role`, emits a {RoleGranted} event. Requirements: - the caller must have ``role``'s admin role. May emit a {RoleGranted} event."
      },
      "hasRole(bytes32,address)": {
        "details": "Returns `true` if `account` has been granted `role`."
      },
      "lastTimeRewardApplicable(address)": {
        "details": "Returns the current timestamp if a reward is being distributed and the end of the staking period if staking is done",
        "params": {
          "token": "The token for which the last time reward applicable is requested"
        }
      },
      "maxDeposit(address)": {
        "details": "See {IERC4626-maxDeposit}. "
      },
      "maxMint(address)": {
        "details": "See {IERC4626-maxMint}. "
      },
      "maxRedeem(address)": {
        "details": "See {IERC4626-maxRedeem}. "
      },
      "maxWithdraw(address)": {
        "details": "See {IERC4626-maxWithdraw}. "
      },
      "mint(uint256,address)": {
        "details": "See {IERC4626-mint}. As opposed to {deposit}, minting is allowed even if the vault is in a state where the price of a share is zero. In this case, the shares will be minted without requiring any assets to be deposited."
      },
      "multicall(bytes[])": {
        "custom:oz-upgrades-unsafe-allow-reachable": "delegatecall",
        "details": "Receives and executes a batch of function calls on this contract."
      },
      "name()": {
        "details": "Returns the name of the token."
      },
      "notifyRewardAmount(address,uint256)": {
        "params": {
          "reward": "Amount of reward tokens to distribute",
          "token": "The token for which the rewards are added"
        }
      },
      "previewDeposit(uint256)": {
        "details": "See {IERC4626-previewDeposit}. "
      },
      "previewMint(uint256)": {
        "details": "See {IERC4626-previewMint}. "
      },
      "previewRedeem(uint256)": {
        "details": "See {IERC4626-previewRedeem}. "
      },
      "previewWithdraw(uint256)": {
        "details": "See {IERC4626-previewWithdraw}. "
      },
      "redeem(uint256,address,address)": {
        "details": "See {IERC4626-redeem}. "
      },
      "renounceRole(bytes32,address)": {
        "details": "Revokes `role` from the calling account. Roles are often managed via {grantRole} and {revokeRole}: this function's purpose is to provide a mechanism for accounts to lose their privileges if they are compromised (such as when a trusted device is misplaced). If the calling account had been revoked `role`, emits a {RoleRevoked} event. Requirements: - the caller must be `callerConfirmation`. May emit a {RoleRevoked} event."
      },
      "revokeRole(bytes32,address)": {
        "details": "Revokes `role` from `account`. If `account` had been granted `role`, emits a {RoleRevoked} event. Requirements: - the caller must have ``role``'s admin role. May emit a {RoleRevoked} event."
      },
      "rewardPerToken(address)": {
        "details": "It adds to the reward per token: the time elapsed since the `rewardPerTokenStored` was last updated multiplied by the `rewardRate` divided by the number of tokens",
        "params": {
          "token": "The token for which the reward per token is updated"
        }
      },
      "supportsInterface(bytes4)": {
        "details": "See {IERC165-supportsInterface}."
      },
      "symbol()": {
        "details": "Returns the symbol of the token, usually a shorter version of the name."
      },
      "totalAssets()": {
        "details": "See {IERC4626-totalAssets}. "
      },
      "totalSupply()": {
        "details": "See {IERC20-totalSupply}."
      },
      "transfer(address,uint256)": {
        "details": "See {IERC20-transfer}. Requirements: - `to` cannot be the zero address. - the caller must have a balance of at least `value`."
      },
      "transferFrom(address,address,uint256)": {
        "details": "See {IERC20-transferFrom}. Emits an {Approval} event indicating the updated allowance. This is not required by the EIP. See the note at the beginning of {ERC20}. NOTE: Does not update the allowance if the current allowance is the maximum `uint256`. Requirements: - `from` and `to` cannot be the zero address. - `from` must have a balance of at least `value`. - the caller must have allowance for ``from``'s tokens of at least `value`."
      },
      "updateRewards(address,address)": {
        "params": {
          "token": "The token for which the rewards are updated",
          "who": "The account for which the rewards are updated"
        }
      },
      "votingPower(address)": {
        "params": {
          "who": "The account for which the voting power is requested"
        }
      },
      "withdraw(uint256,address,address)": {
        "details": "See {IERC4626-withdraw}. "
      }
    },
    "version": 1
  },
  "userdoc": {
    "kind": "user",
    "methods": {
      "DISTRIBUTOR_ROLE()": {
        "notice": "Gets the role that is able to distribute rewards"
      },
      "approveUnderlyingWithPermit(uint256,uint256,uint8,bytes32,bytes32)": {
        "notice": "Grants approval to the staking contract to spend the underlying token using permits"
      },
      "boostedBalance(address)": {
        "notice": "Gets the boosted balance for an account"
      },
      "earned(address,address)": {
        "notice": "Returns how much a given account earned rewards"
      },
      "getReward(address,address)": {
        "notice": "Triggers a payment of the reward earned to the msg.sender"
      },
      "getRewardDual(address)": {
        "notice": "Triggers a payment of the rewards earned for both tokens"
      },
      "lastTimeRewardApplicable(address)": {
        "notice": "Queries the last timestamp at which a reward was distributed"
      },
      "lastUpdateTime(address)": {
        "notice": "Last time `rewardPerTokenStored` was updated"
      },
      "notifyRewardAmount(address,uint256)": {
        "notice": "Adds rewards to be distributed"
      },
      "periodFinish(address)": {
        "notice": "Gets the period finish for a reward token"
      },
      "rewardPerToken(address)": {
        "notice": "Used to actualize the `rewardPerTokenStored`"
      },
      "rewardPerTokenStored(address)": {
        "notice": "Helps to compute the amount earned by someone. Cumulates rewards accumulated for one token since the beginning. Stored as a uint so it is actually a float times the base of the reward token"
      },
      "rewardRate(address)": {
        "notice": "Reward per second given to the staking contract, split among the staked tokens"
      },
      "rewardToken1()": {
        "notice": "Gets the first reward token for which the rewards are distributed"
      },
      "rewardToken2()": {
        "notice": "Gets the second reward token for which the rewards are distributed"
      },
      "rewards(address,address)": {
        "notice": "Stores for each account the accumulated rewards"
      },
      "rewardsDuration()": {
        "notice": "Duration of the reward distribution"
      },
      "staking()": {
        "notice": "Gets the staking contract that returns the voting power of an account"
      },
      "totalBoostedSupply()": {
        "notice": "Gets the total supply of boosted tokens"
      },
      "totalVotingPower()": {
        "notice": "Gets the total voting power of all the participants"
      },
      "updateRewards(address,address)": {
        "notice": "Updates the rewards for an account"
      },
      "userRewardPerTokenPaid(address,address)": {
        "notice": "Stores for each account the `rewardPerToken`: we do the difference between the current and the old value to compute what has been earned by an account"
      },
      "votingPower(address)": {
        "notice": "Gets the voting power for an account"
      }
    },
    "version": 1
  },
  "storageLayout": {
    "storage": [
      {
        "astId": 21303,
        "contract": "contracts/periphery/staking/StakingLPRewards.sol:StakingLPRewards",
        "label": "periodFinish",
        "offset": 0,
        "slot": "0",
        "type": "t_mapping(t_contract(IERC20)10366,t_uint256)"
      },
      {
        "astId": 21309,
        "contract": "contracts/periphery/staking/StakingLPRewards.sol:StakingLPRewards",
        "label": "rewardRate",
        "offset": 0,
        "slot": "1",
        "type": "t_mapping(t_contract(IERC20)10366,t_uint256)"
      },
      {
        "astId": 21312,
        "contract": "contracts/periphery/staking/StakingLPRewards.sol:StakingLPRewards",
        "label": "rewardsDuration",
        "offset": 0,
        "slot": "2",
        "type": "t_uint256"
      },
      {
        "astId": 21318,
        "contract": "contracts/periphery/staking/StakingLPRewards.sol:StakingLPRewards",
        "label": "lastUpdateTime",
        "offset": 0,
        "slot": "3",
        "type": "t_mapping(t_contract(IERC20)10366,t_uint256)"
      },
      {
        "astId": 21324,
        "contract": "contracts/periphery/staking/StakingLPRewards.sol:StakingLPRewards",
        "label": "rewardPerTokenStored",
        "offset": 0,
        "slot": "4",
        "type": "t_mapping(t_contract(IERC20)10366,t_uint256)"
      },
      {
        "astId": 21332,
        "contract": "contracts/periphery/staking/StakingLPRewards.sol:StakingLPRewards",
        "label": "userRewardPerTokenPaid",
        "offset": 0,
        "slot": "5",
        "type": "t_mapping(t_contract(IERC20)10366,t_mapping(t_address,t_uint256))"
      },
      {
        "astId": 21340,
        "contract": "contracts/periphery/staking/StakingLPRewards.sol:StakingLPRewards",
        "label": "rewards",
        "offset": 0,
        "slot": "6",
        "type": "t_mapping(t_contract(IERC20)10366,t_mapping(t_address,t_uint256))"
      },
      {
        "astId": 21344,
        "contract": "contracts/periphery/staking/StakingLPRewards.sol:StakingLPRewards",
        "label": "rewardToken1",
        "offset": 0,
        "slot": "7",
        "type": "t_contract(IERC20)10366"
      },
      {
        "astId": 21348,
        "contract": "contracts/periphery/staking/StakingLPRewards.sol:StakingLPRewards",
        "label": "rewardToken2",
        "offset": 0,
        "slot": "8",
        "type": "t_contract(IERC20)10366"
      },
      {
        "astId": 21352,
        "contract": "contracts/periphery/staking/StakingLPRewards.sol:StakingLPRewards",
        "label": "staking",
        "offset": 0,
        "slot": "9",
        "type": "t_contract(IOmnichainStaking)27934"
      },
      {
        "astId": 21355,
        "contract": "contracts/periphery/staking/StakingLPRewards.sol:StakingLPRewards",
        "label": "_boostedTotalSupply",
        "offset": 0,
        "slot": "10",
        "type": "t_uint256"
      },
      {
        "astId": 21358,
        "contract": "contracts/periphery/staking/StakingLPRewards.sol:StakingLPRewards",
        "label": "_totalVotingPower",
        "offset": 0,
        "slot": "11",
        "type": "t_uint256"
      },
      {
        "astId": 21363,
        "contract": "contracts/periphery/staking/StakingLPRewards.sol:StakingLPRewards",
        "label": "_votingPower",
        "offset": 0,
        "slot": "12",
        "type": "t_mapping(t_address,t_uint256)"
      },
      {
        "astId": 21368,
        "contract": "contracts/periphery/staking/StakingLPRewards.sol:StakingLPRewards",
        "label": "_boostedBalances",
        "offset": 0,
        "slot": "13",
        "type": "t_mapping(t_address,t_uint256)"
      }
    ],
    "types": {
      "t_address": {
        "encoding": "inplace",
        "label": "address",
        "numberOfBytes": "20"
      },
      "t_contract(IERC20)10366": {
        "encoding": "inplace",
        "label": "contract IERC20",
        "numberOfBytes": "20"
      },
      "t_contract(IOmnichainStaking)27934": {
        "encoding": "inplace",
        "label": "contract IOmnichainStaking",
        "numberOfBytes": "20"
      },
      "t_mapping(t_address,t_uint256)": {
        "encoding": "mapping",
        "key": "t_address",
        "label": "mapping(address => uint256)",
        "numberOfBytes": "32",
        "value": "t_uint256"
      },
      "t_mapping(t_contract(IERC20)10366,t_mapping(t_address,t_uint256))": {
        "encoding": "mapping",
        "key": "t_contract(IERC20)10366",
        "label": "mapping(contract IERC20 => mapping(address => uint256))",
        "numberOfBytes": "32",
        "value": "t_mapping(t_address,t_uint256)"
      },
      "t_mapping(t_contract(IERC20)10366,t_uint256)": {
        "encoding": "mapping",
        "key": "t_contract(IERC20)10366",
        "label": "mapping(contract IERC20 => uint256)",
        "numberOfBytes": "32",
        "value": "t_uint256"
      },
      "t_uint256": {
        "encoding": "inplace",
        "label": "uint256",
        "numberOfBytes": "32"
      }
    }
  }
}