{
  "address": "0x51Fa45f9696dd43ffdde82b26961fAeE86F3e3aD",
  "abi": [
    {
      "inputs": [
        {
          "internalType": "address",
          "name": "_odos",
          "type": "address"
        },
        {
          "internalType": "address",
          "name": "_sZAI",
          "type": "address"
        },
        {
          "internalType": "address",
          "name": "_sUSDe",
          "type": "address"
        },
        {
          "internalType": "address",
          "name": "_usdc",
          "type": "address"
        }
      ],
      "stateMutability": "nonpayable",
      "type": "constructor"
    },
    {
      "inputs": [],
      "name": "AccessControlBadConfirmation",
      "type": "error"
    },
    {
      "inputs": [
        {
          "internalType": "address",
          "name": "account",
          "type": "address"
        },
        {
          "internalType": "bytes32",
          "name": "neededRole",
          "type": "bytes32"
        }
      ],
      "name": "AccessControlUnauthorizedAccount",
      "type": "error"
    },
    {
      "inputs": [
        {
          "internalType": "address",
          "name": "target",
          "type": "address"
        }
      ],
      "name": "AddressEmptyCode",
      "type": "error"
    },
    {
      "inputs": [
        {
          "internalType": "address",
          "name": "account",
          "type": "address"
        }
      ],
      "name": "AddressInsufficientBalance",
      "type": "error"
    },
    {
      "inputs": [],
      "name": "FailedInnerCall",
      "type": "error"
    },
    {
      "inputs": [],
      "name": "NotZeroAddress",
      "type": "error"
    },
    {
      "inputs": [
        {
          "internalType": "address",
          "name": "token",
          "type": "address"
        }
      ],
      "name": "SafeERC20FailedOperation",
      "type": "error"
    },
    {
      "anonymous": false,
      "inputs": [
        {
          "indexed": true,
          "internalType": "address",
          "name": "receiver",
          "type": "address"
        },
        {
          "indexed": true,
          "internalType": "uint256",
          "name": "amount",
          "type": "uint256"
        }
      ],
      "name": "RevenueDistributed",
      "type": "event"
    },
    {
      "anonymous": false,
      "inputs": [
        {
          "indexed": true,
          "internalType": "bytes32",
          "name": "role",
          "type": "bytes32"
        },
        {
          "indexed": true,
          "internalType": "bytes32",
          "name": "previousAdminRole",
          "type": "bytes32"
        },
        {
          "indexed": true,
          "internalType": "bytes32",
          "name": "newAdminRole",
          "type": "bytes32"
        }
      ],
      "name": "RoleAdminChanged",
      "type": "event"
    },
    {
      "anonymous": false,
      "inputs": [
        {
          "indexed": true,
          "internalType": "bytes32",
          "name": "role",
          "type": "bytes32"
        },
        {
          "indexed": true,
          "internalType": "address",
          "name": "account",
          "type": "address"
        },
        {
          "indexed": true,
          "internalType": "address",
          "name": "sender",
          "type": "address"
        }
      ],
      "name": "RoleGranted",
      "type": "event"
    },
    {
      "anonymous": false,
      "inputs": [
        {
          "indexed": true,
          "internalType": "bytes32",
          "name": "role",
          "type": "bytes32"
        },
        {
          "indexed": true,
          "internalType": "address",
          "name": "account",
          "type": "address"
        },
        {
          "indexed": true,
          "internalType": "address",
          "name": "sender",
          "type": "address"
        }
      ],
      "name": "RoleRevoked",
      "type": "event"
    },
    {
      "inputs": [],
      "name": "DEFAULT_ADMIN_ROLE",
      "outputs": [
        {
          "internalType": "bytes32",
          "name": "",
          "type": "bytes32"
        }
      ],
      "stateMutability": "view",
      "type": "function"
    },
    {
      "inputs": [],
      "name": "EXECUTOR_ROLE",
      "outputs": [
        {
          "internalType": "bytes32",
          "name": "",
          "type": "bytes32"
        }
      ],
      "stateMutability": "view",
      "type": "function"
    },
    {
      "inputs": [
        {
          "internalType": "address",
          "name": "_stargateUSDCPool",
          "type": "address"
        },
        {
          "internalType": "uint32",
          "name": "_destinationEndPoint",
          "type": "uint32"
        },
        {
          "internalType": "address",
          "name": "_receiver",
          "type": "address"
        },
        {
          "internalType": "address",
          "name": "_refundAddress",
          "type": "address"
        },
        {
          "internalType": "bytes",
          "name": "_odos",
          "type": "bytes"
        }
      ],
      "name": "distributeRevenue",
      "outputs": [],
      "stateMutability": "payable",
      "type": "function"
    },
    {
      "inputs": [
        {
          "internalType": "bytes32",
          "name": "role",
          "type": "bytes32"
        }
      ],
      "name": "getRoleAdmin",
      "outputs": [
        {
          "internalType": "bytes32",
          "name": "",
          "type": "bytes32"
        }
      ],
      "stateMutability": "view",
      "type": "function"
    },
    {
      "inputs": [
        {
          "internalType": "bytes32",
          "name": "role",
          "type": "bytes32"
        },
        {
          "internalType": "uint256",
          "name": "index",
          "type": "uint256"
        }
      ],
      "name": "getRoleMember",
      "outputs": [
        {
          "internalType": "address",
          "name": "",
          "type": "address"
        }
      ],
      "stateMutability": "view",
      "type": "function"
    },
    {
      "inputs": [
        {
          "internalType": "bytes32",
          "name": "role",
          "type": "bytes32"
        }
      ],
      "name": "getRoleMemberCount",
      "outputs": [
        {
          "internalType": "uint256",
          "name": "",
          "type": "uint256"
        }
      ],
      "stateMutability": "view",
      "type": "function"
    },
    {
      "inputs": [
        {
          "internalType": "bytes32",
          "name": "role",
          "type": "bytes32"
        },
        {
          "internalType": "address",
          "name": "account",
          "type": "address"
        }
      ],
      "name": "grantRole",
      "outputs": [],
      "stateMutability": "nonpayable",
      "type": "function"
    },
    {
      "inputs": [
        {
          "internalType": "bytes32",
          "name": "role",
          "type": "bytes32"
        },
        {
          "internalType": "address",
          "name": "account",
          "type": "address"
        }
      ],
      "name": "hasRole",
      "outputs": [
        {
          "internalType": "bool",
          "name": "",
          "type": "bool"
        }
      ],
      "stateMutability": "view",
      "type": "function"
    },
    {
      "inputs": [],
      "name": "odos",
      "outputs": [
        {
          "internalType": "address",
          "name": "",
          "type": "address"
        }
      ],
      "stateMutability": "view",
      "type": "function"
    },
    {
      "inputs": [
        {
          "internalType": "contract IERC20",
          "name": "token",
          "type": "address"
        }
      ],
      "name": "refund",
      "outputs": [],
      "stateMutability": "nonpayable",
      "type": "function"
    },
    {
      "inputs": [
        {
          "internalType": "bytes32",
          "name": "role",
          "type": "bytes32"
        },
        {
          "internalType": "address",
          "name": "callerConfirmation",
          "type": "address"
        }
      ],
      "name": "renounceRole",
      "outputs": [],
      "stateMutability": "nonpayable",
      "type": "function"
    },
    {
      "inputs": [
        {
          "internalType": "bytes32",
          "name": "role",
          "type": "bytes32"
        },
        {
          "internalType": "address",
          "name": "account",
          "type": "address"
        }
      ],
      "name": "revokeRole",
      "outputs": [],
      "stateMutability": "nonpayable",
      "type": "function"
    },
    {
      "inputs": [],
      "name": "sUSDe",
      "outputs": [
        {
          "internalType": "contract IERC20",
          "name": "",
          "type": "address"
        }
      ],
      "stateMutability": "view",
      "type": "function"
    },
    {
      "inputs": [],
      "name": "sZAI",
      "outputs": [
        {
          "internalType": "contract IMultiStakingRewardsERC4626",
          "name": "",
          "type": "address"
        }
      ],
      "stateMutability": "view",
      "type": "function"
    },
    {
      "inputs": [
        {
          "internalType": "bytes4",
          "name": "interfaceId",
          "type": "bytes4"
        }
      ],
      "name": "supportsInterface",
      "outputs": [
        {
          "internalType": "bool",
          "name": "",
          "type": "bool"
        }
      ],
      "stateMutability": "view",
      "type": "function"
    },
    {
      "inputs": [],
      "name": "usdc",
      "outputs": [
        {
          "internalType": "contract IERC20",
          "name": "",
          "type": "address"
        }
      ],
      "stateMutability": "view",
      "type": "function"
    }
  ],
  "transactionHash": "0x8a15f3f49582885cc372fce0f0512d26e9ae86d394f1d48f92062ec45924a75e",
  "args": [
    "0xcf5540fffcdc3d510b18bfca6d2b9987b0772559",
    "0x69000195D5e3201Cf73C9Ae4a1559244DF38D47C",
    "0x9D39A5DE30e57443BfF2A8307A4256c8797A3497",
    "0xa0b86991c6218b36c1d19d4a2e9eb0ce3606eb48"
  ],
  "numDeployments": 1,
  "solcInputHash": "4a908f6149e8092254165604b1ca660f",
  "bytecode": "0x60a06040527fd8aa0f3194971a2a116679f7c2090f6939c8d4e01a2a8d7e41d55e5351469e636080523480156200003557600080fd5b5060405162001b5238038062001b5283398101604081905262000058916200035a565b6200006383620001cd565b6200006e81620001cd565b600380546001600160a01b038581166001600160a01b031992831617909255600580548584169083168117909155600480548585169084161781556002805494891694909316841790925560405163095ea7b360e01b815291820192909252600019602482015263095ea7b3906044016020604051808303816000875af1158015620000fe573d6000803e3d6000fd5b505050506040513d601f19601f82011682018060405250810190620001249190620003b7565b506004805460035460405163095ea7b360e01b81526001600160a01b03918216938101939093526000196024840152169063095ea7b3906044016020604051808303816000875af11580156200017e573d6000803e3d6000fd5b505050506040513d601f19601f82011682018060405250810190620001a49190620003b7565b50620001b2600033620001f8565b50608051620001c29033620001f8565b5050505050620003db565b6001600160a01b038116620001f5576040516366385fa360e01b815260040160405180910390fd5b50565b60008062000207848462000235565b905080156200022c5760008481526001602052604090206200022a9084620002e3565b505b90505b92915050565b6000828152602081815260408083206001600160a01b038516845290915281205460ff16620002da576000838152602081815260408083206001600160a01b03861684529091529020805460ff19166001179055620002913390565b6001600160a01b0316826001600160a01b0316847f2f8788117e7eff1d82e926ec794901d17c78024a50270940304540a733656f0d60405160405180910390a45060016200022f565b5060006200022f565b60006200022c836001600160a01b0384166000818152600183016020526040812054620002da575081546001818101845560008481526020808220909301849055845484825282860190935260409020919091556200022f565b80516001600160a01b03811681146200035557600080fd5b919050565b600080600080608085870312156200037157600080fd5b6200037c856200033d565b93506200038c602086016200033d565b92506200039c604086016200033d565b9150620003ac606086016200033d565b905092959194509250565b600060208284031215620003ca57600080fd5b815180151581146200022c57600080fd5b608051611754620003fe6000396000818161011f01526103a601526117546000f3fe6080604052600436106100d35760003560e01c80636cc78c1e1161007a5780636cc78c1e146102215780639010d07c1461024157806391d1485414610261578063a217fddf14610281578063ca15c87314610296578063d547741f146102b6578063e0d05d39146102d6578063fa89401a146102f657600080fd5b806301ffc9a7146100d857806307bd02651461010d5780631eba02ec1461014f578063248a9ca31461017c5780632f2ff15d146101ac57806336568abe146101ce5780633e413bee146101ee5780633ebbd0441461020e575b600080fd5b3480156100e457600080fd5b506100f86100f3366004610f86565b610316565b60405190151581526020015b60405180910390f35b34801561011957600080fd5b506101417f000000000000000000000000000000000000000000000000000000000000000081565b604051908152602001610104565b34801561015b57600080fd5b5060025461016f906001600160a01b031681565b6040516101049190610fb0565b34801561018857600080fd5b50610141610197366004610fc4565b60009081526020819052604090206001015490565b3480156101b857600080fd5b506101cc6101c7366004610ff2565b610341565b005b3480156101da57600080fd5b506101cc6101e9366004610ff2565b61036c565b3480156101fa57600080fd5b5060045461016f906001600160a01b031681565b6101cc61021c366004611022565b6103a4565b34801561022d57600080fd5b5060035461016f906001600160a01b031681565b34801561024d57600080fd5b5061016f61025c3660046110e6565b61059e565b34801561026d57600080fd5b506100f861027c366004610ff2565b6105bd565b34801561028d57600080fd5b50610141600081565b3480156102a257600080fd5b506101416102b1366004610fc4565b6105e6565b3480156102c257600080fd5b506101cc6102d1366004610ff2565b6105fd565b3480156102e257600080fd5b5060055461016f906001600160a01b031681565b34801561030257600080fd5b506101cc610311366004611108565b610622565b60006001600160e01b03198216635a05180f60e01b148061033b575061033b826106b3565b92915050565b60008281526020819052604090206001015461035c816106e8565b61036683836106f5565b50505050565b6001600160a01b03811633146103955760405163334bd91960e11b815260040160405180910390fd5b61039f828261072a565b505050565b7f00000000000000000000000000000000000000000000000000000000000000006103ce816106e8565b6103d787610757565b6103e085610757565b6002546040516000916001600160a01b03169034906104029087908790611125565b60006040518083038185875af1925050503d806000811461043f576040519150601f19603f3d011682016040523d82523d6000602084013e610444565b606091505b505090508061048d5760405162461bcd60e51b815260206004820152601060248201526f1bd91bdcc818d85b1b0819985a5b195960821b60448201526064015b60405180910390fd5b600480546040516370a0823160e01b81526000926001600160a01b03909216916370a08231916104bf91309101610fb0565b602060405180830381865afa1580156104dc573d6000803e3d6000fd5b505050506040513d601f19601f820116820180604052508101906105009190611135565b905060006105108261138861077e565b6003546004805460405163b66503cf60e01b81529394506001600160a01b039283169363b66503cf936105489392169186910161114e565b600060405180830381600087803b15801561056257600080fd5b505af1158015610576573d6000803e3d6000fd5b505050506105928a8a838561058b919061117d565b8b8b6107ea565b50505050505050505050565b60008281526001602052604081206105b690836108bc565b9392505050565b6000918252602082815260408084206001600160a01b0393909316845291905290205460ff1690565b600081815260016020526040812061033b906108c8565b600082815260208190526040902060010154610618816106e8565b610366838361072a565b600061062d816106e8565b6106af33836001600160a01b03166370a08231306040518263ffffffff1660e01b815260040161065d9190610fb0565b602060405180830381865afa15801561067a573d6000803e3d6000fd5b505050506040513d601f19601f8201168201806040525081019061069e9190611135565b6001600160a01b03851691906108d2565b5050565b60006001600160e01b03198216637965db0b60e01b148061033b57506301ffc9a760e01b6001600160e01b031983161461033b565b6106f2813361092a565b50565b6000806107028484610955565b905080156105b657600084815260016020526040902061072290846109e7565b509392505050565b60008061073784846109fc565b905080156105b65760008481526001602052604090206107229084610a67565b6001600160a01b0381166106f2576040516366385fa360e01b815260040160405180910390fd5b600061271061078d8385611190565b10156107d35760405162461bcd60e51b81526020600482015260156024820152740616d6f756e74202a20627073203e2031305f30303605c1b6044820152606401610484565b6127106107e08385611190565b6105b691906111a7565b60008060006107fb88888888610a7c565b925092509250876001600160a01b031663cbef2aa9848484886040518563ffffffff1660e01b815260040161083293929190611298565b60006040518083038185885af1158015610850573d6000803e3d6000fd5b50505050506040513d6000823e601f3d908101601f19168201604052610879919081019061143d565b50506040518791506001600160a01b038716907f8d41c8766c1135ba5f49e1a78778e75075121c93494fcd59d27c505d9814223790600090a35050505050505050565b60006105b68383610cca565b600061033b825490565b61039f83846001600160a01b031663a9059cbb85856040516024016108f892919061114e565b604051602081830303815290604052915060e01b6020820180516001600160e01b038381831617835250505050610cf4565b61093482826105bd565b6106af57808260405163e2517d3f60e01b815260040161048492919061114e565b600061096183836105bd565b6109df576000838152602081815260408083206001600160a01b03861684529091529020805460ff191660011790556109973390565b6001600160a01b0316826001600160a01b0316847f2f8788117e7eff1d82e926ec794901d17c78024a50270940304540a733656f0d60405160405180910390a450600161033b565b50600061033b565b60006105b6836001600160a01b038416610d4e565b6000610a0883836105bd565b156109df576000838152602081815260408083206001600160a01b0386168085529252808320805460ff1916905551339286917ff6391f5c32d9c69d2a47ea670b442974b53935d1edc7fd64eb21e047a839171b9190a450600161033b565b60006105b6836001600160a01b038416610d95565b6040805160e08101825260008082526020820181905291810182905260608082018390526080820181905260a0820181905260c082015260408051808201909152600080825260208201526040518060e001604052808763ffffffff168152602001610aee866001600160a01b031690565b81526020808201889052604080830189905280516000808252818401835260608501919091528151818152808401835260808501528151928301825280835260a09093019190915251630d35b41560e01b815291935088916001600160a01b03831690630d35b41590610b659087906004016114f8565b600060405180830381865afa158015610b82573d6000803e3d6000fd5b505050506040513d6000823e601f3d908101601f19168201604052610baa919081019061150b565b60208101516060880152604051633b6f743b60e01b81529093506001600160a01b0385169250633b6f743b9150610be8908790600090600401611644565b6040805180830381865afa158015610c04573d6000803e3d6000fd5b505050506040513d601f19601f82011682018060405250810190610c289190611668565b92508260000151945060006001600160a01b0316826001600160a01b031663fc0c546a6040518163ffffffff1660e01b8152600401602060405180830381865afa158015610c7a573d6000803e3d6000fd5b505050506040513d601f19601f82011682018060405250810190610c9e9190611684565b6001600160a01b031603610cbe576040840151610cbb90866116a1565b94505b50509450945094915050565b6000826000018281548110610ce157610ce16116b4565b9060005260206000200154905092915050565b6000610d096001600160a01b03841683610e88565b90508051600014158015610d2e575080806020019051810190610d2c91906116ca565b155b1561039f5782604051635274afe760e01b81526004016104849190610fb0565b60008181526001830160205260408120546109df5750815460018181018455600084815260208082209093018490558454848252828601909352604090209190915561033b565b60008181526001830160205260408120548015610e7e576000610db960018361117d565b8554909150600090610dcd9060019061117d565b9050808214610e32576000866000018281548110610ded57610ded6116b4565b9060005260206000200154905080876000018481548110610e1057610e106116b4565b6000918252602080832090910192909255918252600188019052604090208390555b8554869080610e4357610e436116ec565b60019003818190600052602060002001600090559055856001016000868152602001908152602001600020600090556001935050505061033b565b600091505061033b565b60606105b68383600084600080856001600160a01b03168486604051610eae9190611702565b60006040518083038185875af1925050503d8060008114610eeb576040519150601f19603f3d011682016040523d82523d6000602084013e610ef0565b606091505b5091509150610f00868383610f0a565b9695505050505050565b606082610f1f57610f1a82610f5d565b6105b6565b8151158015610f3657506001600160a01b0384163b155b15610f565783604051639996b31560e01b81526004016104849190610fb0565b50806105b6565b805115610f6d5780518082602001fd5b604051630a12f52160e11b815260040160405180910390fd5b600060208284031215610f9857600080fd5b81356001600160e01b0319811681146105b657600080fd5b6001600160a01b0391909116815260200190565b600060208284031215610fd657600080fd5b5035919050565b6001600160a01b03811681146106f257600080fd5b6000806040838503121561100557600080fd5b82359150602083013561101781610fdd565b809150509250929050565b60008060008060008060a0878903121561103b57600080fd5b863561104681610fdd565b9550602087013563ffffffff8116811461105f57600080fd5b9450604087013561106f81610fdd565b9350606087013561107f81610fdd565b925060808701356001600160401b038082111561109b57600080fd5b818901915089601f8301126110af57600080fd5b8135818111156110be57600080fd5b8a60208285010111156110d057600080fd5b6020830194508093505050509295509295509295565b600080604083850312156110f957600080fd5b50508035926020909101359150565b60006020828403121561111a57600080fd5b81356105b681610fdd565b8183823760009101908152919050565b60006020828403121561114757600080fd5b5051919050565b6001600160a01b03929092168252602082015260400190565b634e487b7160e01b600052601160045260246000fd5b8181038181111561033b5761033b611167565b808202811582820484141761033b5761033b611167565b6000826111c457634e487b7160e01b600052601260045260246000fd5b500490565b60005b838110156111e45781810151838201526020016111cc565b50506000910152565b600081518084526112058160208601602086016111c9565b601f01601f19169290920160200192915050565b63ffffffff81511682526020810151602083015260408101516040830152606081015160608301526000608082015160e0608085015261125c60e08501826111ed565b905060a083015184820360a086015261127582826111ed565b91505060c083015184820360c086015261128f82826111ed565b95945050505050565b6080815260006112ab6080830186611219565b8451602084810191909152909401516040830152506001600160a01b0391909116606090910152919050565b634e487b7160e01b600052604160045260246000fd5b604080519081016001600160401b038111828210171561130f5761130f6112d7565b60405290565b604051601f8201601f191681016001600160401b038111828210171561133d5761133d6112d7565b604052919050565b60006040828403121561135757600080fd5b61135f6112ed565b9050815181526020820151602082015292915050565b60006001600160401b0383111561138e5761138e6112d7565b6113a1601f8401601f1916602001611315565b90508281528383830111156113b557600080fd5b6105b68360208301846111c9565b6000604082840312156113d557600080fd5b6113dd6112ed565b9050815166ffffffffffffff811681146113f657600080fd5b815260208201516001600160401b0381111561141157600080fd5b8201601f8101841361142257600080fd5b61143184825160208401611375565b60208301525092915050565b600080600083850360e081121561145357600080fd5b608081121561146157600080fd5b50604051606081016001600160401b038282108183111715611485576114856112d7565b81604052865183526020870151915080821682146114a257600080fd5b8160208401526114b58860408901611345565b60408401528295506114ca8860808901611345565b945060c08701519250808311156114e057600080fd5b50506114ee868287016113c3565b9150509250925092565b6020815260006105b66020830184611219565b600080600060a0848603121561152057600080fd5b61152a8585611345565b925060408401516001600160401b038082111561154657600080fd5b818601915086601f83011261155a57600080fd5b815160208282111561156e5761156e6112d7565b8160051b61157d828201611315565b928352848101820192828101908b85111561159757600080fd5b83870192505b84831015611624578251868111156115b457600080fd5b87016040818e03601f190112156115ca57600080fd5b6115d26112ed565b8582015181526040820151888111156115ea57600080fd5b8083019250508d603f8301126115ff57600080fd5b6116108e8784015160408501611375565b81870152835250918301919083019061159d565b8098505050505050505061163b8560608601611345565b90509250925092565b6040815260006116576040830185611219565b905082151560208301529392505050565b60006040828403121561167a57600080fd5b6105b68383611345565b60006020828403121561169657600080fd5b81516105b681610fdd565b8082018082111561033b5761033b611167565b634e487b7160e01b600052603260045260246000fd5b6000602082840312156116dc57600080fd5b815180151581146105b657600080fd5b634e487b7160e01b600052603160045260246000fd5b600082516117148184602087016111c9565b919091019291505056fea26469706673582212209b2d67aff7bb4f3ec6019e199eac8506a88f691c8fe92159f7b1f8e0e9d7907464736f6c63430008150033",
  "devdoc": {
    "details": "The contract is upgradeable and inherits `Ownable2StepUpgradeable`. It supports setting an ODOS router,      defining sZAI and USDC tokens, and has functions for swapping and cross-chain revenue distribution.",
    "errors": {
      "AccessControlBadConfirmation()": [
        {
          "details": "The caller of a function is not the expected one. NOTE: Don't confuse with {AccessControlUnauthorizedAccount}."
        }
      ],
      "AccessControlUnauthorizedAccount(address,bytes32)": [
        {
          "details": "The `account` is missing a role."
        }
      ],
      "AddressEmptyCode(address)": [
        {
          "details": "There's no code at `target` (it is not a contract)."
        }
      ],
      "AddressInsufficientBalance(address)": [
        {
          "details": "The ETH balance of the account is not enough to perform the operation."
        }
      ],
      "FailedInnerCall()": [
        {
          "details": "A call to an address target failed. The target may have reverted."
        }
      ],
      "SafeERC20FailedOperation(address)": [
        {
          "details": "An operation with an ERC20 token failed."
        }
      ]
    },
    "events": {
      "RevenueDistributed(address,uint256)": {
        "params": {
          "amount": "The amount of revenue distributed in USDC.",
          "receiver": "The address that receives the distributed revenue."
        }
      },
      "RoleAdminChanged(bytes32,bytes32,bytes32)": {
        "details": "Emitted when `newAdminRole` is set as ``role``'s admin role, replacing `previousAdminRole` `DEFAULT_ADMIN_ROLE` is the starting admin for all roles, despite {RoleAdminChanged} not being emitted signaling this."
      },
      "RoleGranted(bytes32,address,address)": {
        "details": "Emitted when `account` is granted `role`. `sender` is the account that originated the contract call, an admin role bearer except when using {AccessControl-_setupRole}."
      },
      "RoleRevoked(bytes32,address,address)": {
        "details": "Emitted when `account` is revoked `role`. `sender` is the account that originated the contract call:   - if using `revokeRole`, it is the admin role bearer   - if using `renounceRole`, it is the role bearer (i.e. `account`)"
      }
    },
    "kind": "dev",
    "methods": {
      "constructor": {
        "details": "Ensures non-zero addresses for essential contracts, initializes the owner, and sets the ODOS router.",
        "params": {
          "_odos": "Address of the ODOS router.",
          "_sZAI": "Address of the sZAI token contract.",
          "_usdc": "Address of the USDC token contract."
        }
      },
      "distributeRevenue(address,uint32,address,address,bytes)": {
        "details": "Calls `_swapsUSDeToUSDC` if `odos` calldata is provided. Then calculates 50% of the USDC balance      and transfers it to the sZAI contract, subsequently calling `_distributeRevenue`.",
        "params": {
          "_destinationEndPoint": "The endpoint identifier for the Stargate pool.",
          "_odos": "Optional calldata to perform a swap from sZAI to USDC if provided.",
          "_receiver": "The address that will receive the distributed revenue.",
          "_refundAddress": "The address to receive any excess funds from fees etc. on the source chain.",
          "_stargateUSDCPool": "The address of the Stargate USDC pool."
        }
      },
      "getRoleAdmin(bytes32)": {
        "details": "Returns the admin role that controls `role`. See {grantRole} and {revokeRole}. To change a role's admin, use {_setRoleAdmin}."
      },
      "getRoleMember(bytes32,uint256)": {
        "details": "Returns one of the accounts that have `role`. `index` must be a value between 0 and {getRoleMemberCount}, non-inclusive. Role bearers are not sorted in any particular way, and their ordering may change at any point. WARNING: When using {getRoleMember} and {getRoleMemberCount}, make sure you perform all queries on the same block. See the following https://forum.openzeppelin.com/t/iterating-over-elements-on-enumerableset-in-openzeppelin-contracts/2296[forum post] for more information."
      },
      "getRoleMemberCount(bytes32)": {
        "details": "Returns the number of accounts that have `role`. Can be used together with {getRoleMember} to enumerate all bearers of a role."
      },
      "grantRole(bytes32,address)": {
        "details": "Grants `role` to `account`. If `account` had not been already granted `role`, emits a {RoleGranted} event. Requirements: - the caller must have ``role``'s admin role. May emit a {RoleGranted} event."
      },
      "hasRole(bytes32,address)": {
        "details": "Returns `true` if `account` has been granted `role`."
      },
      "refund(address)": {
        "details": "Only callable by owner of the contract",
        "params": {
          "token": "The ERC20 token to be refunded."
        }
      },
      "renounceRole(bytes32,address)": {
        "details": "Revokes `role` from the calling account. Roles are often managed via {grantRole} and {revokeRole}: this function's purpose is to provide a mechanism for accounts to lose their privileges if they are compromised (such as when a trusted device is misplaced). If the calling account had been revoked `role`, emits a {RoleRevoked} event. Requirements: - the caller must be `callerConfirmation`. May emit a {RoleRevoked} event."
      },
      "revokeRole(bytes32,address)": {
        "details": "Revokes `role` from `account`. If `account` had been granted `role`, emits a {RoleRevoked} event. Requirements: - the caller must have ``role``'s admin role. May emit a {RoleRevoked} event."
      },
      "supportsInterface(bytes4)": {
        "details": "See {IERC165-supportsInterface}."
      }
    },
    "title": "SUSDECollectorCron",
    "version": 1
  },
  "userdoc": {
    "errors": {
      "NotZeroAddress()": [
        {
          "notice": "Error when address is not set"
        }
      ]
    },
    "events": {
      "RevenueDistributed(address,uint256)": {
        "notice": "Emitted when revenue is distributed to a receiver."
      }
    },
    "kind": "user",
    "methods": {
      "constructor": {
        "notice": "Initializes the contract with addresses for the ODOS router, sZAI, and USDC tokens."
      },
      "distributeRevenue(address,uint32,address,address,bytes)": {
        "notice": "Distributes revenue by transferring 50% of the contract's current USDC balance.         If `_odos` calldata is provided, it performs a swap from sZAI to USDC before distribution."
      },
      "odos()": {
        "notice": "Address of the ODOS router for executing swaps."
      },
      "refund(address)": {
        "notice": "Refunds the specified token balance held by the contract to the caller."
      },
      "sUSDe()": {
        "notice": "Interface for the sUSDe token contract."
      },
      "sZAI()": {
        "notice": "Address of the sZAI token contract."
      },
      "usdc()": {
        "notice": "Interface for the USDC token contract."
      }
    },
    "notice": "A contract that manages revenue distribution through USDC transfers, using Stargate for cross-chain messaging         and optionally performing swaps via the ODOS router.",
    "version": 1
  },
  "storageLayout": {
    "storage": [
      {
        "astId": 11253,
        "contract": "contracts/periphery/crons/sUSDeCollectorCron.sol:sUSDeCollectorCron",
        "label": "_roles",
        "offset": 0,
        "slot": "0",
        "type": "t_mapping(t_bytes32,t_struct(RoleData)11248_storage)"
      },
      {
        "astId": 12492,
        "contract": "contracts/periphery/crons/sUSDeCollectorCron.sol:sUSDeCollectorCron",
        "label": "_roleMembers",
        "offset": 0,
        "slot": "1",
        "type": "t_mapping(t_bytes32,t_struct(AddressSet)24575_storage)"
      },
      {
        "astId": 40854,
        "contract": "contracts/periphery/crons/sUSDeCollectorCron.sol:sUSDeCollectorCron",
        "label": "odos",
        "offset": 0,
        "slot": "2",
        "type": "t_address"
      },
      {
        "astId": 40858,
        "contract": "contracts/periphery/crons/sUSDeCollectorCron.sol:sUSDeCollectorCron",
        "label": "sZAI",
        "offset": 0,
        "slot": "3",
        "type": "t_contract(IMultiStakingRewardsERC4626)35187"
      },
      {
        "astId": 40862,
        "contract": "contracts/periphery/crons/sUSDeCollectorCron.sol:sUSDeCollectorCron",
        "label": "usdc",
        "offset": 0,
        "slot": "4",
        "type": "t_contract(IERC20)15836"
      },
      {
        "astId": 40866,
        "contract": "contracts/periphery/crons/sUSDeCollectorCron.sol:sUSDeCollectorCron",
        "label": "sUSDe",
        "offset": 0,
        "slot": "5",
        "type": "t_contract(IERC20)15836"
      }
    ],
    "types": {
      "t_address": {
        "encoding": "inplace",
        "label": "address",
        "numberOfBytes": "20"
      },
      "t_array(t_bytes32)dyn_storage": {
        "base": "t_bytes32",
        "encoding": "dynamic_array",
        "label": "bytes32[]",
        "numberOfBytes": "32"
      },
      "t_bool": {
        "encoding": "inplace",
        "label": "bool",
        "numberOfBytes": "1"
      },
      "t_bytes32": {
        "encoding": "inplace",
        "label": "bytes32",
        "numberOfBytes": "32"
      },
      "t_contract(IERC20)15836": {
        "encoding": "inplace",
        "label": "contract IERC20",
        "numberOfBytes": "20"
      },
      "t_contract(IMultiStakingRewardsERC4626)35187": {
        "encoding": "inplace",
        "label": "contract IMultiStakingRewardsERC4626",
        "numberOfBytes": "20"
      },
      "t_mapping(t_address,t_bool)": {
        "encoding": "mapping",
        "key": "t_address",
        "label": "mapping(address => bool)",
        "numberOfBytes": "32",
        "value": "t_bool"
      },
      "t_mapping(t_bytes32,t_struct(AddressSet)24575_storage)": {
        "encoding": "mapping",
        "key": "t_bytes32",
        "label": "mapping(bytes32 => struct EnumerableSet.AddressSet)",
        "numberOfBytes": "32",
        "value": "t_struct(AddressSet)24575_storage"
      },
      "t_mapping(t_bytes32,t_struct(RoleData)11248_storage)": {
        "encoding": "mapping",
        "key": "t_bytes32",
        "label": "mapping(bytes32 => struct AccessControl.RoleData)",
        "numberOfBytes": "32",
        "value": "t_struct(RoleData)11248_storage"
      },
      "t_mapping(t_bytes32,t_uint256)": {
        "encoding": "mapping",
        "key": "t_bytes32",
        "label": "mapping(bytes32 => uint256)",
        "numberOfBytes": "32",
        "value": "t_uint256"
      },
      "t_struct(AddressSet)24575_storage": {
        "encoding": "inplace",
        "label": "struct EnumerableSet.AddressSet",
        "members": [
          {
            "astId": 24574,
            "contract": "contracts/periphery/crons/sUSDeCollectorCron.sol:sUSDeCollectorCron",
            "label": "_inner",
            "offset": 0,
            "slot": "0",
            "type": "t_struct(Set)24260_storage"
          }
        ],
        "numberOfBytes": "64"
      },
      "t_struct(RoleData)11248_storage": {
        "encoding": "inplace",
        "label": "struct AccessControl.RoleData",
        "members": [
          {
            "astId": 11245,
            "contract": "contracts/periphery/crons/sUSDeCollectorCron.sol:sUSDeCollectorCron",
            "label": "hasRole",
            "offset": 0,
            "slot": "0",
            "type": "t_mapping(t_address,t_bool)"
          },
          {
            "astId": 11247,
            "contract": "contracts/periphery/crons/sUSDeCollectorCron.sol:sUSDeCollectorCron",
            "label": "adminRole",
            "offset": 0,
            "slot": "1",
            "type": "t_bytes32"
          }
        ],
        "numberOfBytes": "64"
      },
      "t_struct(Set)24260_storage": {
        "encoding": "inplace",
        "label": "struct EnumerableSet.Set",
        "members": [
          {
            "astId": 24255,
            "contract": "contracts/periphery/crons/sUSDeCollectorCron.sol:sUSDeCollectorCron",
            "label": "_values",
            "offset": 0,
            "slot": "0",
            "type": "t_array(t_bytes32)dyn_storage"
          },
          {
            "astId": 24259,
            "contract": "contracts/periphery/crons/sUSDeCollectorCron.sol:sUSDeCollectorCron",
            "label": "_positions",
            "offset": 0,
            "slot": "1",
            "type": "t_mapping(t_bytes32,t_uint256)"
          }
        ],
        "numberOfBytes": "64"
      },
      "t_uint256": {
        "encoding": "inplace",
        "label": "uint256",
        "numberOfBytes": "32"
      }
    }
  }
}