{
  "address": "0x47a1E414E176b5D06700D2292A0bd5c976a1487b",
  "abi": [
    {
      "inputs": [
        {
          "internalType": "address",
          "name": "_odos",
          "type": "address"
        },
        {
          "internalType": "address",
          "name": "_sZAI",
          "type": "address"
        },
        {
          "internalType": "address",
          "name": "_sUSDe",
          "type": "address"
        },
        {
          "internalType": "address",
          "name": "_adapter",
          "type": "address"
        }
      ],
      "stateMutability": "nonpayable",
      "type": "constructor"
    },
    {
      "inputs": [],
      "name": "AccessControlBadConfirmation",
      "type": "error"
    },
    {
      "inputs": [
        {
          "internalType": "address",
          "name": "account",
          "type": "address"
        },
        {
          "internalType": "bytes32",
          "name": "neededRole",
          "type": "bytes32"
        }
      ],
      "name": "AccessControlUnauthorizedAccount",
      "type": "error"
    },
    {
      "inputs": [
        {
          "internalType": "address",
          "name": "target",
          "type": "address"
        }
      ],
      "name": "AddressEmptyCode",
      "type": "error"
    },
    {
      "inputs": [
        {
          "internalType": "address",
          "name": "account",
          "type": "address"
        }
      ],
      "name": "AddressInsufficientBalance",
      "type": "error"
    },
    {
      "inputs": [],
      "name": "FailedInnerCall",
      "type": "error"
    },
    {
      "inputs": [
        {
          "internalType": "address",
          "name": "token",
          "type": "address"
        }
      ],
      "name": "SafeERC20FailedOperation",
      "type": "error"
    },
    {
      "anonymous": false,
      "inputs": [
        {
          "indexed": true,
          "internalType": "uint256",
          "name": "amount",
          "type": "uint256"
        }
      ],
      "name": "RevenueCollected",
      "type": "event"
    },
    {
      "anonymous": false,
      "inputs": [
        {
          "indexed": true,
          "internalType": "address",
          "name": "receiver",
          "type": "address"
        },
        {
          "indexed": true,
          "internalType": "uint256",
          "name": "amount",
          "type": "uint256"
        }
      ],
      "name": "RevenueDistributed",
      "type": "event"
    },
    {
      "anonymous": false,
      "inputs": [
        {
          "indexed": true,
          "internalType": "bytes32",
          "name": "role",
          "type": "bytes32"
        },
        {
          "indexed": true,
          "internalType": "bytes32",
          "name": "previousAdminRole",
          "type": "bytes32"
        },
        {
          "indexed": true,
          "internalType": "bytes32",
          "name": "newAdminRole",
          "type": "bytes32"
        }
      ],
      "name": "RoleAdminChanged",
      "type": "event"
    },
    {
      "anonymous": false,
      "inputs": [
        {
          "indexed": true,
          "internalType": "bytes32",
          "name": "role",
          "type": "bytes32"
        },
        {
          "indexed": true,
          "internalType": "address",
          "name": "account",
          "type": "address"
        },
        {
          "indexed": true,
          "internalType": "address",
          "name": "sender",
          "type": "address"
        }
      ],
      "name": "RoleGranted",
      "type": "event"
    },
    {
      "anonymous": false,
      "inputs": [
        {
          "indexed": true,
          "internalType": "bytes32",
          "name": "role",
          "type": "bytes32"
        },
        {
          "indexed": true,
          "internalType": "address",
          "name": "account",
          "type": "address"
        },
        {
          "indexed": true,
          "internalType": "address",
          "name": "sender",
          "type": "address"
        }
      ],
      "name": "RoleRevoked",
      "type": "event"
    },
    {
      "inputs": [],
      "name": "DEFAULT_ADMIN_ROLE",
      "outputs": [
        {
          "internalType": "bytes32",
          "name": "",
          "type": "bytes32"
        }
      ],
      "stateMutability": "view",
      "type": "function"
    },
    {
      "inputs": [],
      "name": "EXECUTOR_ROLE",
      "outputs": [
        {
          "internalType": "bytes32",
          "name": "",
          "type": "bytes32"
        }
      ],
      "stateMutability": "view",
      "type": "function"
    },
    {
      "inputs": [],
      "name": "ODOS",
      "outputs": [
        {
          "internalType": "address",
          "name": "",
          "type": "address"
        }
      ],
      "stateMutability": "view",
      "type": "function"
    },
    {
      "inputs": [],
      "name": "OFT_ADAPTER",
      "outputs": [
        {
          "internalType": "contract IOFT",
          "name": "",
          "type": "address"
        }
      ],
      "stateMutability": "view",
      "type": "function"
    },
    {
      "inputs": [],
      "name": "SUSDE",
      "outputs": [
        {
          "internalType": "contract IERC20",
          "name": "",
          "type": "address"
        }
      ],
      "stateMutability": "view",
      "type": "function"
    },
    {
      "inputs": [],
      "name": "SZAI",
      "outputs": [
        {
          "internalType": "contract IERC4626",
          "name": "",
          "type": "address"
        }
      ],
      "stateMutability": "view",
      "type": "function"
    },
    {
      "inputs": [],
      "name": "ZAI",
      "outputs": [
        {
          "internalType": "contract IERC20",
          "name": "",
          "type": "address"
        }
      ],
      "stateMutability": "view",
      "type": "function"
    },
    {
      "inputs": [
        {
          "internalType": "bytes",
          "name": "data",
          "type": "bytes"
        }
      ],
      "name": "execute",
      "outputs": [],
      "stateMutability": "payable",
      "type": "function"
    },
    {
      "inputs": [
        {
          "internalType": "bytes32",
          "name": "role",
          "type": "bytes32"
        }
      ],
      "name": "getRoleAdmin",
      "outputs": [
        {
          "internalType": "bytes32",
          "name": "",
          "type": "bytes32"
        }
      ],
      "stateMutability": "view",
      "type": "function"
    },
    {
      "inputs": [
        {
          "internalType": "bytes32",
          "name": "role",
          "type": "bytes32"
        },
        {
          "internalType": "uint256",
          "name": "index",
          "type": "uint256"
        }
      ],
      "name": "getRoleMember",
      "outputs": [
        {
          "internalType": "address",
          "name": "",
          "type": "address"
        }
      ],
      "stateMutability": "view",
      "type": "function"
    },
    {
      "inputs": [
        {
          "internalType": "bytes32",
          "name": "role",
          "type": "bytes32"
        }
      ],
      "name": "getRoleMemberCount",
      "outputs": [
        {
          "internalType": "uint256",
          "name": "",
          "type": "uint256"
        }
      ],
      "stateMutability": "view",
      "type": "function"
    },
    {
      "inputs": [
        {
          "internalType": "bytes32",
          "name": "role",
          "type": "bytes32"
        },
        {
          "internalType": "address",
          "name": "account",
          "type": "address"
        }
      ],
      "name": "grantRole",
      "outputs": [],
      "stateMutability": "nonpayable",
      "type": "function"
    },
    {
      "inputs": [
        {
          "internalType": "bytes32",
          "name": "role",
          "type": "bytes32"
        },
        {
          "internalType": "address",
          "name": "account",
          "type": "address"
        }
      ],
      "name": "hasRole",
      "outputs": [
        {
          "internalType": "bool",
          "name": "",
          "type": "bool"
        }
      ],
      "stateMutability": "view",
      "type": "function"
    },
    {
      "inputs": [
        {
          "internalType": "contract IERC20",
          "name": "token",
          "type": "address"
        }
      ],
      "name": "refund",
      "outputs": [],
      "stateMutability": "nonpayable",
      "type": "function"
    },
    {
      "inputs": [],
      "name": "remoteDestination",
      "outputs": [
        {
          "internalType": "address",
          "name": "",
          "type": "address"
        }
      ],
      "stateMutability": "view",
      "type": "function"
    },
    {
      "inputs": [],
      "name": "remoteEID",
      "outputs": [
        {
          "internalType": "uint32",
          "name": "",
          "type": "uint32"
        }
      ],
      "stateMutability": "view",
      "type": "function"
    },
    {
      "inputs": [
        {
          "internalType": "bytes32",
          "name": "role",
          "type": "bytes32"
        },
        {
          "internalType": "address",
          "name": "callerConfirmation",
          "type": "address"
        }
      ],
      "name": "renounceRole",
      "outputs": [],
      "stateMutability": "nonpayable",
      "type": "function"
    },
    {
      "inputs": [
        {
          "internalType": "bytes32",
          "name": "role",
          "type": "bytes32"
        },
        {
          "internalType": "address",
          "name": "account",
          "type": "address"
        }
      ],
      "name": "revokeRole",
      "outputs": [],
      "stateMutability": "nonpayable",
      "type": "function"
    },
    {
      "inputs": [
        {
          "internalType": "address",
          "name": "_treasury",
          "type": "address"
        },
        {
          "internalType": "address",
          "name": "_remoteAddr",
          "type": "address"
        },
        {
          "internalType": "uint32",
          "name": "_dstEID",
          "type": "uint32"
        }
      ],
      "name": "setDestinationAddresses",
      "outputs": [],
      "stateMutability": "nonpayable",
      "type": "function"
    },
    {
      "inputs": [
        {
          "internalType": "bytes4",
          "name": "interfaceId",
          "type": "bytes4"
        }
      ],
      "name": "supportsInterface",
      "outputs": [
        {
          "internalType": "bool",
          "name": "",
          "type": "bool"
        }
      ],
      "stateMutability": "view",
      "type": "function"
    },
    {
      "inputs": [],
      "name": "treasury",
      "outputs": [
        {
          "internalType": "address",
          "name": "",
          "type": "address"
        }
      ],
      "stateMutability": "view",
      "type": "function"
    }
  ],
  "transactionHash": "0xcd210015ab4a85ee4c42c7b7de711e018bff3928d4cb34cd51ea17e9bf9f40bb",
  "args": [
    "0xcf5540fffcdc3d510b18bfca6d2b9987b0772559",
    "0x69000195D5e3201Cf73C9Ae4a1559244DF38D47C",
    "0x9D39A5DE30e57443BfF2A8307A4256c8797A3497",
    "0x557177Aa5F5303dED2fa56b413631bAb22a73872"
  ],
  "numDeployments": 1,
  "solcInputHash": "7dd21d2f7424db6d5b1fc667d59ecac8",
  "bytecode": "0x6101406040527fd8aa0f3194971a2a116679f7c2090f6939c8d4e01a2a8d7e41d55e5351469e636080523480156200003657600080fd5b50604051620018413803806200184183398101604081905262000059916200036d565b6001600160a01b0380841660c081905290831661012052604080516338d52e0f60e01b815290516338d52e0f916004808201926020929091908290030181865afa158015620000ac573d6000803e3d6000fd5b505050506040513d601f19601f82011682018060405250810190620000d29190620003ca565b6001600160a01b039081166101005284811660a081905282821660e0526101205160405163095ea7b360e01b8152600481019290925260001960248301529091169063095ea7b3906044016020604051808303816000875af11580156200013d573d6000803e3d6000fd5b505050506040513d601f19601f82011682018060405250810190620001639190620003e8565b506101005160e05160405163095ea7b360e01b81526001600160a01b039182166004820152600019602482015291169063095ea7b3906044016020604051808303816000875af1158015620001bc573d6000803e3d6000fd5b505050506040513d601f19601f82011682018060405250810190620001e29190620003e8565b50620001f06000336200020b565b506080516200020090336200020b565b50505050506200040c565b6000806200021a848462000248565b905080156200023f5760008481526001602052604090206200023d9084620002f6565b505b90505b92915050565b6000828152602081815260408083206001600160a01b038516845290915281205460ff16620002ed576000838152602081815260408083206001600160a01b03861684529091529020805460ff19166001179055620002a43390565b6001600160a01b0316826001600160a01b0316847f2f8788117e7eff1d82e926ec794901d17c78024a50270940304540a733656f0d60405160405180910390a450600162000242565b50600062000242565b60006200023f836001600160a01b0384166000818152600183016020526040812054620002ed5750815460018181018455600084815260208082209093018490558454848252828601909352604090209190915562000242565b80516001600160a01b03811681146200036857600080fd5b919050565b600080600080608085870312156200038457600080fd5b6200038f8562000350565b93506200039f6020860162000350565b9250620003af6040860162000350565b9150620003bf6060860162000350565b905092959194509250565b600060208284031215620003dd57600080fd5b6200023f8262000350565b600060208284031215620003fb57600080fd5b815180151581146200023f57600080fd5b60805160a05160c05160e05161010051610120516113a66200049b600039600061023d015260008181610408015281816105c10152818161068d0152818161079401526108890152600061034b0152600081816103d4015281816106ba0152818161073701526107c10152600081816102d701526104e301526000818161017601526104b701526113a66000f3fe60806040526004361061012a5760003560e01c806361d027b3116100ab578063a217fddf1161006f578063a217fddf146103ad578063a4dbd793146103c2578063c30df586146103f6578063ca15c8731461042a578063d547741f1461044a578063fa89401a1461046a57600080fd5b806361d027b3146102f957806361f7eb01146103195780637f2208f6146103395780639010d07c1461036d57806391d148541461038d57600080fd5b80633010b60e116100f25780633010b60e1461020b578063307121091461022b5780633289e6681461026c57806336568abe146102a557806349df106b146102c557600080fd5b806301ffc9a71461012f57806307bd02651461016457806309c5eabe146101a6578063248a9ca3146101bb5780632f2ff15d146101eb575b600080fd5b34801561013b57600080fd5b5061014f61014a36600461108e565b61048a565b60405190151581526020015b60405180910390f35b34801561017057600080fd5b506101987f000000000000000000000000000000000000000000000000000000000000000081565b60405190815260200161015b565b6101b96101b43660046110b8565b6104b5565b005b3480156101c757600080fd5b506101986101d636600461112a565b60009081526020819052604090206001015490565b3480156101f757600080fd5b506101b9610206366004611158565b610935565b34801561021757600080fd5b506101b9610226366004611188565b610960565b34801561023757600080fd5b5061025f7f000000000000000000000000000000000000000000000000000000000000000081565b60405161015b91906111dc565b34801561027857600080fd5b5060035461029090600160a01b900463ffffffff1681565b60405163ffffffff909116815260200161015b565b3480156102b157600080fd5b506101b96102c0366004611158565b6109b5565b3480156102d157600080fd5b5061025f7f000000000000000000000000000000000000000000000000000000000000000081565b34801561030557600080fd5b5060025461025f906001600160a01b031681565b34801561032557600080fd5b5060035461025f906001600160a01b031681565b34801561034557600080fd5b5061025f7f000000000000000000000000000000000000000000000000000000000000000081565b34801561037957600080fd5b5061025f6103883660046111f0565b6109ed565b34801561039957600080fd5b5061014f6103a8366004611158565b610a0c565b3480156103b957600080fd5b50610198600081565b3480156103ce57600080fd5b5061025f7f000000000000000000000000000000000000000000000000000000000000000081565b34801561040257600080fd5b5061025f7f000000000000000000000000000000000000000000000000000000000000000081565b34801561043657600080fd5b5061019861044536600461112a565b610a35565b34801561045657600080fd5b506101b9610465366004611158565b610a4c565b34801561047657600080fd5b506101b9610485366004611212565b610a71565b60006001600160e01b03198216635a05180f60e01b14806104af57506104af82610b02565b92915050565b7f00000000000000000000000000000000000000000000000000000000000000006104df81610b37565b60007f00000000000000000000000000000000000000000000000000000000000000006001600160a01b031634858560405161051c92919061122f565b60006040518083038185875af1925050503d8060008114610559576040519150601f19603f3d011682016040523d82523d6000602084013e61055e565b606091505b50509050806105a75760405162461bcd60e51b815260206004820152601060248201526f1bd91bdcc818d85b1b0819985a5b195960821b60448201526064015b60405180910390fd5b6040516370a0823160e01b81526000906001600160a01b037f000000000000000000000000000000000000000000000000000000000000000016906370a08231906105f69030906004016111dc565b602060405180830381865afa158015610613573d6000803e3d6000fd5b505050506040513d601f19601f82011682018060405250810190610637919061123f565b60405190915081907f57af161438f8fdc89d286da9e49368f4583497e141ba2de6efa3977569193f0b90600090a2600061067382611b58610b44565b60405163a9059cbb60e01b81529091506001600160a01b037f0000000000000000000000000000000000000000000000000000000000000000169063a9059cbb906106e4907f0000000000000000000000000000000000000000000000000000000000000000908590600401611258565b6020604051808303816000875af1158015610703573d6000803e3d6000fd5b505050506040513d601f19601f820116820180604052508101906107279190611271565b5060405181906001600160a01b037f0000000000000000000000000000000000000000000000000000000000000000169060008051602061135183398151915290600090a3600061077a836107d0610b44565b60405163a9059cbb60e01b81529091506001600160a01b037f0000000000000000000000000000000000000000000000000000000000000000169063a9059cbb906107eb907f0000000000000000000000000000000000000000000000000000000000000000908590600401611258565b6020604051808303816000875af115801561080a573d6000803e3d6000fd5b505050506040513d601f19601f8201168201806040525081019061082e9190611271565b5060035460405182916001600160a01b03169060008051602061135183398151915290600090a360008161086284866112a9565b61086c91906112a9565b60025460405163a9059cbb60e01b81529192506001600160a01b037f000000000000000000000000000000000000000000000000000000000000000081169263a9059cbb926108c19216908590600401611258565b6020604051808303816000875af11580156108e0573d6000803e3d6000fd5b505050506040513d601f19601f820116820180604052508101906109049190611271565b5060025460405182916001600160a01b03169060008051602061135183398151915290600090a35050505050505050565b60008281526020819052604090206001015461095081610b37565b61095a8383610bb0565b50505050565b600061096b81610b37565b50600280546001600160a01b039485166001600160a01b03199091161790556003805463ffffffff909216600160a01b026001600160c01b03199092169290931691909117179055565b6001600160a01b03811633146109de5760405163334bd91960e11b815260040160405180910390fd5b6109e88282610be5565b505050565b6000828152600160205260408120610a059083610c12565b9392505050565b6000918252602082815260408084206001600160a01b0393909316845291905290205460ff1690565b60008181526001602052604081206104af90610c1e565b600082815260208190526040902060010154610a6781610b37565b61095a8383610be5565b6000610a7c81610b37565b610afe33836001600160a01b03166370a08231306040518263ffffffff1660e01b8152600401610aac91906111dc565b602060405180830381865afa158015610ac9573d6000803e3d6000fd5b505050506040513d601f19601f82011682018060405250810190610aed919061123f565b6001600160a01b0385169190610c28565b5050565b60006001600160e01b03198216637965db0b60e01b14806104af57506301ffc9a760e01b6001600160e01b03198316146104af565b610b418133610c80565b50565b6000612710610b5383856112bc565b1015610b995760405162461bcd60e51b81526020600482015260156024820152740616d6f756e74202a20627073203e2031305f30303605c1b604482015260640161059e565b612710610ba683856112bc565b610a0591906112d3565b600080610bbd8484610cab565b90508015610a05576000848152600160205260409020610bdd9084610d3d565b509392505050565b600080610bf28484610d52565b90508015610a05576000848152600160205260409020610bdd9084610dbd565b6000610a058383610dd2565b60006104af825490565b6109e883846001600160a01b031663a9059cbb8585604051602401610c4e929190611258565b604051602081830303815290604052915060e01b6020820180516001600160e01b038381831617835250505050610dfc565b610c8a8282610a0c565b610afe57808260405163e2517d3f60e01b815260040161059e929190611258565b6000610cb78383610a0c565b610d35576000838152602081815260408083206001600160a01b03861684529091529020805460ff19166001179055610ced3390565b6001600160a01b0316826001600160a01b0316847f2f8788117e7eff1d82e926ec794901d17c78024a50270940304540a733656f0d60405160405180910390a45060016104af565b5060006104af565b6000610a05836001600160a01b038416610e56565b6000610d5e8383610a0c565b15610d35576000838152602081815260408083206001600160a01b0386168085529252808320805460ff1916905551339286917ff6391f5c32d9c69d2a47ea670b442974b53935d1edc7fd64eb21e047a839171b9190a45060016104af565b6000610a05836001600160a01b038416610e9d565b6000826000018281548110610de957610de96112f5565b9060005260206000200154905092915050565b6000610e116001600160a01b03841683610f90565b90508051600014158015610e36575080806020019051810190610e349190611271565b155b156109e85782604051635274afe760e01b815260040161059e91906111dc565b6000818152600183016020526040812054610d35575081546001818101845560008481526020808220909301849055845484825282860190935260409020919091556104af565b60008181526001830160205260408120548015610f86576000610ec16001836112a9565b8554909150600090610ed5906001906112a9565b9050808214610f3a576000866000018281548110610ef557610ef56112f5565b9060005260206000200154905080876000018481548110610f1857610f186112f5565b6000918252602080832090910192909255918252600188019052604090208390555b8554869080610f4b57610f4b61130b565b6001900381819060005260206000200160009055905585600101600086815260200190815260200160002060009055600193505050506104af565b60009150506104af565b6060610a058383600084600080856001600160a01b03168486604051610fb69190611321565b60006040518083038185875af1925050503d8060008114610ff3576040519150601f19603f3d011682016040523d82523d6000602084013e610ff8565b606091505b5091509150611008868383611012565b9695505050505050565b6060826110275761102282611065565b610a05565b815115801561103e57506001600160a01b0384163b155b1561105e5783604051639996b31560e01b815260040161059e91906111dc565b5080610a05565b8051156110755780518082602001fd5b604051630a12f52160e11b815260040160405180910390fd5b6000602082840312156110a057600080fd5b81356001600160e01b031981168114610a0557600080fd5b600080602083850312156110cb57600080fd5b823567ffffffffffffffff808211156110e357600080fd5b818501915085601f8301126110f757600080fd5b81358181111561110657600080fd5b86602082850101111561111857600080fd5b60209290920196919550909350505050565b60006020828403121561113c57600080fd5b5035919050565b6001600160a01b0381168114610b4157600080fd5b6000806040838503121561116b57600080fd5b82359150602083013561117d81611143565b809150509250929050565b60008060006060848603121561119d57600080fd5b83356111a881611143565b925060208401356111b881611143565b9150604084013563ffffffff811681146111d157600080fd5b809150509250925092565b6001600160a01b0391909116815260200190565b6000806040838503121561120357600080fd5b50508035926020909101359150565b60006020828403121561122457600080fd5b8135610a0581611143565b8183823760009101908152919050565b60006020828403121561125157600080fd5b5051919050565b6001600160a01b03929092168252602082015260400190565b60006020828403121561128357600080fd5b81518015158114610a0557600080fd5b634e487b7160e01b600052601160045260246000fd5b818103818111156104af576104af611293565b80820281158282048414176104af576104af611293565b6000826112f057634e487b7160e01b600052601260045260246000fd5b500490565b634e487b7160e01b600052603260045260246000fd5b634e487b7160e01b600052603160045260246000fd5b6000825160005b818110156113425760208186018101518583015201611328565b50600092019182525091905056fe8d41c8766c1135ba5f49e1a78778e75075121c93494fcd59d27c505d98142237a2646970667358221220728575af180a609da8a671047953ed751d5e331522bc2d4a36037782456ba92c64736f6c63430008150033",
  "devdoc": {
    "details": "The contract is upgradeable and inherits `Ownable2StepUpgradeable`. It supports setting an ODOS router,      defining sZAI and USDC tokens, and has functions for swapping and cross-chain revenue distribution.",
    "errors": {
      "AccessControlBadConfirmation()": [
        {
          "details": "The caller of a function is not the expected one. NOTE: Don't confuse with {AccessControlUnauthorizedAccount}."
        }
      ],
      "AccessControlUnauthorizedAccount(address,bytes32)": [
        {
          "details": "The `account` is missing a role."
        }
      ],
      "AddressEmptyCode(address)": [
        {
          "details": "There's no code at `target` (it is not a contract)."
        }
      ],
      "AddressInsufficientBalance(address)": [
        {
          "details": "The ETH balance of the account is not enough to perform the operation."
        }
      ],
      "FailedInnerCall()": [
        {
          "details": "A call to an address target failed. The target may have reverted."
        }
      ],
      "SafeERC20FailedOperation(address)": [
        {
          "details": "An operation with an ERC20 token failed."
        }
      ]
    },
    "events": {
      "RoleAdminChanged(bytes32,bytes32,bytes32)": {
        "details": "Emitted when `newAdminRole` is set as ``role``'s admin role, replacing `previousAdminRole` `DEFAULT_ADMIN_ROLE` is the starting admin for all roles, despite {RoleAdminChanged} not being emitted signaling this."
      },
      "RoleGranted(bytes32,address,address)": {
        "details": "Emitted when `account` is granted `role`. `sender` is the account that originated the contract call, an admin role bearer except when using {AccessControl-_setupRole}."
      },
      "RoleRevoked(bytes32,address,address)": {
        "details": "Emitted when `account` is revoked `role`. `sender` is the account that originated the contract call:   - if using `revokeRole`, it is the admin role bearer   - if using `renounceRole`, it is the role bearer (i.e. `account`)"
      }
    },
    "kind": "dev",
    "methods": {
      "execute(bytes)": {
        "params": {
          "data": "The transaction data to be executed on the ODOS router."
        }
      },
      "getRoleAdmin(bytes32)": {
        "details": "Returns the admin role that controls `role`. See {grantRole} and {revokeRole}. To change a role's admin, use {_setRoleAdmin}."
      },
      "getRoleMember(bytes32,uint256)": {
        "details": "Returns one of the accounts that have `role`. `index` must be a value between 0 and {getRoleMemberCount}, non-inclusive. Role bearers are not sorted in any particular way, and their ordering may change at any point. WARNING: When using {getRoleMember} and {getRoleMemberCount}, make sure you perform all queries on the same block. See the following https://forum.openzeppelin.com/t/iterating-over-elements-on-enumerableset-in-openzeppelin-contracts/2296[forum post] for more information."
      },
      "getRoleMemberCount(bytes32)": {
        "details": "Returns the number of accounts that have `role`. Can be used together with {getRoleMember} to enumerate all bearers of a role."
      },
      "grantRole(bytes32,address)": {
        "details": "Grants `role` to `account`. If `account` had not been already granted `role`, emits a {RoleGranted} event. Requirements: - the caller must have ``role``'s admin role. May emit a {RoleGranted} event."
      },
      "hasRole(bytes32,address)": {
        "details": "Returns `true` if `account` has been granted `role`."
      },
      "refund(address)": {
        "details": "Only callable by owner of the contract",
        "params": {
          "token": "The ERC20 token to be refunded."
        }
      },
      "renounceRole(bytes32,address)": {
        "details": "Revokes `role` from the calling account. Roles are often managed via {grantRole} and {revokeRole}: this function's purpose is to provide a mechanism for accounts to lose their privileges if they are compromised (such as when a trusted device is misplaced). If the calling account had been revoked `role`, emits a {RoleRevoked} event. Requirements: - the caller must be `callerConfirmation`. May emit a {RoleRevoked} event."
      },
      "revokeRole(bytes32,address)": {
        "details": "Revokes `role` from `account`. If `account` had been granted `role`, emits a {RoleRevoked} event. Requirements: - the caller must have ``role``'s admin role. May emit a {RoleRevoked} event."
      },
      "setDestinationAddresses(address,address,uint32)": {
        "params": {
          "_dstEID": "The destination Endpoint ID from layerzero",
          "_remoteAddr": "The address of the remote destination.",
          "_treasury": "The address of the treasury."
        }
      },
      "supportsInterface(bytes4)": {
        "details": "See {IERC165-supportsInterface}."
      }
    },
    "title": "sUSDeCollectorCron",
    "version": 1
  },
  "userdoc": {
    "kind": "user",
    "methods": {
      "execute(bytes)": {
        "notice": "Executes a transaction on the ODOS router, distributing revenue to sZAI and MAHA stakers, and the treasury."
      },
      "refund(address)": {
        "notice": "Refunds the specified token balance held by the contract to the caller."
      },
      "setDestinationAddresses(address,address,uint32)": {
        "notice": "Sets the destination addresses for cross-chain transfers."
      }
    },
    "notice": "A contract that manages revenue distribution through USDC transfers, using Stargate for cross-chain messaging         and optionally performing swaps via the ODOS router.",
    "version": 1
  },
  "storageLayout": {
    "storage": [
      {
        "astId": 11253,
        "contract": "contracts/periphery/crons/sUSDeCollectorCron.sol:sUSDeCollectorCron",
        "label": "_roles",
        "offset": 0,
        "slot": "0",
        "type": "t_mapping(t_bytes32,t_struct(RoleData)11248_storage)"
      },
      {
        "astId": 12492,
        "contract": "contracts/periphery/crons/sUSDeCollectorCron.sol:sUSDeCollectorCron",
        "label": "_roleMembers",
        "offset": 0,
        "slot": "1",
        "type": "t_mapping(t_bytes32,t_struct(AddressSet)24575_storage)"
      },
      {
        "astId": 40821,
        "contract": "contracts/periphery/crons/sUSDeCollectorCron.sol:sUSDeCollectorCron",
        "label": "treasury",
        "offset": 0,
        "slot": "2",
        "type": "t_address"
      },
      {
        "astId": 40823,
        "contract": "contracts/periphery/crons/sUSDeCollectorCron.sol:sUSDeCollectorCron",
        "label": "remoteDestination",
        "offset": 0,
        "slot": "3",
        "type": "t_address"
      },
      {
        "astId": 40825,
        "contract": "contracts/periphery/crons/sUSDeCollectorCron.sol:sUSDeCollectorCron",
        "label": "remoteEID",
        "offset": 20,
        "slot": "3",
        "type": "t_uint32"
      }
    ],
    "types": {
      "t_address": {
        "encoding": "inplace",
        "label": "address",
        "numberOfBytes": "20"
      },
      "t_array(t_bytes32)dyn_storage": {
        "base": "t_bytes32",
        "encoding": "dynamic_array",
        "label": "bytes32[]",
        "numberOfBytes": "32"
      },
      "t_bool": {
        "encoding": "inplace",
        "label": "bool",
        "numberOfBytes": "1"
      },
      "t_bytes32": {
        "encoding": "inplace",
        "label": "bytes32",
        "numberOfBytes": "32"
      },
      "t_mapping(t_address,t_bool)": {
        "encoding": "mapping",
        "key": "t_address",
        "label": "mapping(address => bool)",
        "numberOfBytes": "32",
        "value": "t_bool"
      },
      "t_mapping(t_bytes32,t_struct(AddressSet)24575_storage)": {
        "encoding": "mapping",
        "key": "t_bytes32",
        "label": "mapping(bytes32 => struct EnumerableSet.AddressSet)",
        "numberOfBytes": "32",
        "value": "t_struct(AddressSet)24575_storage"
      },
      "t_mapping(t_bytes32,t_struct(RoleData)11248_storage)": {
        "encoding": "mapping",
        "key": "t_bytes32",
        "label": "mapping(bytes32 => struct AccessControl.RoleData)",
        "numberOfBytes": "32",
        "value": "t_struct(RoleData)11248_storage"
      },
      "t_mapping(t_bytes32,t_uint256)": {
        "encoding": "mapping",
        "key": "t_bytes32",
        "label": "mapping(bytes32 => uint256)",
        "numberOfBytes": "32",
        "value": "t_uint256"
      },
      "t_struct(AddressSet)24575_storage": {
        "encoding": "inplace",
        "label": "struct EnumerableSet.AddressSet",
        "members": [
          {
            "astId": 24574,
            "contract": "contracts/periphery/crons/sUSDeCollectorCron.sol:sUSDeCollectorCron",
            "label": "_inner",
            "offset": 0,
            "slot": "0",
            "type": "t_struct(Set)24260_storage"
          }
        ],
        "numberOfBytes": "64"
      },
      "t_struct(RoleData)11248_storage": {
        "encoding": "inplace",
        "label": "struct AccessControl.RoleData",
        "members": [
          {
            "astId": 11245,
            "contract": "contracts/periphery/crons/sUSDeCollectorCron.sol:sUSDeCollectorCron",
            "label": "hasRole",
            "offset": 0,
            "slot": "0",
            "type": "t_mapping(t_address,t_bool)"
          },
          {
            "astId": 11247,
            "contract": "contracts/periphery/crons/sUSDeCollectorCron.sol:sUSDeCollectorCron",
            "label": "adminRole",
            "offset": 0,
            "slot": "1",
            "type": "t_bytes32"
          }
        ],
        "numberOfBytes": "64"
      },
      "t_struct(Set)24260_storage": {
        "encoding": "inplace",
        "label": "struct EnumerableSet.Set",
        "members": [
          {
            "astId": 24255,
            "contract": "contracts/periphery/crons/sUSDeCollectorCron.sol:sUSDeCollectorCron",
            "label": "_values",
            "offset": 0,
            "slot": "0",
            "type": "t_array(t_bytes32)dyn_storage"
          },
          {
            "astId": 24259,
            "contract": "contracts/periphery/crons/sUSDeCollectorCron.sol:sUSDeCollectorCron",
            "label": "_positions",
            "offset": 0,
            "slot": "1",
            "type": "t_mapping(t_bytes32,t_uint256)"
          }
        ],
        "numberOfBytes": "64"
      },
      "t_uint256": {
        "encoding": "inplace",
        "label": "uint256",
        "numberOfBytes": "32"
      },
      "t_uint32": {
        "encoding": "inplace",
        "label": "uint32",
        "numberOfBytes": "4"
      }
    }
  }
}