{
  "address": "0xA4B3d0B7d767eac5c5fE14130221e15984c62866",
  "abi": [
    {
      "inputs": [
        {
          "internalType": "address",
          "name": "_odos",
          "type": "address"
        },
        {
          "internalType": "address",
          "name": "_sZAI",
          "type": "address"
        },
        {
          "internalType": "address",
          "name": "_sUSDe",
          "type": "address"
        },
        {
          "internalType": "address",
          "name": "_zaiAdapter",
          "type": "address"
        }
      ],
      "stateMutability": "nonpayable",
      "type": "constructor"
    },
    {
      "inputs": [],
      "name": "AccessControlBadConfirmation",
      "type": "error"
    },
    {
      "inputs": [
        {
          "internalType": "address",
          "name": "account",
          "type": "address"
        },
        {
          "internalType": "bytes32",
          "name": "neededRole",
          "type": "bytes32"
        }
      ],
      "name": "AccessControlUnauthorizedAccount",
      "type": "error"
    },
    {
      "inputs": [
        {
          "internalType": "address",
          "name": "target",
          "type": "address"
        }
      ],
      "name": "AddressEmptyCode",
      "type": "error"
    },
    {
      "inputs": [
        {
          "internalType": "address",
          "name": "account",
          "type": "address"
        }
      ],
      "name": "AddressInsufficientBalance",
      "type": "error"
    },
    {
      "inputs": [],
      "name": "FailedInnerCall",
      "type": "error"
    },
    {
      "inputs": [
        {
          "internalType": "address",
          "name": "token",
          "type": "address"
        }
      ],
      "name": "SafeERC20FailedOperation",
      "type": "error"
    },
    {
      "anonymous": false,
      "inputs": [
        {
          "indexed": true,
          "internalType": "uint256",
          "name": "amount",
          "type": "uint256"
        }
      ],
      "name": "RevenueCollected",
      "type": "event"
    },
    {
      "anonymous": false,
      "inputs": [
        {
          "indexed": true,
          "internalType": "address",
          "name": "receiver",
          "type": "address"
        },
        {
          "indexed": true,
          "internalType": "uint256",
          "name": "amount",
          "type": "uint256"
        }
      ],
      "name": "RevenueDistributed",
      "type": "event"
    },
    {
      "anonymous": false,
      "inputs": [
        {
          "indexed": true,
          "internalType": "bytes32",
          "name": "role",
          "type": "bytes32"
        },
        {
          "indexed": true,
          "internalType": "bytes32",
          "name": "previousAdminRole",
          "type": "bytes32"
        },
        {
          "indexed": true,
          "internalType": "bytes32",
          "name": "newAdminRole",
          "type": "bytes32"
        }
      ],
      "name": "RoleAdminChanged",
      "type": "event"
    },
    {
      "anonymous": false,
      "inputs": [
        {
          "indexed": true,
          "internalType": "bytes32",
          "name": "role",
          "type": "bytes32"
        },
        {
          "indexed": true,
          "internalType": "address",
          "name": "account",
          "type": "address"
        },
        {
          "indexed": true,
          "internalType": "address",
          "name": "sender",
          "type": "address"
        }
      ],
      "name": "RoleGranted",
      "type": "event"
    },
    {
      "anonymous": false,
      "inputs": [
        {
          "indexed": true,
          "internalType": "bytes32",
          "name": "role",
          "type": "bytes32"
        },
        {
          "indexed": true,
          "internalType": "address",
          "name": "account",
          "type": "address"
        },
        {
          "indexed": true,
          "internalType": "address",
          "name": "sender",
          "type": "address"
        }
      ],
      "name": "RoleRevoked",
      "type": "event"
    },
    {
      "anonymous": false,
      "inputs": [
        {
          "indexed": true,
          "internalType": "uint256",
          "name": "amount",
          "type": "uint256"
        },
        {
          "indexed": false,
          "internalType": "uint256",
          "name": "zaiSupply",
          "type": "uint256"
        }
      ],
      "name": "YieldDistributed",
      "type": "event"
    },
    {
      "inputs": [],
      "name": "DEFAULT_ADMIN_ROLE",
      "outputs": [
        {
          "internalType": "bytes32",
          "name": "",
          "type": "bytes32"
        }
      ],
      "stateMutability": "view",
      "type": "function"
    },
    {
      "inputs": [],
      "name": "EXECUTOR_ROLE",
      "outputs": [
        {
          "internalType": "bytes32",
          "name": "",
          "type": "bytes32"
        }
      ],
      "stateMutability": "view",
      "type": "function"
    },
    {
      "inputs": [],
      "name": "ODOS",
      "outputs": [
        {
          "internalType": "address",
          "name": "",
          "type": "address"
        }
      ],
      "stateMutability": "view",
      "type": "function"
    },
    {
      "inputs": [],
      "name": "OFT_ADAPTER",
      "outputs": [
        {
          "internalType": "contract IOFT",
          "name": "",
          "type": "address"
        }
      ],
      "stateMutability": "view",
      "type": "function"
    },
    {
      "inputs": [],
      "name": "SUSDE",
      "outputs": [
        {
          "internalType": "contract IERC20",
          "name": "",
          "type": "address"
        }
      ],
      "stateMutability": "view",
      "type": "function"
    },
    {
      "inputs": [],
      "name": "SZAI",
      "outputs": [
        {
          "internalType": "contract IERC4626",
          "name": "",
          "type": "address"
        }
      ],
      "stateMutability": "view",
      "type": "function"
    },
    {
      "inputs": [],
      "name": "ZAI",
      "outputs": [
        {
          "internalType": "contract IERC20",
          "name": "",
          "type": "address"
        }
      ],
      "stateMutability": "view",
      "type": "function"
    },
    {
      "inputs": [
        {
          "internalType": "bytes",
          "name": "data",
          "type": "bytes"
        }
      ],
      "name": "execute",
      "outputs": [],
      "stateMutability": "payable",
      "type": "function"
    },
    {
      "inputs": [
        {
          "internalType": "bytes32",
          "name": "role",
          "type": "bytes32"
        }
      ],
      "name": "getRoleAdmin",
      "outputs": [
        {
          "internalType": "bytes32",
          "name": "",
          "type": "bytes32"
        }
      ],
      "stateMutability": "view",
      "type": "function"
    },
    {
      "inputs": [
        {
          "internalType": "bytes32",
          "name": "role",
          "type": "bytes32"
        },
        {
          "internalType": "uint256",
          "name": "index",
          "type": "uint256"
        }
      ],
      "name": "getRoleMember",
      "outputs": [
        {
          "internalType": "address",
          "name": "",
          "type": "address"
        }
      ],
      "stateMutability": "view",
      "type": "function"
    },
    {
      "inputs": [
        {
          "internalType": "bytes32",
          "name": "role",
          "type": "bytes32"
        }
      ],
      "name": "getRoleMemberCount",
      "outputs": [
        {
          "internalType": "uint256",
          "name": "",
          "type": "uint256"
        }
      ],
      "stateMutability": "view",
      "type": "function"
    },
    {
      "inputs": [
        {
          "internalType": "bytes32",
          "name": "role",
          "type": "bytes32"
        },
        {
          "internalType": "address",
          "name": "account",
          "type": "address"
        }
      ],
      "name": "grantRole",
      "outputs": [],
      "stateMutability": "nonpayable",
      "type": "function"
    },
    {
      "inputs": [
        {
          "internalType": "bytes32",
          "name": "role",
          "type": "bytes32"
        },
        {
          "internalType": "address",
          "name": "account",
          "type": "address"
        }
      ],
      "name": "hasRole",
      "outputs": [
        {
          "internalType": "bool",
          "name": "",
          "type": "bool"
        }
      ],
      "stateMutability": "view",
      "type": "function"
    },
    {
      "inputs": [],
      "name": "mahaBuyback",
      "outputs": [
        {
          "internalType": "address",
          "name": "",
          "type": "address"
        }
      ],
      "stateMutability": "view",
      "type": "function"
    },
    {
      "inputs": [
        {
          "internalType": "contract IERC20",
          "name": "token",
          "type": "address"
        }
      ],
      "name": "refund",
      "outputs": [],
      "stateMutability": "nonpayable",
      "type": "function"
    },
    {
      "inputs": [],
      "name": "remoteDestination",
      "outputs": [
        {
          "internalType": "address",
          "name": "",
          "type": "address"
        }
      ],
      "stateMutability": "view",
      "type": "function"
    },
    {
      "inputs": [],
      "name": "remoteEID",
      "outputs": [
        {
          "internalType": "uint32",
          "name": "",
          "type": "uint32"
        }
      ],
      "stateMutability": "view",
      "type": "function"
    },
    {
      "inputs": [
        {
          "internalType": "bytes32",
          "name": "role",
          "type": "bytes32"
        },
        {
          "internalType": "address",
          "name": "callerConfirmation",
          "type": "address"
        }
      ],
      "name": "renounceRole",
      "outputs": [],
      "stateMutability": "nonpayable",
      "type": "function"
    },
    {
      "inputs": [
        {
          "internalType": "bytes32",
          "name": "role",
          "type": "bytes32"
        },
        {
          "internalType": "address",
          "name": "account",
          "type": "address"
        }
      ],
      "name": "revokeRole",
      "outputs": [],
      "stateMutability": "nonpayable",
      "type": "function"
    },
    {
      "inputs": [
        {
          "internalType": "address",
          "name": "_treasury",
          "type": "address"
        },
        {
          "internalType": "address",
          "name": "_mahaBuybacks",
          "type": "address"
        }
      ],
      "name": "setDestinationAddresses",
      "outputs": [],
      "stateMutability": "nonpayable",
      "type": "function"
    },
    {
      "inputs": [
        {
          "internalType": "address",
          "name": "_remoteAddr",
          "type": "address"
        },
        {
          "internalType": "uint32",
          "name": "_dstEID",
          "type": "uint32"
        }
      ],
      "name": "setLayerZeroDestination",
      "outputs": [],
      "stateMutability": "nonpayable",
      "type": "function"
    },
    {
      "inputs": [
        {
          "internalType": "bytes4",
          "name": "interfaceId",
          "type": "bytes4"
        }
      ],
      "name": "supportsInterface",
      "outputs": [
        {
          "internalType": "bool",
          "name": "",
          "type": "bool"
        }
      ],
      "stateMutability": "view",
      "type": "function"
    },
    {
      "inputs": [],
      "name": "treasury",
      "outputs": [
        {
          "internalType": "address",
          "name": "",
          "type": "address"
        }
      ],
      "stateMutability": "view",
      "type": "function"
    },
    {
      "stateMutability": "payable",
      "type": "receive"
    }
  ],
  "transactionHash": "0x08bc870ac952a382ec9f649febed270040cdbff41f37dfd5c4fb12edd987b50e",
  "args": [
    "0xcf5540fffcdc3d510b18bfca6d2b9987b0772559",
    "0x69000195D5e3201Cf73C9Ae4a1559244DF38D47C",
    "0x9D39A5DE30e57443BfF2A8307A4256c8797A3497",
    "0x557177Aa5F5303dED2fa56b413631bAb22a73872"
  ],
  "numDeployments": 1,
  "solcInputHash": "5e6837f2553388d7f107fda87a3e6015",
  "bytecode": "0x6101406040527fd8aa0f3194971a2a116679f7c2090f6939c8d4e01a2a8d7e41d55e5351469e636080523480156200003657600080fd5b5060405162001feb38038062001feb83398101604081905262000059916200036a565b6001600160a01b0380841660c081905290831661010052604080516338d52e0f60e01b815290516338d52e0f916004808201926020929091908290030181865afa158015620000ac573d6000803e3d6000fd5b505050506040513d601f19601f82011682018060405250810190620000d29190620003c7565b6001600160a01b0390811660e05284811660a0819052828216610120526101005160405163095ea7b360e01b8152600481019290925260001960248301529091169063095ea7b3906044016020604051808303816000875af11580156200013d573d6000803e3d6000fd5b505050506040513d601f19601f82011682018060405250810190620001639190620003e5565b5060e05160405163095ea7b360e01b81526001600160a01b03838116600483015260001960248301529091169063095ea7b3906044016020604051808303816000875af1158015620001b9573d6000803e3d6000fd5b505050506040513d601f19601f82011682018060405250810190620001df9190620003e5565b50620001ed60003362000208565b50608051620001fd903362000208565b505050505062000409565b60008062000217848462000245565b905080156200023c5760008481526001602052604090206200023a9084620002f3565b505b90505b92915050565b6000828152602081815260408083206001600160a01b038516845290915281205460ff16620002ea576000838152602081815260408083206001600160a01b03861684529091529020805460ff19166001179055620002a13390565b6001600160a01b0316826001600160a01b0316847f2f8788117e7eff1d82e926ec794901d17c78024a50270940304540a733656f0d60405160405180910390a45060016200023f565b5060006200023f565b60006200023c836001600160a01b0384166000818152600183016020526040812054620002ea575081546001818101845560008481526020808220909301849055845484825282860190935260409020919091556200023f565b80516001600160a01b03811681146200036557600080fd5b919050565b600080600080608085870312156200038157600080fd5b6200038c856200034d565b93506200039c602086016200034d565b9250620003ac604086016200034d565b9150620003bc606086016200034d565b905092959194509250565b600060208284031215620003da57600080fd5b6200023c826200034d565b600060208284031215620003f857600080fd5b815180151581146200023c57600080fd5b60805160a05160c05160e0516101005161012051611b37620004b4600039600081816103d70152818161097a01528181610f360152610fe40152600061029e0152600081816104d8015281816106b5015281816107ad015281816108d6015281816109fe0152610af40152600081816104840152818161077b0152818161082c015261088a01526000818161034301526105cc0152600081816101d701526105a00152611b376000f3fe6080604052600436106101845760003560e01c806361d027b3116100d6578063a4dbd7931161007f578063ca15c87311610059578063ca15c873146104fa578063d547741f1461051a578063fa89401a1461053a57600080fd5b8063a4dbd79314610472578063bdf038da146104a6578063c30df586146104c657600080fd5b80639010d07c116100b05780639010d07c146103f957806391d1485414610419578063a217fddf1461045d57600080fd5b806361d027b31461038557806361f7eb01146103a55780637f2208f6146103c557600080fd5b80632f2ff15d1161013857806336568abe1161011257806336568abe1461031157806349df106b14610331578063613e1ddb1461036557600080fd5b80632f2ff15d1461026c578063307121091461028c5780633289e668146102d857600080fd5b806309c5eabe1161016957806309c5eabe14610207578063193c422b1461021c578063248a9ca31461023c57600080fd5b806301ffc9a71461019057806307bd0265146101c557600080fd5b3661018b57005b600080fd5b34801561019c57600080fd5b506101b06101ab366004611623565b61055a565b60405190151581526020015b60405180910390f35b3480156101d157600080fd5b506101f97f000000000000000000000000000000000000000000000000000000000000000081565b6040519081526020016101bc565b61021a61021536600461164d565b61059e565b005b34801561022857600080fd5b5061021a6102373660046116d4565b610ba5565b34801561024857600080fd5b506101f9610257366004611716565b60009081526020819052604090206001015490565b34801561027857600080fd5b5061021a61028736600461172f565b610bfb565b34801561029857600080fd5b506102c07f000000000000000000000000000000000000000000000000000000000000000081565b6040516001600160a01b0390911681526020016101bc565b3480156102e457600080fd5b506002546102fc90600160a01b900463ffffffff1681565b60405163ffffffff90911681526020016101bc565b34801561031d57600080fd5b5061021a61032c36600461172f565b610c26565b34801561033d57600080fd5b506102c07f000000000000000000000000000000000000000000000000000000000000000081565b34801561037157600080fd5b506004546102c0906001600160a01b031681565b34801561039157600080fd5b506003546102c0906001600160a01b031681565b3480156103b157600080fd5b506002546102c0906001600160a01b031681565b3480156103d157600080fd5b506102c07f000000000000000000000000000000000000000000000000000000000000000081565b34801561040557600080fd5b506102c0610414366004611754565b610c77565b34801561042557600080fd5b506101b061043436600461172f565b6000918252602082815260408084206001600160a01b0393909316845291905290205460ff1690565b34801561046957600080fd5b506101f9600081565b34801561047e57600080fd5b506102c07f000000000000000000000000000000000000000000000000000000000000000081565b3480156104b257600080fd5b5061021a6104c1366004611776565b610c96565b3480156104d257600080fd5b506102c07f000000000000000000000000000000000000000000000000000000000000000081565b34801561050657600080fd5b506101f9610515366004611716565b610ce8565b34801561052657600080fd5b5061021a61053536600461172f565b610cff565b34801561054657600080fd5b5061021a6105553660046117a4565b610d24565b60006001600160e01b031982167f5a05180f000000000000000000000000000000000000000000000000000000001480610598575061059882610db2565b92915050565b7f00000000000000000000000000000000000000000000000000000000000000006105c881610e19565b60007f00000000000000000000000000000000000000000000000000000000000000006001600160a01b03163485856040516106059291906117c1565b60006040518083038185875af1925050503d8060008114610642576040519150601f19603f3d011682016040523d82523d6000602084013e610647565b606091505b505090508061069d5760405162461bcd60e51b815260206004820152601060248201527f6f646f732063616c6c206661696c65640000000000000000000000000000000060448201526064015b60405180910390fd5b6040516370a0823160e01b81523060048201526000907f00000000000000000000000000000000000000000000000000000000000000006001600160a01b0316906370a0823190602401602060405180830381865afa158015610704573d6000803e3d6000fd5b505050506040513d601f19601f8201168201806040525081019061072891906117d1565b60405190915081907f57af161438f8fdc89d286da9e49368f4583497e141ba2de6efa3977569193f0b90600090a2600061076482611b58610e26565b60405163a9059cbb60e01b81526001600160a01b037f000000000000000000000000000000000000000000000000000000000000000081166004830152602482018390529192507f00000000000000000000000000000000000000000000000000000000000000009091169063a9059cbb906044016020604051808303816000875af11580156107f8573d6000803e3d6000fd5b505050506040513d601f19601f8201168201806040525081019061081c91906117ea565b5060405181906001600160a01b037f000000000000000000000000000000000000000000000000000000000000000016907f8d41c8766c1135ba5f49e1a78778e75075121c93494fcd59d27c505d9814223790600090a36040516370a0823160e01b81526001600160a01b037f00000000000000000000000000000000000000000000000000000000000000008116600483015282917ffe4996cd48c364c468cee70dd6b9061874ff01b05c5ea49311cbcabd9b9cb615917f000000000000000000000000000000000000000000000000000000000000000016906370a0823190602401602060405180830381865afa15801561091d573d6000803e3d6000fd5b505050506040513d601f19601f8201168201806040525081019061094191906117d1565b60405190815260200160405180910390a26000610960836104e2610e26565b905061096b81610e9a565b60405181906001600160a01b037f000000000000000000000000000000000000000000000000000000000000000016907f8d41c8766c1135ba5f49e1a78778e75075121c93494fcd59d27c505d9814223790600090a360006109cf846104e2610e26565b6004805460405163a9059cbb60e01b81526001600160a01b0391821692810192909252602482018590529192507f00000000000000000000000000000000000000000000000000000000000000009091169063a9059cbb906044016020604051808303816000875af1158015610a49573d6000803e3d6000fd5b505050506040513d601f19601f82011682018060405250810190610a6d91906117ea565b5060045460405183916001600160a01b0316907f8d41c8766c1135ba5f49e1a78778e75075121c93494fcd59d27c505d9814223790600090a360008183610ab48688611822565b610abe9190611822565b610ac89190611822565b60035460405163a9059cbb60e01b81526001600160a01b039182166004820152602481018390529192507f0000000000000000000000000000000000000000000000000000000000000000169063a9059cbb906044016020604051808303816000875af1158015610b3d573d6000803e3d6000fd5b505050506040513d601f19601f82011682018060405250810190610b6191906117ea565b5060035460405182916001600160a01b0316907f8d41c8766c1135ba5f49e1a78778e75075121c93494fcd59d27c505d9814223790600090a3505050505050505050565b6000610bb081610e19565b506002805463ffffffff909216600160a01b027fffffffffffffffff0000000000000000000000000000000000000000000000009092166001600160a01b0390931692909217179055565b600082815260208190526040902060010154610c1681610e19565b610c208383611068565b50505050565b6001600160a01b0381163314610c68576040517f6697b23200000000000000000000000000000000000000000000000000000000815260040160405180910390fd5b610c72828261109d565b505050565b6000828152600160205260408120610c8f90836110ca565b9392505050565b6000610ca181610e19565b50600380546001600160a01b039384167fffffffffffffffffffffffff00000000000000000000000000000000000000009182161790915560048054929093169116179055565b6000818152600160205260408120610598906110d6565b600082815260208190526040902060010154610d1a81610e19565b610c20838361109d565b6000610d2f81610e19565b6040516370a0823160e01b8152306004820152610dae9033906001600160a01b038516906370a0823190602401602060405180830381865afa158015610d79573d6000803e3d6000fd5b505050506040513d601f19601f82011682018060405250810190610d9d91906117d1565b6001600160a01b03851691906110e0565b5050565b60006001600160e01b031982167f7965db0b00000000000000000000000000000000000000000000000000000000148061059857507f01ffc9a7000000000000000000000000000000000000000000000000000000006001600160e01b0319831614610598565b610e238133611147565b50565b6000612710610e358385611835565b1015610e835760405162461bcd60e51b815260206004820152601560248201527f616d6f756e74202a20627073203e2031305f30303000000000000000000000006044820152606401610694565b612710610e908385611835565b610c8f919061184c565b6040805160e081018252600254600160a01b810463ffffffff1682526001600160a01b039081166020808401919091528284018590526060830185905283516000808252818301865260808501919091528451818152808301865260a08501528451918201855280825260c084019190915292517f3b6f743b0000000000000000000000000000000000000000000000000000000081529192917f000000000000000000000000000000000000000000000000000000000000000090911690633b6f743b90610f6f908590859060040161193d565b6040805180830381865afa158015610f8b573d6000803e3d6000fd5b505050506040513d601f19601f82011682018060405250810190610faf91906119be565b80516040517fc7c7f5b30000000000000000000000000000000000000000000000000000000081529192506001600160a01b037f0000000000000000000000000000000000000000000000000000000000000000169163c7c7f5b3919061101e908690869030906004016119da565b60c06040518083038185885af115801561103c573d6000803e3d6000fd5b50505050506040513d601f19601f820116820180604052508101906110619190611a17565b5050505050565b60008061107584846111b3565b90508015610c8f576000848152600160205260409020611095908461125d565b509392505050565b6000806110aa8484611272565b90508015610c8f57600084815260016020526040902061109590846112f5565b6000610c8f838361130a565b6000610598825490565b604080516001600160a01b038416602482015260448082018490528251808303909101815260649091019091526020810180517bffffffffffffffffffffffffffffffffffffffffffffffffffffffff1663a9059cbb60e01b179052610c72908490611334565b6000828152602081815260408083206001600160a01b038516845290915290205460ff16610dae576040517fe2517d3f0000000000000000000000000000000000000000000000000000000081526001600160a01b038216600482015260248101839052604401610694565b6000828152602081815260408083206001600160a01b038516845290915281205460ff16611255576000838152602081815260408083206001600160a01b03861684529091529020805460ff1916600117905561120d3390565b6001600160a01b0316826001600160a01b0316847f2f8788117e7eff1d82e926ec794901d17c78024a50270940304540a733656f0d60405160405180910390a4506001610598565b506000610598565b6000610c8f836001600160a01b0384166113b0565b6000828152602081815260408083206001600160a01b038516845290915281205460ff1615611255576000838152602081815260408083206001600160a01b0386168085529252808320805460ff1916905551339286917ff6391f5c32d9c69d2a47ea670b442974b53935d1edc7fd64eb21e047a839171b9190a4506001610598565b6000610c8f836001600160a01b0384166113f7565b600082600001828154811061132157611321611ab9565b9060005260206000200154905092915050565b60006113496001600160a01b038416836114ea565b9050805160001415801561136e57508080602001905181019061136c91906117ea565b155b15610c72576040517f5274afe70000000000000000000000000000000000000000000000000000000081526001600160a01b0384166004820152602401610694565b600081815260018301602052604081205461125557508154600181810184556000848152602080822090930184905584548482528286019093526040902091909155610598565b600081815260018301602052604081205480156114e057600061141b600183611822565b855490915060009061142f90600190611822565b905080821461149457600086600001828154811061144f5761144f611ab9565b906000526020600020015490508087600001848154811061147257611472611ab9565b6000918252602080832090910192909255918252600188019052604090208390555b85548690806114a5576114a5611acf565b600190038181906000526020600020016000905590558560010160008681526020019081526020016000206000905560019350505050610598565b6000915050610598565b6060610c8f8383600084600080856001600160a01b031684866040516115109190611ae5565b60006040518083038185875af1925050503d806000811461154d576040519150601f19603f3d011682016040523d82523d6000602084013e611552565b606091505b509150915061156286838361156c565b9695505050505050565b6060826115815761157c826115e1565b610c8f565b815115801561159857506001600160a01b0384163b155b156115da576040517f9996b3150000000000000000000000000000000000000000000000000000000081526001600160a01b0385166004820152602401610694565b5080610c8f565b8051156115f15780518082602001fd5b6040517f1425ea4200000000000000000000000000000000000000000000000000000000815260040160405180910390fd5b60006020828403121561163557600080fd5b81356001600160e01b031981168114610c8f57600080fd5b6000806020838503121561166057600080fd5b823567ffffffffffffffff8082111561167857600080fd5b818501915085601f83011261168c57600080fd5b81358181111561169b57600080fd5b8660208285010111156116ad57600080fd5b60209290920196919550909350505050565b6001600160a01b0381168114610e2357600080fd5b600080604083850312156116e757600080fd5b82356116f2816116bf565b9150602083013563ffffffff8116811461170b57600080fd5b809150509250929050565b60006020828403121561172857600080fd5b5035919050565b6000806040838503121561174257600080fd5b82359150602083013561170b816116bf565b6000806040838503121561176757600080fd5b50508035926020909101359150565b6000806040838503121561178957600080fd5b8235611794816116bf565b9150602083013561170b816116bf565b6000602082840312156117b657600080fd5b8135610c8f816116bf565b8183823760009101908152919050565b6000602082840312156117e357600080fd5b5051919050565b6000602082840312156117fc57600080fd5b81518015158114610c8f57600080fd5b634e487b7160e01b600052601160045260246000fd5b818103818111156105985761059861180c565b80820281158282048414176105985761059861180c565b60008261186957634e487b7160e01b600052601260045260246000fd5b500490565b60005b83811015611889578181015183820152602001611871565b50506000910152565b600081518084526118aa81602086016020860161186e565b601f01601f19169290920160200192915050565b63ffffffff81511682526020810151602083015260408101516040830152606081015160608301526000608082015160e0608085015261190160e0850182611892565b905060a083015184820360a086015261191a8282611892565b91505060c083015184820360c08601526119348282611892565b95945050505050565b60408152600061195060408301856118be565b905082151560208301529392505050565b60006040828403121561197357600080fd5b6040516040810181811067ffffffffffffffff821117156119a457634e487b7160e01b600052604160045260246000fd5b604052825181526020928301519281019290925250919050565b6000604082840312156119d057600080fd5b610c8f8383611961565b6080815260006119ed60808301866118be565b905083516020830152602084015160408301526001600160a01b0383166060830152949350505050565b60008082840360c0811215611a2b57600080fd5b6080811215611a3957600080fd5b506040516060810167ffffffffffffffff8282108183111715611a6c57634e487b7160e01b600052604160045260246000fd5b8160405285518352602086015191508082168214611a8957600080fd5b506020820152611a9c8560408601611961565b60408201529150611ab08460808501611961565b90509250929050565b634e487b7160e01b600052603260045260246000fd5b634e487b7160e01b600052603160045260246000fd5b60008251611af781846020870161186e565b919091019291505056fea26469706673582212201608e49c67c6f591ca83138129ebad16e5320f6ab98de05875cfb5bb54ac772c64736f6c63430008150033",
  "devdoc": {
    "details": "The contract is upgradeable and inherits `Ownable2StepUpgradeable`. It supports setting an ODOS router,      defining sZAI and USDC tokens, and has functions for swapping and cross-chain revenue distribution.",
    "errors": {
      "AccessControlBadConfirmation()": [
        {
          "details": "The caller of a function is not the expected one. NOTE: Don't confuse with {AccessControlUnauthorizedAccount}."
        }
      ],
      "AccessControlUnauthorizedAccount(address,bytes32)": [
        {
          "details": "The `account` is missing a role."
        }
      ],
      "AddressEmptyCode(address)": [
        {
          "details": "There's no code at `target` (it is not a contract)."
        }
      ],
      "AddressInsufficientBalance(address)": [
        {
          "details": "The ETH balance of the account is not enough to perform the operation."
        }
      ],
      "FailedInnerCall()": [
        {
          "details": "A call to an address target failed. The target may have reverted."
        }
      ],
      "SafeERC20FailedOperation(address)": [
        {
          "details": "An operation with an ERC20 token failed."
        }
      ]
    },
    "events": {
      "RoleAdminChanged(bytes32,bytes32,bytes32)": {
        "details": "Emitted when `newAdminRole` is set as ``role``'s admin role, replacing `previousAdminRole` `DEFAULT_ADMIN_ROLE` is the starting admin for all roles, despite {RoleAdminChanged} not being emitted signaling this."
      },
      "RoleGranted(bytes32,address,address)": {
        "details": "Emitted when `account` is granted `role`. `sender` is the account that originated the contract call, an admin role bearer except when using {AccessControl-_setupRole}."
      },
      "RoleRevoked(bytes32,address,address)": {
        "details": "Emitted when `account` is revoked `role`. `sender` is the account that originated the contract call:   - if using `revokeRole`, it is the admin role bearer   - if using `renounceRole`, it is the role bearer (i.e. `account`)"
      }
    },
    "kind": "dev",
    "methods": {
      "execute(bytes)": {
        "params": {
          "data": "The transaction data to be executed on the ODOS router."
        }
      },
      "getRoleAdmin(bytes32)": {
        "details": "Returns the admin role that controls `role`. See {grantRole} and {revokeRole}. To change a role's admin, use {_setRoleAdmin}."
      },
      "getRoleMember(bytes32,uint256)": {
        "details": "Returns one of the accounts that have `role`. `index` must be a value between 0 and {getRoleMemberCount}, non-inclusive. Role bearers are not sorted in any particular way, and their ordering may change at any point. WARNING: When using {getRoleMember} and {getRoleMemberCount}, make sure you perform all queries on the same block. See the following https://forum.openzeppelin.com/t/iterating-over-elements-on-enumerableset-in-openzeppelin-contracts/2296[forum post] for more information."
      },
      "getRoleMemberCount(bytes32)": {
        "details": "Returns the number of accounts that have `role`. Can be used together with {getRoleMember} to enumerate all bearers of a role."
      },
      "grantRole(bytes32,address)": {
        "details": "Grants `role` to `account`. If `account` had not been already granted `role`, emits a {RoleGranted} event. Requirements: - the caller must have ``role``'s admin role. May emit a {RoleGranted} event."
      },
      "hasRole(bytes32,address)": {
        "details": "Returns `true` if `account` has been granted `role`."
      },
      "refund(address)": {
        "details": "Only callable by owner of the contract",
        "params": {
          "token": "The ERC20 token to be refunded."
        }
      },
      "renounceRole(bytes32,address)": {
        "details": "Revokes `role` from the calling account. Roles are often managed via {grantRole} and {revokeRole}: this function's purpose is to provide a mechanism for accounts to lose their privileges if they are compromised (such as when a trusted device is misplaced). If the calling account had been revoked `role`, emits a {RoleRevoked} event. Requirements: - the caller must be `callerConfirmation`. May emit a {RoleRevoked} event."
      },
      "revokeRole(bytes32,address)": {
        "details": "Revokes `role` from `account`. If `account` had been granted `role`, emits a {RoleRevoked} event. Requirements: - the caller must have ``role``'s admin role. May emit a {RoleRevoked} event."
      },
      "setLayerZeroDestination(address,uint32)": {
        "params": {
          "_dstEID": "The destination EID on the remote chain.",
          "_remoteAddr": "The destination address on the remote chain."
        }
      },
      "supportsInterface(bytes4)": {
        "details": "See {IERC165-supportsInterface}."
      }
    },
    "title": "sUSDeCollectorCron",
    "version": 1
  },
  "userdoc": {
    "kind": "user",
    "methods": {
      "execute(bytes)": {
        "notice": "Executes a transaction on the ODOS router, distributing revenue to sZAI and MAHA stakers, and the treasury."
      },
      "refund(address)": {
        "notice": "Refunds the specified token balance held by the contract to the caller."
      },
      "setDestinationAddresses(address,address)": {
        "notice": "Sets the destination addresses for cross-chain transfers."
      },
      "setLayerZeroDestination(address,uint32)": {
        "notice": "Sends the specified amount of ZAI to base via LayerZero."
      }
    },
    "notice": "A contract that manages revenue distribution through USDC transfers, using Stargate for cross-chain messaging         and optionally performing swaps via the ODOS router.",
    "version": 1
  },
  "storageLayout": {
    "storage": [
      {
        "astId": 1234,
        "contract": "contracts/periphery/crons/sUSDeCollectorCron.sol:sUSDeCollectorCron",
        "label": "_roles",
        "offset": 0,
        "slot": "0",
        "type": "t_mapping(t_bytes32,t_struct(RoleData)1229_storage)"
      },
      {
        "astId": 1756,
        "contract": "contracts/periphery/crons/sUSDeCollectorCron.sol:sUSDeCollectorCron",
        "label": "_roleMembers",
        "offset": 0,
        "slot": "1",
        "type": "t_mapping(t_bytes32,t_struct(AddressSet)3147_storage)"
      },
      {
        "astId": 3475,
        "contract": "contracts/periphery/crons/sUSDeCollectorCron.sol:sUSDeCollectorCron",
        "label": "remoteDestination",
        "offset": 0,
        "slot": "2",
        "type": "t_address"
      },
      {
        "astId": 3477,
        "contract": "contracts/periphery/crons/sUSDeCollectorCron.sol:sUSDeCollectorCron",
        "label": "remoteEID",
        "offset": 20,
        "slot": "2",
        "type": "t_uint32"
      },
      {
        "astId": 3479,
        "contract": "contracts/periphery/crons/sUSDeCollectorCron.sol:sUSDeCollectorCron",
        "label": "treasury",
        "offset": 0,
        "slot": "3",
        "type": "t_address"
      },
      {
        "astId": 3481,
        "contract": "contracts/periphery/crons/sUSDeCollectorCron.sol:sUSDeCollectorCron",
        "label": "mahaBuyback",
        "offset": 0,
        "slot": "4",
        "type": "t_address"
      }
    ],
    "types": {
      "t_address": {
        "encoding": "inplace",
        "label": "address",
        "numberOfBytes": "20"
      },
      "t_array(t_bytes32)dyn_storage": {
        "base": "t_bytes32",
        "encoding": "dynamic_array",
        "label": "bytes32[]",
        "numberOfBytes": "32"
      },
      "t_bool": {
        "encoding": "inplace",
        "label": "bool",
        "numberOfBytes": "1"
      },
      "t_bytes32": {
        "encoding": "inplace",
        "label": "bytes32",
        "numberOfBytes": "32"
      },
      "t_mapping(t_address,t_bool)": {
        "encoding": "mapping",
        "key": "t_address",
        "label": "mapping(address => bool)",
        "numberOfBytes": "32",
        "value": "t_bool"
      },
      "t_mapping(t_bytes32,t_struct(AddressSet)3147_storage)": {
        "encoding": "mapping",
        "key": "t_bytes32",
        "label": "mapping(bytes32 => struct EnumerableSet.AddressSet)",
        "numberOfBytes": "32",
        "value": "t_struct(AddressSet)3147_storage"
      },
      "t_mapping(t_bytes32,t_struct(RoleData)1229_storage)": {
        "encoding": "mapping",
        "key": "t_bytes32",
        "label": "mapping(bytes32 => struct AccessControl.RoleData)",
        "numberOfBytes": "32",
        "value": "t_struct(RoleData)1229_storage"
      },
      "t_mapping(t_bytes32,t_uint256)": {
        "encoding": "mapping",
        "key": "t_bytes32",
        "label": "mapping(bytes32 => uint256)",
        "numberOfBytes": "32",
        "value": "t_uint256"
      },
      "t_struct(AddressSet)3147_storage": {
        "encoding": "inplace",
        "label": "struct EnumerableSet.AddressSet",
        "members": [
          {
            "astId": 3146,
            "contract": "contracts/periphery/crons/sUSDeCollectorCron.sol:sUSDeCollectorCron",
            "label": "_inner",
            "offset": 0,
            "slot": "0",
            "type": "t_struct(Set)2832_storage"
          }
        ],
        "numberOfBytes": "64"
      },
      "t_struct(RoleData)1229_storage": {
        "encoding": "inplace",
        "label": "struct AccessControl.RoleData",
        "members": [
          {
            "astId": 1226,
            "contract": "contracts/periphery/crons/sUSDeCollectorCron.sol:sUSDeCollectorCron",
            "label": "hasRole",
            "offset": 0,
            "slot": "0",
            "type": "t_mapping(t_address,t_bool)"
          },
          {
            "astId": 1228,
            "contract": "contracts/periphery/crons/sUSDeCollectorCron.sol:sUSDeCollectorCron",
            "label": "adminRole",
            "offset": 0,
            "slot": "1",
            "type": "t_bytes32"
          }
        ],
        "numberOfBytes": "64"
      },
      "t_struct(Set)2832_storage": {
        "encoding": "inplace",
        "label": "struct EnumerableSet.Set",
        "members": [
          {
            "astId": 2827,
            "contract": "contracts/periphery/crons/sUSDeCollectorCron.sol:sUSDeCollectorCron",
            "label": "_values",
            "offset": 0,
            "slot": "0",
            "type": "t_array(t_bytes32)dyn_storage"
          },
          {
            "astId": 2831,
            "contract": "contracts/periphery/crons/sUSDeCollectorCron.sol:sUSDeCollectorCron",
            "label": "_positions",
            "offset": 0,
            "slot": "1",
            "type": "t_mapping(t_bytes32,t_uint256)"
          }
        ],
        "numberOfBytes": "64"
      },
      "t_uint256": {
        "encoding": "inplace",
        "label": "uint256",
        "numberOfBytes": "32"
      },
      "t_uint32": {
        "encoding": "inplace",
        "label": "uint32",
        "numberOfBytes": "4"
      }
    }
  }
}