{
  "address": "0xC2dDFfC5A03d14CFBE35b57dDE3D6Bb6011Af43E",
  "abi": [
    {
      "inputs": [
        {
          "internalType": "address",
          "name": "_psm",
          "type": "address"
        },
        {
          "internalType": "address",
          "name": "_sZAI",
          "type": "address"
        },
        {
          "internalType": "address",
          "name": "_zaiAdapter",
          "type": "address"
        },
        {
          "internalType": "address",
          "name": "_treasury",
          "type": "address"
        },
        {
          "internalType": "address",
          "name": "_mahaBuybacks",
          "type": "address"
        },
        {
          "internalType": "uint256",
          "name": "_remoteSlippage",
          "type": "uint256"
        },
        {
          "internalType": "address",
          "name": "_remoteAddr",
          "type": "address"
        },
        {
          "internalType": "uint32",
          "name": "_dstEID",
          "type": "uint32"
        }
      ],
      "stateMutability": "nonpayable",
      "type": "constructor"
    },
    {
      "inputs": [
        {
          "internalType": "address",
          "name": "target",
          "type": "address"
        }
      ],
      "name": "AddressEmptyCode",
      "type": "error"
    },
    {
      "inputs": [
        {
          "internalType": "address",
          "name": "account",
          "type": "address"
        }
      ],
      "name": "AddressInsufficientBalance",
      "type": "error"
    },
    {
      "inputs": [],
      "name": "FailedInnerCall",
      "type": "error"
    },
    {
      "inputs": [
        {
          "internalType": "address",
          "name": "owner",
          "type": "address"
        }
      ],
      "name": "OwnableInvalidOwner",
      "type": "error"
    },
    {
      "inputs": [
        {
          "internalType": "address",
          "name": "account",
          "type": "address"
        }
      ],
      "name": "OwnableUnauthorizedAccount",
      "type": "error"
    },
    {
      "inputs": [
        {
          "internalType": "address",
          "name": "token",
          "type": "address"
        }
      ],
      "name": "SafeERC20FailedOperation",
      "type": "error"
    },
    {
      "anonymous": false,
      "inputs": [
        {
          "indexed": true,
          "internalType": "address",
          "name": "previousOwner",
          "type": "address"
        },
        {
          "indexed": true,
          "internalType": "address",
          "name": "newOwner",
          "type": "address"
        }
      ],
      "name": "OwnershipTransferred",
      "type": "event"
    },
    {
      "anonymous": false,
      "inputs": [
        {
          "indexed": true,
          "internalType": "uint256",
          "name": "amount",
          "type": "uint256"
        }
      ],
      "name": "RevenueCollected",
      "type": "event"
    },
    {
      "anonymous": false,
      "inputs": [
        {
          "indexed": true,
          "internalType": "address",
          "name": "receiver",
          "type": "address"
        },
        {
          "indexed": true,
          "internalType": "uint256",
          "name": "amount",
          "type": "uint256"
        }
      ],
      "name": "RevenueDistributed",
      "type": "event"
    },
    {
      "anonymous": false,
      "inputs": [
        {
          "indexed": true,
          "internalType": "uint256",
          "name": "amount",
          "type": "uint256"
        },
        {
          "indexed": false,
          "internalType": "uint256",
          "name": "zaiSupply",
          "type": "uint256"
        }
      ],
      "name": "YieldDistributed",
      "type": "event"
    },
    {
      "inputs": [],
      "name": "OFT_ADAPTER",
      "outputs": [
        {
          "internalType": "contract IOFT",
          "name": "",
          "type": "address"
        }
      ],
      "stateMutability": "view",
      "type": "function"
    },
    {
      "inputs": [],
      "name": "PSM",
      "outputs": [
        {
          "internalType": "contract IPegStabilityModule",
          "name": "",
          "type": "address"
        }
      ],
      "stateMutability": "view",
      "type": "function"
    },
    {
      "inputs": [],
      "name": "SUSDE",
      "outputs": [
        {
          "internalType": "contract IERC20",
          "name": "",
          "type": "address"
        }
      ],
      "stateMutability": "view",
      "type": "function"
    },
    {
      "inputs": [],
      "name": "SZAI",
      "outputs": [
        {
          "internalType": "contract IERC4626",
          "name": "",
          "type": "address"
        }
      ],
      "stateMutability": "view",
      "type": "function"
    },
    {
      "inputs": [],
      "name": "ZAI",
      "outputs": [
        {
          "internalType": "contract IERC20",
          "name": "",
          "type": "address"
        }
      ],
      "stateMutability": "view",
      "type": "function"
    },
    {
      "inputs": [],
      "name": "execute",
      "outputs": [],
      "stateMutability": "payable",
      "type": "function"
    },
    {
      "inputs": [],
      "name": "mahaBuyback",
      "outputs": [
        {
          "internalType": "address",
          "name": "",
          "type": "address"
        }
      ],
      "stateMutability": "view",
      "type": "function"
    },
    {
      "inputs": [],
      "name": "owner",
      "outputs": [
        {
          "internalType": "address",
          "name": "",
          "type": "address"
        }
      ],
      "stateMutability": "view",
      "type": "function"
    },
    {
      "inputs": [
        {
          "internalType": "contract IERC20",
          "name": "token",
          "type": "address"
        }
      ],
      "name": "refund",
      "outputs": [],
      "stateMutability": "nonpayable",
      "type": "function"
    },
    {
      "inputs": [],
      "name": "remoteDestination",
      "outputs": [
        {
          "internalType": "address",
          "name": "",
          "type": "address"
        }
      ],
      "stateMutability": "view",
      "type": "function"
    },
    {
      "inputs": [],
      "name": "remoteEID",
      "outputs": [
        {
          "internalType": "uint32",
          "name": "",
          "type": "uint32"
        }
      ],
      "stateMutability": "view",
      "type": "function"
    },
    {
      "inputs": [],
      "name": "remoteSlippage",
      "outputs": [
        {
          "internalType": "uint256",
          "name": "",
          "type": "uint256"
        }
      ],
      "stateMutability": "view",
      "type": "function"
    },
    {
      "inputs": [],
      "name": "renounceOwnership",
      "outputs": [],
      "stateMutability": "nonpayable",
      "type": "function"
    },
    {
      "inputs": [
        {
          "internalType": "address",
          "name": "_treasury",
          "type": "address"
        },
        {
          "internalType": "address",
          "name": "_mahaBuybacks",
          "type": "address"
        },
        {
          "internalType": "uint256",
          "name": "_remoteSlippage",
          "type": "uint256"
        }
      ],
      "name": "setDestinationAddresses",
      "outputs": [],
      "stateMutability": "nonpayable",
      "type": "function"
    },
    {
      "inputs": [
        {
          "internalType": "address",
          "name": "_remoteAddr",
          "type": "address"
        },
        {
          "internalType": "uint32",
          "name": "_dstEID",
          "type": "uint32"
        }
      ],
      "name": "setLayerZeroDestination",
      "outputs": [],
      "stateMutability": "nonpayable",
      "type": "function"
    },
    {
      "inputs": [
        {
          "internalType": "address",
          "name": "newOwner",
          "type": "address"
        }
      ],
      "name": "transferOwnership",
      "outputs": [],
      "stateMutability": "nonpayable",
      "type": "function"
    },
    {
      "inputs": [],
      "name": "treasury",
      "outputs": [
        {
          "internalType": "address",
          "name": "",
          "type": "address"
        }
      ],
      "stateMutability": "view",
      "type": "function"
    },
    {
      "stateMutability": "payable",
      "type": "receive"
    }
  ],
  "transactionHash": "0xeb24e9ae183081196971c79d9eb8453e65f21428f0621765a3560c9fbd5e28a3",
  "args": [
    "0x7DCdE153e4cACe9Ca852590d9654c7694388Db54",
    "0x69000195D5e3201Cf73C9Ae4a1559244DF38D47C",
    "0x557177Aa5F5303dED2fa56b413631bAb22a73872",
    "0x7202136d70026DA33628dD3f3eFccb43F62a2469",
    "0x7202136d70026DA33628dD3f3eFccb43F62a2469",
    997,
    "0x7202136d70026DA33628dD3f3eFccb43F62a2469",
    30184
  ],
  "numDeployments": 1,
  "solcInputHash": "f646471361cf56d5af0bc1982a571170",
  "bytecode": "0x6101206040523480156200001257600080fd5b5060405162001afd38038062001afd833981016040819052620000359162000324565b33806200005c57604051631e4fbdf760e01b81526000600482015260240160405180910390fd5b6200006781620002bb565b506001600160a01b0387166080819052604080516338d52e0f60e01b815290516338d52e0f916004808201926020929091908290030181865afa158015620000b3573d6000803e3d6000fd5b505050506040513d601f19601f82011682018060405250810190620000d99190620003e1565b6001600160a01b0390811660a05288166101008190526040805163d8dfeb4560e01b8152905163d8dfeb459160048082019260209290919082900301816000875af11580156200012d573d6000803e3d6000fd5b505050506040513d601f19601f82011682018060405250810190620001539190620003e1565b6001600160a01b0390811660c081905287821660e05260405163095ea7b360e01b8152918a16600483015260001960248301529063095ea7b3906044016020604051808303816000875af1158015620001b0573d6000803e3d6000fd5b505050506040513d601f19601f82011682018060405250810190620001d6919062000408565b5060a05160405163095ea7b360e01b81526001600160a01b03888116600483015260001960248301529091169063095ea7b3906044016020604051808303816000875af11580156200022c573d6000803e3d6000fd5b505050506040513d601f19601f8201168201806040525081019062000252919062000408565b50600380546001600160a01b039687166001600160a01b0319918216179091556004805495871695909116949094179093556001805463ffffffff909416600160a01b026001600160c01b0319909416919094161791909117909155600255506200042c915050565b600080546001600160a01b038381166001600160a01b0319831681178455604051919092169283917f8be0079c531659141344cd1fd0a4f28419497f9722a3daafe3b4186f6b6457e09190a35050565b6001600160a01b03811681146200032157600080fd5b50565b600080600080600080600080610100898b0312156200034257600080fd5b88516200034f816200030b565b60208a015190985062000362816200030b565b60408a015190975062000375816200030b565b60608a015190965062000388816200030b565b60808a01519095506200039b816200030b565b60a08a015160c08b01519195509350620003b5816200030b565b60e08a015190925063ffffffff81168114620003d057600080fd5b809150509295985092959890939650565b600060208284031215620003f457600080fd5b815162000401816200030b565b9392505050565b6000602082840312156200041b57600080fd5b815180151581146200040157600080fd5b60805160a05160c05160e05161010051611623620004da6000396000818161022001528181610457015281816104e7015261066a0152600081816102d1015281816109ab01528181610e7c0152610f3001526000818161017b0152610512015260008181610357015281816106e5015281816107de0152818161090701528181610a2f0152610b25015260008181610323015281816107ac0152818161085d01526108bb01526116236000f3fe6080604052600436106101125760003560e01c806361d027b3116100a55780638da5cb5b11610074578063c30df58611610059578063c30df58614610345578063f2fde38b14610379578063fa89401a1461039957600080fd5b80638da5cb5b146102f3578063a4dbd7931461031157600080fd5b806361d027b31461026a57806361f7eb011461028a578063715018a6146102aa5780637f2208f6146102bf57600080fd5b806337af0ce4116100e157806337af0ce4146101ee5780635dac9ed71461020e578063613e1ddb14610242578063614619541461026257600080fd5b80630da3edd21461011e578063193c422b1461014757806330712109146101695780633289e668146101b557600080fd5b3661011957005b600080fd5b34801561012a57600080fd5b5061013460025481565b6040519081526020015b60405180910390f35b34801561015357600080fd5b50610167610162366004611249565b6103b9565b005b34801561017557600080fd5b5061019d7f000000000000000000000000000000000000000000000000000000000000000081565b6040516001600160a01b03909116815260200161013e565b3480156101c157600080fd5b506001546101d990600160a01b900463ffffffff1681565b60405163ffffffff909116815260200161013e565b3480156101fa57600080fd5b5061016761020936600461128b565b61040b565b34801561021a57600080fd5b5061019d7f000000000000000000000000000000000000000000000000000000000000000081565b34801561024e57600080fd5b5060045461019d906001600160a01b031681565b610167610455565b34801561027657600080fd5b5060035461019d906001600160a01b031681565b34801561029657600080fd5b5060015461019d906001600160a01b031681565b3480156102b657600080fd5b50610167610bd3565b3480156102cb57600080fd5b5061019d7f000000000000000000000000000000000000000000000000000000000000000081565b3480156102ff57600080fd5b506000546001600160a01b031661019d565b34801561031d57600080fd5b5061019d7f000000000000000000000000000000000000000000000000000000000000000081565b34801561035157600080fd5b5061019d7f000000000000000000000000000000000000000000000000000000000000000081565b34801561038557600080fd5b506101676103943660046112cc565b610be7565b3480156103a557600080fd5b506101676103b43660046112cc565b610c3e565b6103c1610d03565b6001805463ffffffff909216600160a01b027fffffffffffffffff0000000000000000000000000000000000000000000000009092166001600160a01b0390931692909217179055565b610413610d03565b600380546001600160a01b0394851673ffffffffffffffffffffffffffffffffffffffff19918216179091556004805493909416921691909117909155600255565b7f00000000000000000000000000000000000000000000000000000000000000006001600160a01b031663d113b95c6040518163ffffffff1660e01b8152600401600060405180830381600087803b1580156104b057600080fd5b505af11580156104c4573d6000803e3d6000fd5b50506040516370a0823160e01b8152306004820152600092506001600160a01b037f000000000000000000000000000000000000000000000000000000000000000081169250631f80b95a917f0000000000000000000000000000000000000000000000000000000000000000909116906370a0823190602401602060405180830381865afa15801561055b573d6000803e3d6000fd5b505050506040513d601f19601f8201168201806040525081019061057f91906112e9565b6040518263ffffffff1660e01b815260040161059d91815260200190565b602060405180830381865afa1580156105ba573d6000803e3d6000fd5b505050506040513d601f19601f820116820180604052508101906105de91906112e9565b9050600081116106355760405162461bcd60e51b815260206004820152601560248201527f4e6f20726576656e756520746f20636f6c6c656374000000000000000000000060448201526064015b60405180910390fd5b6040517f40c10f19000000000000000000000000000000000000000000000000000000008152306004820152602481018290527f00000000000000000000000000000000000000000000000000000000000000006001600160a01b0316906340c10f1990604401600060405180830381600087803b1580156106b657600080fd5b505af11580156106ca573d6000803e3d6000fd5b50506040516370a0823160e01b8152306004820152600092507f00000000000000000000000000000000000000000000000000000000000000006001600160a01b031691506370a0823190602401602060405180830381865afa158015610735573d6000803e3d6000fd5b505050506040513d601f19601f8201168201806040525081019061075991906112e9565b60405190915081907f57af161438f8fdc89d286da9e49368f4583497e141ba2de6efa3977569193f0b90600090a2600061079582611b58610d49565b60405163a9059cbb60e01b81526001600160a01b037f000000000000000000000000000000000000000000000000000000000000000081166004830152602482018390529192507f00000000000000000000000000000000000000000000000000000000000000009091169063a9059cbb906044016020604051808303816000875af1158015610829573d6000803e3d6000fd5b505050506040513d601f19601f8201168201806040525081019061084d9190611302565b5060405181906001600160a01b037f000000000000000000000000000000000000000000000000000000000000000016907f8d41c8766c1135ba5f49e1a78778e75075121c93494fcd59d27c505d9814223790600090a36040516370a0823160e01b81526001600160a01b037f00000000000000000000000000000000000000000000000000000000000000008116600483015282917ffe4996cd48c364c468cee70dd6b9061874ff01b05c5ea49311cbcabd9b9cb615917f000000000000000000000000000000000000000000000000000000000000000016906370a0823190602401602060405180830381865afa15801561094e573d6000803e3d6000fd5b505050506040513d601f19601f8201168201806040525081019061097291906112e9565b60405190815260200160405180910390a26000610991836104e2610d49565b905061099c81610dc6565b60405181906001600160a01b037f000000000000000000000000000000000000000000000000000000000000000016907f8d41c8766c1135ba5f49e1a78778e75075121c93494fcd59d27c505d9814223790600090a36000610a00846104e2610d49565b6004805460405163a9059cbb60e01b81526001600160a01b0391821692810192909252602482018590529192507f00000000000000000000000000000000000000000000000000000000000000009091169063a9059cbb906044016020604051808303816000875af1158015610a7a573d6000803e3d6000fd5b505050506040513d601f19601f82011682018060405250810190610a9e9190611302565b5060045460405183916001600160a01b0316907f8d41c8766c1135ba5f49e1a78778e75075121c93494fcd59d27c505d9814223790600090a360008183610ae5868861133a565b610aef919061133a565b610af9919061133a565b60035460405163a9059cbb60e01b81526001600160a01b039182166004820152602481018390529192507f0000000000000000000000000000000000000000000000000000000000000000169063a9059cbb906044016020604051808303816000875af1158015610b6e573d6000803e3d6000fd5b505050506040513d601f19601f82011682018060405250810190610b929190611302565b5060035460405182916001600160a01b0316907f8d41c8766c1135ba5f49e1a78778e75075121c93494fcd59d27c505d9814223790600090a3505050505050565b610bdb610d03565b610be56000610fb4565b565b610bef610d03565b6001600160a01b038116610c32576040517f1e4fbdf70000000000000000000000000000000000000000000000000000000081526000600482015260240161062c565b610c3b81610fb4565b50565b610c46610d03565b6001600160a01b038116610c845760405133904780156108fc02916000818181858888f19350505050158015610c80573d6000803e3d6000fd5b5050565b6040516370a0823160e01b8152306004820152610c3b9033906001600160a01b038416906370a0823190602401602060405180830381865afa158015610cce573d6000803e3d6000fd5b505050506040513d601f19601f82011682018060405250810190610cf291906112e9565b6001600160a01b0384169190611011565b6000546001600160a01b03163314610be5576040517f118cdaa700000000000000000000000000000000000000000000000000000000815233600482015260240161062c565b6000612710610d58838561134d565b1015610da65760405162461bcd60e51b815260206004820152601560248201527f616d6f756e74202a20627073203e2031305f3030300000000000000000000000604482015260640161062c565b612710610db3838561134d565b610dbd9190611364565b90505b92915050565b6040805160e08101909152600154600160a01b810463ffffffff1682526000919060208201906001600160a01b031681526020018381526020016103e860025485610e11919061134d565b610e1b9190611364565b81526040805160008082526020808301845280850192909252825181815280830184528385015282519182018352808252606090930152517f3b6f743b000000000000000000000000000000000000000000000000000000008152919250907f00000000000000000000000000000000000000000000000000000000000000006001600160a01b031690633b6f743b90610ebb9085908590600401611455565b6040805180830381865afa158015610ed7573d6000803e3d6000fd5b505050506040513d601f19601f82011682018060405250810190610efb91906114d6565b80516040517fc7c7f5b30000000000000000000000000000000000000000000000000000000081529192506001600160a01b037f0000000000000000000000000000000000000000000000000000000000000000169163c7c7f5b39190610f6a908690869030906004016114f2565b60c06040518083038185885af1158015610f88573d6000803e3d6000fd5b50505050506040513d601f19601f82011682018060405250810190610fad919061152f565b5050505050565b600080546001600160a01b0383811673ffffffffffffffffffffffffffffffffffffffff19831681178455604051919092169283917f8be0079c531659141344cd1fd0a4f28419497f9722a3daafe3b4186f6b6457e09190a35050565b604080516001600160a01b038416602482015260448082018490528251808303909101815260649091019091526020810180517bffffffffffffffffffffffffffffffffffffffffffffffffffffffff1663a9059cbb60e01b17905261107890849061107d565b505050565b60006110926001600160a01b038416836110f9565b905080516000141580156110b75750808060200190518101906110b59190611302565b155b15611078576040517f5274afe70000000000000000000000000000000000000000000000000000000081526001600160a01b038416600482015260240161062c565b6060610dbd8383600084600080856001600160a01b0316848660405161111f91906115d1565b60006040518083038185875af1925050503d806000811461115c576040519150601f19603f3d011682016040523d82523d6000602084013e611161565b606091505b509150915061117186838361117d565b925050505b9392505050565b6060826111925761118d826111f2565b611176565b81511580156111a957506001600160a01b0384163b155b156111eb576040517f9996b3150000000000000000000000000000000000000000000000000000000081526001600160a01b038516600482015260240161062c565b5080611176565b8051156112025780518082602001fd5b6040517f1425ea4200000000000000000000000000000000000000000000000000000000815260040160405180910390fd5b6001600160a01b0381168114610c3b57600080fd5b6000806040838503121561125c57600080fd5b823561126781611234565b9150602083013563ffffffff8116811461128057600080fd5b809150509250929050565b6000806000606084860312156112a057600080fd5b83356112ab81611234565b925060208401356112bb81611234565b929592945050506040919091013590565b6000602082840312156112de57600080fd5b813561117681611234565b6000602082840312156112fb57600080fd5b5051919050565b60006020828403121561131457600080fd5b8151801515811461117657600080fd5b634e487b7160e01b600052601160045260246000fd5b81810381811115610dc057610dc0611324565b8082028115828204841417610dc057610dc0611324565b60008261138157634e487b7160e01b600052601260045260246000fd5b500490565b60005b838110156113a1578181015183820152602001611389565b50506000910152565b600081518084526113c2816020860160208601611386565b601f01601f19169290920160200192915050565b63ffffffff81511682526020810151602083015260408101516040830152606081015160608301526000608082015160e0608085015261141960e08501826113aa565b905060a083015184820360a086015261143282826113aa565b91505060c083015184820360c086015261144c82826113aa565b95945050505050565b60408152600061146860408301856113d6565b905082151560208301529392505050565b60006040828403121561148b57600080fd5b6040516040810181811067ffffffffffffffff821117156114bc57634e487b7160e01b600052604160045260246000fd5b604052825181526020928301519281019290925250919050565b6000604082840312156114e857600080fd5b610dbd8383611479565b60808152600061150560808301866113d6565b905083516020830152602084015160408301526001600160a01b0383166060830152949350505050565b60008082840360c081121561154357600080fd5b608081121561155157600080fd5b506040516060810167ffffffffffffffff828210818311171561158457634e487b7160e01b600052604160045260246000fd5b81604052855183526020860151915080821682146115a157600080fd5b5060208201526115b48560408601611479565b604082015291506115c88460808501611479565b90509250929050565b600082516115e3818460208701611386565b919091019291505056fea264697066735822122012a5a3755af41298ed63225687c31f60305eca9a71b728b9cb8d9f2272fcd71664736f6c63430008150033",
  "devdoc": {
    "details": "The contract is upgradeable and inherits `Ownable2StepUpgradeable`. It supports setting an ODOS router, defining sZAI and USDC tokens, and has functions for swapping and cross-chain revenue distribution.",
    "errors": {
      "AddressEmptyCode(address)": [
        {
          "details": "There's no code at `target` (it is not a contract)."
        }
      ],
      "AddressInsufficientBalance(address)": [
        {
          "details": "The ETH balance of the account is not enough to perform the operation."
        }
      ],
      "FailedInnerCall()": [
        {
          "details": "A call to an address target failed. The target may have reverted."
        }
      ],
      "OwnableInvalidOwner(address)": [
        {
          "details": "The owner is not a valid owner account. (eg. `address(0)`)"
        }
      ],
      "OwnableUnauthorizedAccount(address)": [
        {
          "details": "The caller account is not authorized to perform an operation."
        }
      ],
      "SafeERC20FailedOperation(address)": [
        {
          "details": "An operation with an ERC20 token failed."
        }
      ]
    },
    "kind": "dev",
    "methods": {
      "owner()": {
        "details": "Returns the address of the current owner."
      },
      "refund(address)": {
        "details": "Only callable by owner of the contract",
        "params": {
          "token": "The ERC20 token to be refunded."
        }
      },
      "renounceOwnership()": {
        "details": "Leaves the contract without owner. It will not be possible to call `onlyOwner` functions. Can only be called by the current owner. NOTE: Renouncing ownership will leave the contract without an owner, thereby disabling any functionality that is only available to the owner."
      },
      "setLayerZeroDestination(address,uint32)": {
        "params": {
          "_dstEID": "The destination EID on the remote chain.",
          "_remoteAddr": "The destination address on the remote chain."
        }
      },
      "transferOwnership(address)": {
        "details": "Transfers ownership of the contract to a new account (`newOwner`). Can only be called by the current owner."
      }
    },
    "title": "sUSDeCollectorCron",
    "version": 1
  },
  "userdoc": {
    "kind": "user",
    "methods": {
      "refund(address)": {
        "notice": "Refunds the specified token balance held by the contract to the caller."
      },
      "setDestinationAddresses(address,address,uint256)": {
        "notice": "Sets the destination addresses for cross-chain transfers."
      },
      "setLayerZeroDestination(address,uint32)": {
        "notice": "Sends the specified amount of ZAI to base via LayerZero."
      }
    },
    "notice": "A contract that manages revenue distribution through USDC transfers, using Stargate for cross-chain messaging and optionally performing swaps via the ODOS router.",
    "version": 1
  },
  "storageLayout": {
    "storage": [
      {
        "astId": 3391,
        "contract": "contracts/periphery/crons/sUSDeCollectorCron.sol:sUSDeCollectorCron",
        "label": "_owner",
        "offset": 0,
        "slot": "0",
        "type": "t_address"
      },
      {
        "astId": 7028,
        "contract": "contracts/periphery/crons/sUSDeCollectorCron.sol:sUSDeCollectorCron",
        "label": "remoteDestination",
        "offset": 0,
        "slot": "1",
        "type": "t_address"
      },
      {
        "astId": 7030,
        "contract": "contracts/periphery/crons/sUSDeCollectorCron.sol:sUSDeCollectorCron",
        "label": "remoteEID",
        "offset": 20,
        "slot": "1",
        "type": "t_uint32"
      },
      {
        "astId": 7032,
        "contract": "contracts/periphery/crons/sUSDeCollectorCron.sol:sUSDeCollectorCron",
        "label": "remoteSlippage",
        "offset": 0,
        "slot": "2",
        "type": "t_uint256"
      },
      {
        "astId": 7034,
        "contract": "contracts/periphery/crons/sUSDeCollectorCron.sol:sUSDeCollectorCron",
        "label": "treasury",
        "offset": 0,
        "slot": "3",
        "type": "t_address"
      },
      {
        "astId": 7036,
        "contract": "contracts/periphery/crons/sUSDeCollectorCron.sol:sUSDeCollectorCron",
        "label": "mahaBuyback",
        "offset": 0,
        "slot": "4",
        "type": "t_address"
      }
    ],
    "types": {
      "t_address": {
        "encoding": "inplace",
        "label": "address",
        "numberOfBytes": "20"
      },
      "t_uint256": {
        "encoding": "inplace",
        "label": "uint256",
        "numberOfBytes": "32"
      },
      "t_uint32": {
        "encoding": "inplace",
        "label": "uint32",
        "numberOfBytes": "4"
      }
    }
  }
}