{
  "address": "0x460F0411CcFb0951FfB526c41E98Ba3a28620AA9",
  "abi": [
    {
      "inputs": [
        {
          "internalType": "address",
          "name": "_staking",
          "type": "address"
        },
        {
          "internalType": "contract IERC20",
          "name": "_maha",
          "type": "address"
        },
        {
          "internalType": "address",
          "name": "_psm",
          "type": "address"
        },
        {
          "internalType": "address",
          "name": "_odos",
          "type": "address"
        }
      ],
      "stateMutability": "nonpayable",
      "type": "constructor"
    },
    {
      "inputs": [
        {
          "internalType": "address",
          "name": "target",
          "type": "address"
        }
      ],
      "name": "AddressEmptyCode",
      "type": "error"
    },
    {
      "inputs": [
        {
          "internalType": "address",
          "name": "account",
          "type": "address"
        }
      ],
      "name": "AddressInsufficientBalance",
      "type": "error"
    },
    {
      "inputs": [],
      "name": "CollateralTransferFailed",
      "type": "error"
    },
    {
      "inputs": [],
      "name": "FailedInnerCall",
      "type": "error"
    },
    {
      "inputs": [],
      "name": "OdosSwapFailed",
      "type": "error"
    },
    {
      "inputs": [
        {
          "internalType": "address",
          "name": "token",
          "type": "address"
        }
      ],
      "name": "SafeERC20FailedOperation",
      "type": "error"
    },
    {
      "inputs": [],
      "name": "TokenTransferFailed",
      "type": "error"
    },
    {
      "anonymous": false,
      "inputs": [
        {
          "indexed": true,
          "internalType": "address",
          "name": "user",
          "type": "address"
        },
        {
          "indexed": true,
          "internalType": "uint256",
          "name": "collateralAmount",
          "type": "uint256"
        },
        {
          "indexed": true,
          "internalType": "uint256",
          "name": "zaiAmount",
          "type": "uint256"
        },
        {
          "indexed": false,
          "internalType": "uint256",
          "name": "newStakedAmount",
          "type": "uint256"
        }
      ],
      "name": "Zapped",
      "type": "event"
    },
    {
      "inputs": [],
      "name": "collateral",
      "outputs": [
        {
          "internalType": "contract IERC20Metadata",
          "name": "",
          "type": "address"
        }
      ],
      "stateMutability": "view",
      "type": "function"
    },
    {
      "inputs": [],
      "name": "decimalOffset",
      "outputs": [
        {
          "internalType": "uint256",
          "name": "",
          "type": "uint256"
        }
      ],
      "stateMutability": "view",
      "type": "function"
    },
    {
      "inputs": [],
      "name": "maha",
      "outputs": [
        {
          "internalType": "contract IERC20",
          "name": "",
          "type": "address"
        }
      ],
      "stateMutability": "view",
      "type": "function"
    },
    {
      "inputs": [],
      "name": "odos",
      "outputs": [
        {
          "internalType": "address",
          "name": "",
          "type": "address"
        }
      ],
      "stateMutability": "view",
      "type": "function"
    },
    {
      "inputs": [],
      "name": "pool",
      "outputs": [
        {
          "internalType": "contract IERC20Metadata",
          "name": "",
          "type": "address"
        }
      ],
      "stateMutability": "view",
      "type": "function"
    },
    {
      "inputs": [],
      "name": "psm",
      "outputs": [
        {
          "internalType": "contract IPegStabilityModule",
          "name": "",
          "type": "address"
        }
      ],
      "stateMutability": "view",
      "type": "function"
    },
    {
      "inputs": [],
      "name": "staking",
      "outputs": [
        {
          "internalType": "contract IERC4626",
          "name": "",
          "type": "address"
        }
      ],
      "stateMutability": "view",
      "type": "function"
    },
    {
      "inputs": [],
      "name": "zai",
      "outputs": [
        {
          "internalType": "contract IERC20Metadata",
          "name": "",
          "type": "address"
        }
      ],
      "stateMutability": "view",
      "type": "function"
    },
    {
      "inputs": [
        {
          "internalType": "uint256",
          "name": "collateralAmount",
          "type": "uint256"
        },
        {
          "internalType": "uint256",
          "name": "minLpAmount",
          "type": "uint256"
        }
      ],
      "name": "zapIntoLP",
      "outputs": [],
      "stateMutability": "nonpayable",
      "type": "function"
    },
    {
      "inputs": [
        {
          "internalType": "contract IERC20",
          "name": "swapAsset",
          "type": "address"
        },
        {
          "internalType": "uint256",
          "name": "swapAmount",
          "type": "uint256"
        },
        {
          "internalType": "uint256",
          "name": "minLpAmount",
          "type": "uint256"
        },
        {
          "internalType": "bytes",
          "name": "odosCallData",
          "type": "bytes"
        }
      ],
      "name": "zapIntoLPWithOdos",
      "outputs": [],
      "stateMutability": "payable",
      "type": "function"
    },
    {
      "inputs": [
        {
          "internalType": "uint256",
          "name": "zaiAmount",
          "type": "uint256"
        },
        {
          "internalType": "uint256",
          "name": "collateralAmount",
          "type": "uint256"
        },
        {
          "internalType": "uint256",
          "name": "minLpAmount",
          "type": "uint256"
        }
      ],
      "name": "zapWithZaiIntoLP",
      "outputs": [],
      "stateMutability": "nonpayable",
      "type": "function"
    }
  ],
  "transactionHash": "0x01d418e824ef2f6afb972ed99dddd9d574f13a2ecb3f3746dfa6650bf3d12015",
  "args": [
    "0x237efE587f2cB44597063DC8403a4892a60A5a4f",
    "0x745407c86df8db893011912d3ab28e68b62e49b0",
    "0x69000052a82e218ccb61fe6e9d7e3f87b9c5916f",
    "0x0000000000000000000000000000000000000000"
  ],
  "numDeployments": 1,
  "solcInputHash": "71eab4334ea47302deeff82f22c074a7",
  "bytecode": "0x60806040523480156200001157600080fd5b50604051620017d4380380620017d483398101604081905262000034916200053b565b600080546001600160a01b038087166001600160a01b031992831681179093556004805491861691909216178155604080516338d52e0f60e01b815290518793869390926338d52e0f92818301926020928290030181865afa1580156200009f573d6000803e3d6000fd5b505050506040513d601f19601f82011682018060405250810190620000c59190620005a3565b600180546001600160a01b0319166001600160a01b0392831617905560048054604080516301c502cd60e21b8152905191909316926307140b34928181019260209290919082900301816000875af115801562000126573d6000803e3d6000fd5b505050506040513d601f19601f820116820180604052508101906200014c9190620005a3565b600280546001600160a01b0319166001600160a01b03928316179055600480546040805163d8dfeb4560e01b81529051919093169263d8dfeb45928181019260209290919082900301816000875af1158015620001ad573d6000803e3d6000fd5b505050506040513d601f19601f82011682018060405250810190620001d39190620005a3565b600380546001600160a01b0319166001600160a01b039290921691821790556040805163313ce56760e01b8152905163313ce567916004808201926020929091908290030181865afa1580156200022e573d6000803e3d6000fd5b505050506040513d601f19601f82011682018060405250810190620002549190620005ca565b6200026190601262000605565b6200026e90600a62000724565b60055560025460015460405163095ea7b360e01b81526001600160a01b039182166004820152600019602482015291169063095ea7b3906044016020604051808303816000875af1158015620002c8573d6000803e3d6000fd5b505050506040513d601f19601f82011682018060405250810190620002ee919062000735565b5060035460015460405163095ea7b360e01b81526001600160a01b039182166004820152600019602482015291169063095ea7b3906044016020604051808303816000875af115801562000346573d6000803e3d6000fd5b505050506040513d601f19601f820116820180604052508101906200036c919062000735565b506003546004805460405163095ea7b360e01b81526001600160a01b039182169281019290925260001960248301529091169063095ea7b3906044016020604051808303816000875af1158015620003c8573d6000803e3d6000fd5b505050506040513d601f19601f82011682018060405250810190620003ee919062000735565b5060015460405163095ea7b360e01b81526001600160a01b03848116600483015260001960248301529091169063095ea7b3906044016020604051808303816000875af115801562000444573d6000803e3d6000fd5b505050506040513d601f19601f820116820180604052508101906200046a919062000735565b505060068054306001600160a01b0319918216179091556007805482166001600160a01b03878116918217909255600880549093168583161790925560015460405163095ea7b360e01b815291166004820152600019602482015290915063095ea7b3906044016020604051808303816000875af1158015620004f1573d6000803e3d6000fd5b505050506040513d601f19601f8201168201806040525081019062000517919062000735565b505050505062000759565b6001600160a01b03811681146200053857600080fd5b50565b600080600080608085870312156200055257600080fd5b84516200055f8162000522565b6020860151909450620005728162000522565b6040860151909350620005858162000522565b6060860151909250620005988162000522565b939692955090935050565b600060208284031215620005b657600080fd5b8151620005c38162000522565b9392505050565b600060208284031215620005dd57600080fd5b815160ff81168114620005c357600080fd5b634e487b7160e01b600052601160045260246000fd5b60ff8281168282160390811115620006215762000621620005ef565b92915050565b600181815b80851115620006685781600019048211156200064c576200064c620005ef565b808516156200065a57918102915b93841c93908002906200062c565b509250929050565b600082620006815750600162000621565b81620006905750600062000621565b8160018114620006a95760028114620006b457620006d4565b600191505062000621565b60ff841115620006c857620006c8620005ef565b50506001821b62000621565b5060208310610133831016604e8410600b8410161715620006f9575081810a62000621565b62000705838362000627565b80600019048211156200071c576200071c620005ef565b029392505050565b6000620005c360ff84168362000670565b6000602082840312156200074857600080fd5b81518015158114620005c357600080fd5b61106b80620007696000396000f3fe6080604052600436106100bc5760003560e01c80634cf088d911610074578063d1b39ae51161004e578063d1b39ae5146101d3578063d8dfeb45146101f7578063fbbe5a331461021757600080fd5b80634cf088d91461017e57806352d8e34f1461019e578063c69fd06b146101c057600080fd5b806316f0115b116100a557806316f0115b1461011e5780631eba02ec1461013e5780633de00c361461015e57600080fd5b806304bda262146100c157806307140b34146100fe575b600080fd5b3480156100cd57600080fd5b506004546100e1906001600160a01b031681565b6040516001600160a01b0390911681526020015b60405180910390f35b34801561010a57600080fd5b506002546100e1906001600160a01b031681565b34801561012a57600080fd5b506001546100e1906001600160a01b031681565b34801561014a57600080fd5b506008546100e1906001600160a01b031681565b34801561016a57600080fd5b506007546100e1906001600160a01b031681565b34801561018a57600080fd5b506000546100e1906001600160a01b031681565b3480156101aa57600080fd5b506101be6101b9366004610e05565b610237565b005b6101be6101ce366004610e47565b61051b565b3480156101df57600080fd5b506101e960055481565b6040519081526020016100f5565b34801561020357600080fd5b506003546100e1906001600160a01b031681565b34801561022357600080fd5b506101be610232366004610f2a565b61072c565b82156102be576002546006546040516323b872dd60e01b81523360048201526001600160a01b039182166024820152604481018690529116906323b872dd906064016020604051808303816000875af1158015610298573d6000803e3d6000fd5b505050506040513d601f19601f820116820180604052508101906102bc9190610f4c565b505b8115610345576003546006546040516323b872dd60e01b81523360048201526001600160a01b039182166024820152604481018590529116906323b872dd906064016020604051808303816000875af115801561031f573d6000803e3d6000fd5b505050506040513d601f19601f820116820180604052508101906103439190610f4c565b505b610350838383610759565b6000546001546040516370a0823160e01b81523060048201526001600160a01b0392831692636e553f659216906370a0823190602401602060405180830381865afa1580156103a3573d6000803e3d6000fd5b505050506040513d601f19601f820116820180604052508101906103c79190610f6e565b6040517fffffffff0000000000000000000000000000000000000000000000000000000060e084901b16815260048101919091523360248201526044016020604051808303816000875af1158015610423573d6000803e3d6000fd5b505050506040513d601f19601f820116820180604052508101906104479190610f6e565b5060025461045d906001600160a01b03166107f9565b600354610472906001600160a01b03166107f9565b6001546040516370a0823160e01b81523360048201819052859285927f8254cb1554a3a4f342e4d6bc29ea29f483d72ec4183e94e4a83410c93af84341916001600160a01b0316906370a08231906024015b602060405180830381865afa1580156104e1573d6000803e3d6000fd5b505050506040513d601f19601f820116820180604052508101906105059190610f6e565b60405190815260200160405180910390a4505050565b6001600160a01b0384161561054657600654610546906001600160a01b038681169133911686610934565b6008546040517f095ea7b30000000000000000000000000000000000000000000000000000000081526001600160a01b039182166004820152602481018590529085169063095ea7b3906044016020604051808303816000875af11580156105b2573d6000803e3d6000fd5b505050506040513d601f19601f820116820180604052508101906105d69190610f4c565b506008546040516000916001600160a01b03169034906105f7908590610f87565b60006040518083038185875af1925050503d8060008114610634576040519150601f19603f3d011682016040523d82523d6000602084013e610639565b606091505b50509050806106a9576040517f08c379a000000000000000000000000000000000000000000000000000000000815260206004820152601060248201527f6f646f732063616c6c206661696c65640000000000000000000000000000000060448201526064015b60405180910390fd5b6003546006546040516370a0823160e01b81526001600160a01b0391821660048201526107259291909116906370a0823190602401602060405180830381865afa1580156106fb573d6000803e3d6000fd5b505050506040513d601f19601f8201168201806040525081019061071f9190610f6e565b846109a9565b5050505050565b60065460035461074b916001600160a01b039182169133911685610934565b61075582826109a9565b5050565b610761610de7565b828152602081018490526001546040517f0b4c7e4d0000000000000000000000000000000000000000000000000000000081526001600160a01b0390911690630b4c7e4d906107b69084908690600401610fb6565b6020604051808303816000875af11580156107d5573d6000803e3d6000fd5b505050506040513d601f19601f820116820180604052508101906107259190610f6e565b6040516370a0823160e01b81523060048201526000906001600160a01b038316906370a0823190602401602060405180830381865afa158015610840573d6000803e3d6000fd5b505050506040513d601f19601f820116820180604052508101906108649190610f6e565b90506000811180156108fd57506040517fa9059cbb000000000000000000000000000000000000000000000000000000008152336004820152602481018290526001600160a01b0383169063a9059cbb906044016020604051808303816000875af11580156108d7573d6000803e3d6000fd5b505050506040513d601f19601f820116820180604052508101906108fb9190610f4c565b155b15610755576040517f045c4b0200000000000000000000000000000000000000000000000000000000815260040160405180910390fd5b604080516001600160a01b0385811660248301528416604482015260648082018490528251808303909101815260849091019091526020810180517bffffffffffffffffffffffffffffffffffffffffffffffffffffffff166323b872dd60e01b1790526109a3908590610be0565b50505050565b6000600554836109b99190610fee565b600480546040517f40c10f190000000000000000000000000000000000000000000000000000000081523092810192909252602482018390529192506001600160a01b03909116906340c10f1990604401600060405180830381600087803b158015610a2457600080fd5b505af1158015610a38573d6000803e3d6000fd5b50505050610a4881600084610759565b6000546001546040516370a0823160e01b81523060048201526001600160a01b0392831692636e553f659216906370a0823190602401602060405180830381865afa158015610a9b573d6000803e3d6000fd5b505050506040513d601f19601f82011682018060405250810190610abf9190610f6e565b6040517fffffffff0000000000000000000000000000000000000000000000000000000060e084901b16815260048101919091523360248201526044016020604051808303816000875af1158015610b1b573d6000803e3d6000fd5b505050506040513d601f19601f82011682018060405250810190610b3f9190610f6e565b50600254610b55906001600160a01b03166107f9565b600354610b6a906001600160a01b03166107f9565b600754610b7f906001600160a01b03166107f9565b80610b8b600285611013565b6001546040516370a0823160e01b81523360048201819052917f8254cb1554a3a4f342e4d6bc29ea29f483d72ec4183e94e4a83410c93af84341916001600160a01b03909116906370a08231906024016104c4565b6000610bf56001600160a01b03841683610c61565b90508051600014158015610c1a575080806020019051810190610c189190610f4c565b155b15610c5c576040517f5274afe70000000000000000000000000000000000000000000000000000000081526001600160a01b03841660048201526024016106a0565b505050565b6060610c6f83836000610c78565b90505b92915050565b606081471015610cb6576040517fcd7860590000000000000000000000000000000000000000000000000000000081523060048201526024016106a0565b600080856001600160a01b03168486604051610cd29190610f87565b60006040518083038185875af1925050503d8060008114610d0f576040519150601f19603f3d011682016040523d82523d6000602084013e610d14565b606091505b5091509150610d24868383610d30565b925050505b9392505050565b606082610d4557610d4082610da5565b610d29565b8151158015610d5c57506001600160a01b0384163b155b15610d9e576040517f9996b3150000000000000000000000000000000000000000000000000000000081526001600160a01b03851660048201526024016106a0565b5080610d29565b805115610db55780518082602001fd5b6040517f1425ea4200000000000000000000000000000000000000000000000000000000815260040160405180910390fd5b60405180604001604052806002906020820280368337509192915050565b600080600060608486031215610e1a57600080fd5b505081359360208301359350604090920135919050565b634e487b7160e01b600052604160045260246000fd5b60008060008060808587031215610e5d57600080fd5b84356001600160a01b0381168114610e7457600080fd5b93506020850135925060408501359150606085013567ffffffffffffffff80821115610e9f57600080fd5b818701915087601f830112610eb357600080fd5b813581811115610ec557610ec5610e31565b604051601f8201601f19908116603f01168101908382118183101715610eed57610eed610e31565b816040528281528a6020848701011115610f0657600080fd5b82602086016020830137600060208483010152809550505050505092959194509250565b60008060408385031215610f3d57600080fd5b50508035926020909101359150565b600060208284031215610f5e57600080fd5b81518015158114610d2957600080fd5b600060208284031215610f8057600080fd5b5051919050565b6000825160005b81811015610fa85760208186018101518583015201610f8e565b506000920191825250919050565b60608101818460005b6002811015610fde578151835260209283019290910190600101610fbf565b5050508260408301529392505050565b8082028115828204841417610c7257634e487b7160e01b600052601160045260246000fd5b60008261103057634e487b7160e01b600052601260045260246000fd5b50049056fea2646970667358221220d3a7e6f83bd196f5a1c32721e04d2cd56289f910e5fcb22eb50cf40c918e45a064736f6c63430008150033",
  "devdoc": {
    "errors": {
      "AddressEmptyCode(address)": [
        {
          "details": "There's no code at `target` (it is not a contract)."
        }
      ],
      "AddressInsufficientBalance(address)": [
        {
          "details": "The ETH balance of the account is not enough to perform the operation."
        }
      ],
      "FailedInnerCall()": [
        {
          "details": "A call to an address target failed. The target may have reverted."
        }
      ],
      "SafeERC20FailedOperation(address)": [
        {
          "details": "An operation with an ERC20 token failed."
        }
      ]
    },
    "kind": "dev",
    "methods": {
      "zapIntoLP(uint256,uint256)": {
        "details": "This function is used when the user only has collateral tokens.",
        "params": {
          "collateralAmount": "The amount of collateral to zap",
          "minLpAmount": "The minimum amount of LP tokens to stake"
        }
      },
      "zapWithZaiIntoLP(uint256,uint256,uint256)": {
        "details": "This function is used when the user already has ZAI tokens.",
        "params": {
          "collateralAmount": "The amount of collateral to zap",
          "minLpAmount": "The minimum amount of LP tokens to stake",
          "zaiAmount": "The amount of ZAI to zap"
        }
      }
    },
    "version": 1
  },
  "userdoc": {
    "kind": "user",
    "methods": {
      "zapIntoLP(uint256,uint256)": {
        "notice": "Zaps collateral into ZAI LP tokens"
      },
      "zapWithZaiIntoLP(uint256,uint256,uint256)": {
        "notice": "Zaps ZAI and collateral into LP tokens"
      }
    },
    "version": 1
  },
  "storageLayout": {
    "storage": [
      {
        "astId": 32257,
        "contract": "contracts/periphery/zaps/ZapCurvePoolMAHA.sol:ZapCurvePoolMAHA",
        "label": "staking",
        "offset": 0,
        "slot": "0",
        "type": "t_contract(IERC4626)8797"
      },
      {
        "astId": 32260,
        "contract": "contracts/periphery/zaps/ZapCurvePoolMAHA.sol:ZapCurvePoolMAHA",
        "label": "pool",
        "offset": 0,
        "slot": "1",
        "type": "t_contract(IERC20Metadata)11005"
      },
      {
        "astId": 32263,
        "contract": "contracts/periphery/zaps/ZapCurvePoolMAHA.sol:ZapCurvePoolMAHA",
        "label": "zai",
        "offset": 0,
        "slot": "2",
        "type": "t_contract(IERC20Metadata)11005"
      },
      {
        "astId": 32266,
        "contract": "contracts/periphery/zaps/ZapCurvePoolMAHA.sol:ZapCurvePoolMAHA",
        "label": "collateral",
        "offset": 0,
        "slot": "3",
        "type": "t_contract(IERC20Metadata)11005"
      },
      {
        "astId": 32269,
        "contract": "contracts/periphery/zaps/ZapCurvePoolMAHA.sol:ZapCurvePoolMAHA",
        "label": "psm",
        "offset": 0,
        "slot": "4",
        "type": "t_contract(IPegStabilityModule)27312"
      },
      {
        "astId": 32271,
        "contract": "contracts/periphery/zaps/ZapCurvePoolMAHA.sol:ZapCurvePoolMAHA",
        "label": "decimalOffset",
        "offset": 0,
        "slot": "5",
        "type": "t_uint256"
      },
      {
        "astId": 32273,
        "contract": "contracts/periphery/zaps/ZapCurvePoolMAHA.sol:ZapCurvePoolMAHA",
        "label": "me",
        "offset": 0,
        "slot": "6",
        "type": "t_address"
      },
      {
        "astId": 32554,
        "contract": "contracts/periphery/zaps/ZapCurvePoolMAHA.sol:ZapCurvePoolMAHA",
        "label": "maha",
        "offset": 0,
        "slot": "7",
        "type": "t_contract(IERC20)10535"
      },
      {
        "astId": 32556,
        "contract": "contracts/periphery/zaps/ZapCurvePoolMAHA.sol:ZapCurvePoolMAHA",
        "label": "odos",
        "offset": 0,
        "slot": "8",
        "type": "t_address"
      }
    ],
    "types": {
      "t_address": {
        "encoding": "inplace",
        "label": "address",
        "numberOfBytes": "20"
      },
      "t_contract(IERC20)10535": {
        "encoding": "inplace",
        "label": "contract IERC20",
        "numberOfBytes": "20"
      },
      "t_contract(IERC20Metadata)11005": {
        "encoding": "inplace",
        "label": "contract IERC20Metadata",
        "numberOfBytes": "20"
      },
      "t_contract(IERC4626)8797": {
        "encoding": "inplace",
        "label": "contract IERC4626",
        "numberOfBytes": "20"
      },
      "t_contract(IPegStabilityModule)27312": {
        "encoding": "inplace",
        "label": "contract IPegStabilityModule",
        "numberOfBytes": "20"
      },
      "t_uint256": {
        "encoding": "inplace",
        "label": "uint256",
        "numberOfBytes": "32"
      }
    }
  }
}