{
  "address": "0x64f629a1dBbBFBc6e8a41440D45ee3223f5d7261",
  "abi": [
    {
      "inputs": [
        {
          "internalType": "address",
          "name": "_staking",
          "type": "address"
        },
        {
          "internalType": "address",
          "name": "_psm",
          "type": "address"
        }
      ],
      "stateMutability": "nonpayable",
      "type": "constructor"
    },
    {
      "inputs": [],
      "name": "CollateralTransferFailed",
      "type": "error"
    },
    {
      "inputs": [],
      "name": "OdosSwapFailed",
      "type": "error"
    },
    {
      "inputs": [],
      "name": "TokenTransferFailed",
      "type": "error"
    },
    {
      "anonymous": false,
      "inputs": [
        {
          "indexed": true,
          "internalType": "address",
          "name": "user",
          "type": "address"
        },
        {
          "indexed": true,
          "internalType": "uint256",
          "name": "collateralAmount",
          "type": "uint256"
        },
        {
          "indexed": true,
          "internalType": "uint256",
          "name": "zaiAmount",
          "type": "uint256"
        },
        {
          "indexed": false,
          "internalType": "uint256",
          "name": "newStakedAmount",
          "type": "uint256"
        }
      ],
      "name": "Zapped",
      "type": "event"
    },
    {
      "inputs": [],
      "name": "collateral",
      "outputs": [
        {
          "internalType": "contract IERC20Metadata",
          "name": "",
          "type": "address"
        }
      ],
      "stateMutability": "view",
      "type": "function"
    },
    {
      "inputs": [],
      "name": "decimalOffset",
      "outputs": [
        {
          "internalType": "uint256",
          "name": "",
          "type": "uint256"
        }
      ],
      "stateMutability": "view",
      "type": "function"
    },
    {
      "inputs": [],
      "name": "pool",
      "outputs": [
        {
          "internalType": "contract ICurveStableSwapNG",
          "name": "",
          "type": "address"
        }
      ],
      "stateMutability": "view",
      "type": "function"
    },
    {
      "inputs": [],
      "name": "psm",
      "outputs": [
        {
          "internalType": "contract IPegStabilityModule",
          "name": "",
          "type": "address"
        }
      ],
      "stateMutability": "view",
      "type": "function"
    },
    {
      "inputs": [],
      "name": "staking",
      "outputs": [
        {
          "internalType": "contract IERC4626",
          "name": "",
          "type": "address"
        }
      ],
      "stateMutability": "view",
      "type": "function"
    },
    {
      "inputs": [],
      "name": "zai",
      "outputs": [
        {
          "internalType": "contract IERC20Metadata",
          "name": "",
          "type": "address"
        }
      ],
      "stateMutability": "view",
      "type": "function"
    },
    {
      "inputs": [
        {
          "internalType": "uint256",
          "name": "collateralAmount",
          "type": "uint256"
        },
        {
          "internalType": "uint256",
          "name": "minLpAmount",
          "type": "uint256"
        }
      ],
      "name": "zapIntoLP",
      "outputs": [],
      "stateMutability": "nonpayable",
      "type": "function"
    },
    {
      "inputs": [
        {
          "internalType": "uint256",
          "name": "zaiAmount",
          "type": "uint256"
        },
        {
          "internalType": "uint256",
          "name": "collateralAmount",
          "type": "uint256"
        },
        {
          "internalType": "uint256",
          "name": "minLpAmount",
          "type": "uint256"
        }
      ],
      "name": "zapWithZaiIntoLP",
      "outputs": [],
      "stateMutability": "nonpayable",
      "type": "function"
    }
  ],
  "transactionHash": "0xa378276528f180b295d3fee4d125a05e5860114e7cac62d9fda186200fcb8ac9",
  "args": [
    "0x154F52B347D8E48b8DbD8D8325Fe5bb45AAdCCDa",
    "0x69000052a82e218ccb61fe6e9d7e3f87b9c5916f"
  ],
  "numDeployments": 1,
  "solcInputHash": "afd07981a6e7f204d763e3872300d207",
  "bytecode": "0x60806040523480156200001157600080fd5b5060405162001201380380620012018339810160408190526200003491620004a1565b600080546001600160a01b038085166001600160a01b031992831681179093556004805491851691909216178155604080516338d52e0f60e01b815290518593859390926338d52e0f92818301926020928290030181865afa1580156200009f573d6000803e3d6000fd5b505050506040513d601f19601f82011682018060405250810190620000c59190620004e0565b600180546001600160a01b0319166001600160a01b0392831617905560048054604080516301c502cd60e21b8152905191909316926307140b34928181019260209290919082900301816000875af115801562000126573d6000803e3d6000fd5b505050506040513d601f19601f820116820180604052508101906200014c9190620004e0565b600280546001600160a01b0319166001600160a01b03928316179055600480546040805163d8dfeb4560e01b81529051919093169263d8dfeb45928181019260209290919082900301816000875af1158015620001ad573d6000803e3d6000fd5b505050506040513d601f19601f82011682018060405250810190620001d39190620004e0565b600380546001600160a01b0319166001600160a01b039290921691821790556040805163313ce56760e01b8152905163313ce567916004808201926020929091908290030181865afa1580156200022e573d6000803e3d6000fd5b505050506040513d601f19601f8201168201806040525081019062000254919062000507565b6200026190601262000542565b6200026e90600a62000661565b60055560025460015460405163095ea7b360e01b81526001600160a01b039182166004820152600019602482015291169063095ea7b3906044016020604051808303816000875af1158015620002c8573d6000803e3d6000fd5b505050506040513d601f19601f82011682018060405250810190620002ee919062000672565b5060035460015460405163095ea7b360e01b81526001600160a01b039182166004820152600019602482015291169063095ea7b3906044016020604051808303816000875af115801562000346573d6000803e3d6000fd5b505050506040513d601f19601f820116820180604052508101906200036c919062000672565b506003546004805460405163095ea7b360e01b81526001600160a01b039182169281019290925260001960248301529091169063095ea7b3906044016020604051808303816000875af1158015620003c8573d6000803e3d6000fd5b505050506040513d601f19601f82011682018060405250810190620003ee919062000672565b5060015460405163095ea7b360e01b81526001600160a01b03848116600483015260001960248301529091169063095ea7b3906044016020604051808303816000875af115801562000444573d6000803e3d6000fd5b505050506040513d601f19601f820116820180604052508101906200046a919062000672565b5050600680546001600160a01b031916301790555062000696915050565b6001600160a01b03811681146200049e57600080fd5b50565b60008060408385031215620004b557600080fd5b8251620004c28162000488565b6020840151909250620004d58162000488565b809150509250929050565b600060208284031215620004f357600080fd5b8151620005008162000488565b9392505050565b6000602082840312156200051a57600080fd5b815160ff811681146200050057600080fd5b634e487b7160e01b600052601160045260246000fd5b60ff82811682821603908111156200055e576200055e6200052c565b92915050565b600181815b80851115620005a55781600019048211156200058957620005896200052c565b808516156200059757918102915b93841c939080029062000569565b509250929050565b600082620005be575060016200055e565b81620005cd575060006200055e565b8160018114620005e65760028114620005f15762000611565b60019150506200055e565b60ff8411156200060557620006056200052c565b50506001821b6200055e565b5060208310610133831016604e8410600b841016171562000636575081810a6200055e565b62000642838362000564565b80600019048211156200065957620006596200052c565b029392505050565b60006200050060ff841683620005ad565b6000602082840312156200068557600080fd5b815180151581146200050057600080fd5b610b5b80620006a66000396000f3fe608060405234801561001057600080fd5b50600436106100885760003560e01c806352d8e34f1161005b57806352d8e34f146100f6578063d1b39ae51461010b578063d8dfeb4514610122578063fbbe5a331461013557600080fd5b806304bda2621461008d57806307140b34146100bd57806316f0115b146100d05780634cf088d9146100e3575b600080fd5b6004546100a0906001600160a01b031681565b6040516001600160a01b0390911681526020015b60405180910390f35b6002546100a0906001600160a01b031681565b6001546100a0906001600160a01b031681565b6000546100a0906001600160a01b031681565b6101096101043660046109d7565b610148565b005b61011460055481565b6040519081526020016100b4565b6003546100a0906001600160a01b031681565b610109610143366004610a03565b6104fa565b82156101cf576002546006546040516323b872dd60e01b81523360048201526001600160a01b039182166024820152604481018690529116906323b872dd906064016020604051808303816000875af11580156101a9573d6000803e3d6000fd5b505050506040513d601f19601f820116820180604052508101906101cd9190610a25565b505b8115610256576003546006546040516323b872dd60e01b81523360048201526001600160a01b039182166024820152604481018590529116906323b872dd906064016020604051808303816000875af1158015610230573d6000803e3d6000fd5b505050506040513d601f19601f820116820180604052508101906102549190610a25565b505b604080516002808252606082018352600092602083019080368337019050509050838160008151811061028b5761028b610a4e565b60200260200101818152505082816001815181106102ab576102ab610a4e565b602090810291909101015260015460405163a7256d0960e01b81526001600160a01b039091169063a7256d09906102ea90849086903090600401610a64565b6020604051808303816000875af1158015610309573d6000803e3d6000fd5b505050506040513d601f19601f8201168201806040525081019061032d9190610abf565b506000546001546040516370a0823160e01b81523060048201526001600160a01b0392831692636e553f659216906370a0823190602401602060405180830381865afa158015610381573d6000803e3d6000fd5b505050506040513d601f19601f820116820180604052508101906103a59190610abf565b6040517fffffffff0000000000000000000000000000000000000000000000000000000060e084901b16815260048101919091523360248201526044016020604051808303816000875af1158015610401573d6000803e3d6000fd5b505050506040513d601f19601f820116820180604052508101906104259190610abf565b5060025461043b906001600160a01b0316610898565b600354610450906001600160a01b0316610898565b6001546040516370a0823160e01b81523360048201819052869286927f8254cb1554a3a4f342e4d6bc29ea29f483d72ec4183e94e4a83410c93af84341916001600160a01b0316906370a08231906024015b602060405180830381865afa1580156104bf573d6000803e3d6000fd5b505050506040513d601f19601f820116820180604052508101906104e39190610abf565b60405190815260200160405180910390a450505050565b6003546006546040516323b872dd60e01b81523360048201526001600160a01b039182166024820152604481018590529116906323b872dd906064016020604051808303816000875af1158015610555573d6000803e3d6000fd5b505050506040513d601f19601f820116820180604052508101906105799190610a25565b50600060026005548461058c9190610ad8565b6105969190610b03565b600480546040517f40c10f190000000000000000000000000000000000000000000000000000000081523092810192909252602482018390529192506001600160a01b03909116906340c10f1990604401600060405180830381600087803b15801561060157600080fd5b505af1158015610615573d6000803e3d6000fd5b5060009250600291506106259050565b60405190808252806020026020018201604052801561064e578160200160208202803683370190505b50905061065c600285610b03565b8160008151811061066f5761066f610a4e565b602002602001018181525050818160018151811061068f5761068f610a4e565b602090810291909101015260015460065460405163a7256d0960e01b81526001600160a01b039283169263a7256d09926106d192869289921690600401610a64565b6020604051808303816000875af11580156106f0573d6000803e3d6000fd5b505050506040513d601f19601f820116820180604052508101906107149190610abf565b506000546001546040516370a0823160e01b81523060048201526001600160a01b0392831692636e553f659216906370a0823190602401602060405180830381865afa158015610768573d6000803e3d6000fd5b505050506040513d601f19601f8201168201806040525081019061078c9190610abf565b6040517fffffffff0000000000000000000000000000000000000000000000000000000060e084901b16815260048101919091523360248201526044016020604051808303816000875af11580156107e8573d6000803e3d6000fd5b505050506040513d601f19601f8201168201806040525081019061080c9190610abf565b50600254610822906001600160a01b0316610898565b600354610837906001600160a01b0316610898565b81610843600286610b03565b6001546040516370a0823160e01b81523360048201819052917f8254cb1554a3a4f342e4d6bc29ea29f483d72ec4183e94e4a83410c93af84341916001600160a01b03909116906370a08231906024016104a2565b6040516370a0823160e01b81523060048201526000906001600160a01b038316906370a0823190602401602060405180830381865afa1580156108df573d6000803e3d6000fd5b505050506040513d601f19601f820116820180604052508101906109039190610abf565b905060008111801561099c57506040517fa9059cbb000000000000000000000000000000000000000000000000000000008152336004820152602481018290526001600160a01b0383169063a9059cbb906044016020604051808303816000875af1158015610976573d6000803e3d6000fd5b505050506040513d601f19601f8201168201806040525081019061099a9190610a25565b155b156109d3576040517f045c4b0200000000000000000000000000000000000000000000000000000000815260040160405180910390fd5b5050565b6000806000606084860312156109ec57600080fd5b505081359360208301359350604090920135919050565b60008060408385031215610a1657600080fd5b50508035926020909101359150565b600060208284031215610a3757600080fd5b81518015158114610a4757600080fd5b9392505050565b634e487b7160e01b600052603260045260246000fd5b606080825284519082018190526000906020906080840190828801845b82811015610a9d57815184529284019290840190600101610a81565b50505090830194909452506001600160a01b0391909116604090910152919050565b600060208284031215610ad157600080fd5b5051919050565b8082028115828204841417610afd57634e487b7160e01b600052601160045260246000fd5b92915050565b600082610b2057634e487b7160e01b600052601260045260246000fd5b50049056fea26469706673582212209daf3a33971ba6251fec2d92ca0d827eb096c3c5c876eaa3d3a3ca05dbffe5a864736f6c63430008150033",
  "devdoc": {
    "kind": "dev",
    "methods": {
      "zapIntoLP(uint256,uint256)": {
        "details": "This function is used when the user only has collateral tokens.",
        "params": {
          "collateralAmount": "The amount of collateral to zap",
          "minLpAmount": "The minimum amount of LP tokens to stake"
        }
      },
      "zapWithZaiIntoLP(uint256,uint256,uint256)": {
        "details": "This function is used when the user already has ZAI tokens.",
        "params": {
          "collateralAmount": "The amount of collateral to zap",
          "minLpAmount": "The minimum amount of LP tokens to stake",
          "zaiAmount": "The amount of ZAI to zap"
        }
      }
    },
    "version": 1
  },
  "userdoc": {
    "kind": "user",
    "methods": {
      "zapIntoLP(uint256,uint256)": {
        "notice": "Zaps collateral into ZAI LP tokens"
      },
      "zapWithZaiIntoLP(uint256,uint256,uint256)": {
        "notice": "Zaps ZAI and collateral into LP tokens"
      }
    },
    "version": 1
  },
  "storageLayout": {
    "storage": [
      {
        "astId": 32036,
        "contract": "contracts/periphery/zaps/ZapCurvePoolUSDC.sol:ZapCurvePoolUSDC",
        "label": "staking",
        "offset": 0,
        "slot": "0",
        "type": "t_contract(IERC4626)8797"
      },
      {
        "astId": 32039,
        "contract": "contracts/periphery/zaps/ZapCurvePoolUSDC.sol:ZapCurvePoolUSDC",
        "label": "pool",
        "offset": 0,
        "slot": "1",
        "type": "t_contract(ICurveStableSwapNG)28280"
      },
      {
        "astId": 32042,
        "contract": "contracts/periphery/zaps/ZapCurvePoolUSDC.sol:ZapCurvePoolUSDC",
        "label": "zai",
        "offset": 0,
        "slot": "2",
        "type": "t_contract(IERC20Metadata)11005"
      },
      {
        "astId": 32045,
        "contract": "contracts/periphery/zaps/ZapCurvePoolUSDC.sol:ZapCurvePoolUSDC",
        "label": "collateral",
        "offset": 0,
        "slot": "3",
        "type": "t_contract(IERC20Metadata)11005"
      },
      {
        "astId": 32048,
        "contract": "contracts/periphery/zaps/ZapCurvePoolUSDC.sol:ZapCurvePoolUSDC",
        "label": "psm",
        "offset": 0,
        "slot": "4",
        "type": "t_contract(IPegStabilityModule)27312"
      },
      {
        "astId": 32050,
        "contract": "contracts/periphery/zaps/ZapCurvePoolUSDC.sol:ZapCurvePoolUSDC",
        "label": "decimalOffset",
        "offset": 0,
        "slot": "5",
        "type": "t_uint256"
      },
      {
        "astId": 32052,
        "contract": "contracts/periphery/zaps/ZapCurvePoolUSDC.sol:ZapCurvePoolUSDC",
        "label": "me",
        "offset": 0,
        "slot": "6",
        "type": "t_address"
      }
    ],
    "types": {
      "t_address": {
        "encoding": "inplace",
        "label": "address",
        "numberOfBytes": "20"
      },
      "t_contract(ICurveStableSwapNG)28280": {
        "encoding": "inplace",
        "label": "contract ICurveStableSwapNG",
        "numberOfBytes": "20"
      },
      "t_contract(IERC20Metadata)11005": {
        "encoding": "inplace",
        "label": "contract IERC20Metadata",
        "numberOfBytes": "20"
      },
      "t_contract(IERC4626)8797": {
        "encoding": "inplace",
        "label": "contract IERC4626",
        "numberOfBytes": "20"
      },
      "t_contract(IPegStabilityModule)27312": {
        "encoding": "inplace",
        "label": "contract IPegStabilityModule",
        "numberOfBytes": "20"
      },
      "t_uint256": {
        "encoding": "inplace",
        "label": "uint256",
        "numberOfBytes": "32"
      }
    }
  }
}