{
  "address": "0x5b32C8d5ec02247A437eFa9518c33aE1a9b24978",
  "abi": [
    {
      "inputs": [
        {
          "internalType": "address",
          "name": "_staking",
          "type": "address"
        },
        {
          "internalType": "address",
          "name": "_psm",
          "type": "address"
        },
        {
          "internalType": "address",
          "name": "_szai",
          "type": "address"
        },
        {
          "internalType": "address",
          "name": "_odos",
          "type": "address"
        }
      ],
      "stateMutability": "nonpayable",
      "type": "constructor"
    },
    {
      "inputs": [
        {
          "internalType": "address",
          "name": "target",
          "type": "address"
        }
      ],
      "name": "AddressEmptyCode",
      "type": "error"
    },
    {
      "inputs": [
        {
          "internalType": "address",
          "name": "account",
          "type": "address"
        }
      ],
      "name": "AddressInsufficientBalance",
      "type": "error"
    },
    {
      "inputs": [],
      "name": "CollateralTransferFailed",
      "type": "error"
    },
    {
      "inputs": [],
      "name": "FailedInnerCall",
      "type": "error"
    },
    {
      "inputs": [],
      "name": "OdosSwapFailed",
      "type": "error"
    },
    {
      "inputs": [
        {
          "internalType": "address",
          "name": "token",
          "type": "address"
        }
      ],
      "name": "SafeERC20FailedOperation",
      "type": "error"
    },
    {
      "inputs": [],
      "name": "TokenTransferFailed",
      "type": "error"
    },
    {
      "anonymous": false,
      "inputs": [
        {
          "indexed": true,
          "internalType": "address",
          "name": "user",
          "type": "address"
        },
        {
          "indexed": true,
          "internalType": "uint256",
          "name": "collateralAmount",
          "type": "uint256"
        },
        {
          "indexed": true,
          "internalType": "uint256",
          "name": "zaiAmount",
          "type": "uint256"
        },
        {
          "indexed": false,
          "internalType": "uint256",
          "name": "newStakedAmount",
          "type": "uint256"
        }
      ],
      "name": "Zapped",
      "type": "event"
    },
    {
      "inputs": [],
      "name": "collateral",
      "outputs": [
        {
          "internalType": "contract IERC20Metadata",
          "name": "",
          "type": "address"
        }
      ],
      "stateMutability": "view",
      "type": "function"
    },
    {
      "inputs": [],
      "name": "decimalOffset",
      "outputs": [
        {
          "internalType": "uint256",
          "name": "",
          "type": "uint256"
        }
      ],
      "stateMutability": "view",
      "type": "function"
    },
    {
      "inputs": [],
      "name": "me",
      "outputs": [
        {
          "internalType": "address",
          "name": "",
          "type": "address"
        }
      ],
      "stateMutability": "view",
      "type": "function"
    },
    {
      "inputs": [],
      "name": "odos",
      "outputs": [
        {
          "internalType": "address",
          "name": "",
          "type": "address"
        }
      ],
      "stateMutability": "view",
      "type": "function"
    },
    {
      "inputs": [],
      "name": "pool",
      "outputs": [
        {
          "internalType": "contract IERC20Metadata",
          "name": "",
          "type": "address"
        }
      ],
      "stateMutability": "view",
      "type": "function"
    },
    {
      "inputs": [],
      "name": "psm",
      "outputs": [
        {
          "internalType": "contract IPegStabilityModule",
          "name": "",
          "type": "address"
        }
      ],
      "stateMutability": "view",
      "type": "function"
    },
    {
      "inputs": [],
      "name": "staking",
      "outputs": [
        {
          "internalType": "contract IERC4626",
          "name": "",
          "type": "address"
        }
      ],
      "stateMutability": "view",
      "type": "function"
    },
    {
      "inputs": [],
      "name": "szai",
      "outputs": [
        {
          "internalType": "contract IERC4626",
          "name": "",
          "type": "address"
        }
      ],
      "stateMutability": "view",
      "type": "function"
    },
    {
      "inputs": [],
      "name": "zai",
      "outputs": [
        {
          "internalType": "contract IERC20Metadata",
          "name": "",
          "type": "address"
        }
      ],
      "stateMutability": "view",
      "type": "function"
    },
    {
      "inputs": [
        {
          "internalType": "contract IERC20",
          "name": "swapAsset",
          "type": "address"
        },
        {
          "internalType": "uint256",
          "name": "swapAmount",
          "type": "uint256"
        },
        {
          "internalType": "uint256",
          "name": "minLpAmount",
          "type": "uint256"
        },
        {
          "internalType": "bytes",
          "name": "odosCallData",
          "type": "bytes"
        }
      ],
      "name": "zapWithOdos",
      "outputs": [],
      "stateMutability": "payable",
      "type": "function"
    },
    {
      "inputs": [
        {
          "internalType": "uint256",
          "name": "zaiAmount",
          "type": "uint256"
        },
        {
          "internalType": "uint256",
          "name": "collateralAmount",
          "type": "uint256"
        },
        {
          "internalType": "uint256",
          "name": "minLpAmount",
          "type": "uint256"
        }
      ],
      "name": "zapWithZaiIntoLP",
      "outputs": [],
      "stateMutability": "nonpayable",
      "type": "function"
    }
  ],
  "transactionHash": "0xf57acd3586ed6ce12015dc42afd1020e42022141f082c0dd3ab08909ada18590",
  "args": [
    "0xfDAeB792FF19e7bd4f7ED5d6ce2ef7925d002A19",
    "0x7DCdE153e4cACe9Ca852590d9654c7694388Db54",
    "0x69000195D5e3201Cf73C9Ae4a1559244DF38D47C",
    "0xcf5540fffcdc3d510b18bfca6d2b9987b0772559"
  ],
  "numDeployments": 1,
  "solcInputHash": "aebc3a7c1eeb150949a3e9a2b871d68c",
  "bytecode": "0x60806040523480156200001157600080fd5b5060405162001c8838038062001c88833981016040819052620000349162000637565b600080546001600160a01b0319166001600160a01b038616908117909155604080516338d52e0f60e01b815290518692869284926338d52e0f916004808201926020929091908290030181865afa15801562000094573d6000803e3d6000fd5b505050506040513d601f19601f82011682018060405250810190620000ba91906200069f565b600180546001600160a01b0319166001600160a01b0392831690811790915560405163095ea7b360e01b8152918316600483015260001960248301529063095ea7b3906044016020604051808303816000875af115801562000120573d6000803e3d6000fd5b505050506040513d601f19601f82011682018060405250810190620001469190620006c6565b5050600580546001600160a01b03199081163017909155600680546001600160a01b038416921682179055604080516301c502cd60e21b815290516307140b349160048082019260209290919082900301816000875af1158015620001af573d6000803e3d6000fd5b505050506040513d601f19601f82011682018060405250810190620001d591906200069f565b600280546001600160a01b0319166001600160a01b039283161790556006546040805163d8dfeb4560e01b81529051919092169163d8dfeb4591600480830192602092919082900301816000875af115801562000236573d6000803e3d6000fd5b505050506040513d601f19601f820116820180604052508101906200025c91906200069f565b600380546001600160a01b0319166001600160a01b039290921691821790556040805163313ce56760e01b8152905163313ce567916004808201926020929091908290030181865afa158015620002b7573d6000803e3d6000fd5b505050506040513d601f19601f82011682018060405250810190620002dd9190620006ea565b620002ea90601262000725565b620002f790600a62000844565b600490815560025460015460405163095ea7b360e01b81526001600160a01b03918216938101939093526000196024840152169063095ea7b3906044016020604051808303816000875af115801562000354573d6000803e3d6000fd5b505050506040513d601f19601f820116820180604052508101906200037a9190620006c6565b5060035460015460405163095ea7b360e01b81526001600160a01b039182166004820152600019602482015291169063095ea7b3906044016020604051808303816000875af1158015620003d2573d6000803e3d6000fd5b505050506040513d601f19601f82011682018060405250810190620003f89190620006c6565b5060035460065460405163095ea7b360e01b81526001600160a01b039182166004820152600019602482015291169063095ea7b3906044016020604051808303816000875af115801562000450573d6000803e3d6000fd5b505050506040513d601f19601f82011682018060405250810190620004769190620006c6565b5050600880546001600160a01b03199081166001600160a01b03868116918217909355600780549092168584161790915560015460405163095ea7b360e01b8152921660048301526000196024830152915063095ea7b3906044016020604051808303816000875af1158015620004f1573d6000803e3d6000fd5b505050506040513d601f19601f82011682018060405250810190620005179190620006c6565b5060025460015460405163095ea7b360e01b81526001600160a01b039182166004820152600019602482015291169063095ea7b3906044016020604051808303816000875af11580156200056f573d6000803e3d6000fd5b505050506040513d601f19601f82011682018060405250810190620005959190620006c6565b5060025460085460405163095ea7b360e01b81526001600160a01b039182166004820152600019602482015291169063095ea7b3906044016020604051808303816000875af1158015620005ed573d6000803e3d6000fd5b505050506040513d601f19601f82011682018060405250810190620006139190620006c6565b505050505062000855565b6001600160a01b03811681146200063457600080fd5b50565b600080600080608085870312156200064e57600080fd5b84516200065b816200061e565b60208601519094506200066e816200061e565b604086015190935062000681816200061e565b606086015190925062000694816200061e565b939692955090935050565b600060208284031215620006b257600080fd5b8151620006bf816200061e565b9392505050565b600060208284031215620006d957600080fd5b81518015158114620006bf57600080fd5b600060208284031215620006fd57600080fd5b815160ff81168114620006bf57600080fd5b634e487b7160e01b600052601160045260246000fd5b60ff82811682821603908111156200074157620007416200070f565b92915050565b600181815b80851115620007885781600019048211156200076c576200076c6200070f565b808516156200077a57918102915b93841c93908002906200074c565b509250929050565b600082620007a15750600162000741565b81620007b05750600062000741565b8160018114620007c95760028114620007d457620007f4565b600191505062000741565b60ff841115620007e857620007e86200070f565b50506001821b62000741565b5060208310610133831016604e8410600b841016171562000819575081810a62000741565b62000825838362000747565b80600019048211156200083c576200083c6200070f565b029392505050565b6000620006bf60ff84168362000790565b61142380620008656000396000f3fe6080604052600436106100bc5760003560e01c806350805a7111610074578063cb12b48f1161004e578063cb12b48f146101d3578063d1b39ae5146101f3578063d8dfeb451461021757600080fd5b806350805a711461017e57806352d8e34f146101935780636543f39f146101b357600080fd5b806316f0115b116100a557806316f0115b1461011e5780631eba02ec1461013e5780634cf088d91461015e57600080fd5b806304bda262146100c157806307140b34146100fe575b600080fd5b3480156100cd57600080fd5b506006546100e1906001600160a01b031681565b6040516001600160a01b0390911681526020015b60405180910390f35b34801561010a57600080fd5b506002546100e1906001600160a01b031681565b34801561012a57600080fd5b506001546100e1906001600160a01b031681565b34801561014a57600080fd5b506007546100e1906001600160a01b031681565b34801561016a57600080fd5b506000546100e1906001600160a01b031681565b61019161018c3660046111e1565b610237565b005b34801561019f57600080fd5b506101916101ae3660046112c4565b61085b565b3480156101bf57600080fd5b506008546100e1906001600160a01b031681565b3480156101df57600080fd5b506005546100e1906001600160a01b031681565b3480156101ff57600080fd5b5061020960045481565b6040519081526020016100f5565b34801561022357600080fd5b506003546100e1906001600160a01b031681565b6001600160a01b0384161561027c57600554610262906001600160a01b038681169133911686610b3e565b60075461027c906001600160a01b03868116911685610bc0565b6003546001600160a01b03858116911614610365576007546040516000916001600160a01b03169034906102b19085906112f0565b60006040518083038185875af1925050503d80600081146102ee576040519150601f19603f3d011682016040523d82523d6000602084013e6102f3565b606091505b5050905080610363576040517f08c379a000000000000000000000000000000000000000000000000000000000815260206004820152601060248201527f6f646f732063616c6c206661696c65640000000000000000000000000000000060448201526064015b60405180910390fd5b505b6006546003546005546040516370a0823160e01b81526001600160a01b039182166004820152600093821692631f80b95a9216906370a0823190602401602060405180830381865afa1580156103bf573d6000803e3d6000fd5b505050506040513d601f19601f820116820180604052508101906103e3919061131f565b6040518263ffffffff1660e01b815260040161040191815260200190565b602060405180830381865afa15801561041e573d6000803e3d6000fd5b505050506040513d601f19601f82011682018060405250810190610442919061131f565b6006546005546040517f40c10f190000000000000000000000000000000000000000000000000000000081526001600160a01b0391821660048201526024810184905292935016906340c10f1990604401600060405180830381600087803b1580156104ad57600080fd5b505af11580156104c1573d6000803e3d6000fd5b50506008546001600160a01b03169150636e553f6590506104e3600284611338565b60055460405160e084901b7fffffffff0000000000000000000000000000000000000000000000000000000016815260048101929092526001600160a01b031660248201526044016020604051808303816000875af115801561054a573d6000803e3d6000fd5b505050506040513d601f19601f8201168201806040525081019061056e919061131f565b506002546005546040516370a0823160e01b81526001600160a01b03918216600482015260009291909116906370a0823190602401602060405180830381865afa1580156105c0573d6000803e3d6000fd5b505050506040513d601f19601f820116820180604052508101906105e4919061131f565b6008546005546040516370a0823160e01b81526001600160a01b0391821660048201529293506000929116906370a0823190602401602060405180830381865afa158015610636573d6000803e3d6000fd5b505050506040513d601f19601f8201168201806040525081019061065a919061131f565b9050610667828287610c7e565b6000546001546005546040516370a0823160e01b81526001600160a01b03918216600482015292811692636e553f659291909116906370a0823190602401602060405180830381865afa1580156106c2573d6000803e3d6000fd5b505050506040513d601f19601f820116820180604052508101906106e6919061131f565b6040517fffffffff0000000000000000000000000000000000000000000000000000000060e084901b16815260048101919091523360248201526044016020604051808303816000875af1158015610742573d6000803e3d6000fd5b505050506040513d601f19601f82011682018060405250810190610766919061131f565b5060025461077c906001600160a01b0316610d78565b600354610791906001600160a01b0316610d78565b61079a87610d78565b6008546107af906001600160a01b0316610d78565b6001546040516370a0823160e01b81523360048201819052839285927f8254cb1554a3a4f342e4d6bc29ea29f483d72ec4183e94e4a83410c93af84341916001600160a01b0316906370a0823190602401602060405180830381865afa15801561081d573d6000803e3d6000fd5b505050506040513d601f19601f82011682018060405250810190610841919061131f565b60405190815260200160405180910390a450505050505050565b82156108e2576002546005546040516323b872dd60e01b81523360048201526001600160a01b039182166024820152604481018690529116906323b872dd906064016020604051808303816000875af11580156108bc573d6000803e3d6000fd5b505050506040513d601f19601f820116820180604052508101906108e0919061135a565b505b8115610969576003546005546040516323b872dd60e01b81523360048201526001600160a01b039182166024820152604481018590529116906323b872dd906064016020604051808303816000875af1158015610943573d6000803e3d6000fd5b505050506040513d601f19601f82011682018060405250810190610967919061135a565b505b610974838383610c7e565b6000546001546040516370a0823160e01b81523060048201526001600160a01b0392831692636e553f659216906370a0823190602401602060405180830381865afa1580156109c7573d6000803e3d6000fd5b505050506040513d601f19601f820116820180604052508101906109eb919061131f565b6040517fffffffff0000000000000000000000000000000000000000000000000000000060e084901b16815260048101919091523360248201526044016020604051808303816000875af1158015610a47573d6000803e3d6000fd5b505050506040513d601f19601f82011682018060405250810190610a6b919061131f565b50600254610a81906001600160a01b0316610d78565b600354610a96906001600160a01b0316610d78565b6001546040516370a0823160e01b81523360048201819052859285927f8254cb1554a3a4f342e4d6bc29ea29f483d72ec4183e94e4a83410c93af84341916001600160a01b0316906370a0823190602401602060405180830381865afa158015610b04573d6000803e3d6000fd5b505050506040513d601f19601f82011682018060405250810190610b28919061131f565b60405190815260200160405180910390a4505050565b6040516001600160a01b038481166024830152838116604483015260648201839052610bba9186918216906323b872dd906084015b604051602081830303815290604052915060e01b6020820180517bffffffffffffffffffffffffffffffffffffffffffffffffffffffff8381831617835250505050610f20565b50505050565b604080516001600160a01b038416602482015260448082018490528251808303909101815260649091019091526020810180517bffffffffffffffffffffffffffffffffffffffffffffffffffffffff167f095ea7b300000000000000000000000000000000000000000000000000000000179052610c3f8482610fa1565b610bba576040516001600160a01b03848116602483015260006044830152610c7491869182169063095ea7b390606401610b73565b610bba8482610f20565b6040805160028082526060820183526000926020830190803683370190505090508381600081518110610cb357610cb361137c565b6020026020010181815250508281600181518110610cd357610cd361137c565b60209081029190910101526001546005546040517fa7256d090000000000000000000000000000000000000000000000000000000081526001600160a01b039283169263a7256d0992610d2e92869288921690600401611392565b6020604051808303816000875af1158015610d4d573d6000803e3d6000fd5b505050506040513d601f19601f82011682018060405250810190610d71919061131f565b5050505050565b6001600160a01b038116610dfe5747600003610d915750565b604051600090339047908381818185875af1925050503d8060008114610dd3576040519150601f19603f3d011682016040523d82523d6000602084013e610dd8565b606091505b5050905080610dfa5760405163022e258160e11b815260040160405180910390fd5b5050565b6040516370a0823160e01b81523060048201526000906001600160a01b038316906370a0823190602401602060405180830381865afa158015610e45573d6000803e3d6000fd5b505050506040513d601f19601f82011682018060405250810190610e69919061131f565b9050600081118015610f0257506040517fa9059cbb000000000000000000000000000000000000000000000000000000008152336004820152602481018290526001600160a01b0383169063a9059cbb906044016020604051808303816000875af1158015610edc573d6000803e3d6000fd5b505050506040513d601f19601f82011682018060405250810190610f00919061135a565b155b15610dfa5760405163022e258160e11b815260040160405180910390fd5b6000610f356001600160a01b03841683611049565b90508051600014158015610f5a575080806020019051810190610f58919061135a565b155b15610f9c576040517f5274afe70000000000000000000000000000000000000000000000000000000081526001600160a01b038416600482015260240161035a565b505050565b6000806000846001600160a01b031684604051610fbe91906112f0565b6000604051808303816000865af19150503d8060008114610ffb576040519150601f19603f3d011682016040523d82523d6000602084013e611000565b606091505b509150915081801561102a57508051158061102a57508080602001905181019061102a919061135a565b801561104057506000856001600160a01b03163b115b95945050505050565b60606110578383600061105e565b9392505050565b60608147101561109c576040517fcd78605900000000000000000000000000000000000000000000000000000000815230600482015260240161035a565b600080856001600160a01b031684866040516110b891906112f0565b60006040518083038185875af1925050503d80600081146110f5576040519150601f19603f3d011682016040523d82523d6000602084013e6110fa565b606091505b509150915061110a868383611114565b9695505050505050565b6060826111295761112482611189565b611057565b815115801561114057506001600160a01b0384163b155b15611182576040517f9996b3150000000000000000000000000000000000000000000000000000000081526001600160a01b038516600482015260240161035a565b5080611057565b8051156111995780518082602001fd5b6040517f1425ea4200000000000000000000000000000000000000000000000000000000815260040160405180910390fd5b634e487b7160e01b600052604160045260246000fd5b600080600080608085870312156111f757600080fd5b84356001600160a01b038116811461120e57600080fd5b93506020850135925060408501359150606085013567ffffffffffffffff8082111561123957600080fd5b818701915087601f83011261124d57600080fd5b81358181111561125f5761125f6111cb565b604051601f8201601f19908116603f01168101908382118183101715611287576112876111cb565b816040528281528a60208487010111156112a057600080fd5b82602086016020830137600060208483010152809550505050505092959194509250565b6000806000606084860312156112d957600080fd5b505081359360208301359350604090920135919050565b6000825160005b8181101561131157602081860181015185830152016112f7565b506000920191825250919050565b60006020828403121561133157600080fd5b5051919050565b60008261135557634e487b7160e01b600052601260045260246000fd5b500490565b60006020828403121561136c57600080fd5b8151801515811461105757600080fd5b634e487b7160e01b600052603260045260246000fd5b606080825284519082018190526000906020906080840190828801845b828110156113cb578151845292840192908401906001016113af565b50505090830194909452506001600160a01b039190911660409091015291905056fea264697066735822122031268e75d2ac20bc062fcd43e41ee4b032ca73f357e8d8711ede3d46124212fe64736f6c63430008150033",
  "devdoc": {
    "errors": {
      "AddressEmptyCode(address)": [
        {
          "details": "There's no code at `target` (it is not a contract)."
        }
      ],
      "AddressInsufficientBalance(address)": [
        {
          "details": "The ETH balance of the account is not enough to perform the operation."
        }
      ],
      "FailedInnerCall()": [
        {
          "details": "A call to an address target failed. The target may have reverted."
        }
      ],
      "SafeERC20FailedOperation(address)": [
        {
          "details": "An operation with an ERC20 token failed."
        }
      ]
    },
    "kind": "dev",
    "methods": {
      "zapWithZaiIntoLP(uint256,uint256,uint256)": {
        "details": "This function is used when the user already has ZAI tokens.",
        "params": {
          "collateralAmount": "The amount of collateral to zap",
          "minLpAmount": "The minimum amount of LP tokens to stake",
          "zaiAmount": "The amount of ZAI to zap"
        }
      }
    },
    "version": 1
  },
  "userdoc": {
    "kind": "user",
    "methods": {
      "zapWithZaiIntoLP(uint256,uint256,uint256)": {
        "notice": "Zaps ZAI and collateral into LP tokens"
      }
    },
    "version": 1
  },
  "storageLayout": {
    "storage": [
      {
        "astId": 1107,
        "contract": "contracts/periphery/zaps/implementations/ethereum/ZapCurvePoolsZAI.sol:ZapCurvePoolsZAI",
        "label": "staking",
        "offset": 0,
        "slot": "0",
        "type": "t_contract(IERC4626)177"
      },
      {
        "astId": 1110,
        "contract": "contracts/periphery/zaps/implementations/ethereum/ZapCurvePoolsZAI.sol:ZapCurvePoolsZAI",
        "label": "pool",
        "offset": 0,
        "slot": "1",
        "type": "t_contract(IERC20Metadata)281"
      },
      {
        "astId": 1113,
        "contract": "contracts/periphery/zaps/implementations/ethereum/ZapCurvePoolsZAI.sol:ZapCurvePoolsZAI",
        "label": "zai",
        "offset": 0,
        "slot": "2",
        "type": "t_contract(IERC20Metadata)281"
      },
      {
        "astId": 1116,
        "contract": "contracts/periphery/zaps/implementations/ethereum/ZapCurvePoolsZAI.sol:ZapCurvePoolsZAI",
        "label": "collateral",
        "offset": 0,
        "slot": "3",
        "type": "t_contract(IERC20Metadata)281"
      },
      {
        "astId": 1118,
        "contract": "contracts/periphery/zaps/implementations/ethereum/ZapCurvePoolsZAI.sol:ZapCurvePoolsZAI",
        "label": "decimalOffset",
        "offset": 0,
        "slot": "4",
        "type": "t_uint256"
      },
      {
        "astId": 1120,
        "contract": "contracts/periphery/zaps/implementations/ethereum/ZapCurvePoolsZAI.sol:ZapCurvePoolsZAI",
        "label": "me",
        "offset": 0,
        "slot": "5",
        "type": "t_address"
      },
      {
        "astId": 1262,
        "contract": "contracts/periphery/zaps/implementations/ethereum/ZapCurvePoolsZAI.sol:ZapCurvePoolsZAI",
        "label": "psm",
        "offset": 0,
        "slot": "6",
        "type": "t_contract(IPegStabilityModule)1067"
      },
      {
        "astId": 1475,
        "contract": "contracts/periphery/zaps/implementations/ethereum/ZapCurvePoolsZAI.sol:ZapCurvePoolsZAI",
        "label": "odos",
        "offset": 0,
        "slot": "7",
        "type": "t_address"
      },
      {
        "astId": 1478,
        "contract": "contracts/periphery/zaps/implementations/ethereum/ZapCurvePoolsZAI.sol:ZapCurvePoolsZAI",
        "label": "szai",
        "offset": 0,
        "slot": "8",
        "type": "t_contract(IERC4626)177"
      }
    ],
    "types": {
      "t_address": {
        "encoding": "inplace",
        "label": "address",
        "numberOfBytes": "20"
      },
      "t_contract(IERC20Metadata)281": {
        "encoding": "inplace",
        "label": "contract IERC20Metadata",
        "numberOfBytes": "20"
      },
      "t_contract(IERC4626)177": {
        "encoding": "inplace",
        "label": "contract IERC4626",
        "numberOfBytes": "20"
      },
      "t_contract(IPegStabilityModule)1067": {
        "encoding": "inplace",
        "label": "contract IPegStabilityModule",
        "numberOfBytes": "20"
      },
      "t_uint256": {
        "encoding": "inplace",
        "label": "uint256",
        "numberOfBytes": "32"
      }
    }
  }
}