{
  "address": "0x915fD4C30cc3BC61f21C2C7585a68e26a10fe526",
  "abi": [
    {
      "inputs": [
        {
          "internalType": "address",
          "name": "_staking",
          "type": "address"
        },
        {
          "internalType": "address",
          "name": "_psm",
          "type": "address"
        },
        {
          "internalType": "contract IERC20",
          "name": "_maha",
          "type": "address"
        },
        {
          "internalType": "address",
          "name": "_odos",
          "type": "address"
        }
      ],
      "stateMutability": "nonpayable",
      "type": "constructor"
    },
    {
      "inputs": [
        {
          "internalType": "address",
          "name": "target",
          "type": "address"
        }
      ],
      "name": "AddressEmptyCode",
      "type": "error"
    },
    {
      "inputs": [
        {
          "internalType": "address",
          "name": "account",
          "type": "address"
        }
      ],
      "name": "AddressInsufficientBalance",
      "type": "error"
    },
    {
      "inputs": [],
      "name": "CollateralTransferFailed",
      "type": "error"
    },
    {
      "inputs": [],
      "name": "FailedInnerCall",
      "type": "error"
    },
    {
      "inputs": [],
      "name": "OdosSwapFailed",
      "type": "error"
    },
    {
      "inputs": [
        {
          "internalType": "address",
          "name": "token",
          "type": "address"
        }
      ],
      "name": "SafeERC20FailedOperation",
      "type": "error"
    },
    {
      "inputs": [],
      "name": "TokenTransferFailed",
      "type": "error"
    },
    {
      "anonymous": false,
      "inputs": [
        {
          "indexed": true,
          "internalType": "address",
          "name": "user",
          "type": "address"
        },
        {
          "indexed": true,
          "internalType": "uint256",
          "name": "collateralAmount",
          "type": "uint256"
        },
        {
          "indexed": true,
          "internalType": "uint256",
          "name": "zaiAmount",
          "type": "uint256"
        },
        {
          "indexed": false,
          "internalType": "uint256",
          "name": "newStakedAmount",
          "type": "uint256"
        }
      ],
      "name": "Zapped",
      "type": "event"
    },
    {
      "inputs": [],
      "name": "collateral",
      "outputs": [
        {
          "internalType": "contract IERC20Metadata",
          "name": "",
          "type": "address"
        }
      ],
      "stateMutability": "view",
      "type": "function"
    },
    {
      "inputs": [],
      "name": "decimalOffset",
      "outputs": [
        {
          "internalType": "uint256",
          "name": "",
          "type": "uint256"
        }
      ],
      "stateMutability": "view",
      "type": "function"
    },
    {
      "inputs": [],
      "name": "maha",
      "outputs": [
        {
          "internalType": "contract IERC20",
          "name": "",
          "type": "address"
        }
      ],
      "stateMutability": "view",
      "type": "function"
    },
    {
      "inputs": [],
      "name": "me",
      "outputs": [
        {
          "internalType": "address",
          "name": "",
          "type": "address"
        }
      ],
      "stateMutability": "view",
      "type": "function"
    },
    {
      "inputs": [],
      "name": "odos",
      "outputs": [
        {
          "internalType": "address",
          "name": "",
          "type": "address"
        }
      ],
      "stateMutability": "view",
      "type": "function"
    },
    {
      "inputs": [],
      "name": "pool",
      "outputs": [
        {
          "internalType": "contract IERC20Metadata",
          "name": "",
          "type": "address"
        }
      ],
      "stateMutability": "view",
      "type": "function"
    },
    {
      "inputs": [],
      "name": "psm",
      "outputs": [
        {
          "internalType": "contract IPegStabilityModule",
          "name": "",
          "type": "address"
        }
      ],
      "stateMutability": "view",
      "type": "function"
    },
    {
      "inputs": [],
      "name": "staking",
      "outputs": [
        {
          "internalType": "contract IERC4626",
          "name": "",
          "type": "address"
        }
      ],
      "stateMutability": "view",
      "type": "function"
    },
    {
      "inputs": [],
      "name": "zai",
      "outputs": [
        {
          "internalType": "contract IERC20Metadata",
          "name": "",
          "type": "address"
        }
      ],
      "stateMutability": "view",
      "type": "function"
    },
    {
      "inputs": [
        {
          "internalType": "contract IERC20",
          "name": "swapAsset",
          "type": "address"
        },
        {
          "internalType": "uint256",
          "name": "swapAmount",
          "type": "uint256"
        },
        {
          "internalType": "uint256",
          "name": "minLpAmount",
          "type": "uint256"
        },
        {
          "internalType": "bytes",
          "name": "odosCallData",
          "type": "bytes"
        }
      ],
      "name": "zapWithOdos",
      "outputs": [],
      "stateMutability": "payable",
      "type": "function"
    },
    {
      "inputs": [
        {
          "internalType": "uint256",
          "name": "zaiAmount",
          "type": "uint256"
        },
        {
          "internalType": "uint256",
          "name": "collateralAmount",
          "type": "uint256"
        },
        {
          "internalType": "uint256",
          "name": "minLpAmount",
          "type": "uint256"
        }
      ],
      "name": "zapWithZaiIntoLP",
      "outputs": [],
      "stateMutability": "nonpayable",
      "type": "function"
    }
  ],
  "transactionHash": "0x42aaca93d8a212339748b51d1a28d5d4e96ea34786cc6f80847e849014b54060",
  "args": [
    "0xE2EbBf803d0199A5A26108bA36FBAc366b201Be1",
    "0x7DCdE153e4cACe9Ca852590d9654c7694388Db54",
    "0x745407c86df8db893011912d3ab28e68b62e49b0",
    "0xcf5540fffcdc3d510b18bfca6d2b9987b0772559"
  ],
  "numDeployments": 1,
  "solcInputHash": "e244380effbce41892f700a14f2cc79c",
  "bytecode": "0x60806040523480156200001157600080fd5b5060405162001919380380620019198339810160408190526200003491620005b9565b600080546001600160a01b0319166001600160a01b038616908117909155604080516338d52e0f60e01b815290518692869284926338d52e0f916004808201926020929091908290030181865afa15801562000094573d6000803e3d6000fd5b505050506040513d601f19601f82011682018060405250810190620000ba919062000621565b600180546001600160a01b0319166001600160a01b0392831690811790915560405163095ea7b360e01b8152918316600483015260001960248301529063095ea7b3906044016020604051808303816000875af115801562000120573d6000803e3d6000fd5b505050506040513d601f19601f8201168201806040525081019062000146919062000648565b5050600580546001600160a01b03199081163017909155600680546001600160a01b038416921682179055604080516301c502cd60e21b815290516307140b349160048082019260209290919082900301816000875af1158015620001af573d6000803e3d6000fd5b505050506040513d601f19601f82011682018060405250810190620001d5919062000621565b600280546001600160a01b0319166001600160a01b039283161790556006546040805163d8dfeb4560e01b81529051919092169163d8dfeb4591600480830192602092919082900301816000875af115801562000236573d6000803e3d6000fd5b505050506040513d601f19601f820116820180604052508101906200025c919062000621565b600380546001600160a01b0319166001600160a01b039290921691821790556040805163313ce56760e01b8152905163313ce567916004808201926020929091908290030181865afa158015620002b7573d6000803e3d6000fd5b505050506040513d601f19601f82011682018060405250810190620002dd91906200066c565b620002ea906012620006a7565b620002f790600a620007c6565b600490815560025460015460405163095ea7b360e01b81526001600160a01b03918216938101939093526000196024840152169063095ea7b3906044016020604051808303816000875af115801562000354573d6000803e3d6000fd5b505050506040513d601f19601f820116820180604052508101906200037a919062000648565b5060035460015460405163095ea7b360e01b81526001600160a01b039182166004820152600019602482015291169063095ea7b3906044016020604051808303816000875af1158015620003d2573d6000803e3d6000fd5b505050506040513d601f19601f82011682018060405250810190620003f8919062000648565b5060035460065460405163095ea7b360e01b81526001600160a01b039182166004820152600019602482015291169063095ea7b3906044016020604051808303816000875af115801562000450573d6000803e3d6000fd5b505050506040513d601f19601f8201168201806040525081019062000476919062000648565b5050600780546001600160a01b03199081166001600160a01b03868116918217909355600880549092168584161790915560015460405163095ea7b360e01b8152921660048301526000196024830152915063095ea7b3906044016020604051808303816000875af1158015620004f1573d6000803e3d6000fd5b505050506040513d601f19601f8201168201806040525081019062000517919062000648565b5060025460015460405163095ea7b360e01b81526001600160a01b039182166004820152600019602482015291169063095ea7b3906044016020604051808303816000875af11580156200056f573d6000803e3d6000fd5b505050506040513d601f19601f8201168201806040525081019062000595919062000648565b5050505050620007d7565b6001600160a01b0381168114620005b657600080fd5b50565b60008060008060808587031215620005d057600080fd5b8451620005dd81620005a0565b6020860151909450620005f081620005a0565b60408601519093506200060381620005a0565b60608601519092506200061681620005a0565b939692955090935050565b6000602082840312156200063457600080fd5b81516200064181620005a0565b9392505050565b6000602082840312156200065b57600080fd5b815180151581146200064157600080fd5b6000602082840312156200067f57600080fd5b815160ff811681146200064157600080fd5b634e487b7160e01b600052601160045260246000fd5b60ff8281168282160390811115620006c357620006c362000691565b92915050565b600181815b808511156200070a578160001904821115620006ee57620006ee62000691565b80851615620006fc57918102915b93841c9390800290620006ce565b509250929050565b6000826200072357506001620006c3565b816200073257506000620006c3565b81600181146200074b5760028114620007565762000776565b6001915050620006c3565b60ff8411156200076a576200076a62000691565b50506001821b620006c3565b5060208310610133831016604e8410600b84101617156200079b575081810a620006c3565b620007a78383620006c9565b8060001904821115620007be57620007be62000691565b029392505050565b60006200064160ff84168362000712565b61113280620007e76000396000f3fe60806040526004361061009c5760003560e01c80634cf088d9116100645780634cf088d91461015757806350805a711461017757806352d8e34f1461018c578063cb12b48f146101ac578063d1b39ae5146101cc578063d8dfeb45146101f057600080fd5b806304bda262146100a157806307140b34146100d757806316f0115b146100f75780631eba02ec146101175780633de00c3614610137575b600080fd5b3480156100ad57600080fd5b506006546100c1906001600160a01b031681565b6040516100ce9190610ee4565b60405180910390f35b3480156100e357600080fd5b506002546100c1906001600160a01b031681565b34801561010357600080fd5b506001546100c1906001600160a01b031681565b34801561012357600080fd5b506008546100c1906001600160a01b031681565b34801561014357600080fd5b506007546100c1906001600160a01b031681565b34801561016357600080fd5b506000546100c1906001600160a01b031681565b61018a610185366004610f0e565b610210565b005b34801561019857600080fd5b5061018a6101a7366004610ff1565b6106ac565b3480156101b857600080fd5b506005546100c1906001600160a01b031681565b3480156101d857600080fd5b506101e260045481565b6040519081526020016100ce565b3480156101fc57600080fd5b506003546100c1906001600160a01b031681565b6001600160a01b038416156102555760055461023b906001600160a01b03868116913391168661097d565b600854610255906001600160a01b038681169116856109dd565b6008546040516000916001600160a01b031690349061027590859061101d565b60006040518083038185875af1925050503d80600081146102b2576040519150601f19603f3d011682016040523d82523d6000602084013e6102b7565b606091505b50509050806103005760405162461bcd60e51b815260206004820152601060248201526f1bd91bdcc818d85b1b0819985a5b195960821b60448201526064015b60405180910390fd5b6006546003546005546040516370a0823160e01b81526000936001600160a01b0390811693631f80b95a93908216926370a0823192610343921690600401610ee4565b602060405180830381865afa158015610360573d6000803e3d6000fd5b505050506040513d601f19601f82011682018060405250810190610384919061104c565b6040518263ffffffff1660e01b81526004016103a291815260200190565b602060405180830381865afa1580156103bf573d6000803e3d6000fd5b505050506040513d601f19601f820116820180604052508101906103e3919061104c565b6006546040516340c10f1960e01b81529192506001600160a01b0316906340c10f19906104169030908590600401611065565b600060405180830381600087803b15801561043057600080fd5b505af1158015610444573d6000803e3d6000fd5b50506007546005546040516370a0823160e01b8152600094506001600160a01b0392831693506370a082319261047e921690600401610ee4565b602060405180830381865afa15801561049b573d6000803e3d6000fd5b505050506040513d601f19601f820116820180604052508101906104bf919061104c565b90506104cc828287610a6f565b6000546001546040516370a0823160e01b81526001600160a01b0392831692636e553f659216906370a0823190610507903090600401610ee4565b602060405180830381865afa158015610524573d6000803e3d6000fd5b505050506040513d601f19601f82011682018060405250810190610548919061104c565b6040516001600160e01b031960e084901b16815260048101919091523360248201526044016020604051808303816000875af115801561058c573d6000803e3d6000fd5b505050506040513d601f19601f820116820180604052508101906105b0919061104c565b506002546105c6906001600160a01b0316610afd565b6003546105db906001600160a01b0316610afd565b6105e487610afd565b6007546105f9906001600160a01b0316610afd565b6001546040516370a0823160e01b81528391839133917f8254cb1554a3a4f342e4d6bc29ea29f483d72ec4183e94e4a83410c93af84341916001600160a01b03909116906370a0823190610651908590600401610ee4565b602060405180830381865afa15801561066e573d6000803e3d6000fd5b505050506040513d601f19601f82011682018060405250810190610692919061104c565b60405190815260200160405180910390a450505050505050565b8215610730576002546005546040516323b872dd60e01b81526001600160a01b03928316926323b872dd926106eb92339290911690889060040161107e565b6020604051808303816000875af115801561070a573d6000803e3d6000fd5b505050506040513d601f19601f8201168201806040525081019061072e91906110a2565b505b81156107b4576003546005546040516323b872dd60e01b81526001600160a01b03928316926323b872dd9261076f92339290911690879060040161107e565b6020604051808303816000875af115801561078e573d6000803e3d6000fd5b505050506040513d601f19601f820116820180604052508101906107b291906110a2565b505b6107bf838383610a6f565b6000546001546040516370a0823160e01b81526001600160a01b0392831692636e553f659216906370a08231906107fa903090600401610ee4565b602060405180830381865afa158015610817573d6000803e3d6000fd5b505050506040513d601f19601f8201168201806040525081019061083b919061104c565b6040516001600160e01b031960e084901b16815260048101919091523360248201526044016020604051808303816000875af115801561087f573d6000803e3d6000fd5b505050506040513d601f19601f820116820180604052508101906108a3919061104c565b506002546108b9906001600160a01b0316610afd565b6003546108ce906001600160a01b0316610afd565b6001546040516370a0823160e01b81528491849133917f8254cb1554a3a4f342e4d6bc29ea29f483d72ec4183e94e4a83410c93af84341916001600160a01b03909116906370a0823190610926908590600401610ee4565b602060405180830381865afa158015610943573d6000803e3d6000fd5b505050506040513d601f19601f82011682018060405250810190610967919061104c565b60405190815260200160405180910390a4505050565b6109d784856001600160a01b03166323b872dd8686866040516024016109a59392919061107e565b604051602081830303815290604052915060e01b6020820180516001600160e01b038381831617835250505050610c91565b50505050565b6000836001600160a01b031663095ea7b38484604051602401610a01929190611065565b604051602081830303815290604052915060e01b6020820180516001600160e01b0383818316178352505050509050610a3a8482610cf0565b6109d757610a6584856001600160a01b031663095ea7b38660006040516024016109a5929190611065565b6109d78482610c91565b610a77610ec6565b83815260208101839052600154604051630b4c7e4d60e01b81526001600160a01b0390911690630b4c7e4d90610ab390849086906004016110c4565b6020604051808303816000875af1158015610ad2573d6000803e3d6000fd5b505050506040513d601f19601f82011682018060405250810190610af6919061104c565b5050505050565b6001600160a01b038116610b835747600003610b165750565b604051600090339047908381818185875af1925050503d8060008114610b58576040519150601f19603f3d011682016040523d82523d6000602084013e610b5d565b606091505b5050905080610b7f5760405163022e258160e11b815260040160405180910390fd5b5050565b6040516370a0823160e01b81526000906001600160a01b038316906370a0823190610bb2903090600401610ee4565b602060405180830381865afa158015610bcf573d6000803e3d6000fd5b505050506040513d601f19601f82011682018060405250810190610bf3919061104c565b9050600081118015610c73575060405163a9059cbb60e01b81526001600160a01b0383169063a9059cbb90610c2e9033908590600401611065565b6020604051808303816000875af1158015610c4d573d6000803e3d6000fd5b505050506040513d601f19601f82011682018060405250810190610c7191906110a2565b155b15610b7f5760405163022e258160e11b815260040160405180910390fd5b6000610ca66001600160a01b03841683610d98565b90508051600014158015610ccb575080806020019051810190610cc991906110a2565b155b15610ceb5782604051635274afe760e01b81526004016102f79190610ee4565b505050565b6000806000846001600160a01b031684604051610d0d919061101d565b6000604051808303816000865af19150503d8060008114610d4a576040519150601f19603f3d011682016040523d82523d6000602084013e610d4f565b606091505b5091509150818015610d79575080511580610d79575080806020019051810190610d7991906110a2565b8015610d8f57506000856001600160a01b03163b115b95945050505050565b6060610da683836000610dad565b9392505050565b606081471015610dd2573060405163cd78605960e01b81526004016102f79190610ee4565b600080856001600160a01b03168486604051610dee919061101d565b60006040518083038185875af1925050503d8060008114610e2b576040519150601f19603f3d011682016040523d82523d6000602084013e610e30565b606091505b5091509150610e40868383610e4a565b9695505050505050565b606082610e5f57610e5a82610e9d565b610da6565b8151158015610e7657506001600160a01b0384163b155b15610e965783604051639996b31560e01b81526004016102f79190610ee4565b5080610da6565b805115610ead5780518082602001fd5b604051630a12f52160e11b815260040160405180910390fd5b60405180604001604052806002906020820280368337509192915050565b6001600160a01b0391909116815260200190565b634e487b7160e01b600052604160045260246000fd5b60008060008060808587031215610f2457600080fd5b84356001600160a01b0381168114610f3b57600080fd5b93506020850135925060408501359150606085013567ffffffffffffffff80821115610f6657600080fd5b818701915087601f830112610f7a57600080fd5b813581811115610f8c57610f8c610ef8565b604051601f8201601f19908116603f01168101908382118183101715610fb457610fb4610ef8565b816040528281528a6020848701011115610fcd57600080fd5b82602086016020830137600060208483010152809550505050505092959194509250565b60008060006060848603121561100657600080fd5b505081359360208301359350604090920135919050565b6000825160005b8181101561103e5760208186018101518583015201611024565b506000920191825250919050565b60006020828403121561105e57600080fd5b5051919050565b6001600160a01b03929092168252602082015260400190565b6001600160a01b039384168152919092166020820152604081019190915260600190565b6000602082840312156110b457600080fd5b81518015158114610da657600080fd5b60608101818460005b60028110156110ec5781518352602092830192909101906001016110cd565b505050826040830152939250505056fea264697066735822122070544e12928bd00d7aea2daeba6af3f4aaa360ed00261ef5734e0bf689de9eb464736f6c63430008150033",
  "devdoc": {
    "errors": {
      "AddressEmptyCode(address)": [
        {
          "details": "There's no code at `target` (it is not a contract)."
        }
      ],
      "AddressInsufficientBalance(address)": [
        {
          "details": "The ETH balance of the account is not enough to perform the operation."
        }
      ],
      "FailedInnerCall()": [
        {
          "details": "A call to an address target failed. The target may have reverted."
        }
      ],
      "SafeERC20FailedOperation(address)": [
        {
          "details": "An operation with an ERC20 token failed."
        }
      ]
    },
    "kind": "dev",
    "methods": {
      "zapWithZaiIntoLP(uint256,uint256,uint256)": {
        "details": "This function is used when the user already has ZAI tokens.",
        "params": {
          "collateralAmount": "The amount of collateral to zap",
          "minLpAmount": "The minimum amount of LP tokens to stake",
          "zaiAmount": "The amount of ZAI to zap"
        }
      }
    },
    "version": 1
  },
  "userdoc": {
    "kind": "user",
    "methods": {
      "zapWithZaiIntoLP(uint256,uint256,uint256)": {
        "notice": "Zaps ZAI and collateral into LP tokens"
      }
    },
    "version": 1
  },
  "storageLayout": {
    "storage": [
      {
        "astId": 1107,
        "contract": "contracts/periphery/zaps/implementations/ethereum/ZapCurvePoolMAHA.sol:ZapCurvePoolMAHA",
        "label": "staking",
        "offset": 0,
        "slot": "0",
        "type": "t_contract(IERC4626)177"
      },
      {
        "astId": 1110,
        "contract": "contracts/periphery/zaps/implementations/ethereum/ZapCurvePoolMAHA.sol:ZapCurvePoolMAHA",
        "label": "pool",
        "offset": 0,
        "slot": "1",
        "type": "t_contract(IERC20Metadata)281"
      },
      {
        "astId": 1113,
        "contract": "contracts/periphery/zaps/implementations/ethereum/ZapCurvePoolMAHA.sol:ZapCurvePoolMAHA",
        "label": "zai",
        "offset": 0,
        "slot": "2",
        "type": "t_contract(IERC20Metadata)281"
      },
      {
        "astId": 1116,
        "contract": "contracts/periphery/zaps/implementations/ethereum/ZapCurvePoolMAHA.sol:ZapCurvePoolMAHA",
        "label": "collateral",
        "offset": 0,
        "slot": "3",
        "type": "t_contract(IERC20Metadata)281"
      },
      {
        "astId": 1118,
        "contract": "contracts/periphery/zaps/implementations/ethereum/ZapCurvePoolMAHA.sol:ZapCurvePoolMAHA",
        "label": "decimalOffset",
        "offset": 0,
        "slot": "4",
        "type": "t_uint256"
      },
      {
        "astId": 1120,
        "contract": "contracts/periphery/zaps/implementations/ethereum/ZapCurvePoolMAHA.sol:ZapCurvePoolMAHA",
        "label": "me",
        "offset": 0,
        "slot": "5",
        "type": "t_address"
      },
      {
        "astId": 1262,
        "contract": "contracts/periphery/zaps/implementations/ethereum/ZapCurvePoolMAHA.sol:ZapCurvePoolMAHA",
        "label": "psm",
        "offset": 0,
        "slot": "6",
        "type": "t_contract(IPegStabilityModule)1067"
      },
      {
        "astId": 1474,
        "contract": "contracts/periphery/zaps/implementations/ethereum/ZapCurvePoolMAHA.sol:ZapCurvePoolMAHA",
        "label": "maha",
        "offset": 0,
        "slot": "7",
        "type": "t_contract(IERC20)255"
      },
      {
        "astId": 1476,
        "contract": "contracts/periphery/zaps/implementations/ethereum/ZapCurvePoolMAHA.sol:ZapCurvePoolMAHA",
        "label": "odos",
        "offset": 0,
        "slot": "8",
        "type": "t_address"
      }
    ],
    "types": {
      "t_address": {
        "encoding": "inplace",
        "label": "address",
        "numberOfBytes": "20"
      },
      "t_contract(IERC20)255": {
        "encoding": "inplace",
        "label": "contract IERC20",
        "numberOfBytes": "20"
      },
      "t_contract(IERC20Metadata)281": {
        "encoding": "inplace",
        "label": "contract IERC20Metadata",
        "numberOfBytes": "20"
      },
      "t_contract(IERC4626)177": {
        "encoding": "inplace",
        "label": "contract IERC4626",
        "numberOfBytes": "20"
      },
      "t_contract(IPegStabilityModule)1067": {
        "encoding": "inplace",
        "label": "contract IPegStabilityModule",
        "numberOfBytes": "20"
      },
      "t_uint256": {
        "encoding": "inplace",
        "label": "uint256",
        "numberOfBytes": "32"
      }
    }
  }
}