{
  "address": "0x223A9f83ee33A35f35aA18095F72aCA468a031A6",
  "abi": [
    {
      "inputs": [
        {
          "internalType": "address",
          "name": "_staking",
          "type": "address"
        },
        {
          "internalType": "address",
          "name": "_stakingUSDz",
          "type": "address"
        },
        {
          "internalType": "address",
          "name": "_psm",
          "type": "address"
        }
      ],
      "stateMutability": "nonpayable",
      "type": "constructor"
    },
    {
      "inputs": [],
      "name": "CollateralTransferFailed",
      "type": "error"
    },
    {
      "inputs": [],
      "name": "OdosSwapFailed",
      "type": "error"
    },
    {
      "inputs": [],
      "name": "TokenTransferFailed",
      "type": "error"
    },
    {
      "anonymous": false,
      "inputs": [
        {
          "indexed": true,
          "internalType": "address",
          "name": "user",
          "type": "address"
        },
        {
          "indexed": true,
          "internalType": "uint256",
          "name": "collateralAmount",
          "type": "uint256"
        },
        {
          "indexed": true,
          "internalType": "uint256",
          "name": "zaiAmount",
          "type": "uint256"
        },
        {
          "indexed": false,
          "internalType": "uint256",
          "name": "newStakedAmount",
          "type": "uint256"
        }
      ],
      "name": "Zapped",
      "type": "event"
    },
    {
      "inputs": [],
      "name": "collateral",
      "outputs": [
        {
          "internalType": "contract IERC20Metadata",
          "name": "",
          "type": "address"
        }
      ],
      "stateMutability": "view",
      "type": "function"
    },
    {
      "inputs": [],
      "name": "decimalOffset",
      "outputs": [
        {
          "internalType": "uint256",
          "name": "",
          "type": "uint256"
        }
      ],
      "stateMutability": "view",
      "type": "function"
    },
    {
      "inputs": [],
      "name": "pool",
      "outputs": [
        {
          "internalType": "contract ICurveStableSwapNG",
          "name": "",
          "type": "address"
        }
      ],
      "stateMutability": "view",
      "type": "function"
    },
    {
      "inputs": [],
      "name": "psm",
      "outputs": [
        {
          "internalType": "contract IPegStabilityModule",
          "name": "",
          "type": "address"
        }
      ],
      "stateMutability": "view",
      "type": "function"
    },
    {
      "inputs": [],
      "name": "staking",
      "outputs": [
        {
          "internalType": "contract IERC4626",
          "name": "",
          "type": "address"
        }
      ],
      "stateMutability": "view",
      "type": "function"
    },
    {
      "inputs": [],
      "name": "stakingUSDz",
      "outputs": [
        {
          "internalType": "contract IERC4626",
          "name": "",
          "type": "address"
        }
      ],
      "stateMutability": "view",
      "type": "function"
    },
    {
      "inputs": [],
      "name": "zai",
      "outputs": [
        {
          "internalType": "contract IERC20Metadata",
          "name": "",
          "type": "address"
        }
      ],
      "stateMutability": "view",
      "type": "function"
    },
    {
      "inputs": [
        {
          "internalType": "uint256",
          "name": "collateralAmount",
          "type": "uint256"
        },
        {
          "internalType": "uint256",
          "name": "minLpAmount",
          "type": "uint256"
        }
      ],
      "name": "zapIntoLP",
      "outputs": [],
      "stateMutability": "nonpayable",
      "type": "function"
    },
    {
      "inputs": [
        {
          "internalType": "uint256",
          "name": "zaiAmount",
          "type": "uint256"
        },
        {
          "internalType": "uint256",
          "name": "collateralAmount",
          "type": "uint256"
        },
        {
          "internalType": "uint256",
          "name": "minLpAmount",
          "type": "uint256"
        }
      ],
      "name": "zapWithZaiIntoLP",
      "outputs": [],
      "stateMutability": "nonpayable",
      "type": "function"
    }
  ],
  "transactionHash": "0x2b97ac4b26d33f4f5895fd6ed0f342426862eeddeb9fbbf0582b801e318bc66a",
  "args": [
    "0xeF12d1614eb0e2bC8E8884c7d4C7f15E34164F40",
    "0x69000e468f7f6d6f4ed00cf46f368acdac252553",
    "0x69000052a82e218ccb61fe6e9d7e3f87b9c5916f"
  ],
  "numDeployments": 1,
  "solcInputHash": "afd07981a6e7f204d763e3872300d207",
  "bytecode": "0x60806040523480156200001157600080fd5b50604051620013f6380380620013f68339810160408190526200003491620005ae565b600080546001600160a01b038086166001600160a01b031992831681179093556004805491851691909216178155604080516338d52e0f60e01b815290518693859390926338d52e0f92818301926020928290030181865afa1580156200009f573d6000803e3d6000fd5b505050506040513d601f19601f82011682018060405250810190620000c5919062000602565b600180546001600160a01b0319166001600160a01b0392831617905560048054604080516301c502cd60e21b8152905191909316926307140b34928181019260209290919082900301816000875af115801562000126573d6000803e3d6000fd5b505050506040513d601f19601f820116820180604052508101906200014c919062000602565b600280546001600160a01b0319166001600160a01b03928316179055600480546040805163d8dfeb4560e01b81529051919093169263d8dfeb45928181019260209290919082900301816000875af1158015620001ad573d6000803e3d6000fd5b505050506040513d601f19601f82011682018060405250810190620001d3919062000602565b600380546001600160a01b0319166001600160a01b039290921691821790556040805163313ce56760e01b8152905163313ce567916004808201926020929091908290030181865afa1580156200022e573d6000803e3d6000fd5b505050506040513d601f19601f8201168201806040525081019062000254919062000629565b6200026190601262000664565b6200026e90600a62000783565b60055560025460015460405163095ea7b360e01b81526001600160a01b039182166004820152600019602482015291169063095ea7b3906044016020604051808303816000875af1158015620002c8573d6000803e3d6000fd5b505050506040513d601f19601f82011682018060405250810190620002ee919062000794565b5060035460015460405163095ea7b360e01b81526001600160a01b039182166004820152600019602482015291169063095ea7b3906044016020604051808303816000875af115801562000346573d6000803e3d6000fd5b505050506040513d601f19601f820116820180604052508101906200036c919062000794565b506003546004805460405163095ea7b360e01b81526001600160a01b039182169281019290925260001960248301529091169063095ea7b3906044016020604051808303816000875af1158015620003c8573d6000803e3d6000fd5b505050506040513d601f19601f82011682018060405250810190620003ee919062000794565b5060015460405163095ea7b360e01b81526001600160a01b03848116600483015260001960248301529091169063095ea7b3906044016020604051808303816000875af115801562000444573d6000803e3d6000fd5b505050506040513d601f19601f820116820180604052508101906200046a919062000794565b505060068054306001600160a01b031991821617909155600780549091166001600160a01b0385811691821790925560025460405163095ea7b360e01b815260048101929092526000196024830152909116915063095ea7b3906044016020604051808303816000875af1158015620004e7573d6000803e3d6000fd5b505050506040513d601f19601f820116820180604052508101906200050d919062000794565b5060075460015460405163095ea7b360e01b81526001600160a01b039182166004820152600019602482015291169063095ea7b3906044016020604051808303816000875af115801562000565573d6000803e3d6000fd5b505050506040513d601f19601f820116820180604052508101906200058b919062000794565b50505050620007b8565b6001600160a01b0381168114620005ab57600080fd5b50565b600080600060608486031215620005c457600080fd5b8351620005d18162000595565b6020850151909350620005e48162000595565b6040850151909250620005f78162000595565b809150509250925092565b6000602082840312156200061557600080fd5b8151620006228162000595565b9392505050565b6000602082840312156200063c57600080fd5b815160ff811681146200062257600080fd5b634e487b7160e01b600052601160045260246000fd5b60ff82811682821603908111156200068057620006806200064e565b92915050565b600181815b80851115620006c7578160001904821115620006ab57620006ab6200064e565b80851615620006b957918102915b93841c93908002906200068b565b509250929050565b600082620006e05750600162000680565b81620006ef5750600062000680565b8160018114620007085760028114620007135762000733565b600191505062000680565b60ff8411156200072757620007276200064e565b50506001821b62000680565b5060208310610133831016604e8410600b841016171562000758575081810a62000680565b62000764838362000686565b80600019048211156200077b576200077b6200064e565b029392505050565b60006200062260ff841683620006cf565b600060208284031215620007a757600080fd5b815180151581146200062257600080fd5b610c2e80620007c86000396000f3fe608060405234801561001057600080fd5b50600436106100a35760003560e01c80634cf088d911610076578063d1b39ae51161005b578063d1b39ae514610139578063d8dfeb4514610150578063fbbe5a331461016357600080fd5b80634cf088d91461011157806352d8e34f1461012457600080fd5b806304bda262146100a857806307140b34146100d857806316f0115b146100eb5780634afd5e48146100fe575b600080fd5b6004546100bb906001600160a01b031681565b6040516001600160a01b0390911681526020015b60405180910390f35b6002546100bb906001600160a01b031681565b6001546100bb906001600160a01b031681565b6007546100bb906001600160a01b031681565b6000546100bb906001600160a01b031681565b610137610132366004610aaa565b610176565b005b61014260055481565b6040519081526020016100cf565b6003546100bb906001600160a01b031681565b610137610171366004610ad6565b610528565b82156101fd576002546006546040516323b872dd60e01b81523360048201526001600160a01b039182166024820152604481018690529116906323b872dd906064016020604051808303816000875af11580156101d7573d6000803e3d6000fd5b505050506040513d601f19601f820116820180604052508101906101fb9190610af8565b505b8115610284576003546006546040516323b872dd60e01b81523360048201526001600160a01b039182166024820152604481018590529116906323b872dd906064016020604051808303816000875af115801561025e573d6000803e3d6000fd5b505050506040513d601f19601f820116820180604052508101906102829190610af8565b505b60408051600280825260608201835260009260208301908036833701905050905083816000815181106102b9576102b9610b21565b60200260200101818152505082816001815181106102d9576102d9610b21565b602090810291909101015260015460405163a7256d0960e01b81526001600160a01b039091169063a7256d099061031890849086903090600401610b37565b6020604051808303816000875af1158015610337573d6000803e3d6000fd5b505050506040513d601f19601f8201168201806040525081019061035b9190610b92565b506000546001546040516370a0823160e01b81523060048201526001600160a01b0392831692636e553f659216906370a0823190602401602060405180830381865afa1580156103af573d6000803e3d6000fd5b505050506040513d601f19601f820116820180604052508101906103d39190610b92565b6040517fffffffff0000000000000000000000000000000000000000000000000000000060e084901b16815260048101919091523360248201526044016020604051808303816000875af115801561042f573d6000803e3d6000fd5b505050506040513d601f19601f820116820180604052508101906104539190610b92565b50600254610469906001600160a01b031661096b565b60035461047e906001600160a01b031661096b565b6001546040516370a0823160e01b81523360048201819052869286927f8254cb1554a3a4f342e4d6bc29ea29f483d72ec4183e94e4a83410c93af84341916001600160a01b0316906370a08231906024015b602060405180830381865afa1580156104ed573d6000803e3d6000fd5b505050506040513d601f19601f820116820180604052508101906105119190610b92565b60405190815260200160405180910390a450505050565b6003546006546040516323b872dd60e01b81523360048201526001600160a01b039182166024820152604481018590529116906323b872dd906064016020604051808303816000875af1158015610583573d6000803e3d6000fd5b505050506040513d601f19601f820116820180604052508101906105a79190610af8565b506000600554836105b89190610bab565b600480546040517f40c10f190000000000000000000000000000000000000000000000000000000081523092810192909252602482018390529192506001600160a01b03909116906340c10f1990604401600060405180830381600087803b15801561062357600080fd5b505af1158015610637573d6000803e3d6000fd5b50506007546001600160a01b03169150636e553f659050610659600284610bd6565b60065460405160e084901b7fffffffff0000000000000000000000000000000000000000000000000000000016815260048101929092526001600160a01b031660248201526044016020604051808303816000875af11580156106c0573d6000803e3d6000fd5b505050506040513d601f19601f820116820180604052508101906106e49190610b92565b50604080516002808252606082018352600092602083019080368337019050509050610711600283610bd6565b8160008151811061072457610724610b21565b602090810291909101015261073a600283610bd6565b8160018151811061074d5761074d610b21565b602090810291909101015260015460065460405163a7256d0960e01b81526001600160a01b039283169263a7256d099261078f92869289921690600401610b37565b6020604051808303816000875af11580156107ae573d6000803e3d6000fd5b505050506040513d601f19601f820116820180604052508101906107d29190610b92565b506000546001546040516370a0823160e01b81523060048201526001600160a01b0392831692636e553f659216906370a0823190602401602060405180830381865afa158015610826573d6000803e3d6000fd5b505050506040513d601f19601f8201168201806040525081019061084a9190610b92565b6040517fffffffff0000000000000000000000000000000000000000000000000000000060e084901b16815260048101919091523360248201526044016020604051808303816000875af11580156108a6573d6000803e3d6000fd5b505050506040513d601f19601f820116820180604052508101906108ca9190610b92565b506002546108e0906001600160a01b031661096b565b6003546108f5906001600160a01b031661096b565b60075461090a906001600160a01b031661096b565b81610916600286610bd6565b6001546040516370a0823160e01b81523360048201819052917f8254cb1554a3a4f342e4d6bc29ea29f483d72ec4183e94e4a83410c93af84341916001600160a01b03909116906370a08231906024016104d0565b6040516370a0823160e01b81523060048201526000906001600160a01b038316906370a0823190602401602060405180830381865afa1580156109b2573d6000803e3d6000fd5b505050506040513d601f19601f820116820180604052508101906109d69190610b92565b9050600081118015610a6f57506040517fa9059cbb000000000000000000000000000000000000000000000000000000008152336004820152602481018290526001600160a01b0383169063a9059cbb906044016020604051808303816000875af1158015610a49573d6000803e3d6000fd5b505050506040513d601f19601f82011682018060405250810190610a6d9190610af8565b155b15610aa6576040517f045c4b0200000000000000000000000000000000000000000000000000000000815260040160405180910390fd5b5050565b600080600060608486031215610abf57600080fd5b505081359360208301359350604090920135919050565b60008060408385031215610ae957600080fd5b50508035926020909101359150565b600060208284031215610b0a57600080fd5b81518015158114610b1a57600080fd5b9392505050565b634e487b7160e01b600052603260045260246000fd5b606080825284519082018190526000906020906080840190828801845b82811015610b7057815184529284019290840190600101610b54565b50505090830194909452506001600160a01b0391909116604090910152919050565b600060208284031215610ba457600080fd5b5051919050565b8082028115828204841417610bd057634e487b7160e01b600052601160045260246000fd5b92915050565b600082610bf357634e487b7160e01b600052601260045260246000fd5b50049056fea26469706673582212201a1d83478df252e927d9b2d9bfa6a1268ea4f0d6da8f091ec7b9afbf8b3259b564736f6c63430008150033",
  "devdoc": {
    "kind": "dev",
    "methods": {
      "zapIntoLP(uint256,uint256)": {
        "details": "This function is used when the user only has collateral tokens.",
        "params": {
          "collateralAmount": "The amount of collateral to zap",
          "minLpAmount": "The minimum amount of LP tokens to stake"
        }
      },
      "zapWithZaiIntoLP(uint256,uint256,uint256)": {
        "details": "This function is used when the user already has ZAI tokens.",
        "params": {
          "collateralAmount": "The amount of collateral to zap",
          "minLpAmount": "The minimum amount of LP tokens to stake",
          "zaiAmount": "The amount of ZAI to zap"
        }
      }
    },
    "version": 1
  },
  "userdoc": {
    "kind": "user",
    "methods": {
      "zapIntoLP(uint256,uint256)": {
        "notice": "Zaps collateral into ZAI LP tokens"
      },
      "zapWithZaiIntoLP(uint256,uint256,uint256)": {
        "notice": "Zaps ZAI and collateral into LP tokens"
      }
    },
    "version": 1
  },
  "storageLayout": {
    "storage": [
      {
        "astId": 32036,
        "contract": "contracts/periphery/zaps/ZapCurvePoolsUSDz.sol:ZapCurvePoolsUSDz",
        "label": "staking",
        "offset": 0,
        "slot": "0",
        "type": "t_contract(IERC4626)8797"
      },
      {
        "astId": 32039,
        "contract": "contracts/periphery/zaps/ZapCurvePoolsUSDz.sol:ZapCurvePoolsUSDz",
        "label": "pool",
        "offset": 0,
        "slot": "1",
        "type": "t_contract(ICurveStableSwapNG)28280"
      },
      {
        "astId": 32042,
        "contract": "contracts/periphery/zaps/ZapCurvePoolsUSDz.sol:ZapCurvePoolsUSDz",
        "label": "zai",
        "offset": 0,
        "slot": "2",
        "type": "t_contract(IERC20Metadata)11005"
      },
      {
        "astId": 32045,
        "contract": "contracts/periphery/zaps/ZapCurvePoolsUSDz.sol:ZapCurvePoolsUSDz",
        "label": "collateral",
        "offset": 0,
        "slot": "3",
        "type": "t_contract(IERC20Metadata)11005"
      },
      {
        "astId": 32048,
        "contract": "contracts/periphery/zaps/ZapCurvePoolsUSDz.sol:ZapCurvePoolsUSDz",
        "label": "psm",
        "offset": 0,
        "slot": "4",
        "type": "t_contract(IPegStabilityModule)27312"
      },
      {
        "astId": 32050,
        "contract": "contracts/periphery/zaps/ZapCurvePoolsUSDz.sol:ZapCurvePoolsUSDz",
        "label": "decimalOffset",
        "offset": 0,
        "slot": "5",
        "type": "t_uint256"
      },
      {
        "astId": 32052,
        "contract": "contracts/periphery/zaps/ZapCurvePoolsUSDz.sol:ZapCurvePoolsUSDz",
        "label": "me",
        "offset": 0,
        "slot": "6",
        "type": "t_address"
      },
      {
        "astId": 32582,
        "contract": "contracts/periphery/zaps/ZapCurvePoolsUSDz.sol:ZapCurvePoolsUSDz",
        "label": "stakingUSDz",
        "offset": 0,
        "slot": "7",
        "type": "t_contract(IERC4626)8797"
      }
    ],
    "types": {
      "t_address": {
        "encoding": "inplace",
        "label": "address",
        "numberOfBytes": "20"
      },
      "t_contract(ICurveStableSwapNG)28280": {
        "encoding": "inplace",
        "label": "contract ICurveStableSwapNG",
        "numberOfBytes": "20"
      },
      "t_contract(IERC20Metadata)11005": {
        "encoding": "inplace",
        "label": "contract IERC20Metadata",
        "numberOfBytes": "20"
      },
      "t_contract(IERC4626)8797": {
        "encoding": "inplace",
        "label": "contract IERC4626",
        "numberOfBytes": "20"
      },
      "t_contract(IPegStabilityModule)27312": {
        "encoding": "inplace",
        "label": "contract IPegStabilityModule",
        "numberOfBytes": "20"
      },
      "t_uint256": {
        "encoding": "inplace",
        "label": "uint256",
        "numberOfBytes": "32"
      }
    }
  }
}