{
  "address": "0x56F5A588149aA70824C976eA5dabbC756a36f050",
  "abi": [
    {
      "inputs": [
        {
          "internalType": "address",
          "name": "_psm",
          "type": "address"
        },
        {
          "internalType": "address",
          "name": "_odos",
          "type": "address"
        }
      ],
      "stateMutability": "nonpayable",
      "type": "constructor"
    },
    {
      "inputs": [
        {
          "internalType": "address",
          "name": "target",
          "type": "address"
        }
      ],
      "name": "AddressEmptyCode",
      "type": "error"
    },
    {
      "inputs": [
        {
          "internalType": "address",
          "name": "account",
          "type": "address"
        }
      ],
      "name": "AddressInsufficientBalance",
      "type": "error"
    },
    {
      "inputs": [],
      "name": "CollateralTransferFailed",
      "type": "error"
    },
    {
      "inputs": [],
      "name": "FailedInnerCall",
      "type": "error"
    },
    {
      "inputs": [],
      "name": "OdosSwapFailed",
      "type": "error"
    },
    {
      "inputs": [
        {
          "internalType": "address",
          "name": "token",
          "type": "address"
        }
      ],
      "name": "SafeERC20FailedOperation",
      "type": "error"
    },
    {
      "inputs": [],
      "name": "TokenTransferFailed",
      "type": "error"
    },
    {
      "anonymous": false,
      "inputs": [
        {
          "indexed": true,
          "internalType": "address",
          "name": "user",
          "type": "address"
        },
        {
          "indexed": true,
          "internalType": "address",
          "name": "token",
          "type": "address"
        },
        {
          "indexed": true,
          "internalType": "uint256",
          "name": "collateralAmount",
          "type": "uint256"
        },
        {
          "indexed": false,
          "internalType": "uint256",
          "name": "zaiAmount",
          "type": "uint256"
        },
        {
          "indexed": false,
          "internalType": "uint256",
          "name": "newStakedAmount",
          "type": "uint256"
        }
      ],
      "name": "Zapped",
      "type": "event"
    },
    {
      "inputs": [],
      "name": "collateral",
      "outputs": [
        {
          "internalType": "contract IERC20Metadata",
          "name": "",
          "type": "address"
        }
      ],
      "stateMutability": "view",
      "type": "function"
    },
    {
      "inputs": [],
      "name": "decimalOffset",
      "outputs": [
        {
          "internalType": "uint256",
          "name": "",
          "type": "uint256"
        }
      ],
      "stateMutability": "view",
      "type": "function"
    },
    {
      "inputs": [],
      "name": "me",
      "outputs": [
        {
          "internalType": "address",
          "name": "",
          "type": "address"
        }
      ],
      "stateMutability": "view",
      "type": "function"
    },
    {
      "inputs": [],
      "name": "odos",
      "outputs": [
        {
          "internalType": "address",
          "name": "",
          "type": "address"
        }
      ],
      "stateMutability": "view",
      "type": "function"
    },
    {
      "inputs": [],
      "name": "psm",
      "outputs": [
        {
          "internalType": "contract IPegStabilityModule",
          "name": "",
          "type": "address"
        }
      ],
      "stateMutability": "view",
      "type": "function"
    },
    {
      "inputs": [],
      "name": "zai",
      "outputs": [
        {
          "internalType": "contract IERC20",
          "name": "",
          "type": "address"
        }
      ],
      "stateMutability": "view",
      "type": "function"
    },
    {
      "inputs": [
        {
          "internalType": "contract IERC20",
          "name": "swapAsset",
          "type": "address"
        },
        {
          "internalType": "uint256",
          "name": "swapAmount",
          "type": "uint256"
        },
        {
          "internalType": "uint256",
          "name": "minAmount",
          "type": "uint256"
        },
        {
          "internalType": "bytes",
          "name": "odosCallData",
          "type": "bytes"
        }
      ],
      "name": "zapWithOdos",
      "outputs": [],
      "stateMutability": "payable",
      "type": "function"
    }
  ],
  "transactionHash": "0xb44a04e85a15a1ee11e3330782cead8e54735001abc6bf9d691ec9e640e91cd6",
  "args": [
    "0x7DCdE153e4cACe9Ca852590d9654c7694388Db54",
    "0xcf5540fffcdc3d510b18bfca6d2b9987b0772559"
  ],
  "numDeployments": 1,
  "solcInputHash": "ced08d4f06d75473873ed220b5be510c",
  "bytecode": "0x60806040523480156200001157600080fd5b5060405162001055380380620010558339810160408190526200003491620002a5565b600080546001600160a01b03199081166001600160a01b0385811691821784556001805490931690851617909155604080516301c502cd60e21b8152905191926307140b349260048084019360209390839003909101908290875af1158015620000a2573d6000803e3d6000fd5b505050506040513d601f19601f82011682018060405250810190620000c89190620002e4565b600280546001600160a01b0319166001600160a01b03928316179055600080546040805163d8dfeb4560e01b81529051919093169263d8dfeb4592600480830193602093909290839003909101908290875af11580156200012d573d6000803e3d6000fd5b505050506040513d601f19601f82011682018060405250810190620001539190620002e4565b600380546001600160a01b0319166001600160a01b039290921691821790556040805163313ce56760e01b8152905163313ce567916004808201926020929091908290030181865afa158015620001ae573d6000803e3d6000fd5b505050506040513d601f19601f82011682018060405250810190620001d491906200030b565b620001e190601262000346565b620001ee90600a62000465565b6004908155600580546001600160a01b0319163017905560035460005460405163095ea7b360e01b81526001600160a01b03918216938101939093526000196024840152169063095ea7b3906044016020604051808303816000875af11580156200025d573d6000803e3d6000fd5b505050506040513d601f19601f8201168201806040525081019062000283919062000476565b5050506200049a565b6001600160a01b0381168114620002a257600080fd5b50565b60008060408385031215620002b957600080fd5b8251620002c6816200028c565b6020840151909250620002d9816200028c565b809150509250929050565b600060208284031215620002f757600080fd5b815162000304816200028c565b9392505050565b6000602082840312156200031e57600080fd5b815160ff811681146200030457600080fd5b634e487b7160e01b600052601160045260246000fd5b60ff828116828216039081111562000362576200036262000330565b92915050565b600181815b80851115620003a95781600019048211156200038d576200038d62000330565b808516156200039b57918102915b93841c93908002906200036d565b509250929050565b600082620003c25750600162000362565b81620003d15750600062000362565b8160018114620003ea5760028114620003f55762000415565b600191505062000362565b60ff84111562000409576200040962000330565b50506001821b62000362565b5060208310610133831016604e8410600b84101617156200043a575081810a62000362565b62000446838362000368565b80600019048211156200045d576200045d62000330565b029392505050565b60006200030460ff841683620003b1565b6000602082840312156200048957600080fd5b815180151581146200030457600080fd5b610bab80620004aa6000396000f3fe6080604052600436106100605760003560e01c806304bda2621461006557806307140b341461009b5780631eba02ec146100bb57806350805a71146100db578063cb12b48f146100f0578063d1b39ae514610110578063d8dfeb4514610134575b600080fd5b34801561007157600080fd5b50600054610085906001600160a01b031681565b60405161009291906109c4565b60405180910390f35b3480156100a757600080fd5b50600254610085906001600160a01b031681565b3480156100c757600080fd5b50600154610085906001600160a01b031681565b6100ee6100e93660046109ee565b610154565b005b3480156100fc57600080fd5b50600554610085906001600160a01b031681565b34801561011c57600080fd5b5061012660045481565b604051908152602001610092565b34801561014057600080fd5b50600354610085906001600160a01b031681565b6001600160a01b038416156101995760055461017f906001600160a01b038681169133911686610542565b600154610199906001600160a01b038681169116856105af565b6003546001600160a01b03858116911614610264576001546040516000916001600160a01b03169034906101ce908590610ad1565b60006040518083038185875af1925050503d806000811461020b576040519150601f19603f3d011682016040523d82523d6000602084013e610210565b606091505b50509050806102595760405162461bcd60e51b815260206004820152601060248201526f1bd91bdcc818d85b1b0819985a5b195960821b60448201526064015b60405180910390fd5b61026285610641565b505b600080546003546005546040516370a0823160e01b81526001600160a01b0393841693631f80b95a938116926370a08231926102a692909116906004016109c4565b602060405180830381865afa1580156102c3573d6000803e3d6000fd5b505050506040513d601f19601f820116820180604052508101906102e79190610b00565b6040518263ffffffff1660e01b815260040161030591815260200190565b602060405180830381865afa158015610322573d6000803e3d6000fd5b505050506040513d601f19601f820116820180604052508101906103469190610b00565b6000546040516340c10f1960e01b81529192506001600160a01b0316906340c10f19906103799033908590600401610b19565b600060405180830381600087803b15801561039357600080fd5b505af11580156103a7573d6000803e3d6000fd5b50506002546040516370a0823160e01b8152600093506001600160a01b0390911691506370a08231906103de9033906004016109c4565b602060405180830381865afa1580156103fb573d6000803e3d6000fd5b505050506040513d601f19601f8201168201806040525081019061041f9190610b00565b6002546040516370a0823160e01b81529192506000916001600160a01b03909116906370a08231906104559033906004016109c4565b602060405180830381865afa158015610472573d6000803e3d6000fd5b505050506040513d601f19601f820116820180604052508101906104969190610b00565b9050846104a38383610b32565b10156104f15760405162461bcd60e51b815260206004820152601a60248201527f696e73756666696369656e7420746f6b656e73206d696e7465640000000000006044820152606401610250565b604080518481526020810183905287916001600160a01b038a169133917f9b2052808db4edc1c12eca1d883bfd73ce648aca34e0a913ebeede1f96f16f84910160405180910390a450505050505050565b6040516001600160a01b0384811660248301528381166044830152606482018390526105a99186918216906323b872dd906084015b604051602081830303815290604052915060e01b6020820180516001600160e01b03838183161783525050505061078d565b50505050565b6000836001600160a01b031663095ea7b384846040516024016105d3929190610b19565b604051602081830303815290604052915060e01b6020820180516001600160e01b038381831617835250505050905061060c84826107ec565b6105a95761063784856001600160a01b031663095ea7b3866000604051602401610577929190610b19565b6105a9848261078d565b6001600160a01b03811661067f5760405133904780156108fc02916000818181858888f1935050505015801561067b573d6000803e3d6000fd5b5050565b6040516370a0823160e01b81526000906001600160a01b038316906370a08231906106ae9030906004016109c4565b602060405180830381865afa1580156106cb573d6000803e3d6000fd5b505050506040513d601f19601f820116820180604052508101906106ef9190610b00565b905060008111801561076f575060405163a9059cbb60e01b81526001600160a01b0383169063a9059cbb9061072a9033908590600401610b19565b6020604051808303816000875af1158015610749573d6000803e3d6000fd5b505050506040513d601f19601f8201168201806040525081019061076d9190610b53565b155b1561067b5760405163022e258160e11b815260040160405180910390fd5b60006107a26001600160a01b03841683610896565b905080516000141580156107c75750808060200190518101906107c59190610b53565b155b156107e75782604051635274afe760e01b815260040161025091906109c4565b505050565b6000806000846001600160a01b0316846040516108099190610ad1565b6000604051808303816000865af19150503d8060008114610846576040519150601f19603f3d011682016040523d82523d6000602084013e61084b565b606091505b50915091508180156108755750805115806108755750808060200190518101906108759190610b53565b801561088b57506000856001600160a01b03163b115b925050505b92915050565b60606108a4838360006108ab565b9392505050565b6060814710156108d0573060405163cd78605960e01b815260040161025091906109c4565b600080856001600160a01b031684866040516108ec9190610ad1565b60006040518083038185875af1925050503d8060008114610929576040519150601f19603f3d011682016040523d82523d6000602084013e61092e565b606091505b509150915061093e868383610948565b9695505050505050565b60608261095d576109588261099b565b6108a4565b815115801561097457506001600160a01b0384163b155b156109945783604051639996b31560e01b815260040161025091906109c4565b50806108a4565b8051156109ab5780518082602001fd5b604051630a12f52160e11b815260040160405180910390fd5b6001600160a01b0391909116815260200190565b634e487b7160e01b600052604160045260246000fd5b60008060008060808587031215610a0457600080fd5b84356001600160a01b0381168114610a1b57600080fd5b93506020850135925060408501359150606085013567ffffffffffffffff80821115610a4657600080fd5b818701915087601f830112610a5a57600080fd5b813581811115610a6c57610a6c6109d8565b604051601f8201601f19908116603f01168101908382118183101715610a9457610a946109d8565b816040528281528a6020848701011115610aad57600080fd5b82602086016020830137600060208483010152809550505050505092959194509250565b6000825160005b81811015610af25760208186018101518583015201610ad8565b506000920191825250919050565b600060208284031215610b1257600080fd5b5051919050565b6001600160a01b03929092168252602082015260400190565b8181038181111561089057634e487b7160e01b600052601160045260246000fd5b600060208284031215610b6557600080fd5b815180151581146108a457600080fdfea26469706673582212202314de90876bcef7665d495f1dff5fdad9093276e7aa24dd8045b53ee5142aa264736f6c63430008150033",
  "devdoc": {
    "errors": {
      "AddressEmptyCode(address)": [
        {
          "details": "There's no code at `target` (it is not a contract)."
        }
      ],
      "AddressInsufficientBalance(address)": [
        {
          "details": "The ETH balance of the account is not enough to perform the operation."
        }
      ],
      "FailedInnerCall()": [
        {
          "details": "A call to an address target failed. The target may have reverted."
        }
      ],
      "SafeERC20FailedOperation(address)": [
        {
          "details": "An operation with an ERC20 token failed."
        }
      ]
    },
    "kind": "dev",
    "methods": {},
    "version": 1
  },
  "userdoc": {
    "kind": "user",
    "methods": {},
    "version": 1
  },
  "storageLayout": {
    "storage": [
      {
        "astId": 2928,
        "contract": "contracts/periphery/zaps/implementations/ethereum/ZapMintMainnet.sol:ZapMintMainnet",
        "label": "psm",
        "offset": 0,
        "slot": "0",
        "type": "t_contract(IPegStabilityModule)2453"
      },
      {
        "astId": 2930,
        "contract": "contracts/periphery/zaps/implementations/ethereum/ZapMintMainnet.sol:ZapMintMainnet",
        "label": "odos",
        "offset": 0,
        "slot": "1",
        "type": "t_address"
      },
      {
        "astId": 2933,
        "contract": "contracts/periphery/zaps/implementations/ethereum/ZapMintMainnet.sol:ZapMintMainnet",
        "label": "zai",
        "offset": 0,
        "slot": "2",
        "type": "t_contract(IERC20)1611"
      },
      {
        "astId": 2936,
        "contract": "contracts/periphery/zaps/implementations/ethereum/ZapMintMainnet.sol:ZapMintMainnet",
        "label": "collateral",
        "offset": 0,
        "slot": "3",
        "type": "t_contract(IERC20Metadata)1637"
      },
      {
        "astId": 2938,
        "contract": "contracts/periphery/zaps/implementations/ethereum/ZapMintMainnet.sol:ZapMintMainnet",
        "label": "decimalOffset",
        "offset": 0,
        "slot": "4",
        "type": "t_uint256"
      },
      {
        "astId": 2940,
        "contract": "contracts/periphery/zaps/implementations/ethereum/ZapMintMainnet.sol:ZapMintMainnet",
        "label": "me",
        "offset": 0,
        "slot": "5",
        "type": "t_address"
      }
    ],
    "types": {
      "t_address": {
        "encoding": "inplace",
        "label": "address",
        "numberOfBytes": "20"
      },
      "t_contract(IERC20)1611": {
        "encoding": "inplace",
        "label": "contract IERC20",
        "numberOfBytes": "20"
      },
      "t_contract(IERC20Metadata)1637": {
        "encoding": "inplace",
        "label": "contract IERC20Metadata",
        "numberOfBytes": "20"
      },
      "t_contract(IPegStabilityModule)2453": {
        "encoding": "inplace",
        "label": "contract IPegStabilityModule",
        "numberOfBytes": "20"
      },
      "t_uint256": {
        "encoding": "inplace",
        "label": "uint256",
        "numberOfBytes": "32"
      }
    }
  }
}