{
  "address": "0x480C32c8df2a0B7004b294049ca2f799C752F147",
  "abi": [
    {
      "inputs": [
        {
          "internalType": "address",
          "name": "_psm",
          "type": "address"
        },
        {
          "internalType": "address",
          "name": "_odos",
          "type": "address"
        }
      ],
      "stateMutability": "nonpayable",
      "type": "constructor"
    },
    {
      "inputs": [
        {
          "internalType": "address",
          "name": "target",
          "type": "address"
        }
      ],
      "name": "AddressEmptyCode",
      "type": "error"
    },
    {
      "inputs": [
        {
          "internalType": "address",
          "name": "account",
          "type": "address"
        }
      ],
      "name": "AddressInsufficientBalance",
      "type": "error"
    },
    {
      "inputs": [],
      "name": "CollateralTransferFailed",
      "type": "error"
    },
    {
      "inputs": [],
      "name": "FailedInnerCall",
      "type": "error"
    },
    {
      "inputs": [],
      "name": "OdosSwapFailed",
      "type": "error"
    },
    {
      "inputs": [
        {
          "internalType": "address",
          "name": "token",
          "type": "address"
        }
      ],
      "name": "SafeERC20FailedOperation",
      "type": "error"
    },
    {
      "inputs": [],
      "name": "TokenTransferFailed",
      "type": "error"
    },
    {
      "anonymous": false,
      "inputs": [
        {
          "indexed": true,
          "internalType": "address",
          "name": "user",
          "type": "address"
        },
        {
          "indexed": true,
          "internalType": "address",
          "name": "token",
          "type": "address"
        },
        {
          "indexed": true,
          "internalType": "uint256",
          "name": "collateralAmount",
          "type": "uint256"
        },
        {
          "indexed": false,
          "internalType": "uint256",
          "name": "zaiAmount",
          "type": "uint256"
        },
        {
          "indexed": false,
          "internalType": "uint256",
          "name": "newStakedAmount",
          "type": "uint256"
        }
      ],
      "name": "Zapped",
      "type": "event"
    },
    {
      "inputs": [],
      "name": "collateral",
      "outputs": [
        {
          "internalType": "contract IERC20Metadata",
          "name": "",
          "type": "address"
        }
      ],
      "stateMutability": "view",
      "type": "function"
    },
    {
      "inputs": [],
      "name": "decimalOffset",
      "outputs": [
        {
          "internalType": "uint256",
          "name": "",
          "type": "uint256"
        }
      ],
      "stateMutability": "view",
      "type": "function"
    },
    {
      "inputs": [],
      "name": "me",
      "outputs": [
        {
          "internalType": "address",
          "name": "",
          "type": "address"
        }
      ],
      "stateMutability": "view",
      "type": "function"
    },
    {
      "inputs": [],
      "name": "odos",
      "outputs": [
        {
          "internalType": "address",
          "name": "",
          "type": "address"
        }
      ],
      "stateMutability": "view",
      "type": "function"
    },
    {
      "inputs": [],
      "name": "psm",
      "outputs": [
        {
          "internalType": "contract IPegStabilityModule",
          "name": "",
          "type": "address"
        }
      ],
      "stateMutability": "view",
      "type": "function"
    },
    {
      "inputs": [],
      "name": "zai",
      "outputs": [
        {
          "internalType": "contract IERC20",
          "name": "",
          "type": "address"
        }
      ],
      "stateMutability": "view",
      "type": "function"
    },
    {
      "inputs": [
        {
          "internalType": "contract IERC20",
          "name": "swapAsset",
          "type": "address"
        },
        {
          "internalType": "uint256",
          "name": "swapAmount",
          "type": "uint256"
        },
        {
          "internalType": "uint256",
          "name": "minAmount",
          "type": "uint256"
        },
        {
          "internalType": "bytes",
          "name": "odosCallData",
          "type": "bytes"
        }
      ],
      "name": "zapWithOdos",
      "outputs": [],
      "stateMutability": "payable",
      "type": "function"
    }
  ],
  "transactionHash": "0xc3cb2557b2b71b6c46f3bc84c7400b1f6e2aeeebcdc5451113b38e749e12b8a6",
  "args": [
    "0x7DCdE153e4cACe9Ca852590d9654c7694388Db54",
    "0xcf5540fffcdc3d510b18bfca6d2b9987b0772559"
  ],
  "numDeployments": 1,
  "solcInputHash": "7fdb9bfbfc540d627f9c36968933994c",
  "bytecode": "0x60806040523480156200001157600080fd5b5060405162000f3438038062000f348339810160408190526200003491620002a5565b600080546001600160a01b03199081166001600160a01b0385811691821784556001805490931690851617909155604080516301c502cd60e21b8152905191926307140b349260048084019360209390839003909101908290875af1158015620000a2573d6000803e3d6000fd5b505050506040513d601f19601f82011682018060405250810190620000c89190620002e4565b600280546001600160a01b0319166001600160a01b03928316179055600080546040805163d8dfeb4560e01b81529051919093169263d8dfeb4592600480830193602093909290839003909101908290875af11580156200012d573d6000803e3d6000fd5b505050506040513d601f19601f82011682018060405250810190620001539190620002e4565b600380546001600160a01b0319166001600160a01b039290921691821790556040805163313ce56760e01b8152905163313ce567916004808201926020929091908290030181865afa158015620001ae573d6000803e3d6000fd5b505050506040513d601f19601f82011682018060405250810190620001d491906200030b565b620001e190601262000346565b620001ee90600a62000465565b6004908155600580546001600160a01b0319163017905560035460005460405163095ea7b360e01b81526001600160a01b03918216938101939093526000196024840152169063095ea7b3906044016020604051808303816000875af11580156200025d573d6000803e3d6000fd5b505050506040513d601f19601f8201168201806040525081019062000283919062000476565b5050506200049a565b6001600160a01b0381168114620002a257600080fd5b50565b60008060408385031215620002b957600080fd5b8251620002c6816200028c565b6020840151909250620002d9816200028c565b809150509250929050565b600060208284031215620002f757600080fd5b815162000304816200028c565b9392505050565b6000602082840312156200031e57600080fd5b815160ff811681146200030457600080fd5b634e487b7160e01b600052601160045260246000fd5b60ff828116828216039081111562000362576200036262000330565b92915050565b600181815b80851115620003a95781600019048211156200038d576200038d62000330565b808516156200039b57918102915b93841c93908002906200036d565b509250929050565b600082620003c25750600162000362565b81620003d15750600062000362565b8160018114620003ea5760028114620003f55762000415565b600191505062000362565b60ff84111562000409576200040962000330565b50506001821b62000362565b5060208310610133831016604e8410600b84101617156200043a575081810a62000362565b62000446838362000368565b80600019048211156200045d576200045d62000330565b029392505050565b60006200030460ff841683620003b1565b6000602082840312156200048957600080fd5b815180151581146200030457600080fd5b610a8a80620004aa6000396000f3fe6080604052600436106100605760003560e01c806304bda2621461006557806307140b341461009b5780631eba02ec146100bb57806350805a71146100db578063cb12b48f146100f0578063d1b39ae514610110578063d8dfeb4514610134575b600080fd5b34801561007157600080fd5b50600054610085906001600160a01b031681565b60405161009291906108a3565b60405180910390f35b3480156100a757600080fd5b50600254610085906001600160a01b031681565b3480156100c757600080fd5b50600154610085906001600160a01b031681565b6100ee6100e93660046108cd565b610154565b005b3480156100fc57600080fd5b50600554610085906001600160a01b031681565b34801561011c57600080fd5b5061012660045481565b604051908152602001610092565b34801561014057600080fd5b50600354610085906001600160a01b031681565b6001600160a01b038416156101f85760055461017f906001600160a01b0386811691339116866105a0565b60015460405163095ea7b360e01b81526001600160a01b038681169263095ea7b3926101b3929091169087906004016109b0565b6020604051808303816000875af11580156101d2573d6000803e3d6000fd5b505050506040513d601f19601f820116820180604052508101906101f691906109c9565b505b6001546040516000916001600160a01b03169034906102189085906109eb565b60006040518083038185875af1925050503d8060008114610255576040519150601f19603f3d011682016040523d82523d6000602084013e61025a565b606091505b50509050806102a35760405162461bcd60e51b815260206004820152601060248201526f1bd91bdcc818d85b1b0819985a5b195960821b60448201526064015b60405180910390fd5b600080546003546005546040516370a0823160e01b81526001600160a01b0393841693631f80b95a938116926370a08231926102e592909116906004016108a3565b602060405180830381865afa158015610302573d6000803e3d6000fd5b505050506040513d601f19601f820116820180604052508101906103269190610a1a565b6040518263ffffffff1660e01b815260040161034491815260200190565b602060405180830381865afa158015610361573d6000803e3d6000fd5b505050506040513d601f19601f820116820180604052508101906103859190610a1a565b6000546040516340c10f1960e01b81529192506001600160a01b0316906340c10f19906103b890339085906004016109b0565b600060405180830381600087803b1580156103d257600080fd5b505af11580156103e6573d6000803e3d6000fd5b50506002546040516370a0823160e01b8152600093506001600160a01b0390911691506370a082319061041d9033906004016108a3565b602060405180830381865afa15801561043a573d6000803e3d6000fd5b505050506040513d601f19601f8201168201806040525081019061045e9190610a1a565b6002546040516370a0823160e01b81529192506000916001600160a01b03909116906370a08231906104949033906004016108a3565b602060405180830381865afa1580156104b1573d6000803e3d6000fd5b505050506040513d601f19601f820116820180604052508101906104d59190610a1a565b9050856104e28383610a33565b10156105305760405162461bcd60e51b815260206004820152601a60248201527f696e73756666696369656e7420746f6b656e73206d696e746564000000000000604482015260640161029a565b600354610545906001600160a01b0316610600565b61054e88610600565b604080518481526020810183905288916001600160a01b038b169133917f9b2052808db4edc1c12eca1d883bfd73ce648aca34e0a913ebeede1f96f16f84910160405180910390a45050505050505050565b604080516001600160a01b0385811660248301528416604482015260648082018490528251808303909101815260849091019091526020810180516001600160e01b03166323b872dd60e01b1790526105fa908590610712565b50505050565b6040516370a0823160e01b81526000906001600160a01b038316906370a082319061062f9030906004016108a3565b602060405180830381865afa15801561064c573d6000803e3d6000fd5b505050506040513d601f19601f820116820180604052508101906106709190610a1a565b90506000811180156106f0575060405163a9059cbb60e01b81526001600160a01b0383169063a9059cbb906106ab90339085906004016109b0565b6020604051808303816000875af11580156106ca573d6000803e3d6000fd5b505050506040513d601f19601f820116820180604052508101906106ee91906109c9565b155b1561070e5760405163022e258160e11b815260040160405180910390fd5b5050565b60006107276001600160a01b03841683610771565b9050805160001415801561074c57508080602001905181019061074a91906109c9565b155b1561076c5782604051635274afe760e01b815260040161029a91906108a3565b505050565b606061077f83836000610788565b90505b92915050565b6060814710156107ad573060405163cd78605960e01b815260040161029a91906108a3565b600080856001600160a01b031684866040516107c991906109eb565b60006040518083038185875af1925050503d8060008114610806576040519150601f19603f3d011682016040523d82523d6000602084013e61080b565b606091505b509150915061081b868383610827565b925050505b9392505050565b60608261083c576108378261087a565b610820565b815115801561085357506001600160a01b0384163b155b156108735783604051639996b31560e01b815260040161029a91906108a3565b5080610820565b80511561088a5780518082602001fd5b604051630a12f52160e11b815260040160405180910390fd5b6001600160a01b0391909116815260200190565b634e487b7160e01b600052604160045260246000fd5b600080600080608085870312156108e357600080fd5b84356001600160a01b03811681146108fa57600080fd5b93506020850135925060408501359150606085013567ffffffffffffffff8082111561092557600080fd5b818701915087601f83011261093957600080fd5b81358181111561094b5761094b6108b7565b604051601f8201601f19908116603f01168101908382118183101715610973576109736108b7565b816040528281528a602084870101111561098c57600080fd5b82602086016020830137600060208483010152809550505050505092959194509250565b6001600160a01b03929092168252602082015260400190565b6000602082840312156109db57600080fd5b8151801515811461082057600080fd5b6000825160005b81811015610a0c57602081860181015185830152016109f2565b506000920191825250919050565b600060208284031215610a2c57600080fd5b5051919050565b8181038181111561078257634e487b7160e01b600052601160045260246000fdfea2646970667358221220391d746a3414495ba0af4ac389907c21a0615d9cd3921a44e21b38e9b625655964736f6c63430008150033",
  "devdoc": {
    "errors": {
      "AddressEmptyCode(address)": [
        {
          "details": "There's no code at `target` (it is not a contract)."
        }
      ],
      "AddressInsufficientBalance(address)": [
        {
          "details": "The ETH balance of the account is not enough to perform the operation."
        }
      ],
      "FailedInnerCall()": [
        {
          "details": "A call to an address target failed. The target may have reverted."
        }
      ],
      "SafeERC20FailedOperation(address)": [
        {
          "details": "An operation with an ERC20 token failed."
        }
      ]
    },
    "kind": "dev",
    "methods": {},
    "version": 1
  },
  "userdoc": {
    "kind": "user",
    "methods": {},
    "version": 1
  },
  "storageLayout": {
    "storage": [
      {
        "astId": 46728,
        "contract": "contracts/periphery/zaps/implementations/ethereum/ZapMint.sol:ZapMint",
        "label": "psm",
        "offset": 0,
        "slot": "0",
        "type": "t_contract(IPegStabilityModule)35612"
      },
      {
        "astId": 46730,
        "contract": "contracts/periphery/zaps/implementations/ethereum/ZapMint.sol:ZapMint",
        "label": "odos",
        "offset": 0,
        "slot": "1",
        "type": "t_address"
      },
      {
        "astId": 46733,
        "contract": "contracts/periphery/zaps/implementations/ethereum/ZapMint.sol:ZapMint",
        "label": "zai",
        "offset": 0,
        "slot": "2",
        "type": "t_contract(IERC20)15836"
      },
      {
        "astId": 46736,
        "contract": "contracts/periphery/zaps/implementations/ethereum/ZapMint.sol:ZapMint",
        "label": "collateral",
        "offset": 0,
        "slot": "3",
        "type": "t_contract(IERC20Metadata)16991"
      },
      {
        "astId": 46738,
        "contract": "contracts/periphery/zaps/implementations/ethereum/ZapMint.sol:ZapMint",
        "label": "decimalOffset",
        "offset": 0,
        "slot": "4",
        "type": "t_uint256"
      },
      {
        "astId": 46740,
        "contract": "contracts/periphery/zaps/implementations/ethereum/ZapMint.sol:ZapMint",
        "label": "me",
        "offset": 0,
        "slot": "5",
        "type": "t_address"
      }
    ],
    "types": {
      "t_address": {
        "encoding": "inplace",
        "label": "address",
        "numberOfBytes": "20"
      },
      "t_contract(IERC20)15836": {
        "encoding": "inplace",
        "label": "contract IERC20",
        "numberOfBytes": "20"
      },
      "t_contract(IERC20Metadata)16991": {
        "encoding": "inplace",
        "label": "contract IERC20Metadata",
        "numberOfBytes": "20"
      },
      "t_contract(IPegStabilityModule)35612": {
        "encoding": "inplace",
        "label": "contract IPegStabilityModule",
        "numberOfBytes": "20"
      },
      "t_uint256": {
        "encoding": "inplace",
        "label": "uint256",
        "numberOfBytes": "32"
      }
    }
  }
}