{
  "address": "0xf0bb628e55a5092f4D21147B4591587D0F4b1deF",
  "abi": [
    {
      "inputs": [
        {
          "internalType": "address",
          "name": "_safetyPool",
          "type": "address"
        },
        {
          "internalType": "address",
          "name": "_zai",
          "type": "address"
        },
        {
          "internalType": "address",
          "name": "_odos",
          "type": "address"
        }
      ],
      "stateMutability": "nonpayable",
      "type": "constructor"
    },
    {
      "inputs": [
        {
          "internalType": "address",
          "name": "target",
          "type": "address"
        }
      ],
      "name": "AddressEmptyCode",
      "type": "error"
    },
    {
      "inputs": [
        {
          "internalType": "address",
          "name": "account",
          "type": "address"
        }
      ],
      "name": "AddressInsufficientBalance",
      "type": "error"
    },
    {
      "inputs": [],
      "name": "FailedInnerCall",
      "type": "error"
    },
    {
      "inputs": [
        {
          "internalType": "address",
          "name": "token",
          "type": "address"
        }
      ],
      "name": "SafeERC20FailedOperation",
      "type": "error"
    },
    {
      "inputs": [],
      "name": "TokenTransferFailed",
      "type": "error"
    },
    {
      "inputs": [],
      "name": "ZaiTransferFailed",
      "type": "error"
    },
    {
      "inputs": [],
      "name": "odos",
      "outputs": [
        {
          "internalType": "address",
          "name": "",
          "type": "address"
        }
      ],
      "stateMutability": "view",
      "type": "function"
    },
    {
      "inputs": [],
      "name": "safetyPool",
      "outputs": [
        {
          "internalType": "contract IERC4626",
          "name": "",
          "type": "address"
        }
      ],
      "stateMutability": "view",
      "type": "function"
    },
    {
      "inputs": [
        {
          "internalType": "contract IERC20",
          "name": "token",
          "type": "address"
        }
      ],
      "name": "sweep",
      "outputs": [],
      "stateMutability": "nonpayable",
      "type": "function"
    },
    {
      "inputs": [],
      "name": "zai",
      "outputs": [
        {
          "internalType": "contract IERC20",
          "name": "",
          "type": "address"
        }
      ],
      "stateMutability": "view",
      "type": "function"
    },
    {
      "inputs": [
        {
          "internalType": "contract IPegStabilityModule",
          "name": "psm",
          "type": "address"
        },
        {
          "internalType": "uint256",
          "name": "amountIn",
          "type": "uint256"
        }
      ],
      "name": "zapIntoSafetyPool",
      "outputs": [],
      "stateMutability": "nonpayable",
      "type": "function"
    },
    {
      "inputs": [
        {
          "internalType": "contract IPegStabilityModule",
          "name": "psm",
          "type": "address"
        },
        {
          "internalType": "contract IERC20",
          "name": "swapAsset",
          "type": "address"
        },
        {
          "internalType": "uint256",
          "name": "swapAmount",
          "type": "uint256"
        },
        {
          "internalType": "uint256",
          "name": "minShares",
          "type": "uint256"
        },
        {
          "internalType": "bytes",
          "name": "odosCallData",
          "type": "bytes"
        }
      ],
      "name": "zapIntoSafetyPoolWithOdos",
      "outputs": [],
      "stateMutability": "payable",
      "type": "function"
    }
  ],
  "transactionHash": "0x8083d0be37cae491f2042b413d15eb4564f932205e75515f0155591625f0e621",
  "args": [
    "0x69000195D5e3201Cf73C9Ae4a1559244DF38D47C",
    "0x69000dFD5025E82f48Eb28325A2B88a241182CEd",
    "0xcf5540fffcdc3d510b18bfca6d2b9987b0772559"
  ],
  "numDeployments": 1,
  "solcInputHash": "eb2ee29b7cba94a6d72cb7d6d125d775",
  "bytecode": "0x608060405234801561001057600080fd5b5060405162000f9438038062000f948339810160408190526100319161010b565b600080546001600160a01b03199081166001600160a01b038681169182179093556001805483168685169081179091556002805430908516179055600380549093169385169390931790915560405163095ea7b360e01b81526004810191909152600019602482015263095ea7b3906044016020604051808303816000875af11580156100c2573d6000803e3d6000fd5b505050506040513d601f19601f820116820180604052508101906100e6919061014e565b50505050610177565b80516001600160a01b038116811461010657600080fd5b919050565b60008060006060848603121561012057600080fd5b610129846100ef565b9250610137602085016100ef565b9150610145604085016100ef565b90509250925092565b60006020828403121561016057600080fd5b8151801515811461017057600080fd5b9392505050565b610e0d80620001876000396000f3fe6080604052600436106100555760003560e01c806301681a621461005a57806307140b341461007c5780631eba02ec146100b257806344aeac5f146100d257806354ff4865146100e5578063913e2c7914610105575b600080fd5b34801561006657600080fd5b5061007a610075366004610bda565b610125565b005b34801561008857600080fd5b5060015461009c906001600160a01b031681565b6040516100a99190610bf7565b60405180910390f35b3480156100be57600080fd5b5060035461009c906001600160a01b031681565b61007a6100e0366004610c21565b61034b565b3480156100f157600080fd5b5061007a610100366004610d0b565b610799565b34801561011157600080fd5b5060005461009c906001600160a01b031681565b6001546040516370a0823160e01b81526000916001600160a01b0316906370a0823190610156903090600401610bf7565b602060405180830381865afa158015610173573d6000803e3d6000fd5b505050506040513d601f19601f820116820180604052508101906101979190610d37565b90506000826001600160a01b03166370a08231306040518263ffffffff1660e01b81526004016101c79190610bf7565b602060405180830381865afa1580156101e4573d6000803e3d6000fd5b505050506040513d601f19601f820116820180604052508101906102089190610d37565b905060008211801561028c575060015460405163a9059cbb60e01b81526001600160a01b039091169063a9059cbb906102479033908690600401610d50565b6020604051808303816000875af1158015610266573d6000803e3d6000fd5b505050506040513d601f19601f8201168201806040525081019061028a9190610d69565b155b156102aa576040516361a6da1b60e01b815260040160405180910390fd5b600081118015610328575060405163a9059cbb60e01b81526001600160a01b0384169063a9059cbb906102e39033908590600401610d50565b6020604051808303816000875af1158015610302573d6000803e3d6000fd5b505050506040513d601f19601f820116820180604052508101906103269190610d69565b155b156103465760405163022e258160e11b815260040160405180910390fd5b505050565b6001600160a01b0384161561037657600254610376906001600160a01b0386811691339116866109e9565b60035460405163095ea7b360e01b81526001600160a01b038681169263095ea7b3926103aa92909116908790600401610d50565b6020604051808303816000875af11580156103c9573d6000803e3d6000fd5b505050506040513d601f19601f820116820180604052508101906103ed9190610d69565b506003546040516000916001600160a01b031690349061040e908590610d8b565b60006040518083038185875af1925050503d806000811461044b576040519150601f19603f3d011682016040523d82523d6000602084013e610450565b606091505b50509050806104995760405162461bcd60e51b815260206004820152601060248201526f1bd91bdcc818d85b1b0819985a5b195960821b60448201526064015b60405180910390fd5b6000866001600160a01b031663d8dfeb456040518163ffffffff1660e01b81526004016020604051808303816000875af11580156104db573d6000803e3d6000fd5b505050506040513d601f19601f820116820180604052508101906104ff9190610dba565b6002546040516370a0823160e01b81529192506000916001600160a01b03808b1692631f80b95a92828716926370a082319261054092911690600401610bf7565b602060405180830381865afa15801561055d573d6000803e3d6000fd5b505050506040513d601f19601f820116820180604052508101906105819190610d37565b6040518263ffffffff1660e01b815260040161059f91815260200190565b602060405180830381865afa1580156105bc573d6000803e3d6000fd5b505050506040513d601f19601f820116820180604052508101906105e09190610d37565b60405163095ea7b360e01b81529091506001600160a01b0383169063095ea7b390610613908b9060001990600401610d50565b6020604051808303816000875af1158015610632573d6000803e3d6000fd5b505050506040513d601f19601f820116820180604052508101906106569190610d69565b506002546040516340c10f1960e01b81526001600160a01b038a8116926340c10f199261068b92909116908590600401610d50565b600060405180830381600087803b1580156106a557600080fd5b505af11580156106b9573d6000803e3d6000fd5b505060008054604051636e553f6560e01b8152600481018690523360248201529193506001600160a01b03169150636e553f65906044016020604051808303816000875af115801561070f573d6000803e3d6000fd5b505050506040513d601f19601f820116820180604052508101906107339190610d37565b9050858110156107855760405162461bcd60e51b815260206004820152601a60248201527f696e73756666696369656e7420746f6b656e73206d696e7465640000000000006044820152606401610490565b61078e83610125565b505050505050505050565b604051630fc05cad60e11b8152600481018290526000906001600160a01b03841690631f80b95a90602401602060405180830381865afa1580156107e1573d6000803e3d6000fd5b505050506040513d601f19601f820116820180604052508101906108059190610d37565b90506000836001600160a01b031663d8dfeb456040518163ffffffff1660e01b81526004016020604051808303816000875af1158015610849573d6000803e3d6000fd5b505050506040513d601f19601f8201168201806040525081019061086d9190610dba565b60025490915061088c906001600160a01b0380841691339116866109e9565b60405163095ea7b360e01b81526001600160a01b0382169063095ea7b3906108ba9087908790600401610d50565b6020604051808303816000875af11580156108d9573d6000803e3d6000fd5b505050506040513d601f19601f820116820180604052508101906108fd9190610d69565b506002546040516340c10f1960e01b81526001600160a01b03868116926340c10f199261093292909116908690600401610d50565b600060405180830381600087803b15801561094c57600080fd5b505af1158015610960573d6000803e3d6000fd5b5050600054604051636e553f6560e01b8152600481018690523360248201526001600160a01b039091169250636e553f6591506044016020604051808303816000875af11580156109b5573d6000803e3d6000fd5b505050506040513d601f19601f820116820180604052508101906109d99190610d37565b506109e381610125565b50505050565b604080516001600160a01b038581166024830152848116604483015260648083018590528351808403909101815260849092019092526020810180516001600160e01b03166323b872dd60e01b1790526109e391869190600090610a4f90841683610a94565b90508051600014158015610a74575080806020019051810190610a729190610d69565b155b156103465782604051635274afe760e01b81526004016104909190610bf7565b6060610aa283836000610aa9565b9392505050565b606081471015610ace573060405163cd78605960e01b81526004016104909190610bf7565b600080856001600160a01b03168486604051610aea9190610d8b565b60006040518083038185875af1925050503d8060008114610b27576040519150601f19603f3d011682016040523d82523d6000602084013e610b2c565b606091505b5091509150610b3c868383610b46565b9695505050505050565b606082610b5b57610b5682610b99565b610aa2565b8151158015610b7257506001600160a01b0384163b155b15610b925783604051639996b31560e01b81526004016104909190610bf7565b5080610aa2565b805115610ba95780518082602001fd5b604051630a12f52160e11b815260040160405180910390fd5b50565b6001600160a01b0381168114610bc257600080fd5b600060208284031215610bec57600080fd5b8135610aa281610bc5565b6001600160a01b0391909116815260200190565b634e487b7160e01b600052604160045260246000fd5b600080600080600060a08688031215610c3957600080fd5b8535610c4481610bc5565b94506020860135610c5481610bc5565b93506040860135925060608601359150608086013567ffffffffffffffff80821115610c7f57600080fd5b818801915088601f830112610c9357600080fd5b813581811115610ca557610ca5610c0b565b604051601f8201601f19908116603f01168101908382118183101715610ccd57610ccd610c0b565b816040528281528b6020848701011115610ce657600080fd5b8260208601602083013760006020848301015280955050505050509295509295909350565b60008060408385031215610d1e57600080fd5b8235610d2981610bc5565b946020939093013593505050565b600060208284031215610d4957600080fd5b5051919050565b6001600160a01b03929092168252602082015260400190565b600060208284031215610d7b57600080fd5b81518015158114610aa257600080fd5b6000825160005b81811015610dac5760208186018101518583015201610d92565b506000920191825250919050565b600060208284031215610dcc57600080fd5b8151610aa281610bc556fea2646970667358221220ff7c8baf415adfd773927dee29cc5cd0df5597314f20482fa8768dfd6a1d840f64736f6c63430008150033",
  "devdoc": {
    "details": "This contract allows users to directly stake into the safety pool",
    "errors": {
      "AddressEmptyCode(address)": [
        {
          "details": "There's no code at `target` (it is not a contract)."
        }
      ],
      "AddressInsufficientBalance(address)": [
        {
          "details": "The ETH balance of the account is not enough to perform the operation."
        }
      ],
      "FailedInnerCall()": [
        {
          "details": "A call to an address target failed. The target may have reverted."
        }
      ],
      "SafeERC20FailedOperation(address)": [
        {
          "details": "An operation with an ERC20 token failed."
        }
      ]
    },
    "kind": "dev",
    "methods": {
      "constructor": {
        "details": "Initializes the contract with the required contracts"
      },
      "zapIntoSafetyPool(address,uint256)": {
        "params": {
          "amountIn": "The amount to zap",
          "psm": "The Peg Stability Module for the asset"
        }
      }
    },
    "stateVariables": {
      "me": {
        "details": "The address of this contract"
      }
    },
    "title": "ZapSafetyPool",
    "version": 1
  },
  "userdoc": {
    "kind": "user",
    "methods": {
      "safetyPool()": {
        "notice": "The safety pool contract"
      },
      "zai()": {
        "notice": "The ZAI stablecoin"
      },
      "zapIntoSafetyPool(address,uint256)": {
        "notice": "Allows a user to zap into the safety pool"
      }
    },
    "version": 1
  },
  "storageLayout": {
    "storage": [
      {
        "astId": 1445,
        "contract": "contracts/periphery/zaps/implementations/ethereum/ZapSafetyPool.sol:ZapSafetyPool",
        "label": "safetyPool",
        "offset": 0,
        "slot": "0",
        "type": "t_contract(IERC4626)173"
      },
      {
        "astId": 1449,
        "contract": "contracts/periphery/zaps/implementations/ethereum/ZapSafetyPool.sol:ZapSafetyPool",
        "label": "zai",
        "offset": 0,
        "slot": "1",
        "type": "t_contract(IERC20)251"
      },
      {
        "astId": 1452,
        "contract": "contracts/periphery/zaps/implementations/ethereum/ZapSafetyPool.sol:ZapSafetyPool",
        "label": "me",
        "offset": 0,
        "slot": "2",
        "type": "t_address"
      },
      {
        "astId": 1454,
        "contract": "contracts/periphery/zaps/implementations/ethereum/ZapSafetyPool.sol:ZapSafetyPool",
        "label": "odos",
        "offset": 0,
        "slot": "3",
        "type": "t_address"
      }
    ],
    "types": {
      "t_address": {
        "encoding": "inplace",
        "label": "address",
        "numberOfBytes": "20"
      },
      "t_contract(IERC20)251": {
        "encoding": "inplace",
        "label": "contract IERC20",
        "numberOfBytes": "20"
      },
      "t_contract(IERC4626)173": {
        "encoding": "inplace",
        "label": "contract IERC4626",
        "numberOfBytes": "20"
      }
    }
  }
}